:100000000C9482110C94B3110C94B3110C94B31191
:100010000C94B3110C94B3110C94B3110C94B31150
:100020000C94B3110C94B3110C94B3110C94B31140
:100030000C94B3110C94497D0C94B3110C94B3112E
:100040000C94B3110C94C04A0C94B3110C94B311DA
:100050000C94B3110C94B3110C94BA800C94D2B7D5
:100060000C94B3110C942D780C945B780C94B31110
:100070000C94B3110C94B3110C94B3110C94B311F0
:100080000C94B3110C94B3110C94B3110C94B311E0
:100090000C94B3110C94B3110C94B3110C94B311D0
:1000A0000C94B3110C94B3110C94B3110C94B311C0
:1000B0000C94B3110C94B3110C94B3110C94B311B0
:1000C0000C94B3110C94B3110C94B3110C94187CD0
:1000D0000C94EE7B0C94B3110C94B3110C94B311EB
:1000E0000C94B3113F934293319335933B9379939F
:1000F00046934A935093549358935E9362936693B6
:1001000079936C93709374935C94619466947094F7
:100110007A94F39484948C9494949E94A894B29436
:10012000C194CB94F394D594DF94E994509592952F
:10013000C69517964C9603976D9675979696CB969F
:100140004FA16EA37EA37EA37EA3BBA3BDA3BDA32D
:10015000BDA3BDA381A3BBA3BDA38DA30C94D594C4
:100160000C94AB660C9479930C9470940C941CB81A
:100170000C9475750C94787C0C94659D0C94DF94AC
:100180000C949B7C0C9494940C94C6670C940E690C
:100190000C94466A0C944E7C0C946D960C9461946D
:1001A0000C94877C0C943F930C9481A30C94256849
:1001B0000C948E990C9435930C9454930C948494D1
:1001C0000C940ACE0C948A660C945C940C94319333
:1001D0000C9455690C9417960C9496960C949E94D6
:1001E0000C944FA10C94CB960C94D2670C9403976B
:1001F0000C94CB940C94C6950C94A8940C945093A6
:100200000C9470930C94D06A0C946C930C94732699
:100210000C94577E0C9476750C9458930C945095CE
:100220000C9458660C9425980C94016A0C94929541
:100230000C94B2940C94E9940C94BDA30C94766540
:100240000C9474930C946EA30C94A97C0C945E9300
:100250000C94DFAF0C944C960C94C1940C943B938B
:100260000C9475970C9462930C94E2640C946694CD
:100270000C94F3940C940A7E0C94E9670C948DA36F
:100280000C9466930C944A930C947A940C94F964AD
:100290000C9442930C9494650C94EA7C0C948C948A
:1002A0000C9446930C947EA30C9407680C94BE6542
:1002B0000C94BBA34E414E494E495459494E46CD2C
:1002C000CCCC3D0AD7233C17B7D13877CC2B32950D
:1002D00095E6241FB14F0A000020410000C84200EB
:1002E000401C4620BCBE4CCA1B0E5AAEC59D744372
:1002F0004F4D4D554E49434154494F4E004452597C
:1003000052554E004552524F525300494E464F00EF
:100310004543484F00557370696A2E2E2E004D35A7
:1003200030300059206F7574206F662072616E67DF
:10033000652028312D33292E0A0058206F7574202E
:100340006F662072616E67652028312D33292E0A71
:10035000004D6573682070726F62696E6720646F0C
:100360006E652E0A005374617274206D6573682087
:1003700070726F62696E67207769746820224732F5
:1003800039205331222066697273742E0A00473275
:10039000380A4732392053320053746174653A2069
:1003A000004D65736820626564206C6576656C69D4
:1003B0006E6720686173206E6F20646174612E0A1D
:1003C0000053206F7574206F662072616E67652020
:1003D00028302D35292E0A004D65736820706F690D
:1003E0006E742063616E6E6F742062652072657337
:1003F0006F6C7665640A004F637A656B6977616E2E
:1004000069652E2E2E004D30004272616B20727590
:1004100063687500456E642066696C65206C69735D
:10042000740A00426567696E2066696C65206C69B4
:1004300073740A004D313235005344207072696E76
:1004400074696E67206279746520004E6F74205362
:1004500044207072696E74696E670A005072696E2A
:10046000742074696D653A200050726F746563740E
:1004700065642050696E0A005072696E746F20487E
:100480003320457820676F746F77612E0010030B5F
:10049000030403FD02EF026F6666004445425547C0
:1004A0003A0055626974792E20004D313133205362
:1004B000006F6B004361703A454D455247454E43CE
:1004C000595F5041525345523A300A004361703AE5
:1004D000434153455F4C494748545F42524947485E
:1004E000544E4553533A300A004361703A544F47D3
:1004F000474C455F4C49474854533A300A004361E2
:10050000703A534F4654574152455F504F574552EA
:100510003A300A004361703A4C4556454C494E47C3
:100520005F444154413A310A004361703A5A5F5086
:10053000524F42453A300A004361703A4155544F98
:100540004C4556454C3A300A004361703A50524986
:100550004E545F4A4F423A310A004361703A50525A
:100560004F47524553533A300A004361703A415560
:10057000544F5245504F52545F54454D503A310AF2
:10058000004361703A454550524F4D3A310A00469A
:1005900049524D574152455F4E414D453A4D61726A
:1005A0006C696E20312E332E3162202847697468C1
:1005B00075622920534F555243455F434F44455F71
:1005C00055524C3A68747470733A2F2F6769746887
:1005D00075622E636F6D2F4D61726C696E46697224
:1005E0006D776172652F4D61726C696E2050524F4C
:1005F000544F434F4C5F56455253494F4E3A312E5C
:1006000030204D414348494E455F545950453A507A
:1006100072696E746F2048332045782045585452D3
:10062000554445525F434F554E543A312055554934
:10063000443A63656465326132662D343161322D2E
:10064000343734382D396231322D633535633632E3
:100650006633363766660A002F2F200053657474A0
:10066000696E672054726176656C20416363656CC6
:1006700065726174696F6E3A200053657474696EB7
:1006800067205265747261637420416363656C65B1
:10069000726174696F6E3A200053657474696E6795
:1006A000205072696E7420416363656C6572617479
:1006B000696F6E3A200053657474696E67205072DA
:1006C000696E7420616E642054726176656C20419D
:1006D0006363656C65726174696F6E3A2000205ABD
:1006E00000205900580020204D61783A2000205AFF
:1006F00000205900580020204D696E3A2000576CA8
:100700002E200057796C2E00536F667420656E643E
:1007100073746F70733A20000001363726FF023C75
:100720003D380EFF2E303EFF13FF0C0809FFFFFF80
:100730001A1C18FFFF08440AFF43FFFFFFFFFFFFDB
:1007400020643A0020693A0020703A0020643A00A0
:1007500020693A0020703A0043290A0061626C6502
:100760006420286D696E2074656D702000436F6C85
:100770006420657874727564657320617265200009
:10078000426564204C6576656C696E672000466141
:10079000696C656420746F20656E61626C652042CF
:1007A0006564204C6576656C696E670A004D6573FB
:1007B0006820426564204C6576656C2064617461D4
:1007C0003A0A00506F7A2E207A65726F7761207531
:1007D00073742E004572723A20546F6F20666172F6
:1007E0002100546F6F206661722066726F6D2072F7
:1007F00065666572656E636520706F696E740A0068
:100800004E6F2063617365206C696768740A0041EC
:1008100063746976652045787472756465723A20F0
:1008200000556E6B6E6F776E20636F6D6D616E64D9
:100830003A202200736C6F743A0039363030204F02
:100840004B202D3E20545259203131350A00393683
:100850003030204641494C202D3E20545259203101
:1008600031350A004E657874696F6E20636F6E6E65
:100870006563746564210A004E657874696F6E2043
:100880006E6F7420636F6E6E6563746564210A0019
:100890002020506C616E6E657242756666657242AC
:1008A000797465733A20002046726565204D656D48
:1008B0006F72793A2000436F6D70696C65643A20FD
:1008C00041756720203620323032300A00207C20EB
:1008D000417574686F723A20285072696E746F3374
:1008E000642E706C2C204A616B75622053696B6FAB
:1008F0007261290A00323032302D30382D30360006
:10090000204C61737420557064617465643A2000F2
:10091000312E332E31620A004D61726C696E0020F7
:10092000536F6674776172652052657365740A004F
:10093000205761746368646F672052657365740A39
:10094000002042726F776E206F7574205265736558
:10095000740A002045787465726E616C205265736C
:1009600065740A00506F77657255700A0073746180
:1009700072740A006572726F722077726974696EA0
:100980006720746F2066696C650A00205A3A00205F
:10099000593A0020583A00656E6473746F70732082
:1009A0006869743A2000446F6E6520736176696EE1
:1009B000672066696C652E0A004D32390055626900
:1009C00074792E20005A6174727A796D616E792E75
:1009D00020005072696E7465722073746F70706558
:1009E000642064756520746F206572726F72732E57
:1009F0002046697820746865206572726F72206184
:100A00006E6420757365204D39393920746F2072FA
:100A10006573746172742E202854656D70657261FF
:100A2000747572652069732072657365742E205326
:100A300065742069742061667465722072657374D0
:100A4000617274696E67290A004E6F204C696E6589
:100A5000204E756D626572207769746820636865E1
:100A6000636B73756D2C204C617374204C696E65DB
:100A70003A20004E6F20436865636B73756D207775
:100A8000697468206C696E65206E756D6265722C84
:100A9000204C617374204C696E653A200063686570
:100AA000636B73756D206D69736D617463682C2061
:100AB0004C617374204C696E653A20004C696E6518
:100AC000204E756D626572206973206E6F74204CC4
:100AD000617374204C696E65204E756D6265722B72
:100AE000312C204C617374204C696E653A20004DA6
:100AF000313130004D3331004D38342058205920E9
:100B00005A20450053442072656164206572726FFB
:100B1000720A00446F6E65207072696E74696E6748
:100B20002066696C650A0020496E76616C696420F4
:100B30006578747275646572200000000000000022
:100B40000000000000000080984300009B4300006C
:100B50000244526F7A67727A616E6F2073746F6CA1
:100B60000020573A00526F7A67727A6577616E6932
:100B7000652073746F6C752E2E2E00205A3A00205B
:100B8000423A0020436F756E7420413A0020453A86
:100B900000205A3A0020593A00583A004B6420008D
:100BA00023646566696E65202044454641554C5472
:100BB0005F004B69200023646566696E65202044F0
:100BC000454641554C545F004B70200023646566D8
:100BD000696E65202044454641554C545F0050499C
:100BE0004420756B6F6E637A6F6E6F0050494420BE
:100BF0004175746F74756E652066696E697368659A
:100C000064212050757420746865206C61737420B1
:100C10004B702C204B6920616E64204B6420636F05
:100C20006E7374616E74732066726F6D2062656C92
:100C30006F7720696E746F20436F6E666967757297
:100C40006174696F6E2E680A0050494420417574C2
:100C50006F74756E65206661696C656421207469C6
:100C60006D656F75740A0050494420626C61643A86
:100C7000206F76657273686F740050494420626C0F
:100C80006164206B616C69627261636A69005049DA
:100C900044204175746F74756E65206661696C657A
:100CA00064212054656D706572617475726520747D
:100CB0006F6F20686967680A00204B643A20002043
:100CC0004B693A2000204B703A20000A20436C61A7
:100CD0007373696320504944200A002054753A20F8
:100CE00000204B753A2000206D61783A2000206D7D
:100CF000696E3A200020643A200020626961733AEC
:100D0000200050494420726F7A706F637A65746F67
:100D1000004D65736820706F696E742063616E6E3C
:100D20006F74206265207265736F6C7665640A006B
:100D30004D34323120696E636F7272656374207056
:100D40006172616D657465722075736167650A0013
:100D50002066697273740A005A0059005800486F7F
:100D60006D65200020636F6C642065787472757304
:100D7000696F6E2070726576656E7465640A002412
:100D8000F4D43050C38E20C2A24017828B7011124F
:100D90007A910D816CD90AA861E108C7586607618C
:100DA0005143061E4B5D05C145A7041A41110409B4
:100DB0003D9803713931034036DB0265339102D42B
:100DC000305402802E1D02632CEE01752AC501B03D
:100DD00028A001102781018F2564012B244B01E0FD
:100DE000223401AC211F018D200D01801FFC0084E5
:100DF0001EED00971DDF00B81CD200E61BC60020C8
:100E00001BBC00641AB200B219A8000A19A0006A3B
:100E1000189900D117910040178B00B51684003146
:100E2000167E00B31579003A157300C7146F005889
:100E3000146A00EE1366008813630025135E00C772
:100E4000125B006C12570015125400C11151007052
:100E5000114F0021114B00D61049008D104700465C
:100E600010440002104200C00F4000800F3E0042BC
:100E70000F3C00060F3B00CB0E3800930E37005C92
:100E80000E3500270E3400F30D3200C10D310090F5
:100E90000D3000600D2E00320D2D00050D2C00D9F7
:100EA0000C2B00AE0C2900850C29005C0C270035AA
:100EB0000C27000E0C2600E80B2400C40B2400A015
:100EC0000B23007D0B23005A0B2100390B21001846
:100ED0000B2000F80A1F00D90A1E00BB0A1E009D45
:100EE0000A1D00800A1D00630A1C00470A1B002C13
:100EF0000A1B00110A1A00F7091A00DD091900C4BB
:100F0000091900AB091900920917007B0918006341
:100F10000917004C09160036091600200916000AA8
:100F2000091500F5081500E0081400CC081400B8F5
:100F3000081400A4081400900813007D0812006B28
:100F40000813005808120046081200340811002344
:100F50000811001208110001081100F0071000E04C
:100F6000071000D0071000C0071000B0070F00A145
:100F700007100091070E0083070F0074070F00652C
:100F8000070E0057070E0049070E003B070D002E05
:100F9000070E0020070D0013070D0006070D00F9CE
:100FA000060C00ED060D00E0060C00D4060C00C88F
:100FB000060C00BC060C00B0060C00A4060B009941
:100FC000060C008D060B0082060B0077060B006CEA
:100FD000060B0061060A0057060B004C060A004289
:100FE000060A0038060A002E060A0024060A001A1D
:100FF000060A001006090007060A00FD050900F4AC
:10100000050900EB050900E2050900D9050900D032
:10101000050900C7050900BE050900B5050800ADB2
:10102000050800A50509009C050800940508008C2A
:10103000050800840508007C050800740508006C9C
:10104000050700650508005D050700560508004E08
:10105000050700470507004005080038050700316F
:101060000507002A050700230507001C05060016D2
:101070000507000F0507000805060002050700FB2D
:10108000040600F5040700EE040600E8040600E28A
:10109000040700DB040600D5040600CF040600C9DF
:1010A000040600C3040600BD040600B7040600B130
:1010B000040500AC040600A6040600A00405009B7D
:1010C00004060095040500900406008A04050085C6
:1010D000040500800406007A04050075040500700C
:1010E0000405006B04050066040500610405005C4E
:1010F00004050057040500520405004D040500488E
:10110000040500430405003E0404003A04050035CC
:10111000040500300404002C040500270404002307
:101120000405001E0404001A04040016040500113E
:101130000404000D04040009040500040404000074
:10114000040400FC030400F8030400F4030400F0AA
:10115000030400EC030400E8030400E4030400E0DB
:10116000030400DC030400D8030400D4030400D00B
:10117000030400CC030400C8030300C503030024D8
:10118000F404D9201BC40C5C0E9804C4095F0265EA
:10119000077101F405F900FB04B30048048700C19E
:1011A0000369005803550003034500BE023A00845A
:1011B00002310053022A002902250004022000E423
:1011C000011C00C8011900AF011700980114008428
:1011D000011300710110006101100051010E004364
:1011E000010D0036010B002B010B0020010B001537
:1011F0000109000C01090003010800FB000800F3CD
:10120000000800EB000700E4000600DE000600D83E
:10121000000600D2000600CC000500C7000500C291
:10122000000500BD000400B9000400B5000400B1D1
:10123000000400AD000400A9000400A5000300A202
:101240000003009F0004009B00030098000300952A
:1012500000020093000300900003008D0002008B49
:101260000003008800020086000200840003008161
:101270000002007F0002007D0002007B0002007976
:101280000002007700010076000200740002007284
:10129000000100710002006F0002006D0001006C8F
:1012A0000002006A00010069000200670001006698
:1012B000000100650001006400020062000100619D
:1012C000000100600001005F0002005D0001005CA1
:1012D0000001005B0001005A0001005900010058A4
:1012E00000010057000100560001005500010054A4
:1012F00000010053000000530001005200010051A2
:10130000000100500001004F0001004E0000004E9F
:101310000001004D0001004C0001004B0000004B9B
:101320000001004A00010049000100480000004897
:101330000001004700010046000000460001004592
:10134000000000450001004400010043000000438C
:101350000001004200000042000100410000004185
:10136000000100400001003F0000003F0001003E7E
:101370000000003E0001003D0000003D0001003C77
:101380000000003C0000003C0001003B0000003B6E
:101390000001003A0000003A000100390000003965
:1013A000000100380000003800000038000100375C
:1013B0000000003700010036000000360000003653
:1013C0000001003500000035000000350001003448
:1013D000000000340000003400010033000000333E
:1013E0000000003300010032000000320000003233
:1013F0000001003100000031000000310001003028
:1014000000000030000000300001002F0000002F1D
:101410000000002F0000002F0001002E0000002E11
:101420000000002E0001002D0000002D0000002D06
:101430000000002D0001002C0000002C0000002CFA
:101440000000002C0001002B0000002B0000002BEE
:101450000000002B0001002A0000002A0000002AE2
:101460000000002A000100290000002900000029D6
:1014700000000029000000290001002800000028C9
:1014800000000028000000280000002800010027BC
:1014900000000027000000270000002700000027B0
:1014A00000010026000000260000002600000026A3
:1014B0000000002600010025000000250000002596
:1014C0000000002500000025000000250001002488
:1014D000000000240000002400000024000000247C
:1014E000000100230000002300000023000000236F
:1014F0000000002300000023000000230001002260
:101500000000002200000022000000220000002253
:101510000000002200010021000000210000002145
:101520000000002100000021000000210000002137
:10153000000100200000002000000020000000202A
:10154000000000200000002000000020000000201B
:101550000001001F0000001F0000001F0000001F0E
:101560000000001F0000001F0000001F0001001EFF
:101570000000001E0000001E0000001E0000004DC4
:10158000383420582059205A20450020636F6C645D
:1015900020657874727573696F6E207072657665F8
:1015A0006E7465640A00627573793A2070617573B0
:1015B000656420666F7220696E7075740A006275CA
:1015C00073793A2070617573656420666F72207557
:1015D0007365720A00627573793A2070726F636581
:1015E0007373696E670A004D363030005562697456
:1015F000792E20004B494C4C206361757365642043
:101600006279204B494C4C20627574746F6E2F7058
:10161000696E0A0055626974792E20004B494C4C62
:101620002063617573656420627920746F6F206D2B
:1016300075636820696E6163746976652074696D8D
:1016400065202D2063757272656E7420636F6D6DF9
:10165000616E643A20005072696E74657220686130
:101660006C7465642E206B696C6C28292063616C36
:101670006C6564210A0000809843000000000000AF
:10168000024400009642000096420000C84100005B
:1016900000005761726E696E673A20486F6D696E1F
:1016A000672042756D702044697669736F72203CC3
:1016B00020310A000202080000A0400000A0400003
:1016C00000A0400080984300009B430000024401BA
:1016D000FF014D36303020486F74656E6420746FA2
:1016E0006F20636F6C6420746F206368616E676540
:1016F0002066696C616D656E740A00206E6F7420DF
:10170000656E74657265642E0A000A4D65617375B5
:1017100072656420706F696E74733A0A005A206FA4
:1017200066667365743A20004E756D20582C593AE0
:1017300020332C330A0046696C652064656C65743F
:1017400065643A0044656C6574696F6E2066616912
:101750006C65642C2046696C653A20006F70656E7C
:10176000206661696C65642C2046696C653A2000CE
:101770006D0046696C616D656E7420757365643AC1
:10178000200053746174733A20002C204C6F6E67F4
:10179000657374206A6F623A2000546F74616C2024
:1017A00074696D653A200053746174733A20002C9B
:1017B000204661696C65643A20002C2046696E6998
:1017C000736865643A20005072696E74733A200041
:1017D00053746174733A2000202F002042403A0075
:1017E00020403A00526F7A67727A616E6F0020571C
:1017F0003A005072696E746F204833204578206734
:101800006F746F77612E00577A6E6F7769656E69B6
:1018100065004D32340057796472756B20777374AC
:10182000727A796D616E79004D3132350047323907
:10183000205332004E49450054414B004E4945006B
:101840004D2042204C00323032302D30382D303691
:1018500000312E332E316200256C642E25696D0017
:1018600054656D702E206D696E3A20313730006BF3
:101870006F6E74796E756F77616300726F7A6772DD
:101880007A656A2061627900476C6F7769636120CD
:101890006A657374207A696D6E612C004D36303044
:1018A0002042300047393000473931004732380094
:1018B0004472756B2070727A657277616E7900433D
:1018C000616E6E6F74206F70656E207375626469EF
:1018D00072200053442063617264206F6B0A006FB2
:1018E00070656E526F6F74206661696C65640A0082
:1018F000766F6C756D652E696E6974206661696CB2
:1019000065640A004572726F723A00534420696E32
:101910006974206661696C0A006175746F25692EAF
:1019200067004D3234004D323320257300656E71EF
:1019300075657565696E672022006563686F3A009A
:101940003D003F2061646472657373203A2000207B
:101950006279746573206F66206D656D6F72792092
:10196000696E697469616C697A65642E0A0A00554A
:101970006E61626C6520746F20696E697469616C58
:10198000697A652E0A0A00496E697469616C697A20
:10199000696E672066726565206D656D6F7279206E
:1019A000626C6F636B2E0A0A0A00747275650A0016
:1019B0002072657475726E3D000A4D656D6F7279A7
:1019C00020436F7272757074696F6E206465746500
:1019D0006374656420696E2066726565206D656D4F
:1019E0006F727920617265612E0A002020626C6F2F
:1019F000636B5F666F756E643D00202020002920B8
:101A0000666F756E643D00202800207370203C20B6
:101A10004865617020002073703D000A5F5F62734B
:101A2000735F656E643A20003D000A265F5F627254
:101A30006B76616C3A20000A666D632829206E3D42
:101A400000636865636B5F666F725F667265655F92
:101A50006D656D6F72795F636F7272757074696FA7
:101A60006E2829203D2000206279746573206174FE
:101A700020000A4C61726765737420667265652088
:101A8000626C6F636B20697320000A4D656D6F7225
:101A90007920436F7272757074696F6E206465741B
:101AA000656374656420696E2066726565206D6586
:101AB0006D6F727920617265612E0A0020627974FF
:101AC000657320667265652061742000466F756ECF
:101AD0006420000A436F7272757074696E672061CA
:101AE0006464726573733A2000436F727275707428
:101AF000696E672066726565206D656D6F7279200D
:101B0000626C6F636B2E0A0A000A537461636B2068
:101B1000506F696E746572203A20000A73746172A6
:101B200074206F662066726565207370616365203E
:101B30003A20000A5F5F6273735F656E64203A202B
:101B4000000A5F5F62726B76616C203A2000256943
:101B5000730025696D202569730025696820256952
:101B60006D20256973002569642025696820256931
:101B70006D20256973002569792025696420256910
:101B8000682025696D202569730070012C01900182
:101B90002701B0012201C0011D01F001180110024E
:101BA000130130020E016002090190020401C0021B
:101BB000FF000003FA004003F5008003F000D003AB
:101BC000EB002004E6007004E100E004DC004005C6
:101BD000D700C005D2004006CD00D006C80080075F
:101BE000C3003008BE00F008B900C009B400B00A54
:101BF000AF00B00BAA00D00CA500000EA000500F43
:101C00009B00C01096005012910000148C00C0156B
:101C10008700B0178200B0197D00D01B7800001E2D
:101C2000730040206E0090226900F0246400402779
:101C30005F0090295A00E02B5500102E50002030F4
:101C40004B0010324600E033410090353C00103725
:101C5000370070383200A0392D00B03A2800A03B80
:101C60002300603C1E00103D1900903D1400103E02
:101C70000F00703E0A00C03E0500003F0000403FDC
:101C8000FBFF803FF6FFC03FF1FF457272206D6998
:101C90006E2074656D702073746F6C750045727280
:101CA000206D696E2074656D70004D494E54454D30
:101CB00050207472696767657265640045727220AE
:101CC0006D61782074656D702073746F6C7500455C
:101CD0007272206D61782074656D70004D415854AA
:101CE000454D502074726967676572656400027CB7
:101CF0003C3E5E2B3D3F2F5B5D3B2C2A225C002946
:101D00000A002062797465733B206372632000537C
:101D1000657474696E67732053746F7265642028EC
:101D200000202863616C63756C6174656429210A05
:101D30000020213D2000454550524F4D2043524345
:101D4000206D69736D61746368202D202873746F32
:101D5000726564292000290A002062797465733B4A
:101D60002063726320002073746F72656420736552
:101D70007474696E677320726574726965766564E0
:101D8000202800204D61726C696E3D563339290A56
:101D90000028454550524F4D3D00454550524F4D4E
:101DA0002076657273696F6E206D69736D617463FF
:101DB00068200000002100240027002A002D0030A8
:101DC00000330001010000040107010A01000022A4
:101DD00000250028002B002E0031003400020100F5
:101DE00000050108010B0100002000230026002946
:101DF000002C002F00320000010000030106010941
:101E00000105050505070508080808020202020A7F
:101E10000A0808040404040101010101010101038D
:101E200003030303030303040707070C0C0C0C0C48
:101E30000C0C0C0202020206060606060606060B3B
:101E40000B0B0B0B0B0B0B010210202008081020B2
:101E50004010204080020102010804020101020436
:101E600008102040808040201008040201800402F5
:101E7000018040201008040201080402010102044C
:101E80000810204080010204081020408000000A51
:101E90000B02090C0D0E08070304010000000000EE
:101EA0000000000000000000000000000000000032
:101EB00000000000000000000012111000000000EF
:101EC0000000000000000000000000000000000012
:101ED000000000456B7374727564756A20776965DC
:101EE00063656A00577A6E6F77206472756B6F77DF
:101EF000616E6965005779626965727A206F7063F7
:101F00006A650050726F737A6520637A656B6163EE
:101F100000526F7A67727A6577616E6965206479BD
:101F2000737A790057796D69616E612066696C61B9
:101F30006D656E74750061627920726F7A67727A6E
:101F40006163206479737A6500576369736E696AA7
:101F50002070727A796369736B0057796D69616E6D
:101F6000612066696C616D656E7475007779647265
:101F7000756B75005472776120777A6E617769614D
:101F80006E6965006E6F7765676F206D617465724D
:101F900069616C75005472776120656B737472753A
:101FA0007A6A610066696C616D656E747520646F34
:101FB00020676C6F7769637900547277612077705E
:101FC000726F7761647A616E69650057796D6961D6
:101FD0006E612066696C616D656E74750061627911
:101FE000206B6F6E74796E756F7761632E2E2E0085
:101FF00069206E616369736E696A2070727A7963B1
:1020000069736B00576C6F7A2066696C616D656EE1
:10201000740057796D69616E612066696C616D65E8
:102020006E74750066696C616D656E7475207A20DA
:10203000676C6F7769637900547277612077797381
:102040007577616E69650057796D69616E612066AB
:10205000696C616D656E7475007A6D69616E792069
:1020600066696C616D656E7475005472776120727B
:102070006F7A706F637A796E616E69650057796DFA
:1020800069616E612066696C616D656E747500488A
:10209000617264636F6465642044656661756C7425
:1020A0002053657474696E6773204C6F6164656456
:1020B0000A00881300008813000050000000282345
:1020C000000000008243000082430000E041000065
:1020D000A0420000A0420000A042000048440000CE
:1020E000204366696C616D656E743A20007A5F6D9D
:1020F00061783A2000795F6D696E3A2000785F6DF3
:1021000061783A20005265706F7274696E6720655D
:102110006E6473746F70207374617475730A004316
:10212000616E6E6F7420656E746572207375626483
:1021300069723A200025756420253032753A2530C1
:102140003275004B61727461207573756E696574C8
:1021500061004B6172746120776C6F7A6F6E610001
:1021600073645F7374617475733A66616C73650A46
:102170000073645F7374617475733A747275650A81
:1021800000202F200057726974696E6720746F20D9
:1021900066696C653A20006F70656E206661696CD7
:1021A00065642C2046696C653A20006F70656E206E
:1021B0006661696C65642C2046696C653A2000464E
:1021C000696C652073656C65637465640A002053EF
:1021D000697A653A200046696C65206F70656E65A6
:1021E000643A20006F70656E206661696C65642CCE
:1021F0002046696C653A20002066696C653A2000CB
:102200004E6F7720002220706F7300222070617261
:10221000656E743A2200535542524F5554494E450B
:102220002043414C4C207461726765743A2200551A
:10223000626974792E2000747279696E6720746FF8
:102240002063616C6C207375622D67636F64652019
:1022500066696C6573207769746820746F6F206D90
:10226000616E79206C6576656C732E204D41582027
:102270006C6576656C2069733A004572726F7220E6
:1022800077726974696E6720746F20454550524FAC
:102290004D210A006265640A002C2073797374650D
:1022A0006D2073746F70706564212048656174657A
:1022B000725F49443A20005A616E696B2074656D03
:1022C000702E00546865726D616C2052756E617776
:1022D000617900526F7A67727A2E206E6965756433
:1022E000616E650048656174696E67206661696C3E
:1022F000656400526573656E643A20006F6B000080
:102300001CB80ACE11241FBECFEFD1E2DEBFCDBF75
:1023100000E00CBF16E0A0E0B2E0E2E1FAEB01E081
:102320000BBF02C007900D92AC35B107D9F72DE174
:10233000ACE5B6E001C01D92A839B207E1F711E1A2
:10234000C1E8D1E100E006C021970109802FFE011C
:102350000E943ED9C038D10780E00807A9F70E9443
:1023600027C70C94F7DC0C9400002F923F924F92F9
:102370005F926F927F928F929F92AF92BF92CF9215
:10238000DF92EF92FF920F931F93CF93DF93CDB71E
:10239000DEB7E9970FB6F894DEBF0FBECDBF009150
:1023A000121320E4029F800111240E5E1E4E8091C4
:1023B000E81380FF38C0EAE3F9E184917F019FEFE1
:1023C000E91AF90A811102C0780104C00E94C1769D
:1023D000F701F3CFD7018D917D01882319F00E9479
:1023E000C176F8CF8AE00E94C1766091121370E046
:1023F00084E398E00E94B75151E8E52E53E0F52EB2
:10240000F70181917F01882319F00E94C176F8CFEE
:102410008AE00E94C17662E171E96F6082E191E138
:10242000807F0E948E7881E090E090935019809395
:102430004F1910927B0610927A068FE380938506DF
:10244000109284061092830684E0E6E7F6E0DF014E
:102450001D928A95E9F7F80180810F5F1F4F803246
:10246000D1F38E34C9F4818190ED980F9A3020F029
:102470008D3211F08B3281F4DF0112969D012F5FB6
:102480003F4F8C9180538A3010F4D901F7CFFD0172
:10249000119680818032D9F3F0933A19E09339197B
:1024A0007F01BFEFEB1AFB0A10816AE270E0C701FF
:1024B0000E9495DC009731F0FC01319780818032D9
:1024C000E1F311821D3411F00C94DB25F7018081BA
:1024D0002FEFE21AF20A8032C9F380538A3008F0F3
:1024E000C6C01093850680E090E06AE03196DF0177
:1024F00011972C91022E000C330B20533109689F49
:10250000A001699F500D1124C901840F951F2081DE
:1025100020532A3058F39093840680938306DF017A
:1025200031962C912032D9F31D34D1F48E3191059E
:1025300091F03CF48731910571F08C31910581F473
:102540000AC08537910564F08737910524F0803AF9
:10255000E3E09E0729F4B0937B06A0937A067CC043
:1025600010927B0610927A0600913919EE24E394BA
:10257000F12CFD0131962C91222309F46DC02132FA
:10258000A1F41D3491F48032910579F4F0937B0627
:10259000E0937A0663E270E0CF010E9495DC009739
:1025A00009F4C3C4DC011C9257C021542A31A0F5A0
:1025B000AF01FA0130814F5F5F4F3032D1F340ED10
:1025C000430F4A3040F043ED430F423020F03B329E
:1025D00011F00C946C25AF01622F70E0DB0133E049
:1025E000B595A7953A95E1F7AA58B94F27706701B5
:1025F00002C0CC0CDD1C2A95E2F796013C91232BFE
:102600002C934115510511F0401B01C040E0DB0146
:10261000A45AB94F4C930AC020917A0630917B0698
:10262000232B21F4B0937B06A0937A0620812154BA
:102630002A3110F4DF019DCFDF01AD014F5F5F4F05
:102640002C9120532A3010F4DA01F7CFFD011196B6
:1026500020812032D9F3EECF809185068D3409F4A4
:1026600064C4843511F40C940B25873421F0EAE31B
:10267000F9E10C944D2580918306909184068D316B
:10268000910509F409C194F48430910509F4C1C09D
:1026900024F40297F8F00C9465254C9711F00C94F3
:1026A000652580E00E9438620C9465258A35910585
:1026B00009F43DC32CF48A9709F49EC30C94652554
:1026C0008B35910509F437C38C35910509F438C36E
:1026D0000C9465258091B402882311F40C9465252F
:1026E000B3EDCB2EB2E0DB2E1BEBE12E1CE1F12E85
:1026F0000BE91CE18EE7A82E86E0B82E97ED892E17
:1027000092E0992ED6018D916D010E941E79882349
:10271000D9F00E949D75F5012081211104C02091FE
:102720008206222331F0D8012D913D914D915C918B
:1027300003C020E030E0A9010E945BD9F70160836B
:102740007183828393830AC0F80180819181A28181
:10275000B381F70180839183A283B383F4E0EF0E0A
:10276000F11C0C5F1F4F2FEFA21AB20A8C149D04AC
:1027700049F686E40E944D798823C9F00E949D7530
:1027800020E030E0A9010E94DEDA181684F40E94ED
:102790009D7520E030E040E752E40E94DED960936E
:1027A00028027093290280932A0290932B02809131
:1027B000E81383FD2AC02091A71C3091A81C4091EA
:1027C000A91C5091AA1C6091C71C7091C81C8091D3
:1027D000C91C9091CA1C0E945AD99B01AC018091DE
:1027E000860C882391F06091780C7091790C80911F
:1027F0007A0C90917B0C0E945BD96093780C70935B
:10280000790C80937A0C90937B0C0E944E5D0C9413
:10281000652580E50E944D79882329F00E948D75F9
:102820006B017C0103C0C12CD12C760183E50E9491
:102830004D79882361F00E949D7520E030E04AE7E1
:1028400054E40E94BED40E9457DA6B017C010E94BE
:1028500025B50E94DA7580913B1990913C19A091A1
:102860003D19B0913E19C80ED91EEA1EFB1E60E04C
:1028700085E193E00E9471A00E948297DC01CB0168
:102880008C199D09AE09BF09B7FD02C00C946525DE
:1028900080E00E944556F0CF83E50E944D79882361
:1028A00021F00E94E62E182F01C010E0163070F0C3
:1028B000E1ECF3E084918F010F5F1F4F882311F447
:1028C0000C9465250E94C176F801F4CF123009F40A
:1028D00045C0B0F41123F9F0113009F024C20E9470
:1028E000A39910920102109200028EE893E0909357
:1028F000CB1B8093CA1B0E944B2B1093AE1913C2A3
:10290000143009F401C208F49AC1153009F00BC261
:102910000E949E6308C28091AD1380FD03C0E1EA6E
:10292000F3E011C081FF03C063E773E002C068E712
:1029300073E089E993E00E94D0518AE00E94C17659
:102940000E942BCEF0C184918F010F5F1F4F88230F
:1029500009F4E9C10E94C176F801F5CF4091000267
:102960005091010257FF0DC005E613E0F801849174
:10297000882311F40C9465250F5F1F4F0E94C176C8
:10298000F5CF4115510529F48091270280937D06EA
:102990002FC08FEF840F63E00E94E9D880FF02C050
:1029A000191B912F292F990F330BF901EE0FFF1FE0
:1029B000E20FF31FE80FF11D87FDFA95EE0FFF1FE1
:1029C000EE0FFF1FE757FC4E8091A31C9091A41CB3
:1029D000A091A51CB091A61C80839183A283B38390
:1029E00080917D0680932702493051050CF0C0C0CC
:1029F000842F63E00E94E9D88C0100FF03C082E0CD
:102A0000811B182F8090280290902902A0902A0202
:102A1000B0902B026AE8E62E66E1F62EF70185916A
:102A20009591A591B4918093280290932902A09347
:102A30002A02B0932B0220E030E0A90160911B1420
:102A400070911C1480911D1490911E140E945BD9EA
:102A500020E030E040EA50E40E945BD96093A31C80
:102A60007093A41C8093A51C9093A61C0E94B3CDC8
:102A700085E595E5A5E0B3E48093280290932902CB
:102A8000A0932A02B0932B02F4E01F02D00111247C
:102A9000AC5CB34F20911314309114144091151471
:102AA000509116146D917D918D919C910E945BD9EE
:102AB00060939B1C70939C1C80939D1C90939E1C08
:102AC00024E00202F0011124E85DF34F2091171475
:102AD000309118144091191450911A146081718129
:102AE000828193810E945BD960939F1C7093A01C8C
:102AF0008093A11C9093A21C0E94B3CDF7018591F5
:102B00009591A591B4918093280290932902A09366
:102B10002A02B0932B0220E030E0A90160911B143F
:102B200070911C1480911D1490911E140E945BD909
:102B30006093A31C7093A41C8093A51C9093A61C67
:102B40000E94B3CD8092280290922902A0922A027C
:102B5000B0922B020E9425B51092270280910002AC
:102B60009091010201969093010280930002DBC0D4
:102B700020E030E0A90160911B1470911C14809139
:102B80001D1490911E140E945BD920E030E040EAB1
:102B900050E40E945BD96093A31C7093A41C8093A3
:102BA000A51C9093A61C0E94B3CD0E9425B58FEF63
:102BB0009FEF9093010280930002E1E5F3E084919E
:102BC0008F010F5F1F4F882321F00E94C176F8010B
:102BD000F6CF83E992E09A83898304E610E019A393
:102BE00008A3BE016F5F7F4FCE0180960E94647084
:102BF0008AEB92E09A83898319A308A3BE016F5FD1
:102C00007F4FCE0180960E9464708091AD138160E9
:102C10008093AD138BE19CE00E9412A481E00E949E
:102C2000386281E00E941F2A8EE193E09093CB1BD3
:102C30008093CA1B0E944B2B1092AE1974C088E57A
:102C40000E944D798823A1F00E940E791FEF160F84
:102C50001330A8F0EAE3F3E084918F010F5F1F4F78
:102C6000882311F40C9465250E94C176F801F4CFF5
:102C700088E50E94C1760E94DECE0C94652589E528
:102C80000E944D798823A1F00E940E790FEF060F64
:102C90000330A8F0E3E2F3E084918F010F5F1F4F50
:102CA000882311F40C9465250E94C176F801F4CFB5
:102CB00089E50E94C1760E94DECE0C9465258AE5E6
:102CC0000E944D798823C9F00E949D75212F110F14
:102CD000330BF901EE0FFF1FE20FF31FE00FF11DA1
:102CE00007FDFA95EE0FFF1FEE0FFF1FE757FC4E93
:102CF000608371838283938316C08AE50E94C176C4
:102D00000E94DECE0C9465258AE50E944D798823C9
:102D1000A1F30E949D756093851370938613809331
:102D20008713909388130E94A7360C946525109200
:102D300082060C94652581E0809382060C946525BB
:102D400085E40E944D79B82E811102C00E9425B5FC
:102D500083ED882E82E0982E9BE9C92E9CE1D92E26
:102D600023E4E22E29E1F22E00E010E0A12CD401B0
:102D70008D914D010E944D79882339F1F6014080F3
:102D80005180628073800E949D75D6016D937D9302
:102D90008D939C9313970330C1F0A30192010E947D
:102DA0005AD99B01AC01F7016081718182819381C5
:102DB0000E945BD9D7016D937D938D939C9313975C
:102DC000C8010E949B2AAA24A3940F5F1F4FB4E05E
:102DD000CB0ED11CE4E0EE0EF11C0430110539F6E7
:102DE000AA2019F00E948B2E03C0B1100E9407A6E2
:102DF0000E94A7360C9465258091B402882311F4B3
:102E00000C94652589E40E944D79E82E882321F0F1
:102E10000E940E79062F01C000E08AE40E944D79DD
:102E2000F82E882321F00E940E79162F01C010E0A1
:102E3000EE2011F0033020F4FF2081F0133070F009
:102E4000E8EDF3E084918F010F5F1F4F882311F4A9
:102E50000C9465250E94C176F801F4CF0E94D22E11
:102E6000EE20E1F024E00202F0011124EC5CF34FCB
:102E7000209113143091141440911514509116148C
:102E800060817181828193810E945BD96093BB1CB8
:102E90007093BC1C8093BD1C9093BE1CFF20E1F07E
:102EA00084E01802F0011124E85DF34F209117141B
:102EB000309118144091191450911A146081718145
:102EC000828193810E945BD96093BF1C7093C01C68
:102ED0008093C11C9093C21C80E50E941E798111D1
:102EE0000E943C2F86E40E944D79882309F48DCC02
:102EF0000E949D756B017C0120E030E0A9010E94D9
:102F0000DEDA18160CF081CC20E030E040E752E425
:102F1000C701B6010E94DED960932802709329028E
:102F200080932A0290932B0270CC8091830690911B
:102F300084068237910509F4D9C60CF0D5C08C34CB
:102F4000910509F4EAC30CF077C08831910509F4C2
:102F5000B3C20CF041C08231910509F4F1C5F4F41B
:102F600097FF02C00C946525823091050CF4CCC10A
:102F7000419711F00C94652560E089E094E00E948F
:102F800071A05F988A989FB7F894809108018E7F0E
:102F9000809308019FBF12980C9465258531910597
:102FA00009F480C23CF4449711F00C946525EAE3DF
:102FB000F9E130C28631910509F478C2479711F0E2
:102FC0000C94652540E061E080917A0690917B0643
:102FD0000E94EBA70C9465258E31910509F4E4C29B
:102FE000C4F48A31910509F494C20CF484C28B3183
:102FF000910509F49CC24C9711F00C94652540E0B2
:1030000060E080917A0690917B060E94EBA70C9479
:1030100065258032910509F4CBC20CF413C38A32C2
:10302000910509F43BC38B34910511F00C9465258F
:103030000E945FA60C9465258836910509F479C332
:103040005CF58335910509F476C59CF48E349105C1
:1030500009F46BC30CF465C38135910509F459C5B6
:103060008235910511F00C946525109281060C941F
:1030700065258535910509F496C50CF461C58C3537
:10308000910509F4AAC58436910511F00C946525C3
:103090000E945A790C9465258D36910509F491C4E6
:1030A0009CF48A36910509F490C40CF444C48B3620
:1030B000910509F4A9C48C36910511F00C9465258D
:1030C00010922C020C9465258F36910509F478C373
:1030D0000CF463C38037910509F4E0C3813791058F
:1030E00009F4E0C30C9465258D3D910511F40C9411
:1030F00073210CF061C08B39910509F439C41CF5BA
:103100008737910509F4C4C674F48537910509F42D
:1031100080C60CF086C68337910511F00C946525A6
:10312000EFE8F5E0EBC58937910509F4BAC60CF470
:10313000B2C68D37910509F479C48C38910509F42C
:10314000DEC30C9465258C3C910509F435C714F554
:10315000883C910509F4AAC64CF48E3B910511F008
:103160000C9465250E9466370C946525893C910571
:1031700009F4EEC68B3C910511F00C94652573EDB6
:10318000E72E72E0F72E0AEC13E1EAEDCE2EE3E132
:10319000DE2E03C78E3C910511F40C94B1200CF483
:1031A00075C7833D910509F4ACC08C3D910511F4C0
:1031B0000C9466210C946525843AA1E09A0711F4D9
:1031C0000C945323F4F58F32E1E09E0711F40C9434
:1031D0004D23DCF48C3221E0920711F40C94B521DC
:1031E0003CF4823E910511F40C948C210C946525DD
:1031F0008D32B1E09B0711F40C94DE218E329140A8
:1032000011F40C94F9220C9465258336F1E09F07A4
:1032100009F473C03CF48033914011F40C947C2287
:103220000C9465258039B1E09B0711F40C94502370
:103230008A39914011F00C9465250E94E0310C947C
:103240006525863FF1E09F0711F40C94B624DCF568
:103250008C3AA1E09A0711F40C94B5234CF4853A0A
:10326000914011F00C9465250E94E3300C94652583
:10327000843FF1E09F0711F40C949724853F91401F
:1032800011F00C9465250E94908A8CEF98E09A8347
:10329000898306E410E019A308A3BE016F5F7F4F86
:1032A000CE0180960E94647084E59BE09A838983B6
:1032B00019A308A3BE016F5F7F4FCE0180960E94C5
:1032C00064700C9465258835A2E09A0711F40C947B
:1032D000E0243CF48C31924011F40C94D5240C94ED
:1032E0006525803AF3E09F0709F49FC1873E93402C
:1032F00011F40C94F9240C946525E4E0F9E10C94A4
:10330000E624EAE3F9E14BC7E6E0F4E084918F01BB
:103310000F5F1F4F882321F00E94C176F801F6CF7E
:10332000A0907A06B0907B0680E50E944D798823B4
:1033300059F00E948D756B017C0111E0672B682BA1
:10334000692B31F410E004C010E0C12CD12C7601BF
:1033500083E50E944D798823F1F00E949D7520E05D
:1033600030E04AE754E40E94BED40E9457DA6B0171
:103370007C01111112C0672B682B692B71F4A11409
:10338000B10459F0D5018C91882339F061E0C50171
:103390000E949EA007C0112391F360E087EF93E0A5
:1033A0000E9471A083E090E09093501980934F1990
:1033B00081E08093B0190E9425B50E94DA75C1148E
:1033C000D104E104F104F9F080913B1990913C198A
:1033D000A0913D19B0913E19C80ED91EEA1EFB1EE0
:1033E0000E948297DC01CB018C199D09AE09BF09AF
:1033F000B7FD02C00C947D258091B01981110C9409
:1034000080250C947D251092B0190C9465250E949E
:10341000C176F80184918F010F5F1F4F8111F7CFA3
:10342000E3E2F4E084918F010F5F1F4F882321F0C6
:103430000E94C176F801F6CF1092100F10920F0F74
:103440008AEB9CE00E945D858BE1EAEBFCE0DE010B
:10345000159601900D928A95E1F78091B80C9091A4
:10346000B90C9C838B8381EE92E09A83898340E040
:1034700050E0BE016F5F7F4F87ED95E00E94A9731A
:10348000CE0101960E948555E4E1F4E084918F011C
:103490000F5F1F4F882311F40C9465250E94C1769D
:1034A000F801F4CF0E94CD710C9465251092890C1F
:1034B00010928A0C0C94652519821A821B821C8238
:1034C00018A219A21AA21BA28091B119882341F057
:1034D00040E0BE016F5F7F4FCE0180960E94C85BC7
:1034E00080918A0C882319F081E08093890C0E94D6
:1034F0005FA60C9465251092890C0E9445A684E372
:1035000094E09093CB1B8093CA1B0E944B2B0C948E
:10351000652580918A0C882311F40C94652583E538
:103520000E944D7981110C9485250C94652580911C
:103530008A0C811103C0EBE4F4E02AC0E9E3F4E073
:1035400084918F010F5F1F4F882321F00E94C17665
:10355000F801F6CF6091060F7091070F8091080F68
:103560009091090F4AE00E9417778FE20E94C1767E
:103570006091020F7091030F8091040F9091050FDD
:103580004AE00E9417778AE00E94C1760C94652574
:1035900084918F010F5F1F4F882311F40C946525D0
:1035A0000E94C176F801F4CF0E94AD630C946525AA
:1035B0008091890C81110E9425B5E0907A06F090E7
:1035C0007B0680E50E941E79182F882319F00E943F
:1035D0003C2F182F80918A0C882311F40C946525B8
:1035E000412F61E0C7010E94EBA783E50E944D795E
:1035F000882381F00E940E79AB01BC014093060F35
:103600005093070F6093080F7093090F85E59EE0B4
:103610000E94C6AD80918A0C882319F081E08093C6
:10362000890C11110C94652562CF80917A069091D6
:103630007B0621E02093880C40E060E00E94EBA72D
:103640000C9465258EE59CE00E94EEB368A379A3F7
:103650008AA39BA3BE016F5F7F4FCE0180960E941D
:10366000E57560E0CE0101960E949EA0EAE3F9E1D3
:1036700084918F010F5F1F4F882321F00E94C17634
:10368000F801F6CFBE016F5F7F4F8CE594E00E949A
:10369000D0518AE00E94C1760C94652583E50E9492
:1036A0004D79882311F40C9465250E94E62EE82EAE
:1036B00080E50E944D79882339F00E940E798B01B4
:1036C00077FF04C00C9465250DE010E0802FE8E141
:1036D000F7E09491891303C0E4E0F9E10AC0319660
:1036E000B7E0E034FB07A9F70C9496250E94C17659
:1036F000F80184918F010F5F1F4F8111F7CFE9E629
:10370000F4E084918F010F5F1F4F882311F40C9414
:1037100065250E94C176F801F4CF0E9445A60C945D
:1037200065250E94876F0C9465250E9446600C9465
:10373000652588E690E00E94FA2E81110C9465259B
:103740008091E81383FF02C00C94652583E50E94F5
:103750004D798823F1F00E949D750E9450DA709394
:10376000EE1B6093ED1B80E00E9460820E949D75BD
:1037700020E030E04AEA52E40E9458D418163CF0A7
:103780000E94876F60E088E794E00E9471A00E9429
:103790009D750E94D0520C9465258EE40E944D794F
:1037A000882311F40C9465250E940E7960938D1D79
:1037B00070938E1D80938F1D9093901D0C946525A2
:1037C00083E50E944D79882319F00E94E62E01C0FE
:1037D00080E08093E813EAE3F9E184918F010F5FC1
:1037E0001F4F811103C0EBE9F4E004C00E94C176D1
:1037F000F801F3CF84918F010F5F1F4F882321F0D1
:103800000E94C176F801F6CF8091E813811103C0C0
:10381000E7E9F4E034C00DE8C02E04E0D02EE12C3E
:10382000F12C20E08091E81390E00E2C02C09595D9
:1038300087950A94E2F780FF17C0BB24B394B20EB9
:10384000222319F08CE20E94C176F60185919491B1
:10385000FC0184918F010F5F1F4F882321F00E948C
:10386000C176F801F6CF2B2DEFEFEE1AFE0AF2E04B
:10387000CF0ED11C85E0E816F104A1F60AC08491B0
:103880008F010F5F1F4F882321F00E94C176F8013E
:10389000F6CF8AE00E94C1760C94652582EA94E016
:1038A0000E94D95583E50E944D79811103C0EAE356
:1038B000F9E10DC00E94E62E809322028D3310F4B0
:1038C0000C9465258CE3809322020C9465258491E9
:1038D0008F010F5F1F4F882321F00E94C176F801EE
:1038E000F6CF4091220250E060E070E08AEA94E076
:1038F0000E947D518AE00E94C1760C9465258091DA
:10390000E81383FF02C00C94652583E50E944D797E
:10391000882311F40C9465250E949D750E9450DA4D
:103920006739710514F066E970E07093EC1B6093E1
:10393000EB1B0C94652589E690E00E94FA2E81111C
:1039400011C0E1EBF4E084918F010F5F1F4F8823DA
:1039500021F00E94C176F801F6CF0E94255E8AE030
:103960000E94C1761092501910924F190C940D2696
:1039700083E50E944D79882311F40C9465250E94FB
:10398000E62E809338198D3318F08CE38093381924
:103990000E9482976B017C012091381930E0A8EEDB
:1039A000B3E00E94DAD8C60ED71EE81EF91EC092F8
:1039B0003419D0923519E0923619F09237190C94D7
:1039C00065250E94AA5E0C94652583E50E944D79C9
:1039D000882339F00E940E798B016F3F710519F031
:1039E00010F00FEF10E080E50E944D79811106C0C4
:1039F0001093E7130093E6130C9465250E94E62EBE
:103A000081110C946525F4CF80E50E944D798111D8
:103A100006C01092E7131092E6130C9465250E94DD
:103A20000E79672B11F00C946525F3CF8CE40E947E
:103A30001E79882319F00E949D7504C060E070E033
:103A400080EA90EC68AB79AB8AAB9BAB8AE50E94CD
:103A50004D79882319F00E949D7503C060E070E0E5
:103A6000CB0120E030E040E751E40E945BD96CA735
:103A70007DA78EA79FA788E50E944D79882319F01E
:103A80000E949D7503C060E070E0CB0120E030E053
:103A900042E553E40E945BD968A779A78AA79BA750
:103AA00089E50E944D79882319F00E949D7503C015
:103AB00060E070E0CB0120E030E04CED52E40E9489
:103AC0005BD96CA37DA38EA39FA319821A821B824C
:103AD0001C8218A219A21AA21BA28091B1198111ED
:103AE0000C946525A12CC12CDE0111967D018E015F
:103AF000005E1F4F9E012C5D3F4FAE01485D5F4F42
:103B0000BE01645D7F4FCE01C0960E940F5A0C9497
:103B100065250E94AB820E9425B50E94C85510926F
:103B2000E7131092E61368EE73E080E090E00E94E5
:103B3000FC7F0C94652581E0809381060C946525BB
:103B400083E50E944D798823A1F00E949D7520E0B5
:103B500030E04AE754E40E94BED40E9457DA6093F2
:103B600023027093240280932502909326020C94E2
:103B7000652588E50E941E7981110C94AC2589E5A4
:103B80000E941E7981110C94AC258AE50E941E7951
:103B900081110C94AC2585E40E941E7981110C944E
:103BA000AC250C94D62583E50E941E79882311F458
:103BB0000C9465250E949D7520E030E04AE754E4AE
:103BC0000E94BED40E9457DA60933F197093401947
:103BD000809341199093421978C7B3EDCB2EB2E090
:103BE000DB2E1BEAE12E1CE1F12E10E0F6018191A3
:103BF0006F010E941E79882309F46EC0133009F00A
:103C000063C00E949D754B015C0120E030E040EAFA
:103C100051E40E9458D487FF4EC0A50194016091E1
:103C2000B71C7091B81C8091B91C9091BA1C0E946D
:103C3000DED92B013C019B01AC016091BA1370915C
:103C4000BB138091BC139091BD130E94BED46093AE
:103C5000BA137093BB138093BC139093BD13A3014D
:103C600092016091D6137091D7138091D8139091DF
:103C7000D9130E94BED46093D6137093D713809348
:103C8000D8139093D9136091FE137091FF13809114
:103C90000014909101140E945DD4A30192010E942E
:103CA000BED40E9457DA6093FE137093FF13809383
:103CB0000014909301148092B71C9092B81CA092AB
:103CC000B91CB092BA1C08C00E949D75D7016D93B3
:103CD0007D938D939C9313971F5FB4E0EB0EF11CC3
:103CE000143009F083CF0E942854EFC60E9425B5F6
:103CF0000E94A736EAC60E94C176F80184918F011E
:103D00000F5F1F4F8111F7CFE1E8F5E003C00E947C
:103D1000C176F80184918F010F5F1F4F8111F7CF9A
:103D2000EAE6F5E003C00E94C176F80184918F01B4
:103D30000F5F1F4F8111F7CFEAE5F5E003C00E9446
:103D4000C176F80184918F010F5F1F4F8111F7CF6A
:103D5000E9E4F5E003C00E94C176F80184918F0187
:103D60000F5F1F4F8111F7CFE8E3F5E003C00E941A
:103D7000C176F80184918F010F5F1F4F8111F7CF3A
:103D8000E9E2F5E003C00E94C176F80184918F0159
:103D90000F5F1F4F8111F7CFE4E1F5E003C00E94F0
:103DA000C176F80184918F010F5F1F4F8111F7CF0A
:103DB000EEEFF4E003C00E94C176F80184918F0118
:103DC0000F5F1F4F8111F7CFE9EEF4E003C00E94AF
:103DD000C176F80184918F010F5F1F4F8111F7CFDA
:103DE000ECECF4E003C00E94C176F80184918F01ED
:103DF0000F5F1F4F8111F7CFE4EBF4E084918F0147
:103E00000F5F1F4F882309F460C60E94C176F80136
:103E1000F5CF60E080917A0690917B060E949EA08B
:103E200054C685E40E941E79882381F00E943C2FAD
:103E3000882361F0EAE3F9E184918F010F5F1F4F5E
:103E4000882321F00E94C176F801F6CF81E40E9418
:103E50001E79882381F00E943C2F882361F0E8E5D9
:103E6000F6E084918F010F5F1F4F882321F00E949D
:103E7000C176F801F6CF00917A0610917B06F80121
:103E800081918F01882309F404CD0E94C176F7CF78
:103E90000E94DD9A1AC681E0809308028093601C1C
:103EA00014C6109208021092601C0FC688EC90E0B5
:103EB0000E94FA2E811109C684E40E941E7988238B
:103EC00009F443C00E949D756B017C0111E020E064
:103ED00030E0A9010E9458D4811101C010E0109374
:103EE000611C20E030E0A901C701B6010E9458D44E
:103EF000882359F100917C0610E00E949D75000F07
:103F0000111F000F111FF801ED5CFD4F60837183DD
:103F10008283938320E030E0A901609133027091A5
:103F2000340280913502909136020E9458D481115A
:103F30000CC080E090E0A0EEBFE38093330290934A
:103F40003402A0933502B09336020E94095DBDC5CC
:103F5000F3EDEF2EF2E0FF2E02E014E1D7018D9198
:103F60007D010E941E79882349F00E949D750E9460
:103F700057DAF80160837183828393830C5F1F4F4C
:103F8000F4E102311F0751F70E9400539EC50C5FF8
:103F90001F4FC016D10609F498C5D7018D917D0138
:103FA0000E941E79882399F30E949D75F801608311
:103FB000718382839383EBCF83E50E941E798823EC
:103FC000D9F00E949D75AB01BC014093C213509380
:103FD000C3136093C4137093C5134093BE135093DF
:103FE000BF136093C0137093C11386EB96E00E94D9
:103FF0009A518AE00E94C17680E50E941E7988234A
:1040000099F00E949D75AB01BC014093C21350937F
:10401000C3136093C4137093C51389E996E00E949B
:104020009A518AE00E94C17682E50E941E79882317
:1040300099F00E949D75AB01BC014093C61350934B
:10404000C7136093C8137093C9138AE796E00E9460
:104050009A518AE00E94C17684E50E941E798823E5
:1040600009F433C50E949D75AB01BC014093BE139A
:104070005093BF136093C0137093C1138CE596E007
:104080000E949A518AE00E94C1761FC583E50E9472
:104090001E79882351F00E949D756093E2137093FE
:1040A000E3138093E4139093E51384E50E941E7953
:1040B000882351F00E949D756093DE137093DF1387
:1040C0008093E0139093E11382E40E941E79882389
:1040D00051F00E948D756093DA137093DB13809317
:1040E000DC139093DD1388E50E941E79882351F03C
:1040F0000E949D756093AE137093AF138093B013BD
:104100009093B11389E50E941E79882351F00E9493
:104110009D756093B2137093B3138093B41390930F
:10412000B5138AE50E941E79882351F00E949D757F
:104130006093B6137093B7138093B8139093B91329
:1041400085E40E941E79882309F4BFC40E949D75EE
:104150006093BA137093BB138093BC139093BD13F9
:10416000B4C463EDE62E62E0F62E00E010E0D70165
:104170008D917D010E941E79882339F00E949D75E2
:10418000AB01BC01C8010E94F12A0F5F1F4F033031
:10419000110569F70E948B2E0E94A73696C4849160
:1041A0008F010F5F1F4F882321F00E94C176F80115
:1041B000F6CF83E50E941E79882321F00E943C2FD0
:1041C00080932702E8E0F7E084918F010F5F1F4F93
:1041D000882321F00E94C176F801F6CF8091270252
:1041E000882319F0EEEFF6E002C0E3E0F7E08491F7
:1041F0008F010F5F1F4F811103C0E6EFF6E004C08F
:104200000E94C176F801F3CF84918F010F5F1F4F99
:10421000882321F00E94C176F801F6CF4091CB1C93
:104220005091CC1C6091CD1C7091CE1C84EF96E017
:104230000E949A514091CF1C5091D01C6091D11C8A
:104240007091D21C81EF96E00E949A514091D31C4C
:104250005091D41C6091D51C7091D61C8EEE96E0C6
:104260000E949A51E6EEF6E084918F010F5F1F4F96
:10427000882321F00E94C176F801F6CF4091A80270
:104280005091A9026091AA027091AB0284EE96E06F
:104290000E949A514091AC025091AD026091AE02E1
:1042A0007091AF0281EE96E00E949A514091B00267
:1042B0005091B1026091B2027091B3028EED96E01E
:1042C0000E949A518AE00E94C176FFC383E50E9452
:1042D0004D79882309F4F9C30E940E7970938F02F7
:1042E00060938E02F2C38DED90E00E94FA2E811150
:1042F000ECC383E50E944D79882309F4E6C300915D
:104300007C0610E00E940E79000F111FF801E75F94
:10431000FD4F71836083D9C380E50E941E79882395
:1043200009F4D3C30E940E79F62EC62ED72E83E54C
:104330000E944D79882321F00E940E798B0102C0E2
:104340000FEF1FEFC8010196039708F0BEC3D7FC1B
:10435000BCC3E8E1F7E08491F81609F4B6C33196DE
:10436000B7E0E034FB07B9F730C483E50E944D792C
:10437000882319F00E940E7902C064E071E079A3ED
:1043800068A380E50E944D79882339F00E940E7958
:104390006938E3E17E0730F402C068EE73E07A83A7
:1043A000698304C088E893E19A838983BE01605ED3
:1043B0007F4FCE0101960E94647087C385E40E94FE
:1043C0004D79811110C080E50E941E79882391F0FB
:1043D0000E949D756093C5027093C6028093C702C8
:1043E0009093C80207C00E94E62E882361F3E4E0A0
:1043F000F9E171C089E40E941E79882381F00E944E
:104400009D752CEA35EC47E25EE30E94BED46093D2
:10441000C1027093C2028093C3029093C40284E4E9
:104420000E941E79882381F00E949D752CEA35EC4C
:1044300047E25EE30E94DED96093C9027093CA022C
:104440008093CB029093CC02EAE3F9E184918F014F
:104450000F5F1F4F882321F00E94C176F801F6CF2D
:104460004091C5025091C6026091C7027091C80286
:1044700088E497E00E949A512CEA35EC47E25EE32B
:104480006091C1027091C2028091C3029091C402F6
:104490000E94DED9AB01BC0184E497E00E949A51EE
:1044A0002CEA35EC47E25EE36091C9027091CA02E2
:1044B0008091CB029091CC020E94BED4AB01BC0192
:1044C00080E497E00E949A518AE00E94C176FDC282
:1044D0000E94C176F80184918F010F5F1F4F8111F7
:1044E000F7CF03E913E0D8018D918D01882309F4FA
:1044F000D0C90E94C176F7CF80E50E941E7988233B
:1045000051F00E949D756093BD027093BE0280932E
:10451000BF029093C00289E40E941E79882381F033
:104520000E949D752CEA35EC47E25EE30E94BED402
:104530006093B9027093BA028093BB029093BC025D
:1045400084E40E941E79882381F00E949D752CEAE4
:1045500035EC47E25EE30E94DED96093B5027093CA
:10456000B6028093B7029093B802EAE3F9E184912E
:104570008F010F5F1F4F882321F00E94C176F80141
:10458000F6CF4091BD025091BE026091BF02709182
:10459000C00284E597E00E949A512CEA35EC47E28C
:1045A0005EE36091B9027091BA028091BB02909172
:1045B000BC020E94DED9AB01BC0180E597E00E94FD
:1045C0009A512CEA35EC47E25EE36091B5027091B6
:1045D000B6028091B7029091B8020E94BED4AB019E
:1045E000BC018CE497E00E949A518AE00E94C17657
:1045F0006CC283E50E941E79182F882371F00E94F7
:104600009D750E9450DA70931C0260931B0221E09A
:10461000672B09F020E02093121480E50E941E7998
:10462000882359F020911B0230911C02232B11F09A
:104630000E943C2F8093121448C2111146C2EAE333
:10464000F9E184918F010F5F1F4F882321F00E94B1
:10465000C176F801F6CF80911214882319F06FE823
:1046600075E002C06DE773E08DE697E00E94D051DF
:1046700060911B0270911C028CE597E00E94B7517B
:10468000E8E5F7E084918F010F5F1F4F882309F45D
:104690001CC20E94C176F801F5CF0E94363215C2C5
:1046A0000E9425B512C286E50E941E79882389F0F2
:1046B0008091AD1380FF0DC00DEA17E0F8018491E1
:1046C000882329F00F5F1F4F0E94C176F7CF0E9409
:1046D0002BCE83E50E941E79182F882319F00E94A3
:1046E0003C2F182F83E50E941E79882319F0812F13
:1046F0000E941F2A8091AD138270F82E111103C001
:10470000EAE3F9E119C08111FBCF04E019E1F801F6
:104710008491811103C00EE817E005C00F5F1F4FA1
:104720000E94C176F4CFF8018491882349F30F5F8A
:104730001F4F0E94C176F7CF84918F010F5F1F4FEB
:10474000882321F00E94C176F801F6CFFF2019F0EE
:1047500063E773E002C068E773E080E897E00E94D7
:10476000D0518AE00E94C176B0C182EB99E19DAB45
:104770008CAB83E1882E84E1982E9BE9A92E9CE1E5
:10478000B92E2BECC22E2CE1D22E38EA232E32E0A9
:10479000332E46E7E42E46E1F42E00E010E0ACA90B
:1047A000BDA98D91BDABACAB882309F485C0F501E3
:1047B0004080518062807380D1012D913D914D9157
:1047C0005C91F60160817181828193810E945BD945
:1047D00020E030E040E05FE30E94BED49B01AC01EA
:1047E000C301B2010E94DEDA181654F4F701859174
:1047F0009591A591B4918EAB9FABA8AFB9AF04C012
:104800001EAA1FAA18AE19AED4012D913D914D914B
:104810005C91C301B2010E945AD99B01AC016EA9FF
:104820007FA988AD99AD0E945AD92B013C0120E0A7
:1048300030E040EA51EC0E94DEDA87FD0AC020E059
:1048400030E040EA51E4C301B2010E9458D4181686
:104850001CF4E4E0F9E109C0B301A201C8010E941F
:10486000F12A2AC00E94C176F80184918F010F5F5E
:104870001F4F8111F7CFE2EEF7E084918F010F5FB8
:104880001F4F882321F00E94C176F801F6CF61E026
:1048900084ED97E00E9471A088E290E09A8389837A
:1048A00088EC90E099A388A3BE016F5F7F4FCE0193
:1048B00080960E94647009C10F5F1F4FB4E08B0E99
:1048C000911CE4E0AE0EB11CF4E0CF0ED11C24E04C
:1048D000220E311C84E0E80EF11C0330110509F0B2
:1048E0005ECF0E948B2E0E94A73660E083EC97E09B
:1048F0000E9471A083E992E099A388A304E610E0E6
:104900001A830983BE01605E7F4FCE0101960E942B
:1049100064708AEB92E099A388A31A830983BE018D
:10492000605E7F4FCE0101960E946470CEC00E94EF
:104930009F8F8CEF98E09A83898306E410E019A397
:1049400008A3BE016F5F7F4FCE0180960E94647006
:1049500084E59BE09A83898319A308A3BE016F5F56
:104960007F4FCE0180960E946470AFC00E945A9B18
:1049700084E59BE09A83898306E410E019A308A3E9
:10498000BE016F5F7F4FCE0180960E9464708CEFF6
:1049900098E09A83898319A308A3BE016F5F7F4FB4
:1049A000CE0180960E94647090C083E50E941E79BB
:1049B000882309F48AC00E943C2F8093F41085C09C
:1049C0000E944C2F82C00E94C176F80184918F0111
:1049D0000F5F1F4F8111F7CFE0E0F8E084918F0166
:1049E0000F5F1F4F882309F470C00E94C176F80141
:1049F000F5CF81E08093B40210926F1C83E50E9492
:104A00001E79811103C00E94A7B75FC00E943C2F8E
:104A100081115BC0F8CFF0908306FF2029F1EAE313
:104A2000F9E184918F010F5F1F4F882321F00E94CD
:104A3000C176F801F6CF84E50E94C1766F2D70E053
:104A400080E090E04AE00E94177780E20E94C17601
:104A500003E913E0D8018D918D01882311F40C94A2
:104A6000491C0E94C176F6CF1092AF19EAE3F9E132
:104A700084918F010F5F1F4F882321F00E94C17620
:104A8000F801F6CF6091AF1970E08FE098E00E94D6
:104A9000B7518AE00E94C17618C084918F010F5FE0
:104AA0001F4F882321F00E94C176F801F6CF609154
:104AB000391970913A1981E298E00E94D05182E24E
:104AC0000E94C1768AE00E94C1761092501910921D
:104AD0004F190E9488B7A1C040917A0650917B0679
:104AE000452B39F4AF014150510950937B06409357
:104AF0007A0640E050E00C94EC121092B019E5CF29
:104B000080E00E9445560C94F0190E940E79AB018A
:104B1000BC014093060F5093070F6093080F7093EA
:104B2000090F85E59EE00E94C6ADCFCF61E0802FE2
:104B30000E94F7936E2D802F0E94C893F12CB7012D
:104B4000802F0E9433940930110509F0BECFF092F6
:104B5000E713E092E613B9CF0E9425B588E50E94DD
:104B60001E79882319F05F9A1092D81089E50E9467
:104B70001E79882319F08A9A1092D9108AE50E942A
:104B80001E79882351F09FB7F894809108018160C5
:104B9000809308019FBF1092DA1085E40E941E796D
:104BA000882309F492CF0E94C6558FCF0E9425B565
:104BB0000E94C8558ACF143511F40C94661217342C
:104BC00011F00C9437130C9466120E9425B560E026
:104BD0008F2D0E94F7930F3FBFEF1B0759F48F2DC6
:104BE0000E949F9331E020E0892B09F030E0032FF1
:104BF000122F05C00130110569F401E010E08F2D7E
:104C00000E949F938017910709F45FCF80E00E9474
:104C10004556F5CF00E010E0F2CFE9960FB6F894D4
:104C2000DEBF0FBECDBFDF91CF911F910F91FF90DF
:104C3000EF90DF90CF90BF90AF909F908F907F903C
:104C40006F905F904F903F902F90089590917613C2
:104C5000E92FF0E0E451FF4E80839F5F983018F415
:104C60009093761302C010927613809113138F5F86
:104C7000809313130895FF920F931F93CF93DF93A5
:104C8000F82E092F162FE4E0F9E18491EF01219627
:104C9000882321F00E94C176FE01F7CFEF2DF02F7F
:104CA0008491EF012196882321F00E94C176FE01B4
:104CB000F7CF60918D1D70918E1D80918F1D909109
:104CC000901D0E9484778AE00E94C17611110E9493
:104CD000A7B71092741310927313DF91CF911F91A5
:104CE0000F91FF9008952F923F924F925F926F9293
:104CF0007F928F929F92AF92BF92CF92DF92EF926C
:104D0000FF920F931F93CF93DF9300D000D0CDB7C6
:104D1000DEB79A8389830E948297E981FA81C680EF
:104D2000D780E084F184C114D104E104F10409F0D6
:104D3000ACC22485222309F469C33285215024871B
:104D400021E0230F22874585241301C01286E981C3
:104D5000FA8124E0329FE00DF11D1124C684D7842E
:104D6000E088F188E981FA81C282D382E482F58207
:104D7000DC01CB018C0D9D1DA11DB11D8683978388
:104D8000A087B18784819581892B09F43FC3FFB740
:104D9000FD83F894E981FA81228033802101612C1E
:104DA000712C0481158180913202853221F08F3F70
:104DB00009F068C205C0EEEEFCE124912E83DAC052
:104DC00085E280933202EEEEFCE184918E838F3F88
:104DD00009F458C2823009F469C030F5882309F417
:104DE0004CC0813009F0C6C0109280001092810042
:104DF0008091810088608093810080918100816032
:104E000080938100E6E2FEE1E491F0E0EE0FFF1F07
:104E1000E353F24E85919491ECE6FEE1E491E09348
:104E20001913E1E0EE8330C19E81943009F482C011
:104E300008F460C0953009F09DC0109220011092D6
:104E400021018091210188608093210180912101BD
:104E5000816080932101E6E2FEE1E491F0E0EE0F53
:104E6000FF1FE353F24E85919491ECE6FEE1E4914D
:104E7000E093161395E09E8307C114BC15BC84B55E
:104E8000826084BD85B5816085BDE6E2FEE1E49186
:104E9000F0E0EE0FFF1FE353F24E85919491ECE6A4
:104EA000FEE1E491E0931A131E82ABC21092B000AF
:104EB0001092B1008091B00082608093B000809128
:104EC000B10081608093B100E6E2FEE1E491F0E0A0
:104ED000EE0FFF1FE353F24E859194919093FC1BCC
:104EE0008093FB1BECE6FEE1E491E093FD1BF2E016
:104EF000FE8387C2109290001092910080919100E1
:104F000088608093910080919100816080939100EE
:104F1000E6E2FEE1E491F0E0EE0FFF1FE353F24E14
:104F200085919491ECE6FEE1E491E093181323E07F
:104F30002E83AAC01092A0001092A1008091A1001F
:104F400088608093A1008091A10081608093A1007E
:104F5000E6E2FEE1E491F0E0EE0FFF1FE353F24ED4
:104F600085919491ECE6FEE1E491E093171384E0DF
:104F70008E838AC0EE81E7FD85C161E085E20E94F3
:104F8000F7938E818D7F09F083C04801A12CB12C4D
:104F900060E072E18AE790E0A50194010E941FD9C8
:104FA00029833A834B835C8369017A01F1E0CF1A4C
:104FB000D108E108F1082FEFC216D104E104F10491
:104FC00009F008F44EC060E472E48FE090E0A501BF
:104FD00094010E941FD969017A0181E0C81AD108A1
:104FE000E108F1089E81923009F5EFEFCE16D10469
:104FF000E104F10409F008F4CBC160E970ED83E04D
:1050000090E0A50194010E941FD969017A01F1E0A5
:10501000CF1AD108E108F1082FEFC216D104E1043C
:10502000F10411F008F041C183E027C08FEFC816EA
:10503000D104E104F104B9F0B0F068E478EE81E065
:1050400090E0A50194010E941FD969017A0191E0C5
:10505000C91AD108E108F108EE81EE2309F49AC1DA
:1050600063C181E001C082E09E81911106C095B5C7
:10507000987F892B85BD7AC085E09091B100987F9B
:10508000892B8093B10072C061E085E20E94F793A2
:105090004801A12CB12C60E072E18AE790E0A50103
:1050A00094010E941FD969017A01E1E0CE1AD1086A
:1050B000E108F108C114D104F1E0EF06F10488F031
:1050C00068E478EE81E090E0A50194010E941FD988
:1050D00069017A0181E0C81AD108E108F10883E08A
:1050E00001C081E09E81913071F490918100987FA0
:1050F000892B80938100452846284728D9F52FEF32
:105100003FEFA90168C0EE81E33071F49091910006
:10511000987F892B8093910045284628472851F590
:105120002FEF3FEFA90179C0FE81F43071F4909127
:10513000A100987F892B8093A10045284628472805
:10514000C9F42FEF3FEFA9017AC02E81253071F409
:1051500090912101987F892B809321014528462831
:10516000472841F42FEF3FEFA9017BC0452846288F
:10517000472869F0D801AA0FBB1F91010E94DAD815
:1051800028EE33E040E050E00E94ADD803C02FEF9E
:105190003FEFA9018E81823081F12CF4882361F0E8
:1051A0008130C9F06FC09E81943009F448C0ACF1E1
:1051B000953009F456C066C0C7BC20932B133093BA
:1051C0002C1340932D1350932E1380916E00826008
:1051D00080936E0057C0D0928900C09288002093BF
:1051E0002713309328134093291350932A13809147
:1051F0006F00826080936F0045C0C092B30020931F
:10520000FE1B3093FF1B4093001C5093011C8091A8
:10521000700082608093700035C0D0929900C09277
:105220009800209323133093241340932513509315
:1052300026138091710082608093710023C0D09208
:10524000A900C092A80020931F133093201340930D
:105250002113509322138091720082608093720018
:1052600011C0D0922901C092280120931B133093C2
:105270001C1340931D1350931E1380917300826082
:1052800080937300ED81EFBFC1C0DC01CB018C19AD
:105290009D09AE09BF09B7FDB9C04098E981FA81FF
:1052A0001682178210861186B1C068E478EE81E01C
:1052B00090E0A50194010E941FD969017A01F1E0F3
:1052C000CF1AD108E108F1082FEFC216D104E1048A
:1052D000F10441F138F164E274EF80E090E0A5015F
:1052E00094010E941FD969017A01F1E0CF1AD10817
:1052F000E108F1082FEFC216D104E104F10409F02E
:1053000008F4BACE62E17AE780E090E0A50194016A
:105310000E941FD969017A0181E0C81AD108E10809
:10532000F10819C084E0A9CE2FEFC216D104E10420
:10533000F10409F008F463C062E17AE780E090E0EC
:10534000A50194010E941FD969017A01F1E0CF1AE9
:10535000D108E108F1082FEFC216D104E104F104ED
:10536000A9F0A0F089819A81AB81BC812AE0B59532
:10537000A795979587952A95D1F76C017D01F1E066
:10538000CF1AD108E108F10887E077CE86E075CE24
:1053900082E073CEEFEFCE16D104E104F10469F19F
:1053A00060F162E17AE780E090E0A50194010E945B
:1053B0001FD969017A0181E0C81AD108E108F10812
:1053C0009FEFC916D104E104F104A9F0A0F089818E
:1053D0009A81AB81BC813AE0B595A7959795879561
:1053E0003A95D1F76C017D01E1E0CE1AD108E108D0
:1053F000F10885E03CCE84E03ACE83E038CE84E00C
:1054000033CE61E085E20E94F793BFCD26960FB6BA
:10541000F894DEBF0FBECDBFDF91CF911F910F91EA
:10542000FF90EF90DF90CF90BF90AF909F908F90C4
:105430007F906F905F904F903F902F900895909144
:10544000AD1391FB222720F98217C9F081110EC0FC
:1054500043EA5CE16FE97CE18BE99CE10E94E3496E
:105460008091AD138D7F8093AD13089590FFF8CF99
:1054700092609093AD138BE99CE10C94EB510895ED
:105480008F929F92AF92BF92CF92EF92FF920F9323
:105490001F93CF93DF93CDB7DEB72C970FB6F89459
:1054A000DEBF0FBECDBF4B015C01C090AF19EBEB6F
:1054B000FCE180859185A285B38544815581668113
:1054C0007781008111812281338109831A832B83A3
:1054D0003C834D835E836F83788789879A87AB8708
:1054E000BC87AE01475F5F4FBE016B5F7F4FCE0150
:1054F00001960E94E3498501740127EC3CE1AE016D
:10550000475F5F4FBE016B5F7F4FCE0101960E94E8
:10551000CC3A2C960FB6F894DEBF0FBECDBFDF910C
:10552000CF911F910F91FF90EF90CF90BF90AF90D0
:105530009F908F900895CF92DF92EF92FF920F93FA
:105540001F93CF93DF93EC01CC0FDD1FCC0FDD1F3A
:10555000FE01E052FF4E20E030E0A9016081718140
:10556000828193810E945BD9FE01ED5BF64E208122
:105570003181428153810E945BD96B017C01FE0124
:10558000ED5EFB4E6083718382839383FE01E65C54
:10559000F44F25913591459154918E010553134E49
:1055A0000E945BD9F8016083718382839383FE013B
:1055B000EA5BF44F2591359145915491C855DD4FE3
:1055C000C701B6010E945BD9688379838A839B8374
:1055D000DF91CF911F910F91FF90EF90DF90CF90CF
:1055E00008958F929F92AF92BF92EF92FF920F9386
:1055F0001F93CF93DF938C014A015B01EC01CC0F29
:10560000DD1FCC0FDD1FCE018556934E7C01C052AD
:10561000DF4E288139814A815B81C501B4010E9436
:105620005AD9F70120813181428153810E945BD98F
:10563000F701608371838283938388829982AA822F
:10564000BB82C801DF91CF911F910F91FF90EF9026
:10565000BF90AF909F908F900C949B2ACF93FC01AA
:1056600020812B33A9F020911313283088F4C62F02
:10567000BC0180917613F0E48F9FC00111248E5EEF
:105680009E4E0E94A9DC8C2F0E94262681E001C03C
:1056900080E0CF910895DF92EF92FF920F931F93D6
:1056A000CF93DF93CDB7DEB76E970FB6F894DEBF1A
:1056B0000FBECDBF6091CA1B7091CB1B61157105E8
:1056C00049F14DE150E0CE0101967C010E94D2D318
:1056D0001E8EF7018F010E191F09D190DD2019F0E0
:1056E0009AE0D912F7CFF701E00FF11F1082C7013E
:1056F0000E949870882371F0DD20A9F00F5F1F4F82
:105700008091CA1B9091CB1B080F191F1093CB1BC4
:105710000093CA1B81E02091CA1B3091CB1B232B25
:1057200029F480E003C000E010E0F0CF6E960FB6E1
:10573000F894DEBF0FBECDBFDF91CF911F910F91C7
:10574000FF90EF90DF9008952F923F924F925F92DB
:105750006F927F928F929F92AF92BF92CF92DF9281
:10576000EF92FF920F931F93CF93DF931F92CDB7CA
:10577000DEB70E944B2B8111BAC28091131388307F
:1057800008F06FC02FB7F89480918B1D90918C1DFD
:105790002FBF891B8F7709F464C00E941578209170
:1057A0007313309174138A3019F08D3009F06EC282
:1057B000109275132115310509F4CAC1F901ED5C88
:1057C000FC4E1082109274131092731323E333E192
:1057D0008901F90180812F5F3F4F8032C9F38E34F8
:1057E00009F0BEC178016AE270E0C8010E9495DC50
:1057F0006C01E114F10409F4F9C16FEE7AE0C8011B
:105800000E94E1D35C01892B09F0ADC14AE050E070
:1058100060E070E0C70101960E946BD160932F1386
:1058200070933013809331139093321340908D1DF9
:1058300050908E1D60908F1D7090901DFFEF4F1A3D
:105840005F0A6F0A7F0A641575058605970509F4D6
:1058500095C1AB2809F092C161E08CEB9AE00E94FF
:105860003B268091890C882309F441C2809113134F
:10587000811102C010927813EE24E3944091060F38
:105880005091070F6091080F7091090F8091020FDE
:105890009091030FA091040FB091050F481759077D
:1058A0006A077B0708F4E12C00E010E0772473948A
:1058B00088EFA82E8AE0B82E94EF892E9AE0992ED0
:1058C0002DE8622E80911313883008F016C1E11084
:1058D00014C180917813811110C180915D0E909157
:1058E0005E0EA0915F0EB091600E8093060F9093B4
:1058F000070FA093080FB093090F41E050E0BE01DD
:105900006F5F7F4F85E59EE00E949B86019719F4AB
:10591000898190E002C08FEF9FEFF82E2090060F54
:105920003090070F4090080F5090090F4091020FE0
:105930005091030F6091040F7091050FEE24E394D2
:10594000241635064606570608F4E12C24163506BB
:1059500046065706B0F4019609F47EC0FAE0FF1639
:1059600009F499C02DE0F21609F495C083E2F81607
:1059700019F09AE3F912A6C0809177138111A2C0A1
:1059800085C0E3E1FBE084916F012FEFC21AD20AD8
:10599000882321F00E94C176F601F5CF0E9425B53B
:1059A00085E59EE00E94FF838091700E882359F167
:1059B00081508093700E689EC001112441E061E027
:1059C0008B58914F0E94EBA7E091700E84E0E89F06
:1059D000F0011124EF58F14F4081518162817381B0
:1059E0004093060F5093070F6093080F7093090FB1
:1059F00085E59EE00E94C6AD80918A0C8823E1F087
:105A00007092890C19C01092890CB092CB1BA09295
:105A1000CA1B0E944B2B0E94876F8EE59CE00E9460
:105A2000EEB36D3371058105910530F09092CB1B7B
:105A30008092CA1B0E944B2B10920E0F80918A0CF1
:105A4000882319F00E941D7121C00E94CD718091A0
:105A50008A0C8111F7CF1AC0E4E0F9E184916F015B
:105A60009FEFC91AD90A882321F00E94C176F60156
:105A7000F5CFE4E0FBE084916F012FEFC21AD20A68
:105A8000882321F00E94C176F601F5CF83E2F81257
:105A900002C070927813109277130115110509F462
:105AA00011CF8091761390E4899F000D111D112470
:105AB000F801EE5EFE4E108280E00E94262600E095
:105AC00010E000CF0F33110508F0FCCEEBE3FE121F
:105AD00002C070927713809177138111F3CE809179
