:100000000C9478100C94A9100C94A9100C94A910BD
:100010000C94A9100C94A9100C94A9100C94A9107C
:100020000C94A9100C94A9100C94A9100C94A9106C
:100030000C94A9100C947B810C94A9100C94A91019
:100040000C94A9100C94595B0C94A9100C94A91051
:100050000C94A9100C94A9100C94EC840C9487B007
:100060000C94A9100C9466310C9494310C94A91042
:100070000C94A9100C94A9100C94A9100C94A9101C
:100080000C94A9100C94A9100C94A9100C94A9100C
:100090000C94A9100C94A9100C94A9100C94A910FC
:1000A0000C94A9100C94A9100C94A9100C94A910EC
:1000B0000C94A9100C94A9100C94A9100C94A910DC
:1000C0000C94A9100C94A9100C94A9100C94F13163
:1000D0000C94C7310C94A9100C94A9100C94A9107D
:1000E0000C94A910AA3BEC3B203C713CA63C5D3D26
:1000F000C73CCF3DF03C253D5B9A7A9C8A9C8A9C0C
:100100008A9CC79CC99CC99CC99CC99C8D9CC79C46
:10011000C99C999CD2AED5AEC4AEC8AECEAE0CAF23
:10012000D9AEDDAEE3AEE7AEEBAEF1AEF5AEF9AE15
:100130000CAFFFAE03AF07AFA1AFA6AFABAFB5AF8C
:10014000BFAF38B0C9AFD1AFD9AFE3AFEDAFF7AF05
:1001500006B010B038B01AB024B02EB00C94BF72F4
:100160000C94EBAE0C94E3AF0C949A710C94D5AE56
:100170000C94EDAF0C94713C0C946E250C94C99CBE
:100180000C94BFAF0C94A6AF0C9471250C9409701D
:100190000C9424B00C94D6710C94ABAF0C94D2AEEA
:1001A0000C94CEAE0C94A1AF0C945C700C94808037
:1001B0000C94629F0C94CF3D0C9410B00C946F6F14
:1001C0000C94F7730C942EB00C94B5AF0C9407AF4D
:1001D0000C94936E0C946D250C94999C0C94D1AF57
:1001E0000C94C73C0C948A9C0C94AA800C9473B316
:1001F0000C94F9AE0C948D9C0C9406B00C94EDA26A
:100200000C94B9800C9424CA0C9406730C94D9AF46
:100210000C94D9AE0C945B9A0C9477710C94E3AE69
:100220000C94C9AF0C94EC3B0C94F99D0C94B871F0
:100230000C9403AF0C94DB800C94C4AE0C94F5AE1C
:100240000C9489820C94F03C0C94FFAE0C94F1AEAB
:100250000C9438B00C94276F0C943B700C94AA6EDD
:100260000C94CD800C94253D0C94AA3B0C94456FC6
:100270000C94A63C0C94C79C0C94F7AF0C94B273EE
:100280000C941C810C943C820C94C8AE0C945D3D83
:100290000C941AB00C940CAF0C9481740C94DDAED9
:1002A0000C94203C0C9483710C9441A90C947A9C7E
:1002B0000C94E7AE4E414E494E495459494E46CDF5
:1002C000CCCC3D0AD7233C17B7D13877CC2B32950D
:1002D00095E6241FB14F0A000020410000C84200EB
:1002E000401C4620BCBE4CCA1B0E5AAEC59D744372
:1002F0004F4D4D554E49434154494F4E004452597C
:1003000052554E004552524F525300494E464F00EF
:100310004543484F00557370696A2E2E2E004D35A7
:1003200030300059206F7574206F662072616E67DF
:10033000652028312D33292E0A0058206F7574202E
:100340006F662072616E67652028312D33292E0A71
:10035000004D6573682070726F62696E6720646F0C
:100360006E652E0A005374617274206D6573682087
:1003700070726F62696E67207769746820224732F5
:1003800039205331222066697273742E0A00473275
:10039000380A4732392053320053746174653A2069
:1003A000004D65736820626564206C6576656C69D4
:1003B0006E6720686173206E6F20646174612E0A1D
:1003C0000053206F7574206F662072616E67652020
:1003D00028302D35292E0A004D65736820706F690D
:1003E0006E742063616E6E6F742062652072657337
:1003F0006F6C7665640A004F637A656B6977616E2E
:1004000069652E2E2E004D30004272616B20727590
:1004100063687500456E642066696C65206C69735D
:10042000740A00426567696E2066696C65206C69B4
:1004300073740A004D313235005344207072696E76
:1004400074696E67206279746520004E6F74205362
:1004500044207072696E74696E670A005072696E2A
:10046000742074696D653A200050726F746563740E
:1004700065642050696E0A005072696E746F20487E
:100480003320457820676F746F77612E0010030B5F
:10049000030403FD02EF026F6666004445425547C0
:1004A0003A0055626974792E20004D313133205362
:1004B000006F6B004361703A454D455247454E43CE
:1004C000595F5041525345523A300A004361703AE5
:1004D000434153455F4C494748545F42524947485E
:1004E000544E4553533A300A004361703A544F47D3
:1004F000474C455F4C49474854533A300A004361E2
:10050000703A534F4654574152455F504F574552EA
:100510003A300A004361703A4C4556454C494E47C3
:100520005F444154413A310A004361703A5A5F5086
:10053000524F42453A300A004361703A4155544F98
:100540004C4556454C3A300A004361703A50524986
:100550004E545F4A4F423A310A004361703A50525A
:100560004F47524553533A300A004361703A415560
:10057000544F5245504F52545F54454D503A310AF2
:10058000004361703A454550524F4D3A310A00469A
:1005900049524D574152455F4E414D453A4D61726A
:1005A0006C696E20312E332E3162202847697468C1
:1005B00075622920534F555243455F434F44455F71
:1005C00055524C3A68747470733A2F2F6769746887
:1005D00075622E636F6D2F4D61726C696E46697224
:1005E0006D776172652F4D61726C696E2050524F4C
:1005F000544F434F4C5F56455253494F4E3A312E5C
:1006000030204D414348494E455F545950453A507A
:1006100072696E746F2048332045782045585452D3
:10062000554445525F434F554E543A312055554934
:10063000443A63656465326132662D343161322D2E
:10064000343734382D396231322D633535633632E3
:100650006633363766660A002F2F200053657474A0
:10066000696E672054726176656C20416363656CC6
:1006700065726174696F6E3A200053657474696EB7
:1006800067205265747261637420416363656C65B1
:10069000726174696F6E3A200053657474696E6795
:1006A000205072696E7420416363656C6572617479
:1006B000696F6E3A200053657474696E67205072DA
:1006C000696E7420616E642054726176656C20419D
:1006D0006363656C65726174696F6E3A2000205ABD
:1006E00000205900580020204D61783A2000205AFF
:1006F00000205900580020204D696E3A2000576CA8
:100700002E200057796C2E00536F667420656E643E
:1007100073746F70733A20000001363726FF023C75
:100720003D380EFF2E303EFF13FF0C0809FFFFFF80
:100730001A1C18FFFF08440AFF43FFFFFFFFFFFFDB
:1007400020643A0020693A0020703A0020643A00A0
:1007500020693A0020703A0043290A0061626C6502
:100760006420286D696E2074656D702000436F6C85
:100770006420657874727564657320617265200009
:10078000426564204C6576656C696E672000466141
:10079000696C656420746F20656E61626C652042CF
:1007A0006564204C6576656C696E670A004D6573FB
:1007B0006820426564204C6576656C2064617461D4
:1007C0003A0A004D65736820706F696E742063612A
:1007D0006E6E6F74206265207265736F6C766564EF
:1007E0000A004D34323120696E636F727265637432
:1007F00020706172616D65746572207573616765E3
:100800000A00506F7A2E207A65726F7761207573B7
:10081000742E004572723A20546F6F206661722107
:1008200000546F6F206661722066726F6D20726572
:10083000666572656E636520706F696E740A004E3E
:100840006F2063617365206C696768740A00416397
:10085000746976652045787472756465723A200013
:10086000556E6B6E6F776E20636F6D6D616E643A5F
:100870002022002569730025696D202569730025F4
:1008800069682025696D2025697300256964202524
:1008900069682025696D20256973002569792025FF
:1008A0006964202569682025696D202569730055D4
:1008B000626974792E20005A6174727A796D616E62
:1008C000792E20005072696E7465722073746F7097
:1008D0007065642064756520746F206572726F7234
:1008E000732E2046697820746865206572726F7275
:1008F00020616E6420757365204D39393920746F1D
:1009000020726573746172742E202854656D706551
:100910007261747572652069732072657365742ED7
:100920002053657420697420616674657220726555
:100930007374617274696E67290A004E6F204C6986
:100940006E65204E756D62657220776974682063EC
:100950006865636B73756D2C204C617374204C69F2
:100960006E653A20004E6F20436865636B73756D4A
:100970002077697468206C696E65206E756D62659C
:10098000722C204C617374204C696E653A200063B0
:100990006865636B73756D206D69736D61746368F1
:1009A0002C204C617374204C696E653A20004C69B0
:1009B0006E65204E756D626572206973206E6F746E
:1009C000204C617374204C696E65204E756D6265B4
:1009D000722B312C204C617374204C696E653A2067
:1009E000004D313130004D3331004D383420582026
:1009F00059205A2045005344207265616420657275
:100A0000726F720A00446F6E65207072696E74694D
:100A10006E672066696C650A0020496E76616C69B4
:100A200064206578747275646572200000000000AF
:100A300000000000000000000080984300009B437D
:100A40000000024439363030204F4B202D3E2054D8
:100A50005259203131350A0039363030204641496B
:100A60004C202D3E20545259203131350A004E651C
:100A70007874696F6E20636F6E6E65637465642150
:100A80000A004E657874696F6E206E6F7420636F14
:100A90006E6E6563746564210A002020506C616E7F
:100AA0006E657242756666657242797465733A2046
:100AB000002046726565204D656D6F72793A2000A1
:100AC000436F6D70696C65643A204175672020350D
:100AD00020323032300A00207C20417574686F72F9
:100AE0003A20285072696E746F33642E706C2C201B
:100AF0004A616B75622053696B6F7261290A00321B
:100B00003032302D30372D313300204C617374205A
:100B1000557064617465643A2000312E332E316261
:100B20000A004D61726C696E0020536F66747761C4
:100B300072652052657365740A002057617463689A
:100B4000646F672052657365740A002042726F7784
:100B50006E206F75742052657365740A00204578A5
:100B60007465726E616C2052657365740A00506F13
:100B700077657255700A0073746172740A00657249
:100B8000726F722077726974696E6720746F206665
:100B9000696C650A00205A3A0020593A0020583AF8
:100BA00000656E6473746F7073206869743A200016
:100BB000446F6E6520736176696E672066696C6547
:100BC0002E0A004D323900206E6F7420656E7465F8
:100BD0007265642E0A000A4D656173757265642042
:100BE000706F696E74733A0A005A206F6666736597
:100BF000743A20004E756D20582C593A20332C330E
:100C00000A0046696C652064656C657465643A0029
:100C100044656C6574696F6E206661696C65642CEF
:100C20002046696C653A20006F70656E20666169C8
:100C30006C65642C2046696C653A20006D0046693D
:100C40006C616D656E7420757365643A2000537431
:100C50006174733A20002C204C6F6E6765737420AA
:100C60006A6F623A2000546F74616C2074696D651C
:100C70003A200053746174733A20002C2046616955
:100C80006C65643A20002C2046696E69736865645F
:100C90003A20005072696E74733A20005374617484
:100CA000733A2000202F002042403A0020403A00B2
:100CB000526F7A67727A616E6F0020573A005072F5
:100CC000696E746F20483320457820676F746F77A2
:100CD000612E00000020002300260029002C002F98
:100CE00000320000010000030106010901050505AD
:100CF00005070508080808020202020A0A08080493
:100D000004040401010101010101010303030303C0
:100D1000030303040707070C0C0C0C0C0C0C0C024F
:100D200002020206060606060606060B0B0B0B0B56
:100D30000B0B0B010210202008081020401020404F
:100D4000800201020108040201010204081020408F
:100D500080804020100804020180040201804020AD
:100D600010080402010804020101020408102040D6
:100D700080010204081020408000000A0B02090CC8
:100D80000D0E080703040100000000000000000031
:100D90000000000000000000000000000000000053
:100DA0000000000000121110000000000000000010
:100DB00000000000000000000000000000000045EE
:100DC0006B7374727564756A2077696563656A0010
:100DD000577A6E6F77206472756B6F77616E696595
:100DE000005779626965727A206F70636A65005096
:100DF000726F737A6520637A656B616300526F7AF4
:100E000067727A6577616E6965206479737A7900B3
:100E100057796D69616E612066696C616D656E748C
:100E2000750061627920726F7A67727A61632064FB
:100E300079737A6500576369736E696A2070727A94
:100E4000796369736B0057796D69616E61206669BA
:100E50006C616D656E74750077796472756B750081
:100E60005472776120777A6E617769616E69650087
:100E70006E6F7765676F206D6174657269616C75FF
:100E8000005472776120656B737472757A6A6100C1
:100E900066696C616D656E747520646F20676C6F38
:100EA000776963790054727761207770726F776128
:100EB000647A616E69650057796D69616E6120665B
:100EC000696C616D656E747500616279206B6F6E1F
:100ED00074796E756F7761632E2E2E0069206E61B6
:100EE0006369736E696A2070727A796369736B00E3
:100EF000576C6F7A2066696C616D656E7400577906
:100F00006D69616E612066696C616D656E747500F6
:100F100066696C616D656E7475207A20676C6F7799
:100F20006963790054727761207779737577616EA0
:100F300069650057796D69616E612066696C616DE4
:100F4000656E7475007A6D69616E792066696C6191
:100F50006D656E7475005472776120726F7A706F70
:100F6000637A796E616E69650057796D69616E614A
:100F70002066696C616D656E74750057726974697D
:100F80006E6720746F2066696C653A20006F70652B
:100F90006E206661696C65642C2046696C653A2038
:100FA000006F70656E206661696C65642C2046690F
:100FB0006C653A200046696C652073656C656374E6
:100FC00065640A002053697A653A200046696C65B9
:100FD000206F70656E65643A20006F70656E2066E4
:100FE00061696C65642C2046696C653A2000206656
:100FF000696C653A20004E6F7720002220706F7375
:10100000002220706172656E743A2200535542527C
:101010004F5554494E452043414C4C2074617267F2
:1010200065743A220055626974792E2000747279D1
:10103000696E6720746F2063616C6C207375622D1C
:1010400067636F64652066696C657320776974688F
:1010500020746F6F206D616E79206C6576656C739E
:101060002E204D4158206C6576656C2069733A00DE
:1010700020636F6C6420657874727573696F6E207D
:1010800070726576656E7465640A0043616E6E6F9A
:1010900074206F70656E20737562646972200053EE
:1010A000442063617264206F6B0A006F70656E523A
:1010B0006F6F74206661696C65640A00766F6C7589
:1010C0006D652E696E6974206661696C65640A00DD
:1010D0004572726F723A00534420696E69742066DB
:1010E00061696C0A006175746F25692E67004D3265
:1010F00034004D323320257300656E71756575655A
:10110000696E672022006563686F3A0024F4D4306A
:1011100050C38E20C2A24017828B7011127A910D9B
:10112000816CD90AA861E108C75866076151430676
:101130001E4B5D05C145A7041A411104093D9803E2
:10114000713931034036DB0265339102D4305402E9
:10115000802E1D02632CEE01752AC501B028A00166
:10116000102781018F2564012B244B01E0223401DB
:10117000AC211F018D200D01801FFC00841EED009D
:10118000971DDF00B81CD200E61BC600201BBC0068
:10119000641AB200B219A8000A19A0006A189900CE
:1011A000D117910040178B00B516840031167E00D0
:1011B000B31579003A157300C7146F0058146A000C
:1011C000EE1366008813630025135E00C7125B00F0
:1011D0006C12570015125400C111510070114F00CC
:1011E00021114B00D61049008D10470046104400D5
:1011F00002104200C00F4000800F3E00420F3C0032
:10120000060F3B00CB0E3800930E37005C0E350006
:10121000270E3400F30D3200C10D3100900D300067
:10122000600D2E00320D2D00050D2C00D90C2B0069
:10123000AE0C2900850C29005C0C2700350C27001A
:101240000E0C2600E80B2400C40B2400A00B230086
:101250007D0B23005A0B2100390B2100180B2000B5
:10126000F80A1F00D90A1E00BB0A1E009D0A1D00B5
:10127000800A1D00630A1C00470A1B002C0A1B0081
:10128000110A1A00F7091A00DD091900C40919002A
:10129000AB091900920917007B09180063091700B0
:1012A0004C09160036091600200916000A09150017
:1012B000F5081500E0081400CC081400B808140064
:1012C000A4081400900813007D0812006B08130096
:1012D00058081200460812003408110023081100B3
:1012E0001208110001081100F0071000E0071000BB
:1012F000D0071000C0071000B0070F00A1071000B2
:1013000091070E0083070F0074070F0065070E009A
:1013100057070E0049070E003B070D002E070E0071
:1013200020070D0013070D0006070D00F9060C003D
:10133000ED060D00E0060C00D4060C00C8060C00FB
:10134000BC060C00B0060C00A4060B0099060C00AD
:101350008D060B0082060B0077060B006C060B0057
:1013600061060A0057060B004C060A0042060A00F6
:1013700038060A002E060A0024060A001A060A0089
:101380001006090007060A00FD050900F40509001A
:10139000EB050900E2050900D9050900D00509009F
:1013A000C7050900BE050900B5050800AD05080020
:1013B000A50509009C050800940508008C05080097
:1013C000840508007C050800740508006C0507000A
:1013D000650508005D050700560508004E05070075
:1013E00047050700400508003805070031050700DC
:1013F0002A050700230507001C050600160507003F
:101400000F0507000805060002050700FB0406009B
:10141000F5040700EE040600E8040600E2040700F5
:10142000DB040600D5040600CF040600C90406004C
:10143000C3040600BD040600B7040600B10405009D
:10144000AC040600A6040600A00405009B040600E8
:1014500095040500900406008A0405008504050033
:10146000800406007A040500750405007004050078
:101470006B04050066040500610405005C040500BA
:1014800057040500520405004D04050048040500FA
:10149000430405003E0404003A0405003504050039
:1014A000300404002C040500270404002304050074
:1014B0001E0404001A0404001604050011040400AC
:1014C0000D040400090405000404040000040400E1
:1014D000FC030400F8030400F4030400F003040018
:1014E000EC030400E8030400E4030400E003040048
:1014F000DC030400D8030400D4030400D003040078
:10150000CC030400C8030300C503030024F404D97A
:10151000201BC40C5C0E9804C4095F0265077101AE
:10152000F405F900FB04B30048048700C103690017
:101530005803550003034500BE023A0084023100FF
:1015400053022A002902250004022000E4011C00A5
:10155000C8011900AF01170098011400840113009D
:10156000710110006101100051010E0043010D00D6
:1015700036010B002B010B0020010B0015010900A7
:101580000C01090003010800FB000800F30008003B
:10159000EB000700E4000600DE000600D8000600AD
:1015A000D2000600CC000500C7000500C2000500FF
:1015B000BD000400B9000400B5000400B10004003F
:1015C000AD000400A9000400A5000300A200030070
:1015D0009F0004009B000300980003009500020098
:1015E00093000300900003008D0002008B000300B5
:1015F00088000200860002008400030081000200CF
:101600007F0002007D0002007B00020079000200E2
:1016100077000100760002007400020072000100F1
:10162000710002006F0002006D0001006C000200FA
:101630006A00010069000200670001006600010005
:101640006500010064000200620001006100010009
:10165000600001005F0002005D0001005C0001000D
:101660005B0001005A000100590001005800010010
:101670005700010056000100550001005400010010
:10168000530000005300010052000100510001000E
:10169000500001004F0001004E0000004E0001000C
:1016A0004D0001004C0001004B0000004B00010008
:1016B0004A00010049000100480000004800010004
:1016C0004700010046000000460001004500000000
:1016D00045000100440001004300000043000100F8
:1016E00042000000420001004100000041000100F2
:1016F000400001003F0000003F0001003E000000EC
:101700003E0001003D0000003D0001003C000000E3
:101710003C0000003C0001003B0000003B000100D9
:101720003A0000003A0001003900000039000100D1
:1017300038000000380000003800010037000000C9
:1017400037000100360000003600000036000100BE
:1017500035000000350000003500010034000000B5
:1017600034000000340001003300000033000000AA
:10177000330001003200000032000000320001009E
:101780003100000031000000310001003000000095
:1017900030000000300001002F0000002F0000008A
:1017A0002F0000002F0001002E0000002E0000007E
:1017B0002E0001002D0000002D0000002D00000073
:1017C0002D0001002C0000002C0000002C00000067
:1017D0002C0001002B0000002B0000002B0000005B
:1017E0002B0001002A0000002A0000002A0000004F
:1017F0002A00010029000000290000002900000043
:101800002900000029000100280000002800000035
:101810002800000028000000280001002700000028
:10182000270000002700000027000000270001001B
:101830002600000026000000260000002600000010
:101840002600010025000000250000002500000002
:1018500025000000250000002500010024000000F4
:1018600024000000240000002400000024000100E7
:1018700023000000230000002300000023000000DC
:1018800023000000230000002300010022000000CC
:1018900022000000220000002200000022000000C0
:1018A00022000100210000002100000021000000B2
:1018B00021000000210000002100000021000100A3
:1018C0002000000020000000200000002000000098
:1018D0002000000020000000200000002000010087
:1018E0001F0000001F0000001F0000001F0000007C
:1018F0001F0000001F0000001F0001001E0000006C
:101900001E0000001E0000001E0000004D383420A4
:10191000582059205A20450020636F6C6420657858
:1019200074727573696F6E2070726576656E74651A
:10193000640A00627573793A20706175736564207A
:10194000666F7220696E7075740A00627573793AF9
:101950002070617573656420666F7220757365729F
:101960000A00627573793A2070726F6365737369E8
:101970006E670A004D3630300055626974792E204A
:10198000004B494C4C20636175736564206279207B
:101990004B494C4C20627574746F6E2F70696E0ADF
:1019A0000055626974792E20004B494C4C206361CC
:1019B0007573656420627920746F6F206D7563683C
:1019C00020696E6163746976652074696D65202D88
:1019D0002063757272656E7420636F6D6D616E64E5
:1019E0003A20005072696E7465722068616C74658B
:1019F000642E206B696C6C28292063616C6C6564B3
:101A0000210A00008098430000000000000244000A
:101A1000009642000096420000C8410000000057B6
:101A200061726E696E673A20486F6D696E67204219
:101A3000756D702044697669736F72203C20310A9D
:101A4000000202080000A0400000A0400000A040EA
:101A50000080984300009B430000024401FF014DB9
:101A600036303020486F74656E6420746F6F206369
:101A70006F6C6420746F206368616E6765206669AF
:101A80006C616D656E740A00577A6E6F7769656E6A
:101A90006965004D32340057796472756B20777335
:101AA00074727A796D616E79004D3132350047324A
:101AB00039205332004E49450054414B004E4945B0
:101AC000004D2042204C00323032302D30372D3145
:101AD0003300312E332E316200256C642E25696D62
:101AE0000054656D702E206D696E3A2031373000DC
:101AF0006B6F6E74796E756F77616300726F7A6762
:101B0000727A656A2061627900476C6F77696361F8
:101B1000206A657374207A696D6E612C004D3630D1
:101B200030204230004739300047393100473238E1
:101B3000004472756B2070727A657277616E7900FD
:101B4000526F7A67727A616E6F2073746F6C0020C7
:101B5000573A00526F7A67727A6577616E696520CD
:101B600073746F6C752E2E2E00205A3A0020423A64
:101B70000020436F756E7420413A0020453A0020E2
:101B80005A3A0020593A00583A004B642000236426
:101B90006566696E65202044454641554C545F009A
:101BA0004B69200023646566696E652020444546C4
:101BB00041554C545F004B70200023646566696E8C
:101BC00065202044454641554C545F00504944200F
:101BD000756B6F6E637A6F6E6F005049442041756C
:101BE000746F74756E652066696E697368656421CB
:101BF0002050757420746865206C617374204B707C
:101C00002C204B6920616E64204B6420636F6E73DF
:101C100074616E74732066726F6D2062656C6F778D
:101C200020696E746F20436F6E66696775726174A8
:101C3000696F6E2E680A00504944204175746F74B4
:101C4000756E65206661696C6564212074696D65D7
:101C50006F75740A0050494420626C61643A206FC9
:101C600076657273686F740050494420626C6164D9
:101C7000206B616C69627261636A6900504944203B
:101C80004175746F74756E65206661696C65642159
:101C90002054656D706572617475726520746F6F24
:101CA00020686967680A00204B643A2000204B696D
:101CB0003A2000204B703A20000A20436C61737375
:101CC000696320504944200A002054753A200020BE
:101CD0004B753A2000206D61783A2000206D696EC6
:101CE0003A200020643A200020626961733A2000A3
:101CF00050494420726F7A706F637A65746F002068
:101D000066697273740A005A0059005800486F6D72
:101D100065200070012C0190012701B0012201C053
:101D2000011D01F00118011002130130020E0160C3
:101D300002090190020401C002FF000003FA004002
:101D400003F5008003F000D003EB002004E60070F0
:101D500004E100E004DC004005D700C005D20040EB
:101D600006CD00D006C8008007C3003008BE00F0D2
:101D700008B900C009B400B00AAF00B00BAA00D087
:101D80000CA500000EA000500F9B00C01096005044
:101D900012910000148C00C0158700B0178200B0AB
:101DA000197D00D01B7800001E730040206E00904B
:101DB000226900F024640040275F0090295A00E067
:101DC0002B5500102E500020304B0010324600E002
:101DD00033410090353C001037370070383200A096
:101DE000392D00B03A2800A03B2300603C1E0010B3
:101DF0003D1900903D1400103E0F00703E0A00C0D7
:101E00003E0500003F0000403FFBFF803FF6FFC063
:101E10003FF1FF457272206D696E2074656D702010
:101E200073746F6C7500457272206D696E207465F5
:101E30006D70004D494E54454D502074726967676E
:101E40006572656400457272206D61782074656DFD
:101E5000702073746F6C7500457272206D6178200C
:101E600074656D70004D415854454D502074726931
:101E700067676572656400027C3C3E5E2B3D3F2FC8
:101E80005B5D3B2C2A225C00290A00206279746584
:101E9000733B20637263200053657474696E6773CB
:101EA0002053746F726564202800202863616C637E
:101EB000756C6174656429210A0020213D2000456C
:101EC0004550524F4D20435243206D69736D6174EC
:101ED0006368202D202873746F726564292000299F
:101EE0000A002062797465733B20637263200020CE
:101EF00073746F7265642073657474696E677320A0
:101F0000726574726965766564202800204D61727F
:101F10006C696E3D563339290A0028454550524FA9
:101F20004D3D00454550524F4D2076657273696FA7
:101F30006E206D69736D617463682000257564207F
:101F4000253032753A25303275004B61727461204C
:101F50007573756E69657461004B61727461207789
:101F60006C6F7A6F6E610073645F73746174757304
:101F70003A66616C73650A0073645F7374617475AB
:101F8000733A747275650A00202F200048617264EC
:101F9000636F6465642044656661756C7420536585
:101FA0007474696E6773204C6F616465640A00889D
:101FB00013000088130000500000002823000000D8
:101FC000008243000082430000E0410000A0420084
:101FD00000A0420000A042000048440000204366E8
:101FE000696C616D656E743A20007A5F6D61783A54
:101FF0002000795F6D696E3A2000785F6D61783AF4
:1020000020005265706F7274696E6720656E64732C
:10201000746F70207374617475730A0043616E6E1F
:102020006F7420656E746572207375626469723AAC
:1020300020004572726F722077726974696E672032
:10204000746F20454550524F4D210A006265640A65
:10205000002C2073797374656D2073746F707065D4
:102060006421204865617465725F49443A20005AD2
:10207000616E696B2074656D702E00546865726DB9
:10208000616C2052756E6177617900526F7A677268
:102090007A2E206E69657564616E650048656174AD
:1020A000696E67206661696C656400000021002428
:1020B0000027002A002D0030003300010100000439
:1020C0000107010A0100002200250028002B002E34
:1020D000003100340002010000050108010B01522B
:1020E0006573656E643A20006F6B000073B324CA99
:1020F00011241FBECFEFD1E2DEBFCDBF00E00CBF89
:1021000016E0A0E0B2E0E2EBF0EB01E00BBF02C0B2
:1021100007900D92AE30B107D9F72DE1AEE0B6E0F1
:1021200001C01D92AA34B207E1F710E1C7E7D0E180
:1021300000E006C021970109802FFE010E9495D47E
:10214000C637D10780E00807A9F70E94D5C20C94D2
:1021500047D80C9400002F923F924F925F926F925B
:102160007F928F929F92AF92BF92CF92DF92EF9227
:10217000FF920F931F93CF93DF93CDB7DEB7E9970D
:102180000FB6F894DEBF0FBECDBF0091331320E42D
:10219000029F800111240D5C1E4E8091161480FF59
:1021A0001AC0E6E0F1E184917F019FEFE91AF90A94
:1021B000811102C0780104C00E94B12CF701F3CF55
:1021C000D7018D917D01882319F00E94B12CF8CFA1
:1021D0008AE00E94B12C81E090E09093A71B80934D
:1021E000A61B10922D0610922C068FE380933706C3
:1021F000109236061092350684E0E8E2F6E0DF0140
:102200001D928A95E9F7F80180810F5F1F4F803298
:10221000D1F38E34C9F4818190ED980F9A3020F07B
:102220008D3211F08B3281F4DF0112969D012F5F08
:102230003F4F8C9180538A3010F4D901F7CFFD01C4
:10224000119680818032D9F3F093911BE093901B1B
:102250007F01BFEFEB1AFB0A10816AE270E0C70151
:102260000E94E5D7009731F0FC01319780818032E0
:10227000E1F311821D3431F1143521F1173411F1DC
:10228000E6E0F1E184918F010F5F1F4F882321F079
:102290000E94B12CF801F6CF6091901B7091911BB8
:1022A00080E698E00E94696282E20E94B12C8AE096
:1022B0000E94B12C1092A71B1092A61B0E9429B35A
:1022C0000C942725C701FC01208101962032D9F307
:1022D00020532A30A8F61093370620E030E06AE059
:1022E0003196DF0111978C91082E000C990BC09745
:1022F000629FA001639F500D11249C01240F351F84
:10230000808180538A3060F33093360620933506FF
:10231000DF0131968C918032D9F31D34D1F42E3106
:10232000310591F03CF42731310571F02C31310544
:1023300081F40AC02537310564F02737310524F0D0
:10234000203AE3E03E0729F4B0932D06A0932C0633
:102350007CC010922D0610922C060091901BEE244A
:10236000E394F12CFD0131968C91882309F46DC022
:102370008132A1F41D3491F42032310579F4F093C7
:102380002D06E0932C0663E270E0CF010E94E5D7B2
:10239000009709F416C4DC011C9257C081548A319D
:1023A000A0F5AF01FA0190814F5F5F4F9032D1F3FA
:1023B00040ED490F4A3040F043ED490F423020F0E4
:1023C0009B3211F00C949F24AF01682F70E0DB0169
:1023D00093E0B595A7959A95E1F7A85DB94F8770F9
:1023E000670102C0CC0CDD1C8A95E2F7C6019C9106
:1023F000892B8C934115510511F0401B01C040E021
:10240000DB01A25FB94F4C930AC080912C069091DA
:102410002D06892B21F4B0932D06A0932C068081E4
:1024200081548A3110F4DF019DCFDF01AD014F5F90
:102430005F4F8C9180538A3010F4DA01F7CFFD01A1
:10244000119680818032D9F3EECF809137068D349A
:1024500009F4B7C3843511F40C945C24873409F073
:102460000FCF80913506909136068D31910509F494
:102470006CC074F48430910539F11CF40297D0F0EB
:1024800019CF4C9709F016CF80E00E94653612CF25
:102490008A35910509F49CC224F48A9709F4FAC29A
:1024A00009CF8B35910509F496C28C35910509F455
:1024B00096C200CF8091AC02882309F4FBCE0E9423
:1024C00027370E94E76DF6CE80E50E94B72B882360
:1024D00029F00E94112B6B017C0103C0C12CD12C6F
:1024E000760183E50E94B72B882361F00E94552B6B
:1024F00020E030E04AE754E40E9415D00E94AED5B7
:102500006B017C010E9487AE0E94CA2B8091921BB6
:102510009091931BA091941BB091951BC80ED91E4E
:10252000EA1EFB1E60E085E193E00E947D990E9417
:102530007BB0DC01CB018C199D09AE09BF09B7FF47
:10254000B9CE80E00E94DE66F2CF83E50E94B72B11
:10255000882321F00E94312B182F01C010E0163083
:1025600068F0E1ECF3E084918F010F5F1F4F882347
:1025700009F4A0CE0E94B12CF801F5CF123009F475
:1025800045C0B0F41123F9F0113009F01EC20E94C9
:10259000779F10920102109200028EE893E09093D0
:1025A0002816809327160E945D2A1093FA1B0DC2ED
:1025B000143009F4FBC108F499C1153009F005C2C3
:1025C0000E94693802C28091DB1380FD03C0E1EAFA
:1025D000F3E011C081FF03C06BE673E002C060E767
:1025E00073E089E993E00E9469628AE00E94B12C5D
:1025F0000E9461C9EAC184918F010F5F1F4F882338
:1026000009F4E3C10E94B12CF801F5CF409100021A
:102610005091010257FF0CC005E613E0F8018491C8
:10262000882309F447CE0F5F1F4F0E94B12CF6CFCD
:102630004115510529F480913302809334062FC04F
:102640008FEF840F63E00E9440D480FF02C0191B0B
:10265000912F292F990F330BF901EE0FFF1FE20F76
:10266000F31FE80FF11D87FDFA95EE0FFF1FEE0F28
:10267000FF1FE954FC4E8091991390919A13A091F9
:102680009B13B0919C1380839183A283B383809129
:10269000340680933302493051050CF0C0C0842FBA
:1026A00063E00E9440D45C01A0FE03C082E08B196D
:1026B000B82EC0903402D0903502E0903602F090EF
:1026C000370207E11AE1F80185919591A591B4913E
:1026D0008093340290933502A0933602B093370270
:1026E00020E030E0A901609172167091731680911C
:1026F0007416909175160E94B2D420E030E040EA42
:1027000050E40E94B2D46093991370939A1380930B
:102710009B1390939C130E947EC285E595E5A5E0EE
:10272000B3E48093340290933502A0933602B093C1
:102730003702FB2D24E0F202D0011124AA51B44F3C
:1027400020916A1630916B1640916C1650916D165F
:102750006D917D918D919C910E94B2D46093911363
:102760007093921380939313909394138A2D94E013
:102770008902F0011124E652F44F20916E16309137
:102780006F1640917016509171166081718182812F
:1027900093810E94B2D460939513709396138093A3
:1027A0009713909398130E947EC2F801859195919A
:1027B000A591B4918093340290933502A093360290
:1027C000B093370220E030E0A90160917216709159
:1027D000731680917416909175160E94B2D460930E
:1027E000991370939A1380939B1390939C130E9458
:1027F0007EC2C0923402D0923502E0923602F0924C
:1028000037020E9487AE10923302809100029091AD
:10281000010201969093010280930002D6C020E04D
:1028200030E0A90160917216709173168091741650
:10283000909175160E94B2D420E030E040EA50E456
:102840000E94B2D46093991370939A1380939B1350
:1028500090939C130E947EC20E9487AE8FEF9FEFE1
:102860009093010280930002E1E5F3E084918F01EF
:102870000F5F1F4F882321F00E94B12CF801F6CF83
:1028800083E992E09A83898304E610E019A308A300
:10289000BE016F5F7F4FCE0180960E9401568AEB8A
:1028A00092E09A83898319A308A3BE016F5F7F4FCB
:1028B000CE0180960E9401568091DB138160809347
:1028C000DB138DEC9BE00E941E9D81E00E9465362B
:1028D00081E00E9431298EE193E090932816809345
:1028E00027160E945D2A1092FA1B6FC088E50E948D
:1028F000B72B882399F00E94212B1FEF160F13305E
:1029000098F0EAE3F3E084918F010F5F1F4F882373
:1029100009F4D0CC0E94B12CF801F5CF88E50E94D3
:10292000B12C0E9414CAC6CC89E50E94B72B88231B
:1029300099F00E94212B0FEF060F033098F0E3E28D
:10294000F3E084918F010F5F1F4F882309F4B2CC0D
:102950000E94B12CF801F5CF89E50E94B12C0E94AC
:1029600014CAA8CC8AE50E94B72B8823C9F00E941C
:10297000552B212F110F330BF901EE0FFF1FE20F23
:10298000F31FE00FF11D07FDFA95EE0FFF1FEE0F8D
:10299000FF1FE954FC4E608371838283938315C0CB
:1029A0008AE50E94B12C0E9414CA84CC8AE50E9458
:1029B000B72B8823A9F30E94552B6093B313709310
:1029C000B4138093B5139093B6130E942A7E72CCF1
:1029D000109233066FCC81E0809333066BCC85E494
:1029E0000E94B72BB82E811102C00E9487AE1BEC4B
:1029F000812E12E0912E01E9C02E03E1D02E8AE94A
:102A0000E82E8BE1F82E00E010E0A12CD4018D918E
:102A10004D010E94B72B882339F1F6014080518087
:102A2000628073800E94552BD6016D937D938D93A8
:102A30009C9313970330C1F0A30192010E94B1D47B
:102A40009B01AC01F70160817181828193810E94B9
:102A5000B2D4D7016D937D938D939C931397C80146
:102A60000E94AD29AA24A3940F5F1F4FB4E0CB0EA0
:102A7000D11CE4E0EE0EF11C0430110539F6AA2059
:102A800019F00E94B62A03C0B1100E94FE390E94BC
:102A90002A7E10CC8091AC02882309F40BCC89E407
:102AA0000E94B72BE82E882321F00E94212B062FAD
:102AB00001C000E08AE40E94B72BF82E882321F0A1
:102AC0000E94212B162F01C010E0EE2011F00330E0
:102AD00020F4FF2079F0133068F0E8EDF3E0849102
:102AE0008F010F5F1F4F882309F4E4CB0E94B12CA4
:102AF000F801F5CF0E94FD2AEE20E1F024E0020269
:102B0000F0011124EA51F44F20916A1630916B16AE
:102B100040916C1650916D16608171818281938114
:102B20000E94B2D46093291670932A1680932B16B4
:102B300090932C16FF20E1F084E01802F00111249C
:102B4000E652F44F20916E1630916F164091701638
:102B50005091711660817181828193810E94B2D4FB
:102B600060932D1670932E1680932F169093301627
:102B700080E50E94882B81110E94452B86E40E94EB
:102B8000B72B8823D9F00E94552B6B017C0120E0E4
:102B900030E0A9010E9435D6181684F420E030E018
:102BA00040E752E4C701B6010E9435D56093340274
:102BB0007093350280933602909337020E94E76D3E
:102BC00079CB80913506909136068237910509F4CC
:102BD000B3C60CF0D3C08C34910509F4DBC30CF000
:102BE0006BC08831910509F49AC2D4F58231910500
:102BF00009F4D4C5D4F497FD5DCB823091050CF473
:102C0000B7C1419709F056CB60E089E094E00E949B
:102C10007D995F988A989FB7F894809108018E7F7C
:102C2000809308019FBF129845CB8531910509F427
:102C30006EC234F4449709F03DCBE6E0F1E120C2E6
:102C40008631910509F466C2479709F033CB40E01D
:102C500061E080912C0690912D060E94573E2ACB70
:102C60008E31910509F4DDC2B4F48A31910509F47D
:102C700081C20CF472C28B31910509F497C24C9752
:102C800009F018CB40E060E080912C0690912D0671
:102C90000E94573E0FCB8032910509F4C5C20CF457
:102CA0000DC38A32910509F435C38B34910509F0BF
:102CB00001CB0E94563AFECA8836910509F476C3C4
:102CC000C4F58235910509F460C5DCF48E349105B4
:102CD00009F468C30CF462C38135910509F0EACAAE
:102CE0000E94DD860E9487AE0E94616610921514D4
:102CF0001092141468EE73E080E090E00E942E843D
:102D0000D9CA8435910509F449C50CF442C5853505
:102D1000910509F476C58C35910509F0CBCAFBEC19
:102D2000CF2EF2E0DF2EA1EAEA2EA3E1FA2E10E088
:102D300083C58D36910509F481C48CF48A369105DA
:102D400009F480C40CF434C48B36910509F499C499
:102D50008C36910509F0AECA10923802ABCA8F3694
:102D6000910509F46AC30CF455C38037910509F441
:102D7000D2C38137910509F4D2C39CCA8D3D910518
:102D800011F40C94AE1F0CF057C08B39910509F467
:102D90002CC40CF58737910509F4A3C66CF485376C
:102DA000910509F45EC60CF065C68337910509F0FC
:102DB00081CAEFE8F5E0C9C58937910509F49CC6D9
:102DC0000CF493C68D37910509F46DC48C389105C8
:102DD00009F4D2C36FCA8C3C910509F420C7DCF416
:102DE000883C910509F48EC63CF48E3B910509F0B0
:102DF00061CA0E94E97E5ECA893C910509F4D6C683
:102E00008B3C910509F056CA6BECE62E62E0F62E7B
:102E100008EF13E1F4C68E3C910511F40C94E81E02
:102E20000CF469C7833D910509F49FC08C3D910561
:102E300011F40C949F1F3ECA843AA1E09A0711F442
:102E40000C949F21CCF58F32E1E09E0711F40C9495
:102E50009721CCF48C3221E0920711F40C94F91FE5
:102E600034F4823E910511F40C94CA1F23CA8D32AA
:102E7000B1E09B0711F40C9423208E32914011F4A1
:102E80000C94402117CA8336F1E09F0709F469C00A
:102E900034F48033914011F40C94C2200BCA803971
:102EA000B1E09B0711F40C949B218A39914009F001
:102EB00001CA0E946379FEC9863FF1E09F0711F4C1
:102EC0000C940024B4F58C3AA1E09A0711F40C9408
:102ED000FC2234F4853A914011F40C940222EAC9A0
:102EE000843FF1E09F0711F40C94E023853F91406B
:102EF00009F0E0C90E94C28E8CEF98E09A83898322
:102F000006E410E019A308A3BE016F5F7F4FCE0156
:102F100080960E94015684E59BE09A83898319A3D9
:102F200008A3BE016F5F7F4FCE0180960E940156BD
:102F3000C1C98835A2E09A0711F40C942D2434F409
:102F40008C31924011F40C942024B4C9803AF3E0FF
:102F50009F0709F4A6C1873E934011F40C944824BE
:102F6000A9C9E0EDF0E10C943424E6E0F1E14FC7AB
:102F7000E6E0F4E084918F010F5F1F4F882321F07A
:102F80000E94B12CF801F6CFA0902C06B0902D062F
:102F900080E50E94B72B882359F00E94112B6B010A
:102FA0007C0111E0672B682B692B31F410E004C021
:102FB00010E0C12CD12C760183E50E94B72B882329
:102FC000F1F00E94552B20E030E04AE754E40E94E3
:102FD00015D00E94AED56B017C01111112C0672B78
:102FE000682B692B71F4A114B10459F0D5018C91AF
:102FF000882339F061E0C5010E94AA9907C0112316
:1030000091F360E087EF93E00E947D9983E090E088
:103010009093A71B8093A61B81E08093FC1B0E94CA
:1030200087AE0E94CA2BC114D104E104F10411F14E
:103030008091921B9091931BA091941BB091951B32
:10304000C80ED91EEA1EFB1E0E947BB0DC01CB011C
:103050008C199D09AE09BF09B7FD02C00C94B024BC
:103060008091FC1B882311F40C94B02480E00E9412
:10307000DE66EACF1092FC1B1DC90E94B12CF8013C
:1030800084918F010F5F1F4F8111F7CFE3E2F4E0CE
:1030900084918F010F5F1F4F882321F00E94B12C74
:1030A000F801F6CF1092C20E1092C10E8CE69CE091
:1030B0000E948F898BE1ECE6FCE0DE011596019021
:1030C0000D928A95E1F780916A0C90916B0C9C832C
:1030D0008B8389ED92E09A83898340E050E0BE01C2
:1030E0006F5F7F4F8FE693E00E944659CE010196B5
:1030F0000E941E66E4E1F4E084918F010F5F1F4F90
:10310000882309F4D7C80E94B12CF801F5CF0E949A
:103110006A57D0C810923B0C10923C0CCBC8198255
:103120001A821B821C8218A219A21AA21BA28091C9
:10313000FD1B882341F040E0BE016F5F7F4FCE0151
:1031400080960E94616C80913C0C882319F081E08C
:1031500080933B0C0E94563AADC810923B0C0E94E3
:103160003C3A84E394E090932816809327160E94BB
:103170005D2AA0C880913C0C882309F49BC883E594
:103180000E94B72B882309F495C80E94212BAB011C
:10319000BC014093B80E5093B90E6093BA0E709371
:1031A000BB0E87E09EE00E9428A784C880913C0C5B
:1031B000811103C0EBE4F4E029C0E9E3F4E0849179
:1031C0008F010F5F1F4F882321F00E94B12CF8015F
:1031D000F6CF6091B80E7091B90E8091BA0E9091B1
:1031E000BB0E4AE00E94072D8FE20E94B12C609135
:1031F000B40E7091B50E8091B60E9091B70E4AE064
:103200000E94072D8AE00E94B12C54C884918F013E
:103210000F5F1F4F882309F44DC80E94B12CF8019D
:10322000F5CF0E94783846C880913B0C81110E94EE
:1032300087AEE0902C06F0902D0680E50E94882B4A
:10324000182F882319F00E94452B182F80913C0CD1
:10325000882311F40C945A11412F61E0C7010E9498
:10326000573E83E50E94B72B882381F00E94212BD3
:10327000AB01BC014093B80E5093B90E6093BA0EE7
:103280007093BB0E87E09EE00E9428A780913C0CC3
:10329000882319F081E080933B0C11110C945A1192
:1032A00059CF80912C0690912D0621E020933A0C65
:1032B00040E060E00E94573E0C945A1180E19CE08F
:1032C0000E9450AD68A379A38AA39BA3BE016F5F40
:1032D0007F4FCE0180960E94D52B60E0CE010196F3
:1032E0000E94AA99E6E0F1E184918F010F5F1F4FE0
:1032F000882321F00E94B12CF801F6CFBE016F5F48
:103300007F4F8CE594E00E9469628AE00E94B12CB4
:103310000C945A1183E50E94B72B882311F40C9466
:103320005A110E94312BE82E80E50E94B72B88238A
:1033300039F00E94212B8B0177FF04C00C945A11A5
:103340000DE010E0202FE8E1F7E080E497E0349111
:10335000231303C0E0EDF0E109C031968E179F07FB
:10336000B1F70C94B4240E94B12CF80184918F0120
:103370000F5F1F4F8111F7CFE9E6F4E084918F01D1
:103380000F5F1F4F882311F40C945A110E94B12C27
:10339000F801F4CF0E943C3A0C945A110E94245533
:1033A0000C945A110E9473340C945A1188E690E0E0
:1033B0000E94742D81110C945A118091161483FF70
:1033C00002C00C945A1183E50E94B72B8823F1F0B8
:1033D0000E94552B0E94A7D570932F1C60932E1C22
:1033E00080E00E9492860E94552B20E030E04AEA5D
:1033F00052E40E94AFCF18163CF00E94245560E0C2
:1034000088E794E00E947D990E94552B0E94696391
:103410000C945A118EE40E94B72B882311F40C945B
:103420005A110E94212B6093401D7093411D80937F
:10343000421D9093431D0C945A1183E50E94B72BB3
:10344000882319F00E94312B01C080E0809316146C
:10345000E6E0F1E184918F010F5F1F4F811103C0FE
:10346000EBE9F4E004C00E94B12CF801F3CF8491A1
:103470008F010F5F1F4F882321F00E94B12CF801AC
:10348000F6CF80911614811103C0E7E9F4E034C04F
:10349000BDE8CB2EB4E0DB2EE12CF12C20E08091B6
:1034A000161490E00E2C02C0959587950A94E2F7C9
:1034B00080FF17C0BB24B394B20E222319F08CE214
:1034C0000E94B12CF60185919491FC0184918F01A9
:1034D0000F5F1F4F882321F00E94B12CF801F6CF17
:1034E0002B2DBFEFEB1AFB0AE2E0CE0ED11CF5E06C
:1034F000EF16F104A1F60AC084918F010F5F1F4FF0
:10350000882321F00E94B12CF801F6CF8AE00E94B6
:10351000B12C0C945A1182EA94E00E94726683E501
:103520000E94B72B811103C0E6E0F1E10DC00E94BB
:10353000312B80932E028D3310F40C945A118CE3AE
:1035400080932E020C945A1184918F010F5F1F4FAC
:10355000882321F00E94B12CF801F6CF40912E0271
:1035600050E060E070E08AEA94E00E9416628AE02F
:103570000E94B12C0C945A118091161483FF02C042
:103580000C945A1183E50E94B72B882311F40C94F4
:103590005A110E94552B0E94A7D56739710514F066
:1035A00066E970E070932D1C60932C1C0C945A11EA
:1035B00089E690E00E94742D811111C0E1EBF4E0E6
:1035C00084918F010F5F1F4F882321F00E94B12C3F
:1035D000F801F6CF0E9452328AE00E94B12C10927C
:1035E000A71B1092A61B0C94272583E50E94B72BDE
:1035F000882311F40C945A110E94312B80938F1B55
:103600008D3318F08CE380938F1B0E947BB06B018D
:103610007C0120918F1B30E0A8EEB3E00E9431D4F2
:10362000C60ED71EE81EF91EC0928B1BD0928C1BB3
:10363000E0928D1BF0928E1B0C945A110E94D7328F
:103640000C945A1183E50E94B72B882339F00E940D
:10365000212B8B016F3F710519F010F00FEF10E077
:1036600080E50E94B72B811106C0109315140093BA
:1036700014140C945A110E94312B81110C945A117C
:10368000F4CF80E50E94B72B811106C0109215146B
:10369000109214140C945A110E94212B672B11F0D4
:1036A0000C945A11F3CF8CE40E94882B882319F0D4
:1036B0000E94552B04C060E070E080EA90EC68AB9B
:1036C00079AB8AAB9BAB8AE50E94B72B882319F0B4
:1036D0000E94552B03C060E070E0CB0120E030E099
:1036E00040E751E40E94B2D46CA77DA78EA79FA7A4
:1036F00088E50E94B72B882319F00E94552B03C040
:1037000060E070E0CB0120E030E042E553E40E944D
:10371000B2D468A779A78AA79BA789E50E94B72B8F
:10372000882319F00E94552B03C060E070E0CB01A4
:1037300020E030E04CED52E40E94B2D46CA37DA3B3
:103740008EA39FA319821A821B821C8218A219A21F
:103750001AA21BA28091FD1B81110C945A11A12C5D
:10376000C12CCE0101967C018E01005E1F4F9E018F
:103770002C5D3F4FAE01485D5F4FBE01645D7F4FE2
:103780008F960E94A86A0C945A11109232060C94DB
:103790005A1181E0809332060C945A1183E50E94FD
:1037A000B72B8823A1F00E94552B20E030E04AE798
:1037B00054E40E9415D00E94AED560932F027093FE
:1037C000300280933102909332020C945A1188E5B2
:1037D0000E94882B81110C94CC2489E50E94882BAF
:1037E00081110C94CC248AE50E94882B81110C94C1
:1037F000CC2485E40E94882B81110C94CC240C9459
:10380000F82483E50E94882B882311F40C945A1124
:103810000E94552B20E030E04AE754E40E9415D086
:103820000E94AED56093961B7093971B8093981B54
:103830009093991B0C945A11D6018D916D010E94A1
:10384000882B882309F46DC0133009F063C00E94EF
:10385000552B4B015C0120E030E040EA51E40E942E
:10386000AFCF87FF4EC0A50194016091AD13709159
:10387000AE138091AF139091B0130E9435D52B01F8
:103880003C019B01AC016091E8137091E9138091B8
:10389000EA139091EB130E9415D06093E813709394
:1038A000E9138093EA139093EB13A30192016091C3
:1038B00004147091051480910614909107140E94CD
:1038C00015D060930414709305148093061490939C
:1038D0000714609155167091561680915716909165
:1038E00058160E94B4CFA30192010E9415D00E94E5
:1038F000AED56093551670935616809357169093D5
:1039000058168092AD139092AE13A092AF13B0925E
:10391000B01307C00E94552BF70160837183828327
:1039200093831F5FF4E0EF0EF11C143009F084CF95
:103930000E94C1640C945A110E9487AE0E942A7E94
:103940000C945A110E94B12CF80184918F010F5FE1
:103950001F4F8111F7CFE1E8F5E003C00E94B12CC1
:10396000F80184918F010F5F1F4F8111F7CFEAE6B5
:10397000F5E003C00E94B12CF80184918F010F5F24
:103980001F4F8111F7CFEAE5F5E003C00E94B12C8B
:10399000F80184918F010F5F1F4F8111F7CFE9E488
:1039A000F5E003C00E94B12CF80184918F010F5FF4
:1039B0001F4F8111F7CFE8E3F5E003C00E94B12C5F
:1039C000F80184918F010F5F1F4F8111F7CFE9E25A
:1039D000F5E003C00E94B12CF80184918F010F5FC4
:1039E0001F4F8111F7CFE4E1F5E003C00E94B12C35
:1039F000F80184918F010F5F1F4F8111F7CFEEEF18
:103A0000F4E003C00E94B12CF80184918F010F5F94
:103A10001F4F8111F7CFE9EEF4E003C00E94B12CF3
:103A2000F80184918F010F5F1F4F8111F7CFECECEC
:103A3000F4E003C00E94B12CF80184918F010F5F64
:103A40001F4F8111F7CFE4EBF4E084918F010F5FFA
:103A50001F4F882311F40C945A110E94B12CF801C5
:103A6000F4CF60E080912C0690912D060E94AA99D7
:103A70000C945A1185E40E94882B882381F00E94BF
:103A8000452B882361F0E6E0F1E184918F010F5F1F
:103A90001F4F882321F00E94B12CF801F6CF81E45A
:103AA0000E94882B882381F00E94452B882361F097
:103AB000E8E5F6E084918F010F5F1F4F882321F026
:103AC0000E94B12CF801F6CF00912C0610912D0622
:103AD000D8018D918D01882309F418CD0E94B12C55
:103AE000F7CF0E9465A00C945A1181E080930802E0
:103AF0008093761C0C945A11109208021092761C36
:103B00000C945A1188EC90E00E94742D81110C9451
:103B10005A1184E40E94882B882309F443C00E9430
:103B2000552B6B017C0111E020E030E0A9010E94DF
:103B3000AFCF811101C010E01093771C20E030E07E
:103B4000A901C701B6010E94AFCF882359F10091A6
:103B50002E0610E00E94552B000F111F000F111FA1
:103B6000F801EA55FD4F608371838283938320E0DF
:103B700030E0A9016091A6027091A7028091A8028D
:103B80009091A9020E94AFCF81110CC080E090E01B
:103B9000A0EEBFE38093A6029093A702A093A80291
:103BA000B093A9020E94A26D0C945A117BECE72EEF
:103BB00072E0F72E09E516E1F70181917F010E947D
:103BC000882B882351F00E94552B0E94AED5D80136
:103BD0006D937D938D939C9313970C5F1F4FB6E16C
:103BE00009361B0749F70E9499630C945A110C5F20
:103BF0001F4FB4E108301B0711F40C945A11F70160
:103C000081917F010E94882B882389F30E94552B84
:103C1000D8016D937D938D939C931397E8CF83E5A3
:103C20000E94882B8823D9F00E94552BAB01BC0140
:103C30004093F0135093F1136093F2137093F313C6
:103C40004093EC135093ED136093EE137093EF13C6
:103C500086EB96E00E9433628AE00E94B12C80E5F8
:103C60000E94882B882399F00E94552BAB01BC0140
:103C70004093F0135093F1136093F2137093F31386
:103C800089E996E00E9433628AE00E94B12C82E5C5
:103C90000E94882B882399F00E94552BAB01BC0110
:103CA0004093F4135093F5136093F6137093F71346
:103CB0008AE796E00E9433628AE00E94B12C84E594
:103CC0000E94882B882311F40C945A110E94552BC2
:103CD000AB01BC014093EC135093ED136093EE13D2
:103CE0007093EF138CE596E00E9433628AE00E94A5
:103CF000B12C0C945A1183E50E94882B882351F033
:103D00000E94552B60931014709311148093121419
:103D10009093131484E50E94882B882351F00E940D
:103D2000552B60930C1470930D1480930E14909384
:103D30000F1482E40E94882B882351F00E94112BDB
:103D4000609308147093091480930A1490930B14D1
:103D500088E50E94882B882351F00E94552B6093A0
:103D6000DC137093DD138093DE139093DF1389E5EA
:103D70000E94882B882351F00E94552B6093E013FA
:103D80007093E1138093E2139093E3138AE50E940A
:103D9000882B882351F00E94552B6093E413709375
:103DA000E5138093E6139093E71385E40E94882B34
:103DB000882311F40C945A110E94552B6093E81338
:103DC0007093E9138093EA139093EB130C945A11B8
:103DD0005BECE52E52E0F52E00E010E0F70181915A
:103DE0007F010E94882B882339F00E94552BAB015C
:103DF000BC01C8010E94032A0F5F1F4F0330110549
:103E000069F70E94B62A0E942A7E0C945A11849166
:103E10008F010F5F1F4F882321F00E94B12CF80102
:103E2000F6CF83E50E94882B882321F00E94452B42
:103E300080933302E8E0F7E084918F010F5F1F4F1A
:103E4000882321F00E94B12CF801F6CF8091330233
:103E5000882319F0EEEFF6E002C0E3E0F7E084918A
:103E60008F010F5F1F4F811103C0E6EFF6E004C022
:103E70000E94B12CF801F3CF84918F010F5F1F4F87
:103E8000882321F00E94B12CF801F6CF4091391619
:103E900050913A1660913B1670913C1684EF96E073
:103EA0000E94336240913D1650913E1660913F163C
:103EB0007091401681EF96E00E9433624091411666
:103EC0005091421660914316709144168EEE96E022
:103ED0000E943362E6EEF6E084918F010F5F1F4F80
:103EE000882321F00E94B12CF801F6CF40910F02F7
:103EF00050911002609111027091120284EE96E0CE
:103F00000E94336240911302509114026091150295
:103F10007091160281EE96E00E9433624091170282
:103F2000509118026091190270911A028EED96E07C
:103F30000E9433628AE00E94B12C0C945A1183E5EE
:103F40000E94B72B882311F40C945A110E94212B44
:103F500070938D0260938C020C945A118DED90E059
:103F60000E94742D81110C945A1183E50E94B72B85
:103F7000882311F40C945A1100912E0610E00E942F
:103F8000212B000F111FF801E75FFD4F7183608344
:103F90000C945A1180E50E94882B882311F40C940C
:103FA0005A110E94212BF62EC62ED72E83E50E9491
:103FB000B72B882321F00E94212B8B0102C00FEF29
:103FC0001FEFC8010196039710F00C945A11D7FE09
:103FD00002C00C945A11E8E1F7E080E497E02491E4
:103FE000F21611F40C945A1131968E179F07B9F7F7
:103FF00005C583E50E94B72B882319F00E94212B69
:1040000002C064E071E079A368A380E50E94B72B49
:10401000882339F00E94212B6938F3E17F0730F4BF
:1040200002C068EE73E07A83698304C088E893E194
:104030009A838983BE01605E7F4FCE0101960E9404
:1040400001560C945A1185E40E94B72B811110C0BF
:1040500080E50E94882B882391F00E94552B609365
:10406000BD027093BE028093BF029093C00207C04E
:104070000E94312B882361F3E0EDF0E172C089E406
:104080000E94882B882381F00E94552B2CEA35EC66
:1040900047E25EE30E9415D06093B9027093BA02C2
:1040A0008093BB029093BC0284E40E94882B8823F7
:1040B00081F00E94552B2CEA35EC47E25EE30E942A
:1040C00035D56093C1027093C2028093C30290936E
:1040D000C402E6E0F1E184918F010F5F1F4F882356
:1040E00021F00E94B12CF801F6CF4091BD02509111
:1040F000BE026091BF027091C00288E497E00E9406
:1041000033622CEA35EC47E25EE36091B9027091CC
:10411000BA028091BB029091BC020E9435D5AB01DE
:10412000BC0184E497E00E9433622CEA35EC47E25C
:104130005EE36091C1027091C2028091C3029091CE
:10414000C4020E9415D0AB01BC0180E497E00E943C
:1041500033628AE00E94B12C0C945A110E94B12C57
:10416000F80184918F010F5F1F4F8111F7CF09E78D
:1041700013E0D8018D918D01882309F4C7C90E94ED
:10418000B12CF7CF80E50E94882B882351F00E9444
:10419000552B6093B5027093B6028093B70290934B
:1041A000B80289E40E94882B882381F00E94552B55
:1041B0002CEA35EC47E25EE30E9415D06093B10231
:1041C0007093B2028093B3029093B40284E40E948D
:1041D000882B882381F00E94552B2CEA35EC47E28E
:1041E0005EE30E9435D56093AD027093AE0280937A
:1041F000AF029093B002E6E0F1E184918F010F5F8E
:104200001F4F882321F00E94B12CF801F6CF409176
:10421000B5025091B6026091B7027091B80284E580
:1042200097E00E9433622CEA35EC47E25EE360914E
:10423000B1027091B2028091B3029091B4020E94D7
:1042400035D5AB01BC0180E597E00E9433622CEAD2
:1042500035EC47E25EE36091AD027091AE02809171
:10426000AF029091B0020E9415D0AB01BC018CE46A
:1042700097E00E9433628AE00E94B12C0C945A119C
:1042800083E50E94882B182F882371F00E94552BFC
:104290000E94A7D5709328026093270221E0672B24
:1042A00009F020E02093691680E50E94882B88237E
:1042B00061F02091270230912802232B11F00E94F7
:1042C000452B809369160C945A1111110C945A11B4
:1042D000E6E0F1E184918F010F5F1F4F882321F009
:1042E0000E94B12CF801F6CF80916916882319F04D
:1042F00061E575E002C065E773E08DE697E00E9436
:10430000696260912702709128028CE597E00E9413
:104310005062E8E5F7E084918F010F5F1F4F88231B
:1043200011F40C945A110E94B12CF801F4CF0E94A0
:10433000B9790C945A110E9487AE0C945A1186E5F3
:104340000E94882B882389F08091DB1380FF0DC0A9
:104350000DEA17E0F8018491882329F00F5F1F4FC1
:104360000E94B12CF7CF0E9461C983E50E94882B7F
:10437000182F882319F00E94452B182F83E50E94DF
:10438000882B882319F0812F0E9431298091DB131B
:104390008270F82E111103C0E6E0F1E119C081111D
:1043A000FBCF00ED10E1F8018491811103C00EE80C
:1043B00017E005C00F5F1F4F0E94B12CF4CFF8012A
:1043C0008491882349F30F5F1F4F0E94B12CF7CFD0
:1043D00084918F010F5F1F4F882321F00E94B12C21
:1043E000F801F6CFFF2019F06BE673E002C060E73A
:1043F00073E080E897E00E9469628AE00E94B12C35
:104400000C945A1188E50E94882BD82E89E40E94CA
:10441000882BC82E882319F00E94212B27C0DD206D
:1044200011F10E94552B20916A1630916B16409124
:104430006C1650916D160E94B1D420E030E040E23D
:1044400052E40E94B1D420E030E040E652E40E9401
:10445000B2D425E239E442E15CE30E9415D00E9427
:10446000A7D5633018F0AA24AA9401C0A62E89E526
:104470000E94882BF82E8AE40E94882B182F88230C
:1044800019F00E94212B27C0FF2011F10E94552B0B
:1044900020916E1630916F164091701650917116E2
:1044A0000E94B1D420E030E040E252E40E94B1D456
:1044B00020E030E046E652E40E94B2D425E338E73B
:1044C0004EE05CE30E9415D00E94A7D5633018F03F
:1044D000BB24BA9401C0B62E8AE50E94882BE82E30
:1044E000811105C081E50E94882B082F01C000E0E2
:1044F000C11001C010E0212F30E0D11002C080E0D7
:1045000001C08F2D280F311D2130310521F4E1101C
:104510001DC001111BC0E0EDF0E184918F010F5F20
:104520001F4F811103C0E2EEF7E004C00E94B12CDE
:10453000F801F3CF84918F010F5F1F4F882311F48F
:104540000C945A110E94B12CF801F4CFA7FC02C0C0
:10455000B7FE1BC0E0EDF0E184918F010F5F1F4FAC
:10456000811103C0E3ECF7E004C00E94B12CF80114
:10457000F3CF84918F010F5F1F4F882311F40C94A8
:104580005A110E94B12CF801F4CF0E94552BEA2C4D
:10459000AA0CFF08AB2DBB0CBB0B002391F0F7015D
:1045A000EE0FFF1FEE0DFF1DEA0FFB1FEE0FFF1FAB
:1045B000EE0FFF1FE954FC4E20813181428153816F
:1045C00003C020E030E0A901F701EE0FFF1FEE0D60
:1045D000FF1DEA0FFB1FEE0FFF1FEE0FFF1F8F01E6
:1045E00009541C4E0E94B2D4D8016D937D938D93D3
:1045F0009C9313970C945A11EEEFFBE1FDABECABDF
:104600008AE6882E86E1982E91E9A92E93E1B92EAB
:1046100029E3C22E26E1D22E3FE0232E32E0332EB4
:1046200043E0E42E4AE1F42E00E010E0ACA9BDA97D
:104630008D91BDABACAB882309F486C0F5014080F9
:10464000518062807380D1012D913D914D915C919B
:10465000F60160817181828193810E94B2D420E051
:1046600030E040E05FE30E9415D09B01AC01C30144
:10467000B2010E9435D6181654F4F7018591959130
:10468000A591B4918EAB9FABA8AFB9AF04C01EAAE1
:104690001FAA18AE19AED4012D913D914D915C9198
:1046A000C301B2010E94B1D49B01AC016EA97FA9E4
:1046B00088AD99AD0E94B1D42B013C0120E030E0DF
:1046C00040EA51EC0E9435D687FD0AC020E030E078
:1046D00040EA51E4C301B2010E94AFCF18161CF4A6
:1046E000E0EDF0E109C0B301A201C8010E94032A74
:1046F0002BC00E94B12CF80184918F010F5F1F4FD6
:104700008111F7CFE1E2F8E084918F010F5F1F4F35
:10471000882321F00E94B12CF801F6CF61E083E1FB
:1047200098E00E947D9988E290E09A83898388ECE2
:1047300090E099A388A3BE016F5F7F4FCE01809662
:104740000E9401560C945A110F5F1F4FB4E08B0E5C
:10475000911CE4E0AE0EB11CF4E0CF0ED11C24E0BD
:10476000220E311C84E0E80EF11C0330110509F023
:104770005DCF0E94B62A0E942A7E60E082E098E027
:104780000E947D9983E992E099A388A304E610E052
:104790001A830983BE01605E7F4FCE0101960E949D
:1047A00001568AEB92E099A388A31A830983BE017C
:1047B000605E7F4FCE0101960E9401560C945A1103
:1047C0000E94D1938CEF98E09A83898306E410E0ED
:1047D00019A308A3BE016F5F7F4FCE0180960E9490
:1047E000015684E59BE09A83898319A308A3BE013F
:1047F0006F5F7F4FCE0180960E9401560C945A1134
:104800000E94E2A084E59BE09A83898306E410E09D
:1048100019A308A3BE016F5F7F4FCE0180960E944F
:1048200001568CEF98E09A83898319A308A3BE01EF
:104830006F5F7F4FCE0180960E9401560C945A11F3
:1048400083E50E94882B882311F40C945A110E944E
:10485000452B809315110C945A110E94CC770C941F
:104860005A110E94B12CF80184918F010F5F1F4FE4
:104870008111F7CFEFE3F8E084918F010F5F1F4FB5
:10488000882311F40C945A110E94B12CF801F4CF32
:1048900081E08093AC0210925C1C83E50E94882B1F
:1048A000811104C00E9448B30C945A110E94452BF8
:1048B00081110C945A11F6CFF0903506FF2029F1A2
:1048C000E6E0F1E184918F010F5F1F4F882321F013
:1048D0000E94B12CF801F6CF84E50E94B12C6F2D17
:1048E00070E080E090E04AE00E94072D80E20E94A4
:1048F000B12C09E713E0D8018D918D01882311F4C3
:104900000C94861A0E94B12CF6CF1092FB1BE6E0A5
:10491000F1E184918F010F5F1F4F882321F00E94E6
:10492000B12CF801F6CF6091FB1B70E08EE498E0AB
:104930000E9450628AE00E94B12C0C945A1140915E
:104940002C0650912D06452B39F4AF0141505109E9
:1049500050932D0640932C0640E050E00C94E51156
:104960001092FC1B0C945A1161E0802F0E943CAF06
:104970006E2D802F0E940DAFF12CB701802F0E9469
:1049800078AF0930110511F00C945A11F0921514FA
:10499000E09214140C945A110E9487AE88E50E948C
:1049A000882B882319F05F9A1092F91089E50E94EC
:1049B000882B882319F08A9A1092FA108AE50E94AF
:1049C000882B882351F09FB7F8948091080181606B
:1049D000809308019FBF1092FB1085E40E94882BF2
:1049E000882311F40C945A110E945F660C945A119A
:1049F0000E9487AE0E9461660C945A110E9487AE95
:104A000060E08F2D0E943CAF0F3FBFEF1B0759F4B2
:104A10008F2D0E94DC3D31E020E0892B09F030E051
:104A2000032F122F05C00130110571F401E010E0D1
:104A30008F2D0E94DC3D8017910711F40C945A11C0
:104A400080E00E94DE66F4CF00E010E0F1CFE9964E
:104A50000FB6F894DEBF0FBECDBFDF91CF911F918F
:104A60000F91FF90EF90DF90CF90BF90AF909F900D
:104A70008F907F906F905F904F903F902F90089510
:104A80009091EF10E92FF0E0E35FFE4E80839F5F8F
:104A9000983018F49093EF1002C01092EF108091AC
:104AA00034138F5F8093341308958FB7F8949091E7
:104AB0003F1D20913E1D921759F0E92FF0E0E2547E
:104AC000F34E208130E09F5F9F7790933F1D02C09F
:104AD0002FEF3FEF8FBFC9010895089580E090E068
:104AE00008952F923F924F925F926F927F928F9292
:104AF0009F92AF92BF92CF92DF92EF92FF920F936D
:104B00001F93CF93DF9300D000D0CDB7DEB79A8349
:104B100089830E947BB0E981FA81C680D780E084D6
:104B2000F184C114D104E104F10409F0ACC224857C
:104B3000222309F469C332852150248721E0230F01
:104B400022874585241301C01286E981FA8124E079
:104B5000329FE00DF11D1124C684D784E088F188CE
:104B6000E981FA81C282D382E482F582DC01CB0141
:104B70008C0D9D1DA11DB11D86839783A087B187D4
:104B800084819581892B09F43FC3FFB7FD83F89495
:104B9000E981FA81228033802101612C712C04810A
:104BA000158180913D02853221F08F3F09F068C266
:104BB00005C0E7E7FEE124912E83DAC085E2809309
:104BC0003D02E7E7FEE184918E838F3F09F458C2EE
:104BD000823009F469C030F5882309F44CC0813073
:104BE00009F0C6C01092800010928100809181006F
:104BF0008860809381008091810081608093810032
:104C0000E2E1FDE0E491F0E0EE0FFF1FEB53FF4D1A
:104C100085919491E8E5FDE0E491E0939210E1E064
:104C2000EE8330C19E81943009F482C008F460C0E4
:104C3000953009F09DC010922001109221018091C1
:104C400021018860809321018091210181608093FE
:104C50002101E2E1FDE0E491F0E0EE0FFF1FEB53F4
:104C6000FF4D85919491E8E5FDE0E491E0938F108C
:104C700095E09E8307C114BC15BC84B5826084BDD9
:104C800085B5816085BDE2E1FDE0E491F0E0EE0FE5
:104C9000FF1FEB53FF4D85919491E8E5FDE0E49112
:104CA000E09393101E82ABC21092B0001092B1003C
:104CB0008091B00082608093B0008091B1008160EB
:104CC0008093B100E2E1FDE0E491F0E0EE0FFF1F20
:104CD000EB53FF4D8591949190933D1C80933C1C28
:104CE000E8E5FDE0E491E0933E1CF2E0FE8387C23C
:104CF00010929000109291008091910088608093B2
:104D0000910080919100816080939100E2E1FDE04B
:104D1000E491F0E0EE0FFF1FEB53FF4D859194916E
:104D2000E8E5FDE0E491E093911023E02E83AAC032
:104D30001092A0001092A1008091A1008860809341
:104D4000A1008091A10081608093A100E2E1FDE0DB
:104D5000E491F0E0EE0FFF1FEB53FF4D859194912E
:104D6000E8E5FDE0E491E093901084E08E838AC052
:104D7000EE81E7FD85C161E085E20E943CAF8E8156
:104D80008D7F09F083C04801A12CB12C60E072E155
:104D90008AE790E0A50194010E9476D429833A83A2
:104DA0004B835C8369017A01F1E0CF1AD108E108F5
:104DB000F1082FEFC216D104E104F10409F008F460
:104DC0004EC060E472E48FE090E0A50194010E947F
:104DD00076D469017A0181E0C81AD108E108F108A6
:104DE0009E81923009F5EFEFCE16D104E104F10473
:104DF00009F008F4CBC160E970ED83E090E0A50113
:104E000094010E9476D469017A01F1E0CF1AD108A9
:104E1000E108F1082FEFC216D104E104F10411F00A
:104E200008F041C183E027C08FEFC816D104E10428
:104E3000F104B9F0B0F068E478EE81E090E0A5010B
:104E400094010E9476D469017A0191E0C91AD108CF
:104E5000E108F108EE81EE2309F49AC163C181E013
:104E600001C082E09E81911106C095B5987F892B83
:104E700085BD7AC085E09091B100987F892B8093A1
:104E8000B10072C061E085E20E943CAF4801A12CF4
:104E9000B12C60E072E18AE790E0A50194010E94E4
:104EA00076D469017A01E1E0CE1AD108E108F1086F
:104EB000C114D104F1E0EF06F10488F068E478EE63
:104EC00081E090E0A50194010E9476D469017A0105
:104ED00081E0C81AD108E108F10883E001C081E04F
:104EE0009E81913071F490918100987F892B8093FD
:104EF0008100452846284728D9F52FEF3FEFA90123
:104F000068C0EE81E33071F490919100987F892B15
:104F10008093910045284628472851F52FEF3FEF11
:104F2000A90179C0FE81F43071F49091A100987FBD
:104F3000892B8093A100452846284728C9F42FEFE4
:104F40003FEFA9017AC02E81253071F490912101A3
:104F5000987F892B8093210145284628472841F4D2
:104F60002FEF3FEFA9017BC045284628472869F06D
:104F7000D801AA0FBB1F91010E9431D428EE33E063
:104F800040E050E00E9404D403C02FEF3FEFA9019E
:104F90008E81823081F12CF4882361F08130C9F058
:104FA0006FC09E81943009F448C0ACF1953009F48B
:104FB00056C066C0C7BC2093A4103093A510409380
:104FC000A6105093A71080916E00826080936E00AF
:104FD00057C0D0928900C09288002093A0103093CF
:104FE000A1104093A2105093A31080916F00826093
:104FF00080936F0045C0C092B30020933F1C309354
:10500000401C4093411C5093421C80917000826070
:105010008093700035C0D0929900C0929800209380
:105020009C1030939D1040939E1050939F10809140
:10503000710082608093710023C0D092A900C09259
:10504000A800209398103093991040939A10509391
:105050009B108091720082608093720011C0D09288
:105060002901C09228012093941030939510409309
:105070009610509397108091730082608093730014
:10508000ED81EFBFC1C0DC01CB018C199D09AE09D8
:10509000BF09B7FDB9C04098E981FA81168217822D
:1050A00010861186B1C068E478EE81E090E0A50139
:1050B00094010E9476D469017A01F1E0CF1AD108F7
:1050C000E108F1082FEFC216D104E104F10441F127
:1050D00038F164E274EF80E090E0A50194010E9451
:1050E00076D469017A01F1E0CF1AD108E108F1081C
:1050F0002FEFC216D104E104F10409F008F4BACE8E
:1051000062E17AE780E090E0A50194010E9476D404
:1051100069017A0181E0C81AD108E108F10819C0D3
:1051200084E0A9CE2FEFC216D104E104F10409F006
:1051300008F463C062E17AE780E090E0A5019401A1
:105140000E9476D469017A01F1E0CF1AD108E10812
:10515000F1082FEFC216D104E104F104A9F0A0F088
:1051600089819A81AB81BC812AE0B595A7959795F5
:1051700087952A95D1F76C017D01F1E0CF1AD1080E
:10518000E108F10887E077CE86E075CE82E073CE45
:10519000EFEFCE16D104E104F10469F160F162E1B0
:1051A0007AE780E090E0A50194010E9476D469013D
:1051B0007A0181E0C81AD108E108F1089FEFC91609
:1051C000D104E104F104A9F0A0F089819A81AB81B6
:1051D000BC813AE0B595A795979587953A95D1F713
:1051E0006C017D01E1E0CE1AD108E108F10885E00B
:1051F0003CCE84E03ACE83E038CE84E033CE61E02A
:1052000085E20E943CAFBFCD26960FB6F894DEBF74
:105210000FBECDBFDF91CF911F910F91FF90EF9007
:10522000DF90CF90BF90AF909F908F907F906F90C6
:105230005F904F903F902F90089587EC9EE00E94E2
:10524000DB8021E0892B09F420E0822F089584E699
:105250009FE00E94DB8021E0892B09F420E0822F6F
:1052600008959091DB1391FB222720F98217C9F052
:1052700081110EC049E953E165E973E181E993E1E8
:105280000E9459528091DB138D7F8093DB13089528
:1052900090FFF8CF92609093DB1381E993E10C9437
:1052A000846208958F929F92AF92BF92CF92EF92B5
:1052B000FF920F931F93CF93DF93CDB7DEB72C9759
:1052C0000FB6F894DEBF0FBECDBF4B015C01C0909E
:1052D000FB1BE9E2F6E180859185A285B3854481D7
:1052E0005581668177810081118122813381098313
:1052F0001A832B833C834D835E836F8378878987F2
:105300009A87AB87BC87AE01475F5F4FBE016B5F7B
:105310007F4FCE0101960E9459528501740125E309
:1053200036E1AE01475F5F4FBE016B5F7F4FCE013D
:1053300001960E9442432C960FB6F894DEBF0FBE32
:10534000CDBFDF91CF911F910F91FF90EF90CF9044
:10535000BF90AF909F908F900895CF92DF92EF9281
:10536000FF920F931F93CF93DF93EC01CC0FDD1FC0
:10537000CC0FDD1FFE01EF5FFE4E20E030E0A90103
:1053800060817181828193810E94B2D4FE01E656D0
:10539000F44E20813181428153810E94B2D46B014D
:1053A0007C01FE01E659F94E608371838283938309
:1053B000FE01E45DF54F25913591459154918E01A3
:1053C000075C194E0E94B2D4F80160837183828316
:1053D0009383FE01E85CF54F2591359145915491F9
:1053E000C15FDD4FC701B6010E94B2D468837983E3
:1053F0008A839B83DF91CF911F910F91FF90EF9054
:10540000DF90CF9008958F929F92AF92BF92EF92CC
:10541000FF920F931F93CF93DF938C014A015B019F
:10542000EC01CC0FDD1FCC0FDD1FCE018F569C4E43
:105430007C01CF5FDE4E288139814A815B81C501C5
:10544000B4010E94B1D4F70120813181428153819E
:105450000E94B2D4F7016083718382839383888230
:105460009982AA82BB82C801DF91CF911F910F91CF
:10547000FF90EF90BF90AF909F908F900C94AD29CC
:10548000CF93FC0120812B33A9F0209134132830D5
:1054900088F4C62FBC018091EF10F0E48F9FC0010B
:1054A00011248D5C9E4E0E94F9D78C2F0E944025BE
:1054B00081E001C080E0CF910895DF92EF92FF92EA
:1054C0000F931F93CF93DF93CDB7DEB76E970FB6D1
:1054D000F894DEBF0FBECDBF6091271670912816DD
:1054E0006115710549F14DE150E0CE0101967C0155
:1054F0000E9429CF1E8EF7018F010E191F09D1902E
:10550000DD2019F09AE0D912F7CFF701E00FF11F73
:105510001082C7010E943556882371F0DD20A9F062
:105520000F5F1F4F8091271690912816080F191FA3
:10553000109328160093271681E0209127163091AA
:105540002816232B29F480E003C000E010E0F0CF00
:105550006E960FB6F894DEBF0FBECDBFDF91CF9130
:105560001F910F91FF90EF90DF9008950F931F937D
:10557000CF93DF93CDB7DEB72C970FB6F894DEBF8D
:105580000FBECDBFE1E9F3E180859185A285B385AA
:105590004481558166817781008111812281338127
:1055A00009831A832B833C834D835E836F837887C3
:1055B00089879A87AB87BC87AE01475F5F4FBE0183
:1055C0006B5F7F4FCE0101960E9459522DE933E166
:1055D000AE01475F5F4FBE016B5F7F4FCE0101960B
:1055E0000E94F4632C960FB6F894DEBF0FBECDBFB9
:1055F000DF91CF911F910F91089580E1E1E9F3E1EF
:10560000A9E2B6E101900D928A95E1F7089580E153
:10561000E9E2F6E1A1E9B3E101900D928A95E1F7A3
:10562000089580918D1090918E10009731F04AE08E
:1056300050E060E070E00C94F0CD60E070E0CB01F1
:10564000089580918D1090918E10009731F04AE06E
:1056500050E060E070E00C94C2CC60E070E0CB0100
:1056600008950E94212B97FD0CC00E94212B6F3FB3
:1056700071058105910509F034F40E94212B862FD4
:10568000089580E008958FEF089580918D10909196
:105690008E10892B39F00E94312B91E0811103C0CB
:1056A00090E001C091E0892F08950F931F93CF934D
:1056B00080918D1090918E100097F1F0FC018F0178
:1056C000C1912C2F2F7D89F0C53411F0C536B9F763
:1056D000F801108260E070E00E9466CBF801C083A0
:1056E000562F472F382F292F0BC060E070E0CF9145
:1056F0001F910F910C9466CB50E040E030E020E029
:10570000652F742F832F922FCF911F910F910895A2
:1057100081548A3150F5482F50E0FA0193E0F59515
:10572000E7959A95E1F7E85DF94F208130E08770C1
:1057300002C0359527958A95E2F7822F817020FF68
:1057400015C0FA01E25FF94F9081992339F0209159
:10575000901B3091911B290F311D02C020E030E0D9
:1057600030938E1020938D10089580E008950E944C
:10577000882B882341F081E020918D1030918E108C
:10578000232B09F480E00895FC01238121110C945E
:10579000318808950E947BB06093921B7093931B95
:1057A0008093941B9093951B08952F923F924F9254
:1057B0005F926F927F928F929F92AF92BF92CF92A1
:1057C000DF92EF92FF920F931F93CF93DF93EB0142
:1057D000FC0180809180A280B380C501B40120E8E3
:1057E00031E541E050E00E9404D4C9016DE671E06A
:1057F0000E944ED46B017C01C501B40120E13EE062
:1058000040E050E00E9404D4CA01B90128E130E030
:1058100040E050E00E9404D4362E272E062F172F8A
:105820008CE3482E512C612C712CC501B401A301CD
:1058300092010E9404D4B62EA72ECA01B901A30179
:1058400092010E9404D4CB01C114D104D9F0AF92CB
:10585000BF927F936F932F923F92FF92EF92DF92CE
:10586000CF928BE998E09F938F93DF93CF930E9421
:1058700080CF8DB79EB70E960FB6F8949EBF0FBE21
:105880008DBF5CC0E114F104C9F0AF92BF927F9369
:105890006F932F923F92FF92EF928BE898E09F9345
:1058A0008F93DF93CF930E9480CFEDB7FEB73C96E6
:1058B0000FB6F894FEBF0FBEEDBF40C0012BB9F08C
:1058C000AF92BF927F936F932F923F928FE798E0B2
:1058D0009F938F93DF93CF930E9480CF8DB79EB716
:1058E0000A960FB6F8949EBF0FBE8DBF27C0892BB6
:1058F000A9F0AF92BF927F936F9387E798E09F9351
:105900008F93DF93CF930E9480CFEDB7FEB7389689
:105910000FB6F894FEBF0FBEEDBF10C0AF92BF929E
:1059200083E798E09F938F93DF93CF930E9480CF7C
:105930000F900F900F900F900F900F90DF91CF91DD
:105940001F910F91FF90EF90DF90CF90BF90AF909D
:105950009F908F907F906F905F904F903F902F908F
:1059600008953FB7F89420918B1090918C103FBF11
:10597000291304C09091C00095FD3EC090918B10FA
:105980009F5F977020918C10921325C00FB607FC73
:10599000F9CF2091C00025FFF5CF20918C10E22F88
:1059A000F0E0ED57FF4E30812F5F277020938C1071
:1059B0003093C6002091C00020642093C000309135
:1059C0008B1020918C103213DDCF2091C1002F7DE0
:1059D0002093C100D7CFE0918B10F0E0ED57FF4E40
:1059E00080832FB7F89490938B108091C1008062D0
:1059F0008093C1002FBF08959FB7F8948093C6008D
:105A00008091C00080648093C0009FBF08958F92F2
:105A10009F92AF92BF92EF92FF920F931F93CF93FB
:105A2000DF93CDB7DEB7A0970FB6F894DEBF0FBEF9
:105A3000CDBF611571058105910591F100E0842EBE
:105A4000912CA12CB12C102FEE24E394F12CEC0E10
:105A5000FD1EE00EF11C07FDFA94A50194010E94C1
:105A600004D4F7016083B901CA010F5F61157105A4
:105A70008105910541F71F3F31F1E1E0F0E0EC0FC6
:105A8000FD1FE10FF11D17FDFA9580818A3010F09E
:105A900097E301C090E3890F0E94B12C1150EBCF26
:105AA00080E3A0960FB6F894DEBF0FBECDBFDF91A6
:105AB000CF911F910F91FF90EF90BF90AF909F906B
:105AC0008F900C94B12CA0960FB6F894DEBF0FBE49
:105AD000CDBFDF91CF911F910F91FF90EF90BF90BD
