:100000000C9452120C9483120C9483120C9483124D
:100010000C9483120C9483120C94CE510C94831282
:100020000C9483120C9483120C9483120C948312FC
:100030000C9483120C94EEBB0C9483120C948312D8
:100040000C9483120C94605B0C9483120C948312B6
:100050000C9483120C9483120C944DA70C94A077EB
:100060000C9483120C94BA4B0C94E84B0C948312AE
:100070000C9483120C9483120C9483120C948312AC
:100080000C9483120C9483120C9483120C9483129C
:100090000C9483120C9483120C9483120C9483128C
:1000A0000C9483120C9483120C9483120C9483127C
:1000B0000C9483120C9483120C9483120C9483126C
:1000C0000C9483120C9483120C9483120C94622E61
:1000D0000C94382E0C9483120C9483120C9483127B
:1000E0000C94831218751B750A750E75147552756C
:1000F0001F75237529752D75317537753B753F75DE
:100100005275457549754D75BC76C176C676D07603
:10011000DA765377E476EC76F476FE760877127723
:1001200021772B77537735773F7749776E9FA99F54
:10013000D89F21A051A0F7A06FA061A194A0C4A056
:100140004E414E494E495459494E46CDCCCC3D0ABC
:10015000D7233C17B7D13877CC2B329595E6241F9F
:10016000B14F0A000020410000C84200401C462058
:10017000BCBE4CCA1B0E5AAEC59D7400407A10F32B
:100180005A00A0724E18090010A5D4E80000E876C5
:1001900048170000E40B54020000CA9A3B0000001C
:1001A000E1F505000080969800000040420F000035
:1001B00000A08601000000102700000000E80300F6
:1001C0000000006400000000000A000000000001C0
:1001D00000000000002C76D888DC674F0823DFC1C0
:1001E000DFAE59E1B1B796E5E3E453C63AE651997B
:1001F0007696E8E6C28426EB898C9B62ED407C6FA4
:10020000FCEFBC9C9F40F2BAA56FA5F490055A2A5A
:10021000F75C936B6CF9676DC11BFCE0E40D47FE66
:10022000F520E6B500D0ED902E030094357705005B
:1002300080841E080000204E0A000000C80C3333E2
:1002400033330F986E12831141EF8D2114893BE6F1
:100250005516CFFEE6DB18D1844B381BF77C1D907A
:100260001DA4BBE424203284725E228100C9F124E3
:10027000ECA1E53D27434F4D4D554E49434154496F
:100280004F4E0044525952554E004552524F525310
:1002900000494E464F004543484F00456E64206676
:1002A000696C65206C6973740A00426567696E2029
:1002B00066696C65206C6973740A004D31323500D3
:1002C0005344207072696E74696E67206279746538
:1002D00020004E6F74205344207072696E74696EF2
:1002E000670A005072696E742074696D653A200067
:1002F00050726F7465637465642050696E0A0050B3
:1003000072696E746F2048332B20676F746F77614A
:100310002E00960291028A02830275026F666600C1
:1003200044454255473A0055626974792E20004D84
:100330003131332053006F6B00526F7A67727A61EC
:100340006E6F0020573A005072696E746F20483308
:100350002B20676F746F77612E00526F7A67727A05
:10036000616E6F2073746F6C0020573A00526F7A81
:1003700067727A6577616E69652073746F6C752E2C
:100380002E2E004361703A454D455247454E435924
:100390005F5041525345523A300A004361703A432C
:1003A0004153455F4C494748545F4252494748547E
:1003B0004E4553533A300A004361703A544F474711
:1003C0004C455F4C49474854533A300A00436170EA
:1003D0003A534F4654574152455F504F5745523A52
:1003E000300A004361703A4C4556454C494E475FD0
:1003F000444154413A310A004361703A5A5F5052C5
:100400004F42453A300A004361703A4155544F4CCF
:100410004556454C3A300A004361703A5052494EB5
:10042000545F4A4F423A310A004361703A50524F8A
:1004300047524553533A300A004361703A4155548C
:100440004F5245504F52545F54454D503A310A0077
:100450004361703A454550524F4D3A310A00464982
:10046000524D574152455F4E414D453A4D61726C78
:10047000696E20312E332E312028476974687562E9
:100480002920534F555243455F434F44455F5552D2
:100490004C3A68747470733A2F2F67697468756288
:1004A0002E636F6D2F4D61726C696E4669726D7748
:1004B0006172652F4D61726C696E2050524F544FBE
:1004C000434F4C5F56455253494F4E3A312E3020E0
:1004D0004D414348494E455F545950453A50726921
:1004E0006E746F2048332B20455854525544455262
:1004F0005F434F554E543A3120555549443A636550
:100500006465326132662D343161322D34373438CE
:100510002D396231322D63353563363266333637E5
:1005200066660A002F2F200053657474696E672079
:1005300054726176656C20416363656C65726174A9
:10054000696F6E3A200053657474696E6720526556
:10055000747261637420416363656C657261746970
:100560006F6E3A200053657474696E67205072692B
:100570006E7420416363656C65726174696F6E3A75
:10058000200053657474696E67205072696E742020
:10059000616E642054726176656C20416363656CA2
:1005A00065726174696F6E3A2000205A002059000C
:1005B000580020204D61783A2000205A0020590030
:1005C000580020204D696E3A2000576C2E200057AD
:1005D000796C2E00536F667420656E6473746F704F
:1005E000733A20000001363726FF023C3D380EFFEB
:1005F0002E303EFF13FF0C0809FFFFFF1A1C18FFE7
:10060000FF08440AFF43FFFFFFFFFFFF20643A009B
:1006100020693A0020703A0020643A0020693A00CC
:1006200020703A0043290A0061626C656420286DDD
:10063000696E2074656D702000436F6C642065786E
:100640007472756465732061726520004B642000CC
:1006500023646566696E65202044454641554C54C7
:100660005F004B69200023646566696E6520204445
:10067000454641554C545F004B702000236465662D
:10068000696E65202044454641554C545F005049F1
:100690004420756B6F6E637A6F6E6F005049442013
:1006A0004175746F74756E652066696E69736865EF
:1006B00064212050757420746865206C6173742007
:1006C0004B702C204B6920616E64204B6420636F5B
:1006D0006E7374616E74732066726F6D2062656CE8
:1006E0006F7720696E746F20436F6E6669677572ED
:1006F0006174696F6E2E680A005049442041757418
:100700006F74756E65206661696C6564212074691B
:100710006D656F75740A0050494420626C61643ADB
:10072000206F76657273686F740050494420626C64
:100730006164206B616C69627261636A690050492F
:1007400044204175746F74756E65206661696C65CF
:1007500064212054656D70657261747572652074D2
:100760006F6F20686967680A00204B643A20002098
:100770004B693A2000204B703A20000A20436C61FC
:100780007373696320504944200A002054753A204D
:1007900000204B753A2000206D61783A2000206DD2
:1007A000696E3A200020643A200020626961733A41
:1007B000200050494420726F7A706F637A65746FBD
:1007C00000426564204C6576656C696E6720004662
:1007D00061696C656420746F20656E61626C652070
:1007E000426564204C6576656C696E670A004D65EC
:1007F000736820426564204C6576656C2064617482
:10080000613A0A004D65736820706F696E742063E9
:10081000616E6E6F74206265207265736F6C7665B1
:10082000640A004D34323120696E636F7272656301
:100830007420706172616D65746572207573616793
:10084000650A00506F7A2E207A65726F7761207585
:1008500073742E004572723A20546F6F2066617275
:100860002100546F6F206661722066726F6D207276
:1008700065666572656E636520706F696E740A00E7
:100880004D383132002066697273740A005A00597B
:10089000005800486F6D65200041637469766520DB
:1008A00045787472756465723A2000556E6B6E6F90
:1008B000776E20636F6D6D616E643A202200556221
:1008C0006974792E2000202D20496E76616C696450
:1008D000206578747275646572206E756D626572DC
:1008E00020210A00207765737A6C6F2077203936D3
:1008F00030302C2070726F6261207A6D69616E7980
:10090000206E6120313135200A00206E6965207724
:1009100065737A6C6F207720393630302070726FB3
:1009200062612077656A73636961206E612031318D
:1009300035200A0020636F6E6E6563746564210A5A
:100940000020370020342E330020332E3500203392
:100950002E320020322E34004E657874696F6E009E
:100960004E657874696F6E206E6F7420636F6E6E63
:10097000656374656421004D313137204472756BB5
:100980006F77616E69652E2E004739322045002051
:10099000463330303000204531380020590047318F
:1009A000205800204633303030004731205A004D67
:1009B00038313200204633303030002045313500A8
:1009C00020590047312058004D3233202573002E26
:1009D00067636F004D31393020532564004D31304D
:1009E0003920532564006261627973686966743ADC
:1009F000006166746572686F6D653A006265666F66
:100A000072653A002020506C616E6E6572427566A8
:100A100066657242797465733A2000204672656596
:100A2000204D656D6F72793A2000436F6D70696C6F
:100A300065643A204D617220323720323031390AF4
:100A400000207C20417574686F723A2028507269CA
:100A50006E746F33642E706C2C204A616B7562204B
:100A600053696B6F7261290A00323031392D30338E
:100A70002D323700204C61737420557064617465A9
:100A8000643A2000312E332E310A004D61726C69B8
:100A90006E0020536F6674776172652052657365CE
:100AA000740A00205761746368646F67205265732D
:100AB00065740A002042726F776E206F7574205241
:100AC000657365740A002045787465726E616C20E8
:100AD00052657365740A00506F77657255700A002D
:100AE00073746172740A006572726F722077726932
:100AF00074696E6720746F2066696C650A00205AFD
:100B00003A0020593A0020583A00656E6473746FB9
:100B10007073206869743A2000446F6E65207361B9
:100B200076696E672066696C652E0A004D32390061
:100B30004572726F722077726974696E6720746F84
:100B400020454550524F4D210A00290A0020627964
:100B50007465733B20637263200053657474696E1F
:100B600067732053746F72656420280020286361C6
:100B70006C63756C6174656429210A0020213D2035
:100B800000454550524F4D20435243206D69736DCF
:100B900061746368202D202873746F726564292046
:100BA00000290A002062797465733B206372632018
:100BB000002073746F7265642073657474696E6766
:100BC0007320726574726965766564202800204D13
:100BD00061726C696E3D563339290A0028454550CB
:100BE000524F4D3D00454550524F4D207665727332
:100BF000696F6E206D69736D617463682000486170
:100C00007264636F6465642044656661756C74200A
:100C100053657474696E6773204C6F616465640A10
:100C200000881300008813000064000000282300DF
:100C3000000000964300009643000048420000A0D8
:100C4000420000A0420000A04200004844000020F2
:100C50004320440020490020204D333034205000F0
:100C600020440020490020204D33303120500050D6
:100C700049442073657474696E67733A0A00205A98
:100C800000205900202047323920533320580020BB
:100C9000204D3432302053004D6573682042656426
:100CA000204C6576656C696E673A0A00205A002010
:100CB000590020204D323036205800486F6D652095
:100CC0006F66667365743A0A00204500205A00205A
:100CD000590020580020420020540020204D32307E
:100CE00035205300416476616E6365643A20533C5D
:100CF0006D696E5F66656564726174653E20543C23
:100D00006D696E5F74726176656C5F66656564724D
:100D10006174653E20423C6D696E5F7365676D6509
:100D20006E745F74696D655F6D733E20583C6D61D4
:100D3000785F78795F6A65726B3E205A3C6D6178A6
:100D40005F7A5F6A65726B3E20453C6D61785F65D6
:100D50005F6A65726B3E0A0020540020520020201A
:100D60004D323034205000416363656C65726174AC
:100D7000696F6E2028756E6974732F7332293A205B
:100D8000503C7072696E745F616363656C3E2052A3
:100D90003C726574726163745F616363656C3E206D
:100DA000543C74726176656C5F616363656C3E0A86
:100DB00000204500205A0020590020204D323031BB
:100DC0002058004D6178696D756D20416363656CD5
:100DD00065726174696F6E2028756E6974732F7304
:100DE00032293A0A00204500205A002059002020CC
:100DF0004D3230332058004D6178696D756D206635
:100E000065656472617465732028756E6974732FEB
:100E100073293A0A00204500205A0020590020205A
:100E20004D393220580053746570732070657220FC
:100E3000756E69743A0A0020204D323030204430FB
:100E40000A0020204D323030204400204469736174
:100E5000626C65640A0046696C616D656E7420732E
:100E6000657474696E67733A002020473231202020
:100E700020203B20556E69747320696E206D6D0AC9
:100E80000066696C616D656E743A20007A5F6D6111
:100E9000783A2000795F6D696E3A2000785F6D6165
:100EA000783A20005265706F7274696E6720656EC3
:100EB0006473746F70207374617475730A002569AC
:100EC000730025696D2025697300256968202569EF
:100ED0006D202569730025696420256968202569CE
:100EE0006D202569730025697920256964202569AD
:100EF000682025696D20256973007C3C3E5E2B3D92
:100F00003F2F5B5D3B2C2A225C00506F7765724C53
:100F10006F73732E2E0A0000004D43000000000086
:100F2000004E430000A0420000A0420000F041003B
:100F30000000005761726E696E673A20486F6D69F4
:100F40006E672042756D702044697669736F7220F8
:100F50003C20310A000202080000A0400000A0402E
:100F60000000A04000004D430000524300004E43EB
:100F700001FF014D36303020486F74656E64207477
:100F80006F6F20636F6C6420746F206368616E679D
:100F9000652066696C616D656E740A004E6F204C49
:100FA000696E65204E756D62657220776974682080
:100FB000636865636B73756D2C204C617374204C92
:100FC000696E653A200055626974792E20005A6175
:100FD00074727A796D616E792E20005072696E7428
:100FE00065722073746F7070656420647565207419
:100FF0006F206572726F72732E2046697820746854
:1010000065206572726F7220616E64207573652051
:101010004D39393920746F20726573746172742E82
:10102000202854656D7065726174757265206973EE
:101030002072657365742E20536574206974206175
:10104000667465722072657374617274696E672963
:101050000A004E6F20436865636B73756D20776976
:101060007468206C696E65206E756D6265722C20E7
:101070004C617374204C696E653A20006368656347
:101080006B73756D206D69736D617463682C204C92
:10109000617374204C696E653A20004C696E65205E
:1010A0004E756D626572206973206E6F74204C619D
:1010B0007374204C696E65204E756D6265722B31BC
:1010C0002C204C617374204C696E653A20004D31C0
:1010D0003130004D3331004D383420582059205ADA
:1010E00020450053442072656164206572726F72FE
:1010F0000A00446F6E65207072696E74696E6720B5
:1011000066696C650A0020496E76616C69642065C9
:1011100078747275646572200000000000000000A1
:10112000000000000000004D430000524300004E4C
:101130004324F4D43050C38E20C2A24017828B7057
:1011400011127A910D816CD90AA861E108C758661D
:1011500007615143061E4B5D05C145A7041A4111A5
:1011600004093D9803713931034036DB0265339140
:1011700002D4305402802E1D02632CEE01752AC564
:1011800001B028A001102781018F2564012B244B79
:1011900001E0223401AC211F018D200D01801FFCD4
:1011A00000841EED00971DDF00B81CD200E61BC6B0
:1011B00000201BBC00641AB200B219A8000A19A0D2
:1011C000006A189900D117910040178B00B516845A
:1011D0000031167E00B31579003A157300C7146FFD
:1011E0000058146A00EE1366008813630025135E2E
:1011F00000C7125B006C12570015125400C1115148
:101200000070114F0021114B00D61049008D10477E
:10121000004610440002104200C00F4000800F3E04
:1012200000420F3C00060F3B00CB0E3800930E37F8
:10123000005C0E3500270E3400F30D3200C10D3175
:1012400000900D3000600D2E00320D2D00050D2C8C
:1012500000D90C2B00AE0C2900850C29005C0C2752
:1012600000350C27000E0C2600E80B2400C40B24CC
:1012700000A00B23007D0B23005A0B2100390B210A
:1012800000180B2000F80A1F00D90A1E00BB0A1E16
:10129000009D0A1D00800A1D00630A1C00470A1BEE
:1012A000002C0A1B00110A1A00F7091A00DD09199F
:1012B00000C4091900AB091900920917007B09182D
:1012C00000630917004C091600360916002009169C
:1012D000000A091500F5081500E0081400CC0814F0
:1012E00000B8081400A4081400900813007D081228
:1012F000006B081300580812004608120034081149
:1013000000230811001208110001081100F0071055
:1013100000E0071000D0071000C0071000B0070F52
:1013200000A107100091070E0083070F0074070F3C
:101330000065070E0057070E0049070E003B070D1A
:10134000002E070E0020070D0013070D0006070DE5
:1013500000F9060C00ED060D00E0060C00D4060CAA
:1013600000C8060C00BC060C00B0060C00A4060B5E
:101370000099060C008D060B0082060B0077060B09
:10138000006C060B0061060A0057060B004C060AAB
:101390000042060A0038060A002E060A0024060A41
:1013A000001A060A001006090007060A00FD0509D2
:1013B00000F4050900EB050900E2050900D905095B
:1013C00000D0050900C7050900BE050900B50508DC
:1013D00000AD050800A50509009C05080094050856
:1013E000008C050800840508007C050800740508C9
:1013F000006C050700650508005D05070056050837
:10140000004E05070047050700400508003805079E
:1014100000310507002A050700230507001C050603
:1014200000160507000F050700080506000205075E
:1014300000FB040600F5040700EE040600E80406BD
:1014400000E2040700DB040600D5040600CF040612
:1014500000C9040600C3040600BD040600B7040664
:1014600000B1040500AC040600A6040600A00405B3
:10147000009B04060095040500900406008A0405FC
:101480000085040500800406007A04050075040543
:1014900000700405006B0405006604050061040586
:1014A000005C04050057040500520405004D0405C6
:1014B0000048040500430405003E0404003A040506
:1014C0000035040500300404002C04050027040442
:1014D00000230405001E0404001A04040016040579
:1014E00000110404000D04040009040500040404B0
:1014F0000000040400FC030400F8030400F40304E7
:1015000000F0030400EC030400E8030400E4030417
:1015100000E0030400DC030400D8030400D4030447
:1015200000D0030400CC030400C8030300C5030378
:101530000024F404D9201BC40C5C0E9804C4095F79
:101540000265077101F405F900FB04B30048048744
:1015500000C10369005803550003034500BE023A69
:10156000008402310053022A0029022500040220CF
:1015700000E4011C00C8011900AF01170098011414
:101580000084011300710110006101100051010E6F
:101590000043010D0036010B002B010B0020010B55
:1015A00000150109000C01090003010800FB0008F7
:1015B00000F3000800EB000700E4000600DE000670
:1015C00000D8000600D2000600CC000500C70005C8
:1015D00000C2000500BD000400B9000400B500040D
:1015E00000B1000400AD000400A9000400A5000340
:1015F00000A20003009F0004009B0003009800036A
:10160000009500020093000300900003008D00028B
:10161000008B0003008800020086000200840003A3
:1016200000810002007F0002007D0002007B0002BA
:1016300000790002007700010076000200740002C9
:101640000072000100710002006F0002006D0001D5
:10165000006C0002006A00010069000200670001DE
:1016600000660001006500010064000200620001E4
:101670000061000100600001005F0002005D0001E8
:10168000005C0001005B0001005A000100590001EC
:1016900000580001005700010056000100550001EC
:1016A00000540001005300000053000100520001EB
:1016B0000051000100500001004F0001004E0000E9
:1016C000004E0001004D0001004C0001004B0000E5
:1016D000004B0001004A00010049000100480000E1
:1016E00000480001004700010046000000460001DC
:1016F00000450000004500010044000100430000D7
:1017000000430001004200000042000100410000CF
:101710000041000100400001003F0000003F0001C7
:10172000003E0000003E0001003D0000003D0001C1
:10173000003C0000003C0000003C0001003B0000B9
:10174000003B0001003A0000003A000100390000AF
:1017500000390001003800000038000000380001A6
:10176000003700000037000100360000003600009E
:101770000036000100350000003500000035000192
:101780000034000000340000003400010033000089
:10179000003300000033000100320000003200007E
:1017A0000032000100310000003100000031000172
:1017B000003000000030000000300001002F000069
:1017C000002F0000002F0000002F0001002E00005D
:1017D000002E0000002E0001002D0000002D000052
:1017E000002D0000002D0001002C0000002C000046
:1017F000002C0000002C0001002B0000002B00003A
:10180000002B0000002B0001002A0000002A00002D
:10181000002A0000002A0001002900000029000021
:101820000029000000290000002900010028000014
:101830000028000000280000002800000028000107
:1018400000270000002700000027000000270000FC
:1018500000270001002600000026000000260000EE
:1018600000260000002600010025000000250000E1
:1018700000250000002500000025000000250001D3
:1018800000240000002400000024000000240000C8
:1018900000240001002300000023000000230000BA
:1018A00000230000002300000023000000230001AB
:1018B00000220000002200000022000000220000A0
:1018C0000022000000220001002100000021000091
:1018D0000021000000210000002100000021000084
:1018E0000021000100200000002000000020000076
:1018F0000020000000200000002000000020000068
:1019000000200001001F0000001F0000001F000059
:10191000001F0000001F0000001F0000001F00014A
:10192000001E0000001E0000001E0000001E00003F
:10193000004D383420582059205A204500577964EA
:1019400072756B20777374727A796D616E79004D60
:1019500031323500577A6E6F7769656E6965004D73
:101960003234004E69650054616B00437A79207708
:101970007A6E6F7769632077796472756B3F005771
:10198000796B7279746F207A616E696B206E617009
:10199000696563696100706F207A616E696B75209B
:1019A0007A6173696C616E696100577A6E617769FB
:1019B000616E69652077796472756B750042617A32
:1019C0006F77616E6965206F736900706F207A614F
:1019D0006E696B75207A6173696C616E696100551F
:1019E00072756368616D69616E69650047323800C0
:1019F00061627920777A6E6F776963207779647294
:101A0000756B0066696C616D656E74752069206B1D
:101A10006C696B6E696A005573756E206E61646DDA
:101A20006961720000577A6E617769616E6965203D
:101A300077796472756B75004732392053320070C4
:101A4000726F626573656E643A0A004E49450054D0
:101A5000414B0054414B004D2042204C003230316C
:101A6000392D30332D323700312E332E3100256C95
:101A7000642E25696D00557370696A2E2E2E002024
:101A80006E6F7420656E74657265642E0A000A4D6F
:101A90006561737572656420706F696E74733A0A5C
:101AA000005A206F66667365743A20004E756D208B
:101AB000582C593A20322C320A004D35303000591A
:101AC000206F7574206F662072616E676520283103
:101AD0002D32292E0A0058206F7574206F662072EF
:101AE000616E67652028312D32292E0A004D6573FD
:101AF000682070726F62696E6720646F6E652E0A6F
:101B0000005374617274206D6573682070726F6227
:101B1000696E672077697468202247323920533113
:101B2000222066697273742E0A004732380A4732DF
:101B3000392053320053746174653A20004D657347
:101B40006820626564206C6576656C696E672068E4
:101B50006173206E6F20646174612E0A0053206FE0
:101B60007574206F662072616E67652028302D3590
:101B7000292E0A004D65736820706F696E742063AA
:101B8000616E6E6F74206265207265736F6C76652E
:101B9000640A004F637A656B6977616E69652E2E02
:101BA0002E004D30004272616B20727563687500C3
:101BB0004B61727461207573756E69657461004B59
:101BC0006172746120776C6F7A6F6E610073645F0D
:101BD0007374617475733A66616C73650A0073643B
:101BE0005F7374617475733A747275650A007A6D07
:101BF00069616E61207364206465743A0A00202F65
:101C0000200000002100240027002A002D003000C1
:101C1000330001010000040107010A010000220055
:101C2000250028002B002E003100340002010000A6
:101C3000050108010B0100002000230026002900F7
:101C40002C002F00320000010000030106010901F1
:101C500005050505070508080808020202020A0A28
:101C60000808040404040101010101010101030346
:101C7000030303030303040707070C0C0C0C0C0CF1
:101C80000C0C0202020206060606060606060B0BEE
:101C90000B0B0B0B0B0B010210202008081020402F
:101CA0001020408002010201080402010102040820
:101CB00010204080804020100804020180040201AE
:101CC00080402010080402010804020101020408F7
:101CD00010204080010204081020408000000A0B00
:101CE00002090C0D0E0807030401000000000000AB
:101CF00000000000000000000000000000000000E4
:101D000000000000000000001211100000000000A0
:101D100000000000000000000000000000000000C3
:101D2000000046696C652064656C657465643A0002
:101D300044656C6574696F6E206661696C65642CBE
:101D40002046696C653A20006F70656E2066616997
:101D50006C65642C2046696C653A20006D0046690C
:101D60006C616D656E7420757365643A2000537400
:101D70006174733A20002C204C6F6E676573742079
:101D80006A6F623A2000546F74616C2074696D65EB
:101D90003A200053746174733A20002C2046616924
:101DA0006C65643A20002C2046696E69736865642E
:101DB0003A20005072696E74733A20005374617453
:101DC000733A2000202F002042403A0020403A0081
:101DD000205A3A0020423A0020436F756E74204129
:101DE0003A0020453A00205A3A0020593A00583A21
:101DF000004E6F2063617365206C696768740A0028
:101E000020636F6C6420657874727573696F6E20DF
:101E100070726576656E7465640A0043616E6E6FFC
:101E20007420656E746572207375626469723A20FD
:101E30000025756420253032753A253032750053FF
:101E4000442063617264206F6B0A006F70656E528C
:101E50006F6F74206661696C65640A00766F6C75DB
:101E60006D652E696E6974206661696C65640A002F
:101E7000534420696E6974206661696C0A0061755B
:101E8000746F25692E67004D3234004D32332025A2
:101E900073005A616E696B2074656D702E00546812
:101EA00065726D616C2052756E6177617900577251
:101EB0006974696E6720746F2066696C653A2000EA
:101EC0006F70656E206661696C65642C2046696C74
:101ED000653A20006F70656E206661696C65642CE0
:101EE0002046696C653A200046696C652073656C14
:101EF00065637465640A002053697A653A20004678
:101F0000696C65206F70656E65643A20006F70655E
:101F10006E206661696C65642C2046696C653A20A8
:101F2000002066696C653A20004E6F772000222001
:101F3000706F73002220706172656E743A220053D4
:101F40005542524F5554494E452043414C4C207404
:101F500061726765743A220055626974792E2000B7
:101F6000747279696E6720746F2063616C6C207382
:101F700075622D67636F64652066696C6573207791
:101F800069746820746F6F206D616E79206C65765E
:101F9000656C732E204D4158206C6576656C206908
:101FA000733A004572726F723A00526573656E64DF
:101FB0003A20006F6B0020636F6C64206578747248
:101FC0007573696F6E2070726576656E7465640AEC
:101FD00000627573793A2070617573656420666F6D
:101FE0007220696E7075740A00627573793A207098
:101FF000617573656420666F7220757365720A007F
:10200000627573793A2070726F63657373696E6776
:102010000A004D3630300055626974792E20004B2D
:10202000494C4C20636175736564206279204B498B
:102030004C4C20627574746F6E2F70696E0A005577
:10204000626974792E20004B494C4C206361757392
:10205000656420627920746F6F206D7563682069F4
:102060006E6163746976652074696D65202D2063E7
:10207000757272656E7420636F6D6D616E643A2067
:10208000005072696E7465722068616C7465642EAC
:10209000206B696C6C28292063616C6C6564210A73
:1020A00000456B7374727564756A20776965636542
:1020B0006A00577A6E6F77206472756B6F77616E06
:1020C0006965005779626965727A206F70636A6525
:1020D0000050726F737A6520637A656B616300529A
:1020E0006F7A67727A6577616E6965206479737A51
:1020F000790057796D69616E612066696C616D6503
:102100006E74750061627920726F7A67727A6163AA
:10211000206479737A6500576369736E696A207009
:10212000727A796369736B0057796D69616E6120AA
:1021300066696C616D656E74750077796472756B34
:1021400075005472776120777A6E617769616E6984
:1021500065006E6F7765676F206D61746572696188
:102160006C75005472776120656B737472757A6A4E
:10217000610066696C616D656E747520646F2067BF
:102180006C6F776963790054727761207770726F32
:102190007761647A616E69650057796D69616E6116
:1021A0002066696C616D656E747500616279206B83
:1021B0006F6E74796E756F7761632E2E2E006920B5
:1021C0006E616369736E696A2070727A796369738C
:1021D0006B00576C6F7A2066696C616D656E740078
:1021E00057796D69616E612066696C616D656E74A9
:1021F000750066696C616D656E7475207A20676C18
:102200006F77696379005472776120777973757796
:10221000616E69650057796D69616E612066696CF0
:10222000616D656E7475007A6D69616E792066699D
:102230006C616D656E7475005472776120726F7A8F
:10224000706F637A796E616E69650057796D696147
:102250006E612066696C616D656E74750070012C2D
:102260000190012701B0012201C0011D01F00118F8
:10227000011002130130020E0160020901900204F4
:1022800001C002FF000003FA004003F5008003F0E4
:1022900000D003EB002004E6007004E100E004DC61
:1022A000004005D700C005D2004006CD00D006C8CA
:1022B000008007C3003008BE00F008B900C009B4B0
:1022C00000B00AAF00B00BAA00D00CA500000EA011
:1022D00000500F9B00C01096005012910000148C0B
:1022E00000C0158700B0178200B0197D00D01B78A0
:1022F00000001E730040206E0090226900F02464EC
:102300000040275F0090295A00E02B5500102E5006
:102310000020304B0010324600E033410090353C45
:10232000001037370070383200A0392D00B03A283D
:1023300000A03B2300603C1E00103D1900903D149E
:1023400000103E0F00703E0A00C03E0500003F0036
:1023500000403FFBFF803FF6FFC03FF1FF45727238
:10236000206D696E2074656D702073746F6C7500DC
:10237000457272206D696E2074656D70004D494E16
:1023800054454D50207472696767657265640045F5
:102390007272206D61782074656D702073746F6C3B
:1023A0007500457272206D61782074656D70004D06
:1023B000415854454D502074726967676572656471
:1023C000007A61706973616E65007A616C61646F37
:1023D00077616E650054656D702E206D696E3A20D0
:1023E000313730006B6F6E74796E756F7761630093
:1023F000726F7A67727A656A2061627900476C6FE2
:1024000077696361206A657374207A696D6E612CE7
:10241000004D3630302042300047393000473931E6
:10242000004D3834004472756B2070727A65727793
:10243000616E79006265640A002C2073797374659B
:102440006D2073746F7070656421204865617465D8
:10245000725F49443A2000526F7A67727A2E206E7A
:1024600069657564616E650048656174696E6720B1
:102470006661696C65640043616E6E6F74206F7095
:10248000656E207375626469722000656E71756592
:102490007565696E672022006563686F3A00020007
:1024A0008DBCD7D711241FBECFEFD1E2DEBFCDBF89
:1024B00000E00CBF16E0A0E0B2E0EAE5F1ED01E0DB
:1024C0000BBF02C007900D92A83AB107D9F72EE1D1
:1024D000A8EAB6E001C01D92A135B207E1F712E10A
:1024E000C1E5D2E100E006C021970109802FFE017D
:1024F0000E9414E7C035D10780E00807A9F70E94C1
:102500001ECD0C949CE80C9400002F923F924F92A9
:102510005F926F927F928F929F92AF92BF92CF9273
:10252000DF92EF92FF920F931F93CF93DF93CDB77C
:10253000DEB7C357D1090FB6F894DEBF0FBECDBFCB
:102540000091AA1320E4029F8001112406551E4E1B
:102550008091C71B80FF1AC0E8E9F4E284917F01F3
:102560003FEFE31AF30A811102C0780104C00E9410
:10257000584AF701F3CFD7018D917D01882319F0D7
:102580000E94584AF8CF8AE00E94584A81E090E0C1
:1025900090937711809376111092C7061092C60619
:1025A0008FE38093CD061092CC061092CB0610924A
:1025B000C2061092C3061092C4061092C506F80116
:1025C00080810F5F1F4F8032D1F38E34B1F481814F
:1025D00090ED980F9A3020F08D3211F08B3269F423
:1025E0003296DF0131962C9120532A30D0F3CD0161
:1025F000FC01019620812032D9F3F093A41AE093D4
:10260000A31A7F01BFEFEB1AFB0A10816AE270E0A8
:10261000C7010E944AE8009731F0FC0131978081A0
:102620008032E1F311821D3429F0143519F017348A
:1026300009F0CDC0F70180812FEFE21AF20A803253
:10264000C9F380538A3008F0C2C01093CD062091A0
:10265000CB063091CC064AE03196429FC001439FA1
:10266000900D1124DF0111972C91022E000C330BD9
:1026700020533109280F391F808180538A3060F33D
:102680003093CC062093CB06DF0131968C918032BB
:10269000D9F31D34D1F42E31310591F03CF42731BA
:1026A000310571F02C31310581F40AC0253731052F
:1026B00064F02737310524F0203A43E0340729F449
:1026C000B093C706A093C60682C01092C7061092A8
:1026D000C6060091A31A61E070E0CD0101964C910D
:1026E000442309F474C0413299F41D3489F4203232
:1026F000310571F49093C7068093C60663E270E0DB
:102700000E944AE8009709F462C0DC011C925FC095
:10271000FFEBDF2ED40EE9E1ED15C0F1FC01BE2F79
:10272000AF2F51915032D9F38B2F9A2FE0EDE50F57
:10273000EA3040F0E3EDE50FE23020F05B3211F0DB
:102740000C94CF27DC01AD2CB12C7501E3E0F5949E
:10275000E794EA95E1F7A7014E53594F7A014D2DC1
:102760004770FB0102C0EE0FFF1F4A95E2F7AF0171
:10277000F7015081452B4083109711F0A01B01C039
:10278000A0E0F501E855F94FA0830AC04091C606C4
:102790005091C706452B21F4B093C706A093C606F7
:1027A000DC014C9141544A3110F4DC0196CFFC011C
:1027B000DF0131969C9190539A30D0F3AD01CA015C
:1027C0004F5F5F4FDC01EC91E032C9F3EECF8091B7
:1027D000CD068D3409F45EC1843511F40C946C2758
:1027E000873411F00C94AE278091CB069091CC06E3
:1027F0008D31910509F4CDC094F48430910509F42C
:10280000C4C024F4029710F10C94C8274C9711F01F
:102810000C94C82780E00E940F710C94C8278A3559
:10282000910509F4BAC044F48A9711F00C94C827B2
:102830000E94A26E0C94C8278B35910509F4B1C093
:102840008C35910509F4B2C00C94C8278091B90267
:10285000882311F40C94C82738E6C32E3BE1D32E0D
:1028600048E4E42E4BE1F42E59E6A52E51E1B52EB5
:1028700009ED12E064E0962E900EF80181918F012F
:102880000E94875A8823E1F00E94545AD5012C9166
:10289000211104C02091CA06222331F0F7012081C2
:1028A00031814281538103C020E030E0A9010E94C0
:1028B000ECE4D6016D937D938D939C9313970AC09E
:1028C000F70180819181A281B381F6018083918398
:1028D000A283B383F4E0CF0ED11C24E0E20EF11CFE
:1028E0003FEFA31AB30A9012C8CF86E40E94B65AEB
:1028F0008823C9F00E94545A20E030E0A9010E94C8
:102900004FE6181684F40E94545A20E030E040E765
:1029100052E40E9463E560930F027093100280936B
:102920001102909312028091C71B83FD2AC020914F
:10293000541B3091551B4091561B5091571B609171
:10294000741B7091751B8091761B9091771B0E9470
:10295000EBE49B01AC0180917C0D882391F06091A8
:102960006E0D70916F0D8091700D9091710D0E94A0
:10297000ECE460936E0D70936F0D8093700D9093E7
:10298000710D0E94799C0C94C8270E940A700C94C7
:10299000C8270E94DD710C94C8271092CA060C94B7
:1029A000C82781E08093CA060C94C82785E40E945A
:1029B000B65A982E811102C00E947CB589EDA82ECE
:1029C00082E0B82E98E4C92E9BE1D92E27EBE22EA7
:1029D00023E1F22E00E010E0812CD5018D915D0104
:1029E0000E94B65A8823F1F1F6012081318142819B
:1029F0005381E1962FAFE197E2963FAFE297E396DE
:102A00004FAFE397E4965FAFE4970E94545AD60124
:102A10006D937D938D939C931397E1962FADE197E2
:102A2000E2963FADE297E3964FADE397E4965FAD54
:102A3000E49703301105B1F00E94EBE49B01AC0177
:102A4000F70160817181828193810E94ECE4D7015A
:102A50006D937D938D939C931397C8010E94FC55B1
:102A6000882483940F5F1F4FB4E0CB0ED11CE4E0A9
:102A7000EE0EF11C0430110509F0AFCF882019F0DB
:102A80000E94B95903C091100E94C69E0E94B97B52
:102A90000C94C8278091CB069091CC068537910580
:102AA00009F4BFC50CF0CCC08D34910509F401C305
:102AB0000CF061C08931910509F42EC24CF58431C6
:102AC000910509F4CAC194F48131910509F4C1C199
:102AD00044F4029710F00C94C8270E940C6E0C94DA
:102AE000C827429709F4FFC40C94C8278631910582
:102AF00009F408C20CF402C28731910509F408C236
:102B0000489711F00C94C8270E94F56C0C94C827C4
:102B10008F31910509F45EC294F48B31910509F46B
:102B20000FC20CF409C28C31910509F445C24E97CD
:102B300011F00C94C8270E94BB7F0C94C8278A32DE
:102B4000910509F473C244F4809711F00C94C827DE
:102B50000E94767F0C94C8278B34910509F4A5C296
:102B60008C34910511F00C94C82784E59DE00E94F7
:102B70001CB40C94C8278A36910509F423C4CCF5FB
:102B80008435910509F4AFC4E4F48135910509F465
:102B9000A2C44CF48E34910511F00C94C8270E9405
:102BA000437E0C94C8278235910509F498C4833577
:102BB000910511F00C94C82781E080936C110C945E
:102BC000C8278C35910509F492C44CF485359105DC
:102BD00011F00C94C8270E94167D0C94C8278836E3
:102BE000910509F46AC28936910509F469C30C9408
:102BF000C8278F36910509F4A7C284F48C36910555
:102C000009F40EC30CF4E2C38D36910509F4A0C398
:102C10008E36910509F485C20C94C8278137910539
:102C200009F406C30CF400C38237910509F463C4A8
:102C30008337910511F00C94C827EEE5F4E061C4E8
:102C40008D32F1E09F0709F4E9C70CF07AC0893CA6
:102C5000910509F47BC57CF58D37910509F4C8C34E
:102C6000ACF48737910509F41CC50CF4E3C488372C
:102C7000910509F41AC58937910511F00C94C827FC
:102C8000109206021092C8060C94C8278B39910541
:102C900009F433C334F48C38910509F4F5C20C946B
:102CA000C8278E3B910509F471C3883C910509F44E
:102CB00003C50C94C827833D910509F492C664F5B9
:102CC0008C3C910509F47AC57CF48B3C910511F09C
:102CD0000C94C82748E5E42E4AE1F42E09ED12E0F1
:102CE00054E0D52ED00E5BC58D3C910509F4D2C5BC
:102CF0008E3C910511F00C94C82799EDA92E92E015
:102D0000B92E28E4C22E2BE1D22E38E7E32E31E192
:102D1000F32E00E010E02BC68D3D910509F409C7A4
:102D200034F48C3D910509F4F5C60C94C827823E15
:102D3000910509F41AC78C32914009F445C70C94E7
:102D4000C827843F41E0940711F40C943E250CF011
:102D500049C08039A1E09A0711F40C940823BCF40F
:102D60008F32E1E09E0711F40C94821F14F40C944E
:102D70002B1F803321E0920709F4EFC7833691407F
:102D800011F00C94C8270E946F7B0C94C827843ADA
:102D900041E0940711F40C940B234CF48A399140D0
:102DA00011F00C94C8270E948A7B0C94C827853A9E
:102DB000B1E09B0711F40C9470238C3A914011F010
:102DC0000C94C82798E7C92E91E1D92E28E4E22E69
:102DD0002BE1F22E31ED232E3BE1332E00E010E00B
:102DE0000C9462248835F2E09F0711F40C94E525D9
:102DF000B4F4863F31E0930711F40C947C2514F46D
:102E00000C945D25873F51E0950711F40C949B25A8
:102E10008C31924011F40C94DA250C94C8278C3232
:102E2000B3E09B0711F40C94A9253CF48B3293403A
:102E300011F00C94C8270E94ED4F803A23E09207CE
:102E400009F4C4C0873E934011F40C945A270C94A3
:102E5000C8270E94FB6D0C94C827E8E9F4E284912E
:102E60008F010F5F1F4F882321F00E94584AF801FD
:102E7000F6CFEAEAF2E084918F010F5F1F4F8823BB
:102E800021F00E94584AF801F6CF109206101092D5
:102E9000051040E050E0BA0180EB9DE00E94FE3E4C
:102EA0008BE1E0EBFDE0DE01159601900D928A9535
:102EB000E1F78091AE0D9091AF0D9C838B8387EEEF
:102EC00092E09A83898340E050E0BE016F5F7F4FBC
:102ED0008DE793E00E941AB8CE0101960E94943DBE
:102EE000EBE9F2E084918F010F5F1F4F882311F40B
:102EF0000C94C8270E94584AF801F4CF0E94F79416
:102F00000C94C82710927F0D1092800D0C94C82746
:102F10000E94256D0C94C82710927F0D84E59DE0DA
:102F20000E941CB48BEB92E090938E1A80938D1AC2
:102F30000E9470560C94C8270E94DB6C0C94C82722
:102F40008091800D882351F1E0ECF2E084918F01B3
:102F50000F5F1F4F882321F00E94584AF801F6CFD7
:102F60006091FC0F7091FD0F8091FE0F9091FF0F0B
:102F70004AE00E94B14A8FE20E94584A6091F80FDD
:102F80007091F90F8091FA0F9091FB0F4AE00E9427
:102F9000B14A8AE00E94584A0C94C827E2EDF2E058
:102FA00084918F010F5F1F4F882311F40C94C82761
:102FB0000E94584AF801F4CF40E060E08091C606D4
:102FC0009091C7060E94CD900C94C8270E946B7FF9
:102FD0000C94C82784E59DE00E94EFB368A379A311
:102FE0008AA39BA3BE016F5F7F4FCE0180960E9494
:102FF000782D60E0CE0101960E941778E8E9F4E2AE
:1030000084918F010F5F1F4F882321F00E94584A3F
:10301000F801F6CFBE016F5F7F4F83EE92E00E9412
:1030200062628AE00E94584A0C94C82783E50E9495
:10303000B65A882311F40C94C8270E94345AE82EFB
:1030400080E50E94B65A882339F00E94245A8B01E9
:1030500077FF04C00C94C8270DE010E0902FE4EE39
:10306000F5E088E28E0F2491921729F031968E13A5
:10307000FACF0C94DF27E3EAFFE184918F010F5F21
:103080001F4F882321F00E94584AF801F6CFE0EF45
:10309000F2E084918F010F5F1F4F882311F40C948D
:1030A000C8270E94584AF801F4CF0E94699E0C94E8
:1030B000C8270E940EB70C94C82788E690E00E94AB
:1030C000C25A81110C94C8278091C71B83FF02C08C
:1030D0000C94C82783E50E94B65A8823F1F00E9419
:1030E000545A0E94CBE57093701160936F1180E089
:1030F0000E946AB10E94545A20E030E04AEA52E449
:103100000E9419DE18163CF00E940EB760E08FEFA7
:1031100092E00E94EA770E94545A0E941FD80C94B1
:10312000C8278EE40E94B65A882311F40C94C8274D
:103130000E94245A6093991A70939A1A80939B1A4A
:1031400090939C1A0C94C82783E50E94B65A882352
:1031500019F00E94345A01C080E08093C71BE8E94F
:10316000F4E284918F010F5F1F4F882321F00E94AA
:10317000584AF801F6CFE0E2F3E084918F010F5F47
:103180001F4F882321F00E94584AF801F6CF809102
:10319000C71B8823A1F102E1C02E03E0D02EE12C51
:1031A000F12C20E08091C71B90E00E2C02C0959579
:1031B00087950A94E2F780FF17C0BB24B394B20E40
:1031C000222319F08CE20E94584AF601259134918D
:1031D000F901849189010F5F1F4F882321F00E941C
:1031E000584A9801F5CF2B2DFFEFEF1AFF0A32E076
:1031F000C30ED11C45E0E416F104A1F60CC0ECE1CD
:10320000F3E084918F010F5F1F4F882321F00E940C
:10321000584AF801F6CF8AE00E94584A0C94C82711
:1032200010925C020C94C82787E293E00E942398D6
:1032300083E50E94B65A882369F00E94345A80932D
:1032400045028D3310F40C94C8278CE3809345021B
:103250000C94C827E8E9F4E284918F010F5F1F4FB7
:10326000882321F00E94584AF801F6CF4091450288
:1032700050E060E070E08FE293E00E94F2618AE04B
:103280000E94584A0C94C8278091C71B83FF02C034
:103290000C94C82783E50E94B65A882311F40C9435
:1032A000C8270E94545A0E94CBE56739710514F073
:1032B00066E970E070936E1160936D110C94C827ED
:1032C00089E690E00E94C25A811111C0E6E3F3E062
:1032D00084918F010F5F1F4F882321F00E94584A6D
:1032E000F801F6CF0E94B77D8AE00E94584A1092FA
:1032F0007711109276110C94822C83E50E94B65AB5
:10330000882311F40C94C8270E94345A8093A21A7F
:103310008D3318F08CE38093A21A0E9494776B018E
:103320007C012091A21A30E0A8EEB3E00E94DCE418
:10333000DC01CB018C0D9D1DAE1DBF1D80939E1A1F
:1033400090939F1AA093A01AB093A11A0C94C82727
:103350008DE690E00E94C25A81110C94C82780919A
:10336000C71B83FF02C00C94C82783E50E94B65A8E
:1033700023968FAF239781110C94F42782E50E9446
:10338000B65A81110C94F4270C94C8278091C71B5E
:1033900083FF02C00C94C82760E08DE693E00E9492
:1033A000EA7783E50E94B65A23968FAF239781115F
:1033B0000C94602982E50E94B65A81110C94602910
:1033C0000C94C8270E94967D0C94C82780E50E9423
:1033D000B65A811106C010926811109267110C94B0
:1033E000C8270E94245A672B11F00C94C827F3CFEA
:1033F0008CE40E94875A882319F00E94545A04C012
:1034000060E070E080EA90EC68AB79AB8AAB9BAB94
:103410008AE50E94B65A882319F00E94545A03C0C4
:1034200060E070E0CB0120E030E040E751E40E9432
:10343000ECE46CA77DA78EA79FA788E50E94B65AEB
:10344000882319F00E94545A03C060E070E0CB0159
:1034500020E030E042E553E40E94ECE468A779A75D
:103460008AA79BA789E50E94B65A882319F00E9473
:10347000545A03C060E070E0CB0120E030E04CED36
:1034800052E40E94ECE46CA37DA38EA39FA3198257
:103490001A821B821C8218A219A21AA21BA2809156
:1034A000661181110C94C827A12CC12CDE01119644
:1034B0007D018E01005E1F4F9E012C5D3F4FAE01CE
:1034C000485D5F4FBE01645D7F4FCE01C0960E9494
:1034D0001B4C0C94C8270E94867D0C94C827109220
:1034E0006C110C94C8270E942E7D0C94C8270E9452
:1034F000787C0C94C8270E947CB50E94B97B0C9400
:10350000C82784918F010F5F1F4F882321F00E94ED
:10351000584AF801F6CFE0E5F4E084918F010F5F9F
:103520001F4F882321F00E94584AF801F6CFE9E3A3
:10353000F4E084918F010F5F1F4F882321F00E94D8
:10354000584AF801F6CFE9E2F4E084918F010F5F69
:103550001F4F882321F00E94584AF801F6CFE8E176
:10356000F4E084918F010F5F1F4F882321F00E94A8
:10357000584AF801F6CFE7E0F4E084918F010F5F3D
:103580001F4F882321F00E94584AF801F6CFE8EF38
:10359000F3E084918F010F5F1F4F882321F00E9479
:1035A000584AF801F6CFE3EEF3E084918F010F5F04
:1035B0001F4F882321F00E94584AF801F6CFEDEC06
:1035C000F3E084918F010F5F1F4F882321F00E9449
:1035D000584AF801F6CFE8EBF3E084918F010F5FD2
:1035E0001F4F882321F00E94584AF801F6CFEBE9DB
:1035F000F3E084918F010F5F1F4F882321F00E9419
:10360000584AF801F6CFE3E8F3E084918F010F5FA9
:103610001F4F882311F40C94C8270E94584AF801C0
:10362000F4CF60E08091C6069091C7060E9417789B
:103630000C94C82785E40E94875A882381F00E9451
:10364000455A882361F0E8E9F4E284918F010F5F25
:103650001F4F882321F00E94584AF801F6CF81E4D9
:103660000E94875A882381F00E94455A882361F07E
:10367000E4E2F5E084918F010F5F1F4F882321F072
:103680000E94584AF801F6CF0091C6061091C7066D
:10369000F80181918F01882309F4BDCD0E94584A19
:1036A000F7CF0E947E2F0C94C82781E080930602FA
:1036B0008093C8060C94C82788EC90E00E94C25AF8
:1036C00081110C94C82784E40E94875A8823D1F181
:1036D0000E94545A11E020E030E0A9010E9419DE56
:1036E000811101C010E010939D1A112359F100912E
:1036F000C90610E00E94545A000F111F000F111F3D
:10370000F801EF5BFD4F608371838283938320E038
:1037100030E0A90160914102709142028091430220
:10372000909144020E9419DE81110CC080E090E06B
:10373000A0EEBFE38093410290934202A093430224
:10374000B09344020E94349C0C94C82769EAE62E88
:103750006BE1F62E09ED12E074E0D72ED00ED80101
:103760008D918D010E94875A882349F00E94545AF6
:103770000E94D0E5F7016083718382839383F4E034
:10378000EF0EF11CD012EBCF0E9421810C94C827C0
:10379000F4E0EF0EF11CD01611F40C94C827D801F8
:1037A0008D918D010E94875A882391F30E94545A6B
:1037B000F7016083718382839383EACF83E50E945C
:1037C000875A8823D9F00E94545AAB01BC01409318
:1037D000C11B5093C21B6093C31B7093C41B4093C7
:1037E000B91B5093BA1B6093BB1B7093BC1B82E840
:1037F00095E00E942C628AE00E94584A80E50E946F
:10380000875A882399F00E94545AAB01BC01409317
:10381000C11B5093C21B6093C31B7093C41B85E6EE
:1038200095E00E942C628AE00E94584A82E50E943C
:10383000875A882399F00E94545AAB01BC014093E7
:10384000BD1B5093BE1B6093BF1B7093C01B86E4CF
:1038500095E00E942C628AE00E94584A84E50E940A
:10386000875A882311F40C94C8270E94545AAB013C
:10387000BC014093B91B5093BA1B6093BB1B709360
:10388000BC1B88E295E00E942C628AE00E94584AA4
:103890000C94C82783E50E94875A882351F00E9420
:1038A000545A6093701A7093711A8093721A90939D
:1038B000731A84E50E94875A882351F00E94545A53
:1038C00060936C1A70936D1A80936E1A90936F1AAE
:1038D00082E40E94875A882351F00E94145A609310
:1038E000681A7093691A80936A1A90936B1A88E524
:1038F0000E94875A882351F00E94545A6093481AB4
:103900007093491A80934A1A90934B1A89E50E9442
:10391000875A882351F00E94545A60934C1A70932E
:103920004D1A80934E1A90934F1A8AE50E94875A37
:10393000882351F00E94545A6093501A7093511A80
:103940008093521A9093531A85E40E94875A8823D1
:1039500011F40C94C8270E94545A6093541A70931F
:10396000551A8093561A9093571A0C94C827D5016C
:103970008D915D010E94875A882311F10E94545A4B
:103980002B013C01F70120813181428153810E944A
:10399000EBE49B01AC01D6016D917D918D919C91E1
:1039A0000E94ECE4F6016083718382839383D701E4
:1039B0004D925D926D927C921397C8010E94FC55C6
:1039C0000F5F1F4FB4E0CB0ED11CE4E0EE0EF11CF4
:1039D0000330110561F60E94B9590E94B97B0C941D
:1039E000C827E8E9F4E284918F010F5F1F4F882315
:1039F00021F00E94584AF801F6CF83E50E94875AC9
:103A0000882321F00E94455A80930702E4EDF5E0F7
:103A100084918F010F5F1F4F882321F00E94584A25
:103A2000F801F6CF80910702811103C0EFECF5E0B9
:103A300002C0EAECF5E084918F010F5F1F4F8823ED
:103A400021F00E94584AF801F6CFE2ECF5E08491AB
:103A50008F010F5F1F4F882321F00E94584AF80101
:103A6000F6CF4091781B5091791B60917A1B709131
:103A70007B1B80EC95E00E942C6240917C1B509156
:103A80007D1B60917E1B70917F1B8DEB95E00E94EA
:103A90002C624091801B5091811B6091821B709120
:103AA000831B8AEB95E00E942C62E2EBF5E08491A7
:103AB0008F010F5F1F4F882321F00E94584AF801A1
:103AC000F6CF40914A0250914B0260914C027091A6
:103AD0004D0280EB95E00E942C6240914E02509185
:103AE0004F0260915002709151028DEA95E00E9460
:103AF0002C62409152025091530260915402709195
:103B000055028AEA95E00E942C628AE00E94584A97
:103B10000C94C82783E50E94B65A882311F40C94AC
:103B2000C8270E94245A70931802609317020C94BD
:103B3000C8278DED90E00E94C25A81110C94C827CD
:103B400083E50E94B65A882311F40C94C82700918B
:103B5000C90610E00E94245A000F111FF801EB5E05
:103B6000FD4F718360830C94C82780E50E94875ABB
:103B7000882311F40C94C8270E94245AF62EC62ECE
:103B8000D72E83E50E94B65A882321F00E94245A3A
:103B90008B0102C00FEF1FEFC8010196039710F0D1
:103BA0000C94C827D7FE02C00C94C827E4EEF5E0B9
:103BB00088E28E0F9491F91611F40C94C82731966F
:103BC0008E13F8CF0C945A2C83E50E94B65A8823A2
:103BD00019F00E94245A02C064E071E079A368A33E
:103BE00080E50E94B65A882339F00E94245A693829
:103BF000F3E17F0730F402C068EE73E07A836983F3
:103C000004C088E893E19A838983BE01605E7F4F98
:103C1000CE0101960E94049F0C94C82785E40E945F
:103C2000B65A811110C080E50E94875A882391F00E
:103C30000E94545A6093BE027093BF028093C002E8
:103C40009093C10207C00E94345A882361F3E3EACB
:103C5000FFE172C089E40E94875A882381F00E94A4
:103C6000545A2CEA35EC47E25EE30E947EDE609314
:103C7000BA027093BB028093BC029093BD0284E4AD
:103C80000E94875A882381F00E94545A2CEA35EC0E
:103C900047E25EE30E9463E56093C2027093C30251
:103CA0008093C4029093C502E8E9F4E284918F0105
:103CB0000F5F1F4F882321F00E94584AF801F6CF6A
:103CC0004091BE025091BF026091C0027091C1024A
:103CD00084E196E00E942C622CEA35EC47E25EE338
:103CE0006091BA027091BB028091BC029091BD02BA
:103CF0000E9463E5AB01BC0180E196E00E940F6287
:103D00002CEA35EC47E25EE36091C2027091C30297
:103D10008091C4029091C5020E947EDEAB01BC017D
:103D20008CE096E00E940F628AE00E94584A0C9450
:103D3000C8270E94584AF80184918F010F5F1F4FD6
:103D40008111F7CF03E813E0D8018D918D0188230D
:103D500009F461CA0E94584AF7CF80E50E94875A49
:103D6000882351F00E94545A6093CE027093CF0280
:103D70008093D0029093D10289E40E94875A8823CD
:103D800081F00E94545A2CEA35EC47E25EE30E942F
:103D90007EDE6093CA027093CB028093CC02909334
:103DA000CD0284E40E94875A882381F00E94545AED
:103DB0002CEA35EC47E25EE30E9463E56093C602BD
:103DC0007093C7028093C8029093C902E8E9F4E2B5
:103DD00084918F010F5F1F4F882321F00E94584A62
:103DE000F801F6CF4091CE025091CF026091D002FF
:103DF0007091D10280E296E00E942C622CEA35ECB0
:103E000047E25EE36091CA027091CB028091CC02DE
:103E10009091CD020E9463E5AB01BC018CE196E07C
:103E20000E940F622CEA35EC47E25EE36091C60225
:103E30007091C7028091C8029091C9020E947EDEF3
:103E4000AB01BC0188E196E00E940F628AE00E940B
:103E5000584A0C94C82783E50E94875A182F882354
:103E600071F00E94545A0E94CBE570935B026093FC
:103E70005A0221E0672B09F020E02093C61B80E561
:103E80000E94875A882361F020915A0230915B0288
:103E9000232B11F00E94455A8093C61B0C94C8270F
:103EA00011110C94C827E8E9F4E284918F010F5FA7
:103EB0001F4F882321F00E94584AF801F6CF8091C5
:103EC000C61B811103C061E773E002C065E076E0C4
:103ED00089E396E00E94626260915A0270915B02EF
:103EE00088E296E00E944962E4E2F6E084918F0164
:103EF0000F5F1F4F882311F40C94C8270E94584A63
:103F0000F801F4CF8CEF98E09A83898306E410E0FF
:103F100019A308A3BE016F5F7F4FCE0180960E9458
:103F2000049F8CE19CE09A83898319A308A3BE01B6
:103F30006F5F7F4FCE0180960E94049F85E40E94B0
:103F4000B65A882321F00E94245A1B0102C0212C5A
:103F5000312C83E40E94B65A882339F00E94245AF7
:103F6000AC967FAF6EAFAC9706C0E5E0F0E0AC96E4
:103F7000FFAFEEAFAC9785E50E94875AA1968FAF51
:103F8000A197882329F00E94455AA1968FAFA19747
:103F900037FC07C0C12CD12CB6E1EB2EB3E4FB2ECD
:103FA00006C0C12CD12CACE8EA2EA2E4FA2E83E59F
:103FB0000E94B65A882321F00E94545A6B017C015A
:103FC0002114310411F41092C90610927711109245
:103FD00076110E9494772B013C01C1010196029752
:103FE00018F404E913E00EC003EA13E0D8018D9140
:103FF0008D01882319F00E94584AF8CF8AE00E9468
:10400000584AE1C2F80181918F01882319F00E947A
:10401000584AF8CF8AE00E94584A60E082EB97E065
:104020000E94EA770E94B4B18FE7FFEF2F163F0698
:1040300019F48093961B02C08093971BC701B601A9
:104040000E94CBE5072E000C880B990B0E941FDE07
:1040500065966FAF659766967FAF669767968FAFE9
:10406000679768969FAF689781E080935C02A696F9
:104070004CAE5DAE6EAE7FAEA697E0964CAE5DAE3A
:104080006EAE7FAEE09769961FAE699720E46A96A0
:104090002FAF6A973CE16B963FAF6B9746E46C9607
:1040A0004FAF6C976D961FAE6D976E961FAE6E9765
:1040B0006F961FAE6F97A0961FAEA09764961CAE2A
:1040C0001DAE1EAE1FAE649760961CAE1DAE1EAE3A
:1040D0001FAE6097C12CD12C7601FFE78F2E912C5B
:1040E000A12CB12C8FE790E0A0E0B0E02A968CAF35
:1040F0009DAFAEAFBFAF2A97AA961CAE1DAE1EAE47
:104100001FAEAA9791E0A2969FAFA2972C961FAEE2
:104110001EAE2C971CAE1EAE00E010E080915C023B
:10412000882309F44AC20E94D8970E949477269661
:104130006CAF7DAF8EAF9FAF26978091951B882384
:1041400009F4EEC00E9478B2AFEF2A163A0659F48D
:10415000B0911C1ABCAFE0911D1AEEAF00911E1A6F
:1041600010911F1A0AC0F091201AFCAF2091211A59
:104170002EAF0091221A1091231A2CAD3EADA8014A
:104180006D966FAD6D976E967FAD6E976F968FAD96
:104190006F97A0969FADA0970E9419DE87FF0EC073
:1041A0003CAD6D963FAF6D974EAD6E964FAF6E972F
:1041B0006F960FAF6F97A0961FAFA0972CAD3EAD37
:1041C000A80169966FAD69976A967FAD6A976B96FD
:1041D0008FAD6B976C969FAD6C970E944FE618164B
:1041E00074F45CAD69965FAF69978EAD6A968FAFD8
:1041F0006A976B960FAF6B976C961FAF6C97A296F2
:104200009FADA29765962FAD659766963FAD669771
:1042100067964FAD679768965FAD68976CAD7EAD5A
:10422000802F992309F45DC0912F0E944FE6181644
:104230000CF076C026964CAD5DAD6EAD7FAD269789
:104240004419550966097709DB01CA018858934169
:10425000A109B109B7FD64C02A968CAD9DADAEAD84
:10426000BFAD2A9788199909AA09BB09B595A795E1
:1042700097958795EFEF2E163E0619F48093961BBF
:1042800002C08093971BAA964CAF5DAF6EAF7FAF15
:10429000AA976596FFAD65976D96FFAF6D97669689
:1042A0002FAD66976E962FAF6E9767963FAD679767
:1042B0006F963FAF6F9768964FAD6897A0964FAFD8
:1042C000A09726968CAD9DADAEADBFAD2697A696B8
:1042D0008CAF9DAFAEAFBFAFA697A2961FAEA29711
:1042E0001FC0912F0E9419DE87FF1AC026968CAD41
:1042F0009DADAEADBFAD2697A6962CAD3DAD4EADF6
:104300005FADA697821B930BA40BB50BAC01BD014F
:10431000485853416109710977FD02C00C94C82ABD
:1043200020E030E040ED51E465966FAD659766960C
:104330007FAD669767968FAD679768969FAD6897D4
:104340000E94ECE49B01AC016CAD7EADC8010E9403
:104350004FE61816BCF4EEE3F7E084918F010F5F8F
:104360001F4F882321F00E94584AF801F6CF60E0E1
:104370008AE297E00E94EA7760E087E197E00E9496
:10438000EA7721C180E398EFAFEFBFEFE0962CAD65
:104390003DAD4EAD5FADE097821B930BA40BB50B0B
:1043A00026962CAD3DAD4EAD5FAD2697820F931F87
:1043B000A41FB51FB7FD11C00E94B77D8AE00E94FF
:1043C000584A26968CAD9DADAEADBFAD2697E09612
:1043D0008CAF9DAFAEAFBFAFE09726968CAD9DADD5
:1043E000AEADBFAD2697880F991FAA1FBB1FA6961B
:1043F0002CAD3DAD4EAD5FADA697821B930BA40BCC
:10440000B50B84199509A609B70981389F44A241C3
:10441000B10568F0E9EFF6E084918F010F5F1F4F5F
:10442000882309F4D0C00E94584AF801F5CF2C9691
:104430004EAD5FAD2C97AC968EAD9FADAC9784170B
:1044400095070CF0B7C0ECE9F6E084918F010F5F9F
:104450001F4F882321F00E94584AF801F6CF60E0F0
:104460008EE896E00E94EA779FEF2916390619F048
:104470000DE713E002C005E713E0B8018CE796E012
:104480000E946262B701A60188E796E00E942C6252
:104490008AE00E94584AB80186E696E00E9462626D
:1044A00060964CAD5DAD6EAD7FAD609782E696E0F7
:1044B0000E942C628AE00E94584AB80180E596E08A
:1044C0000E94626264964CAD5DAD6EAD7FAD649747
:1044D0008CE496E00E942C628AE00E94584AA196E1
:1044E000AFADA197AA2309F46EC02320209489F5CB
:1044F000C092CE02D092CF02E092D002F092D102CE
:104500002CEA35EC47E25EE360966CAD7DAD8EAD96
:104510009FAD60970E947EDE6093CA027093CB02CB
:104520008093CC029093CD022CEA35EC47E25EE317
:1045300064966CAD7DAD8EAD9FAD64970E9463E5D2
:104540006093C6027093C7028093C8029093C90219
:104550003AC0C092BE02D092BF02E092C002F09276
:10456000C1022CEA35EC47E25EE360966CAD7DADAE
:104570008EAD9FAD60970E947EDE6093BA0270930D
:10458000BB028093BC029093BD022CEA35EC47E25B
:104590005EE364966CAD7DAD8EAD9FAD64970E9479
:1045A00063E56093C2027093C3028093C402909348
:1045B000C50209C00E94C5ABB1CD80915C028111DA
:1045C00002C00E94B4B181E090E090937711809393
:1045D00076110E94013A8CEF98E09A83898306E471
:1045E00010E019A308A3BE016F5F7F4FCE01809634
:1045F0000E94049F8CE19CE09A83898319A308A3FD
:10460000BE016F5F7F4FCE0180960E94049FC0C4A1
:104610000E947CB5BDC486E50E94875A882391F02C
:104620008091471A80FF0EC0EEEEF7E084918F0173
:104630000F5F1F4F882321F00E94584AF801F6CFE0
:104640000E94586F83E50E94875A182F882319F01B
:104650000E94455A182F83E50E94875A882319F033
:10466000812F0E94EE70F090471AF1FAFF24F0F8C3
:10467000111103C0E8E9F4E21AC0F110FBCFE3EA3C
:10468000FFE184918F010F5F1F4F882321F00E946B
:10469000584AF801F6CFEFECF7E084918F010F5FF5
:1046A0001F4F882339F30E94584AF801F6CF8491AE
:1046B0008F010F5F1F4F882321F00E94584AF80195
:1046C000F6CFF11003C06EE773E002C069E773E054
:1046D00081EC97E00E9462628AE00E94584A58C4C6
:1046E00088E50E94875AB82E89E40E94875AA82E2E
:1046F000882319F00E94245A24C0BB2021F10E9473
:10470000545A2091D41B3091D51B4091D61B509107
:10471000D71B0E94EBE420E030E040E252E40E942C
:10472000EBE420E030E04AE752E40E94ECE42FE6BC
:1047300032E143E05CE30E947EDE0E94CBE5623022
:1047400010F4F62E02C0FF24FA9489E50E94875ADD
:10475000D82E8AE40E94875A082F882319F00E94D5
:10476000245A24C0DD2021F10E94545A2091D81BE4
:104770003091D91B4091DA1B5091DB1B0E94EBE476
:1047800020E030E040E252E40E94EBE420E030E040
:1047900042E852E40E94ECE421EC3FE04CEF5BE3A2
:1047A0000E947EDE0E94CBE5623010F4162F01C01D
:1047B0001FEF8AE50E94875AE82E811105C081E526
:1047C0000E94875AC82E01C0C12CA11002C020E04F
:1047D00001C0202F30E0B11002C090E001C09D2D3B
:1047E000290F311D2130310519F0E3EAFFE105C041
:1047F000E1101AC0C11018C0F8CF84918F010F5F6B
:104800001F4F882321F00E94584AF801F6CFE3E2B7
:10481000F8E084918F010F5F1F4F882309F4B8C31C
:104820000E94584AF801F5CFF7FE03C0E3EAFFE122
:1048300006C017FF17C0FACF0E94584AF8018491AA
:104840008F010F5F1F4F8111F7CFE4E0F8E08491F3
:104850008F010F5F1F4F882309F49AC30E94584AA3
:10486000F801F5CF0E94545A012F110F110BEF2DB3
:10487000FF0CFF0BCC2081F0DF01AA0FBB1FA00FA4
:10488000B11FAA0FBB1FAA0FBB1FA65BBB4E2D916A
:104890003D914D915C9103C020E030E0A901EE0F05
:1048A000FF1FE00FF11FEE0FFF1FEE0FFF1F8F0125
:1048B000065B1B4E0E94ECE4F801608371838283E7
:1048C000938366C39101215D3B413DAF2CAFD10184
:1048D0008D911D01882309F49FC0F701408051800C
:1048E00062807380F801E65BFD4F20813181428157
:1048F0005381F801E858F44E60817181828193817F
:104900000E94ECE420E030E040E05FE30E947EDEC5
:104910009B01AC01C301B2010E944FE6181644F49A
:10492000F801E95EF04F85909590A590B49003C092
:10493000812C912C5401F801EC52F44E20813181EC
:1049400042815381C301B2010E94EBE49B01AC019F
:10495000C501B4010E94EBE44B015C0120E030E0B2
:1049600040EA51EC0E944FE687FD29C020E030E08C
:1049700040EA51E4C501B4010E9419DE1816FCF0AA
:10498000D6012D913D914D915C91C501B4010E94DC
:10499000EBE49B01AC01C301B2010E94ECE4F7011E
:1049A0006083718382839383D6018D929D92AD92B1
:1049B000BC9213978CAD9DAD0E94FC552DC0E3EACF
:1049C000FFE184918F010F5F1F4F882321F00E9428
:1049D000584AF801F6CFE2E6F8E084918F010F5FC4
:1049E0001F4F882321F00E94584AF801F6CF61E05A
:1049F00084E598E00E94EA7788E290E09A838983D0
:104A000088EC90E099A388A3BE016F5F7F4FCE0131
:104A100080960E94049FBCC2B4E0CB0ED11C0C5FF8
:104A20001F4FE4E0EE0EF11C0C30110509F04ACFE7
:104A30000E94B9590E94B97B60E083E498E00E942B
:104A4000EA7783E992E099A388A304E610E01A8349
:104A50000983BE01605E7F4FCE0101960E94049FD4
:104A60008AEB92E099A388A31A830983BE01605E52
:104A70007F4FCE0101960E94049F8AC20E94013A94
:104A80008CEF98E09A83898306E410E019A308A3C9
:104A9000BE016F5F7F4FCE0180960E94049F84E528
:104AA0009BE09A83898319A308A3BE016F5F7F4FA0
:104AB000CE0180960E94049F6BC20E9402358CEF4B
:104AC00098E09A83898306E410E019A308A3BE0145
:104AD0006F5F7F4FCE0180960E94049F84E59BE02C
:104AE0009A83898319A308A3BE016F5F7F4FCE010C
:104AF00080960E94049F4CC20E94DF3384E59BE0B5
:104B00009A83898306E410E019A308A3BE016F5FAE
:104B10007F4FCE0180960E94049F8CEF98E09A838D
:104B2000898319A308A3BE016F5F7F4FCE018096D2
:104B30000E94049F2DC283E50E94875A882319F0A2
:104B40000E94455A01C081E091E089270E94FB2F15
:104B50001FC2E0E8F8E084918F010F5F1F4F8823A8
:104B600021F00E94584AF801F6CF83E090E090933C
:104B70007711809376111092751182E090E00E9477
:104B8000AC6980917311909174118330910521F477
:104B900081E00E945F98F5CF21E030E030937711FB
:104BA00020937611892B09F0F3C183E090E00E94F5
:104BB000AC69EEC183E50E94875A882309F4E8C1F5
:104BC0000E94455A80938C11E3C10091D11B81E072
:104BD0000827D090D21BD8261091D31B182701117B
:104BE00002C0DD2019F0E8E9F4E203C01111FBCFA7
:104BF00054C084917F012FEFE21AF20A882321F03A
:104C00000E94584AF701F5CFE3E9F8E084917F016B
:104C10003FEFE31AF30A882321F00E94584AF70174
:104C2000F5CF002369F0E1E9F8E084917F014FEFCF
:104C3000E41AF40A882321F00E94584AF701F5CFBC
:104C4000DD2069F0EFE8F8E084917F015FEFE51A7D
:104C5000F50A882321F00E94584AF701F5CF111177
:104C600003C0E5E8F8E00CC0EDE8F8E084918F01BE
:104C70000F5F1F4F8823A9F30E94584AF801F6CF0F
:104C800084918F010F5F1F4F882321F00E94584AA3
:104C9000F801F6CF81E00E940F7185E40E94875AE7
:104CA000882319F00E94545A04C060E070E080EA42
:104CB00090EC68AF79AF8AAF9BAF8AE50E94B65A95
:104CC000882319F00E94545A04C060E070E080E725
:104CD00091E46CAB7DAB8EAB9FAB88E50E94B65A7E
:104CE000882319F00E94545A04C060E070E082E505
:104CF00093E468AB79AB8AAB9BAB89E50E94B65A6B
:104D0000882319F00E94545A04C060E070E08CEDD2
:104D100092E46CA77DA78EA79FA785E40E94875A7F
:104D2000882319F00E94545A04C060E070E080E7C4
:104D300091E468A779A78AA79BA785E50E94875A6F
:104D4000882319F00E94545A04C060E070E08AE29F
:104D500094EC6CA37DA38EA39FA38CE40E94875A3E
:104D6000882319F00E94545A04C060E070E882E27F
:104D700094E468A379A38AA39BA382E40E94B65A11
:104D8000882321F00E94245AD62E02C085E0D82E16
:104D90008090540D9090550D80916611811183C0C3
:104DA000AA24A394CD2CCE0184967C018E01085DAB
:104DB0001F4F9E01245D3F4FAE01405D5F4FBE011E
:104DC0006C5C7F4F44960E941B4C882309F46BC097
:104DD00083E090E0909377118093761181E0809347
:104DE000751111E080917511882309F442C060E0CB
:104DF0008D2D0E94856D8091901A8823B1F188E0F5
:104E000090E00E94509F80917511882321F081E0ED
:104E10000E945F98F8CF1092F61B1092F71B109229
:104E2000F81B1092F91B1092901A0E946AB10E940E
:104E30002D6D82E090E00E94509F0E949477DC01EB
:104E4000CB0180549B42AE4FBF4F8093F61B909393
:104E5000F71BA093F81BB093F91B1092901A1093B4
:104E6000751161E08D2D0E94856D81E00E945F9833
:104E7000B9CF81E090E0909377118093761180E034
:104E800090E0A8E4B2E489839A83AB83BC838091E9
:104E90006611882341F04D2DBE016F5F7F4FCE011B
:104EA00080960E94CE4D8A94892809F071C00E9494
:104EB000699E6EC081E08093B90210921A1A83E550
:104EC0000E94875A811103C00E945B9D61C00E94AD
:104ED000455A81115DC0F8CFF090CB06FF2029F133
:104EE000E8E9F4E284918F010F5F1F4F882321F0DE
:104EF0000E94584AF801F6CF84E50E94584A6F2D67
:104F000070E080E090E04AE00E94B14A80E20E94B6
:104F1000584A03E813E0D8018D918D01882311F4DC
:104F20000C940B190E94584AF6CF1092C51BE8E961
:104F3000F4E284918F010F5F1F4F882321F00E94BC
:104F4000584AF801F6CF6091C51B70E089E998E0F6
:104F50000E9449628AE00E94584A1AC0E8E9F4E2D5
:104F600084918F010F5F1F4F882321F00E94584AC0
:104F7000F801F6CF6091A31A7091A41A8BEA98E019
:104F80000E94626282E20E94584A8AE00E94584A65
:104F900010927711109276110E943C9DB3C4E0915B
:104FA000C606F091C706EF2B31F4FC013197F09360
:104FB000C706E093C606A0E0B0E00C94A31361E03E
:104FC000802F0E9459766E2D802F0E942A76F12C18
:104FD000B701802F0E94957609301105C9F6F0922D
:104FE0006811E0926711D4CF0E94545A0E94CBE519
:104FF0007093701160936F1180E00E946AB10E94FB
:10500000545A20E030E04AEA52E40E9419DE1816B1
:1050100044F00E940EB760E087E493E00E94EA77D4
:1050200002C00E94699E0E941FD881E080935C02AA
:10503000109277111092761122961CAE1DAE1EAE04
:105040001FAE22972A961CAE1DAE1EAE1FAE2A972B
:105050001CAE2B961FAE2B975CE32D965FAF2D9762
:105060008CE161968FAF619796E465969FAF6597E7
:10507000C12CD12CB0E8EB2E1FEBF12E812C912C02
:10508000540160916F1170917011072E000C880B04
:10509000990B0E941FDE162F072F782E692E262FC0
:1050A000372F482F592FB601C7010E9419DE8823D8
:1050B00021F12091201A3091211A4091221A509109
:1050C000231A612F702F872D962D0E9419DE881FBD
:1050D0008827881F8CAF2396CFAC2397CC2089F0EC
:1050E000882379F080915C02882309F451CF60E035
:1050F00089E393E00E94EA774BCF1C2D0D2D7E2C87
:105100006F2C0E9494776B017C01DC01CB012A9605
:105110002CAD3DAD4EAD5FAD2A97821B930BA40B1A
:10512000B50BB7FD3DC0D701C60188519C4FAF4FAD
:10513000BF4F2A968CAF9DAFAEAFBFAF2A970E94EC
:10514000B77DE3E4F3E084912F019FEF491A590AF8
:10515000882321F00E94584AF201F5CF811491046E
:10516000A104B104B9F0D501C401805F984DAF4FDF
:10517000BF4FBC01CD016C197D098E099F0928EE36
:1051800033E040E050E00E94B0E4CA01B9010E945F
:10519000174B03C08FE30E94584A8AE00E94584A86
:1051A00080E00E945F9899D42090201A3090211AB4
:1051B0004090221A5090231A9101A201612F702F62
:1051C000872D962D0E94EBE49F7781149104A10412
:1051D000B10449F420E030E040E85FE30E9419DECA
:1051E00087FF0BC008C020E030E040E450E40E949C
:1051F0004FE6181614F446015701ACADAA2309F482
:1052000043C022962CAD3DAD4EAD5FAD229721152A
:1052100031054105510541F0D701C601821B930BB1
:10522000A40BB50BB7FD30C09101A2012B966FAD59
:105230002B972D967FAD2D9761968FAD61976596D3
:105240009FAD65970E94EBE420E030E040EC5FE327
:105250000E9419DE87FD46CFD701C601805A9541CD
:10526000AF4FBF4F22968CAF9DAFAEAFBFAF22976F
:105270002B962FAE2B972D963FAE2D9761964FAE66
:10528000619765965FAE659780915C02882309F40B
:1052900029CF81149104A104B10429F4C12ED02E88
:1052A000E72CF62CEECE90E1C91A97E2D90AE10874
:1052B000F108C818D908EA08FB08F7FE13CFEECFAB
:1052C0000E94545A0E94CBE56739710514F066E9D3
:1052D00070E070936E1160936D110E94545A20E03B
:1052E00030E040EA50E40E944FE6181614F40E94A1
:1052F000699E81E080935C02109277111092761182
:105300008091C51B8093C90622961CAE1DAE1EAEB1
:105310001FAE22972A961CAE1DAE1EAE1FAE2A9758
:105320001CAE2B961FAE2B97ACE32D96AFAF2D97EF
:10533000BCE16196BFAF6197E6E46596EFAF659714
:10534000C12CD12CF0E8EF2EAFEBFA2E812C912C52
:10535000540160916D1170916E11072E000C880B35
:10536000990B0E941FDE162F072F782E692E262FED
:10537000372F482F592FB601C7010E9419DE882305
:1053800021F120911C1A30911D1A40911E1A509142
:105390001F1A612F702F872D962D0E9419DE881FEE
:1053A0008827881F8CAF2396CFAC2397CC2089F019
:1053B000882379F080915C02882309F4E9CD60E0CC
:1053C0008AE593E00E94EA77E3CD1C2D0D2D7E2C1B
:1053D0006F2C0E9494776B017C01DC01CB012A9633
:1053E0002CAD3DAD4EAD5FAD2A97821B930BA40B48
:1053F000B50BB7FD3DC0D701C60188519C4FAF4FDB
:10540000BF4F2A968CAF9DAFAEAFBFAF2A970E9419
:10541000B77DE9E6F3E084912F019FEF491A590A1D
:10542000882321F00E94584AF201F5CF811491049B
:10543000A104B104B9F0D501C401805F984DAF4F0C
:10544000BF4FBC01CD016C197D098E099F0928EE63
:1054500033E040E050E00E94B0E4CA01B9010E948C
:10546000174B03C08FE30E94584A8AE00E94584AB3
:1054700080E00E945F9831D320901C1A30901D1A52
:1054800040901E1A50901F1A9101A201612F702F97
:10549000872D962D0E94EBE49F7781149104A1043F
:1054A000B10449F420E030E040E85FE30E9419DEF7
:1054B00087FF0BC008C020E030E040E450E40E94C9
:1054C0004FE6181614F446015701ACADAA2309F4AF
:1054D00043C022962CAD3DAD4EAD5FAD2297211558
:1054E00031054105510541F0D701C601821B930BDF
:1054F000A40BB50BB7FD30C09101A2012B966FAD87
:105500002B972D967FAD2D9761968FAD6197659600
:105510009FAD65970E94EBE420E030E040EC5FE354
:105520000E9419DE87FD46CFD701C601805A9541FA
:10553000AF4FBF4F22968CAF9DAFAEAFBFAF22979C
:105540002B962FAE2B972D963FAE2D9761964FAE93
:10555000619765965FAE659780915C02882309F438
:1055600029CF81149104A104B10429F4C12ED02EB5
:10557000E72CF62CEECE90E1C91A97E2D90AE108A1
:10558000F108C818D908EA08FB08F7FE13CFEECFD8
:105590002C964EAD5FAD2C97141615060CF045C138
:1055A000AA964CAC5DAC6EAC7FACAA97480E591E67
:1055B0006A1E7B1EAA962CAD3DAD4EAD5FADAA977F
:1055C000281B390B4A0B5B0BCA01B901A5019401D9
:1055D0000E94A1E4A30192010E94F8E62A968CACF5
:1055E0009DACAEACBFAC2A97820E931EA41EB51E16
:1055F00034E183169104A104B1041CF14CEE84162D
:105600009104A104B1043CF450E885169104A1046E
:10561000B1043CF105C07BEE872E912CA12CB12C5E
:105620002A968CAE9DAEAEAEBFAE2A978EEF90E0BE
:10563000A0E0B0E088199909AA09BB094C015D01F5
:1056400016C024E130E040E050E02A962CAF3DAF98
:105650004EAF5FAF2A9764E1862E912CA12CB12C1E
:1056600006C02A968CAE9DAEAEAEBFAE2A972A96E5
:105670004CAD5DAD6EAD7FAD2A978AEA97E00E9492
:10568000F8D7B501A40185EA97E00E94F8D769969A
:105690004FAD69976A965FAD6A976B966FAD6B97E2
:1056A0006C967FAD6C978EE997E00E942C626D96A8
:1056B0004FAD6D976E965FAD6E976F966FAD6F97AE
:1056C000A0967FADA09787E997E00E942C622C9668
:1056D0004EAD5FAD2C97433051050CF4A6C0C5010B
:1056E000B4010E941FDE20E030E040E850E40E9458
:1056F0007EDE6B017C0169962FAD69976A963FAD9E
:105700006A976B964FAD6B976C965FAD6C976D9685
:105710006FAD6D976E967FAD6E976F968FAD6F97ED
:10572000A0969FADA0970E94EBE42BED3FE049E4EB
:1057300050E40E947EDE20E030E040E05FE30E9423
:105740007EDE9B01AC01C701B6010E9463E56B01DF
:105750007C01C301B2010E941FDE2FE632E143E863
:105760005AE30E947EDE2B013C01B701A60181E9CC
:1057700097E00E942C62B301A2018BE897E00E949F
:105780002C622AE939E949E15FE3C701B6010E94C9
:105790007EDE6B017C019B01AC010E94ECE4A30165
:1057A00092010E9463E560966CAF7DAF8EAF9FAFB4
:1057B0006097A3019201C701B6010E947EDE20E03E
:1057C00030E040E05EE30E947EDE64966CAF7DAF29
:1057D0008EAF9FAF6497EBE7F7E084913F015FEFF7
:1057E000651A750A882321F00E94584AF301F5CF03
:1057F000B701A60185E797E00E942C6260964CAD48
:105800005DAD6EAD7FAD60978FE697E00E942C6234
:1058100064964CAD5DAD6EAD7FAD649789E697E063
:105820000E942C628AE00E94584A2A968CAD9DAD57
:10583000AEADBFAD2A97880D991DAA1DBB1DB595AC
:10584000A79597958795EFEF2E163E0619F480934E
:10585000961B02C08093971B2C962EAD3FAD2C97C4
:105860002F5F3F4F2C963FAF2EAF2C9765963FADE5
:10587000659769963FAF699766964FAD66976A964A
:105880004FAF6A9767965FAD67976B965FAF6B9701
:1058900068968FAD68976C968FAF6C9726964CACD8
:1058A0005DAC6EAC7FAC269791E0A2969FAFA297BD
:1058B0000C9490210E947CB560E08F2D0E94597657
:1058C0000F3FBFEF1B0759F48F2D0E94027631E086
:1058D00020E0892B09F030E0032F122F05C00130A2
:1058E000110569F000E010E08F2D0E94027680170C
:1058F000910709F44DCB80E00E945F98F5CF01E05D
:1059000010E0F2CFCD58DF4F0FB6F894DEBF0FBED8
:10591000CDBFDF91CF911F910F91FF90EF90DF905E
:10592000CF90BF90AF909F908F907F906F905F903F
:105930004F903F902F900895089580E090E0089553
:105940008BE090E10E94BC7421E0892B09F420E0F7
:10595000822F089588E790E10E94BC7421E0892B92
:1059600009F420E0822F0895AF92BF92CF92DF9288
:10597000EF92FF920F931F93CF93DF931F92CDB7B8
:10598000DEB77C016B018A0159018091AC13811152
:1059900019C0F701808191810E9454E48983F60146
:1059A00081936F01BE016F5F7F4FC5010E94859D8E
:1059B000F701408151814F5F5F4F51834083015018
:1059C000110939F70F90DF91CF911F910F91FF903F
:1059D000EF90DF90CF90BF90AF9008958F929F92FD
:1059E000AF92BF92CF92DF92EF92FF920F931F93ED
:1059F000CF93DF931F921F92CDB7DEB7E091AC1328
:105A0000E1114AC059016C018B017B01E40EF51EC6
:105A10000E151F0509F440C0F60180809180F80141
:105A200061918F016983C4016A830E9454E46A8191
:105A3000681729F1C4010E9493E4C4010E9454E450
:105A400099818917E1F0E8E9F4E284918F010F5F11
:105A50001F4F882321F00E94584AF801F6CFE0E357
:105A6000FBE084918F010F5F1F4F882321F00E947C
:105A7000584AF801F6CF81E08093AC130DC0BE0107
:105A80006F5F7F4FC5010E94859DF60180819181E6
:105A9000019691838083BCCF0F900F90DF91CF91BF
:105AA0001F910F91FF90EF90DF90CF90BF90AF903C
:105AB0009F908F9008950E9421810E945B900E9488
:105AC000349C80E090E00E94FC5581E090E00E94D0
:105AD000FC5582E090E00C94FC550E949477609312
