:100000000C94BD1F0C94EE1F0C94EE1F0C94EE1F6D
:100010000C94EE1F0C94EE1F0C943A980C94EE1F67
:100020000C94EE1F0C94EE1F0C94EE1F0C94EE1F1C
:100030000C94EE1F0C94AF8F0C94EE1F0C94EE1FDB
:100040000C94EE1F0C94374F0C94EE1F0C94EE1F83
:100050000C94EE1F0C94EE1F0C9426ED0C943C6453
:100060000C94EE1F0C9412950C94EE1F0C94EE1F42
:100070000C94EE1F0C94EE1F0C94EE1F0C94EE1FCC
:100080000C94EE1F0C94EE1F0C94EE1F0C94EE1FBC
:100090000C94EE1F0C94EE1F0C94EE1F0C94EE1FAC
:1000A0000C94EE1F0C94EE1F0C94EE1F0C94EE1F9C
:1000B0000C94EE1F0C94EE1F0C94EE1F0C94EE1F8C
:1000C0000C94EE1F0C94EE1F0C94EE1F0C94EE1F7C
:1000D0000C94EE1F0C94EE1F0C94EE1F0C94EE1F6C
:1000E0000C94EE1F0C6015601F60286031604C603E
:1000F000596062603A6043608060836072607660DD
:100100007C60BA6087608B609160956099609F6049
:10011000A360A760BA60AD60B160B56058635D630D
:1001200062636C637663EF638063886390639A6352
:10013000A463AE63BD63C763EF63D163DB63E56351
:10014000084AD73B3BCE016E84BCBFFDC12F3D6C3E
:1001500074319ABD56833DDA3D00C77F11BED9E4A4
:10016000BB4C3E916BAAAABE000000803F05A84C84
:10017000CDB2D44EB93836A9020C50B99186880850
:100180003CA6AAAA2ABE000000803F000D940F0CD6
:100190000D947F0A4E414E494E495459494E46CD21
:1001A000CCCC3D0AD7233C17B7D13877CC2B32952E
:1001B00095E6241FB14F0A000020410000C842000C
:1001C000401C4620BCBE4CCA1B0E5AAEC59D7400D6
:1001D000407A10F35A00A0724E18090010A5D4E816
:1001E0000000E87648170000E40B54020000CA9AA9
:1001F0003B000000E1F505000080969800000040FB
:10020000420F000000A0860100000010270000003F
:1002100000E803000000006400000000000A000085
:100220000000000100000000002C76D888DC674F39
:100230000823DFC1DFAE59E1B1B796E5E3E453C669
:100240003AE651997696E8E6C28426EB898C9B6261
:10025000ED407C6FFCEFBC9C9F40F2BAA56FA5F40B
:1002600090055A2AF75C936B6CF9676DC11BFCE033
:10027000E40D47FEF520E6B500D0ED902E03009486
:100280003577050080841E080000204E0A0000001B
:10029000C80C333333330F986E12831141EF8D2125
:1002A00014893BE65516CFFEE6DB18D1844B381B8C
:1002B000F77C1D901DA4BBE424203284725E228151
:1002C00000C9F124ECA1E53D27434F4D4D554E4962
:1002D000434154494F4E0044525952554E004552E5
:1002E000524F525300494E464F004543484F004736
:1002F000322F47332062616420706172616D6574D2
:100300006572730A0055C59B70696A2E2E2E0059BE
:10031000206F7574206F662072616E6765202831CA
:100320002D32292E0A0058206F7574206F662072B6
:10033000616E67652028312D32292E0A004D6573C4
:10034000682070726F62696E6720646F6E652E0A36
:10035000005374617274206D6573682070726F62EF
:10036000696E6720776974682022473239205331DB
:10037000222066697273742E0A004732380A4732A7
:10038000392053320053746174653A20004D65730F
:100390006820626564206C6576656C696E672068AC
:1003A0006173206E6F20646174612E0A0053206FA8
:1003B0007574206F662072616E67652028302D3558
:1003C000292E0A004D65736820706F696E74206372
:1003D000616E6E6F74206265207265736F6C7665F6
:1003E000640A005072696E746F20483320546F772E
:1003F000657220676F746F77612E00577A6E617730
:1004000069616E6965206472756B75004F637A650A
:100410006B6977616E69652E2E2E004272616B20CA
:10042000727563687500456E642066696C65206C42
:100430006973740A00426567696E2066696C65209D
:100440006C6973740A005344207072696E74696E2B
:1004500067206279746520004E6F742053442070C9
:1004600072696E74696E670A005072696E742074E6
:10047000696D653A20000001363726FF023C3D38A1
:100480000EFF2E303EFF13FF0C0809FFFFFF1A1C62
:1004900018FFFF08440AFF43FFFFFFFFFFFF5072F2
:1004A0006F7465637465642050696E0A006D004660
:1004B000696C616D656E7420757365643A200053D4
:1004C000746174733A20002C204C6F6E67657374EE
:1004D000206A6F623A2000546F74616C2074696DF9
:1004E000653A200053746174733A20002C204661F1
:1004F000696C65643A20002C2046696E69736865F2
:10050000643A20005072696E74733A20005374612B
:1005100074733A2000452569202573005072696E76
:10052000746F20483320546F77657220676F746F43
:1005300077612E00EA02E502DE02D702C9026F6689
:10054000660044454255473A0055626974792E2049
:10055000004D313133205300526F7A67727A616EE9
:100560006F207374C3B3C5820020573A00526F7A6C
:1005700067727A6577616E69652073746FC582757D
:100580002E2E2E002F2F200066696C616D656E7413
:100590003A20007A5F6D61783A2000795F6D696E6C
:1005A0003A2000785F6D61783A20005265706F7272
:1005B00074696E6720656E6473746F702073746104
:1005C0007475730A004B64200023646566696E6568
:1005D000202044454641554C545F004B6920002380
:1005E000646566696E65202044454641554C545FFC
:1005F000004B70200023646566696E6520204445C9
:100600004641554C545F0050494420756B6FF1636F
:100610007A6F6E6F00504944204175746F74756E27
:10062000652066696E697368656421205075742061
:10063000746865206C617374204B702C204B6920AA
:10064000616E64204B6420636F6E7374616E7473AB
:100650002066726F6D2062656C6F7720696E746FB3
:1006600020436F6E66696775726174696F6E2E687C
:100670000A00504944204175746F74756E65206698
:1006800061696C6564212074696D656F75740A0019
:100690005049442062B3B9643A206F76657273683A
:1006A0006F74005049442062B3B964206B616C6977
:1006B000627261636A6900504944204175746F74C5
:1006C000756E65206661696C6564212054656D7086
:1006D0006572617475726520746F6F2068696768F0
:1006E0000A00204B643A2000204B693A2000204B3E
:1006F000703A20000A20436C61737369632050498B
:1007000044200A002054753A2000204B753A2000FE
:10071000206D61783A2000206D696E3A20002064D7
:100720003A200020626961733A20005049442072E7
:100730006F7A706F637AEA746F00426564204C656B
:1007400076656C696E6720004661696C656420742B
:100750006F20656E61626C6520426564204C657631
:10076000656C696E670A004D657368204265642098
:100770004C6576656C20646174613A0A004D3630D0
:100780003020486F74656E6420746F6F20636F6CE7
:100790006420746F206368616E67652066696C61B0
:1007A0006D656E740A004E6F2063617365206C691D
:1007B0006768740A004163746976652045787472CD
:1007C000756465723A2000556E6B6E6F776E2063AC
:1007D0006F6D6D616E643A2022004572726F7220F7
:1007E00077726974696E6720746F20454550524F67
:1007F0004D210A00290A002062797465733B206349
:100800007263200053657474696E67732053746F4C
:10081000726564202800202863616C63756C6174C4
:10082000656429210A0020213D2000454550524F92
:100830004D20435243206D69736D61746368202DB0
:10084000202873746F726564292000290A002062D1
:10085000797465733B2063726320002073746F7238
:1008600065642073657474696E6773207265747251
:100870006965766564202800204D61726C696E3D63
:10088000563339290A0028454550524F4D3D004501
:100890004550524F4D2076657273696F6E206D69B9
:1008A000736D61746368200048617264636F64658E
:1008B000642044656661756C742053657474696E58
:1008C0006773204C6F616465640A008813000088B8
:1008D0001300006400000010270000000096430091
:1008E00000964300004842000020430000A0420060
:1008F00000A042000048440000204320440020495A
:100900000020204D33303420500020440020490086
:1009100020204D33303120500050494420736574FD
:1009200074696E67733A0A0020460020420020482E
:100930000020204D3134352053004D6174657269BB
:10094000616C2068656174757020706172616D659D
:10095000746572733A0A00205A002059002020471B
:10096000323920533320580020204D343230205368
:10097000004D65736820426564204C6576656C693E
:100980006E673A0A00205A0020590020204D32306C
:1009900036205800486F6D65206F66667365743A3F
:1009A0000A00204500205A0020590020580020420B
:1009B0000020540020204D32303520530041647611
:1009C000616E6365643A20533C6D696E5F66656570
:1009D00064726174653E20543C6D696E5F7472612F
:1009E00076656C5F66656564726174653E20423C45
:1009F0006D696E5F7365676D656E745F74696D6553
:100A00005F6D733E20583C6D61785F78795F6A65F1
:100A1000726B3E205A3C6D61785F7A5F6A65726BDB
:100A20003E20453C6D61785F655F6A65726B3E0A8A
:100A30000020540020520020204D3230342050003D
:100A4000416363656C65726174696F6E2028756EB1
:100A50006974732F7332293A20503C7072696E7436
:100A60005F616363656C3E20523C726574726163C2
:100A7000745F616363656C3E20543C74726176659B
:100A80006C5F616363656C3E0A00204500205A007C
:100A900020590020204D3230312058004D617869B6
:100AA0006D756D20416363656C65726174696F6E0D
:100AB0002028756E6974732F7332293A0A00204515
:100AC00000205A0020590020204D32303320580099
:100AD0004D6178696D756D206665656472617465D8
:100AE000732028756E6974732F73293A0A002045A4
:100AF00000205A0020590020204D39322058005340
:100B0000746570732070657220756E69743A0A009E
:100B100020204D3230302044300A0020204D323029
:100B2000302044002044697361626C65640A0046A9
:100B3000696C616D656E742073657474696E67733A
:100B40003A0020204D3134392043203B20556E6936
:100B5000747320696E2043656C736975730A002095
:100B600020473231202020203B20556E69747320AD
:100B7000696E206D6D0A0055626974792E2000201F
:100B80002D20496E76616C69642065787472756495
:100B90006572206E756D62657220210A004D3131DB
:100BA00037204472756B6F77616E69652E2E004D2C
:100BB0003234004D32362053256C75004D313036BD
:100BC0002053004739322045004D3832002046334B
:100BD0003030300020453300205900473120580084
:100BE000204633303030004731205A004D38313202
:100BF0000047312045313020463135303000204625
:100C0000333030300020590047312058004D383300
:100C1000004D3233202573002E67636F0047393251
:100C200020450063757272656E745F706F736974CE
:100C3000696F6E5B455F415849535D3A0063757259
:100C400072656E745F706F736974696F6E5B5A5F03
:100C5000415849535D3A0043757272656E74207055
:100C60006F736974696F6E5B595F415849535D3AA0
:100C70000043757272656E7420706F736974696F6A
:100C80006E5B585F415849535D3A00473120453506
:100C90002046343830004D31393020532564004D22
:100CA00031303920532564004D31303420532564D0
:100CB000002020506C616E6E6572427566666572CA
:100CC00042797465733A20002046726565204D654F
:100CD0006D6F72793A2000436F6D70696C65643A8C
:100CE0002041756720333020323031380A00207CB3
:100CF00020417574686F723A20285072696E746F63
:100D000033642E706C2C204A616B75622053696BC2
:100D10006F7261290A00323031382D30372D313170
:100D20002031323A303000204C61737420557064A9
:100D3000617465643A2000312E322D766C63730A3B
:100D4000004D61726C696E0020536F66747761723A
:100D5000652052657365740A002057617463686486
:100D60006F672052657365740A002042726F776E58
:100D7000206F75742052657365740A00204578747D
:100D800065726E616C2052657365740A00506F77EE
:100D9000657255700A0073746172740A006572722C
:100DA0006F722077726974696E6720746F2066694C
:100DB0006C650A004B72616E63C3B3772E202563A6
:100DC00020256320256320256300205A3A002059FE
:100DD0003A0020583A00656E6473746F707320682F
:100DE00069743A2000446F6E6520736176696E679E
:100DF0002066696C652E0A004D32390024F4D43027
:100E000050C38E20C2A24017828B7011127A910DAE
:100E1000816CD90AA861E108C75866076151430689
:100E20001E4B5D05C145A7041A411104093D9803F5
:100E3000713931034036DB0265339102D4305402FC
:100E4000802E1D02632CEE01752AC501B028A00179
:100E5000102781018F2564012B244B01E0223401EE
:100E6000AC211F018D200D01801FFC00841EED00B0
:100E7000971DDF00B81CD200E61BC600201BBC007B
:100E8000641AB200B219A8000A19A0006A189900E1
:100E9000D117910040178B00B516840031167E00E3
:100EA000B31579003A157300C7146F0058146A001F
:100EB000EE1366008813630025135E00C7125B0003
:100EC0006C12570015125400C111510070114F00DF
:100ED00021114B00D61049008D10470046104400E8
:100EE00002104200C00F4000800F3E00420F3C0045
:100EF000060F3B00CB0E3800930E37005C0E35001A
:100F0000270E3400F30D3200C10D3100900D30007A
:100F1000600D2E00320D2D00050D2C00D90C2B007C
:100F2000AE0C2900850C29005C0C2700350C27002D
:100F30000E0C2600E80B2400C40B2400A00B230099
:100F40007D0B23005A0B2100390B2100180B2000C8
:100F5000F80A1F00D90A1E00BB0A1E009D0A1D00C8
:100F6000800A1D00630A1C00470A1B002C0A1B0094
:100F7000110A1A00F7091A00DD091900C40919003D
:100F8000AB091900920917007B09180063091700C3
:100F90004C09160036091600200916000A0915002A
:100FA000F5081500E0081400CC081400B808140077
:100FB000A4081400900813007D0812006B081300A9
:100FC00058081200460812003408110023081100C6
:100FD0001208110001081100F0071000E0071000CE
:100FE000D0071000C0071000B0070F00A1071000C5
:100FF00091070E0083070F0074070F0065070E00AE
:1010000057070E0049070E003B070D002E070E0084
:1010100020070D0013070D0006070D00F9060C0050
:10102000ED060D00E0060C00D4060C00C8060C000E
:10103000BC060C00B0060C00A4060B0099060C00C0
:101040008D060B0082060B0077060B006C060B006A
:1010500061060A0057060B004C060A0042060A0009
:1010600038060A002E060A0024060A001A060A009C
:101070001006090007060A00FD050900F40509002D
:10108000EB050900E2050900D9050900D0050900B2
:10109000C7050900BE050900B5050800AD05080033
:1010A000A50509009C050800940508008C050800AA
:1010B000840508007C050800740508006C0507001D
:1010C000650508005D050700560508004E05070088
:1010D00047050700400508003805070031050700EF
:1010E0002A050700230507001C0506001605070052
:1010F0000F0507000805060002050700FB040600AF
:10110000F5040700EE040600E8040600E204070008
:10111000DB040600D5040600CF040600C90406005F
:10112000C3040600BD040600B7040600B1040500B0
:10113000AC040600A6040600A00405009B040600FB
:1011400095040500900406008A0405008504050046
:10115000800406007A04050075040500700405008B
:101160006B04050066040500610405005C040500CD
:1011700057040500520405004D040500480405000D
:10118000430405003E0404003A040500350405004C
:10119000300404002C040500270404002304050087
:1011A0001E0404001A0404001604050011040400BF
:1011B0000D040400090405000404040000040400F4
:1011C000FC030400F8030400F4030400F00304002B
:1011D000EC030400E8030400E4030400E00304005B
:1011E000DC030400D8030400D4030400D00304008B
:1011F000CC030400C8030300C503030024F404D98E
:10120000201BC40C5C0E9804C4095F0265077101C1
:10121000F405F900FB04B30048048700C10369002A
:101220005803550003034500BE023A008402310012
:1012300053022A002902250004022000E4011C00B8
:10124000C8011900AF0117009801140084011300B0
:10125000710110006101100051010E0043010D00E9
:1012600036010B002B010B0020010B0015010900BA
:101270000C01090003010800FB000800F30008004E
:10128000EB000700E4000600DE000600D8000600C0
:10129000D2000600CC000500C7000500C200050012
:1012A000BD000400B9000400B5000400B100040052
:1012B000AD000400A9000400A5000300A200030083
:1012C0009F0004009B0003009800030095000200AB
:1012D00093000300900003008D0002008B000300C8
:1012E00088000200860002008400030081000200E2
:1012F0007F0002007D0002007B00020079000200F6
:101300007700010076000200740002007200010004
:10131000710002006F0002006D0001006C0002000D
:101320006A00010069000200670001006600010018
:10133000650001006400020062000100610001001C
:10134000600001005F0002005D0001005C00010020
:101350005B0001005A000100590001005800010023
:101360005700010056000100550001005400010023
:101370005300000053000100520001005100010021
:10138000500001004F0001004E0000004E0001001F
:101390004D0001004C0001004B0000004B0001001B
:1013A0004A00010049000100480000004800010017
:1013B0004700010046000000460001004500000013
:1013C000450001004400010043000000430001000B
:1013D0004200000042000100410000004100010005
:1013E000400001003F0000003F0001003E000000FF
:1013F0003E0001003D0000003D0001003C000000F7
:101400003C0000003C0001003B0000003B000100EC
:101410003A0000003A0001003900000039000100E4
:1014200038000000380000003800010037000000DC
:1014300037000100360000003600000036000100D1
:1014400035000000350000003500010034000000C8
:1014500034000000340001003300000033000000BD
:1014600033000100320000003200000032000100B1
:1014700031000000310000003100010030000000A8
:1014800030000000300001002F0000002F0000009D
:101490002F0000002F0001002E0000002E00000091
:1014A0002E0001002D0000002D0000002D00000086
:1014B0002D0001002C0000002C0000002C0000007A
:1014C0002C0001002B0000002B0000002B0000006E
:1014D0002B0001002A0000002A0000002A00000062
:1014E0002A00010029000000290000002900000056
:1014F0002900000029000100280000002800000049
:10150000280000002800000028000100270000003B
:10151000270000002700000027000000270001002E
:101520002600000026000000260000002600000023
:101530002600010025000000250000002500000015
:101540002500000025000000250001002400000007
:1015500024000000240000002400000024000100FA
:1015600023000000230000002300000023000000EF
:1015700023000000230000002300010022000000DF
:1015800022000000220000002200000022000000D3
:1015900022000100210000002100000021000000C5
:1015A00021000000210000002100000021000100B6
:1015B00020000000200000002000000020000000AB
:1015C000200000002000000020000000200001009A
:1015D0001F0000001F0000001F0000001F0000008F
:1015E0001F0000001F0000001F0001001E0000007F
:1015F0001E0000001E0000001E0000004D383420B8
:10160000582059205A2045006265640A002C207336
:10161000797374656D2073746F70706564212048F0
:1016200065617465725F49443A2000204479737A99
:10163000613A00616279206B6F6E74796E756F77B5
:1016400061C4872E2E2E0069206E616369C59B6E72
:10165000696A2070727A796369736B0057C582C3B7
:10166000B37A2066696C616D656E74005A4D4941AC
:101670004E412046494C414D454E54550020447939
:10168000737A613A00200077C5826FC5BC656E69C8
:10169000652066696C616D656E747500437A656B73
:1016A000616D206E61005A4D49414E412046494CC2
:1016B000414D454E545500204479737A613A0020DB
:1016C00000656B737472757A6AC4992066696C617F
:1016D0006D656E747500437A656B616D206E610097
:1016E0005A4D49414E412046494C414D454E545575
:1016F00000777A6E6F7769656E6965206472756BC5
:101700007500437A656B616D206E61005A4D4941E9
:101710004E412046494C414D454E5455004E696559
:101720000054616B00437A7920777A6E6F77696332
:101730002077796472756B3F0057796B7279746F9B
:10174000207A616E696B206E617069656369610002
:101750005A616E696B207A6173696C616E696100B0
:10176000706F207A616E696B75207A6173696C6144
:101770006E696100577A6E617769616E696520777D
:10178000796472756B75000061627920777A6E6F8B
:101790007769632077796472756B0066696C616D37
:1017A000656E74752069206B6C696B6E696A005593
:1017B00073756E206E61646D696172000042617ABA
:1017C0006F77616E6965206F736900706F207A6151
:1017D0006E696B75207A6173696C616E6961005521
:1017E00072756368616D69616E69650000473238C2
:1017F00000FFE0FFD1AFFF32FFD0FFFEFFE0FFD1DF
:10180000AEFFD0FFFEFFE0FFD11000FFFEFFD0FFD4
:10181000E0FFC1FFD1AED580A83FD300408D14209A
:1018200000A1C8DA1281CFD9F1DB402EA4A6AFFF08
:10183000D0FFFE00002100240027002A002D0030E8
:1018400000330001010000040107010A0100002229
:1018500000250028002B002E00310034000201007A
:1018600000050108010B01000020002300260029CB
:10187000002C002F003200000100000301060109C6
:101880000105050505070508080808020202020A05
:101890000A08080404040401010101010101010313
:1018A00003030303030303040707070C0C0C0C0CCE
:1018B0000C0C0C0202020206060606060606060BC1
:1018C0000B0B0B0B0B0B0B01021020200808102038
:1018D00040102040800201020108040201010204BC
:1018E000081020408080402010080402018004027B
:1018F00001804020100804020108040201010204D2
:101900000810204080010204081020408000000AD6
:101910000B02090C0D0E0807030401000000000073
:1019200000000000000000000000000000000000B7
:101930000000000000000000001211100000000074
:101940000000000000000000000000000000000097
:101950000000004B61727461207573756E69C499E3
:101960007461004B617274612077C5826FC5BC6F72
:101970006E610000060900FE070192032120FFFFAF
:1019800008FE07FF0000000600000107070602002E
:1019900080808080800080030202060105A0A005EF
:1019A00007070600005050F850F85050050707068A
:1019B00000002078A07028F020050707060000C06E
:1019C000C810204098180507070600006090A04046
:1019D000A89068020303060104C0408003070706BD
:1019E000010020408080804020030707060100801E
:1019F00040202020408005050506000120A870A891
:101A0000200505050600012020F82020020303061A
:101A100002FFC04080050101060003F80202020631
:101A20000200C0C005050506000108102040800521
:101A300007070600007088888888887003070706F3
:101A4000010040C040404040E0050707060000702C
:101A50008808708080F8050707060000F81020103D
:101A60000808F005070706000010305090F8101025
:101A7000050707060000F880F008088870050707CA
:101A8000060000708080F088887005070706000057
:101A9000F80810202020200507070600007088881D
:101AA0007088887005070706000070888878080825
:101AB00070020505060200C0C000C0C0020606068E
:101AC00002FFC0C000C040800407070600001020CD
:101AD0004080402010050303060002F800F80407C8
:101AE00007060100804020102040800507070600FF
:101AF0000070880810200020050707060000708885
:101B00000868A8A870050707060000708888F8888C
:101B10008888050707060000F08888F08888F005A7
:101B20000707060000708880808088700507070618
:101B30000000F08888888888F0050707060000F80C
:101B40008080F08080F8050707060000F88080F0AC
:101B5000808080050707060000708880B88888703C
:101B6000050707060000888888F888888801070725
:101B700006020080808080808080050707060000C4
:101B8000381010101090600507070600008890A01C
:101B9000C0A09088050707060000808080808080B4
:101BA000F805070706000088D8A8888888880507F0
:101BB000070600008888C8A89888880507070600D7
:101BC0000070888888888870050707060000F088FC
:101BD00088F080808005070706000070888888A844
:101BE0009068050707060000F08888F0A090880537
:101BF0000707060000788080700808F005070706D0
:101C00000000F8202020202020050707060000887B
:101C10008888888888700507070600008888888873
:101C20008850200507070600008888888888A85003
:101C30000507070600008888502050888805070798
:101C4000060000888888502020200507070600002D
:101C5000F80810204080F8030707060100E08080A4
:101C6000808080E005050506000180402010080303
:101C70000707060100E02020202020E005030306DE
:101C80000004205088050101060000F80202020647
:101C90000205804005050506000070087888780573
:101CA00007070600008080B0C88888F00505050693
:101CB000000070808088700507070600000808682B
:101CC000988888780505050600007088F8807005FA
:101CD00007070600003048E0404040400506060681
:101CE00000FF70888878087005070706000080806C
:101CF000B0C88888880107070602008000808080BD
:101D000080800308080601FF200020202020A0403A
:101D1000040707060000808090A0C0A0900307077A
:101D2000060100C04040404040E0050505060000B7
:101D3000D0A8A8A8A8050505060000B0C88888880E
:101D400005050506000070888888700506060600EF
:101D5000FFF08888F080800506060600FF788888F6
:101D6000780808050505060000B0C88080800505D4
:101D70000506000070807008F004070706000040A8
:101D800040E04040403005050506000088888898FE
:101D900068050505060000888888502005050506A9
:101DA00000008888A8A85005050506000088502076
:101DB00050880506060600FF8888887808700505A3
:101DC00005060000F8102040F80307070601002070
:101DD000404080404020010707060200808080804C
:101DE000808080030707060100804040204040803B
:101DF00005020206000268900000000600000509C6
:101E0000090600FE708888F8888888102005070772
:101E10000600FE7008788878102005080806000083
:101E20001020708880808870050707060000102049
:101E300070808088700509090600FEF88080F080B7
:101E400080F808100507070600FE7088F8807010FB
:101E5000200507070600008090A0C08080F80507D5
:101E60000706000060283060A02070050808060002
:101E70000010A888C8A898888805080806000008E7
:101E80001000B0C888888805080806000010207077
:101E9000888888887005080806000010200070886F
:101EA000888870050808060000107880807008088F
:101EB000F005080806000010200070807008F0058A
:101EC000080806000020F80810204080F8050808DF
:101ED000060000102000F8102040F8050707060053
:101EE00000F80810F84080F80508080600003030B7
:101EF00000F8102040F80000000600000000000676
:101F000000000000000600000000000600000000C5
:101F100000060000000000060000000000060000AF
:101F2000000000060000000000060000000000069F
:101F30000000000000060000000000060000000095
:101F4000000600000000000600000000000600007F
:101F50000107070602008000808080808005070757
:101F60000600002070A8A0A8702005070706000042
:101F7000304040E04050A80505050600008870503C
:101F80007088050707060000885020F820F8200117
:101F90000707060200808080008080800508080610
:101FA00000003048205050209060030101060107D6
:101FB000A0050707060000F888B8B8B888F8050734
:101FC00007060001700878887800F8050505060006
:101FD000012850A05028050303060001F808080254
:101FE00002020602064080050707060000F888A8DE
:101FF0008898A8F8050101060006F8040404060004
:1020000003609090600507070600002020F820205C
:1020100000F804050506000360902040F003050564
:10202000060003E020E020E00202020602064080F3
:102030000508080600FF8888888898E880800507DA
:10204000070600007898987818181802020206020D
:1020500002C0C00202020602FF408003050506001E
:102060000340C04040E005070706000170888888EB
:102070007000F8050505060001A0502850A00507CE
:10208000070600008890A858B8080805070706004A
:10209000008890B848982038050808060000C0401D
:1020A000C048D8380808050707060000200020406F
:1020B0008088700508080600004020007088F888B5
:1020C000880508080600001020007088F888880538
:1020D00008080600002050007088F8888805080865
:1020E0000600006890007088F888880508080600D7
:1020F000005000708888F8888805080806000020CD
:1021000050207088F888880507070600003860A00E
:10211000B8E0A0B80508080600FF708880808870C5
:102120002060050808060000402000F880F080F8D4
:10213000050808060000081000F880F080F805087F
:1021400008060000205000F880F080F80507070618
:1021500000005000F880F080F803080806010080B5
:102160004000E0404040E003080806010020400035
:10217000E0404040E003080806010040A000E040C5
:102180004040E0030707060100A000E0404040E0B7
:10219000050707060000704848E848487005080829
:1021A00006000068900088C8A898880508080600FE
:1021B0000040207088888888700508080600001094
:1021C0002070888888887005080806000020500064
:1021D000708888887005080806000068900070887C
:1021E0008888700508080600005000708888888874
:1021F000700505050600018850205088050808066E
:1022000000FF1070A8A8A8A87040050808060000E4
:1022100040208888888888700508080600001020FB
:102220008888888888700508080600002050008883
:10223000888888700508080600005000888888880B
:1022400088700508080600001020885020202020F3
:102250000509090600FFC040704848704040E0048E
:1022600008080601FF609090A09090E080050808A3
:1022700006000040200070087888780508080600ED
:1022800000102000700878887805080806000020F3
:1022900050007008788878050808060000689000EB
:1022A00070087888780507070600005000700878E5
:1022B0008878050808060000205020700878887883
:1022C000050606060000D02878A0A85005060606D8
:1022D00000FF70808870206005080806000040201C
:1022E000007088F880700508080600001020007053
:1022F00088F880700508080600002050007088F8F3
:10230000807005070706000050007088F880700391
:10231000080806010080400040C04040E003080873
:1023200006010020400040C04040E00308080601CC
:102330000040A00040C04040E0030707060100A0A5
:102340000040C04040E0050707060000A040A01084
:10235000788870050808060000689000B0C8888872
:1023600088050808060000402000708888887005ED
:10237000080806000010200070888888700508088A
:102380000600002050007088888870050808060044
:102390000068900070888888700507070600005064
:1023A0000070888888700505050600012000F80087
:1023B000200507070600FF1070A8A8A870400508B0
:1023C00008060000402000888888986805080806EC
:1023D000000010200088888898680508080600001A
:1023E000205000888888986805070706000050007C
:1023F00088888898680509090600FF1020008888E9
:1024000088F808700407070601FFC040605060406C
:10241000E00508080600FF50008888887808707C6E
:102420003C3E5E2B3D3F2F5B5D3B2C2A225C0050E7
:102430004944204175746F74756E6500504944209D
:102440004175746F74756E65005049442D44005099
:1024500049442D44005049442D49005049442D49D8
:10246000005049442D50005049442D500008204D43
:102470006E6FC5BC6E696B0008204D6E6FC5BC6E7B
:10248000696B0008204D61780008204D61780008D4
:10249000204D61780008204D696E0008204D696E5E
:1024A0000008204D696E005779C5822E0057C582FD
:1024B0002E20004175746F2E2074656D70657261F9
:1024C000747572610055737461772E20726F7A672C
:1024D0002E205045542D470055737461772E20727D
:1024E0006F7A672E204142530055737461772E2016
:1024F000726F7A672E20504C410054656D70657282
:102500006174757261005A617069737A2077207006
:10251000616D69C4996369005374C3B3C582005384
:1025200074C3B3C582005374C3B3C58200447973C6
:102530007A61004479737A61004479737A61004F5B
:1025400062726F7479207769617472616B61004F98
:1025500062726F7479207769617472616B61004F88
:1025600062726F7479207769617472616B61005473
:10257000656D70657261747572610056736B6F6B17
:10258000206D696E0056736B6F6B206D696E00561F
:10259000736B6F6B206D696E00566D696E00566DC2
:1025A000696E00566D696E00566D61782045005663
:1025B0006D6178204500566D6178204500566D614B
:1025C00078205A00566D6178205A00566D61782047
:1025D0005A00566D6178205900566D617820590077
:1025E000566D6178205900566D6178205800566DFF
:1025F0006178205800566D617820580052756368E4
:1026000000416D61784500416D61784500416D6123
:10261000785A00416D61785A00416D6178590041E6
:102620006D61785900416D61785800416D6178584D
:1026300000412D70727A657375C5842E00412D702E
:10264000727A657375C5842E00412D7779636F6644
:10265000616E696500412D7779636F66616E6965AA
:102660000050727A79C59B706965737A656E696589
:102670000050727A79C59B706965737A656E696579
:1026800000527563680000000000000000000000B8
:10269000000000000000000000000000000000003A
:1026A000000000000000000000000000000000002A
:1026B000000000000000000000000000000000001A
:1026C000000000000000000000000000000000000A
:1026D00000000000000000000000000000000000FA
:1026E00000000000000000000000000000000000EA
:1026F00000000000000000000000000000000000DA
:1027000000000000000000000000000000000000C9
:1027100000000000000000000000000000000000B9
:1027200000000000000000000000000000000000A9
:102730000000000000000000000000000000000099
:102740000000000000000000000000000000000089
:102750000000000000000000000000000000000079
:102760000000000000000000000000000000000069
:102770000000000000000000000000000000000059
:102780000000000000000000000000000000000049
:102790000000000000000000000000000000000039
:1027A0000000000000000000000000000000000029
:1027B0000000000000000000000000000000000019
:1027C00000000000F78000FFFFFFFFFFFFFFFFFF9B
:1027D000FFFFFFFC1440018000000000000000002B
:1027E000000000067440011FFFF03FF800000000E9
:1027F000000000021440013FFFF83FFC0000000011
:10280000000000021440013FFFF83FFE7FC1CC03EF
:10281000FFF87F02F780013FFFF8001E7FF1CF0332
:10282000FFF8FF820000013FFFF8000F7FF9CF8320
:10283000FFF9FFC20000013FFFF8000F7079CFC31E
:102840008383E3E20000013FFFF8000F7039CFE31C
:102850008387C1F20000013FFFF8000F7039CFF30A
:10286000838780F20000013DFFF8001E7FF9CFFB57
:102870008387007200000138FFF83FFE7FF1CEFF32
:10288000838700720000013DFFF83FFC7FE1CE7FAF
:10289000838700720000013FFFF83FF073E1CE3FF5
:1028A000838780F20000011FFFF0380071F1CE1F16
:1028B0008387C1F2000001003FC0380070F9CE0FDD
:1028C0008383E3E2000001001FA03800707DCE0783
:1028D0008381FFC2000001000F003800703DCE036D
:1028E0008380FF820000010006003800701DCE01C9
:1028F00083807F0200000100000000000000000053
:10290000000000020000018006000000000000003E
:1029100000000006000000FFE3FFFFFFFFFFFFFFD6
:10292000FFFFFFFC000000000000000000000000AE
:102930000000000000000000000000000000000097
:102940000000000000000000000000000000000087
:102950000000000000000000000000000000000077
:102960000000000000000000000000000000000067
:102970000000000000000000000000000000000057
:102980000000000000000000000000000000000047
:102990000000000000000000000000000000000037
:1029A0000000000000000000000000000000000027
:1029B0000000000000000000000000000000000017
:1029C0000000000000000000000000000000000007
:1029D00000000000000000000000000000000000F7
:1029E00000000000000000000000000000000000E7
:1029F00000000000000000000000000000000000D7
:102A000000000000000000000000000000000000C6
:102A100000000000000000000000000000000000B6
:102A200000000000000000000000000000000000A6
:102A30000000000000000000000000000000000096
:102A40000000000000000000000000000000000086
:102A50000000000000000000000000000000000076
:102A60000000000000000000000000000000000066
:102A70000000000000000000000000000000000056
:102A800000000000000025753A2530327500253021
:102A900032753A253032750025756420253032753F
:102AA0003A25303275001C006300490088808C8014
:102AB0008080410063001C00092000002244224461
:102AC0000000FF092000FF8181422418181FF173C4
:102AD000371FF8ECCE8F0E8CC8E00713317000065C
:102AE0000900FE000000000001090008FE000005CA
:102AF000080806000040F0C8888898781005080883
:102B0000060000C0F88888888888F8050505060052
:102B1000012030F830200508080600002070F82059
:102B2000202020E00509090600FF2070A8A8B88829
:102B30008870200509090600FFE080C0B0A8283091
:102B400028280509090600FFF8A88888888888A829
:102B5000F8050A0A0600FE205050505088A8A888A0
:102B60007003030306000340A040E7BDC35A5AC3E5
:102B7000BDE700000000000000000243616E6E6FC0
:102B80007420656E746572207375626469723A2090
:102B90000053442063617264206F6B0A006F70659C
:102BA0006E526F6F74206661696C65640A00766F9F
:102BB0006C756D652E696E6974206661696C6564FB
:102BC0000A00534420696E6974206661696C0A00CA
:102BD0006175746F25692E670050726F737AC4999E
:102BE000207A72657365746F7761C487004472756B
:102BF0006B61726B61207A6174727A796D2E00500C
:102C000072696E7465722068616C7465642E206BE5
:102C1000696C6C28292063616C6C6564210A005022
:102C20006F7765724C6F73732E2E0A0000004D4350
:102C3000000000000000CB430000A0420000A042C2
:102C40000000F041000000005761726E696E673A43
:102C500020486F6D696E672042756D7020446976FB
:102C600069736F72203C20310A000202040000A048
:102C7000400000A0400000A04000004D4300005272
:102C8000430000CB4301FF015072696E74207061F4
:102C90007573656400004472756B2070727A65729A
:102CA00077616E79004272616B206B61727479009A
:102CB0003E4B617274612053440053746F7000572F
:102CC0007A6E6F7769656E6965005061757A61002B
:102CD0004F206472756B6172636500557374617720
:102CE00069656E69610050727A79676F74756A0000
:102CF0005374726F6A656E696500456B72616E2010
:102D000067C582C3B3776E79004261627973746577
:102D10007070696E67205A004D36303020423000A6
:102D20005A6D6965C5842066696C616D656E740055
:102D30004261627973746570205A0050727A6570CE
:102D4000C58279770050727A6570C58279770050B4
:102D5000727A6570C5827977004F62726F747920DC
:102D60007769617472616B61004F62726F74792070
:102D70007769617472616B61004F62726F74792060
:102D80007769617472616B61005374C3B3C582006B
:102D90005374C3B3C582004479737A610044797374
:102DA0007A61005374C3B3C582205A005374C3B30D
:102DB000C582205A00507265646B6FC59BC4870042
:102DC000507265646B6FC59BC48700507265646BFD
:102DD0006FC59BC487004D656E752067C582C3B300
:102DE000776E650008526F7A67727A656A20414291
:102DF000530008526F7A67727A656A205045542DE5
:102E0000470008526F7A67727A656A20504C410019
:102E100050727A79676F74756A0020496E76616CBA
:102E20006964206578747275646572200000000022
:102E300000000000000000000000004D43000052B0
:102E4000430000CB43206E6F7420656E746572651D
:102E5000642E0A000A4D6561737572656420706F97
:102E6000696E74733A0A005A206F66667365743A25
:102E700020004E756D20582C593A20322C320A0011
:102E80004D3530300046696C652064656C6574654D
:102E9000643A0044656C6574696F6E206661696CA4
:102EA00065642C2046696C653A20006F70656E2061
:102EB0006661696C65642C2046696C653A20002067
:102EC0002F002042403A0020403A005A6173696C5A
:102ED00061637A3A2047656E6572696320323456C1
:102EE0000050726F746F6BC3B3C5823A20312E30BD
:102EF00000507265646B6FC59BC487205553423A7E
:102F000020323530303030005072696E746F204896
:102F100033204D4B53204F4C454400737570706FF8
:102F20007274407072696E746F33642E706C0057E7
:102F3000737061726369653A200046696C616D6502
:102F40006E742053656E736F7200564C43532F504E
:102F50006F7765722050616E6963004D65736820FC
:102F60004C6576656C696E6700456B737472756449
:102F70006572793A2031007777772E7072696E74B6
:102F80006F33642E706C005072696E746F2048331A
:102F900020546F77657200323031382D30372D3143
:102FA000312031323A3030004D61726C696E2076DA
:102FB0002E20312E322D766C6373002B343820375F
:102FC0003932203838302036383200737570706FDF
:102FD0007274407072696E746F33642E706C007A14
:102FE000206E616D693A2000736B6F6E74616B7453
:102FF000756A207369EA00572072617A69652070EA
:10300000726F626C656DF3770057737061726369FC
:10301000650053746174797374796B6900537465D6
:10302000726F776E696B00496E666F726D61636A6D
:1030300065004D656E752067C582C3B3776E650008
:10304000204479737A613A00200057737465637A7B
:10305000004D696E2E2054656D702E20746F3A20DD
:103060003137302E00526F7A67727A2E206E696582
:103070007564616E6500456B7374727564756A2062
:103080007769C49963656A00577A6EC3B377206421
:1030900072756B6F77616E69650057594249455289
:1030A0005A204F50434A453A00204479737A613A96
:1030B0000020007A6D69616EC4992066696C616D4B
:1030C000656E747500437A656B616D206E612000DA
:1030D0005A4D49414E412046494C414D454E54556B
:1030E00000204479737A613A00200077796AC499A4
:1030F0006369652066696C616D656E747500437AFD
:10310000656B616D206E61005A4D49414E4120460C
:10311000494C414D454E545500204479737A613AEB
:1031200000200050726F737AEA20637A656B61E663
:1031300000526F7A67727A6577616E69652064798B
:10314000737A79005A4D49414E412046494C414DD0
:10315000454E545500204479737A613A002000614D
:10316000627920726F7A67727A61E6206479737A85
:10317000EA005763699C6E696A2070727A796369A4
:10318000736B005A4D49414E412046494C414D45D3
:103190004E5455005A727977205665005A727977E5
:1031A000205665005A727977205665005A727977F1
:1031B00020567A005A72797720567A005A727977B7
:1031C000205679005A727977205679005A727977A9
:1031D000205679005A727977205678005A7279779A
:1031E000205678005A7279772056780052756368B5
:1031F000006B726F6B69452F6D6D006B726F6B6941
:10320000452F6D6D006B726F6B695A2F6D6D006B82
:10321000726F6B695A2F6D6D006B726F6B69592FEE
:103220006D6D006B726F6B69592F6D6D006B726FF6
:103230006B69582F6D6D006B726F6B69582F6D6DD8
:103240000052756368005779C5822E0057C5822EDB
:10325000200042C582C48564206B7261C58463C34B
:10326000B3776B69006B726F6B692F6D6D005A726B
:1032700079770050727A79C59B706965737A656E4B
:103280006965005072C499646B6FC59B6369005592
:103290007374617769656E696100022E2E004D6559
:1032A0006E752067C582C3B3776E65000055C5BCD7
:1032B0007974792066696C616D2E3A2000256C6402
:1032C0002E25696D00004E616A64C5822E206472ED
:1032D000756B3A200000437A6173206472756B75D8
:1032E0003A2000557472617479207A6173696C6157
:1032F0006E69613A2000556B6FC584637A6F6E6F9B
:103300003A200057796472756B6F77616E6F3A205F
:103310000053746174797374796B693A2000507248
:103320007A657375C584207720580050727A65736A
:1033300075C584207720590050727A657375C584ED
:103340002077205A00456B737472757A6A61202861
:103350006F732045290050727A657375C5842063A8
:103360006F202E316D6D0050727A657375C58420A3
:10337000636F20316D6D0050727A657375C584205E
:10338000636F2031306D6D0052756368206F736913
:1033900000456B737472757A6A6120286F732045DB
:1033A000290050727A657375C5842077205A0050C1
:1033B000727A657375C584207720590050727A65DA
:1033C0007375C5842077205800456B737472757AC5
:1033D0006A6120286F732045290050727A657375E1
:1033E000C5842077205A0050727A657375C5842091
:1033F0007720590050727A657375C58420772058FC
:103400000050727A79676F74756A0057637A7974BD
:10341000616A207A2070616D69C49963690055738F
:103420007461772E206661627279637A6E65005AE4
:10343000617069737A20772070616D69C4996369DE
:1034400000527563680054656D70657261747572C1
:1034500061004D656E752067C582C3B3776E6500E8
:103460004D353030004D33303320553120452569FE
:1034700020532569005A616177616E736F77616EC1
:1034800065004F62726F7479207769617472616B45
:1034900061004F62726F7479207769617472616B39
:1034A00061004F62726F7479207769617472616B29
:1034B00061005374C3B3C582005374C3B3C58200A3
:1034C0004479737A61004479737A61005573746149
:1034D0007769656E6961005779706F7A696F6D6F92
:1034E00077616E6F210050727A657375C58420779D
:1034F000205A004E617374C499706E792070756E95
:103500006B74002569202F202575005A61637A6548
:103510006B616A2E2E2E004B6C696B6E696A20629D
:103520007920726F7A702E00506F7A79636A612009
:103530007A65726F7761004D343230205330004726
:1035400032380057637A7974616A207A2070616D2D
:1035500069C4996369005A617069737A2077207031
:10356000616D69C499636900506F7A696F6D2E202F
:1035700073746FC58275005779C5822E0057C58256
:103580002E2000506F7A696F6D2E2073746FC58284
:103590007500506F7A79636A61207A65726F77611E
:1035A000004732380050727A79676F74756A004745
:1035B0003238004D38340052756368206F736900EB
:1035C000506F7A696F6D2E2073746FC58275005AC3
:1035D0006D6965C5842066696C616D656E740043B4
:1035E00068C5826F647A656E6965005779C582C463
:1035F00085637A2073696C6E696B6900526F7A67B4
:10360000727A656A00506F7A79636A61207A6572AE
:103610006F7761004D656E752067C582C3B3776EA5
:10362000650053657474696E672054726176656CC9
:1036300020416363656C65726174696F6E3A200046
:1036400053657474696E6720526574726163742087
:10365000416363656C65726174696F6E3A200053F3
:10366000657474696E67205072696E74204163637B
:10367000656C65726174696F6E3A2000536574748D
:10368000696E67205072696E7420616E6420547296
:103690006176656C20416363656C65726174696F06
:1036A0006E3A2000205A00205900580020204D6119
:1036B000783A2000205A00205900580020204D69F7
:1036C0006E3A200057C5822E20005779C5822E0001
:1036D000536F667420656E6473746F70733A200064
:1036E00020643A0020693A0020703A0020643A00D1
:1036F00020693A0020703A0043290A0061626C6533
:103700006420286D696E2074656D702000436F6CB5
:103710006420657874727564657320617265200039
:103720004D65736820706F696E742063616E6E6F93
:1037300074206265207265736F6C7665640A004D53
:1037400034323120696E636F727265637420706108
:1037500072616D657465722075736167650A0050EA
:103760006F7A2E207A65726F7761207573742E00E0
:103770004572723A20546F6F206661722100546F57
:103780006F206661722066726F6D20726566657269
:10379000656E636520706F696E740A0043616E6EBA
:1037A0006F74206F70656E2073756264697220009B
:1037B000656E7175657565696E6720220065636861
:1037C0006F3A006F6B0020746F6F206C6F6E672014
:1037D000657874727573696F6E2070726576656E48
:1037E0007465640A0020636F6C6420657874727578
:1037F00073696F6E2070726576656E7465640A0019
:10380000627573793A2070617573656420666F72B2
:1038100020696E7075740A00627573793A20706160
:103820007573656420666F7220757365720A006235
:103830007573793A2070726F63657373696E670A86
:10384000004D3630300055626974792E20004B49A6
:103850004C4C20636175736564206279204B494C40
:103860004C20627574746F6E2F70696E0A00556219
:103870006974792E20004B494C4C20636175736547
:103880006420627920746F6F206D75636820696EA3
:103890006163746976652074696D65202D20637598
:1038A0007272656E7420636F6D6D616E643A200094
:1038B00020746F6F206C6F6E6720657874727573FB
:1038C000696F6E2070726576656E7465640A00209B
:1038D000636F6C6420657874727573696F6E2070A5
:1038E000726576656E7465640A006F6B00526F7A5C
:1038F00067727A616E6F0020573A0045256920256E
:1039000073005072696E746F20483320546F77656E
:103910007220676F746F77612E004D3134352053FC
:103920003C696E6465783E206F7574206F66207206
:10393000616E67652028302D31290A005072696E4A
:10394000746F20483320546F776572205779C58291
:103950002E2E00205A3A0020423A0020436F756E06
:103960007420413A0020453A00205A3A0020593A42
:1039700000583A004361703A454D455247454E4321
:10398000595F5041525345523A300A004361703AF0
:10399000434153455F4C494748545F425249474869
:1039A000544E4553533A300A004361703A544F47DE
:1039B000474C455F4C49474854533A300A004361ED
:1039C000703A534F4654574152455F504F574552F6
:1039D0003A300A004361703A4C4556454C494E47CF
:1039E0005F444154413A310A004361703A5A5F5092
:1039F000524F42453A300A004361703A4155544FA4
:103A00004C4556454C3A300A004361703A50524991
:103A10004E545F4A4F423A310A004361703A505265
:103A20004F47524553533A300A004361703A41556B
:103A3000544F5245504F52545F54454D503A310AFD
:103A4000004361703A454550524F4D3A310A0046A5
:103A500049524D574152455F4E414D453A4D617275
:103A60006C696E20312E322D766C63732028476985
:103A7000746875622920534F555243455F434F4444
:103A8000455F55524C3A68747470733A2F2F6769CA
:103A9000746875622E636F6D2F4D61726C696E462E
:103AA00069726D776172652F4D61726C696E20501D
:103AB000524F544F434F4C5F56455253494F4E3A25
:103AC000312E30204D414348494E455F54595045B1
:103AD0003A5072696E746F20483320546F77657264
:103AE0002045585452554445525F434F554E543A21
:103AF0003120555549443A63656465326132662D1B
:103B0000343161322D343734382D396231322D63FE
:103B100035356336326633363766660A004D3234E1
:103B2000004D32332025730057726974696E672027
:103B3000746F2066696C653A20006F70656E206650
:103B400061696C65642C2046696C653A20006F7071
:103B5000656E206661696C65642C2046696C653A07
:103B6000200046696C652073656C65637465640A42
:103B7000002053697A653A200046696C65206F70B1
:103B8000656E65643A20006F70656E206661696CD1
:103B900065642C2046696C653A20002066696C6576
:103BA0003A20004E6F7720002220706F7300222091
:103BB000706172656E743A2200535542524F5554EB
:103BC000494E452043414C4C207461726765743AFC
:103BD000220055626974792E2000747279696E67CB
:103BE00020746F2063616C6C207375622D67636F46
:103BF00064652066696C6573207769746820746FEA
:103C00006F206D616E79206C6576656C732E204D2A
:103C10004158206C6576656C2069733A0045727274
:103C20006F723A005A616E696B2074656D702E0078
:103C3000546865726D616C2052756E6177617900B0
:103C4000526F7A67727A2E206E69657564616E654F
:103C50000048656174696E67206661696C6564001F
:103C600070012C0190012701B0012201C0011D014A
:103C7000F00118011002130130020E016002090167
:103C800090020401C002FF000003FA004003F500A7
:103C90008003F000D003EB002004E6007004E10094
:103CA000E004DC004005D700C005D2004006CD008E
:103CB000D006C8008007C3003008BE00F008B90075
:103CC000C009B400B00AAF00B00BAA00D00CA50028
:103CD000000EA000500F9B00C010960050129100E3
:103CE00000148C00C0158700B0178200B0197D0049
:103CF000D01B7800001E730040206E0090226900E7
:103D0000F024640040275F0090295A00E02B550002
:103D1000102E500020304B0010324600E03341009E
:103D200090353C001037370070383200A0392D0034
:103D3000B03A2800A03B2300603C1E00103D190053
:103D4000903D1400103E0F00703E0A00C03E05007A
:103D5000003F0000403FFBFF803FF6FFC03FF1FF08
:103D6000457272206D696E2074656D702073746F7A
:103D7000C5827500457272206D696E2074656D7024
:103D8000004D494E54454D50207472696767657205
:103D9000656400457272206D61782074656D7020D5
:103DA00073746FC5827500457272206D61782074DE
:103DB000656D70004D415854454D502074726967CF
:103DC0006765726564002569730025696D20256942
:103DD00073002569682025696D20256973002569B0
:103DE00064202569682025696D202569730025698F
:103DF0007920256964202569682025696D20256959
:103E000073004E6F204C696E65204E756D62657251
:103E1000207769746820636865636B73756D2C2007
:103E20004C617374204C696E653A20005562697468
:103E3000792E20005A6174727A796D616E792E2024
:103E4000005072696E7465722073746F707065646F
:103E50002064756520746F206572726F72732E20F6
:103E600046697820746865206572726F7220616E91
:103E70006420757365204D39393920746F2072655F
:103E800073746172742E202854656D70657261744C
:103E90007572652069732072657365742E20536591
:103EA0007420697420616674657220726573746130
:103EB0007274696E67290A004E6F20436865636BF0
:103EC00073756D2077697468206C696E65206E75F6
:103ED0006D6265722C204C617374204C696E653A7A
:103EE0002000636865636B73756D206D69736D6128
:103EF0007463682C204C617374204C696E653A20A1
:103F0000004C696E65204E756D6265722069732084
:103F10006E6F74204C617374204C696E65204E7511
:103F20006D6265722B312C204C617374204C696E6C
:103F3000653A20004D313130004D3331004D383479
:103F400020582059205A204500534420726561644E
:103F5000206572726F720A00446F6E65207072691C
:103F60006E74696E672066696C650A0052657365D8
:103F70006E643A200000C600C80011241FBECFEFB7
:103F8000D1E2DEBFCDBF00E00CBF14E0A0E0B2E0A4
:103F9000ECE5F9E302E00BBF02C007900D92AC37ED
:103FA000B107D9F72BE1ACE7B4E001C01D92AB3407
:103FB000B207E1F71FE1CCEBDFE100E006C021979B
:103FC0000109802FFE010F94171CCB3BD10780E025
:103FD0000807A9F70E944AFE0D949D1C0C9400004E
:103FE0002F923F924F925F926F927F928F929F9209
:103FF000AF92BF92CF92DF92EF92FF920F931F93F7
:10400000CF93DF93CDB7DEB7CC57D1090FB6F89475
:10401000DEBF0FBECDBF0091990C20E6029F80014C
:104020001124075E1A4F8091881380FF1AC0EDEBB0
:10403000F7E384917F013FEFE31AF30A811102C095
:10404000780104C00E94F393F701F3CFD7018D915B
:104050007D01882319F00E94F393F8CF8AE00E9433
:10406000F39381E090E09093DA048093D904109266
:104070009B0410929A048FE38093B3041092B204CD
:104080001092B10410929604109297041092980422
:1040900010929904F80180810F5F1F4F8032D1F395
:1040A0008E34B1F4818190ED980F9A3020F08D32EA
:1040B00011F08B3269F43296DF0131962C91205346
:1040C0002A30D0F3CD01FC01019620812032D9F3B2
:1040D000F093001AE093FF197F01BFEFEB1AFB0A80
:1040E00010816AE270E0C7010F94651C009731F0FF
:1040F000FC01319780818032E1F311821D3429F077
:10410000143519F0173409F0CBC0F70180812FEF77
:10411000E21AF20A8032C9F380538A3008F0C0C034
:104120001093B3042091B1043091B2044AE0319667
:10413000429FC001439F900D1124DF0111972C91E4
:10414000022E000C330B20533109280F391F8081B8
:1041500080538A3060F33093B2042093B104DF01BE
:1041600031968C918032D9F31D34D1F42E31310542
:1041700091F03CF42731310571F02C31310581F497
:104180000AC02537310564F02737310524F0203A7D
:1041900043E0340729F4B0939B04A0939A0480C0B1
:1041A00010929B0410929A040091FF1941E050E094
:1041B000FD0131968C91882309F472C08132A1F4FB
:1041C0001D3491F42032310579F4F0939B04E0938F
:1041D0009A0463E270E0CF010F94651C009709F424
:1041E0005FC0DC011C925CC09FEBD92ED80E69E148
:1041F000C62ECD14C0F1BF01FB0190816F5F7F4FD0
:104200009032D1F360ED690F6A3040F063ED690FD1
:10421000623020F09B3211F00C94DB39BF01AD2CE1
:10422000B12C7501A3E0F594E794AA95E1F7C701D5
:104230008A569B4F7C018D2D8770DA0102C0AA0F30
:10424000BB1F8A95E2F7CD01D7019C91892B8C93F6
:104250006115710511F0601B01C060E0D501A45823
:10426000BB4F6C930AC080919A0490919B04892B58
:1042700021F4B0939B04A0939A04808181548A31E5
:1042800010F4DF0195CFDF0131969C9190539A3065
:10429000D0F3CD01FC01019660816032D9F3F1CFFA
:1042A0008091B3048D3411F40C948F2A843511F469
:1042B0000C947839873411F00C94BA398091B10498
:1042C0009091B2048C31910509F4D0C57CF484300E
:1042D00091053CF48230910574F597FF20C00C9451
:1042E000D439049709F47BC50C94D4398A359105E7
:1042F00009F4FAC754F48D31910509F4BCC58A97C5
:1043000011F40C94F1290C94D4398B35910509F4EE
:10431000EFC78C35910509F4F0C70C94D43980911E
:104320000E02882311F40C94D4390E941EA20E941C
:10433000ABD00C94D43920910E02222311F40C94AA
:10434000D43911E0029709F010E00E941EA282E524
:104350000E9431F5882309F436C10E94CFF46B0125
:104360007C014090C3125090C4126090C5127090AE
:10437000C6122091C7123091C8124091C9125091B3
:10438000CA122CA73DA74EA75FA78091C4049091A5
:10439000C504A091C604B091C70488AB99ABAAAB81
:1043A000BBAB2091C8043091C9044091CA0450911C
:1043B000CB0428AF39AF4AAF5BAF20E030E0A901B2
:1043C000C701B6010F944312882309F4EEC4A30178
:1043D000920168A979A98AA99BA90F944312811116
:1043E0000DC02CA53DA54EA55FA568AD79AD8AADE4
:1043F0009BAD0F944312882309F4D7C420E030E02A
:10440000A901C701B6010F944312881F8827881F8E
:1044100018130BC080E090E0A0E8BFE328968CAFB3
:104420009DAFAEAFBFAF28970AC020E030E040E8B4
:104430005FEB28962CAF3DAF4EAF5FAF2897A3013F
:10444000920168A979A98AA99BA90F9405196CAF53
:104450007DAF8EAF9FAF2CA53DA54EA55FA568ADE6
:1044600079AD8AAD9BAD0F94051924966CAF7DAFE5
:104470008EAF9FAF24972CAD3DAD4EAD5FADCA0161
:10448000B9010F94A8124B015C0124962CAD3DADEF
:104490004EAD5FAD2497CA01B9010F94A8129B01DC
:1044A000AC01C501B4010F9406190F94731B6CABDA
:1044B0007DAB8EAB9FAB20E030E040E05FE30F943C
:1044C000A8124B015C01A7019601C701B6010F9428
:1044D000A8126B017C01A5019401C501B4010F94E0
:1044E000A8129B01AC01C701B6010F9405190F94E6
:1044F000731B9B01AC0128966CAD7DAD8EAD9FAD5D
:1045000028970F94A8124B015C0128A939A94AA940
:104510005BA9C301B2010F94061920E030E040E02E
:104520005FE30F94A8126B017C0124966CAD7DAD06
:104530008EAD9FAD249790582CA93DA94EA95FA997
:104540000F94E2199B01AC01C501B4010F94A812AC
:104550009B01AC01C701B6010F940619A30192019A
:104560000F9405196B017C0128AD39AD4AAD5BADE7
:104570006CA57DA58EA59FA50F94061920E030E0BF
:1045800040E05FE30F94A8122B013C012CA93DA948
:104590004EA95FA96CAD7DAD8EAD9FAD0F94E219B4
:1045A0009B01AC01C501B4010F94A8129B01AC01A1
:1045B000C301B2010F9406192CA53DA54EA55FA518
:1045C0000F94051914C089E40E9431F5882329F05D
:1045D0000E94CFF46B017C0103C0C12CD12C760169
:1045E0008AE40E9431F58823D9F00E94CFF468AFA5
:1045F00079AF8AAF9BAF20E030E0A901C701B601D7
:104600000F94431281111AC020E030E0A90168AD77
:1046100079AD8AAD9BAD0F94431281110FC0C5C314
:1046200020E030E0A901C701B6010F9443128823AE
:1046300009F4BBC318AE19AE1AAE1BAED701C60142
:10464000B0588CA79DA7AEA7BFA728AD39AD4AAD7E
:104650005BAD505828AB39AB4AAB5BAB9C01AD01AD
:10466000BC01CD010F94A8124B015C0128A939A906
:104670004AA95BA9CA01B9010F94A8129B01AC0118
:10468000C501B4010F9406190F94731B6C966CAF9F
:104690007DAF8EAF9FAF6C978091C3129091C41283
:1046A000A091C512B091C6128CAB9DABAEABBFABA7
:1046B000A7019601BC01CD010F94061928966CAF95
:1046C0007DAF8EAF9FAF28972091C7123091C8124F
:1046D0004091C9125091CA1224962CAF3DAF4EAFF3
:1046E0005FAF249728AD39AD4AAD5BAD24966CAD74
:1046F0007DAD8EAD9FAD24970F9406192C966CAFAF
:104700007DAF8EAF9FAF2C978091C4049091C5046C
:10471000A091C604B091C70460968CAF9DAFAEAFB8
:10472000BFAF609728962CAD3DAD4EAD5FAD2897DD
:10473000BC01CD010F9405196B017C012091C804C7
:104740003091C9044091CA045091CB0464962CAFB7
:104750003DAF4EAF5FAF64972C962CAD3DAD4EADE7
:104760005FAD2C9764966CAD7DAD8EAD9FAD6497BB
:104770000F9405194B015C018091CB129091CC12E2
:10478000A091CD12B091CE1268968CAF9DAFAEAF16
:10479000BFAF68979C01AD016091CC047091CD04CE
:1047A0008091CE049091CF040F9405196CAF7DAF2A
:1047B0008EAF9FAF2091D0043091D1044091D204AC
:1047C0005091D304A0962CAF3DAF4EAF5FAFA097F2
:1047D0008091CF129091D012A091D112B091D212AB
:1047E000A4968CAF9DAFAEAFBFAFA497A7019601C3
:1047F0006CA57DA58EA59FA50F94A8122B013C0149
:10480000A501940168A979A98AA99BA90F94A81266
:104810009B01AC01C301B2010F9406192B013C01AD
:10482000A50194016CA57DA58EA59FA50F94A81246
:104830004B015C01A701960168A979A98AA99BA9E6
:104840000F94A8129B01AC01C501B4010F94051986
:10485000A30192010F9479196B017C0120E030E0F3
:10486000A9010F94431287FF0AC02BED3FE049ECEA
:1048700050E4C701B6010F9406196B017C011123A6
:1048800051F02BED3FE049EC50E4C701B6010F9425
:1048900005196B017C0120E030E0A901C701B601D8
:1048A0000F944312811126C060962CAD3DAD4EADE4
:1048B0005FAD60976CA97DA98EA99FA90F94431243
:1048C000811118C064962CAD3DAD4EAD5FAD6497BF
:1048D00024966CAD7DAD8EAD9FAD24970F944312A1
:1048E000811108C0EBEDCE2EEFE0DE2EE9ECEE2ECE
:1048F000E0E4FE2E6C962CAD3DAD4EAD5FAD6C97F9
:10490000C701B6010F94A8129B01AC010F94A81225
:104910004B015C012CAD3DAD4EAD5FADCA01B9019F
:104920000F94A8129B01AC01C501B4010F940619A4
:104930000F94731B4B015C012FE632E143E85AE30D
:104940000F94431287FD2DC2C501B4010F947B1A49
:104950000F944F1A1B01672B19F422242394312C36
:10496000B10180E090E00F9447124B015C019B0184
:10497000AC01C701B6010F94E2196CAB7DAB8EABF5
:104980009FABA50194016CAD7DAD8EAD9FAD0F9435
:10499000E2196C966CAF7DAF8EAF9FAF6C97A4960B
:1049A0002CAD3DAD4EAD5FADA497A0966CAD7DAD89
:1049B0008EAD9FADA0970F940519A50194010F949A
:1049C000E219A0966CAF7DAF8EAF9FAFA0972CA9D8
:1049D0003DA94EA95FA9CA01B9010F94A81220E010
:1049E00030E040E05FE30F94A8129B01AC0160E06F
:1049F00070E080E89FE30F94051960966CAF7DAF7F
:104A00008EAF9FAF609768962CAD3DAD4EAD5FAD5C
:104A1000689729873A874B875C87A4968CAD9DADB4
:104A2000AEADBFADA4978D879E87AF87B88B6091E1
:104A3000780270917902072E000C880B990B0F9465
:104A40004912209197023091980240919902509119
:104A50009A020F94A8122AE037ED43E25CE30F9428
:104A6000A81264966CAF7DAF8EAF9FAF64970E9423
:104A700030649B01AC0128533F4F4F4F5F4F689606
:104A80002CAF3DAF4EAF5FAF68974CA45DA46EA452
:104A90007FA441E050E022965FAF4EAF229759E1EC
:104AA0005CAF2296AEADBFAD2297A215B30509F457
:104AB0003AC10E9400F00E943064DC01CB0168968C
:104AC0002CAD3DAD4EAD5FAD6897821B930BA40B33
:104AD000B50BB7FD11C00E9430649B01AC01285397
:104AE0003F4F4F4F5F4F68962CAF3DAF4EAF5FAF1C
:104AF000689780E00E9430CC3CAD31503CAF33230E
:104B000009F441C060962CAD3DAD4EAD5FAD6097F0
:104B100068A979A98AA99BA90F94A8126B017C01A5
:104B20002CA93DA94EA95FA9B201C3010F94A812F7
:104B3000A70196010F9406196B017C0160962CADBC
:104B40003DAD4EAD5FAD6097B201C3010F94A812A9
:104B50004B015C012CA93DA94EA95FA968A979A9BF
:104B60008AA99BA90F94A8129B01AC01C501B401AD
:104B70000F9405192B013C01C601D70188AB99ABF5
:104B8000AAABBBAB53C022964EAD5FAD2297BA0124
:104B900080E090E00F9447122CA93DA94EA95FA98F
:104BA0000F94A8124B015C010F94DF196B017C017B
:104BB000C501B4010F94691B4B015C01A70196016B
:104BC0006CA57DA58EA59FA50F94A8122B013C0175
:104BD000A501940168AD79AD8AAD9BAD0F94A81283
:104BE0009B01AC01C301B2010F9406192B013C01DA
:104BF000A50194016CA57DA58EA59FA50F94A81273
:104C00004B015C01A701960168AD79AD8AAD9BAD02
:104C10000F94A8129B01AC01C501B4010F940519B2
:104C200068AB79AB8AAB9BAB59E15CAF9201A30156
:104C300028966CAD7DAD8EAD9FAD28970F9406196B
:104C400069837A838B839C8328A939A94AA95BA9A4
:104C50002C966CAD7DAD8EAD9FAD2C970F94061943
:104C60006D837E838F8398876C962CAD3DAD4EAD62
:104C70005FAD6C9769857A858B859C850F94061945
:104C800069877A878B879C87A0962CAD3DAD4EAD0A
:104C90005FADA0976D857E858F8598890F940619E5
:104CA0006D877E878F87988BCE0101960E9456D0A4
:104CB000C090F41389819A81AB81BC8188A399A3A8
:104CC000AAA3BBA38D819E81AF81B8858CA39DA330
:104CD000AEA3BFA389859A85AB85BC8588A799A714
:104CE000AAA7BBA7CE0180960E9406F66496ECACFC
:104CF000FDAC0EAD1FAD64979E01235F3F4FAE012B
:104D0000485D5F4FBE016C5D7F4FCE0180960E9473
:104D1000CCD122968EAD9FAD2297019622969FAF61
:104D20008EAF2297BECEC090F4138091C4049091B0
:104D3000C504A091C604B091C70488A399A3AAA3EF
:104D4000BBA38091C8049091C904A091CA04B091FA
:104D5000CB048CA39DA3AEA3BFA38091CC04909160
:104D6000CD04A091CE04B091CF0488A799A7AAA79B
:104D7000BBA7CE0180960E9406F66496ECACFDAC13
:104D80000EAD1FAD649720ED34E0AE01485D5F4F7E
:104D9000BE016C5D7F4FCE0180960E94CCD10E94F7
:104DA00046A40E940EF60C94D439EDE1FCE3849104
:104DB0008F010F5F1F4F882321F00E94F393F801AA
:104DC000F6CFEFEEF2E084918F010F5F1F4F882343
:104DD00011F40C94D4390E94F393F801F4CF80E5D8
:104DE0000E9431F5882329F00E948FF46B017C0129
:104DF00003C0C12CD12C760183E50E9431F58823B4
:104E000061F00E94CFF420E030E04AE754E40F94D0
:104E1000A8120F944F1A6B017C010E94E94E0E9468
:104E20000EF68091011A9091021AA091031AB09186
:104E3000041AC80ED91EEA1EFB1E80913002811191
:104E400005C060E085E093E00E94706D0E943064D0
:104E5000DC01CB018C199D09AE09BF09B7FD02C069
:104E60000C94D43980E00E9430CCF0CF80E00E94D6
:104E700098A30C94D43983E50E9431F5882319F066
:104E80000E94AFF401C080E0863070F0EDEAF3E0FC
:104E900084918F010F5F1F4F882311F40C94D43934
:104EA0000E94F393F801F4CF823009F443C0A0F4D8
:104EB0008823E9F0813009F013C20E94E193109237
:104EC0000102109200028AE793E090934F1A8093B8
:104ED0004E1A0E9472F704C2843009F4F2C108F439
:104EE00090C1853009F0FCC10E9480A3F9C1809176
:104EF000041480FF13C00E948AF4811103C06CE384
:104F000073E002C066E373E085E893E00E945971A4
:104F10008AE00E94F3930F94F60AE2C10DE813E0D1
:104F2000F8018491882309F4DBC10F5F1F4F0E94B1
:104F3000F393F6CF209100023091010237FF0EC0AB
:104F4000E1E5F3E084918F010F5F1F4F882311F497
:104F50000C94D4390E94F393F801F4CF2115310554
:104F600029F48091880280939F0431C08FEF820FD3
:104F7000982F917897FF03C091509E6F9F5FE92F04
:104F800087FD8F5F859580FF02C0E1E0E91BEE0F92
:104F9000FF0BE80FF11D87FDFA95EE0FFF1FEE0FD7
:104FA000FF1FEC51FC4E8091CB129091CC12A0913E
:104FB000CD12B091CE1280839183A283B38380916E
:104FC0009F0480938802243031050CF0CAC0822FE0
:104FD000817887FF03C081508E6F8F5FA82EA22F2C
:104FE00027FF02C0A1E0A20FBA2EB594B0FE03C005
:104FF000A1E0AA2EA81AC0909702D0909802E09043
:105000009902F0909A0200E41CE2F80185919591D2
:10501000A591B4918093970290939802A0939902DE
:10502000B0939A0220E030E0A9016091FD137091E5
:10503000FE138091FF13909100140F94061920E045
:1050400030E040EA50E40F9406196093CB1270935D
:10505000CC128093CD129093CE120F94B80B85E5AD
:1050600095E5A5E0B3E48093970290939802A0930E
:105070009902B0939A02FA2D24E0F202D001112491
:10508000A856B94E2091F5133091F6134091F713BD
:105090005091F8136D917D918D919C910F9406190B
:1050A0006093C3127093C4128093C5129093C6127A
:1050B0003B2D44E03402D0011124A057B94E209179
:1050C000F9133091FA134091FB135091FC136D9139
:1050D0007D918D919C910F9406196093C7127093E6
:1050E000C8128093C9129093CA120F94B80BF8019A
:1050F00085919591A591B491809397029093980290
:10510000A0939902B0939A0220E030E0A901609147
:10511000FD137091FE138091FF13909100140F9472
:1051200006196093CB127093CC128093CD1290939A
:10513000CE120F94B80BC0929702D0929802E092D0
:105140009902F0929A020E94E94E10928802809190
:105150000002909101020196909301028093000257
:10516000BFC020E030E0A9016091FD137091FE13F3
:105170008091FF13909100140F94061920E030E005
:1051800040EA50E40F9406196093CB127093CC124E
:105190008093CD129093CE120F94B80B0E94E94EDB
:1051A0008FEF9FEF9093010280930002EDE3F3E015
:1051B00084918F010F5F1F4F882321F00E94F3938A
:1051C000F801F6CF83E992E09A83898304E610E040
:1051D00019A308A3BE016F5F7F4FCE0180960E9486
:1051E00002E88AEB92E09A83898319A308A3BE019F
:1051F0006F5F7F4FCE0180960E9402E80E9435A427
:105200006FC088E50E9431F58823A1F00E949FF4C9
:105210001FEF160F1230A8F0E6E2F3E084918F0141
:105220000F5F1F4F882311F40C94D4390E94F3931D
:10523000F801F4CF88E50E94F3930F94A80B0C9427
:10524000D43989E50E9431F58823A1F00E949FF4AA
:105250000FEF060F0230A8F0EFE0F3E084918F012A
:105260000F5F1F4F882311F40C94D4390E94F393DD
:10527000F801F4CF89E50E94F3930F94A80B0C94E6
:10528000D4398AE50E9431F58823A1F00E94CFF439
:10529000E12FEE0FFF0BE00FF11D07FDFA95EE0F6A
:1052A000FF1FEE0FFF1FEC51FC4E60837183828362
:1052B000938316C08AE50E94F3930F94A80B0C9475
:1052C000D4398AE50E9431F58823A1F30E94CFF4F6
:1052D00060938E1370938F13809390139093911318
:1052E0000E94C9E00C94D43910929E040C94D439D5
:1052F00081E080939E040C94D43985E40E9431F5BA
:10530000B82E811102C00E94E94E28EB822E22E0C5
:10531000922E33ECC32E32E1D32E41EFE42E42E144
:10532000F42E00E010E0A12CD4018D914D010E94DB
:1053300031F58823F1F1F6012081318142815381D9
:10534000EA962FAFEA97EB963FAFEB97EC964FAF0D
:10535000EC97ED965FAFED970E94CFF4D6016D9379
:105360007D938D939C931397EA962FADEA97EB96D6
:105370003FADEB97EC964FADEC97ED965FADED97AB
:1053800003301105B1F00F9405199B01AC01F70131
:1053900060817181828193810F940619D7016D9389
:1053A0007D938D939C931397C8010E94ABA4AA246C
:1053B000A3940F5F1F4FB4E0CB0ED11CE4E0EE0EC0
:1053C000F11C0430110509F0AFCFAA2019F00E949A
:1053D0008FFA03C0B1100E94788E0E94C9E00C942D
:1053E000D43980910E02882311F40C94D43989E4C5
:1053F0000E9431F5F82E882321F00E949FF4062F99
:1054000001C000E08AE40E9431F5E82E882331F0E3
:105410000E949FF4162FF11004C00AC010E0FF2074
:10542000B1F0023010F40C94DF3CE4ECF3E003C084
:105430001230D8F70CC084918F010F5F1F4F882363
:1054400011F40C94D4390E94F393F801F4CF0E9424
:105450008EA3FF20E1F024E00202F0011124E856BF
:10546000F94E2091F5133091F6134091F7135091B6
:10547000F81360817181828193810F940619609382
:10548000C4047093C5048093C6049093C704EE20AF
:10549000E1F034E01302F0011124E057F94E2091BD
:1054A000F9133091FA134091FB135091FC13608172
:1054B0007181828193810F9406196093C80470935F
:1054C000C9048093CA049093CB0480E50E9402F53E
:1054D00081110E94C0F486E40E9431F58823D9F03E
:1054E0000E94CFF46B017C0120E030E0A9010F9411
:1054F0002D1B181684F420E030E040E752E4C70189
:10550000B6010F94E219609397027093980280930A
:10551000990290939A020E94ABD00C94D439809156
:10552000B1049091B2048537910509F458C60CF086
:10553000C8C08D34910509F4D6C30CF058C0893128
:10554000910509F4BBC21CF58431910509F452C2DE
:105550007CF48131910509F43BC22CF4029708F4E4
:10556000ADC10C94D439429709F42BC60C94D439AC
:105570008631910509F487C20CF481C28731910507
:1055800009F487C2489709F48EC20C94D4398F313C
:10559000910509F439C394F48B31910509F4A4C23F
:1055A0000CF494C28C31910509F4DAC24E9711F0D3
:1055B0000C94D4390E9471A00C94D4398A3291058C
:1055C00009F44EC32CF4809709F4D4C20C94D43956
:1055D0008B34910509F483C38C34910511F00C943C
:1055E000D4398EEB96E10E94C64D0C94D4398A369C
:1055F000910509F4D6C5ECF58435910509F4E1C5AA
:10560000CCF48135910509F4D4C534F48E34910578
:1056100009F46DC30C94D4398235910509F4CDC5D4
:105620008335910511F00C94D43981E08093E81210
:105630000C94D4398C35910509F4C7C54CF48535E3
:10564000910511F00C94D4390E9426E20C94D439BF
:105650008836910509F45DC48936910511F00C94E2
:10566000D4390E943BE51092DA041092D9040C94CC
:10567000E63C8F36910509F4B6C484F48C36910566
:1056800009F41DC50CF491C58D36910509F46BC55F
:105690008E36910509F494C40C94D4398137910560
:1056A00009F415C50CF40FC58237910509F491C5AD
:1056B0008337910511F00C94D4390E9440E00C948A
:1056C000D4398D3241E0940709F4AFC60CF07DC0A7
:1056D000893C910509F44EC6ACF58C38910509F466
:1056E00022C5ACF48737910509F4B9C50CF480C51F
:1056F0008837910509F437C68937910511F00C9464
:10570000D4391092080210929C040C94D4398B392D
:10571000910509F424C54CF48139910511F00C94DC
:10572000D4390E94ABE20C94D4398E3B910509F434
:105730001EC5883C910511F00C94D4390E94F3DF0A
:105740000C94D439833D910509F459C634F58C3C49
:10575000910509F413C64CF48B3C910511F00C949F
:10576000D4390E9485C70C94D4398D3C910509F435
:1057700009C68E3C910511F00C94D43918EBA12E7A
:1057800012E0B12E03ECC02E02E1D02E8BEDE82EFC
:1057900084E0F82E00E010E0F9C58D3D910509F494
:1057A0003EC634F48C3D910509F42CC60C94D439D2
:1057B000823E910509F436C68C32914011F00C946A
:1057C000D4390E9471C50C94D439843FB1E09B0751
:1057D00011F40C94B335DCF58039F1E09F0711F436
:1057E0000C944A35ACF48F3231E0930709F426C6A5
:1057F0000CF421C6803351E0950709F419C68336AD
:10580000914011F00C94D439EDE1FCE30C944F3944
:10581000843AB1E09B0711F40C944D354CF48A396D
:10582000914011F00C94D4390E94A4C30C94D43943
:10583000853A21E0920711F40C94B0358C3A9140EE
:1058400011F00C94D4390E949AC10C94D439883543
:1058500042E0940711F40C94EF35B4F4863FA1E0D4
:105860009A0711F40C94B93514F40C94B635873FAB
:10587000E1E09E0711F40C94BC358C31924011F498
:105880000C94E4350C94D4398C3223E0920711F453
:105890000C94BF353CF48B32934011F00C94D43906
:1058A0000E942196803A53E0950709F4A0C1873EF3
:1058B000934011F40C9466390C94D439A0909A0456
:1058C000B0909B0480E50E9431F5882359F00E9436
:1058D0008FF46B017C0111E0672B682B692B31F48D
:1058E00010E004C010E0C12CD12C760183E50E94A9
:1058F00031F58823F1F00E94CFF420E030E04AE750
:1059000054E40F94A8120F944F1A6B017C011111EB
:1059100012C0672B682B692B71F4A114B10459F0E4
:10592000F5018081882339F061E0C5010E94906D06
:1059300007C0112391F360E08CE094E00E94706D49
:1059400083E090E09093DA048093D90481E080931F
:10595000D8040E94E94E0E940EF6C114D104E1045D
:10596000F104F1F08091011A9091021AA091031AAA
:10597000B091041AC80ED91EEA1EFB1E0E943064A4
:10598000DC01CB018C199D09AE09BF09B7FF1CC012
:105990008091D8048823C1F080E00E9430CCEECF03
:1059A0008091D804882321F080E00E9430CCF8CF89
:1059B0008091E91660E0882319F08BEF93E002C034
:1059C00083EE93E00E94706D1092D8040C94D43949
:1059D00060E08BE194E00E94706D5F988A989FB7B9
:1059E000F894809108018E7F809308019FBF1298E0
:1059F0000C94D439E5E3F4E084918F010F5F1F4FDD
:105A0000882321F00E94F393F801F6CF10927019C9
:105A100010926F1940E050E0BA018AE197E10E94CC
:105A2000B4748BE1EAE1F7E1DE01159601900D9285
:105A30008A95E1F780911817909119179C838B83B1
:105A400082E293E09A83898340E050E0BE016F5F79
:105A50007F4F8BE393E00E943FCACE0101960E94E4
:105A6000C94BE6E2F4E084918F010F5F1F4F88235A
:105A700011F40C94D4390E94F393F801F4CF0E94EE
:105A80000A8C0C94D4391092E9161092EA160C94F0
:105A9000D43940E061E080919A0490919B040E9487
:105AA00035E80C94D4398091EA16882319F081E006
:105AB0008093E9160E941B8E0C94D4391092E9163B
:105AC0008EEB96E10E94C64D0C94D4398091EA1673
:105AD000882311F40C94D43983E50E9431F58111A7
