:100000000C9473100C94A4100C94A4100C94A410D1
:100010000C94A4100C94A4100C94A4100C94A41090
:100020000C94A4100C94A4100C94A4100C94A41080
:100030000C94A4100C9400810C94A4100C94A410A3
:100040000C94A4100C94DE5A0C94A4100C94A410DC
:100050000C94A4100C94A4100C9471840C940CB007
:100060000C94A4100C946A310C9498310C94A41044
:100070000C94A4100C94A4100C94A4100C94A41030
:100080000C94A4100C94A4100C94A4100C94A41020
:100090000C94A4100C94A4100C94A4100C94A41010
:1000A0000C94A4100C94A4100C94A4100C94A41000
:1000B0000C94A4100C94A4100C94A4100C94A410F0
:1000C0000C94A4100C94A4100C94A4100C94F5316E
:1000D0000C94CB310C94A4100C94A4100C94A41088
:1000E0000C94A410AE3BF03B243C753CAA3C613D13
:1000F000CB3CD33DF43C293DE099FF9B0F9C0F9CEA
:100100000F9C4C9C4E9C4E9C4E9C4E9C129C4C9C1E
:100110004E9C1E9C57AE5AAE49AE4DAE53AE91AEFC
:100120005EAE62AE68AE6CAE70AE76AE7AAE7EAEED
:1001300091AE84AE88AE8CAE26AF2BAF30AF3AAF67
:1001400044AFBDAF4EAF56AF5EAF68AF72AF7CAFDE
:100150008BAF95AFBDAF9FAFA9AFB3AF0C94447257
:100160000C9470AE0C9468AF0C941F710C945AAE42
:100170000C9472AF0C94753C0C9472250C944E9CAC
:100180000C9444AF0C942BAF0C9475250C948E6F8B
:100190000C94A9AF0C945B710C9430AF0C9457AED7
:1001A0000C9453AE0C9426AF0C94E16F0C94058024
:1001B0000C94E79E0C94D33D0C9495AF0C94F46E84
:1001C0000C947C730C94B3AF0C943AAF0C948CAE3B
:1001D0000C94186E0C9471250C941E9C0C9456AFC4
:1001E0000C94CB3C0C940F9C0C942F800C94A4B0DA
:1001F0000C947EAE0C94129C0C948BAF0C9472A257
:100200000C943E800C943EC70C948B720C945EAFA1
:100210000C945EAE0C94E0990C94FC700C9468AE57
:100220000C944EAF0C94F03B0C947E9D0C943D715D
:100230000C9488AE0C9460800C9449AE0C947AAE09
:100240000C940E820C94F43C0C9484AE0C9476AE18
:100250000C94BDAF0C94AC6E0C94C06F0C942F6ECC
:100260000C9452800C94293D0C94AE3B0C94CA6EB5
:100270000C94AA3C0C944C9C0C947CAF0C9437735B
:100280000C94A1800C94C1810C944DAE0C94613DF2
:100290000C949FAF0C9491AE0C9406740C9462AEC7
:1002A0000C94243C0C9408710C94C6A80C94FF9BED
:1002B0000C946CAE4E414E494E495459494E46CD70
:1002C000CCCC3D0AD7233C17B7D13877CC2B32950D
:1002D00095E6241FB14F0A000020410000C84200EB
:1002E000401C4620BCBE4CCA1B0E5AAEC59D744372
:1002F0004F4D4D554E49434154494F4E004452597C
:1003000052554E004552524F525300494E464F00EF
:100310004543484F00557370696A2E2E2E004D35A7
:1003200030300059206F7574206F662072616E67DF
:10033000652028312D32292E0A0058206F7574202F
:100340006F662072616E67652028312D32292E0A72
:10035000004D6573682070726F62696E6720646F0C
:100360006E652E0A005374617274206D6573682087
:1003700070726F62696E67207769746820224732F5
:1003800039205331222066697273742E0A00473275
:10039000380A4732392053320053746174653A2069
:1003A000004D65736820626564206C6576656C69D4
:1003B0006E6720686173206E6F20646174612E0A1D
:1003C0000053206F7574206F662072616E67652020
:1003D00028302D35292E0A004D65736820706F690D
:1003E0006E742063616E6E6F742062652072657337
:1003F0006F6C7665640A004F637A656B6977616E2E
:1004000069652E2E2E004D30004272616B20727590
:1004100063687500456E642066696C65206C69735D
:10042000740A00426567696E2066696C65206C69B4
:1004300073740A004D313235005344207072696E76
:1004400074696E67206279746520004E6F74205362
:1004500044207072696E74696E670A005072696E2A
:10046000742074696D653A200050726F746563740E
:1004700065642050696E0A005072696E746F20487E
:100480003320676F746F77612E0010030B03040332
:10049000FD02EF026F66660044454255473A00553B
:1004A000626974792E20004D3131332053006F6B17
:1004B000004361703A454D455247454E43595F50A0
:1004C00041525345523A300A004361703A43415316
:1004D000455F4C494748545F4252494748544E454E
:1004E00053533A300A004361703A544F47474C45E2
:1004F0005F4C49474854533A300A004361703A53BD
:100500004F4654574152455F504F5745523A300A73
:10051000004361703A4C4556454C494E475F444153
:1005200054413A310A004361703A5A5F50524F4287
:10053000453A300A004361703A4155544F4C455694
:10054000454C3A300A004361703A5052494E545F6C
:100550004A4F423A310A004361703A50524F475273
:100560004553533A300A004361703A4155544F5253
:1005700045504F52545F54454D503A310A00436143
:10058000703A454550524F4D3A310A004649524D56
:10059000574152455F4E414D453A4D61726C696E0F
:1005A00020312E332E316220284769746875622904
:1005B00020534F555243455F434F44455F55524C7E
:1005C0003A68747470733A2F2F6769746875622E75
:1005D000636F6D2F4D61726C696E4669726D7761E4
:1005E00072652F4D61726C696E2050524F544F43AB
:1005F0004F4C5F56455253494F4E3A312E30204DA5
:10060000414348494E455F545950453A5072696ECE
:10061000746F2048332045585452554445525F4327
:100620004F554E543A3120555549443A63656465F7
:10063000326132662D343161322D343734382D3900
:100640006231322D6335356336326633363766664E
:100650000A002F2F200053657474696E672054724E
:100660006176656C20416363656C65726174696F66
:100670006E3A200053657474696E67205265747217
:1006800061637420416363656C65726174696F6E48
:100690003A200053657474696E67205072696E74F5
:1006A00020416363656C65726174696F6E3A200006
:1006B00053657474696E67205072696E7420616E40
:1006C000642054726176656C20416363656C657269
:1006D0006174696F6E3A2000205A0020590058005A
:1006E00020204D61783A2000205A002059005800FF
:1006F00020204D696E3A2000576C2E200057796CEF
:100700002E00536F667420656E6473746F70733A55
:1007100020000001363726FF023C3D380EFF2E3008
:100720003EFF13FF0C0809FFFFFF1A1C18FFFF080C
:10073000440AFF43FFFFFFFFFFFF20643A002069E8
:100740003A0020703A0020643A0020693A00207094
:100750003A0043290A0061626C656420286D696E65
:100760002074656D702000436F6C6420657874722E
:1007700075646573206172652000426564204C6574
:1007800076656C696E6720004661696C65642074EB
:100790006F20656E61626C6520426564204C6576F1
:1007A000656C696E670A004D657368204265642058
:1007B0004C6576656C20646174613A0A004D65731E
:1007C0006820706F696E742063616E6E6F74206252
:1007D00065207265736F6C7665640A004D34323142
:1007E00020696E636F727265637420706172616DEF
:1007F000657465722075736167650A00506F7A2EA3
:10080000207A65726F7761207573742E004572725D
:100810003A20546F6F206661722100546F6F20661A
:1008200061722066726F6D207265666572656E63B7
:100830006520706F696E740A004E6F206361736586
:10084000206C696768740A004163746976652045A5
:10085000787472756465723A2000556E6B6E6F77AE
:100860006E20636F6D6D616E643A2022002569739E
:100870000025696D20256973002569682025696D4B
:100880002025697300256964202569682025696D24
:100890002025697300256979202569642025696808
:1008A0002025696D202569730055626974792E20B1
:1008B000005A6174727A796D616E792E20005072DF
:1008C000696E7465722073746F70706564206475EE
:1008D0006520746F206572726F72732E204669787E
:1008E00020746865206572726F7220616E64207575
:1008F0007365204D39393920746F207265737461C6
:1009000072742E202854656D7065726174757265FD
:100910002069732072657365742E20536574206995
:100920007420616674657220726573746172746993
:100930006E67290A004E6F204C696E65204E756DFA
:10094000626572207769746820636865636B73758C
:100950006D2C204C617374204C696E653A20004EFA
:100960006F20436865636B73756D207769746820C9
:100970006C696E65206E756D6265722C204C6173BA
:1009800074204C696E653A2000636865636B73750B
:100990006D206D69736D617463682C204C61737494
:1009A000204C696E653A20004C696E65204E756D6D
:1009B000626572206973206E6F74204C61737420BD
:1009C0004C696E65204E756D6265722B312C204C22
:1009D000617374204C696E653A20004D31313000EE
:1009E0004D3331004D383420582059205A204500CD
:1009F00053442072656164206572726F720A00440C
:100A00006F6E65207072696E74696E672066696CBE
:100A1000650A0020496E76616C696420657874729D
:100A200075646572200000000000000000000000F6
:100A3000000000004D430000524300004E43393691
:100A40003030204F4B202D3E20545259203131352B
:100A50000A0039363030204641494C202D3E205482
:100A60005259203131350A004E657874696F6E2015
:100A7000636F6E6E6563746564210A004E657874F9
:100A8000696F6E206E6F7420636F6E6E6563746540
:100A900064210A002020506C616E6E65724275669A
:100AA00066657242797465733A2000204672656506
:100AB000204D656D6F72793A2000436F6D70696CDF
:100AC00065643A2041756720203520323032300A83
:100AD00000207C20417574686F723A20285072693A
:100AE0006E746F33642E706C2C204A616B756220BB
:100AF00053696B6F7261290A00323032302D303702
:100B00002D313300204C617374205570646174651D
:100B1000643A2000312E332E31620A004D61726C2E
:100B2000696E0020536F6674776172652052657339
:100B300065740A00205761746368646F67205265AA
:100B40007365740A002042726F776E206F7574208F
:100B500052657365740A002045787465726E616C25
:100B60002052657365740A00506F77657255700A7C
:100B70000073746172740A006572726F722077720A
:100B80006974696E6720746F2066696C650A00205D
:100B90005A3A0020593A0020583A00656E6473743E
:100BA0006F7073206869743A2000446F6E6520731B
:100BB0006176696E672066696C652E0A004D323970
:100BC00000206E6F7420656E74657265642E0A0075
:100BD0000A4D6561737572656420706F696E747318
:100BE0003A0A005A206F66667365743A20004E75A3
:100BF0006D20582C593A20322C320A0046696C6517
:100C00002064656C657465643A0044656C6574695C
:100C10006F6E206661696C65642C2046696C653A6C
:100C200020006F70656E206661696C65642C2046DB
:100C3000696C653A20006D0046696C616D656E7483
:100C400020757365643A200053746174733A200010
:100C50002C204C6F6E67657374206A6F623A2000B7
:100C6000546F74616C2074696D653A20005374612F
:100C700074733A20002C204661696C65643A200048
:100C80002C2046696E69736865643A200050726969
:100C90006E74733A200053746174733A2000202FED
:100CA000002042403A0020403A00526F7A67727A40
:100CB000616E6F0020573A005072696E746F204861
:100CC0003320676F746F77612E00000020002300CF
:100CD000260029002C002F00320000010000030133
:100CE00006010901050505050705080808080202AF
:100CF00002020A0A080804040404010101010101B6
:100D000001010303030303030303040707070C0C98
:100D10000C0C0C0C0C0C020202020606060606065F
:100D200006060B0B0B0B0B0B0B0B01021020200804
:100D30000810204010204080020102010804020136
:100D400001020408102040808040201008040201A5
:100D500080040201804020100804020108040201FE
:100D60000102040810204080010204081020408085
:100D700000000A0B02090C0D0E0807030401000015
:100D80000000000000000000000000000000000063
:100D90000000000000000000000000001211100020
:100DA0000000000000000000000000000000000043
:100DB000000000000000456B7374727564756A2052
:100DC00077696563656A00577A6E6F77206472751C
:100DD0006B6F77616E6965005779626965727A2019
:100DE0006F70636A650050726F737A6520637A650D
:100DF0006B616300526F7A67727A6577616E6965BD
:100E0000206479737A790057796D69616E61206623
:100E1000696C616D656E74750061627920726F7ABC
:100E200067727A6163206479737A650057636973C6
:100E30006E696A2070727A796369736B0057796D95
:100E400069616E612066696C616D656E74750077AD
:100E5000796472756B75005472776120777A6E6170
:100E60007769616E6965006E6F7765676F206D6188
:100E700074657269616C75005472776120656B737B
:100E80007472757A6A610066696C616D656E7475FD
:100E900020646F20676C6F776963790054727761A3
:100EA000207770726F7761647A616E696500577937
:100EB0006D69616E612066696C616D656E74750047
:100EC000616279206B6F6E74796E756F7761632ED6
:100ED0002E2E0069206E616369736E696A207072DC
:100EE0007A796369736B00576C6F7A2066696C61FD
:100EF0006D656E740057796D69616E612066696C0D
:100F0000616D656E74750066696C616D656E747592
:100F1000207A20676C6F776963790054727761205B
:100F20007779737577616E69650057796D69616E60
:100F3000612066696C616D656E7475007A6D6961BA
:100F40006E792066696C616D656E74750054727798
:100F50006120726F7A706F637A796E616E69650075
:100F600057796D69616E612066696C616D656E743B
:100F7000750057726974696E6720746F2066696CBA
:100F8000653A20006F70656E206661696C65642C3F
:100F90002046696C653A20006F70656E2066616955
:100FA0006C65642C2046696C653A200046696C6566
:100FB0002073656C65637465640A002053697A6503
:100FC0003A200046696C65206F70656E65643A2052
:100FD000006F70656E206661696C65642C204669DF
:100FE0006C653A20002066696C653A20004E6F7788
:100FF00020002220706F73002220706172656E7471
:101000003A2200535542524F5554494E45204341D0
:101010004C4C207461726765743A220055626974A1
:10102000792E2000747279696E6720746F20636175
:101030006C6C207375622D67636F64652066696CE4
:101040006573207769746820746F6F206D616E79A5
:10105000206C6576656C732E204D4158206C65764A
:10106000656C2069733A0020636F6C642065787446
:10107000727573696F6E2070726576656E746564E3
:101080000A0043616E6E6F74206F70656E20737519
:1010900062646972200053442063617264206F6B44
:1010A0000A006F70656E526F6F74206661696C65BF
:1010B000640A00766F6C756D652E696E69742066C2
:1010C00061696C65640A004572726F723A0053443C
:1010D00020696E6974206661696C0A006175746FBD
:1010E00025692E67004D3234004D323320257300C0
:1010F000656E7175657565696E6720220065636848
:101100006F3A0024F4D43050C38E20C2A24017821C
:101110008B7011127A910D816CD90AA861E108C710
:10112000586607615143061E4B5D05C145A7041A69
:10113000411104093D9803713931034036DB0265E2
:10114000339102D4305402802E1D02632CEE0175BF
:101150002AC501B028A001102781018F2564012B29
:10116000244B01E0223401AC211F018D200D0180B0
:101170001FFC00841EED00971DDF00B81CD200E6A6
:101180001BC600201BBC00641AB200B219A8000ADA
:1011900019A0006A189900D117910040178B00B56B
:1011A00016840031167E00B31579003A157300C716
:1011B000146F0058146A00EE13660088136300254C
:1011C000135E00C7125B006C12570015125400C169
:1011D00011510070114F0021114B00D61049008DA4
:1011E0001047004610440002104200C00F4000802B
:1011F0000F3E00420F3C00060F3B00CB0E38009321
:101200000E37005C0E3500270E3400F30D3200C19E
:101210000D3100900D3000600D2E00320D2D0005B7
:101220000D2C00D90C2B00AE0C2900850C29005C7C
:101230000C2700350C27000E0C2600E80B2400C4F8
:101240000B2400A00B23007D0B23005A0B21003937
:101250000B2100180B2000F80A1F00D90A1E00BB42
:101260000A1E009D0A1D00800A1D00630A1C00471B
:101270000A1B002C0A1B00110A1A00F7091A00DDCC
:10128000091900C4091900AB091900920917007B5C
:10129000091800630917004C0916003609160020CA
:1012A0000916000A091500F5081500E0081400CC1D
:1012B000081400B8081400A4081400900813007D56
:1012C0000812006B08130058081200460812003478
:1012D000081100230811001208110001081100F084
:1012E000071000E0071000D0071000C0071000B082
:1012F000070F00A107100091070E0083070F00746D
:10130000070F0065070E0057070E0049070E003B48
:10131000070D002E070E0020070D0013070D000615
:10132000070D00F9060C00ED060D00E0060C00D4D8
:10133000060C00C8060C00BC060C00B0060C00A48D
:10134000060B0099060C008D060B0082060B007739
:10135000060B006C060B0061060A0057060B004CDA
:10136000060A0042060A0038060A002E060A002471
:10137000060A001A060A001006090007060A00FD00
:10138000050900F4050900EB050900E2050900D98B
:10139000050900D0050900C7050900BE050900B50B
:1013A000050800AD050800A50509009C0508009486
:1013B0000508008C050800840508007C05080074F9
:1013C0000508006C050700650508005D0507005667
:1013D0000508004E050700470507004005080038CE
:1013E000050700310507002A050700230507001C33
:1013F000050600160507000F050700080506000290
:10140000050700FB040600F5040700EE040600E8EB
:10141000040600E2040700DB040600D5040600CF42
:10142000040600C9040600C3040600BD040600B794
:10143000040600B1040500AC040600A6040600A0E2
:101440000405009B04060095040500900406008A2C
:1014500004050085040500800406007A0405007573
:10146000040500700405006B0405006604050061B6
:101470000405005C04050057040500520405004DF6
:1014800004050048040500430405003E0404003A36
:1014900004050035040500300404002C0405002771
:1014A000040400230405001E0404001A04040016AA
:1014B000040500110404000D0404000904050004DF
:1014C00004040000040400FC030400F8030400F416
:1014D000030400F0030400EC030400E8030400E448
:1014E000030400E0030400DC030400D8030400D478
:1014F000030400D0030400CC030400C8030300C5A8
:1015000003030024F404D9201BC40C5C0E9804C40B
:10151000095F0265077101F405F900FB04B3004897
:10152000048700C10369005803550003034500BE4A
:10153000023A008402310053022A002902250004E5
:10154000022000E4011C00C8011900AF0117009837
:101550000114008401130071011000610110005199
:10156000010E0043010D0036010B002B010B002082
:10157000010B00150109000C01090003010800FB23
:10158000000800F3000800EB000700E4000600DE9E
:10159000000600D8000600D2000600CC000500C7F7
:1015A000000500C2000500BD000400B9000400B53C
:1015B000000400B1000400AD000400A9000400A56F
:1015C000000300A20003009F0004009B000300989A
:1015D0000003009500020093000300900003008DBB
:1015E0000002008B000300880002008600020084D5
:1015F000000300810002007F0002007D0002007BEA
:1016000000020079000200770001007600020074F9
:1016100000020072000100710002006F0002006D04
:101620000001006C0002006A00010069000200670E
:101630000001006600010065000100640002006214
:1016400000010061000100600001005F0002005D18
:101650000001005C0001005B0001005A000100591C
:10166000000100580001005700010056000100551C
:10167000000100540001005300000053000100521B
:1016800000010051000100500001004F0001004E18
:101690000000004E0001004D0001004C0001004B15
:1016A0000000004B0001004A000100490001004811
:1016B000000000480001004700010046000000460D
:1016C0000001004500000045000100440001004306
:1016D0000000004300010042000000420001004100
:1016E00000000041000100400001003F0000003FF9
:1016F0000001003E0000003E0001003D0000003DF2
:101700000001003C0000003C0000003C0001003BE8
:101710000000003B0001003A0000003A00010039DF
:1017200000000039000100380000003800000038D7
:1017300000010037000000370001003600000036CD
:1017400000000036000100350000003500000035C3
:1017500000010034000000340000003400010033B8
:1017600000000033000000330001003200000032AE
:1017700000000032000100310000003100000031A3
:101780000001003000000030000000300001002F98
:101790000000002F0000002F0000002F0001002E8D
:1017A0000000002E0000002E0001002D0000002D82
:1017B0000000002D0000002D0001002C0000002C76
:1017C0000000002C0000002C0001002B0000002B6A
:1017D0000000002B0000002B0001002A0000002A5E
:1017E0000000002A0000002A000100290000002952
:1017F0000000002900000029000000290001002845
:101800000000002800000028000000280000002838
:10181000000100270000002700000027000000272B
:10182000000000270001002600000026000000261E
:101830000000002600000026000100250000002511
:101840000000002500000025000000250000002504
:1018500000010024000000240000002400000024F7
:1018600000000024000100230000002300000023EA
:1018700000000023000000230000002300000023DC
:1018800000010022000000220000002200000022CF
:1018900000000022000000220001002100000021C1
:1018A00000000021000000210000002100000021B4
:1018B00000000021000100200000002000000020A6
:1018C0000000002000000020000000200000002098
:1018D000000000200001001F0000001F0000001F8A
:1018E0000000001F0000001F0000001F0000001F7C
:1018F0000001001E0000001E0000001E0000001E6F
:101900000000004D383420582059205A204500202E
:10191000636F6C6420657874727573696F6E207084
:10192000726576656E7465640A00627573793A2033
:1019300070617573656420666F7220696E7075746E
:101940000A00627573793A20706175736564206668
:101950006F7220757365720A00627573793A207030
:10196000726F63657373696E670A004D36303000BD
:1019700055626974792E20004B494C4C2063617587
:10198000736564206279204B494C4C2062757474F5
:101990006F6E2F70696E0A0055626974792E20008F
:1019A0004B494C4C206361757365642062792074E7
:1019B0006F6F206D75636820696E61637469766509
:1019C0002074696D65202D2063757272656E7420B8
:1019D000636F6D6D616E643A20005072696E74655C
:1019E000722068616C7465642E206B696C6C2829A8
:1019F0002063616C6C6564210A0000004D430000A7
:101A0000000000004E430000964200009642000095
:101A1000C841000000005761726E696E673A204845
:101A20006F6D696E672042756D70204469766973C9
:101A30006F72203C20310A000202080000A0400022
:101A400000A0400000A04000004D430000524300B1
:101A5000004E4301FF014D36303020486F74656EF3
:101A60006420746F6F20636F6C6420746F206368F0
:101A7000616E67652066696C616D656E740A0057FA
:101A80007A6E6F7769656E6965004D3234005779FB
:101A90006472756B20777374727A796D616E7900F8
:101AA0004D31323500473239205332004E4945001E
:101AB00054414B004E4945004D2042204C003230ED
:101AC00032302D30372D313300312E332E3162003C
:101AD000256C642E25696D0054656D702E206D692E
:101AE0006E3A20313730006B6F6E74796E756F7798
:101AF000616300726F7A67727A656A206162790049
:101B0000476C6F77696361206A657374207A696DC9
:101B10006E612C004D3630302042300047393000A5
:101B200047393100473238004472756B2070727A41
:101B3000657277616E7900526F7A67727A616E6F43
:101B40002073746F6C0020573A00526F7A67727A74
:101B50006577616E69652073746F6C752E2E2E002B
:101B6000205A3A0020423A0020436F756E7420419B
:101B70003A0020453A00205A3A0020593A00583A93
:101B8000004B64200023646566696E65202044452F
:101B90004641554C545F004B6920002364656669DB
:101BA0006E65202044454641554C545F004B7020E3
:101BB0000023646566696E65202044454641554CA6
:101BC000545F0050494420756B6F6E637A6F6E6F7F
:101BD00000504944204175746F74756E65206669C4
:101BE0006E6973686564212050757420746865207F
:101BF0006C617374204B702C204B6920616E6420E3
:101C00004B6420636F6E7374616E74732066726FC1
:101C10006D2062656C6F7720696E746F20436F6E04
:101C200066696775726174696F6E2E680A00504943
:101C300044204175746F74756E65206661696C65CA
:101C400064212074696D656F75740A0050494420E1
:101C5000626C61643A206F76657273686F740050CD
:101C6000494420626C6164206B616C6962726163DB
:101C70006A6900504944204175746F74756E65201F
:101C80006661696C6564212054656D70657261746C
:101C900075726520746F6F20686967680A00204B51
:101CA000643A2000204B693A2000204B703A200013
:101CB0000A20436C617373696320504944200A0011
:101CC0002054753A2000204B753A2000206D617831
:101CD0003A2000206D696E3A200020643A200020EE
:101CE000626961733A200050494420726F7A706FC4
:101CF000637A65746F002066697273740A005A0013
:101D000059005800486F6D65200070012C0190014A
:101D10002701B0012201C0011D01F00118011002CC
:101D2000130130020E016002090190020401C00299
:101D3000FF000003FA004003F5008003F000D00329
:101D4000EB002004E6007004E100E004DC00400544
:101D5000D700C005D2004006CD00D006C8008007DD
:101D6000C3003008BE00F008B900C009B400B00AD2
:101D7000AF00B00BAA00D00CA500000EA000500FC1
:101D80009B00C01096005012910000148C00C015EA
:101D90008700B0178200B0197D00D01B7800001EAC
:101DA000730040206E0090226900F02464004027F8
:101DB0005F0090295A00E02B5500102E5000203073
:101DC0004B0010324600E033410090353C001037A4
:101DD000370070383200A0392D00B03A2800A03BFF
:101DE0002300603C1E00103D1900903D1400103E81
:101DF0000F00703E0A00C03E0500003F0000403F5B
:101E0000FBFF803FF6FFC03FF1FF457272206D6916
:101E10006E2074656D702073746F6C7500457272FE
:101E2000206D696E2074656D70004D494E54454DAE
:101E3000502074726967676572656400457272202C
:101E40006D61782074656D702073746F6C750045DA
:101E50007272206D61782074656D70004D41585428
:101E6000454D502074726967676572656400027C35
:101E70003C3E5E2B3D3F2F5B5D3B2C2A225C0029C4
:101E80000A002062797465733B20637263200053FB
:101E9000657474696E67732053746F72656420286B
:101EA00000202863616C63756C6174656429210A84
:101EB0000020213D2000454550524F4D20435243C4
:101EC000206D69736D61746368202D202873746FB1
:101ED000726564292000290A002062797465733BC9
:101EE0002063726320002073746F726564207365D1
:101EF0007474696E6773207265747269657665645F
:101F0000202800204D61726C696E3D563339290AD4
:101F10000028454550524F4D3D00454550524F4DCC
:101F20002076657273696F6E206D69736D6174637D
:101F300068200025756420253032753A25303275C9
:101F4000004B61727461207573756E696574610010
:101F50004B6172746120776C6F7A6F6E610073648D
:101F60005F7374617475733A66616C73650A0073AC
:101F7000645F7374617475733A747275650A0020D6
:101F80002F200048617264636F6465642044656655
:101F900061756C742053657474696E6773204C6F3F
:101FA000616465640A008813000088130000500013
:101FB000000028230000000082430000824300004C
:101FC000E0410000A0420000A0420000A04200004A
:101FD00048440000204366696C616D656E743A2068
:101FE000007A5F6D61783A2000795F6D696E3A2002
:101FF00000785F6D61783A20005265706F72746985
:102000006E6720656E6473746F702073746174758D
:10201000730A0043616E6E6F7420656E7465722082
:102020007375626469723A20004572726F7220772C
:10203000726974696E6720746F20454550524F4D28
:10204000210A006265640A002C2073797374656D3F
:102050002073746F707065642120486561746572C7
:102060005F49443A20005A616E696B2074656D7057
:102070002E00546865726D616C2052756E617761D7
:102080007900526F7A67727A2E206E696575646185
:102090006E650048656174696E67206661696C658C
:1020A000640000002100240027002A002D003000D9
:1020B000330001010000040107010A0100002200B1
:1020C000250028002B002E00310034000201000002
:1020D000050108010B01526573656E643A20006FBB
:1020E0006B00A4B03EC711241FBECFEFD1E2DEBF0C
:1020F000CDBF00E00CBF16E0A0E0B2E0E2EBFAEAF0
:1021000001E00BBF02C007900D92AE30B107D9F7C6
:102110002DE1AEE0B6E001C01D92AE32B207E1F7AC
:1021200010E1C2E7D0E100E006C021970109802F4D
:10213000FE010E94A1D1C137D10780E00807A9F7AD
:102140000E94EEBF0C9447D50C9400002F923F9252
:102150004F925F926F927F928F929F92AF92BF92B7
:10216000CF92DF92EF92FF920F931F93CF93DF9363
:10217000CDB7DEB7E9970FB6F894DEBF0FBECDBF7F
:1021800000912B1320E4029F80011124055D1E4E57
:102190008091FA1380FF1AC0EDEFF0E184917F0186
:1021A0009FEFE91AF90A811102C0780104C00E9468
:1021B000B52CF701F3CFD7018D917D01882319F05C
:1021C0000E94B52CF8CF8AE00E94B52C81E090E007
:1021D00090938B1B80938A1B10922D0610922C06D5
:1021E0008FE380933706109236061092350684E00E
:1021F000E8E2F6E0DF011D928A95E9F7F8018081B7
:102200000F5F1F4F8032D1F38E34C9F4818190ED7E
:10221000980F9A3020F08D3211F08B3281F4DF016B
:1022200012969D012F5F3F4F8C9180538A3010F49E
:10223000D901F7CFFD01119680818032D9F3F09357
:10224000751BE093741B7F01BFEFEB1AFB0A108133
:102250006AE270E0C7010E94E5D4009731F0FC010A
:10226000319780818032E1F311821D3431F11435D0
:1022700021F1173411F1EDEFF0E184918F010F5F3F
:102280001F4F882321F00E94B52CF801F6CF6091F2
:10229000741B7091751B8AE598E00E94EE6182E2E2
:1022A0000E94B52C8AE00E94B52C10928B1B1092D4
:1022B0008A1B0E945AB00C942B25C701FC01208177
:1022C00001962032D9F320532A30A8F6109337060E
:1022D00020E030E06AE03196DF0111978C91082E02
:1022E000000C990BC097629FA001639F500D1124B1
:1022F0009C01240F351F808180538A3060F3309316
:10230000360620933506DF0131968C918032D9F361
:102310001D34D1F42E31310591F03CF427313105D3
:1023200071F02C31310581F40AC02537310564F094
:102330002737310524F0203AE3E03E0729F4B09333
:102340002D06A0932C0683C010922D0610922C0609
:102350000091741B41E050E0FD0131969C9199235E
:1023600009F475C09132A1F41D3491F42032310585
:1023700079F4F0932D06E0932C0663E270E0CF0130
:102380000E94E5D4009709F424C4DC011C925FC0CC
:102390008FEBD82ED90E99E1C92ECD14C0F1BF0113
:1023A000FB0180816F5F7F4F8032D1F360ED680F5A
:1023B0006A3040F063ED680F623020F08B3211F02C
:1023C0000C94A324BF01AD2CB12C7501A3E0F594AE
:1023D000E794AA95E1F7C701885D994F7C019D2D8F
:1023E0009770DA0102C0AA0FBB1F9A95E2F7CD01E0
:1023F000D7019C91892B8C936115710511F0601B9D
:1024000001C060E0D501A25FB94F6C930AC0809112
:102410002C0690912D06892B21F4B0932D06A093C4
:102420002C06808181548A3110F4DF0195CFDF01C1
:10243000BD016F5F7F4F8C9180538A3010F4DB01B8
:10244000F7CFFD01119680818032D9F3EECF8091D4
:1024500037068D3409F4BDC3843511F40C9460241F
:10246000873409F008CF80913506909136068D317A
:10247000910509F46CC074F48430910539F11CF4B1
:102480000297D0F012CF4C9709F00FCF80E00E9456
:1024900069360BCF8A35910509F4A2C224F48A97D4
:1024A00009F400C302CF8B35910509F49CC28C3529
:1024B000910509F49CC2F9CE8091AC02882309F4FD
:1024C000F4CE0E942B370E946C6DEFCE80E50E9407
:1024D000BB2B882329F00E94152B6B017C0103C0C4
:1024E000C12CD12C760183E50E94BB2B882361F09F
:1024F0000E94592B20E030E04AE754E40E942FCD9F
:102500000E94AED26B017C010E940CAE0E94CE2BC9
:102510008091761B9091771BA091781BB091791BCD
:10252000C80ED91EEA1EFB1E60E085E193E00E9402
:1025300002990E9400B0DC01CB018C199D09AE0903
:10254000BF09B7FFB2CE80E00E946366F2CF83E599
:102550000E94BB2B882321F00E94352B182F01C02D
:1025600010E0163068F0E1ECF3E084918F010F5F2A
:102570001F4F882309F499CE0E94B52CF801F5CF9E
:10258000123009F445C0B0F41123F9F0113009F00C
:1025900024C20E94FC9E10920102109200028EE85A
:1025A00093E090930C1680930B160E94612A10936F
:1025B000DE1B13C2143009F401C208F4A5C11530A2
:1025C00009F00BC20E946D3808C28091BF1380FDD4
:1025D00003C0E1EAF3E011C081FF03C06BE673E0E2
:1025E00002C060E773E089E993E00E94EE618AE04F
:1025F0000E94B52C0E947AC6F0C184918F010F5FB2
:102600001F4F882309F4E9C10E94B52CF801F5CFCA
:10261000209100023091010237FF0CC005E613E063
:10262000F8018491882309F440CE0F5F1F4F0E9468
:10263000B52CF6CF2115310529F480913302809312
:10264000340631C08FEF820F982F917897FF03C027
:1026500091509E6F9F5FE92F87FD8F5F859580FF6B
:1026600002C0E1E0E91BEE0FFF0BE80FF11D87FD53
:10267000FA95EE0FFF1FEE0FFF1FE155FC4E809104
:10268000911390919213A0919313B091941380831E
:102690009183A283B38380913406809333022430E4
:1026A00031050CF0CAC0822F817887FF03C08150AA
:1026B0008E6F8F5FA82EE22F27FF02C0E1E0E20FAE
:1026C000BE2EB594B0FE03C0A1E0AA2EA81AC090F9
:1026D0003402D0903502E0903602F09037020EE0DE
:1026E0001AE1F80185919591A591B49180933402F6
:1026F00090933502A0933602B093370220E030E089
:10270000A9016091561670915716809158169091B4
:1027100059160E94B2D120E030E040EA50E40E9415
:10272000B2D160939113709392138093931390930B
:1027300094130E9497BF85E595E5A5E0B3E48093E7
:10274000340290933502A0933602B0933702FA2DEB
:1027500024E0F202D0011124AE51B44F20914E1664
:1027600030914F1640915016509151166D917D91B8
:102770008D919C910E94B2D16093891370938A13BA
:1027800080938B1390938C138B2D94E08902F0012E
:102790001124E652F44F2091521630915316409175
:1027A00054165091551660817181828193810E94E7
:1027B000B2D160938D1370938E1380938F13909387
:1027C00090130E9497BFF80185919591A591B491BE
:1027D0008093340290933502A0933602B09337026F
:1027E00020E030E0A9016091561670915716809153
:1027F0005816909159160E94B2D16093911370931C
:10280000921380939313909394130E9497BFC09256
:102810003402D0923502E0923602F09237020E94E2
:102820000CAE109233028091000290910102019649
:102830009093010280930002D0C020E030E0A90113
:1028400060915616709157168091581690915916AE
:102850000E94B2D120E030E040EA50E40E94B2D1C0
:1028600060939113709392138093931390939413A6
:102870000E9497BF0E940CAE8FEF9FEF90930102D2
:1028800080930002E1E5F3E084918F010F5F1F4F19
:10289000882321F00E94B52CF801F6CF83E992E05D
:1028A0009A83898304E610E019A308A3BE016F5F31
:1028B0007F4FCE0180960E9486558AEB92E09A83E4
:1028C000898319A308A3BE016F5F7F4FCE01809655
:1028D0000E9486558091BF1381608093BF138DEC59
:1028E0009BE00E94A39C81E00E94693681E00E94E7
:1028F00035298EE193E090930C1680930B160E947D
:10290000612A1092DE1B69C088E50E94BB2B8823D8
:1029100091F00E94252B1FEF160F123090F00AE362
:1029200013E0F8018491882309F4BFCC0F5F1F4F97
:102930000E94B52CF6CF88E50E94B52C0E942EC7C8
:10294000B4CC89E50E94BB2B882399F00E94252BEB
:102950000FEF060F023098F0E3E2F3E084918F016D
:102960000F5F1F4F882309F4A0CC0E94B52CF801FB
:10297000F5CF89E50E94B52C0E942EC796CC8AE53A
:102980000E94BB2B8823A1F00E94592BE12FEE0F50
:10299000FF0BE00FF11D07FDFA95EE0FFF1FEE0F85
:1029A000FF1FE155FC4E608371838283938315C0C2
:1029B0008AE50E94B52C0E942EC777CC8AE50E943A
:1029C000BB2B8823A9F30E94592B6093AB13709300
:1029D000AC138093AD139093AE130E94AF7D65CC82
:1029E0001092330662CC81E0809333065ECC85E49E
:1029F0000E94BB2BB82E811102C00E940CAE1BECB2
:102A0000812E12E0912E09E8C02E03E1D02E8EE730
:102A1000E82E8BE1F82E00E010E0A12CD4018D917E
:102A20004D010E94BB2B882339F1F6014080518073
:102A3000628073800E94592BD6016D937D938D9394
:102A40009C9313970330C1F0A30192010E94B1D16E
:102A50009B01AC01F70160817181828193810E94A9
:102A6000B2D1D7016D937D938D939C931397C80139
:102A70000E94B129AA24A3940F5F1F4FB4E0CB0E8C
:102A8000D11CE4E0EE0EF11C0430110539F6AA2049
:102A900019F00E94BA2A03C0B1100E94023A0E94A3
:102AA000AF7D03CC8091AC02882309F4FECB89E48E
:102AB0000E94BB2BE82E882321F00E94252B062F95
:102AC00001C000E08AE40E94BB2BF82E882321F08D
:102AD0000E94252B162F01C010E0EE2011F00230CD
:102AE00020F4FF2079F0123068F0E8EDF3E08491F3
:102AF0008F010F5F1F4F882309F4D7CB0E94B52C9D
:102B0000F801F5CF0E94012BEE20E1F024E0020253
:102B1000F0011124EE51F44F20914E1630914F16D2
:102B2000409150165091511660817181828193813C
:102B30000E94B2D160930D1670930E1680930F16FB
:102B400090931016FF20E1F084E01802F0011124A8
:102B5000E652F44F2091521630915316409154167C
:102B60005091551660817181828193810E94B2D10A
:102B70006093111670931216809313169093141687
:102B800080E50E948C2B81110E94492B86E40E94D3
:102B9000BB2B8823D9F00E94592B6B017C0120E0CC
:102BA00030E0A9010E9435D3181684F420E030E00B
:102BB00040E752E4C701B6010E9435D26093340267
:102BC0007093350280933602909337020E946C6DA9
:102BD0006CCB80913506909136068237910509F4C9
:102BE000B5C60CF0D3C08C34910509F4DBC30CF0EE
:102BF0006BC08831910509F49AC2D4F582319105F0
:102C000009F4D5C5D4F497FD50CB823091050CF46E
:102C1000B7C1419709F049CB60E089E094E00E9498
:102C200002995F988A989FB7F894809108018E7FE7
:102C3000809308019FBF129838CB8531910509F424
:102C40006EC234F4449709F030CBEDEFF0E120C2CE
:102C50008631910509F466C2479709F026CB40E01A
:102C600061E080912C0690912D060E945B3E1DCB69
:102C70008E31910509F4DDC2B4F48A31910509F46D
:102C800081C20CF472C28B31910509F497C24C9742
:102C900009F00BCB40E060E080912C0690912D066E
:102CA0000E945B3E02CB8032910509F4C6C20CF44F
:102CB0000EC38A32910509F436C38B34910509F0AD
:102CC000F4CA0E945A3AF1CA8836910509F476C3CB
:102CD000C4F58235910509F461C5DCF48E349105A3
:102CE00009F468C30CF462C38135910509F0DDCAAB
:102CF0000E9462860E940CAE0E94E6651092F91353
:102D00001092F81368EE73E080E090E00E94B383C5
:102D1000CCCA8435910509F44AC50CF443C5853500
:102D2000910509F477C58C35910509F0BECAFBEC15
:102D3000CF2EF2E0DF2EA9E9EA2EA3E1FA2E10E071
:102D400084C58D36910509F481C48CF48A369105C9
:102D500009F480C40CF434C48B36910509F499C489
:102D60008C36910509F0A1CA109238029ECA8F369E
:102D7000910509F46AC30CF455C38037910509F431
:102D8000D2C38137910509F4D2C38FCA8D3D910515
:102D900011F40C94B61F0CF057C08B39910509F44F
:102DA0002CC40CF58737910509F4A5C66CF485375A
:102DB000910509F460C60CF067C68337910509F0E8
:102DC00074CAECE8F5E0CBC58937910509F49EC6D5
:102DD0000CF495C68D37910509F46DC48C389105B6
:102DE00009F4D2C362CA8C3C910509F420C7DCF413
:102DF000883C910509F490C63CF48E3B910509F09E
:102E000054CA0E946E7E51CA893C910509F4D8C605
:102E10008B3C910509F049CA6BECE62E62E0F62E78
:102E20000CED13E1F5C68E3C910511F40C94F01EE7
:102E30000CF469C7833D910509F49FC08C3D910551
:102E400011F40C94A71F31CA843AA1E09A0711F437
:102E50000C94A621CCF58F32E1E09E0711F40C947E
:102E60009E21CCF48C3221E0920711F40C940020C6
:102E700034F4823E910511F40C94D21F16CA8D329F
:102E8000B1E09B0711F40C942A208E32914011F48A
:102E90000C9447210ACA8336F1E09F0709F469C000
:102EA00034F48033914011F40C94C920FEC9803968
:102EB000B1E09B0711F40C94A2218A39914009F0EA
:102EC000F4C90E94E878F1C9863FF1E09F0711F448
:102ED0000C940424B4F58C3AA1E09A0711F40C94F4
:102EE000002334F4853A914011F40C940922DDC991
:102EF000843FF1E09F0711F40C94E423853F914057
:102F000009F0D3C90E94478E8CEF98E09A83898399
:102F100006E410E019A308A3BE016F5F7F4FCE0146
:102F200080960E94865584E59BE09A83898319A345
:102F300008A3BE016F5F7F4FCE0180960E94865529
:102F4000B4C98835A2E09A0711F40C94312434F402
:102F50008C31924011F40C942424A7C9803AF3E0F8
:102F60009F0709F4A7C1873E934011F40C944C24A9
:102F70009CC9E7ECF0E10C943824EDEFF0E14FC789
:102F8000E6E0F4E084918F010F5F1F4F882321F06A
:102F90000E94B52CF801F6CFA0902C06B0902D061B
:102FA00080E50E94BB2B882359F00E94152B6B01F2
:102FB0007C0111E0672B682B692B31F410E004C011
:102FC00010E0C12CD12C760183E50E94BB2B882315
:102FD000F1F00E94592B20E030E04AE754E40E94CF
:102FE0002FCD0E94AED26B017C01111112C0672B54
:102FF000682B692B71F4A114B10459F0D5018C919F
:10300000882339F061E0C5010E942F9907C0112380
:1030100091F360E087EF93E00E94029983E090E0F3
:1030200090938B1B80938A1B81E08093E01B0E940E
:103030000CAE0E94CE2BC114D104E104F10411F1B5
:103040008091761B9091771BA091781BB091791B92
:10305000C80ED91EEA1EFB1E0E9400B0DC01CB0187
:103060008C199D09AE09BF09B7FD02C00C94B424A8
:103070008091E01B882311F40C94B42480E00E941A
:103080006366EACF1092E01B10C90E94B52CF801CC
:1030900084918F010F5F1F4F8111F7CFE3E2F4E0BE
:1030A00084918F010F5F1F4F882321F00E94B52C60
:1030B000F801F6CF1092BA0E1092B90E84E69CE099
:1030C0000E9414898BE1E4E6FCE0DE011596019094
:1030D0000D928A95E1F78091620C9091630C9C832C
:1030E0008B8389ED92E09A83898340E050E0BE01B2
:1030F0006F5F7F4F8FE693E00E94CB58CE01019621
:103100000E94A365E4E1F4E084918F010F5F1F4FFB
:10311000882309F4CAC80E94B52CF801F5CF0E9493
:10312000EF56C3C81092330C1092340CBEC81982EB
:103130001A821B821C8218A219A21AA21BA28091B9
:10314000E11B882341F040E0BE016F5F7F4FCE015D
:1031500080960E94E66B8091340C882319F081E000
:103160008093330C0E945A3AA0C81092330C0E94EC
:10317000403A84E394E090930C1680930B160E94DF
:10318000612A93C88091340C882309F48EC883E5A2
:103190000E94BB2B882309F488C80E94252BAB0111
:1031A000BC014093B00E5093B10E6093B20E709379
:1031B000B30E8FEF9DE00E94ADA677C88091340CCE
:1031C000811103C0EBE4F4E029C0E9E3F4E0849169
:1031D0008F010F5F1F4F882321F00E94B52CF8014B
:1031E000F6CF6091B00E7091B10E8091B20E9091B9
:1031F000B30E4AE00E940B2D8FE20E94B52C609125
:10320000AC0E7091AD0E8091AE0E9091AF0E4AE073
:103210000E940B2D8AE00E94B52C47C884918F0133
:103220000F5F1F4F882309F440C80E94B52CF80196
:10323000F5CF0E947C380C9455118091330C81118C
:103240000E940CAEE0902C06F0902D0680E50E94C6
:103250008C2B182F882319F00E94492B182F80914E
:10326000340C882311F40C945511412F61E0C701EF
:103270000E945B3E83E50E94BB2B882381F00E9465
:10328000252BAB01BC014093B00E5093B10E60935F
:10329000B20E7093B30E8FEF9DE00E94ADA68091A9
:1032A000340C882319F081E08093330C11110C94B5
:1032B000551158CF80912C0690912D0621E0209336
:1032C000320C40E060E00E945B3E0C94551188E0B7
:1032D0009CE00E94D5AC68A379A38AA39BA3BE01FE
:1032E0006F5F7F4FCE0180960E94D92B60E0CE01A8
:1032F00001960E942F99EDEFF0E184918F010F5F0D
:103300001F4F882321F00E94B52CF801F6CFBE0193
:103310006F5F7F4F8CE594E00E94EE618AE00E942F
:10332000B52C0C94551183E50E94BB2B882311F416
:103330000C9455110E94352BE82E80E50E94BB2B82
:10334000882339F00E94252B8B0177FF04C00C9451
:1033500055110DE010E0802FE2E1F7E09491891320
:1033600003C0E7ECF0E10AC03196B7E0EA33FB07AF
:10337000A9F70C94B8240E94B52CF80184918F0110
:103380000F5F1F4F8111F7CFE9E6F4E084918F01C1
:103390000F5F1F4F882311F40C9455110E94B52C18
:1033A000F801F4CF0E94403A0C9455110E94A954A0
:1033B0000C9455110E9477340C94551188E690E0D6
:1033C0000E94782D81110C9455118091FA1383FF7E
:1033D00002C00C94551183E50E94BB2B8823F1F0A9
:1033E0000E94592B0E94A7D27093131C6093121C49
:1033F00080E00E9417860E94592B20E030E04AEAC4
:1034000052E40E94C9CC18163CF00E94A95460E016
:1034100088E794E00E9402990E94592B0E94EE6274
:103420000C9455118EE40E94BB2B882311F40C944C
:1034300055110E94252B6093241D7093251D8093A8
:10344000261D9093271D0C94551183E50E94BB2BDC
:10345000882319F00E94352B01C080E08093FA1375
:10346000EDEFF0E184918F010F5F1F4F811103C0D9
:10347000E8E9F4E004C00E94B52CF801F3CF849190
:103480008F010F5F1F4F882321F00E94B52CF80198
:10349000F6CF8091FA13811103C0E4E9F4E034C05F
:1034A000BAE8CB2EB4E0DB2EE12CF12C20E08091A9
:1034B000FA1390E00E2C02C0959587950A94E2F7D6
:1034C00080FF17C0BB24B394B20E222319F08CE204
:1034D0000E94B52CF60185919491FC0184918F0195
:1034E0000F5F1F4F882321F00E94B52CF801F6CF03
:1034F0002B2DEFEFEE1AFE0AF2E0CF0ED11C85E085
:10350000E816F104A1F60AC084918F010F5F1F4FE6
:10351000882321F00E94B52CF801F6CF8AE00E94A2
:10352000B52C0C9455118FE994E00E94F76583E562
:103530000E94BB2B811103C0EDEFF0E10DC00E9492
:10354000352B80932E028D3310F40C9455118CE39F
:1035500080932E020C94551184918F010F5F1F4FA1
:10356000882321F00E94B52CF801F6CF40912E025D
:1035700050E060E070E087EA94E00E949B618AE09E
:103580000E94B52C0C9455118091FA1383FF02C050
:103590000C94551183E50E94BB2B882311F40C94E5
:1035A00055110E94592B0E94A7D26739710514F05A
:1035B00066E970E07093111C6093101C0C94551117
:1035C00089E690E00E94782D811111C0EEEAF4E0C6
:1035D00084918F010F5F1F4F882321F00E94B52C2B
:1035E000F801F6CF0E9456328AE00E94B52C109264
:1035F0008B1B10928A1B0C942B2583E50E94BB2BFE
:10360000882311F40C9455110E94352B8093731B61
:103610008D3318F08CE38093731B0E9400B06B0114
:103620007C012091731B30E0A8EEB3E00E944BD1E7
:10363000C60ED71EE81EF91EC0926F1BD092701BDB
:10364000E092711BF092721B0C9455110E94DB32B8
:103650000C94551183E50E94BB2B882339F00E94FE
:10366000252B8B016F3F710519F010F00FEF10E063
:1036700080E50E94BB2B811106C01093F9130093C3
:10368000F8130C9455110E94352B81110C9455118F
:10369000F4CF80E50E94BB2B811106C01092F91374
:1036A0001092F8130C9455110E94252B672B11F0E2
:1036B0000C945511F3CF8CE40E948C2B882319F0C5
:1036C0000E94592B04C060E070E080EA90EC68AB87
:1036D00079AB8AAB9BAB8AE50E94BB2B882319F0A0
:1036E0000E94592B03C060E070E0CB0120E030E085
:1036F00040E751E40E94B2D16CA77DA78EA79FA797
:1037000088E50E94BB2B882319F00E94592B03C027
:1037100060E070E0CB0120E030E042E553E40E943D
:10372000B2D168A779A78AA79BA789E50E94BB2B7E
:10373000882319F00E94592B03C060E070E0CB0190
:1037400020E030E04CED52E40E94B2D16CA37DA3A6
:103750008EA39FA319821A821B821C8218A219A20F
:103760001AA21BA28091E11B81110C945511A12C6E
:10377000C12CDE0111967D018E01005E1F4F9E015E
:103780002C5D3F4FAE01485D5F4FBE01645D7F4FD2
:10379000CE01C0960E942D6A0C94551110923206EB
:1037A0000C94551181E0809332060C94551183E5F9
:1037B0000E94BB2B8823A1F00E94592B20E030E00F
:1037C0004AE754E40E942FCD0E94AED260932F02AC
:1037D0007093300280933102909332020C94551111
:1037E00088E50E948C2B81110C94D02489E50E94DD
:1037F0008C2B81110C94D0248AE50E948C2B811192
:103800000C94D02485E40E948C2B81110C94D0243C
:103810000C94FC2483E50E948C2B882311F40C94D7
:1038200055110E94592B20E030E04AE754E40E94F1
:103830002FCD0E94AED260937A1B70937B1B809336
:103840007C1B90937D1B0C945511F60181916F01A7
:103850000E948C2B882309F46EC0133009F063C0DA
:103860000E94592B4B015C0120E030E040EA51E41A
:103870000E94C9CC87FF4EC0A50194016091A51399
:103880007091A6138091A7139091A8130E9435D22E
:103890002B013C019B01AC016091CC137091CD13C5
:1038A0008091CE139091CF130E942FCD6093CC13B3
:1038B0007093CD138093CE139093CF13A3019201F5
:1038C0006091E8137091E9138091EA139091EB13E2
:1038D0000E942FCD6093E8137093E9138093EA134D
:1038E0009093EB136091391670913A1680913B16C4
:1038F00090913C160E94CECCA30192010E942FCD44
:103900000E94AED26093391670933A1680933B169C
:1039100090933C168092A5139092A613A092A713A1
:10392000B092A81308C00E94592BD7016D937D93C4
:103930008D939C9313971F5FB4E0EB0EF11C143032
:1039400009F083CF0E9446640C9455110E940CAE7E
:103950000E94AF7D0C9455110E94B52CF801849102
:103960008F010F5F1F4F8111F7CFEEE7F5E003C026
:103970000E94B52CF80184918F010F5F1F4F8111B8
:10398000F7CFE7E6F5E003C00E94B52CF80184917B
:103990008F010F5F1F4F8111F7CFE7E5F5E003C0FF
:1039A0000E94B52CF80184918F010F5F1F4F811188
:1039B000F7CFE6E4F5E003C00E94B52CF80184914E
:1039C0008F010F5F1F4F8111F7CFE5E3F5E003C0D3
:1039D0000E94B52CF80184918F010F5F1F4F811158
:1039E000F7CFE6E2F5E003C00E94B52CF801849120
:1039F0008F010F5F1F4F8111F7CFE1E1F5E003C0A9
:103A00000E94B52CF80184918F010F5F1F4F811127
:103A1000F7CFEBEFF4E003C00E94B52CF8018491DE
:103A20008F010F5F1F4F8111F7CFE6EEF4E003C067
:103A30000E94B52CF80184918F010F5F1F4F8111F7
:103A4000F7CFE9ECF4E003C00E94B52CF8018491B3
:103A50008F010F5F1F4F8111F7CFE1EBF4E08491ED
:103A60008F010F5F1F4F882311F40C9455110E9492
:103A7000B52CF801F4CF60E080912C0690912D06D2
:103A80000E942F990C94551185E40E948C2B882359
:103A900081F00E94492B882361F0EDEFF0E18491E1
:103AA0008F010F5F1F4F882321F00E94B52CF80172
:103AB000F6CF81E40E948C2B882381F00E94492B51
:103AC000882361F0E2E5F6E084918F010F5F1F4FDC
:103AD000882321F00E94B52CF801F6CF00912C0626
:103AE00010912D06F80181918F01882309F416CDDC
:103AF0000E94B52CF7CF0E94EA9F0C94551181E0EB
:103B00008093080280935A1C0C945511109208025D
:103B100010925A1C0C94551188EC90E00E94782D5C
:103B200081110C94551184E40E948C2B882309F494
:103B300043C00E94592B6B017C0111E020E030E072
:103B4000A9010E94C9CC811101C010E010935B1C37
:103B500020E030E0A901C701B6010E94C9CC88234A
:103B600059F100912E0610E00E94592B000F111FF1
:103B7000000F111FF801EA55FD4F608371838283A6
:103B8000938320E030E0A9016091A6027091A70222
:103B90008091A8029091A9020E94C9CC81110CC009
:103BA00080E090E0A0EEBFE38093A6029093A7028E
:103BB000A093A802B093A9020E94276D0C945511FE
:103BC0007BECE72E72E0F72E0DE316E1D7018D9125
:103BD0007D010E948C2B882349F00E94592B0E9462
:103BE000AED2F80160837183828393830C5F1F4F91
:103BF000F6E10D341F0751F70E941E630C94551116
:103C00000C5F1F4FF3E10C3E1F0711F40C9455118C
:103C1000D7018D917D010E948C2B882389F30E940E
:103C2000592BF8016083718382839383E9CF83E505
:103C30000E948C2B8823D9F00E94592BAB01BC0128
:103C40004093D4135093D5136093D6137093D71326
:103C50004093D0135093D1136093D2137093D31326
:103C600080EB96E00E94B8618AE00E94B52C80E566
:103C70000E948C2B882399F00E94592BAB01BC0128
:103C80004093D4135093D5136093D6137093D713E6
:103C900083E996E00E94B8618AE00E94B52C82E533
:103CA0000E948C2B882399F00E94592BAB01BC01F8
:103CB0004093D8135093D9136093DA137093DB13A6
:103CC00084E796E00E94B8618AE00E94B52C84E502
:103CD0000E948C2B882311F40C9455110E94592BAF
:103CE000AB01BC014093D0135093D1136093D21316
:103CF0007093D31386E596E00E94B8618AE00E9433
:103D0000B52C0C94551183E50E948C2B882351F01F
:103D10000E94592B6093F4137093F5138093F6135C
:103D20009093F71384E50E948C2B882351F00E9416
:103D3000592B6093F0137093F1138093F2139093C7
:103D4000F31382E40E948C2B882351F00E94152BE0
:103D50006093EC137093ED138093EE139093EF1335
:103D600088E50E948C2B882351F00E94592B609388
:103D7000C0137093C1138093C2139093C31389E54A
:103D80000E948C2B882351F00E94592B6093C413FE
:103D90007093C5138093C6139093C7138AE50E944E
:103DA0008C2B882351F00E94592B6093C813709379
:103DB000C9138093CA139093CB1385E40E948C2B74
:103DC000882311F40C9455110E94592B6093CC1345
:103DD0007093CD138093CE139093CF130C94551101
:103DE0005BECE52E52E0F52E00E010E0D7018D915E
:103DF0007D010E948C2B882339F00E94592BAB0146
:103E0000BC01C8010E94072A0F5F1F4F0330110534
:103E100069F70E94BA2A0E94AF7D0C9455118491D3
:103E20008F010F5F1F4F882321F00E94B52CF801EE
:103E3000F6CF83E50E948C2B882321F00E94492B2A
:103E400080933302E2E0F7E084918F010F5F1F4F10
:103E5000882321F00E94B52CF801F6CF809133021F
:103E6000882319F0E8EFF6E002C0EDEFF6E0849168
:103E70008F010F5F1F4F811103C0E0EFF6E004C018
:103E80000E94B52CF801F3CF84918F010F5F1F4F73
:103E9000882321F00E94B52CF801F6CF40911D1621
:103EA00050911E1660911F16709120168EEE96E0AE
:103EB0000E94B861409121165091221660912316FC
:103EC000709124168BEE96E00E94B8614091251601
:103ED00050912616609127167091281688EE96E06C
:103EE0000E94B861E0EEF6E084918F010F5F1F4FF2
:103EF000882321F00E94B52CF801F6CF40910F02E3
:103F00005091100260911102709112028EED96E0B4
:103F10000E94B86140911302509114026091150201
:103F2000709116028BED96E00E94B86140911702E5
:103F3000509118026091190270911A0288ED96E072
:103F40000E94B8618AE00E94B52C0C94551183E55B
:103F50000E94BB2B882311F40C9455110E94252B31
:103F600070938D0260938C020C9455118DED90E04E
:103F70000E94782D81110C94551183E50E94BB2B72
:103F8000882311F40C94551100912E0610E00E9424
:103F9000252B000F111FF801E75FFD4F7183608330
:103FA0000C94551180E50E948C2B882311F40C94FD
:103FB00055110E94252BF62EC62ED72E83E50E9482
:103FC000BB2B882321F00E94252B8B0102C00FEF11
:103FD0001FEFC8010196039710F00C945511D7FEFE
:103FE00002C00C945511E2E1F7E08491F81611F447
:103FF0000C9455113196B7E0EA33FB07B1F702C5CF
:1040000083E50E94BB2B882319F00E94252B02C058
:1040100064E071E079A368A380E50E94BB2B88234C
:1040200039F00E94252B6938E3E17E0730F402C0A5
:1040300068EE73E07A83698304C088E893E19A8329
:104040008983BE01605E7F4FCE0101960E94865536
:104050000C94551185E40E94BB2B811110C080E5A2
:104060000E948C2B882391F00E94592B6093BD02F3
:104070007093BE028093BF029093C00207C00E945B
:10408000352B882361F3E7ECF0E172C089E40E94EC
:104090008C2B882381F00E94592B2CEA35EC47E2C7
:1040A0005EE30E942FCD6093B9027093BA028093B1
:1040B000BB029093BC0284E40E948C2B882381F085
:1040C0000E94592B2CEA35EC47E25EE30E9435D280
:1040D0006093C1027093C2028093C3029093C402A2
:1040E000EDEFF0E184918F010F5F1F4F882321F0E6
:1040F0000E94B52CF801F6CF4091BD025091BE024E
:104100006091BF027091C00282E497E00E94B861A2
:104110002CEA35EC47E25EE36091B9027091BA0295
:104120008091BB029091BC020E9435D2AB01BC01D0
:104130008EE397E00E94B8612CEA35EC47E25EE33B
:104140006091C1027091C2028091C3029091C40239
:104150000E942FCDAB01BC018AE397E00E94B861B9
:104160008AE00E94B52C0C9455110E94B52CF801E0
:1041700084918F010F5F1F4F8111F7CF09E713E083
:10418000D8018D918D01882309F4C8C90E94B52CEE
:10419000F7CF80E50E948C2B882351F00E94592B89
:1041A0006093B5027093B6028093B7029093B80201
:1041B00089E40E948C2B882381F00E94592B2CEAE1
:1041C00035EC47E25EE30E942FCD6093B10270931D
:1041D000B2028093B3029093B40284E40E948C2BC9
:1041E000882381F00E94592B2CEA35EC47E25EE3EC
:1041F0000E9435D26093AD027093AE028093AF02FD
:104200009093B002EDEFF0E184918F010F5F1F4FAB
:10421000882321F00E94B52CF801F6CF4091B50219
:104220005091B6026091B7027091B8028EE497E0A7
:104230000E94B8612CEA35EC47E25EE36091B1027E
:104240007091B2028091B3029091B4020E9435D273
:10425000AB01BC018AE497E00E94B8612CEA35EC1E
:1042600047E25EE36091AD027091AE028091AF02D1
:104270009091B0020E942FCDAB01BC0186E497E083
:104280000E94B8618AE00E94B52C0C94551183E518
:104290000E948C2B182F882371F00E94592B0E94AA
:1042A000A7D2709328026093270221E0672B09F0C0
:1042B00020E020934D1680E50E948C2B882361F02E
:1042C0002091270230912802232B11F00E94492BC4
:1042D00080934D160C94551111110C945511EDEF5E
:1042E000F0E184918F010F5F1F4F882321F00E941E
:1042F000B52CF801F6CF80914D16882319F061E5B1
:1043000075E002C065E773E087E697E00E94EE6122
:10431000609127027091280286E597E00E94D5619E
:10432000E2E5F7E084918F010F5F1F4F882311F4BE
:104330000C9455110E94B52CF801F4CF0E943E79DF
:104340000C9455110E940CAE0C94551186E50E94F8
:104350008C2B882389F08091BF1380FF0DC007EA62
:1043600017E0F8018491882329F00F5F1F4F0E9406
:10437000B52CF7CF0E947AC683E50E948C2B182FAC
:10438000882319F00E94492B182F83E50E948C2B5B
:10439000882319F0812F0E9435298091BF138270E4
:1043A000F82E111103C0EDEFF0E119C08111FBCF20
:1043B00007EC10E1F8018491811103C008E817E0CF
:1043C00005C00F5F1F4F0E94B52CF4CFF8018491F8
:1043D000882349F30F5F1F4F0E94B52CF7CF8491BC
:1043E0008F010F5F1F4F882321F00E94B52CF80129
:1043F000F6CFFF2019F06BE673E002C060E773E0D0
:104400008AE797E00E94EE618AE00E94B52C0C9446
:10441000551188E50E948C2BD82E89E40E948C2BA4
:10442000C82E882319F00E94252B27C0DD2011F10A
:104430000E94592B20914E1630914F1640915016E4
:10444000509151160E94B1D120E030E040E252E498
:104450000E94B1D120E030E04AE752E40E94B2D19C
:104460002FE632E143E05CE30E942FCD0E94A7D209
:10447000623018F0AA24AA9401C0A62E89E50E94F1
:104480008C2BF82E8AE40E948C2B182F882319F08D
:104490000E94252B27C0FF2011F10E94592B20914B
:1044A00052163091531640915416509155160E9451
:1044B000B1D120E030E040E252E40E94B1D120E0EE
:1044C00030E042E852E40E94B2D121EC3FE04CEFF0
:1044D0005BE30E942FCD0E94A7D2623018F0BB246C
:1044E000BA9401C0B62E8AE50E948C2BE82E811169
:1044F00005C081E50E948C2B082F01C000E0C1108F
:1045000002C020E001C0212F30E0D11002C080E0C5
:1045100001C08F2D280F311D2130310521F4E1100C
:104520001DC001111BC0E7ECF0E184918F010F5F0A
:104530001F4F811103C0ECEDF7E004C00E94B52CC1
:10454000F801F3CF84918F010F5F1F4F882311F47F
:104550000C9455110E94B52CF801F4CFA7FC02C0B1
:10456000B7FE1BC0E7ECF0E184918F010F5F1F4F96
:10457000811103C0EDEBF7E004C00E94B52CF801F7
:10458000F3CF84918F010F5F1F4F882311F40C9498
:1045900055110E94B52CF801F4CF0E94592BEA2C3A
:1045A000AA0CFF08AB2DBB0CBB0B002381F0F7015D
:1045B000EE0FFF1FEA0FFB1FEE0FFF1FEE0FFF1F97
:1045C000E155FC4E208131814281538103C020E0BE
:1045D00030E0A901F701EE0FFF1FEA0FFB1FEE0FFE
:1045E000FF1FEE0FFF1F8F0101551C4E0E94B2D11D
:1045F000D8016D937D938D939C9313970C945511D3
:10460000E2EEFBE1FDABECAB8EE4882E86E1982E6A
:1046100099E8A92E93E1B92E2DE1C22E26E1D22EE2
:104620003FE0232E32E0332E4AEFE42E49E1F42E10
:1046300000E010E0ACA9BDA98D91BDABACAB882367
:1046400009F486C0F5014080518062807380D101F9
:104650002D913D914D915C91F60160817181828136
:1046600093810E94B2D120E030E040E05FE30E94FD
:104670002FCD9B01AC01C301B2010E9435D31816A6
:1046800054F4F70185919591A591B4918EAB9FABB0
:10469000A8AFB9AF04C01EAA1FAA18AE19AED401A4
:1046A0002D913D914D915C91C301B2010E94B1D118
:1046B0009B01AC016EA97FA988AD99AD0E94B1D1D3
:1046C0002B013C0120E030E040EA51EC0E9435D360
:1046D00087FD0AC020E030E040EA51E4C301B201A6
:1046E0000E94C9CC18161CF4E7ECF0E109C0B30134
:1046F000A201C8010E94072A2BC00E94B52CF80114
:1047000084918F010F5F1F4F8111F7CFEBE1F8E02C
:1047100084918F010F5F1F4F882321F00E94B52CD9
:10472000F801F6CF61E08DE098E00E94029988E2FE
:1047300090E09A83898388EC90E099A388A3BE01D6
:104740006F5F7F4FCE0180960E9486550C94551165
:104750000F5F1F4FB4E08B0E911CE4E0AE0EB11C56
:10476000F4E0CF0ED11C24E0220E311C84E0E80ED0
:10477000F11C0330110509F05DCF0E94BA2A0E9496
:10478000AF7D60E08CEF97E00E94029983E992E0B0
:1047900099A388A304E610E01A830983BE01605E32
:1047A0007F4FCE0101960E9486558AEB92E099A335
:1047B00088A31A830983BE01605E7F4FCE010196F4
:1047C0000E9486550C9455110E9456938CEF98E0E8
:1047D0009A83898306E410E019A308A3BE016F5FE2
:1047E0007F4FCE0180960E94865584E59BE09A8398
:1047F000898319A308A3BE016F5F7F4FCE01809606
:104800000E9486550C9455110E9467A084E59BE098
:104810009A83898306E410E019A308A3BE016F5FA1
:104820007F4FCE0180960E9486558CEF98E09A8348
:10483000898319A308A3BE016F5F7F4FCE018096C5
:104840000E9486550C94551183E50E948C2B882379
:1048500011F40C9455110E94492B80930D110C9466
:1048600055110E9451770C9455110E94B52CF801F6
:1048700084918F010F5F1F4F8111F7CFE9E3F8E0BB
:1048800084918F010F5F1F4F882311F40C945511F1
:104890000E94B52CF801F4CF81E08093AC02109215
:1048A000401C83E50E948C2B811104C00E9479B0CA
:1048B0000C9455110E94492B81110C945511F6CF7F
:1048C000F0903506FF2029F1EDEFF0E184918F01A2
:1048D0000F5F1F4F882321F00E94B52CF801F6CFFF
:1048E00084E50E94B52C6F2D70E080E090E04AE0F6
:1048F0000E940B2D80E20E94B52C09E713E0D8013D
:104900008D918D01882311F40C948E1A0E94B52C80
:10491000F6CF1092DF1BEDEFF0E184918F010F5F76
:104920001F4F882321F00E94B52CF801F6CF60912B
:10493000DF1B70E088E498E00E94D5618AE00E9465
:10494000B52C0C94551160912C0670912D06672B97
:1049500039F4BF016150710970932D0660932C06E4
:1049600060E070E00C94E3111092E01B0C94551180
:1049700061E0802F0E94C1AE6E2D802F0E9492AE0A
:10498000F12CB701802F0E94FDAE0930110511F006
:104990000C945511F092F913E092F8130C94551100
:1049A0000E940CAE88E50E948C2B882319F05F9A38
:1049B0001092F11089E50E948C2B882319F08A9AB5
:1049C0001092F2108AE50E948C2B882351F09FB739
:1049D000F894809108018160809308019FBF109234
:1049E000F31085E40E948C2B882311F40C9455114C
:1049F0000E94E4650C9455110E940CAE0E94E6657D
:104A00000C9455110E940CAE60E08F2D0E94C1AE37
:104A10000F3FBFEF1B0759F48F2D0E94E03D31E09F
:104A200020E0892B09F030E0032F122F05C0013060
:104A3000110571F401E010E08F2D0E94E03D801718
:104A4000910711F40C94551180E00E946366F4CF35
:104A500000E010E0F1CFE9960FB6F894DEBF0FBE8C
:104A6000CDBFDF91CF911F910F91FF90EF90DF901D
:104A7000CF90BF90AF909F908F907F906F905F90FE
:104A80004F903F902F9008959091E710E92FF0E01C
:104A9000EB5FFE4E80839F5F983018F49093E71091
:104AA00002C01092E71080912C138F5F80932C131B
:104AB00008958FB7F8949091231D2091221D92178D
:104AC00059F0E92FF0E0EE55F34E208130E09F5F82
:104AD0009F779093231D02C02FEF3FEF8FBFC90137
:104AE0000895089580E090E008952F923F924F92AC
:104AF0005F926F927F928F929F92AF92BF92CF926E
:104B0000DF92EF92FF920F931F93CF93DF9300D02A
:104B100000D0CDB7DEB79A8389830E9400B0E981C7
:104B2000FA81C680D780E084F184C114D104E10405
:104B3000F10409F0ACC22485222309F469C332854B
:104B40002150248721E0230F22874585241301C0AB
:104B50001286E981FA8124E0329FE00DF11D1124D3
:104B6000C684D784E088F188E981FA81C282D38241
:104B7000E482F582DC01CB018C0D9D1DA11DB11DD0
:104B800086839783A087B18784819581892B09F4D7
:104B90003FC3FFB7FD83F894E981FA812280338017
:104BA0002101612C712C0481158180913D02853297
:104BB00021F08F3F09F068C205C0EEE6FEE12491C6
:104BC0002E83DAC085E280933D02EEE6FEE1849119
:104BD0008E838F3F09F458C2823009F469C030F5E2
:104BE000882309F44CC0813009F0C6C010928000BF
:104BF0001092810080918100886080938100809173
:104C00008100816080938100E9E0FDE0E491F0E0C3
:104C1000EE0FFF1FE454FF4D85919491EFE4FDE00A
:104C2000E491E0938A10E1E0EE8330C19E819430FC
:104C300009F482C008F460C0953009F09DC010925C
:104C4000200110922101809121018860809321012F
:104C500080912101816080932101E9E0FDE0E491F0
:104C6000F0E0EE0FFF1FE454FF4D85919491EFE4C7
:104C7000FDE0E491E093871095E09E8307C114BCAA
:104C800015BC84B5826084BD85B5816085BDE9E0D1
:104C9000FDE0E491F0E0EE0FFF1FE454FF4D85913D
:104CA0009491EFE4FDE0E491E0938B101E82ABC29F
:104CB0001092B0001092B1008091B0008260809399
:104CC000B0008091B10081608093B100E9E0FDE027
:104CD000E491F0E0EE0FFF1FE454FF4D85919491B5
:104CE0009093211C8093201CEFE4FDE0E491E0937D
:104CF000221CF2E0FE8387C2109290001092910075
:104D000080919100886080939100809191008160F2
:104D100080939100E9E0FDE0E491F0E0EE0FFF1FE9
:104D2000E454FF4D85919491EFE4FDE0E491E0932C
:104D3000891023E02E83AAC01092A0001092A10037
:104D40008091A10088608093A1008091A100816082
:104D50008093A100E9E0FDE0E491F0E0EE0FFF1F99
:104D6000E454FF4D85919491EFE4FDE0E491E093EC
:104D7000881084E08E838AC0EE81E7FD85C161E002
:104D800085E20E94C1AE8E818D7F09F083C048010B
:104D9000A12CB12C60E072E18AE790E0A5019401BA
:104DA0000E9482D129833A834B835C8369017A0113
:104DB000F1E0CF1AD108E108F1082FEFC216D104B3
:104DC000E104F10409F008F44EC060E472E48FE0FD
:104DD00090E0A50194010E9482D169017A0181E0ED
:104DE000C81AD108E108F1089E81923009F5EFEF69
:104DF000CE16D104E104F10409F008F4CBC160E956
:104E000070ED83E090E0A50194010E9482D16901D8
:104E10007A01F1E0CF1AD108E108F1082FEFC216AC
:104E2000D104E104F10411F008F041C183E027C08E
:104E30008FEFC816D104E104F104B9F0B0F068E4D2
:104E400078EE81E090E0A50194010E9482D1690191
:104E50007A0191E0C91AD108E108F108EE81EE2348
:104E600009F49AC163C181E001C082E09E81911181
:104E700006C095B5987F892B85BD7AC085E0909155
:104E8000B100987F892B8093B10072C061E085E208
:104E90000E94C1AE4801A12CB12C60E072E18AE70A
:104EA00090E0A50194010E9482D169017A01E1E0BC
:104EB000CE1AD108E108F108C114D104F1E0EF06DF
:104EC000F10488F068E478EE81E090E0A5019401B7
:104ED0000E9482D169017A0181E0C81AD108E108F3
:104EE000F10883E001C081E09E81913071F49091DE
:104EF0008100987F892B8093810045284628472888
:104F0000D9F52FEF3FEFA90168C0EE81E33071F4CE
:104F100090919100987F892B809391004528462895
:104F2000472851F52FEF3FEFA90179C0FE81F430FA
:104F300071F49091A100987F892B8093A10045285E
:104F400046284728C9F42FEF3FEFA9017AC02E81E8
:104F5000253071F490912101987F892B8093210154
:104F600045284628472841F42FEF3FEFA9017BC091
:104F700045284628472869F0D801AA0FBB1F910190
:104F80000E944BD128EE33E040E050E00E941ED159
:104F900003C02FEF3FEFA9018E81823081F12CF405
:104FA000882361F08130C9F06FC09E81943009F48C
:104FB00048C0ACF1953009F456C066C0C7BC209318
:104FC0009C1030939D1040939E1050939F108091A1
:104FD0006E00826080936E0057C0D0928900C092AC
:104FE0008800209398103093991040939A10509312
:104FF0009B1080916F00826080936F0045C0C092CB
:10500000B3002093231C3093241C4093251C509301
:10501000261C8091700082608093700035C0D09211
:105020009900C0929800209394103093951040936B
:105030009610509397108091710082608093710058
:1050400023C0D092A900C092A80020939010309362
:10505000911040939210509393108091720082604F
:105060008093720011C0D0922901C0922801209330
:105070008C1030938D1040938E1050938F10809130
:105080007300826080937300ED81EFBFC1C0DC01CB
:10509000CB018C199D09AE09BF09B7FDB9C0409875
:1050A000E981FA811682178210861186B1C068E400
:1050B00078EE81E090E0A50194010E9482D169011F
:1050C0007A01F1E0CF1AD108E108F1082FEFC216FA
:1050D000D104E104F10441F138F164E274EF80E0BD
:1050E00090E0A50194010E9482D169017A01F1E06A
:1050F000CF1AD108E108F1082FEFC216D104E1045C
:10510000F10409F008F4BACE62E17AE780E090E0B9
:10511000A50194010E9482D169017A0181E0C81A37
:10512000D108E108F10819C084E0A9CE2FEFC2161A
:10513000D104E104F10409F008F463C062E17AE704
:1051400080E090E0A50194010E9482D169017A017A
:10515000F1E0CF1AD108E108F1082FEFC216D1040F
:10516000E104F104A9F0A0F089819A81AB81BC81AE
:105170002AE0B595A795979587952A95D1F76C0163
:105180007D01F1E0CF1AD108E108F10887E077CE80
:1051900086E075CE82E073CEEFEFCE16D104E10447
:1051A000F10469F160F162E17AE780E090E0A50145
:1051B00094010E9482D169017A0181E0C81AD10864
:1051C000E108F1089FEFC916D104E104F104A9F048
:1051D000A0F089819A81AB81BC813AE0B595A79511
:1051E000979587953A95D1F76C017D01E1E0CE1A4C
:1051F000D108E108F10885E03CCE84E03ACE83E0B6
:1052000038CE84E033CE61E085E20E94C1AEBFCDEE
:1052100026960FB6F894DEBF0FBECDBFDF91CF91BB
:105220001F910F91FF90EF90DF90CF90BF90AF90C4
:105230009F908F907F906F905F904F903F902F90B6
:1052400008958FEB9EE00E94608021E0892B09F495
:1052500020E0822F08958CE59FE00E94608021E08D
:10526000892B09F420E0822F08959091BF1391FBC0
:10527000222720F98217C9F081110EC041E953E1BC
:105280006DE873E189E893E10E94DE518091BF13DC
:105290008D7F8093BF13089590FFF8CF9260909315
:1052A000BF1389E893E10C94096208958F929F924D
:1052B000AF92BF92CF92EF92FF920F931F93CF9333
:1052C000DF93CDB7DEB72C970FB6F894DEBF0FBED5
:1052D000CDBF4B015C01C090DF1BEDE0F6E18085A6
:1052E0009185A285B385448155816681778100814E
:1052F00011812281338109831A832B833C834D835F
:105300005E836F83788789879A87AB87BC87AE0176
:10531000475F5F4FBE016B5F7F4FCE0101960E94DA
:10532000DE518501740129E136E1AE01475F5F4F2F
:10533000BE016B5F7F4FCE0101960E9446432C96C3
:105340000FB6F894DEBF0FBECDBFDF91CF911F9196
:105350000F91FF90EF90CF90BF90AF909F908F9064
:105360000895CF92DF92EF92FF920F931F93CF9306
:10537000DF93EC01CC0FDD1FCC0FDD1FFE01E750EA
:10538000FF4E20E030E0A90160817181828193812C
:105390000E94B2D1FE01E258F44E20813181428157
:1053A00053810E94B2D16B017C01FE01E25BF94E98
:1053B0006083718382839383FE01EA5DF54F2591BB
:1053C0003591459154918E01035E194E0E94B2D1E0
:1053D000F8016083718382839383FE01EE5CF54F55
:1053E0002591359145915491C15FDD4FC701B601BB
:1053F0000E94B2D1688379838A839B83DF91CF91A6
:105400001F910F91FF90EF90DF90CF9008958F92B2
:105410009F92AF92BF92EF92FF920F931F93CF9301
:10542000DF938C014A015B01EC01CC0FDD1FCC0F37
:10543000DD1FCE0187579C4E7C01C750DF4E28816F
:1054400039814A815B81C501B4010E94B1D1F70164
:1054500020813181428153810E94B2D1F701608362
:1054600071838283938388829982AA82BB82C801D6
:10547000DF91CF911F910F91FF90EF90BF90AF9070
:105480009F908F900C94B129CF93FC0120812B33F6
:10549000A9F020912C13283088F4C62FBC018091EC
:1054A000E710F0E48F9FC0011124855D9E4E0E949D
:1054B000F9D48C2F0E94442581E001C080E0CF9177
:1054C0000895DF92EF92FF920F931F93CF93DF9394
:1054D000CDB7DEB76E970FB6F894DEBF0FBECDBF67
:1054E00060910B1670910C166115710549F14DE133
:1054F00050E0CE0101967C010E9443CC1E8EF70144
:105500008F010E191F09D190DD2019F09AE0D912F0
:10551000F7CFF701E00FF11F1082C7010E94BA55C3
:10552000882371F0DD20A9F00F5F1F4F80910B16CB
:1055300090910C16080F191F10930C1600930B1660
:1055400081E020910B1630910C16232B29F480E07A
:1055500003C000E010E0F0CF6E960FB6F894DEBF07
:105560000FBECDBFDF91CF911F910F91FF90EF90B4
:10557000DF9008950F931F93CF93DF93CDB7DEB7DE
:105580002C970FB6F894DEBF0FBECDBFE9E8F3E16C
:1055900080859185A285B385448155816681778117
:1055A000008111812281338109831A832B833C83FB
:1055B0004D835E836F83788789879A87AB87BC87A3
:1055C000AE01475F5F4FBE016B5F7F4FCE0101961B
:1055D0000E94DE5125E933E1AE01475F5F4FBE0116
:1055E0006B5F7F4FCE0101960E9479632C960FB6B8
:1055F000F894DEBF0FBECDBFDF91CF911F910F9109
:10560000089580E1E9E8F3E1ADE0B6E101900D92A3
:105610008A95E1F7089580E1EDE0F6E1A9E8B3E1CC
:1056200001900D928A95E1F70895809185109091EF
:105630008610009731F04AE050E060E070E00C9492
:105640000ACB60E070E0CB010895809185109091C5
:105650008610009731F04AE050E060E070E00C9472
:10566000DCC960E070E0CB0108950E94252B97FD16
:105670000CC00E94252B6F3F71058105910509F033
:1056800034F40E94252B862F089580E008958FEF33
:1056900008958091851090918610892B39F00E9491
:1056A000352B91E0811103C090E001C091E0892F7A
:1056B00008950F931F93CF9380918510909186103A
:1056C0000097F1F0FC018F01C1912C2F2F7D89F003
:1056D000C53411F0C536B9F7F801108260E070E00A
:1056E0000E9480C8F801C083562F472F382F292FDA
:1056F0000BC060E070E0CF911F910F910C9480C8B7
:1057000050E040E030E020E0652F742F832F922F8F
:10571000CF911F910F91089581548A3150F5482FF0
:1057200050E0FA0193E0F595E7959A95E1F7E85D89
:10573000F94F208130E0877002C0359527958A9512
:10574000E2F7822F817020FF15C0FA01E25FF94F66
:105750009081992339F02091741B3091751B290F8A
:10576000311D02C020E030E0309386102093851078
:10577000089580E008950E948C2B882341F081E0F9
:105780002091851030918610232B09F480E0089534
:10579000FC01238121110C94B68708950E9400B06A
:1057A0006093761B7093771B8093781B9093791B83
:1057B00008952F923F924F925F926F927F928F92B5
:1057C0009F92AF92BF92CF92DF92EF92FF920F9390
:1057D0001F93CF93DF93EB01FC0180809180A28027
:1057E000B380C501B40120E831E541E050E00E94FA
:1057F0001ED1C9016DE671E00E945AD16B017C0196
:10580000C501B40120E13EE040E050E00E941ED11D
:10581000CA01B90128E130E040E050E00E941ED109
:10582000362E272E062F172F8CE3482E512C612C55
:10583000712CC501B401A30192010E941ED1B62EA4
:10584000A72ECA01B901A30192010E941ED1CB016A
:10585000C114D104D9F0AF92BF927F936F932F926E
:105860003F92FF92EF92DF92CF9285E998E09F936B
:105870008F93DF93CF930E949ACC8DB79EB70E96ED
:105880000FB6F8949EBF0FBE8DBF5CC0E114F1044B
:10589000C9F0AF92BF927F936F932F923F92FF9286
:1058A000EF9285E898E09F938F93DF93CF930E94C8
:1058B0009ACCEDB7FEB73C960FB6F894FEBF0FBE7C
:1058C000EDBF40C0012BB9F0AF92BF927F936F93B1
:1058D0002F923F9289E798E09F938F93DF93CF9326
:1058E0000E949ACC8DB79EB70A960FB6F8949EBFC9
:1058F0000FBE8DBF27C0892BA9F0AF92BF927F93B7
:105900006F9381E798E09F938F93DF93CF930E94EB
:105910009ACCEDB7FEB738960FB6F894FEBF0FBE1F
:10592000EDBF10C0AF92BF928DE698E09F938F932A
:10593000DF93CF930E949ACC0F900F900F900F900F
:105940000F900F90DF91CF911F910F91FF90EF90EB
:10595000DF90CF90BF90AF909F908F907F906F908F
:105960005F904F903F902F9008953FB7F89420910B
:105970008310909184103FBF291304C09091C00000
:1059800095FD3EC0909183109F5F97702091841089
:10599000921325C00FB607FCF9CF2091C00025FF58
:1059A000F5CF20918410E22FF0E0E558FF4E3081D2
:1059B0002F5F2770209384103093C6002091C00081
:1059C00020642093C0003091831020918410321302
:1059D000DDCF2091C1002F7D2093C100D7CFE09172
:1059E0008310F0E0E558FF4E80832FB7F894909332
:1059F00083108091C10080628093C1002FBF089501
:105A00009FB7F8948093C6008091C0008064809313
:105A1000C0009FBF08958F929F92AF92BF92EF9266
:105A2000FF920F931F93CF93DF93CDB7DEB7A0976D
:105A30000FB6F894DEBF0FBECDBF611571058105AD
:105A4000910591F100E0842E912CA12CB12C102F06
:105A5000EE24E394F12CEC0EFD1EE00EF11C07FD8C
:105A6000FA94A50194010E941ED1F7016083B90147
:105A7000CA010F5F611571058105910541F71F3F4F
:105A800031F1E1E0F0E0EC0FFD1FE10FF11D17FD3A
:105A9000FA9580818A3010F097E301C090E3890F76
:105AA0000E94B52C1150EBCF80E3A0960FB6F8946E
:105AB000DEBF0FBECDBFDF91CF911F910F91FF9041
:105AC000EF90BF90AF909F908F900C94B52CA096C4
:105AD0000FB6F894DEBF0FBECDBFDF91CF911F91FF
