:100000000C9413130C9444130C9444130C94441345
:100010000C9444130C9444130C94C8AC0C944413E7
:100020000C9444130C9444130C9444130C944413F4
:100030000C9444130C9480840C9444130C94441337
:100040000C9444130C940E700C9444130C944413AD
:100050000C9444130C9444130C946F880C9468BA59
:100060000C9444130C9428340C9456340C9444137C
:100070000C9444130C9444130C9444130C944413A4
:100080000C9444130C9444130C9444130C94441394
:100090000C9444130C9444130C9444130C94441384
:1000A0000C9444130C9444130C9444130C94441374
:1000B0000C9444130C9444130C9444130C94441364
:1000C0000C9444130C9444130C9444130C94B334C4
:1000D0000C9489340C9444130C9444130C944413DE
:1000E0000C944413D93D1B3E4F3EA03ED53E8C3F61
:1000F000F63EFE3F1F3F543F499DCD9F99A099A0DA
:1001000099A08CA099A099A099A099A04CA08CA08E
:1001100099A058A099A099A099A099A099A099A058
:100120008FA048B84BB83AB83EB844B882B84FB878
:1001300053B859B85DB861B867B86BB86FB882B8D2
:1001400075B879B87DB882B987B98CB996B9A0B9B4
:1001500019BAAAB9B2B9BAB9C4B9CEB9D8B9E7B956
:10016000F1B919BAFBB905BA0FBA0C94A03E0C94B8
:10017000A0B90C943EB80C94BE830C94307B0C94C4
:10018000CB7D0C942F7A0C940B280C9482B90C9490
:1001900041850C940F280C941E670C9436800C94A7
:1001A0000FBA0C948CB90C94D8B90C9496B90C94E1
:1001B000D93D0C94F17F0C94FC7B0C94D53E0C94AF
:1001C00021840C94499D0C944F3E0C9461B80C947E
:1001D000A67C0C9482B80C943AB80C94CEB90C94CA
:1001E000087C0C94067B0C9467B80C94B2B90C9400
:1001F000E7B90C94CA7B0C9459B80C94D97D0C9433
:10020000CD9F0C94C1680C94C77C0C946FB80C946F
:1002100047D80C94F63E0C944BB80C94E3800C94A5
:10022000F1790C94107C0C940C280C9444B80C9428
:10023000F1B90C9487B90C948C3F0C94D2830C9434
:10024000FE3F0C947DB80C9479B80C946BB80C9468
:100250008CA00C948E850C94E0830C945DB80C9467
:10026000437E0C94C4B90C94E77D0C9453B80C9461
:10027000AC7A0C94DEB20C9419BA0C9475B80C9448
:100280004CA00C948FA00C94AAB90C944FB80C9469
:10029000FBB90C9449BB0C94543F0C943A7F0C94DA
:1002A000BAB90C9458A00C9478800C9499A00C9432
:1002B00005BA0C94AF830C9448B80C941F3F0C946F
:1002C000157E0C941B3E0C94CA7A0C9485834E4187
:1002D0004E494E495459494E46CDCCCC3D0AD723C0
:1002E0003C17B7D13877CC2B329595E6241FB14F08
:1002F0000A000020410000C84200401C4620BCBE4D
:100300004CCA1B0E5AAEC59D7400407A10F35A00B9
:10031000A0724E18090010A5D4E80000E87648172E
:100320000000E40B54020000CA9A3B000000E1F513
:1003300005000080969800000040420F000000A0D9
:100340008601000000102700000000E80300000004
:10035000006400000000000A00000000000100002E
:100360000000002C76D888DC674F0823DFC1DFAEA1
:1003700059E1B1B796E5E3E453C63AE6519976966A
:10038000E8E6C28426EB898C9B62ED407C6FFCEF33
:10039000BC9C9F40F2BAA56FA5F490055A2AF75C61
:1003A000936B6CF9676DC11BFCE0E40D47FEF52013
:1003B000E6B500D0ED902E030094357705008084DB
:1003C0001E080000204E0A000000C80C33333333EF
:1003D0000F986E12831141EF8D2114893BE655165B
:1003E000CFFEE6DB18D1844B381BF77C1D901DA493
:1003F000BBE424203284725E228100C9F124ECA186
:10040000E53D27434F4D4D554E49434154494F4ECD
:100410000044525952554E004552524F52530049D2
:100420004E464F004543484F00557370696A2E2E63
:100430002E004D3530300059206F7574206F6620C6
:1004400072616E67652028312D32292E0A005820EE
:100450006F7574206F662072616E67652028312D7C
:1004600032292E0A004D6573682070726F62696EC2
:100470006720646F6E652E0A005374617274206D7C
:100480006573682070726F62696E6720776974683F
:100490002022473239205331222066697273742E2C
:1004A0000A004732380A4732392053320053746108
:1004B00074653A20004D65736820626564206C6540
:1004C00076656C696E6720686173206E6F20646169
:1004D00074612E0A0053206F7574206F662072615C
:1004E0006E67652028302D35292E0A004D6573680A
:1004F00020706F696E742063616E6E6F7420626528
:10050000207265736F6C7665640A004F637A656B61
:100510006977616E69652E2E2E004D300042726142
:100520006B20727563687500456E642066696C6542
:10053000206C6973740A00426567696E2066696C95
:1005400065206C6973740A004D31323500534420C4
:100550007072696E74696E67206279746520004EEE
:100560006F74205344207072696E74696E670A005C
:100570005072696E742074696D653A200050726F14
:100580007465637465642050696E0A005072696E08
:10059000746F2048332042696767696520676F740C
:1005A0006F77612E0024041F041804110403046FE4
:1005B00066660044454255473A0055626974792E93
:1005C00020004D3131332053006F6B004361703A8E
:1005D000454D455247454E43595F50415253455250
:1005E0003A300A004361703A434153455F4C4947F2
:1005F00048545F4252494748544E4553533A300A93
:10060000004361703A544F47474C455F4C49474857
:1006100054533A300A004361703A534F465457419D
:1006200052455F504F5745523A300A004361703A85
:100630004C4556454C494E475F444154413A310A76
:10064000004361703A5A5F50524F42453A300A00B7
:100650004361703A4155544F4C4556454C3A300A27
:10066000004361703A5052494E545F4A4F423A310A
:100670000A004361703A50524F47524553533A3043
:100680000A004361703A4155544F5245504F5254FD
:100690005F54454D503A310A004361703A45455028
:1006A000524F4D3A310A004649524D574152455F2B
:1006B0004E414D453A4D61726C696E20312E342E9B
:1006C0003020284769746875622920534F5552437A
:1006D000455F434F44455F55524C3A68747470739C
:1006E0003A2F2F6769746875622E636F6D2F4D61A5
:1006F000726C696E4669726D776172652F4D6172B9
:100700006C696E2050524F544F434F4C5F564552C8
:1007100053494F4E3A312E30204D414348494E45C2
:100720005F545950453A5072696E746F20483320B7
:100730004269676769652045585452554445525F80
:10074000434F554E543A3120555549443A636564F8
:1007500065326132662D343161322D343734382DB3
:10076000396231322D63353563363266333637665A
:10077000660A002F2F200053657474696E67205439
:10078000726176656C20416363656C657261746942
:100790006F6E3A200053657474696E6720526574F9
:1007A0007261637420416363656C65726174696F23
:1007B0006E3A200053657474696E67205072696EDA
:1007C0007420416363656C65726174696F6E3A2071
:1007D0000053657474696E67205072696E7420618D
:1007E0006E642054726176656C20416363656C654C
:1007F000726174696F6E3A2000205A0020590058C7
:100800000020204D61783A2000205A0020590058DD
:100810000020204D696E3A2000576C2E2000577939
:100820006C2E00536F667420656E6473746F707302
:100830003A20000001363726FF023C3D380EFF2EDD
:10084000303EFF13FF0C0809FFFFFF1A1C18FFFFC3
:1008500008440AFF43FFFFFFFFFFFF20643A002028
:10086000693A0020703A0020643A0020693A00207A
:10087000703A0043290A0061626C656420286D6942
:100880006E2074656D702000436F6C642065787411
:100890007275646573206172652000426564204C46
:1008A0006576656C696E6720004661696C656420D9
:1008B000746F20656E61626C6520426564204C65D2
:1008C00076656C696E670A004D65736820426564E1
:1008D000204C6576656C20646174613A0A00506F43
:1008E0007A2E207A65726F7761207573742E0045B9
:1008F00072723A20546F6F206661722100546F6FDC
:10090000206661722066726F6D2072656665726521
:100910006E636520706F696E740A0061627920777A
:100920007A6E6F7769632077796472756B00666998
:100930006C616D656E74752069206B6C696B6E6996
:100940006A005573756E206E61646D696172000096
:10095000577A6E617769616E69652077796472751F
:100960006B75004D383132004E6F20636173652026
:100970006C696768740A004163746976652045781C
:100980007472756465723A2000556E6B6E6F776E87
:1009900020636F6D6D616E643A202200207765736D
:1009A0007A6C6F207720393630302C2070726F626D
:1009B00061207A6D69616E79206E61203131352058
:1009C0000A00206E6965207765737A6C6F20772046
:1009D000393630302070726F62612077656A7363D8
:1009E0006961206E6120313135200A0020636F6E0D
:1009F0006E6563746564210A0020370020342E334D
:100A00000020332E350020332E320020322E3400C9
:100A10004E657874696F6E004E657874696F6E20EC
:100A20006E6F7420636F6E6E656374656421004E33
:100A300069650054616B00437A7920777A6E6F772D
:100A400069632077796472756B3F0057796B7279AF
:100A5000746F207A616E696B206E6170696563697D
:100A60006100706F207A616E696B75207A617369BD
:100A70006C616E696100577A6E617769616E696554
:100A80002077796472756B75004D3131372044726F
:100A9000756B6F77616E69652E2E00473932204580
:100AA000004D383200204633303030002045313898
:100AB00000205900473120580020463330303000A4
:100AC0004731205A004D3831320020463330303023
:100AD00000204531350020590047312058004D3263
:100AE00033202573002E67636F004D31393020535A
:100AF0002564004D313039205325640062616279EC
:100B000073686966743A006166746572686F6D65D2
:100B10003A006265666F72653A0042617A6F77618A
:100B20006E6965206F736900706F207A616E696B02
:100B300075207A6173696C616E69610055727563C5
:100B400068616D69616E6965004732380020205028
:100B50006C616E6E65724275666665724279746527
:100B6000733A20002046726565204D656D6F72797D
:100B70003A2000436F6D70696C65643A204D61796D
:100B800020323020323032300A00207C204175740F
:100B9000686F723A20285072696E746F33642E70D9
:100BA0006C2C204A616B75622053696B6F726129EE
:100BB0000A00323032302D30352D323000204C6179
:100BC000737420557064617465643A2000312E346A
:100BD0002E300A004D61726C696E0020536F66748E
:100BE000776172652052657365740A0020576174DD
:100BF0006368646F672052657365740A00204272EF
:100C00006F776E206F75742052657365740A0020CB
:100C100045787465726E616C2052657365740A0064
:100C2000506F77657255700A0073746172740A00B0
:100C30006572726F722077726974696E6720746F63
:100C40002066696C650A00205A3A0020593A002053
:100C5000583A00656E6473746F7073206869743AF3
:100C60002000446F6E6520736176696E6720666947
:100C70006C652E0A004D3239002569730025696DB7
:100C800020256973002569682025696D2025697311
:100C900000256964202569682025696D2025697310
:100CA0000025697920256964202569682025696DFA
:100CB000202569730055626974792E20005A617489
:100CC000727A796D616E792E20005072696E74654A
:100CD000722073746F707065642064756520746F22
:100CE000206572726F72732E204669782074686571
:100CF000206572726F7220616E6420757365204D7D
:100D000039393920746F20726573746172742E20C2
:100D10002854656D70657261747572652069732001
:100D200072657365742E2053657420697420616642
:100D30007465722072657374617274696E67290AD2
:100D4000004E6F204C696E65204E756D6265722095
:100D50007769746820636865636B73756D2C204CCC
:100D6000617374204C696E653A20004E6F204368B1
:100D700065636B73756D2077697468206C696E6547
:100D8000206E756D6265722C204C617374204C6905
:100D90006E653A2000636865636B73756D206D69DD
:100DA000736D617463682C204C617374204C696EA0
:100DB000653A20004C696E65204E756D6265722043
:100DC0006973206E6F74204C617374204C696E657A
:100DD000204E756D6265722B312C204C617374202E
:100DE0004C696E653A20004D313130004D33310091
:100DF0004D383420582059205A2045005344207241
:100E0000656164206572726F720A00446F6E6520BE
:100E10007072696E74696E672066696C650A00207D
:100E2000496E76616C696420657874727564657268
:100E30002000000000000000000000000000008012
:100E4000984300009B4300000B44206E6F742065A4
:100E50006E74657265642E0A000A4D656173757261
:100E6000656420706F696E74733A0A005A206F6669
:100E7000667365743A20004E756D20582C593A20DF
:100E8000322C320A0046696C652064656C657465B5
:100E9000643A0044656C6574696F6E206661696CC4
:100EA00065642C2046696C653A20006F70656E2081
:100EB0006661696C65642C2046696C653A20006D3A
:100EC0000046696C616D656E7420757365643A20C7
:100ED0000053746174733A20002C204C6F6E676568
:100EE0007374206A6F623A2000546F74616C2074CE
:100EF000696D653A200053746174733A20002C20A8
:100F00004661696C65643A20002C2046696E6973FD
:100F10006865643A20005072696E74733A20005319
:100F2000746174733A2000202F002042403A002060
:100F3000403A00526F7A67727A616E6F0020573ABA
:100F4000005072696E746F20483320426967676988
:100F50006520676F746F77612E0043616E6E6F74EA
:100F600020656E746572207375626469723A200040
:100F7000456B7374727564756A2077696563656A19
:100F800000577A6E6F77206472756B6F77616E6948
:100F900065005779626965727A206F70636A6500CF
:100FA00050726F737A6520637A656B616300526F6C
:100FB0007A67727A6577616E6965206479737A7988
:100FC0000057796D69616E612066696C616D656E4F
:100FD00074750061627920726F7A67727A6163203A
:100FE0006479737A6500576369736E696A207072F9
:100FF0007A796369736B0057796D69616E612066F8
:10100000696C616D656E74750077796472756B7566
:10101000005472776120777A6E617769616E6965D5
:10102000006E6F7765676F206D6174657269616CC2
:1010300075005472776120656B737472757A6A619A
:101040000066696C616D656E747520646F20676CF5
:101050006F776963790054727761207770726F7768
:1010600061647A616E69650057796D69616E6120AE
:1010700066696C616D656E747500616279206B6F75
:101080006E74796E756F7761632E2E2E0069206EF7
:10109000616369736E696A2070727A796369736BD0
:1010A00000576C6F7A2066696C616D656E740057CD
:1010B000796D69616E612066696C616D656E7475CC
:1010C0000066696C616D656E7475207A20676C6F5F
:1010D00077696379005472776120777973757761E6
:1010E0006E69650057796D69616E612066696C6132
:1010F0006D656E7475007A6D69616E792066696CD4
:10110000616D656E7475005472776120726F7A70CC
:101110006F637A796E616E69650057796D69616E8A
:10112000612066696C616D656E74750057726974D3
:10113000696E6720746F2066696C653A20006F7075
:10114000656E206661696C65642C2046696C653A41
:1011500020006F70656E206661696C65642C2046A6
:10116000696C653A200046696C652073656C65633F
:101170007465640A002053697A653A200046696CF8
:1011800065206F70656E65643A20006F70656E2033
:101190006661696C65642C2046696C653A200020A4
:1011A00066696C653A20004E6F7720002220706FD0
:1011B00073002220706172656E743A2200535542AA
:1011C000524F5554494E452043414C4C2074617256
:1011D0006765743A220055626974792E2000747232
:1011E00079696E6720746F2063616C6C207375621F
:1011F0002D67636F64652066696C65732077697419
:101200006820746F6F206D616E79206C6576656CF7
:10121000732E204D4158206C6576656C2069733AB9
:1012200000526F7A67727A616E6F2073746F6C0010
:1012300020573A00526F7A67727A6577616E6965F6
:101240002073746F6C752E2E2E00205A3A002042A7
:101250003A0020436F756E7420413A0020453A00F1
:10126000205A3A0020593A00583A004B6420002393
:10127000646566696E65202044454641554C545F5F
:10128000004B69200023646566696E652020444533
:101290004641554C545F004B7020002364656669DD
:1012A0006E65202044454641554C545F00504944EA
:1012B00020756B6F6E637A6F6E6F005049442041EA
:1012C00075746F74756E652066696E6973686564A0
:1012D000212050757420746865206C617374204BF4
:1012E000702C204B6920616E64204B6420636F6E0C
:1012F0007374616E74732066726F6D2062656C6FBB
:101300007720696E746F20436F6E666967757261CE
:1013100074696F6E2E680A00504944204175746FDD
:1013200074756E65206661696C6564212074696DF1
:10133000656F75740A0050494420626C61643A20FC
:101340006F76657273686F740050494420626C61F7
:1013500064206B616C69627261636A690050494420
:10136000204175746F74756E65206661696C656483
:10137000212054656D706572617475726520746F9B
:101380006F20686967680A00204B643A2000204B90
:10139000693A2000204B703A20000A20436C6173A8
:1013A00073696320504944200A002054753A200094
:1013B000204B753A2000206D61783A2000206D693D
:1013C0006E3A200020643A200020626961733A205E
:1013D0000050494420726F7A706F637A65746F00B1
:1013E0004D65736820706F696E742063616E6E6FF7
:1013F00074206265207265736F6C7665640A004DB7
:1014000034323120696E636F72726563742070616B
:1014100072616D657465722075736167650A00207D
:1014200066697273740A005A0059005800486F6D5B
:1014300065200020636F6C64206578747275736931
:101440006F6E2070726576656E7465640A00436124
:101450006E6E6F74206F70656E2073756264697252
:10146000200053442063617264206F6B0A006F7028
:10147000656E526F6F74206661696C65640A0076F0
:101480006F6C756D652E696E6974206661696C6537
:10149000640A004572726F723A00534420696E69A3
:1014A00074206661696C0A006175746F25692E6726
:1014B000004D3234004D323320257300656E717556
:1014C000657565696E672022006563686F3A00483C
:1014D000617264636F6465642044656661756C74F1
:1014E0002053657474696E6773204C6F6164656422
:1014F0000A00881300008813000050000000282311
:10150000000000008243000082430000F041000020
:10151000A0420000A0420000A04200004844000099
:10152000204320440020490020204D3330342050F7
:101530000020440020490020204D3330312050004D
:101540005049442073657474696E67733A0A0020C9
:101550005A002059002020473239205333205800A8
:1015600020204D3432302053004D65736820426591
:1015700064204C6576656C696E673A0A00205A00F3
:1015800020590020204D323036205800486F6D65BC
:10159000206F66667365743A0A00204500205A0081
:1015A00020590020580020420020540020204D32B5
:1015B0003035205300416476616E6365643A205390
:1015C0003C6D696E5F66656564726174653E20544A
:1015D0003C6D696E5F74726176656C5F66656564AB
:1015E000726174653E20423C6D696E5F7365676D24
:1015F000656E745F74696D655F6D733E20583C6DF8
:1016000061785F78795F6A65726B3E205A3C6D61E4
:10161000785F7A5F6A65726B3E20453C6D61785FEA
:10162000655F6A65726B3E0A0020540020520020FC
:10163000204D323034205000416363656C65726127
:1016400074696F6E2028756E6974732F7332293A2E
:1016500020503C7072696E745F616363656C3E20FC
:10166000523C726574726163745F616363656C3E62
:1016700020543C74726176656C5F616363656C3E97
:101680000A00204500205A0020590020204D323009
:10169000312058004D6178696D756D204163636537
:1016A0006C65726174696F6E2028756E6974732F32
:1016B0007332293A0A00204500205A0020590020A0
:1016C000204D3230332058004D6178696D756D20A2
:1016D0006665656472617465732028756E697473DC
:1016E0002F73293A0A00204500205A002059002073
:1016F000204D393220580053746570732070657224
:1017000020756E69743A0A0020204D323030204432
:10171000300A0020204D32303020440020446973CC
:1017200061626C65640A0046696C616D656E742067
:1017300073657474696E67733A00202047323120F4
:101740002020203B20556E69747320696E206D6DDA
:101750000A0066696C616D656E743A20007A5F6D8F
:1017600061783A2000795F6D696E3A2000785F6D8C
:1017700061783A20005265706F7274696E672065F7
:101780006E6473746F70207374617475730A0024CF
:10179000F4D43050C38E20C2A24017828B70111235
:1017A0007A910D816CD90AA861E108C75866076172
:1017B0005143061E4B5D05C145A7041A411104099A
:1017C0003D9803713931034036DB0265339102D411
:1017D000305402802E1D02632CEE01752AC501B023
:1017E00028A001102781018F2564012B244B01E0E3
:1017F000223401AC211F018D200D01801FFC0084CB
:101800001EED00971DDF00B81CD200E61BC60020AD
:101810001BBC00641AB200B219A8000A19A0006A21
:10182000189900D117910040178B00B5168400312C
:10183000167E00B31579003A157300C7146F00586F
:10184000146A00EE1366008813630025135E00C758
:10185000125B006C12570015125400C11151007038
:10186000114F0021114B00D61049008D1047004642
:1018700010440002104200C00F4000800F3E0042A2
:101880000F3C00060F3B00CB0E3800930E37005C78
:101890000E3500270E3400F30D3200C10D310090DB
:1018A0000D3000600D2E00320D2D00050D2C00D9DD
:1018B0000C2B00AE0C2900850C29005C0C27003590
:1018C0000C27000E0C2600E80B2400C40B2400A0FB
:1018D0000B23007D0B23005A0B2100390B2100182C
:1018E0000B2000F80A1F00D90A1E00BB0A1E009D2B
:1018F0000A1D00800A1D00630A1C00470A1B002CF9
:101900000A1B00110A1A00F7091A00DD091900C4A0
:10191000091900AB091900920917007B0918006327
:101920000917004C09160036091600200916000A8E
:10193000091500F5081500E0081400CC081400B8DB
:10194000081400A4081400900813007D0812006B0E
:10195000081300580812004608120034081100232A
:101960000811001208110001081100F0071000E032
:10197000071000D0071000C0071000B0070F00A12B
:1019800007100091070E0083070F0074070F006512
:10199000070E0057070E0049070E003B070D002EEB
:1019A000070E0020070D0013070D0006070D00F9B4
:1019B000060C00ED060D00E0060C00D4060C00C875
:1019C000060C00BC060C00B0060C00A4060B009927
:1019D000060C008D060B0082060B0077060B006CD0
:1019E000060B0061060A0057060B004C060A00426F
:1019F000060A0038060A002E060A0024060A001A03
:101A0000060A001006090007060A00FD050900F491
:101A1000050900EB050900E2050900D9050900D018
:101A2000050900C7050900BE050900B5050800AD98
:101A3000050800A50509009C050800940508008C10
:101A4000050800840508007C050800740508006C82
:101A5000050700650508005D050700560508004EEE
:101A60000507004705070040050800380507003155
:101A70000507002A050700230507001C05060016B8
:101A80000507000F0507000805060002050700FB13
:101A9000040600F5040700EE040600E8040600E270
:101AA000040700DB040600D5040600CF040600C9C5
:101AB000040600C3040600BD040600B7040600B116
:101AC000040500AC040600A6040600A00405009B63
:101AD00004060095040500900406008A04050085AC
:101AE000040500800406007A0405007504050070F2
:101AF0000405006B04050066040500610405005C34
:101B000004050057040500520405004D0405004873
:101B1000040500430405003E0404003A04050035B2
:101B2000040500300404002C0405002704040023ED
:101B30000405001E0404001A040400160405001124
:101B40000404000D0404000904050004040400005A
:101B5000040400FC030400F8030400F4030400F090
:101B6000030400EC030400E8030400E4030400E0C1
:101B7000030400DC030400D8030400D4030400D0F1
:101B8000030400CC030400C8030300C503030024BE
:101B9000F404D9201BC40C5C0E9804C4095F0265D0
:101BA000077101F405F900FB04B30048048700C184
:101BB0000369005803550003034500BE023A008440
:101BC00002310053022A002902250004022000E409
:101BD000011C00C8011900AF01170098011400840E
:101BE000011300710110006101100051010E00434A
:101BF000010D0036010B002B010B0020010B00151D
:101C00000109000C01090003010800FB000800F3B2
:101C1000000800EB000700E4000600DE000600D824
:101C2000000600D2000600CC000500C7000500C277
:101C3000000500BD000400B9000400B5000400B1B7
:101C4000000400AD000400A9000400A5000300A2E8
:101C50000003009F0004009B000300980003009510
:101C600000020093000300900003008D0002008B2F
:101C70000003008800020086000200840003008147
:101C80000002007F0002007D0002007B000200795C
:101C9000000200770001007600020074000200726A
:101CA000000100710002006F0002006D0001006C75
:101CB0000002006A0001006900020067000100667E
:101CC0000001006500010064000200620001006183
:101CD000000100600001005F0002005D0001005C87
:101CE0000001005B0001005A00010059000100588A
:101CF000000100570001005600010055000100548A
:101D00000001005300000053000100520001005187
:101D1000000100500001004F0001004E0000004E85
:101D20000001004D0001004C0001004B0000004B81
:101D30000001004A0001004900010048000000487D
:101D40000001004700010046000000460001004578
:101D50000000004500010044000100430000004372
:101D6000000100420000004200010041000000416B
:101D7000000100400001003F0000003F0001003E64
:101D80000000003E0001003D0000003D0001003C5D
:101D90000000003C0000003C0001003B0000003B54
:101DA0000001003A0000003A00010039000000394B
:101DB0000001003800000038000000380001003742
:101DC0000000003700010036000000360000003639
:101DD000000100350000003500000035000100342E
:101DE0000000003400000034000100330000003324
:101DF0000000003300010032000000320000003219
:101E0000000100310000003100000031000100300D
:101E100000000030000000300001002F0000002F03
:101E20000000002F0000002F0001002E0000002EF7
:101E30000000002E0001002D0000002D0000002DEC
:101E40000000002D0001002C0000002C0000002CE0
:101E50000000002C0001002B0000002B0000002BD4
:101E60000000002B0001002A0000002A0000002AC8
:101E70000000002A000100290000002900000029BC
:101E800000000029000000290001002800000028AF
:101E900000000028000000280000002800010027A2
:101EA0000000002700000027000000270000002796
:101EB0000001002600000026000000260000002689
:101EC000000000260001002500000025000000257C
:101ED000000000250000002500000025000100246E
:101EE0000000002400000024000000240000002462
:101EF0000001002300000023000000230000002355
:101F00000000002300000023000000230001002245
:101F10000000002200000022000000220000002239
:101F2000000000220001002100000021000000212B
:101F3000000000210000002100000021000000211D
:101F40000001002000000020000000200000002010
:101F50000000002000000020000000200000002001
:101F60000001001F0000001F0000001F0000001FF4
:101F70000000001F0000001F0000001F0001001EE5
:101F80000000001E0000001E0000001E0000004DAA
:101F9000383420582059205A204500577A6E6F77E0
:101FA00069656E6965004D32340057796472756BEE
:101FB00020777374727A796D616E79004D313235A4
:101FC000004732392053320070726F626573656E5C
:101FD000643A0A004E49450054414B0054414B00BD
:101FE0004D2042204C00323032302D30352D3230F1
:101FF00000312E342E3000256C642E25696D007A58
:1020000061706973616E65007A616C61646F77619C
:102010006E650054656D702E206D696E3A20313703
:1020200030006B6F6E74796E756F77616300726FDD
:102030007A67727A656A2061627900476C6F7769A6
:102040006361206A657374207A696D6E612C004D3E
:102050003630302042300047393000473931004DAA
:10206000383400473238004472756B2070727A65DC
:102070007277616E790070012C0190012701B00127
:102080002201C0011D01F0011801100213013002EC
:102090000E016002090190020401C002FF0000036A
:1020A000FA004003F5008003F000D003EB002004A9
:1020B000E6007004E100E004DC004005D700C00544
:1020C000D2004006CD00D006C8008007C30030080B
:1020D000BE00F008B900C009B400B00AAF00B00BF0
:1020E000AA00D00CA500000EA000500F9B00C0104D
:1020F00096005012910000148C00C0158700B01794
:102100008200B0197D00D01B7800001E73004020B3
:102110006E0090226900F024640040275F0090293F
:102120005A00E02B5500102E500020304B0010328A
:102130004600E033410090353C00103737007038DE
:102140003200A0392D00B03A2800A03B2300603CAB
:102150001E00103D1900903D1400103E0F00703E0F
:102160000A00C03E0500003F0000403FFBFF803FEB
:10217000F6FFC03FF1FF457272206D696E207465F5
:102180006D702073746F6C7500457272206D696E8E
:102190002074656D70004D494E54454D5020747249
:1021A0006967676572656400457272206D617820A9
:1021B00074656D702073746F6C7500457272206D5C
:1021C00061782074656D70004D415854454D502024
:1021D00074726967676572656400027C3C3E5E2BC1
:1021E0003D3F2F5B5D3B2C2A225C00290A002062C8
:1021F000797465733B20637263200053657474695E
:102200006E67732053746F72656420280020286302
:10221000616C63756C6174656429210A0020213D3D
:102220002000454550524F4D20435243206D697365
:102230006D61746368202D202873746F7265642942
:102240002000290A002062797465733B2063726361
:1022500020002073746F7265642073657474696EF6
:102260006773207265747269657665642028002042
:102270004D61726C696E3D563339290A0028454517
:1022800050524F4D3D00454550524F4D207665729E
:1022900073696F6E206D69736D6174636820004BA4
:1022A00061727461207573756E69657461004B614C
:1022B00072746120776C6F7A6F6E610073645F7304
:1022C00074617475733A66616C73650A0073645F58
:1022D0007374617475733A747275650A007A6D6906
:1022E000616E61207364206465743A0A0025756428
:1022F00020253032753A2530327500202F200052CB
:102300006573656E643A20006F6B0020636F6C64C8
:1023100020657874727573696F6E2070726576656A
:102320006E7465640A00627573793A207061757322
:10233000656420666F7220696E7075740A0062753C
:1023400073793A2070617573656420666F722075C9
:102350007365720A00627573793A2070726F6365F3
:102360007373696E670A004D3630300055626974C8
:10237000792E20004B494C4C2063617573656420B5
:102380006279204B494C4C20627574746F6E2F70CB
:10239000696E0A0055626974792E20004B494C4CD5
:1023A0002063617573656420627920746F6F206D9E
:1023B00075636820696E6163746976652074696D00
:1023C00065202D2063757272656E7420636F6D6D6C
:1023D000616E643A20005072696E746572206861A3
:1023E0006C7465642E206B696C6C28292063616CA9
:1023F0006C6564210A00506F7765724C6F73732EA1
:102400002E0A00008098430000000000000B4400EA
:10241000009642000096420000C8410000000057AC
:1024200061726E696E673A20486F6D696E6720420F
:10243000756D702044697669736F72203C20310A93
:10244000000202080000A0400000A0400000A040E0
:102450000080984300009B4300000B4401FF014DA6
:1024600036303020486F74656E6420746F6F20635F
:102470006F6C6420746F206368616E6765206669A5
:102480006C616D656E740A004572726F72207772AE
:102490006974696E6720746F20454550524F4D2115
:1024A0000A006265640A002C2073797374656D20DC
:1024B00073746F7070656421204865617465725F24
:1024C00049443A20005A616E696B2074656D702E24
:1024D00000546865726D616C2052756E6177617928
:1024E00000526F7A67727A2E206E69657564616E2C
:1024F000650048656174696E67206661696C656432
:102500000000002100240027002A002D00300033A5
:102510000001010000040107010A0100002200255A
:102520000028002B002E00310034000201000005BD
:102530000108010B01000020002300260029002CC7
:10254000002F00320000010000030106010901050F
:10255000050505070508080808020202020A0A081C
:102560000804040404010101010101010103030342
:102570000303030303040707070C0C0C0C0C0C0CDF
:102580000C0202020206060606060606060B0B0BE6
:102590000B0B0B0B0B010210202008081020401021
:1025A0002040800201020108040201010204081017
:1025B0002040808040201008040201800402018035
:1025C000402010080402010804020101020408105E
:1025D000204080010204081020408000000A0B0205
:1025E000090C0D0E080703040100000000000000A4
:1025F00000000000000000000000000000000000DB
:102600000000000000000012111000000000000097
:1026100000000000000000000000000000000000BA
:10262000000049BB47D811241FBECFEFD1E2DEBF67
:10263000CDBF00E00CBF16E0A0E0B2E0E4EBF1EDAE
:1026400001E00BBF02C007900D92AC38B107D9F77B
:102650002EE1ACE8B6E001C01D92A43FB207E1F75D
:1026600013E1C2E1D3E100E006C021970109802F08
:10267000FE010E9432E5C131D10780E00807A9F7C9
:102680000E9488CB0C94C8E80C9400002F923F92D3
:102690004F925F926F927F928F929F92AF92BF9272
:1026A000CF92DF92EF92FF920F931F93CF93DF931E
:1026B000CDB7DEB7E9970FB6F894DEBF0FBECDBF3A
:1026C00000915A1420E4029F8001112406521E4EEC
:1026D0008091A71580FF1AC0E9ECF4E184917F0195
:1026E0003FEFE31AF30A811102C0780104C00E948F
:1026F000582FF701F3CFD7018D917D01882319F071
:102700000E94582FF8CF8AE00E94582F81E090E075
:102710009093A5118093A4111092AB061092AA0673
:102720008FE38093B1061092B0061092AF0684E05A
:10273000E6EAF6E0DF011D928A95E9F7F80180816B
:102740000F5F1F4F8032D1F38E34C9F4818190ED39
:10275000980F9A3020F08D3211F08B3281F4DF0126
:1027600012969D012F5F3F4F8C9180538A3010F459
:10277000D901F7CFFD01119680818032D9F3F09312
:10278000411EE093401E7F01BFEFEB1AFB0A108150
:102790006AE270E0C7010E9476E8009731F0FC0120
:1027A000319780818032E1F311821D3431F114358B
:1027B00021F1173411F1E9ECF4E184918F010F5FFD
:1027C0001F4F882321F00E94582FF801F6CF609107
:1027D000401E7091411E89E899E00E94267782E2AE
:1027E0000E94582F8AE00E94582F1092A511109233
:1027F000A4110E9495A60C94C527C701FC01208155
:1028000001962032D9F320532A30A8F61093B1064E
:1028100080E090E06AE03196DF0111972C91022E62
:10282000000C330B20533109689FA001699F500DA4
:102830001124C901840F951F208120532A3058F399
:102840009093B0068093AF06DF0131962C91203231
:10285000D9F31D34D1F48E31910591F03CF48731D8
:10286000910571F08C31910581F40AC0853791058D
:1028700064F08737910524F0803AE3E09E0729F45D
:10288000B093AB06A093AA0683C01092AB06109239
:10289000AA060091401E41E050E0FD0131962C91C6
:1028A000222309F475C02132A1F41D3491F4803241
:1028B000910579F4F093AB06E093AA0663E270E029
:1028C000CF010E9476E8009709F424C4DC011C9231
:1028D0005FC03FEBD32ED20E69E1C62ECD14C0F1FE
:1028E000BF01FB0130816F5F7F4F3032D1F360ED6C
:1028F000630F6A3040F063ED630F623020F03B32CB
:1029000011F00C944327BF01AD2CB12C7501A3E04D
:10291000F594E794AA95E1F797012A55394F790183
:102920002D2D2770DA0102C0AA0FBB1F2A95E2F7EE
:102930009D01D7013C91232B2C936115710511F05A
:10294000601B01C060E0D501A457B94F6C930AC069
:102950002091AA063091AB06232B21F4B093AB064D
:10296000A093AA06208121542A3110F4DF0195CFCB
:10297000DF01BD016F5F7F4F2C9120532A3010F48F
:10298000DB01F7CFFD01119620812032D9F3EECF84
:102990008091B1068D3409F4BDC3843511F40C94D3
:1029A0000027873409F007CF8091AF069091B006D9
:1029B0008D31910509F46CC074F48430910539F1BE
:1029C0001CF40297D0F011CF4C9709F00ECF80E0A5
:1029D0000E9423390ACF8A35910509F4A2C224F452
:1029E0008A9709F400C301CF8B35910509F49CC285
:1029F0008C35910509F49CC2F8CE8091B6028823EB
:102A000009F4F3CE0E94E5390E94E9A5EECE80E5F7
:102A10000E94552E882329F00E94AF2D6B017C0166
:102A200003C0C12CD12C760183E50E94552E88234A
:102A300061F00E94F32D20E030E04AE754E40E9468
:102A40005FDE0E943FE66B017C010E9424B80E9479
:102A5000712E8091421E9091431EA091441EB09110
:102A6000451EC80ED91EEA1EFB1E60E089E294E0F6
:102A70000E94A89C0E945CBADC01CB018C199D09C4
:102A8000AE09BF09B7FFB1CE80E00E94D0A1F2CF5E
:102A900083E50E94552E882321F00E94CF2D182F08
:102AA00001C010E0163068F0E5EDF4E084918F018C
:102AB0000F5F1F4F882309F498CE0E94582FF8010A
:102AC000F5CF123009F445C0B0F41123F9F01130FC
:102AD00009F024C20E94D6681092010210920002EE
:102AE00082EA94E09093B9178093B8170E94FB2C68
:102AF0001093441D13C2143009F401C208F4A5C197
:102B0000153009F00BC20E94273B08C280916E1558
:102B100080FD03C0E5EBF4E011C081FF03C065E771
:102B200073E002C06AE773E08DEA94E00E942677C2
:102B30008AE00E94582F0E9483D7F0C184918F01B0
:102B40000F5F1F4F882309F4E9C10E94582FF80135
:102B5000F5CF209100023091010237FF0CC009E748
:102B600014E0F8018491882309F43FCE0F5F1F4FD2
:102B70000E94582FF6CF2115310529F48091B50216
:102B80008093AE0631C08FEF820F982F917897FF18
:102B900003C091509E6F9F5FE92F87FD8F5F8595E2
:102BA00080FF02C0E1E0E91BEE0FFF0BE80FF11D13
:102BB00087FDFA95EE0FFF1FEE0FFF1FE25AFA4E48
:102BC0008091341590913515A0913615B091371537
:102BD00080839183A283B3838091AE068093B502F4
:102BE000243031050CF0CAC0822F817887FF03C0E2
:102BF00081508E6F8F5FA82EE22F27FF02C0E1E089
:102C0000E20FBE2EB594B0FE03C0A1E0AA2EA81A12
:102C1000C0903402D0903502E0903602F090370236
:102C200007E114E2F80185919591A591B491809303
:102C3000340290933502A0933602B093370220E01D
:102C400030E0A9016091101870911118809112184C
:102C5000909113180E9443E520E030E040EA50E4F0
:102C60000E9443E5609334157093351580933615B3
:102C7000909337150E942CD785E595E5A5E0B3E440
:102C80008093340290933502A0933602B0933702BA
:102C9000FA2D24E0F202D0011124AF52B34F20915B
:102CA00008183091091840910A1850910B186D912D
:102CB0007D918D919C910E9443E560932C157093BA
:102CC0002D1580932E1590932F153B2D84E03802FF
:102CD000F0011124E753F34F20910C1830910D1897
:102CE00040910E1850910F186081718182819381FB
:102CF0000E9443E56093301570933115809332152F
:102D0000909333150E942CD7F80185919591A59148
:102D1000B4918093340290933502A0933602B0931D
:102D2000370220E030E0A90160911018709111186D
:102D300080911218909113180E9443E56093341506
:102D40007093351580933615909337150E942CD7C4
:102D5000C0923402D0923502E0923602F0923702ED
:102D60000E9424B81092B502809100029091010255
:102D700001969093010280930002D0C020E030E0E1
:102D8000A9016091101870911118809112189091FA
:102D900013180E9443E520E030E040EA50E40E942E
:102DA00043E56093341570933515809336159093F1
:102DB00037150E942CD70E9424B88FEF9FEF909375
:102DC000010280930002E5E6F4E084918F010F5F39
:102DD0001F4F882321F00E94582FF801F6CF83E976
:102DE00092E09A83898304E610E019A308A3BE0148
:102DF0006F5F7F4FCE0180960E940D628AEB92E05A
:102E00009A83898319A308A3BE016F5F7F4FCE0108
:102E100080960E940D6280916E15816080936E1580
:102E20008CEB9CE00E94B6A081E00E94233981E0F7
:102E30000E94CF2B82E394E09093B9178093B81748
:102E40000E94FB2C1092441D69C088E50E94552EFB
:102E5000882391F00E94BF2D1FEF160F123090F0C3
:102E60000EE414E0F8018491882309F4BECC0F5FCE
:102E70001F4F0E94582FF6CF88E50E94582F0E94BE
:102E800037D8B3CC89E50E94552E882399F00E944B
:102E9000BF2D0FEF060F023098F0E7E3F4E08491C6
:102EA0008F010F5F1F4F882309F49FCC0E94582F7A
:102EB000F801F5CF89E50E94582F0E9437D895CCAC
:102EC0008AE50E94552E8823A1F00E94F32DE12F60
:102ED000EE0FFF0BE00FF11D07FDFA95EE0FFF1F40
:102EE000EE0FFF1FE25AFA4E608371838283938351
:102EF00015C08AE50E94582F0E9437D876CC8AE503
:102F00000E94552E8823A9F30E94F32D60935A1531
:102F100070935B1580935C1590935D150E94994B9F
:102F200064CC1092AD0661CC81E08093AD065DCC9F
:102F300085E40E94552EB82E811102C00E9424B84B
:102F400005ED802E02E0902E8CE2C82E85E1D82E71
:102F500093E9E92E9EE1F92E00E010E0A12CD401C6
:102F60008D914D010E94552E882339F1F601408044
:102F70005180628073800E94F32DD6016D937D9302
:102F80008D939C9313970330C1F0A30192010E948B
:102F900042E59B01AC01F7016081718182819381DF
:102FA0000E9443E5D7016D937D938D939C93139776
:102FB000C8010E944B2CAA24A3940F5F1F4FB4E0BA
:102FC000CB0ED11CE4E0EE0EF11C0430110539F6F5
:102FD000AA2019F00E94542D03C0B1100E94BC3CDD
:102FE0000E94994B02CC8091B602882309F4FDCB54
:102FF00089E40E94552EE82E882321F00E94BF2DDF
:10300000062F01C000E08AE40E94552EF82E882386
:1030100021F00E94BF2D162F01C010E0EE2011F00C
:10302000023020F4FF2079F0123068F0ECEEF4E08A
:1030300084918F010F5F1F4F882309F4D6CB0E9424
:10304000582FF801F5CF0E949B2DEE20E1F024E0EF
:103050000202F0011124EF52F34F20910818309131
:10306000091840910A1850910B1860817181828172
:1030700093810E9443E56093C3177093C4178093B4
:10308000C5179093C617FF20E1F034E01302F0015A
:103090001124E753F34F20910C1830910D184091F3
:1030A0000E1850910F1860817181828193810E9466
:1030B00043E56093C7177093C8178093C91790931F
:1030C000CA1780E50E94262E81110E94E32D86E416
:1030D0000E94552E8823D9F00E94F32D6B017C01AC
:1030E00020E030E0A9010E94C6E6181684F420E032
:1030F00030E040E752E4C701B6010E94C6E56093A4
:1031000034027093350280933602909337020E9406
:10311000E9A56BCB8091AF069091B00685379105FC
:1031200009F46FC70CF0B0C08D34910509F4ECC3FD
:103130000CF050C08931910509F4BEC214F58431F8
:10314000910509F4A9C17CF48131910509F42AC2E1
:1031500034F4029708F049CBEAE1F5E0A0C14297C8
:1031600009F4DFC542CB8631910509F479C20CF42C
:1031700074C28731910509F478C2489709F47EC278
:1031800034CB8F31910509F450C384F48B31910510
:1031900009F4BBC20CF49DC28C31910509F4F1C253
:1031A0004E9709F022CB0E94363B1FCB8A32910505
:1031B00009F467C324F4809709F4EDC216CB8B346D
:1031C000910509F49DC38C34910509F00ECB0E9442
:1031D000FA3C0BCB8A36910509F4EAC484F58435B0
:1031E000910509F49EC5C4F48135910509F483C5A0
:1031F0003CF48E34910509F0F8CA0E943137F5CAC3
:103200008235910509F489C58335910509F0EDCA28
:1032100081E080939611E9CA8C35910509F4D3C5F4
:103220002CF48535910509F4B3C5DFCA88369105BC
:1032300009F46EC38936910509F46CC4D6CA8F3679
:10324000910509F4A8C37CF48C36910509F411C4E6
:103250000CF4CDC48D36910509F4A2C48E369105C7
:1032600009F486C3C2CA8137910509F40AC40CF473
:1032700004C48237910509F42FC68337910509F0FC
:10328000B4CAE7EAF6E031C68D32A1E09A0711F43C
:103290000C94E7220CF06DC0893C910509F450C7ED
:1032A0005CF58D37910509F4B4C49CF4873791051A
:1032B00009F4E7C60CF4AEC68837910509F4E5C6F3
:1032C0008937910509F091CA109208021092DF1710
:1032D0008CCA8B39910509F43AC42CF48C389105C9
:1032E00009F4FCC382CA8E3B910509F45DC4883C95
:1032F000910509F4D1C679CA833D910509F4C9C085
:103300000CF58C3C910509F454C75CF48B3C910599
:1033100009F06BCA75EDE72E72E0F72E0BE815E1A8
:1033200038C78D3C910511F40C9445218E3C9105D4
:1033300009F05BCA65EDE62E62E0F62E00E010E0D3
:103340000C94B2218D3D910511F40C94722234F449
:103350008C3D910511F40C94632247CA823E91057D
:1033600011F40C948E228C32914011F40C94BD22F5
:103370003CCA843FF1E09F0711F40C9497250CF0B0
:1033800052C0803931E0930711F40C945F24BCF4EF
:103390008F32B1E09B0711F40C945B2414F40C946D
:1033A00004248033F1E09F0711F40C9486238336C4
:1033B000914009F01ACAE3E9F4E10C94D826843A62
:1033C00031E0930711F40C9463243CF48A39914062
:1033D00009F00BCA0E94D44608CA853AE1E09E076C
:1033E00011F40C94C9248C3A914009F0FEC9E6E42A
:1033F000FDE1FDABECAB88E0882E88E1982E9CE2E5
:10340000A92E95E1B92E23EDC22E27E1D22E3FE061
:10341000232E32E0332E43E0E42E44E2F42E00E08B
:1034200010E00C94CD24883522E0920711F40C941E
:10343000D126ACF4863FA1E09A0711F40C94D7256D
:1034400014F40C94B725873FE1E09E0711F40C9427
:10345000F7258C31924011F40C94C426C6C98C32E5
:1034600023E0920791F034F48B32934009F0BDC908
:103470000E94CBAA803AB3E09B0709F4C9C1873EFA
:10348000934011F40C94EC26B0C9E3E6F9E00C94F7
:103490000626E9ECF4E17FC7E9ECF4E197C08491FA
:1034A0008F010F5F1F4F882321F00E94582FF801D2
:1034B000F6CFA090AA06B090AB0680E50E94552EEC
:1034C000882359F00E94AF2D6B017C0111E0672B1E
:1034D000682B692B31F410E004C010E0C12CD12C12
:1034E000760183E50E94552E8823F1F00E94F32D8A
:1034F00020E030E04AE754E40E945FDE0E943FE6AD
:103500006B017C01111112C0672B682B692B71F4C0
:10351000A114B10459F0D5018C91882339F061E0F0
:10352000C5010E94D59C07C0112391F360E08BE098
:1035300095E00E94A89C83E090E09093A511809371
:10354000A41181E08093A3110E9424B80E94712EDF
:10355000C114D104E104F10411F18091421E909153
:10356000431EA091441EB091451EC80ED91EEA1EEE
:10357000FB1E0E945CBADC01CB018C199D09AE09CF
:10358000BF09B7FD02C00C9454278091A311882372
:1035900011F40C94542780E00E94D0A1EACF10923D
:1035A000A31123C960E08DE195E00E94A89C5F987B
:1035B0008A989FB7F894809108018E7F80930801C4
:1035C0009FBF129812C90E94582FF80184918F0151
:1035D0000F5F1F4F8111F7CFE7E3F5E084918F0173
:1035E0000F5F1F4F882321F00E94582FF801F6CF5C
:1035F0001092A90F1092A80F83E59DE00E94138DF1
:103600008BE1E3E5FDE0DE01159601900D928A95D0
:10361000E1F78091510D9091520D9C838B8383EE45
:1036200092E09A83898340E050E0BE016F5F7F4F54
:1036300089E793E00E945265CE0101960E94C3AAD9
:10364000E8E2F5E084918F010F5F1F4F882309F4B2
:10365000CCC80E94582FF801F5CF0E947663C5C8E8
:103660001092220D1092230DC0C840E061E08091BD
:10367000AA069091AB060E94CF40B7C819821A8261
:103680001B821C8218A219A21AA21BA2809190115F
:10369000882341F040E0BE016F5F7F4FCE018096EE
:1036A0000E949FA88091230D882319F081E08093C8
:1036B000220D0E94143D99C81092220D0E94FA3CDE
:1036C00088E495E09093B9178093B8170E94FB2C7B
:1036D0008CC88091230D882309F487C883E50E9454
:1036E000552E882309F481C80E94BF2DAB01BC016F
:1036F00040939F0F5093A00F6093A10F7093A20F60
:103700008EEE9EE00E94C5B070C88091230D81119D
:1037100003C0EFE5F5E029C0EDE4F5E084918F0109
:103720000F5F1F4F882321F00E94582FF801F6CF1A
:1037300060919F0F7091A00F8091A10F9091A20FA7
:103740004AE00E94AE2F8FE20E94582F60919B0F9B
:1037500070919C0F80919D0F90919E0F4AE00E9466
:10376000AE2F8AE00E94582F40C884918F010F5FCE
:103770001F4F882311F40C94F5130E94582FF80161
:10378000F4CF40E060E08091AA069091AB060E94E1
:10379000CF400C94F5138091220D81110E9424B822
:1037A000E090AA06F090AB0680E50E94262E182F26
:1037B000882319F00E94E32D182F8091230D882370
:1037C00011F40C94F513412F61E0C7010E94CF4022
:1037D00083E50E94552E882381F00E94BF2DAB0106
:1037E000BC0140939F0F5093A00F6093A10F709363
:1037F000A20F8EEE9EE00E94C5B08091230D88231B
:1038000019F081E08093220D11110C94F51351CF22
:103810008091AA069091AB0621E02093210D40E013
:1038200060E00E94CF400C94F51387EF9CE00E946B
:10383000EDB668A379A38AA39BA3BE016F5F7F4FF8
:10384000CE0180960E947C2E60E0CE0101960E94FF
:10385000D59CE9ECF4E184918F010F5F1F4F882321
:1038600021F00E94582FF801F6CFBE016F5F7F4F05
:1038700080E795E00E9426778AE00E94582F0C94FA
:10388000F51383E50E94552E882311F40C94F5134B
:103890000E94CF2DE82E80E50E94552E882339F016
:1038A0000E94BF2D8B0177FF04C00C94F5130DE02F
:1038B00010E0802FE3E3F8E09491891303C0E3E97B
:1038C000F4E10AC03196B8E0EB35FB07A9F70C9498
:1038D00058270E94582FF80184918F010F5F1F4FC6
:1038E0008111F7CFEDE7F5E084918F010F5F1F4F56
:1038F000882311F40C94F5130E94582FF801F4CF8B
:103900000E94143D0C94F5130E9430610C94F51341
:1039100088E690E00E941B3081110C94F513809191
:10392000A71583FF02C00C94F51383E50E94552E62
:103930008823D1F00E94F32D0E9438E6CB010E942B
:10394000608A0E94F32D20E030E04AEA52E40E94AF
:10395000F9DD18163CF00E94306160E08CE895E0DB
:103960000E94A89C0E94F32D0E9426780C94F513C7
:103970008EE40E94552E882311F40C94F5130E94B6
:10398000BF2D6093371E7093381E8093391E90931D
:103990003A1E0C94F51383E50E94552E882319F0E6
:1039A0000E94CF2D01C080E08093A715E9ECF4E1DF
:1039B00084918F010F5F1F4F811103C0E3EBF5E08E
:1039C00004C00E94582FF801F3CF84918F010F5F3C
:1039D0001F4F882321F00E94582FF801F6CF8091C5
:1039E000A715811103C0EFEAF5E034C015EAC12E36
:1039F00015E0D12EE12CF12C20E08091A71590E06C
:103A00000E2C02C0959587950A94E2F780FF17C0A7
:103A1000BB24B394B20E222319F08CE20E94582FDB
:103A2000F60185919491FC0184918F010F5F1F4FE6
:103A3000882321F00E94582FF801F6CF2B2DEFEFAD
:103A4000EE1AFE0AF2E0CF0ED11C35E0E316F104C7
:103A5000A1F60AC084918F010F5F1F4F882321F0C8
:103A60000E94582FF801F6CF8AE00E94582F0C943C
:103A7000F513109238020C94F5138AEB95E00E942E
:103A800003AD83E50E94552E811103C0E9ECF4E1FA
:103A90000DC00E94CF2D8093B0028D3310F40C9492
:103AA000F5138CE38093B0020C94F51384918F018D
:103AB0000F5F1F4F882321F00E94582FF801F6CF87
:103AC0004091B00250E060E070E082EC95E00E942E
:103AD000D3768AE00E94582F0C94F5138091A71595
:103AE00083FF02C00C94F51383E50E94552E8823B2
:103AF00011F40C94F5130E94F32D0E9438E66739F7
:103B0000710514F066E970E0709398116093971155
:103B10000C94F51389E690E00E941B30811111C0CE
:103B2000E9ECF5E084918F010F5F1F4F882321F0AE
:103B30000E94582FF801F6CF0E9414358AE00E94A7
:103B4000582F1092A5111092A4110C94C52783E54B
:103B50000E94552E882311F40C94F5130E94CF2D4A
:103B600080933F1E8D3318F08CE380933F1E0E949C
:103B70005CBA6B017C0120913F1E30E0A8EEB3E0FF
:103B80000E94DCE4C60ED71EE81EF91EC0923B1E42
:103B9000D0923C1EE0923D1EF0923E1E0C94F51316
:103BA0000E9499350C94F5130E94584C0C94F5130F
:103BB00083E50E94552E882339F00E94BF2D8B018A
:103BC0006F3F710519F010F00FEF10E080E50E94D3
:103BD000552E811106C010939211009391110C94EF
:103BE000F5130E94CF2D81110C94F513F4CF80E5CD
:103BF0000E94552E811106C01092921110929111BF
:103C00000C94F5130E94BF2D672B11F00C94F51343
:103C1000F3CF8CE40E94262E882319F00E94F32D06
:103C200004C060E070E080EA90EC68AB79AB8AABEE
:103C30009BAB8AE50E94552E882319F00E94F32D34
:103C400003C060E070E0CB0120E030E040E751E4E9
:103C50000E9443E56CA77DA78EA79FA788E50E94D9
:103C6000552E882319F00E94F32D03C060E070E008
:103C7000CB0120E030E042E553E40E9443E568A731
:103C800079A78AA79BA789E50E94552E882319F05A
:103C90000E94F32D03C060E070E0CB0120E030E033
:103CA0004CED52E40E9443E56CA37DA38EA39FA339
:103CB00019821A821B821C8218A219A21AA21BA2A4
:103CC0008091901181110C94F513A12CC12CCE017F
:103CD00001967C018E01005E1F4F9E012C5D3F4FBF
:103CE000AE01485D5F4FBE01645D7F4F8F960E94BD
:103CF000E6A60C94F5130E94678A0E9424B80E94DD
:103D000093A5109292111092911168EE73E080E0E9
:103D100090E00E94B1870C94F513109296110C94C8
:103D2000F51383E50E94552E8823A1F00E94F32D00
:103D300020E030E04AE754E40E945FDE0E943FE664
:103D40006093B1027093B2028093B3029093B40275
:103D50000C94F51388E50E94262E81110C9470278F
:103D600089E50E94262E81110C9470278AE50E9415
:103D7000262E81110C94702785E40E94262E811135
:103D80000C9470270E9424B80E9493A50C94F513FC
:103D900083E50E94262E882311F40C94F5130E94CB
:103DA000F32D20E030E04AE754E40E945FDE0E94F9
:103DB0003FE66093461E7093471E8093481E909383
:103DC000491E0C94F513A5EDCA2EA2E0DA2EBCE331
:103DD000EB2EB5E1FB2E10E0D6018D916D010E9416
:103DE000262E882309F46DC0133009F063C00E94A9
:103DF000F32D4B015C0120E030E040EA51E40E94E9
:103E0000F9DD87FF4EC0A5019401609148157091BE
:103E1000491580914A1590914B150E94C6E52B01DA
:103E20003C019B01AC0160917B1570917C158091E8
:103E30007D1590917E150E945FDE60937B157093D7
:103E40007C1580937D1590937E15A301920160915E
:103E50009715709198158091991590919A150E94D7
:103E60005FDE6093971570939815809399159093E2
:103E70009A156091F3177091F4178091F51790914E
:103E8000F6170E94FEDDA30192010E945FDE0E94F0
:103E90003FE66093F3177093F4178093F5179093B0
:103EA000F6178092481590924915A0924A15B09243
:103EB0004B1507C00E94F32DF70160837183828345
:103EC00093831F5FF4E0EF0EF11C143009F084CFF0
:103ED0000E947E790C94F5130E9424B80E94994B9D
:103EE0000C94F5130E94582FF80184918F010F5FF5
:103EF0001F4F8111F7CFE9E9F6E003C00E94582F68
:103F0000F80184918F010F5F1F4F8111F7CFE2E815
:103F1000F6E003C00E94582FF80184918F010F5FD3
:103F20001F4F8111F7CFE2E7F6E003C00E94582F40
:103F3000F80184918F010F5F1F4F8111F7CFE1E6E8
:103F4000F6E003C00E94582FF80184918F010F5FA3
:103F50001F4F8111F7CFE0E5F6E003C00E94582F14
:103F6000F80184918F010F5F1F4F8111F7CFE1E4BA
:103F7000F6E003C00E94582FF80184918F010F5F73
:103F80001F4F8111F7CFECE2F6E003C00E94582FDB
:103F9000F80184918F010F5F1F4F8111F7CFE6E188
:103FA000F6E003C00E94582FF80184918F010F5F43
:103FB0001F4F8111F7CFE1E0F6E003C00E94582FB8
:103FC000F80184918F010F5F1F4F8111F7CFE4EE4D
:103FD000F5E003C00E94582FF80184918F010F5F14
:103FE0001F4F8111F7CFECECF5E084918F010F5F4B
:103FF0001F4F882311F40C94F5130E94582FF801D9
:10400000F4CF60E08091AA069091AB060E94D59C07
:104010000C94F51385E40E94262E882381F00E94DB
:10402000E32D882361F0E9ECF4E184918F010F5FC7
:104030001F4F882321F00E94582FF801F6CF81E40A
:104040000E94262E882381F00E94E32D882361F0B0
:10405000E3E7F7E084918F010F5F1F4F882321F082
:104060000E94582FF801F6CF0091AA061091AB06D6
:10407000D8018D918D01882309F4F6CC0E94582F28
:10408000F7CF0E94C4690C94F51381E08093080275
:104090008093DF170C94F51388EC90E00E941B309E
:1040A00081110C94F51384E40E94262E882309F4D0
:1040B00043C00E94F32D6B017C0111E020E030E051
:1040C000A9010E94F9DD811101C010E01093E017F1
:1040D00020E030E0A901C701B6010E94F9DD882384
:1040E00059F10091AC0610E00E94F32D000F111F52
:1040F000000F111FF801E55EFD4F6083718382831D
:10410000938320E030E0A90160911B0270911C02B2
:1041100080911D0290911E020E94F9DD81110CC058
:1041200080E090E0A0EEBFE380931B0290931C021E
:10413000A0931D02B0931E020E94A4A50C94F51337
:10414000E5EDEE2EE2E0FE2E07EF17E1F70181919B
:104150007F010E94262E882351F00E94F32D0E9499
:104160003FE6D8016D937D938D939C9313970C5FDD
:104170001F4FB8E107301B0749F70E9456780C948F
:10418000F5130C5F1F4FB5E10B391B0711F40C94AD
:10419000F513F70181917F010E94262E882389F370
:1041A0000E94F32DD8016D937D938D939C9313976B
:1041B000E8CF83E50E94262E8823D9F00E94F32DB4
:1041C000AB01BC0140938315509384156093851512
:1041D0007093861540937F155093801560938115D9
:1041E0007093821581ED97E00E94F0768AE00E943C
:1041F000582F80E50E94262E882399F00E94F32DE7
:10420000AB01BC01409383155093841560938515D1
:104210007093861584EB97E00E94F0768AE00E9406
:10422000582F82E50E94262E882399F00E94F32DB4
:10423000AB01BC0140938715509388156093891595
:1042400070938A1585E997E00E94F0768AE00E94D3
:10425000582F84E50E94262E882311F40C94F51320
:104260000E94F32DAB01BC0140937F155093801544
:10427000609381157093821587E797E00E94F0762E
:104280008AE00E94582F0C94F51383E50E94262E95
:10429000882351F00E94F32D6093A3157093A41509
:1042A0008093A5159093A61584E50E94262E882359
:1042B00051F00E94F32D60939F157093A015809389
:1042C000A1159093A21582E40E94262E882351F016
:1042D0000E94AF2D60939B1570939C1580939D1544
:1042E00090939E1588E50E94262E882351F00E9407
:1042F000F32D60936F1570937015809371159093E3
:10430000721589E50E94262E882351F00E94F32D14
:10431000609373157093741580937515909376154B
:104320008AE50E94262E882351F00E94F32D609387
:104330007715709378158093791590937A1585E4A5
:104340000E94262E882311F40C94F5130E94F32D5D
:1043500060937B1570937C1580937D1590937E15EB
:104360000C94F513F70181917F010E94262E88237A
:1043700039F00E94F32DAB01BC01C8010E94A12CB1
:104380000F5F1F4F0330110569F70E94542D0E94E3
:10439000994B0C94F51384918F010F5F1F4F882365
:1043A00021F00E94582FF801F6CF83E50E94262EB7
:1043B000882321F00E94E32D8093B502E3E2F8E028
:1043C00084918F010F5F1F4F882321F00E94582F87
:1043D000F801F6CF8091B502882319F0E9E1F8E001
:1043E00002C0EEE1F8E084918F010F5F1F4F811151
:1043F00003C0E1E1F8E004C00E94582FF801F3CFB8
:1044000084918F010F5F1F4F882321F00E94582F46
:10441000F801F6CF4091D3175091D4176091D5177A
:104420007091D6178FE098E00E94F0764091D717F0
:104430005091D8176091D9177091DA178CE098E0F5
:104440000E94F0764091DB175091DC176091DD17E8
:104450007091DE1789E098E00E94F076E1E0F8E0E4
:1044600084918F010F5F1F4F882321F00E94582FE6
:10447000F801F6CF40910F025091100260911102A5
:10448000709112028FEF97E00E94F0764091130234
:104490005091140260911502709116028CEF97E012
:1044A0000E94F07640911702509118026091190213
:1044B00070911A0289EF97E00E94F0768AE00E94DC
:1044C000582F0C94F51383E50E94552E882311F480
:1044D0000C94F5130E94BF2D70939702609396027F
:1044E0000C94F5138DED90E00E941B3081110C941B
:1044F000F51383E50E94552E882311F40C94F513CF
:104500000091AC0610E00E94BF2D000F111FF801B2
:10451000E75FFD4F718360830C94F51380E50E9483
:10452000262E882311F40C94F5130E94BF2DF62E2D
:10453000C62ED72E83E50E94552E882321F00E9497
:10454000BF2D8B0102C00FEF1FEFC801019603972B
:1045500010F00C94F513D7FE02C00C94F513E3E3AE
:10456000F8E08BE598E02491F21611F40C94F51321
:1045700031968E179F07B9F7DFC483E50E94552E49
:10458000882319F00E94BF2D02C064E071E079A376
:1045900068A380E50E94552E882339F00E94BF2D24
:1045A0006938F3E17F0730F402C068EE73E07A8384
:1045B000698304C088E893E19A838983BE01605EC1
:1045C0007F4FCE0101960E940D620C94F51385E495
:1045D0000E94552E811110C080E50E94262E88234E
:1045E00091F00E94F32D6093C7027093C8028093EC
:1045F000C9029093CA0207C00E94CF2D882361F39D
:10460000E3E9F4E172C089E40E94262E882381F058
:104610000E94F32D2CEA35EC47E25EE30E945FDE58
:104620006093C3027093C4028093C5029093C60244
:1046300084E40E94262E882381F00E94F32D2CEA28
:1046400035EC47E25EE30E94C6E56093CB027093CF
:10465000CC028093CD029093CE02E9ECF4E18491F8
:104660008F010F5F1F4F882321F00E94582FF80100
:10467000F6CF4091C7025091C8026091C902709173
:10468000CA0283E698E00E94F0762CEA35EC47E215
:104690005EE36091C3027091C4028091C502909163
:1046A000C6020E94C6E5AB01BC018FE598E00E94FE
:1046B000F0762CEA35EC47E25EE36091CB02709134
:1046C000CC028091CD029091CE020E945FDEAB01C0
:1046D000BC018BE598E00E94F0768AE00E94582F9A
:1046E0000C94F5130E94582FF80184918F010F5FED
:1046F0001F4F8111F7CF03E813E0D8018D918D0191
:10470000882309F4B1C90E94582FF7CF80E50E9491
:10471000262E882351F00E94F32D6093BF027093E0
:10472000C0028093C1029093C20289E40E94262EA7
:10473000882381F00E94F32D2CEA35EC47E25EE3FA
:104740000E945FDE6093BB027093BC028093BD0247
:104750009093BE0284E40E94262E882381F00E945A
:10476000F32D2CEA35EC47E25EE30E94C6E5609348
:10477000B7027093B8028093B9029093BA02E9EC41
:10478000F4E184918F010F5F1F4F882321F00E9475
:10479000582FF801F6CF4091BF025091C0026091AE
:1047A000C1027091C2028FE698E00E94F0762CEA76
:1047B00035EC47E25EE36091BB027091BC028091F0
:1047C000BD029091BE020E94C6E5AB01BC018BE622
:1047D00098E00E94F0762CEA35EC47E25EE36091C7
:1047E000B7027091B8028091B9029091BA020E940A
:1047F0005FDEAB01BC0187E698E00E94F0768AE0BC
:104800000E94582F0C94F51383E50E94262E182F32
:10481000882371F00E94F32D0E9438E670932E02D7
:1048200060932D0221E0672B09F020E02093071808
:1048300080E50E94262E882361F020912D02309180
:104840002E02232B11F00E94E32D809307180C9465
:10485000F51311110C94F513E9ECF4E184918F0137
:104860000F5F1F4F882321F00E94582FF801F6CFC9
:1048700080910718882319F06FE376E002C06FE794
:1048800073E088E898E00E94267760912D0270918D
:104890002E0287E798E00E940D77E3E7F8E0849125
:1048A0008F010F5F1F4F882311F40C94F5130E94A2
:1048B000582FF801F4CF0E9428470C94F5130E945A
:1048C00024B80C94F51386E50E94262E882391F0D7
:1048D00080916E1580FF0EC0E8ECF8E084918F01A6
:1048E0000F5F1F4F882321F00E94582FF801F6CF49
:1048F0000E9483D783E50E94262E182F882319F063
:104900000E94E32D182F83E50E94262E882319F09C
:10491000812F0E94CF2B80916E158270F82E11117D
:1049200003C0E9ECF4E11BC08111FBCFE3E9F4E142
:1049300084918F010F5F1F4F811103C0E9EAF8E0F6
:1049400004C00E94582FF801F3CF84918F010F5FAC
:104950001F4F882331F30E94582FF801F6CF84911E
:104960008F010F5F1F4F882321F00E94582FF801FD
:10497000F6CFFF2019F065E773E002C06AE773E045
:104980008BE998E00E9426778AE00E94582F0C94C9
:10499000F5130E94DB450C94F513ACA9BDA98D91CC
:1049A000BDABACAB882309F486C0F50140805180D3
:1049B00062807380D1012D913D914D915C91F60102
:1049C00060817181828193810E9443E520E030E023
:1049D00040E05FE30E945FDE9B01AC01C301B201D6
:1049E0000E94C6E6181654F4F70185919591A59199
:1049F000B4918EAB9FABA8AFB9AF04C01EAA1FAADB
:104A000018AE19AED4012D913D914D915C91C30129
:104A1000B2010E9442E59B01AC016EA97FA988AD5D
:104A200099AD0E9442E52B013C0120E030E040EAD4
:104A300051EC0E94C6E687FD0AC020E030E040EA63
:104A400051E4C301B2010E94F9DD18161CF4E3E938
:104A5000F4E109C0B301A201C8010E94A12C2BC03E
:104A60000E94582FF80184918F010F5F1F4F811111
:104A7000F7CFEDEFF8E084918F010F5F1F4F882390
:104A800021F00E94582FF801F6CF61E08FEE98E0F8
:104A90000E94A89C88E290E09A83898388EC90E049
:104AA00099A388A3BE016F5F7F4FCE0180960E94BD
:104AB0000D620C94F5130F5F1F4FB4E08B0E911C29
:104AC000E4E0AE0EB11CF4E0CF0ED11C24E0220EC7
:104AD000311C34E0E30EF11C0330110509F05DCF09
:104AE0000E94542D0E94994B60E08EED98E00E9448
:104AF000A89C83E992E099A388A304E610E01A83B6
:104B00000983BE01605E7F4FCE0101960E940D6257
:104B10008AEB92E099A388A31A830983BE01605EA1
:104B20007F4FCE0101960E940D620C94F5130E94F6
:104B300058978CEF98E09A83898306E410E019A3D4
:104B400008A3BE016F5F7F4FCE0180960E940D6269
:104B500084E59BE09A83898319A308A3BE016F5F54
:104B60007F4FCE0180960E940D620C94F5130E9437
:104B700046928CEF98E09A83898306E410E019A3AB
:104B800008A3BE016F5F7F4FCE0180960E940D6229
:104B900084E59BE09A83898319A308A3BE016F5F14
:104BA0007F4FCE0180960E940D620C94F5130E94F7
:104BB000416A84E59BE09A83898306E410E019A3A7
:104BC00008A3BE016F5F7F4FCE0180960E940D62E9
:104BD0008CEF98E09A83898319A308A3BE016F5FC5
:104BE0007F4FCE0180960E940D620C94F51383E5F1
:104BF0000E94262E882319F00E94E32D01C081E037
:104C000091E089270E94656B0C94F51384918F01C4
:104C10000F5F1F4F882321F00E94582FF801F6CF15
:104C200083E090E09093A5118093A4111092A311BA
:104C30009093A2118093A11188E89CE00E94B6A0F5
:104C400010929D1110929E1110929F111092A0111E
:104C500080E00E94A33D80911B15882381F040E0F5
:104C600050E062E479E082E699E00E94FD9B40E03A
:104C700050E061E070E087E099E00E941F9B809126
:104C80001B15882381F040E050E06EE279E085E575
:104C900099E00E94FD9B40E050E062E070E087E018
:104CA00099E00E941F9B80911B15882381F040E0B2
:104CB00050E06BE179E088E499E00E94FD9B40E0E0
:104CC00050E063E070E087E099E00E941F9B8091D4
:104CD0001A15882329F01092A2111092A11106C072
:104CE00080E00E94D0A110921B15B5CF8091A11138
:104CF0009091A2118330910521F481E00E94D0A10E
:104D0000F5CF21E030E03093A5112093A411892B39
:104D100011F00C94F51380E00E94A33D80911B15C7
:104D2000882381F040E050E060E579E082E699E098
:104D30000E94FD9B40E050E061E070E087E099E078
:104D40000E941F9B80911B15882381F040E050E05A
:104D50006FE479E085E599E00E94FD9B40E050E03A
:104D600062E070E087E099E00E941F9B10921B15A3
:104D70000E945CBA60939D1170939E1180939F1165
:104D80009093A0110C94F51383E50E94262E88239E
:104D900011F40C94F5130E94E32D8093BC110C9434
:104DA000F5130E9444440C94F5130E94582FF80107
:104DB00084918F010F5F1F4F8111F7CFE8E6F9E073
:104DC00084918F010F5F1F4F882311F40C94F5130A
:104DD0000E94582FF801F4CF81E08093B602109220
:104DE000801D83E50E94262E811104C00E94B4A676
:104DF0000C94F5130E94E32D81110C94F513F6CF5A
:104E0000F090AF06FF2029F1E9ECF4E184918F01E5
:104E10000F5F1F4F882321F00E94582FF801F6CF13
:104E200084E50E94582F6F2D70E080E090E04AE00A
:104E30000E94AE2F80E20E94582F03E813E0D801B1
:104E40008D918D01882311F40C94341D0E94582FEC
:104E5000F6CF1092451DE9ECF4E184918F010F5FCC
:104E60001F4F882321F00E94582FF801F6CF609140
:104E7000451D70E087E799E00E940D778AE00E9467
:104E8000582F0C94F5136091AA067091AB06672B0E
:104E900039F4BF01615071097093AB066093AA06A3
:104EA00060E070E00C9484141092A3110C94F5133C
:104EB00061E0802F0E941DB96E2D802F0E94EEB8F8
:104EC000F12CB701802F0E9459B90930110511F05A
:104ED0000C94F513F0929211E09291110C94F51349
:104EE0000E9424B888E50E94262E882319F05F9A34
:104EF0001092C01789E50E94262E882319F08A9AFD
:104F00001092C1178AE50E94262E882351F09FB780
:104F1000F894809108018160809308019FBF1092EE
:104F2000C21785E40E94262E882311F40C94F513F1
:104F30000E94CEA10C94F5130E9424B860E08F2D3E
:104F40000E941DB90F3FBFEF1B0759F48F2D0E9420
:104F5000C5B831E020E0892B09F030E0032F122F93
:104F600005C00130110571F401E010E08F2D0E94A1
:104F7000C5B88017910711F40C94F51380E00E94D6
:104F8000D0A1F4CF00E010E0F1CFE9960FB6F8948D
:104F9000DEBF0FBECDBFDF91CF911F910F91FF906C
:104FA000EF90DF90CF90BF90AF909F908F907F90C9
:104FB0006F905F904F903F902F90089590918A1E30
:104FC000E92FF0E0EE54FE4E80839F5F9A3018F494
:104FD00090938A1E02C010928A1E80915B148F5F8C
:104FE00080935B1408958FB7F8949091361E2091AA
:104FF000351E921759F0E92FF0E0EB54F24E208164
:1050000030E09F5F9F779093361E02C02FEF3FEFF7
:105010008FBFC9010895089580E090E008952F9210
:105020003F924F925F926F927F928F929F92AF9238
:10503000BF92CF92DF92EF92FF920F931F93CF9385
:10504000DF9300D000D0CDB7DEB79A8389830E946A
:105050005CBAE981FA81C680D780E084F184C1140A
:10506000D104E104F10409F0ACC22485222309F43F
:1050700069C332852150248721E0230F228745858B
:10508000241301C01286E981FA8124E0329FE00DE9
:10509000F11D1124C684D784E088F188E981FA8162
:1050A000C282D382E482F582DC01CB018C0D9D1D8E
:1050B000A11DB11D86839783A087B18784819581C7
:1050C000892B09F43FC3FFB7FD83F894E981FA8186
:1050D000228033802101612C712C04811581809103
:1050E0003D02853221F08F3F09F068C205C0EAED2C
:1050F000F1E224912E83DAC085E280933D02EAED4D
:10510000F1E284918E838F3F09F458C2823009F412
:1051100069C030F5882309F44CC0813009F0C6C05D
:1051200010928000109281008091810088608093AD
:10513000810080918100816080938100E4E7F5E245
:10514000E491F0E0EE0FFF1FE55EFA4D859194913A
:10515000EAEBF5E2E491E0936B14E1E0EE8330C119
:105160009E81943009F482C008F460C0953009F043
:105170009DC0109220011092210180912101886030
:105180008093210180912101816080932101E4E7D6
:10519000F5E2E491F0E0EE0FFF1FE55EFA4D859138
:1051A0009491EAEBF5E2E491E093681495E09E8334
:1051B00007C114BC15BC84B5826084BD85B581600F
:1051C00085BDE4E7F5E2E491F0E0EE0FFF1FE55E58
:1051D000FA4D85919491EAEBF5E2E491E0936C1439
:1051E0001E82ABC21092B0001092B1008091B0004C
:1051F00082608093B0008091B10081608093B100A3
:10520000E4E7F5E2E491F0E0EE0FFF1FE55EFA4D12
:10521000859194919093651D8093641DEAEBF5E26E
:10522000E491E093661DF2E0FE8387C21092900045
:1052300010929100809191008860809391008091FC
:105240009100816080939100E4E7F5E2E491F0E061
:10525000EE0FFF1FE55EFA4D85919491EAEBF5E2C2
:10526000E491E0936A1423E02E83AAC01092A00078
:105270001092A1008091A10088608093A10080918C
:10528000A10081608093A100E4E7F5E2E491F0E001
:10529000EE0FFF1FE55EFA4D85919491EAEBF5E282
:1052A000E491E093691484E08E838AC0EE81E7FD87
:1052B00085C161E085E20E941DB98E818D7F09F074
:1052C00083C04801A12CB12C60E072E18AE790E034
:1052D000A50194010E9413E529833A834B835C83E3
:1052E00069017A01F1E0CF1AD108E108F1082FEF46
:1052F000C216D104E104F10409F008F44EC060E4E0
:1053000072E48FE090E0A50194010E9413E5690129
:105310007A0181E0C81AD108E108F1089E81923033
:1053200009F5EFEFCE16D104E104F10409F008F419
:10533000CBC160E970ED83E090E0A50194010E948B
:1053400013E569017A01F1E0CF1AD108E108F1080B
:105350002FEFC216D104E104F10411F008F041C1AD
:1053600083E027C08FEFC816D104E104F104B9F03F
:10537000B0F068E478EE81E090E0A50194010E942D
:1053800013E569017A0191E0C91AD108E108F10831
:10539000EE81EE2309F49AC163C181E001C082E08D
:1053A0009E81911106C095B5987F892B85BD7AC0E5
:1053B00085E09091B100987F892B8093B10072C0F5
:1053C00061E085E20E941DB94801A12CB12C60E08A
:1053D00072E18AE790E0A50194010E9413E569015A
:1053E0007A01E1E0CE1AD108E108F108C114D10434
:1053F000F1E0EF06F10488F068E478EE81E090E0F7
:10540000A50194010E9413E569017A0181E0C81A9F
:10541000D108E108F10883E001C081E09E8191306C
:1054200071F490918100987F892B809381004528A9
:1054300046284728D9F52FEF3FEFA90168C0EE8134
:10544000E33071F490919100987F892B80939100C3
:1054500045284628472851F52FEF3FEFA90179C08D
:10546000FE81F43071F49091A100987F892B809394
:10547000A100452846284728C9F42FEF3FEFA9018E
:105480007AC02E81253071F490912101987F892B6B
:105490008093210145284628472841F42FEF3FEF0C
:1054A000A9017BC045284628472869F0D801AA0FE2
:1054B000BB1F91010E94DCE428EE33E040E050E0A5
:1054C0000E94AFE403C02FEF3FEFA9018E8182302D
:1054D00081F12CF4882361F08130C9F06FC09E8186
:1054E000943009F448C0ACF1953009F456C066C058
:1054F000C7BC20937D1430937E1440937F14509347
:10550000801480916E00826080936E0057C0D092AC
:105510008900C09288002093791430937A144093C4
:105520007B1450937C1480916F00826080936F0095
:1055300045C0C092B3002093671D3093681D40930F
:10554000691D50936A1D8091700082608093700085
:1055500035C0D0929900C092980020937514309372
:105560007614409377145093781480917100826080
:105570008093710023C0D092A900C092A80020930C
:105580007114309372144093731450937414809177
:10559000720082608093720011C0D0922901C09283
:1055A000280120936D1430936E1440936F14509320
:1055B000701480917300826080937300ED81EFBF5F
:1055C000C1C0DC01CB018C199D09AE09BF09B7FD33
:1055D000B9C04098E981FA81168217821086118637
:1055E000B1C068E478EE81E090E0A50194010E94EA
:1055F00013E569017A01F1E0CF1AD108E108F10859
:105600002FEFC216D104E104F10441F138F164E254
:1056100074EF80E090E0A50194010E9413E5690118
:105620007A01F1E0CF1AD108E108F1082FEFC21694
:10563000D104E104F10409F008F4BACE62E17AE79A
:1056400080E090E0A50194010E9413E569017A01D0
:1056500081E0C81AD108E108F10819C084E0A9CE98
:105660002FEFC216D104E104F10409F008F463C07D
:1056700062E17AE780E090E0A50194010E9413E5E1
:1056800069017A01F1E0CF1AD108E108F1082FEFA2
:10569000C216D104E104F104A9F0A0F089819A8135
:1056A000AB81BC812AE0B595A795979587952A95FA
:1056B000D1F76C017D01F1E0CF1AD108E108F108C2
:1056C00087E077CE86E075CE82E073CEEFEFCE1620
:1056D000D104E104F10469F160F162E17AE780E06C
:1056E00090E0A50194010E9413E569017A0181E02F
:1056F000C81AD108E108F1089FEFC916D104E104E6
:10570000F104A9F0A0F089819A81AB81BC813AE0D3
:10571000B595A795979587953A95D1F76C017D0139
:10572000E1E0CE1AD108E108F10885E03CCE84E042
:105730003ACE83E038CE84E033CE61E085E20E9449
:105740001DB9BFCD26960FB6F894DEBF0FBECDBFF4
:10575000DF91CF911F910F91FF90EF90DF90CF904D
:10576000BF90AF909F908F907F906F905F904F9081
:105770003F902F9008958EEA9FE00E94E08321E001
:10578000892B09F420E0822F08958BE490E10E9498
:10579000E08321E0892B09F420E0822F0895909185
:1057A0006E1591FB222720F98217C9F081110EC0D6
:1057B00044E355E160E375E18CE295E10E94565EB9
:1057C00080916E158D7F80936E15089590FFF8CFB0
:1057D000926090936E158CE295E10C944177089558
:1057E0008F929F92AF92BF92CF92EF92FF920F93C0
:1057F0001F93CF93DF93CDB7DEB72C970FB6F894F6
:10580000DEBF0FBECDBF4B015C01C090451DE3EC78
:10581000F7E180859185A285B385448155816681B4
:105820007781008111812281338109831A832B833F
:105830003C834D835E836F83788789879A87AB87A4
:10584000BC87AE01475F5F4FBE016B5F7F4FCE01EC
:1058500001960E94565E850174012FEC37E1AE017E
:10586000475F5F4FBE016B5F7F4FCE0101960E9485
:10587000BE4F2C960FB6F894DEBF0FBECDBFDF91A2
:10588000CF911F910F91FF90EF90CF90BF90AF906D
:105890009F908F900895CF92DF92EF92FF920F9397
:1058A0001F93CF93DF93EC01CC0FDD1FCC0FDD1FD7
:1058B000FE01EA55FE4E20E030E0A90160817181D1
:1058C000828193810E9443E5FE01ED56F14E2081D5
:1058D0003181428153810E9443E56B017C01FE01CD
:1058E000E85FF74E6083718382839383FE01EE5CF1
:1058F000F14F25913591459154918E010D52184EDD
:105900000E9443E5F8016083718382839383FE01E3
:10591000E25CF14F2591359145915491C15FDD4F86
:10592000C701B6010E9443E5688379838A839B831C
:10593000DF91CF911F910F91FF90EF90DF90CF906B
:1059400008958F929F92AF92BF92EF92FF920F9322
:105950001F93CF93DF938C014A015B01EC01CC0FC5
:10596000DD1FCC0FDD1FCE01845D9A4E7C01CA5530
:10597000DE4E288139814A815B81C501B4010E94D4
:1059800042E5F70120813181428153810E9443E544
:10599000F701608371838283938388829982AA82CC
:1059A000BB82C801DF91CF911F910F91FF90EF90C3
:1059B000BF90AF909F908F900C944B2CCF93FC0195
:1059C00020812B33A9F020915B142A3088F4C62F54
:1059D000BC0180918A1EF0E48F9FC0011124865281
:1059E0009E4E0E948AE88C2F0E94DE2781E001C033
:1059F00080E0CF910895DF92EF92FF920F931F9373
:105A0000CF93DF93CDB7DEB76E970FB6F894DEBFB6
:105A10000FBECDBF6091B8177091B91761157105B0
:105A200049F14DE150E0CE0101967C010E9473DD09
:105A30001E8EF7018F010E191F09D190DD2019F07C
:105A40009AE0D912F7CFF701E00FF11F1082C701DA
:105A50000E944162882371F0DD20A9F00F5F1F4F83
:105A60008091B8179091B917080F191F1093B917A3
:105A70000093B81781E02091B8173091B917232B04
:105A800029F480E003C000E010E0F0CF6E960FB67E
:105A9000F894DEBF0FBECDBFDF91CF911F910F9164
:105AA000FF90EF90DF9008950F931F93CF93DF93B4
:105AB000CDB7DEB72C970FB6F894DEBF0FBECDBFC3
:105AC000ECE2F5E180859185A285B385448155811D
:105AD00066817781008111812281338109831A8354
