:100000000C941B140C944C140C944C140C944C1421
:100010000C944C140C944C140C94F5B80C944C1493
:100020000C944C140C944C140C944C140C944C14D0
:100030000C944C140C9436900C944C140C944C145A
:100040000C944C140C94A2680C944C140C944C1406
:100050000C944C140C944C140C9425940C9449BCA2
:100060000C944C140C9484830C94B2830C944C1414
:100070000C944C140C944C140C944C140C944C1480
:100080000C944C140C944C140C944C140C944C1470
:100090000C944C140C944C140C944C140C944C1460
:1000A0000C944C140C944C140C944C140C944C1450
:1000B0000C944C140C944C140C944C140C944C1440
:1000C0000C944C140C944C140C944C140C946F879A
:1000D0000C9445870C944C140C944C140C944C14B4
:1000E0000C944C1454639663CA631B645064076594
:1000F000716479659A64CF64FCA93EAC4EAC4EAC99
:100100004EAC8BAC98AC98AC98AC98AC51AC8BAC7A
:1001100098AC5DAC98AC98AC98AC98AC98AC98ACFA
:100120008EACB7B9BAB9A9B9ADB9B3B9F1B9BEB95D
:10013000C2B9C8B9CCB9D0B9D6B9DAB9DEB9F1B952
:10014000E4B9E8B9ECB963BB68BB6DBB77BB81BBF5
:10015000FABB8BBB93BB9BBBA5BBAFBBB9BBC8BB3F
:10016000D2BBFABBDCBBE6BBF0BB0C94D78F0C94C4
:10017000C3800C94B9BB0C94DCBB0C9468BB0C948E
:10018000775B0C94D2BB0C94C8BB0C94E3580C94D2
:1001900071640C94E2570C94B4AF0C94ADB90C9408
:1001A000D6B90C94B7B90C94C4800C9407650C9420
:1001B0005A9F0C94AF590C94FCA90C94A1B20C94C6
:1001C000B05D0C941B640C941B5B0C9481BB0C9471
:1001D000DEB90C94C2B90C9498AC0C94BB590C9435
:1001E000B9580C948BBB0C9463BB0C94D5AD0C9498
:1001F00050640C947D590C945DAC0C94748F0C94E9
:100200003B8F0C948EAC0C949BBB0C94E8B90C9473
:1002100079650C94BAB90C94A9B90C946DBB0C9483
:10022000CA630C94E4B90C94A4570C94C3590C946D
:100230005EE00C94B3B90C94D0B90C94E4590C94CE
:1002400044910C94F1B90C9451AC0C94E6BB0C9411
:10025000BEB90C9490AD0C943EAC0C9493BB0C9432
:10026000888F0C946E290C94C8B90C945F580C9428
:100270000D5B0C94FF5A0C94658F0C94F0BB0C949E
:100280005FB20C94ECB90C949A640C94968F0C9415
:10029000AFBB0C9454630C944EAC0C94CCB90C943E
:1002A000CF640C94255D0C946E5C0C9496630C9456
:1002B0007D580C9477BB0C94FABB0C94A5BB0C94A2
:1002C000DAB90C9457C30C94495B0C94F7900C94D6
:1002D0008BAC4E414E494E495459494E46CDCCCC3B
:1002E0003D0AD7233C17B7D13877CC2B329595E60A
:1002F000241FB14F0A000020410000C84200401CEA
:100300004620BCBE4CCA1B0E5AAEC59D7400407A36
:1003100010F35A00A0724E18090010A5D4E800008E
:10032000E87648170000E40B54020000CA9A3B002C
:100330000000E1F505000080969800000040420FA3
:10034000000000A08601000000102700000000E867
:1003500003000000006400000000000A000000002C
:10036000000100000000002C76D888DC674F0823CD
:10037000DFC1DFAE59E1B1B796E5E3E453C63AE633
:1003800051997696E8E6C28426EB898C9B62ED4013
:100390007C6FFCEFBC9C9F40F2BAA56FA5F4900562
:1003A0005A2AF75C936B6CF9676DC11BFCE0E40D96
:1003B00047FEF520E6B500D0ED902E03009435778A
:1003C000050080841E080000204E0A000000C80CB2
:1003D000333333330F986E12831141EF8D2114891B
:1003E0003BE65516CFFEE6DB18D1844B381BF77C75
:1003F0001D901DA4BBE424203284725E228100C9BA
:10040000F124ECA1E53D27434F4D4D554E49434165
:1004100054494F4E0044525952554E004552524F86
:10042000525300494E464F004543484F00557370A4
:10043000696A2E2E2E004D3530300059206F7574AC
:10044000206F662072616E67652028312D33292E5A
:100450000A0058206F7574206F662072616E6765A0
:100460002028312D33292E0A004D657368207072C3
:100470006F62696E6720646F6E652E0A0053746147
:100480007274206D6573682070726F62696E672088
:1004900077697468202247323920533122206669F7
:1004A0007273742E0A004732380A473239205332A9
:1004B0000053746174653A20004D6573682062656D
:1004C00064206C6576656C696E6720686173206E68
:1004D0006F20646174612E0A0053206F7574206F61
:1004E000662072616E67652028302D35292E0A003E
:1004F0004D65736820706F696E742063616E6E6FF6
:1005000074206265207265736F6C7665640A004FB3
:10051000637A656B6977616E69652E2E2E004D30AA
:10052000004272616B20727563687500456E6420CD
:1005300066696C65206C6973740A00426567696E50
:100540002066696C65206C6973740A004D31323520
:10055000005344207072696E74696E67206279740A
:100560006520004E6F74205344207072696E746968
:100570006E670A005072696E742074696D653A2066
:100580000050726F7465637465642050696E0A0070
:100590005072696E746F20483320457820676F74FD
:1005A0006F77612E00280423041C04150407046FD0
:1005B00066660044454255473A0055626974792E93
:1005C00020004D3131332053006F6B004361703A8E
:1005D000454D455247454E43595F50415253455250
:1005E0003A300A004361703A434153455F4C4947F2
:1005F00048545F4252494748544E4553533A300A93
:10060000004361703A544F47474C455F4C49474857
:1006100054533A300A004361703A534F465457419D
:1006200052455F504F5745523A300A004361703A85
:100630004C4556454C494E475F444154413A310A76
:10064000004361703A5A5F50524F42453A300A00B7
:100650004361703A4155544F4C4556454C3A300A27
:10066000004361703A5052494E545F4A4F423A310A
:100670000A004361703A50524F47524553533A3043
:100680000A004361703A4155544F5245504F5254FD
:100690005F54454D503A310A004361703A45455028
:1006A000524F4D3A310A004649524D574152455F2B
:1006B0004E414D453A4D61726C696E20312E332E9C
:1006C000316120284769746875622920534F55525B
:1006D00043455F434F44455F55524C3A68747470CC
:1006E000733A2F2F6769746875622E636F6D2F4D93
:1006F00061726C696E4669726D776172652F4D61CA
:10070000726C696E2050524F544F434F4C5F5645A8
:100710005253494F4E3A312E30204D414348494EB5
:10072000455F545950453A5072696E746F20483392
:100730002045782045585452554445525F434F5503
:100740004E543A3120555549443A636564653261E7
:1007500032662D343161322D343734382D396231DF
:10076000322D6335356336326633363766660A00B6
:100770002F2F200053657474696E67205472617660
:10078000656C20416363656C65726174696F6E3A74
:10079000200053657474696E6720526574726163DA
:1007A0007420416363656C65726174696F6E3A2091
:1007B0000053657474696E67205072696E742041CD
:1007C0006363656C65726174696F6E3A200053658E
:1007D0007474696E67205072696E7420616E642053
:1007E00054726176656C20416363656C65726174F7
:1007F000696F6E3A2000205A0020590058002020CE
:100800004D61783A2000205A0020590058002020DD
:100810004D696E3A2000576C2E200057796C2E00DF
:10082000536F667420656E6473746F70733A200042
:100830000001363726FF023C3D380EFF2E303EFFCA
:1008400013FF0C0809FFFFFF1A1C18FFFF08440ADA
:10085000FF43FFFFFFFFFFFF20643A0020693A00DB
:1008600020703A0020643A0020693A0020703A0073
:1008700043290A0061626C656420286D696E2074EA
:10088000656D702000436F6C6420657874727564C8
:100890006573206172652000426564204C65766551
:1008A0006C696E6720004661696C656420746F2016
:1008B000656E61626C6520426564204C6576656C8E
:1008C000696E670A004D65736820426564204C6557
:1008D00076656C20646174613A0A00506F7A2E204C
:1008E0007A65726F7761207573742E004572723A63
:1008F00020546F6F206661722100546F6F20666113
:10090000722066726F6D207265666572656E6365D2
:1009100020706F696E740A004D383132004E6F20BE
:1009200063617365206C696768740A004163746968
:1009300076652045787472756465723A2000556E4C
:100940006B6E6F776E20636F6D6D616E643A2022FF
:1009500000736C6F743A0039363030204F4B202DC5
:100960003E20545259203131350A0039363030207A
:100970004641494C202D3E20545259203131350AF0
:1009800000676574436F6E6E656374202D3E0A00C8
:100990002D3E20676574436F6E6E6563740A006E4A
:1009A00065785F696E69740A0020636F6E6E6563B7
:1009B000746564210A0020370020342E3300203370
:1009C0002E350020332E320020322E34004E657832
:1009D00074696F6E004E657874696F6E206E6F7407
:1009E00020636F6E6E656374656421004E696500F7
:1009F00054616B00437A7920777A6E6F7769632050
:100A000077796472756B3F0057796B7279746F20D8
:100A10007A616E696B206E617069656369610070EF
:100A20006F207A616E696B75207A6173696C616E93
:100A3000696100577A6E617769616E6965207779BF
:100A40006472756B75004D313137204472756B6F70
:100A500077616E69652E2E004739322045004D388A
:100A600032002046333030300020453138002059E4
:100A700000473120580020463330303000473120C5
:100A80005A004D3831320020463330303000204596
:100A900031350020590047312058004D3233202590
:100AA00073002E67636F004D313930205325640089
:100AB0004D31303920532564006261627973686971
:100AC00066743A006166746572686F6D653A0062BB
:100AD00065666F72653A0042617A6F77616E69652B
:100AE000206F736900706F207A616E696B75207A70
:100AF0006173696C616E6961005572756368616DDF
:100B000069616E696500473238002020506C616E63
:100B10006E657242756666657242797465733A20D5
:100B2000002046726565204D656D6F72793A200030
:100B3000436F6D70696C65643A204A756C20313082
:100B400020323032300A00207C20417574686F7288
:100B50003A20285072696E746F33642E706C2C20AA
:100B60004A616B75622053696B6F7261290A0032AA
:100B70003032302D30362D313500204C61737420E9
:100B8000557064617465643A2000312E332E3161F2
:100B90000A004D61726C696E0020536F6674776154
:100BA00072652052657365740A002057617463682A
:100BB000646F672052657365740A002042726F7714
:100BC0006E206F75742052657365740A0020457835
:100BD0007465726E616C2052657365740A00506FA3
:100BE00077657255700A0073746172740A006572D9
:100BF000726F722077726974696E6720746F2066F5
:100C0000696C650A00205A3A0020593A0020583A87
:100C100000656E6473746F7073206869743A2000A5
:100C2000446F6E6520736176696E672066696C65D6
:100C30002E0A004D32390055626974792E20005A0F
:100C40006174727A796D616E792E20005072696ECE
:100C50007465722073746F707065642064756520AC
:100C6000746F206572726F72732E204669782074DB
:100C70006865206572726F7220616E64207573659D
:100C8000204D39393920746F207265737461727424
:100C90002E202854656D70657261747572652069C7
:100CA000732072657365742E2053657420697420F7
:100CB00061667465722072657374617274696E67BF
:100CC000290A004E6F204C696E65204E756D626575
:100CD00072207769746820636865636B73756D2C27
:100CE000204C617374204C696E653A20004E6F2071
:100CF000436865636B73756D2077697468206C69F0
:100D00006E65206E756D6265722C204C6173742067
:100D10004C696E653A2000636865636B73756D207E
:100D20006D69736D617463682C204C617374204C21
:100D3000696E653A20004C696E65204E756D62657E
:100D400072206973206E6F74204C617374204C693B
:100D50006E65204E756D6265722B312C204C61736F
:100D600074204C696E653A20004D313130004D33AE
:100D700031004D383420582059205A204500534422
:100D80002072656164206572726F720A00446F6E32
:100D900065207072696E74696E672066696C650A99
:100DA0000020496E76616C696420657874727564A0
:100DB000657220000000000000000000000000003C
:100DC0000080984300009B43000002442028636198
:100DD0006C63756C6174656429210A0020213D20D3
:100DE00000454550524F4D20435243206D69736D6D
:100DF00061746368202D202873746F7265642920E4
:100E000000290A002062797465733B2063726320B5
:100E1000002073746F7265642073657474696E6703
:100E20007320726574726965766564202800204DB0
:100E300061726C696E3D563339290A002845455068
:100E4000524F4D3D00454550524F4D2076657273CF
:100E5000696F6E206D69736D61746368200048610D
:100E60007264636F6465642044656661756C7420A8
:100E700053657474696E6773204C6F616465640AAE
:100E80000088130000881300005000000028230091
:100E90000000008243000082430000E0410000A007
:100EA000420000A0420000A0420000484400002090
:100EB0004320440020490020204D3330342050008E
:100EC00020440020490020204D3330312050005074
:100ED00049442073657474696E67733A0A00205A36
:100EE0000020590020204732392053332058002059
:100EF000204D3432302053004D65736820426564C4
:100F0000204C6576656C696E673A0A00205A0020AD
:100F1000590020204D323036205800486F6D652032
:100F20006F66667365743A0A00204500205A0020F7
:100F3000590020580020420020540020204D32301B
:100F400035205300416476616E6365643A20533CFA
:100F50006D696E5F66656564726174653E20543CC0
:100F60006D696E5F74726176656C5F6665656472EB
:100F70006174653E20423C6D696E5F7365676D65A7
:100F80006E745F74696D655F6D733E20583C6D6172
:100F9000785F78795F6A65726B3E205A3C6D617844
:100FA0005F7A5F6A65726B3E20453C6D61785F6574
:100FB0005F6A65726B3E0A002054002052002020B8
:100FC0004D323034205000416363656C657261744A
:100FD000696F6E2028756E6974732F7332293A20F9
:100FE000503C7072696E745F616363656C3E205241
:100FF0003C726574726163745F616363656C3E200B
:10100000543C74726176656C5F616363656C3E0A23
:1010100000204500205A0020590020204D32303158
:101020002058004D6178696D756D20416363656C72
:1010300065726174696F6E2028756E6974732F73A1
:1010400032293A0A00204500205A00205900202069
:101050004D3230332058004D6178696D756D2066D2
:1010600065656472617465732028756E6974732F89
:1010700073293A0A00204500205A002059002020F8
:101080004D3932205800537465707320706572209A
:10109000756E69743A0A0020204D32303020443099
:1010A0000A0020204D323030204400204469736112
:1010B000626C65640A0046696C616D656E742073CC
:1010C000657474696E67733A0020204732312020BE
:1010D00020203B20556E69747320696E206D6D0A67
:1010E00000526F7A67727A616E6F2073746F6C0052
:1010F00020573A00526F7A67727A6577616E696538
:101100002073746F6C752E2E2E00205A3A002042E8
:101110003A0020436F756E7420413A0020453A0032
:10112000205A3A0020593A00583A004B64200023D4
:10113000646566696E65202044454641554C545FA0
:10114000004B69200023646566696E652020444574
:101150004641554C545F004B70200023646566691E
:101160006E65202044454641554C545F005049442B
:1011700020756B6F6E637A6F6E6F0050494420412B
:1011800075746F74756E652066696E6973686564E1
:10119000212050757420746865206C617374204B35
:1011A000702C204B6920616E64204B6420636F6E4D
:1011B0007374616E74732066726F6D2062656C6FFC
:1011C0007720696E746F20436F6E66696775726110
:1011D00074696F6E2E680A00504944204175746F1F
:1011E00074756E65206661696C6564212074696D33
:1011F000656F75740A0050494420626C61643A203E
:101200006F76657273686F740050494420626C6138
:1012100064206B616C69627261636A690050494461
:10122000204175746F74756E65206661696C6564C4
:10123000212054656D706572617475726520746FDC
:101240006F20686967680A00204B643A2000204BD1
:10125000693A2000204B703A20000A20436C6173E9
:1012600073696320504944200A002054753A2000D5
:10127000204B753A2000206D61783A2000206D697E
:101280006E3A200020643A200020626961733A209F
:101290000050494420726F7A706F637A65746F00F2
:1012A0004D65736820706F696E742063616E6E6F38
:1012B00074206265207265736F6C7665640A004DF8
:1012C00034323120696E636F7272656374207061AD
:1012D00072616D657465722075736167650A0020BF
:1012E00066697273740A005A0059005800486F6D9D
:1012F00065200020636F6C64206578747275736973
:101300006F6E2070726576656E7465640A00616246
:101310007920777A6E6F7769632077796472756B5D
:101320000066696C616D656E74752069206B6C690F
:101330006B6E696A005573756E206E61646D6961CC
:10134000720000577A6E617769616E6965207779FE
:101350006472756B75004732392053320070726FBA
:10136000626573656E643A0A004E49450054414B0C
:101370000054414B004D2042204C00323032302D81
:1013800030362D313500312E332E316100256C641D
:101390002E25696D007A61706973616E65007A61EE
:1013A0006C61646F77616E650054656D702E206DA1
:1013B000696E3A20313730006B6F6E74796E756FDD
:1013C00077616300726F7A67727A656A2061627909
:1013D00000476C6F77696361206A657374207A696E
:1013E0006D6E612C004D3630302042300047393070
:1013F00000473931004D38340047323800447275A7
:101400006B2070727A657277616E7900456B7374C8
:10141000727564756A2077696563656A00577A6ECC
:101420006F77206472756B6F77616E6965005779AD
:10143000626965727A206F70636A650050726F73BB
:101440007A6520637A656B616300526F7A67727A9E
:101450006577616E6965206479737A790057796D73
:1014600069616E612066696C616D656E747500619D
:10147000627920726F7A67727A6163206479737A15
:101480006500576369736E696A2070727A7963695F
:10149000736B0057796D69616E612066696C616D6F
:1014A000656E74750077796472756B750054727728
:1014B0006120777A6E617769616E6965006E6F771A
:1014C00065676F206D6174657269616C7500547237
:1014D000776120656B737472757A6A610066696CF6
:1014E000616D656E747520646F20676C6F776963DA
:1014F000790054727761207770726F7761647A61D6
:101500006E69650057796D69616E612066696C610D
:101510006D656E747500616279206B6F6E74796EA3
:10152000756F7761632E2E2E0069206E616369737B
:101530006E696A2070727A796369736B00576C6F99
:101540007A2066696C616D656E740057796D6961AA
:101550006E612066696C616D656E74750066696C9C
:10156000616D656E7475207A20676C6F7769637939
:101570000054727761207779737577616E696500C1
:1015800057796D69616E612066696C616D656E7415
:1015900075007A6D69616E792066696C616D656E42
:1015A0007475005472776120726F7A706F637A7904
:1015B0006E616E69650057796D69616E612066695B
:1015C0006C616D656E74750057726974696E672021
:1015D000746F2066696C653A20006F70656E2066D6
:1015E00061696C65642C2046696C653A20006F70F7
:1015F000656E206661696C65642C2046696C653A8D
:10160000200046696C652073656C65637465640AC7
:10161000002053697A653A200046696C65206F7036
:10162000656E65643A20006F70656E206661696C56
:1016300065642C2046696C653A20002066696C65FB
:101640003A20004E6F7720002220706F7300222016
:10165000706172656E743A2200535542524F555470
:10166000494E452043414C4C207461726765743A81
:10167000220055626974792E2000747279696E6750
:1016800020746F2063616C6C207375622D67636FCB
:1016900064652066696C6573207769746820746F6F
:1016A0006F206D616E79206C6576656C732E204DB0
:1016B0004158206C6576656C2069733A0024F4D437
:1016C0003050C38E20C2A24017828B7011127A91C3
:1016D0000D816CD90AA861E108C7586607615143BA
:1016E000061E4B5D05C145A7041A411104093D982A
:1016F00003713931034036DB0265339102D4305433
:1017000002802E1D02632CEE01752AC501B028A0AF
:1017100001102781018F2564012B244B01E0223425
:1017200001AC211F018D200D01801FFC00841EEDE6
:1017300000971DDF00B81CD200E61BC600201BBCB2
:1017400000641AB200B219A8000A19A0006A189918
:1017500000D117910040178B00B516840031167E1A
:1017600000B31579003A157300C7146F0058146A56
:1017700000EE1366008813630025135E00C7125B3A
:10178000006C12570015125400C111510070114F16
:101790000021114B00D61049008D1047004610441F
:1017A0000002104200C00F4000800F3E00420F3C7C
:1017B00000060F3B00CB0E3800930E37005C0E3551
:1017C00000270E3400F30D3200C10D3100900D30B2
:1017D00000600D2E00320D2D00050D2C00D90C2BB4
:1017E00000AE0C2900850C29005C0C2700350C2765
:1017F000000E0C2600E80B2400C40B2400A00B23D1
:10180000007D0B23005A0B2100390B2100180B20FF
:1018100000F80A1F00D90A1E00BB0A1E009D0A1DFF
:1018200000800A1D00630A1C00470A1B002C0A1BCB
:1018300000110A1A00F7091A00DD091900C4091974
:1018400000AB091900920917007B091800630917FA
:10185000004C09160036091600200916000A091561
:1018600000F5081500E0081400CC081400B80814AE
:1018700000A4081400900813007D0812006B0813E0
:1018800000580812004608120034081100230811FD
:10189000001208110001081100F0071000E0071005
:1018A00000D0071000C0071000B0070F00A10710FC
:1018B0000091070E0083070F0074070F0065070EE5
:1018C0000057070E0049070E003B070D002E070EBC
:1018D0000020070D0013070D0006070D00F9060C88
:1018E00000ED060D00E0060C00D4060C00C8060C46
:1018F00000BC060C00B0060C00A4060B0099060CF8
:10190000008D060B0082060B0077060B006C060BA1
:101910000061060A0057060B004C060A0042060A40
:101920000038060A002E060A0024060A001A060AD3
:10193000001006090007060A00FD050900F4050964
:1019400000EB050900E2050900D9050900D00509E9
:1019500000C7050900BE050900B5050800AD05086A
:1019600000A50509009C050800940508008C0508E1
:1019700000840508007C050800740508006C050754
:1019800000650508005D050700560508004E0507BF
:101990000047050700400508003805070031050726
:1019A000002A050700230507001C05060016050789
:1019B000000F0507000805060002050700FB0406E6
:1019C00000F5040700EE040600E8040600E2040740
:1019D00000DB040600D5040600CF040600C9040697
:1019E00000C3040600BD040600B7040600B10405E8
:1019F00000AC040600A6040600A00405009B040633
:101A00000095040500900406008A0405008504057D
:101A100000800406007A04050075040500700405C2
:101A2000006B04050066040500610405005C040504
:101A30000057040500520405004D04050048040544
:101A400000430405003E0404003A04050035040583
:101A500000300404002C04050027040400230405BE
:101A6000001E0404001A04040016040500110404F6
:101A7000000D04040009040500040404000004042B
:101A800000FC030400F8030400F4030400F0030462
:101A900000EC030400E8030400E4030400E0030492
:101AA00000DC030400D8030400D4030400D00304C2
:101AB00000CC030400C8030300C503030024F4049E
:101AC000D9201BC40C5C0E9804C4095F0265077121
:101AD00001F405F900FB04B30048048700C1036961
:101AE000005803550003034500BE023A008402314A
:101AF0000053022A002902250004022000E4011CF0
:101B000000C8011900AF01170098011400840113E7
:101B100000710110006101100051010E0043010D20
:101B20000036010B002B010B0020010B00150109F1
:101B3000000C01090003010800FB000800F3000885
:101B400000EB000700E4000600DE000600D80006F7
:101B500000D2000600CC000500C7000500C2000549
:101B600000BD000400B9000400B5000400B1000489
:101B700000AD000400A9000400A5000300A20003BA
:101B8000009F0004009B00030098000300950002E2
:101B90000093000300900003008D0002008B0003FF
:101BA0000088000200860002008400030081000219
:101BB000007F0002007D0002007B0002007900022D
:101BC000007700010076000200740002007200013C
:101BD00000710002006F0002006D0001006C000245
:101BE000006A000100690002006700010066000150
:101BF0000065000100640002006200010061000154
:101C000000600001005F0002005D0001005C000157
:101C1000005B0001005A000100590001005800015A
:101C2000005700010056000100550001005400015A
:101C30000053000000530001005200010051000158
:101C400000500001004F0001004E0000004E000156
:101C5000004D0001004C0001004B0000004B000152
:101C6000004A00010049000100480000004800014E
:101C7000004700010046000000460001004500004A
:101C80000045000100440001004300000043000142
:101C9000004200000042000100410000004100013C
:101CA00000400001003F0000003F0001003E000036
:101CB000003E0001003D0000003D0001003C00002E
:101CC000003C0000003C0001003B0000003B000124
:101CD000003A0000003A000100390000003900011C
:101CE0000038000000380000003800010037000014
:101CF0000037000100360000003600000036000109
:101D000000350000003500000035000100340000FF
:101D100000340000003400010033000000330000F4
:101D200000330001003200000032000000320001E8
:101D300000310000003100000031000100300000DF
:101D40000030000000300001002F0000002F0000D4
:101D5000002F0000002F0001002E0000002E0000C8
:101D6000002E0001002D0000002D0000002D0000BD
:101D7000002D0001002C0000002C0000002C0000B1
:101D8000002C0001002B0000002B0000002B0000A5
:101D9000002B0001002A0000002A0000002A000099
:101DA000002A00010029000000290000002900008D
:101DB0000029000000290001002800000028000080
:101DC0000028000000280000002800010027000073
:101DD0000027000000270000002700000027000166
:101DE000002600000026000000260000002600005B
:101DF000002600010025000000250000002500004D
:101E0000002500000025000000250001002400003E
:101E10000024000000240000002400000024000131
:101E20000023000000230000002300000023000026
:101E30000023000000230000002300010022000016
:101E4000002200000022000000220000002200000A
:101E500000220001002100000021000000210000FC
:101E600000210000002100000021000000210001ED
:101E700000200000002000000020000000200000E2
:101E800000200000002000000020000000200001D1
:101E9000001F0000001F0000001F0000001F0000C6
:101EA000001F0000001F0000001F0001001E0000B6
:101EB000001E0000001E0000001E0000004D38340F
:101EC00020582059205A204500206E6F7420656EDE
:101ED00074657265642E0A000A4D656173757265DA
:101EE0006420706F696E74733A0A005A206F6666D8
:101EF0007365743A20004E756D20582C593A203382
:101F00002C330A0046696C652064656C65746564F1
:101F10003A0044656C6574696F6E206661696C6532
:101F2000642C2046696C653A20006F70656E2066EF
:101F300061696C65642C2046696C653A20006D000F
:101F400046696C616D656E7420757365643A200036
:101F500053746174733A20002C204C6F6E67657364
:101F600074206A6F623A2000546F74616C20746947
:101F70006D653A200053746174733A20002C20463A
:101F800061696C65643A20002C2046696E6973684B
:101F900065643A20005072696E74733A200053747D
:101FA0006174733A2000202F002042403A00204004
:101FB0003A00526F7A67727A616E6F0020573A006A
:101FC0005072696E746F20483320457820676F74B3
:101FD0006F77612E0043616E6E6F74206F70656E57
:101FE00020737562646972200053442063617264D7
:101FF000206F6B0A006F70656E526F6F74206661A0
:10200000696C65640A00766F6C756D652E696E6922
:1020100074206661696C65640A004572726F723A79
:1020200000534420696E6974206661696C0A00611E
:1020300075746F25692E67004D3234004D323320A0
:10204000257300656E7175657565696E6720220080
:102050006563686F3A003D003F2061646472657398
:1020600073203A2000206279746573206F66206DBA
:10207000656D6F727920696E697469616C697A65E2
:10208000642E0A0A00556E61626C6520746F2069C7
:102090006E697469616C697A652E0A0A00496E6915
:1020A0007469616C697A696E672066726565206D16
:1020B000656D6F727920626C6F636B2E0A0A0A007D
:1020C000747275650A002072657475726E3D000A3F
:1020D0004D656D6F727920436F7272757074696FA0
:1020E0006E20646574656374656420696E20667231
:1020F0006565206D656D6F727920617265612E0A6C
:10210000002020626C6F636B5F666F756E643D00CC
:10211000202020002920666F756E643D0020280075
:10212000207370203C204865617020002073703D52
:10213000000A5F5F6273735F656E643A20003D0062
:102140000A265F5F62726B76616C3A20000A666DE8
:10215000632829206E3D00636865636B5F666F725C
:102160005F667265655F6D656D6F72795F636F72D3
:1021700072757074696F6E2829203D200020627985
:1021800074657320617420000A4C61726765737412
:10219000206672656520626C6F636B206973200036
:1021A0000A4D656D6F727920436F72727570746934
:1021B0006F6E20646574656374656420696E206663
:1021C000726565206D656D6F727920617265612E33
:1021D0000A002062797465732066726565206174F7
:1021E0002000466F756E6420000A436F727275702E
:1021F00074696E6720616464726573733A2000438A
:102200006F7272757074696E672066726565206D95
:10221000656D6F727920626C6F636B2E0A0A000A1B
:10222000537461636B20506F696E746572203A203D
:10223000000A7374617274206F662066726565208F
:102240007370616365203A20000A5F5F6273735F99
:10225000656E64203A20000A5F5F62726B76616C83
:10226000203A20002569730025696D2025697300D7
:102270002569682025696D2025697300256964201A
:102280002569682025696D202569730025697920F5
:10229000256964202569682025696D2025697300FA
:1022A0007C3C3E5E2B3D3F2F5B5D3B2C2A225C003D
:1022B00070012C0190012701B0012201C0011D0114
:1022C000F00118011002130130020E016002090131
:1022D00090020401C002FF000003FA004003F50071
:1022E0008003F000D003EB002004E6007004E1005E
:1022F000E004DC004005D700C005D2004006CD0058
:10230000D006C8008007C3003008BE00F008B9003E
:10231000C009B400B00AAF00B00BAA00D00CA500F1
:10232000000EA000500F9B00C010960050129100AC
:1023300000148C00C0158700B0178200B0197D0012
:10234000D01B7800001E730040206E0090226900B0
:10235000F024640040275F0090295A00E02B5500CC
:10236000102E500020304B0010324600E033410068
:1023700090353C001037370070383200A0392D00FE
:10238000B03A2800A03B2300603C1E00103D19001D
:10239000903D1400103E0F00703E0A00C03E050044
:1023A000003F0000403FFBFF803FF6FFC03FF1FFD2
:1023B000457272206D696E2074656D702073746F44
:1023C0006C7500457272206D696E2074656D7000C9
:1023D0004D494E54454D502074726967676572656A
:1023E0006400457272206D61782074656D70207391
:1023F000746F6C7500457272206D61782074656D24
:1024000070004D415854454D50207472696767659E
:1024100072656400024572726F7220777269746926
:102420006E6720746F20454550524F4D210A002998
:102430000A002062797465733B2063726320005345
:10244000657474696E67732053746F7265642028B5
:1024500000526573656E643A20006F6B0020636FF5
:102460006C6420657874727573696F6E2070726524
:1024700076656E7465640A00627573793A207061DE
:102480007573656420666F7220696E7075740A00DA
:10249000627573793A2070617573656420666F7236
:1024A00020757365720A00627573793A2070726FD5
:1024B00063657373696E670A004D3630300055628C
:1024C0006974792E20004B494C4C2063617573650B
:1024D00064206279204B494C4C20627574746F6E95
:1024E0002F70696E0A0055626974792E20004B497D
:1024F0004C4C2063617573656420627920746F6F42
:10250000206D75636820696E6163746976652074F7
:10251000696D65202D2063757272656E7420636F1E
:102520006D6D616E643A200025756420253032752A
:102530003A25303275004B61727461207573756E87
:1025400069657461004B6172746120776C6F7A6F9A
:102550006E610073645F7374617475733A66616C65
:1025600073650A0073645F7374617475733A74728F
:1025700075650A007A6D69616E6120736420646517
:10258000743A0A00202F200066696C616D656E74D4
:102590003A20007A5F6D61783A2000795F6D696E4C
:1025A0003A2000785F6D61783A20005265706F7252
:1025B00074696E6720656E6473746F7020737461E4
:1025C0007475730A00577A6E6F7769656E69650076
:1025D0004D32340057796472756B20777374727A58
:1025E000796D616E79004D313235005072696E74CB
:1025F00065722068616C7465642E206B696C6C2850
:10260000292063616C6C6564210A00506F776572E4
:102610004C6F73732E2E0A00008098430000000058
:102620000000024400009642000096420000C841AB
:10263000000000005761726E696E673A20486F6D46
:10264000696E672042756D702044697669736F7298
:10265000203C20310A000202080000A0400000A037
:10266000400000A0400080984300009B430000020F
:102670004401FF014D36303020486F74656E642090
:10268000746F6F20636F6C6420746F206368616E79
:1026900067652066696C616D656E740A00000021D3
:1026A00000240027002A002D003000330001010023
:1026B00000040107010A0100002200250028002B68
:1026C000002E003100340002010000050108010B5A
:1026D00001000020002300260029002C002F0032DA
:1026E00000000100000301060109010505050507B9
:1026F0000508080808020202020A0A08080404047D
:1027000004010101010101010103030303030303A8
:1027100003040707070C0C0C0C0C0C0C0C02020237
:102720000206060606060606060B0B0B0B0B0B0B2A
:102730000B010210202008081020401020408002C9
:1027400001020108040201010204081020408080F7
:10275000402010080402018004020180402010087B
:102760000402010804020101020408102040800153
:102770000204081020408000000A0B02090C0D0E14
:102780000807030401000000000000000000000032
:102790000000000000000000000000000000000039
:1027A00000000012111000000000000000000000F6
:1027B0000000000000000000000000000043616E07
:1027C0006E6F7420656E74657220737562646972D1
:1027D0003A20006265640A002C2073797374656D79
:1027E0002073746F70706564212048656174657230
:1027F0005F49443A20005A616E696B2074656D70C0
:102800002E00546865726D616C2052756E6177613F
:102810007900526F7A67727A2E206E6965756461ED
:102820006E650048656174696E67206661696C65F4
:10283000640057C35EE011241FBECFEFD1E2DEBFBC
:10284000CDBF00E00CBF16E0A0E0B2E0E4E2F2EEA3
:1028500001E00BBF02C007900D92A23BB107D9F770
:102860002FE1A2EBB6E001C01D92A333B207E1F75E
:1028700014E1CAE1D4E100E006C021970109802FEC
:10288000FE010E9457EDC931D10780E00807A9F782
:102890000E941BD30C9400F10C9400002F923F92E5
:1028A0004F925F926F927F928F929F92AF92BF9260
:1028B000CF92DF92EF92FF920F931F93CF93DF930C
:1028C000CDB7DEB7E9970FB6F894DEBF0FBECDBF28
:1028D0000091611420E4029F800111240F511E4ECB
:1028E0008091371580FF38C0E0E5F0E284917F01E8
:1028F0009FEFE91AF90A811102C0780104C00E9411
:102900001882F701F3CFD7018D917D01882319F04B
:102910000E941882F8CF8AE00E94188260916114A8
:1029200070E081E599E00E94A16F5DE8E52E53E03B
:10293000F52EF70181917F01882319F00E941882FA
:10294000F8CF8AE00E94188261EE71EB6F6081EE31
:1029500091E1807F0E94E58381E090E09093AC114B
:102960008093AB111092D1061092D0068FE3809322
:10297000D7061092D6061092D50684E0ECECF6E06D
:10298000DF011D928A95E9F7F80180810F5F1F4FE3
:102990008032D1F38E34C9F4818190ED980F9A3052
:1029A00020F08D3211F08B3281F4DF0112969D01FF
:1029B0002F5F3F4F8C9180538A3010F4D901F7CFAD
:1029C000FD01119680818032D9F3F093CC1DE09304
:1029D000CB1D7F01BFEFEB1AFB0A10816AE270E0AA
:1029E000C7010E94AEF0009731F0FC013197808161
:1029F0008032E1F311821D3411F00C94D628F701D6
:102A000080812FEFE21AF20A8032C9F380538A30B4
:102A100008F0C6C01093D70680E090E06AE03196D7
:102A2000DF0111972C91022E000C330B205331093A
:102A3000689FA001699F500D1124C901840F951F43
:102A4000208120532A3058F39093D6068093D506E0
:102A5000DF0131962C912032D9F31D34D1F48E311F
:102A6000910591F03CF48731910571F08C3191051D
:102A700081F40AC08537910564F08737910524F009
:102A8000803AE3E09E0729F4B093D106A093D006E4
:102A90007CC01092D1061092D0060091CB1DEE247E
:102AA000E394F12CFD0131962C91222309F46DC0A1
:102AB0002132A1F41D3491F48032910579F4F09320
:102AC000D106E093D00663E270E0CF010E94AEF041
:102AD000009709F4C3C4DC011C9257C021542A3169
:102AE000A0F5AF01FA0130814F5F5F4F3032D1F373
:102AF00040ED430F4A3040F043ED430F423020F0A9
:102B00003B3211F00C947228AF01622F70E0DB01B0
:102B100033E0B595A7953A95E1F7A453B94F2770DF
:102B2000670102C0CC0CDD1C2A95E2F796013C91AE
:102B3000232B2C934115510511F0401B01C040E09F
:102B4000DB01AE54B94F4C930AC02091D0063091AE
:102B5000D106232B21F4B093D106A093D006208177
:102B600021542A3110F4DF019DCFDF01AD014F5F09
:102B70005F4F2C9120532A3010F4DA01F7CFFD017A
:102B8000119620812032D9F3EECF8091D7068D3473
:102B900009F464C4843511F40C941128873421F0AD
:102BA000E0E5F0E20C9453288091D5069091D6068A
:102BB0008D31910509F409C194F48430910509F42B
:102BC000C1C024F40297F8F00C946B284C9711F0D4
:102BD0000C946B2880E00E94BF760C946B288A3599
:102BE000910509F43DC32CF48A9709F49EC30C9413
:102BF0006B288B35910509F437C38C35910509F4A1
:102C000038C30C946B288091BE02882311F40C9475
:102C10006B28BDEDCB2EB2E0DB2E18E8E12E15E1DE
:102C2000F12E0FE515E18AE9A82E81E1B82E91EE8B
:102C3000892E92E0992ED6018D916D010E947584A6
:102C40008823D9F00E94EB80F5012081211104C076
:102C50002091D406222331F0D8012D913D914D9140
:102C60005C9103C020E030E0A9010E9474EDF701FF
:102C700060837183828393830AC0F801808191818C
:102C8000A281B381F70180839183A283B383F4E0AF
:102C9000EF0EF11C0C5F1F4F2FEFA21AB20A8C141B
:102CA0009D0449F686E40E94A4848823C9F00E940A
:102CB000EB8020E030E0A9010E94F7EE181684F4C2
:102CC0000E94EB8020E030E040E752E40E94F7ED04
:102CD000609313027093140280931502909316026E
:102CE0008091371583FD2AC020916B1530916C15AA
:102CF00040916D1550916E156091941570919515D8
:102D000080919615909197150E9473ED9B01AC01EF
:102D100080915A0D882391F060914C0D70914D0D6A
:102D200080914E0D90914F0D0E9474ED60934C0D6B
:102D300070934D0D80934E0D90934F0D0E9418A6E9
:102D40000C946B2880E50E94A484882329F00E94BB
:102D5000DB806B017C0103C0C12CD12C760183E5A3
:102D60000E94A484882361F00E94EB8020E030E080
:102D70004AE754E40E9476E60E9470EE6B017C0103
:102D80000E944EC30E9431818091CD1D9091CE1D35
:102D9000A091CF1DB091D01DC80ED91EEA1EFB1EFA
:102DA00060E08DE294E00E94D9A80E943DBCDC0165
:102DB000CB018C199D09AE09BF09B7FD02C00C9467
:102DC0006B2880E00E94FFA1F0CF83E50E94A484DD
:102DD000882321F00E94FC31182F01C010E016302A
:102DE00070F0E9EDF4E084918F010F5F1F4F8823AD
:102DF00011F40C946B280E941882F801F4CF123061
:102E000009F445C0B0F41123F9F0113009F024C2DF
:102E10000E94C9AF109201021092000286EA94E06B
:102E20009093FF1C8093FE1C0E94462E10933D152C
:102E300013C2143009F401C208F49AC1153009F024
:102E40000BC20E94257808C28091FE1480FD03C049
:102E5000E9EBF4E011C081FF03C06FE773E002C04B
:102E600064E873E081EB94E00E94BA6F8AE00E940C
:102E700018820E949BDFF0C184918F010F5F1F4F6A
:102E8000882309F4E9C10E941882F801F5CF409126
:102E900000025091010257FF0DC00DE714E0F80148
:102EA0008491882311F40C946B280F5F1F4F0E94AC
:102EB0001882F5CF4115510529F48091BD02809308
:102EC000D3062FC08FEF840F63E00E9402ED80FFD6
:102ED00002C0191B912F292F990F330BF901EE0F07
:102EE000FF1FE20FF31FE80FF11D87FDFA95EE0FAC
:102EF000FF1FEE0FFF1FE652FB4E8091671590916A
:102F00006815A0916915B0916A1580839183A28399
:102F1000B3838091D3068093BD02493051050CF0F4
:102F2000C0C0842F63E00E9402ED8C0100FF03C04B
:102F300082E0811B182F8090130290901402A090C1
:102F40001502B09016026CE2E62E66E2F62EF7014C
:102F500085919591A591B491809313029093140259
:102F6000A0931502B093160220E030E0A901609111
:102F7000D3157091D4158091D5159091D6150E94D6
:102F800074ED20E030E040EA50E40E9474ED60937C
:102F90006715709368158093691590936A150E9460
:102FA000B2DE85E595E5A5E0B3E480931302909346
:102FB0001402A0931502B0931602F4E01F02D00190
:102FC0001124A85FB24F2091CB153091CC154091C0
:102FD000CD155091CE156D917D918D919C910E9452
:102FE00074ED60935F1570936015809361159093F5
:102FF000621524E00202F0011124E450F34F209105
:10300000CF153091D0154091D1155091D2156081D6
:103010007181828193810E9474ED60936315709336
:10302000641580936515909366150E94B2DEF701D2
:1030300085919591A591B491809313029093140278
:10304000A0931502B093160220E030E0A901609130
:10305000D3157091D4158091D5159091D6150E94F5
:1030600074ED60936715709368158093691590935C
:103070006A150E94B2DE8092130290921402A0920E
:103080001502B09216020E944EC31092BD028091AA
:103090000002909101020196909301028093000238
:1030A000DBC020E030E0A9016091D3157091D41508
:1030B0008091D5159091D6150E9474ED20E030E0F6
:1030C00040EA50E40E9474ED6093671570936815B0
:1030D0008093691590936A150E94B2DE0E944EC3D8
:1030E0008FEF9FEF9093010280930002E9E6F4E0F6
:1030F00084918F010F5F1F4F882321F00E94188257
:10310000F801F6CF83E992E09A83898304E610E020
:1031100019A308A3BE016F5F7F4FCE0180960E9466
:10312000B27B8AEB92E09A83898319A308A3BE013C
:103130006F5F7F4FCE0180960E94B27B8091FE141C
:1031400081608093FE148FEE9CE00E94B5AC81E01C
:103150000E94BF7681E00E941A2D86E394E090934E
:10316000FF1C8093FE1C0E94462E10923D1574C0D9
:1031700088E50E94A4848823A1F00E9465841FEF43
:10318000160F1330A8F0E2E5F4E084918F010F5F91
:103190001F4F882311F40C946B280E941882F801A9
:1031A000F4CF88E50E9418820E944EE00C946B28B0
:1031B00089E50E94A4848823A1F00E9465840FEF12
:1031C000060F0330A8F0EBE3F4E084918F010F5F6A
:1031D0001F4F882311F40C946B280E941882F80169
:1031E000F4CF89E50E9418820E944EE00C946B286F
:1031F0008AE50E94A4848823C9F00E94EB80212FD5
:10320000110F330BF901EE0FFF1FE20FF31FE00F59
:10321000F11D07FDFA95EE0FFF1FEE0FFF1FE6529F
:10322000FB4E608371838283938316C08AE50E947C
:1032300018820E944EE00C946B288AE50E94A484B8
:103240008823A1F30E94EB806093D6147093D71467
:103250008093D8149093D9140E94D2430C946B2875
:103260001092D4060C946B2881E08093D4060C94C1
:103270006B2885E40E94A484B82E811102C00E94AC
:103280004EC38DED882E82E0982E9FE5C92E95E1E4
:10329000D92E2CE8E22E2EE1F22E00E010E0A12C37
:1032A000D4018D914D010E94A484882339F1F60147
:1032B00040805180628073800E94EB80D6016D93C4
:1032C0007D938D939C9313970330C1F0A3019201DA
:1032D0000E9473ED9B01AC01F701608171818281D5
:1032E00093810E9474EDD7016D937D938D939C9390
:1032F0001397C8010E94962DAA24A3940F5F1F4F15
:10330000B4E0CB0ED11CE4E0EE0EF11C043011054C
:1033100039F6AA2019F00E94A13103C0B1100E9411
:1033200037620E94D2430C946B288091BE0288239E
:1033300011F40C946B2889E40E94A484E82E88235D
:1033400021F00E946584062F01C000E08AE40E94FB
:10335000A484F82E882321F00E946584162F01C0D2
:1033600010E0EE2011F0033020F4FF2081F0133044
:1033700070F0E0EFF4E084918F010F5F1F4F88231E
:1033800011F40C946B280E941882F801F4CF0E946B
:10339000E831EE20E1F024E00202F0011124E85FC0
:1033A000F24F2091CB153091CC154091CD15509115
:1033B000CE1560817181828193810E9474ED60934A
:1033C00088157093891580938A1590938B15FF202B
:1033D000E1F084E01802F0011124E450F34F209151
:1033E000CF153091D0154091D1155091D2156081F3
:1033F0007181828193810E9474ED60938C1570932A
:103400008D1580938E1590938F1580E50E9475849D
:1034100081110E94523286E40E94A484882309F418
:103420008DCC0E94EB806B017C0120E030E0A90193
:103430000E94F7EE18160CF081CC20E030E040E757
:1034400052E4C701B6010E94F7ED60931302709336
:103450001402809315029093160270CC8091D506C9
:103460009091D6068337910509F4FEC10CF0C6C0D1
:103470008D34910509F42EC40CF058C089319105A2
:1034800009F40CC32CF58431910509F4F0C18CF4D6
:103490008131910509F472C23CF4029710F00C944A
:1034A0006B28EEE1F5E0E6C1429709F421C60C94E1
:1034B0006B288631910509F4C2C20CF4BCC2873175
:1034C000910509F4C2C2489709F4C9C20C946B284B
:1034D0008F31910509F48FC394F48B31910509F470
:1034E000F9C20CF4E9C28C31910509F430C34E974E
:1034F00011F00C946B280E9434780C946B288A325B
:10350000910509F4A4C32CF4809709F42AC30C9400
:103510006B288B34910509F4D9C38C34910511F0D3
:103520000C946B280E9475620C946B288936910567
:1035300009F4DEC4B4F58435910509F4D9C5E4F481
:103540008135910509F4BEC54CF48E34910511F016
:103550000C946B280E94CD740C946B2882359105D5
:1035600009F4C2C58335910511F00C946B2881E0F4
:1035700080939D110C946B288C35910509F40AC633
:1035800034F48535910509F4EAC50C946B2884362A
:10359000910509F4A3C38836910509F4A3C30C94DB
:1035A0006B288E36910509F4CDC39CF48B369105BA
:1035B00009F403C50CF4E2C48C36910509F443C444
:1035C0008D36910511F00C946B280E9435730C9484
:1035D0006B288037910509F43AC40CF4C6C38137CF
:1035E000910509F43CC48237910511F00C946B28C5
:1035F0000E944EC30E94D2430C946B288C32A1E0EF
:103600009A0711F40C947E240CF087C0883C910535
:1036100009F416C70CF040C08937910509F40BC7AF
:103620001CF58637910509F4CCC674F485379105ED
:1036300011F00C946B2860E08091D0069091D10637
:103640000E9406A90C946B288737910509F4F0C6EF
:103650008837910511F00C946B2881E08093080263
:103660008093C8140C946B288C38910509F424C4F9
:1036700034F48D37910509F4B2C40C946B288B395E
:10368000910509F452C48E3B910511F00C946B28FE
:103690000E9491440C946B288E3C910511F40C947B
:1036A0007A2304F58B3C910509F434C784F4893CF2
:1036B000910511F00C946B28EDEDEE2EE2E0FE2E5C
:1036C0000AEB15E1FAECCF2EF5E1DF2E0BC78C3CAF
:1036D000910509F43AC78D3C910511F40C940F2320
:1036E0000C946B288C3D910511F40C942F244CF410
:1036F000833D910511F00C946B28E0E5F0E20C9409
:1037000098238D3D910511F40C943C24823E910543
:1037100011F40C9455240C946B288C3AE1E09E072C
:1037200011F40C947E26D4F5833621E0920709F437
:1037300097C0B4F48E32B1E09B0711F40C94C2250B
:1037400014F40C94A7248F32F1E09F0711F40C9429
:1037500016268033914011F40C9445250C946B2867
:103760008A39A1E09A0709F476C34CF48039914074
:1037700011F00C946B280E944EC30C946B28843A71
:10378000F1E09F0711F40C941926853A914011F04D
:103790000C946B280E94103E0C946B288C31A2E094
:1037A0009A0711F40C94DB27CCF5853FE1E09E07E6
:1037B00011F40C9460272CF5843F914011F00C9487
:1037C0006B280E9469978CEF98E09A83898306E4BE
:1037D00010E019A308A3BE016F5F7F4FCE01809652
:1037E0000E94B27B84E59BE09A83898319A308A396
:1037F000BE016F5F7F4FCE0180960E94B27B0C941A
:103800006B28863FA1E09A0711F40C947F27873F2D
:10381000914011F40C949E270C946B288C32E3E0B9
:103820009E07D1F06CF4883522E0920711F40C94D5
:10383000E6278B32934011F00C946B280E94F8B667
:10384000803AB3E09B0709F4C9C1873E934011F465
:103850000C94FF270C946B28E8E1F9E00C94AC275A
:10386000EAE1F0E20C94EC27E7EAF6E01FC5E0E5B8
:10387000F0E299C084918F010F5F1F4F882321F0E0
:103880000E941882F801F6CFA090D006B090D10621
:1038900080E50E94A484882359F00E94DB806B019C
:1038A0007C0111E0672B682B692B31F410E004C018
:1038B00010E0C12CD12C760183E50E94A4848823DA
:1038C000F1F00E94EB8020E030E04AE754E40E94EF
:1038D00076E60E9470EE6B017C01111112C0672B1D
:1038E000682B692B71F4A114B10459F0D5018C91A6
:1038F000882339F061E0C5010E9406A907C01123A1
:1039000091F360E08FE095E00E94D9A883E090E019
:103910009093AC118093AB1181E08093AA110E9427
:103920004EC30E943181C114D104E104F10411F1AC
:103930008091CD1D9091CE1DA091CF1DB091D01D35
:10394000C80ED91EEA1EFB1E0E943DBCDC01CB0145
:103950008C199D09AE09BF09B7FD02C00C948328DC
:103960008091AA11882311F40C94832880E00E948E
:10397000FFA1EACF1092AA110C946B2860E081E2BB
:1039800095E00E94D9A85F988A989FB7F894809193
:1039900008018E7F809308019FBF12980C946B28BA
:1039A0000E941882F80184918F010F5F1F4F8111CF
:1039B000F7CFEBE3F5E084918F010F5F1F4F882372
:1039C00021F00E941882F801F6CF1092E40F1092B5
:1039D000E30F8EE89DE00E94088A8BE1EEE8FDE0AF
:1039E000DE01159601900D928A95E1F780918C0D7C
:1039F00090918D0D9C838B838BEE92E09A838983CB
:103A000040E050E0BE016F5F7F4F8EE396E00E9482
:103A1000F77ECE0101960E94F0B6ECE2F5E08491CB
:103A20008F010F5F1F4F882311F40C946B280E94A5
:103A30001882F801F4CF0E941B7D0C946B28109221
:103A40005D0D10925E0D0C946B2840E061E080915A
:103A5000D0069091D1060E94D8650C946B281982EB
:103A60001A821B821C8218A219A21AA21BA2809180
:103A70009711882341F040E0BE016F5F7F4FCE0178
:103A800080960E94CCB480915E0D882319F081E06D
:103A900080935D0D0E948F620C946B2810925D0DD7
:103AA0000E9475628CE495E09093FF1C8093FE1C4D
:103AB0000E94462E0C946B2880915E0D882311F491
:103AC0000C946B2883E50E94A48481110C948628B1
:103AD0000C946B2880915E0D811103C0E3E6F5E044
:103AE0002AC0E1E5F5E084918F010F5F1F4F882325
:103AF00021F00E941882F801F6CF6091DA0F7091E0
:103B0000DB0F8091DC0F9091DD0F4AE00E946E8206
:103B10008FE20E9418826091D60F7091D70F80912A
:103B2000D80F9091D90F4AE00E946E828AE00E94DD
:103B300018820C946B2884918F010F5F1F4F88238C
:103B400011F40C946B280E941882F801F4CF40E025
:103B500060E08091D0069091D1060E94D8650C94C7
:103B60006B2880915D0D81110E944EC3E090D006BC
:103B7000F090D10680E50E947584182F882319F0F3
:103B80000E945232182F80915E0D882311F40C94FC
:103B90006B28412F61E0C7010E94D86583E50E9430
:103BA000A484882381F00E946584AB01BC0140930A
:103BB000DA0F5093DB0F6093DC0F7093DD0F89E217
:103BC0009FE00E94C08780915E0D882319F081E0FC
:103BD00080935D0D11110C946B285CCF8091D00601
:103BE0009091D10621E020935C0D40E060E00E94BE
:103BF000D8650C946B2882E39DE00E9417C268A3ED
:103C000079A38AA39BA3BE016F5F7F4FCE018096ED
:103C10000E943C8160E0CE0101960E9406A9E0E589
:103C2000F0E284918F010F5F1F4F882321F00E94E3
:103C30001882F801F6CFBE016F5F7F4F84E795E0F1
:103C40000E94BA6F8AE00E9418820C946B2883E568
:103C50000E94A484882311F40C946B280E94FC31E8
:103C6000E82E80E50E94A484882339F00E946584B0
:103C70008B0177FF04C00C946B280DE010E0802FBF
:103C8000E0E3F8E09491891303C0EAE1F0E20AC0AE
:103C90003196B8E0E835FB07A9F70C9497280E9405
:103CA0001882F80184918F010F5F1F4F8111F7CFA8
:103CB000E1E8F5E084918F010F5F1F4F882311F435
:103CC0000C946B280E941882F801F4CF0E948F6236
:103CD0000C946B280E94D57A0C946B280E94B184B6
:103CE0000C946B2888E690E00E94103281110C94AD
:103CF0006B288091371583FF02C00C946B2883E5F5
:103D00000E94A4848823D1F00E94EB800E9469EE77
:103D1000CB010E9416960E94EB8020E030E04AEA38
:103D200052E40E9410E618163CF00E94D57A60E03A
:103D300080E995E00E94D9A80E94EB800E94BA70A9
:103D40000C946B288EE40E94A484882311F40C94B4
:103D50006B280E9465846093C21D7093C31D80937D
:103D6000C41D9093C51D0C946B2883E50E94A48408
:103D7000882319F00E94FC3101C080E08093371540
:103D8000E0E5F0E284918F010F5F1F4F811103C0C6
:103D9000E3EBF5E004C00E941882F801F3CF8491B0
:103DA0008F010F5F1F4F882321F00E941882F801B6
:103DB000F6CF80913715811103C0EFEAF5E034C0EA
:103DC00005EAC02E05E0D02EE12CF12C20E08091F8
:103DD000371590E00E2C02C0959587950A94E2F76E
:103DE00080FF17C0BB24B394B20E222319F08CE2DB
:103DF0000E941882F60185919491FC0184918F01B3
:103E00000F5F1F4F882321F00E941882F801F6CF20
:103E10002B2DEFEFEE1AFE0AF2E0CF0ED11C85E05B
:103E2000E816F104A1F60AC084918F010F5F1F4FBD
:103E3000882321F00E941882F801F6CF8AE00E94C0
:103E400018820C946B28109217020C946B288AEB42
:103E500095E00E9430B90E940D3F0C946B2883E5D9
:103E60000E94A484811103C0E0E5F0E20DC00E942D
:103E7000FC3180933D028D3310F40C946B288CE35D
:103E800080933D020C946B2884918F010F5F1F4F2C
:103E9000882321F00E941882F801F6CF40913D025C
:103EA00050E060E070E082EC95E00E94676F8AE08D
:103EB0000E9418820C946B288091371583FF02C0F2
:103EC0000C946B2883E50E94A484882311F40C943D
:103ED0006B280E94EB800E9469EE6739710514F02F
:103EE00066E970E070939F1160939E110C946B28AB
:103EF00089E690E00E941032811111C0E9ECF5E0F2
:103F000084918F010F5F1F4F882321F00E94188238
:103F1000F801F6CF0E94B0728AE00E9418821092D7
:103F2000AC111092AB110C94082983E50E94A48473
:103F3000882311F40C946B280E94FC318093CA1DD5
:103F40008D3318F08CE38093CA1D0E943DBC6B0139
:103F50007C012091CA1D30E0A8EEB3E00E94F3EC92
:103F6000C60ED71EE81EF91EC092C61DD092C71DF0
:103F7000E092C81DF092C91D0C946B2883E50E9445
:103F8000A484882339F00E9465848B016F3F7105FA
:103F900019F010F00FEF10E080E50E94A484811169
:103FA00006C010939911009398110C946B280E94ED
:103FB000FC3181110C946B28F4CF80E50E94A4841D
:103FC000811106C010929911109298110C946B28CF
:103FD0000E946584672B11F00C946B28F3CF8CE45E
:103FE0000E947584882319F00E94EB8004C060E071
:103FF00070E080EA90EC68AB79AB8AAB9BAB8AE56A
:104000000E94A484882319F00E94EB8003C060E022
:1040100070E0CB0120E030E040E751E40E9474ED15
:104020006CA77DA78EA79FA788E50E94A4848823FC
:1040300019F00E94EB8003C060E070E0CB0120E04B
:1040400030E042E553E40E9474ED68A779A78AA79F
:104050009BA789E50E94A484882319F00E94EB8025
:1040600003C060E070E0CB0120E030E04CED52E4B2
:104070000E9474ED6CA37DA38EA39FA319821A8264
:104080001B821C8218A219A21AA21BA2809197114E
:1040900081110C946B28A12CC12CDE0111967D019D
:1040A0008E01005E1F4F9E012C5D3F4FAE01485DAB
:1040B0005F4FBE01645D7F4FCE01C0960E9413B377
:1040C0000C946B280E941D960E944EC30E94C2A5AC
:1040D000109299111092981168EE73E080E090E0D0
:1040E0000E9467930C946B2810929D110C946B287E
:1040F00083E50E94A4848823A1F00E94EB8020E045
:1041000030E04AE754E40E9476E60E9470EE609345
:104110003E0270933F0280934002909341020C94C0
:104120006B2888E50E94758481110C94AC2889E580
:104130000E94758481110C94AC288AE50E947584D4
:1041400081110C94AC2885E40E94758481110C9433
:10415000AC280E944EC30E94C2A50C946B2883E534
:104160000E947584882311F40C946B280E94EB80C4
:1041700020E030E04AE754E40E9476E60E9470EEC8
:104180006093D11D7093D21D8093D31D9093D41D45
:104190000C946B28BDEDCB2EB2E0DB2E1FE6E12E9A
:1041A00015E1F12E10E0F60181916F010E947584F6
:1041B000882309F46EC0133009F063C00E94EB80BD
:1041C0004B015C0120E030E040EA51E40E9410E63F
:1041D00087FF4EC0A501940160917B1570917C15FD
:1041E00080917D1590917E150E94F7ED2B013C0189
:1041F0009B01AC0160910B1570910C1580910D1510
:1042000090910E150E9476E660930B1570930C1535
:1042100080930D1590930E15A301920160912715BF
:10422000709128158091291590912A150E9476E6A3
:1042300060932715709328158093291590932A155C
:104240006091B6157091B7158091B8159091B91518
:104250000E9415E6A30192010E9476E60E9470EE8C
:104260006093B6157093B7158093B8159093B915F0
:1042700080927B1590927C15A0927D15B0927E1550
:1042800008C00E94EB80D7016D937D938D939C9322
:1042900013971F5FB4E0EB0EF11C143009F083CFCD
:1042A0000E94127218C70E941882F80184918F012F
:1042B0000F5F1F4F8111F7CFE9E9F6E003C00E94BD
:1042C0001882F80184918F010F5F1F4F8111F7CF82
:1042D000E2E8F6E003C00E941882F80184918F01A1
:1042E0000F5F1F4F8111F7CFE2E7F6E003C00E9496
:1042F0001882F80184918F010F5F1F4F8111F7CF52
:10430000E1E6F6E003C00E941882F80184918F0173
:104310000F5F1F4F8111F7CFE0E5F6E003C00E9469
:104320001882F80184918F010F5F1F4F8111F7CF21
:10433000E1E4F6E003C00E941882F80184918F0145
:104340000F5F1F4F8111F7CFECE2F6E003C00E9430
:104350001882F80184918F010F5F1F4F8111F7CFF1
:10436000E6E1F6E003C00E941882F80184918F0113
:104370000F5F1F4F8111F7CFE1E0F6E003C00E940D
:104380001882F80184918F010F5F1F4F8111F7CFC1
:10439000E4EEF5E003C00E941882F80184918F01D9
:1043A0000F5F1F4F8111F7CFECECF5E084918F0187
:1043B0000F5F1F4F882309F48EC60E941882F801F0
:1043C000F5CF85E40E947584882381F00E945232E3
:1043D000882361F0E0E5F0E284918F010F5F1F4FC9
:1043E000882321F00E941882F801F6CF81E40E9410
:1043F0007584882381F00E945232882361F0E0E7BF
:10440000F7E084918F010F5F1F4F882321F00E94F6
:104410001882F801F6CF0091D0061091D106F8016C
:1044200081918F01882309F409CD0E941882F7CF6A
:104430000E9403B150C6109208021092C8144BC6D5
:1044400088EC90E00E941032811145C684E40E94FD
:104450007584882309F443C00E94EB806B017C01C2
:1044600011E020E030E0A9010E9410E6811101C0B6
:1044700010E01093C91420E030E0A901C701B60193
:104480000E9410E6882359F10091D20610E00E94A4
:10449000EB80000F111F000F111FF801E75FFD4FA8
:1044A000608371838283938320E030E0A90160916F
:1044B000090270910A0280910B0290910C020E94F5
:1044C00010E681110CC080E090E0A0EEBFE3809385
:1044D000090290930A02A0930B02B0930C020E946F
:1044E000D3A5F9C5D7018D917D010E9475848823DC
:1044F00049F00E94EB800E9470EEF80160837183A6
:10450000828393830C5F1F4FC016D10659F70E9418
:10451000EA70E1C57DEDE72E72E0F72E0BE115E1C3
:10452000D7018D917D010E947584882339F00E9406
:10453000EB80F80160837183828393830C5F1F4F4C
:10454000F5E10B321F0761F7C6C583E50E9475844C
:104550008823D9F00E94EB80AB01BC014093131576
:1045600050931415609315157093161540930F15FD
:104570005093101560931115709312158EEC97E0FF
:104580000E94846F8AE00E94188280E50E947584F0
:10459000882399F00E94EB80AB01BC014093131576
:1045A00050931415609315157093161581EB97E0D1
:1045B0000E94846F8AE00E94188282E50E947584BE
:1045C000882399F00E94EB80AB01BC014093171542
:1045D000509318156093191570931A1582E997E096
:1045E0000E94846F8AE00E94188284E50E9475848C
:1045F000882309F470C50E94EB80AB01BC01409395
:104600000F1550931015609311157093121584E7D0
:1046100097E00E94846F8AE00E9418825CC583E55F
:104620000E947584882351F00E94EB8060933315BB
:1046300070933415809335159093361584E50E9458
:104640007584882351F00E94EB8060932F1570933E
:104650003015809331159093321582E40E94758451
:10466000882351F00E94DB8060932B1570932C15EA
:1046700080932D1590932E1588E50E9475848823CC
:1046800051F00E94EB806093FF14709300158093AB
:1046900001159093021589E50E947584882351F0D5
:1046A0000E94EB80609303157093041580930515A9
:1046B000909306158AE50E947584882351F00E9424
:1046C000EB806093071570930815809309159093FC
:1046D0000A1585E40E947584882309F4FCC40E94AD
:1046E000EB8060930B1570930C1580930D159093D0
:1046F0000E15F1C46DEDE62E62E0F62E00E010E03E
:10470000D7018D917D010E947584882339F00E9424
:10471000EB80AB01BC01C8010E94EC2D0F5F1F4F65
:104720000330110569F70E94A1310E94D243D3C41E
:1047300084918F010F5F1F4F882321F00E94188200
:10474000F801F6CF83E50E947584882321F00E944A
:1047500052328093BD02E0E2F8E084918F010F5F56
:104760001F4F882321F00E941882F801F6CF809114
:10477000BD02882319F0E6E1F8E002C0EBE1F8E0C1
:1047800084918F010F5F1F4F811103C0EEE0F8E0AD
:1047900004C00E941882F801F3CF84918F010F5F4B
:1047A0001F4F882321F00E941882F801F6CF409114
:1047B00098155091991560919A1570919B158CE000
:1047C00098E00E94846F40919C1550919D156091D6
:1047D0009E1570919F1589E098E00E94846F40912A
:1047E000A0155091A1156091A2157091A31586E0B6
:1047F00098E00E94846FEEEFF7E084918F010F5FE5
:104800001F4F882321F00E941882F801F6CF4091B3
:1048100018025091190260911A0270911B028CEFDC
:1048200097E00E94846F40911C0250911D0260919C
:104830001E0270911F0289EF97E00E94846F4091E1
:10484000200250912102609122027091230286EF92
:1048500097E00E94846F8AE00E9418823CC483E53E
:104860000E94A484882309F436C40E94658470934E
:104870009B0260939A022FC48DED90E00E9410324B
:10488000811129C483E50E94A484882309F423C4E8
:104890000091D20610E00E946584000F111FF801FC
:1048A000E35FFD4F7183608316C480E50E947584C9
:1048B000882309F410C40E946584F62EC62ED72ED4
:1048C00083E50E94A484882321F00E9465848B01E3
:1048D00002C00FEF1FEFC8010196039708F0FBC35A
:1048E000D7FCF9C3E0E3F8E08491F81609F4F3C3C8
:1048F0003196B8E0E835FB07B9F762C483E50E945A
:10490000A484882319F00E94658402C064E071E0E9
:1049100079A368A380E50E94A484882339F00E94CB
:1049200065846938E3E17E0730F402C068EE73E025
:104930007A83698304C088E893E19A838983BE01FE
:10494000605E7F4FCE0101960E94B27BC4C385E4B6
:104950000E94A484811110C080E50E947584882380
:1049600091F00E94EB806093CF027093D00280930D
:10497000D1029093D20207C00E94FC31882361F3D8
:10498000EAE1F0E271C089E40E947584882381F035
:104990000E94EB802CEA35EC47E25EE30E9476E66B
:1049A0006093CB027093CC028093CD029093CE02A1
:1049B00084E40E947584882381F00E94EB802CEAB5
:1049C00035EC47E25EE30E94F7ED6093D30270930B
:1049D000D4028093D5029093D602E0E5F0E2849170
:1049E0008F010F5F1F4F882321F00E941882F8016A
:1049F000F6CF4091CF025091D0026091D1027091D8
:104A0000D20280E698E00E94846F2CEA35EC47E2FF
:104A10005EE36091CB027091CC028091CD029091C7
:104A2000CE020E94F7EDAB01BC018CE598E00E943C
:104A3000846F2CEA35EC47E25EE36091D30270911B
:104A4000D4028091D5029091D6020E9476E6AB0105
:104A5000BC0188E598E00E94846F8AE00E94188279
:104A60003AC30E941882F80184918F010F5F1F4F93
:104A70008111F7CF0FE913E0D8018D918D018823C3
:104A800009F4DCC90E941882F7CF80E50E94758482
:104A9000882351F00E94EB806093C7027093C80294
:104AA0008093C9029093CA0289E40E947584882386
:104AB00081F00E94EB802CEA35EC47E25EE30E9435
:104AC00076E66093C3027093C4028093C50290930C
:104AD000C60284E40E947584882381F00E94EB80E2
:104AE0002CEA35EC47E25EE30E94F7ED6093BF02EB
:104AF0007093C0028093C1029093C202E0E5F0E29D
:104B000084918F010F5F1F4F882321F00E9418822C
:104B1000F801F6CF4091C7025091C8026091C902D6
:104B20007091CA028CE698E00E94846F2CEA35EC02
:104B300047E25EE36091C3027091C4028091C502B6
:104B40009091C6020E94F7EDAB01BC0188E698E0A7
:104B50000E94846F2CEA35EC47E25EE36091BF026D
:104B60007091C0028091C1029091C2020E9476E6CB
:104B7000AB01BC0184E698E00E94846F8AE00E9449
:104B80001882A9C283E50E947584182F882371F0CA
:104B90000E94EB800E9469EE7093310260933002B4
:104BA00021E0672B09F020E02093CA1580E50E94E0
:104BB0007584882359F02091300230913102232BE3
:104BC00011F00E9452328093CA1585C2111183C21E
:104BD000E0E5F0E284918F010F5F1F4F882321F001
:104BE0000E941882F801F6CF8091CA15882319F027
:104BF00060ED75E002C069E873E085E898E00E9426
:104C0000BA6F609130027091310284E798E00E949F
:104C1000A16FE0E7F8E084918F010F5F1F4F8823B9
:104C200009F459C20E941882F801F5CF0E94613F31
:104C300052C286E50E947584882391F08091FE140B
:104C400080FF0EC0E5ECF8E084918F010F5F1F4FED
:104C5000882321F00E941882F801F6CF0E949BDF82
:104C600083E50E947584182F882319F00E94523220
:104C7000182F83E50E947584882319F0812F0E94E4
:104C80001A2D8091FE148270F82E111103C0E0E5F8
:104C9000F0E21BC08111FBCFEAE1F0E284918F01C9
:104CA0000F5F1F4F811103C0E6EAF8E004C00E94C5
:104CB0001882F801F3CF84918F010F5F1F4F882373
:104CC00031F30E941882F801F6CF84918F010F5FB3
:104CD0001F4F882321F00E941882F801F6CFFF2091
:104CE00019F06FE773E002C064E873E088E998E0C8
:104CF0000E94BA6F8AE00E941882EDC1EFE3F5E1ED
:104D0000FDABECAB8BEC882E85E1982E9FE5A92EB0
:104D100095E1B92E28E9C22E25E1D22E38E1232EC5
:104D200032E0332E48E1E42E46E2F42E00E010E0BB
:104D3000ACA9BDA98D91BDABACAB882309F485C0EE
:104D4000F5014080518062807380D1012D913D91A9
:104D50004D915C91F60160817181828193810E9405
:104D600074ED20E030E040E05FE30E9476E69B01D6
:104D7000AC01C301B2010E94F7EE181654F4F7011A
:104D800085919591A591B4918EAB9FABA8AFB9AF2A
:104D900004C01EAA1FAA18AE19AED4012D913D91D0
:104DA0004D915C91C301B2010E9473ED9B01AC0176
:104DB0006EA97FA988AD99AD0E9473ED2B013C01CE
:104DC00020E030E040EA51EC0E94F7EE87FD0AC097
:104DD00020E030E040EA51E4C301B2010E9410E655
:104DE00018161CF4EAE1F0E209C0B301A201C801FF
:104DF0000E94EC2D2AC00E941882F80184918F0134
:104E00000F5F1F4F8111F7CFEAEFF8E084918F0118
:104E10000F5F1F4F882321F00E941882F801F6CF00
:104E200061E08CEE98E00E94D9A888E290E09A8335
:104E3000898388EC90E099A388A3BE016F5F7F4FC0
:104E4000CE0180960E94B27B46C10F5F1F4FB4E037
:104E50008B0E911CE4E0AE0EB11CF4E0CF0ED11C21
:104E600024E0220E311C84E0E80EF11C0330110511
:104E700009F05ECF0E94A1310E94D24360E08BED29
:104E800098E00E94D9A883E992E099A388A304E658
:104E900010E01A830983BE01605E7F4FCE01019648
:104EA0000E94B27B8AEB92E099A388A31A830983BC
:104EB000BE01605E7F4FCE0101960E94B27B0BC1A6
:104EC0000E9467378CEF98E09A83898306E410E0AC
:104ED00019A308A3BE016F5F7F4FCE0180960E9489
:104EE000B27B84E59BE09A83898319A308A3BE0162
:104EF0006F5F7F4FCE0180960E94B27BECC00E9414
:104F0000623284E59BE09A83898306E410E019A36A
:104F100008A3BE016F5F7F4FCE0180960E94B27BD7
:104F20008CEF98E09A83898319A308A3BE016F5F71
:104F30007F4FCE0180960E94B27BCDC083E50E9458
:104F40007584882319F00E94523201C081E091E0FB
:104F500089270E948633BFC084918F010F5F1F4F46
:104F6000882321F00E941882F801F6CF83E090E0B8
:104F70009093AC118093AB111092AA119093A91148
:104F80008093A8110E9441DF8091A8119091A911EE
:104F90008330910521F481E00E94FFA1F5CF21E04B
:104FA00030E03093AC112093AB11892B09F093C002
:104FB0000E9409DF90C083E50E947584882309F46C
:104FC0008AC00E9452328093C31185C00E94793CEE
:104FD00082C00E941882F80184918F010F5F1F4FD9
:104FE0008111F7CFEDE1F9E084918F010F5F1F4F41
:104FF000882309F470C00E941882F801F5CF81E07F
:105000008093BE021092151E83E50E947584811163
:1050100003C00E94E3A65FC00E94523281115BC0B0
:10502000F8CFF090D506FF2029F1E0E5F0E2849179
:105030008F010F5F1F4F882321F00E941882F80113
:10504000F6CF84E50E9418826F2D70E080E090E03A
:105050004AE00E946E8280E20E9418820FE913E00B
:10506000D8018D918D01882311F40C941E1F0E948C
:105070001882F6CF10923E15E0E5F0E284918F01A0
:105080000F5F1F4F882321F00E941882F801F6CF8E
:1050900060913E1570E08CE299E00E94A16F8AE079
:1050A0000E94188218C084918F010F5F1F4F8823C0
:1050B00021F00E941882F801F6CF6091CB1D70910B
:1050C000CC1D8EE399E00E94BA6F82E20E941882A2
:1050D0008AE00E9418821092AC111092AB110E94CB
:1050E000C4A696C04091D0065091D106452B39F404
:1050F000AF01415051095093D1064093D00640E092
:1051000050E00C9485151092AA11E5CF0E94658499
:10511000AB01BC014093DA0F5093DB0F6093DC0FBF
:105120007093DD0F89E29FE00E94C087D4CF61E0D9
:10513000802F0E94FEBA6E2D802F0E94CFBAF12CD4
:10514000B701802F0E943ABB0930110521F6F09279
:105150009911E0929811BFCF0E944EC388E50E943A
:105160007584882319F05F9A1092851589E50E944D
:105170007584882319F08A9A109286158AE50E9410
:105180007584882351F09FB7F8948091080181605D
:10519000809308019FBF1092871585E40E94758453
:1051A000882309F498CF0E94FDA195CF143511F4FE
:1051B0000C94FF14173411F00C94D0150C94FF14B8
:1051C0000E944EC360E08F2D0E94FEBA0F3FBFEFDA
:1051D0001B0759F48F2D0E94A6BA31E020E0892BDD
:1051E00009F030E0032F122F05C00130110569F4DA
:1051F00001E010E08F2D0E94A6BA8017910709F4F4
:105200006ACF80E00E94FFA1F5CF00E010E0F2CF6E
:10521000E9960FB6F894DEBF0FBECDBFDF91CF91F8
:105220001F910F91FF90EF90DF90CF90BF90AF90C4
:105230009F908F907F906F905F904F903F902F90B6
:1052400008959091831EE92FF0E0E754FE4E80838D
:105250009F5F9A3018F49093831E02C01092831EB1
:10526000809162148F5F809362140895FF920F9370
:105270001F93CF93DF93F82E092F162FEAE1F0E268
:105280008491EF012196882321F00E941882FE016B
:10529000F7CFEF2DF02F8491EF012196882321F095
:1052A0000E941882FE01F7CF6091C21D7091C31D4C
:1052B0008091C41D9091C51D0E94DB828AE00E94EE
:1052C000188211110E94E3A61092C3141092C21406
:1052D000DF91CF911F910F91FF9008952F923F92F0
:1052E0004F925F926F927F928F929F92AF92BF92F6
:1052F000CF92DF92EF92FF920F931F93CF93DF93A2
:1053000000D000D0CDB7DEB79A8389830E943DBC20
:10531000E981FA81C680D780E084F184C114D10488
:10532000E104F10409F0ACC22485222309F469C325
:1053300032852150248721E0230F228745852413BD
:1053400001C01286E981FA8124E0329FE00DF11D4F
:105350001124C684D784E088F188E981FA81C28269
:10536000D382E482F582DC01CB018C0D9D1DA11D51
:10537000B11D86839783A087B18784819581892B0E
:1053800009F43FC3FFB7FD83F894E981FA812280D5
:1053900033802101612C712C0481158180913C02A4
:1053A000853221F08F3F09F068C205C0E4E1F4E2E4
:1053B00024912E83DAC085E280933C02E4E1F4E29A
:1053C00084918E838F3F09F458C2823009F469C0FA
:1053D00030F5882309F44CC0813009F0C6C0109222
:1053E000800010928100809181008860809381000C
:1053F00080918100816080938100E0E1F7E2E49197
:10540000F0E0EE0FFF1FE954F94D85919491E6E528
:10541000F7E2E491E0936814E1E0EE8330C19E810D
:10542000943009F482C008F460C0953009F09DC042
:1054300010922001109221018091210188608093B7
:10544000210180912101816080932101E0E1F7E257
:10545000E491F0E0EE0FFF1FE954F94D859194912E
:10546000E6E5F7E2E491E093651495E09E8307C1D9
:1054700014BC15BC84B5826084BD85B5816085BDD2
:10548000E0E1F7E2E491F0E0EE0FFF1FE954F94D9F
:1054900085919491E6E5F7E2E491E09369141E8228
:1054A000ABC21092B0001092B1008091B000826047
:1054B0008093B0008091B10081608093B100E0E101
:1054C000F7E2E491F0E0EE0FFF1FE954F94D85910A
:1054D00094919093261D8093251DE6E5F7E2E491D3
:1054E000E093271DF2E0FE8387C210929000109295
:1054F000910080919100886080939100809191004B
:10550000816080939100E0E1F7E2E491F0E0EE0F3A
:10551000FF1FE954F94D85919491E6E5F7E2E49196
:10552000E093671423E02E83AAC01092A00010928B
:10553000A1008091A10088608093A1008091A100CA
:1055400081608093A100E0E1F7E2E491F0E0EE0FEA
:10555000FF1FE954F94D85919491E6E5F7E2E49156
:10556000E093661484E08E838AC0EE81E7FD85C1F6
:1055700061E085E20E94FEBA8E818D7F09F083C0D2
:105580004801A12CB12C60E072E18AE790E0A5010E
:1055900094010E9438ED29833A834B835C8369012F
:1055A0007A01F1E0CF1AD108E108F1082FEFC21615
:1055B000D104E104F10409F008F44EC060E472E49F
:1055C0008FE090E0A50194010E9438ED69017A0115
:1055D00081E0C81AD108E108F1089E81923009F5EE
:1055E000EFEFCE16D104E104F10409F008F4CBC1C9
:1055F00060E970ED83E090E0A50194010E9438ED30
:1056000069017A01F1E0CF1AD108E108F1082FEF22
:10561000C216D104E104F10411F008F041C183E0A5
:1056200027C08FEFC816D104E104F104B9F0B0F03F
:1056300068E478EE81E090E0A50194010E9438EDE5
:1056400069017A0191E0C91AD108E108F108EE81F7
:10565000EE2309F49AC163C181E001C082E09E811A
:10566000911106C095B5987F892B85BD7AC085E0DC
:105670009091B100987F892B8093B10072C061E056
:1056800085E20E94FEBA4801A12CB12C60E072E1D3
:105690008AE790E0A50194010E9438ED69017A0142
:1056A000E1E0CE1AD108E108F108C114D104F1E01B
:1056B000EF06F10488F068E478EE81E090E0A5015F
:1056C00094010E9438ED69017A0181E0C81AD1087D
:1056D000E108F10883E001C081E09E81913071F41E
:1056E00090918100987F892B8093810045284628DE
:1056F0004728D9F52FEF3FEFA90168C0EE81E330CD
:1057000071F490919100987F892B809391004528A6
:105710004628472851F52FEF3FEFA90179C0FE81B8
:10572000F43071F49091A100987F892B8093A100AF
:10573000452846284728C9F42FEF3FEFA9017AC032
:105740002E81253071F490912101987F892B8093CF
:10575000210145284628472841F42FEF3FEFA901B2
:105760007BC045284628472869F0D801AA0FBB1FEF
:1057700091010E94F3EC28EE33E040E050E00E94FB
:10578000C6EC03C02FEF3FEFA9018E81823081F17B
:105790002CF4882361F08130C9F06FC09E81943071
:1057A00009F448C0ACF1953009F456C066C0C7BCD6
:1057B00020937A1430937B1440937C1450937D147F
:1057C00080916E00826080936E0057C0D0928900F5
:1057D000C092880020937614309377144093781405
:1057E0005093791480916F00826080936F0045C060
:1057F000C092B3002093281D3093291D40932A1D89
:1058000050932B1D8091700082608093700035C092
:10581000D0929900C0929800209372143093731420
:10582000409374145093751480917100826080933A
:10583000710023C0D092A900C092A80020936E14DA
:1058400030936F14409370145093711480917200D0
:1058500082608093720011C0D0922901C092280109
:1058600020936A1430936B1440936C1450936D140E
:1058700080917300826080937300ED81EFBFC1C09F
:10588000DC01CB018C199D09AE09BF09B7FDB9C078
:105890004098E981FA811682178210861186B1C07C
:1058A00068E478EE81E090E0A50194010E9438ED73
:1058B00069017A01F1E0CF1AD108E108F1082FEF70
:1058C000C216D104E104F10441F138F164E274EF4D
:1058D00080E090E0A50194010E9438ED69017A0111
:1058E000F1E0CF1AD108E108F1082FEFC216D10478
:1058F000E104F10409F008F4BACE62E17AE780E04D
:1059000090E0A50194010E9438ED69017A0181E0DF
:10591000C81AD108E108F10819C084E0A9CE2FEF18
:10592000C216D104E104F10409F008F463C062E195
:105930007AE780E090E0A50194010E9438ED6901CA
:105940007A01F1E0CF1AD108E108F1082FEFC21671
:10595000D104E104F104A9F0A0F089819A81AB811E
:10596000BC812AE0B595A795979587952A95D1F79B
:105970006C017D01F1E0CF1AD108E108F10887E060
:1059800077CE86E075CE82E073CEEFEFCE16D104EF
:10599000E104F10469F160F162E17AE780E090E00E
:1059A000A50194010E9438ED69017A0181E0C81ACD
:1059B000D108E108F1089FEFC916D104E104F10410
:1059C000A9F0A0F089819A81AB81BC813AE0B595BC
:1059D000A795979587953A95D1F76C017D01E1E000
:1059E000CE1AD108E108F10885E03CCE84E03ACE39
:1059F00083E038CE84E033CE61E085E20E94FEBAD7
:105A0000BFCD26960FB6F894DEBF0FBECDBFDF9197
:105A1000CF911F910F91FF90EF90DF90CF90BF90AB
:105A2000AF909F908F907F906F905F904F903F903E
:105A30002F9008959091FE1491FB222720F9821750
:105A4000C9F081110EC047E655E163E675E18FE5C7
:105A500095E10E940E578091FE148D7F8093FE1475
:105A6000089590FFF8CF92609093FE148FE595E132
:105A70000C94D56F08958F929F92AF92BF92CF9260
:105A8000EF92FF920F931F93CF93DF93CDB7DEB7C3
:105A90002C970FB6F894DEBF0FBECDBF4B015C0153
:105AA000C0903E15E8E8F5E180859185A285B38533
:105AB0004481558166817781008111812281338102
:105AC00009831A832B833C834D835E836F8378879E
:105AD00089879A87AB87BC87AE01475F5F4FBE015E
