:100000000C949F110C94D0110C94D0110C94D0111D
:100010000C94D0110C94D0110C94D0110C94D011DC
:100020000C94D0110C94D0110C94D0110C94D011CC
:100030000C94D0110C9462930C94D0110C94D011A8
:100040000C94D0110C9481570C94D0110C94D011B5
:100050000C94D0110C94D0110C94D3960C94A9B498
:100060000C94D0110C94CD330C94FB330C94D01120
:100070000C94D0110C94D0110C94D0110C94D0117C
:100080000C94D0110C94D0110C94D0110C94D0116C
:100090000C94D0110C94D0110C94D0110C94D0115C
:1000A0000C94D0110C94D0110C94D0110C94D0114C
:1000B0000C94D0110C94D0110C94D0110C94D0113C
:1000C0000C94D0110C94D0110C94D0110C94583481
:1000D0000C942E340C94D0110C94D0110C94D0119B
:1000E0000C94D011DB511D525152A252D7528E5353
:1000F000F852005421535653A6B2A9B298B29CB2FA
:10010000A2B2E0B2ADB2B1B2B7B2BBB2BFB2C5B289
:10011000C9B2CDB2E0B2D3B2D7B2DBB2C3B3C8B3C7
:10012000CDB3D7B3E1B35AB4EBB3F3B3FBB305B478
:100130000FB419B428B432B45AB43CB446B450B471
:100140000C94A0920C94B97A0C9450B40C94BFB255
:100150000C9467AC0C9432B40C94CE7B0C9428B401
:100160000C94F3B30C9470940C94667B0C949CB236
:100170000C94557D0C94EBB30C94BBB20C94EF7BB8
:100180000C94E0B20C94B4920C9403930C94AB7A5C
:100190000C94FBB30C94B67F0C9423940C9405B48C
:1001A0000C942C7D0C9463260C94507E0C941E7C35
:1001B0000C9467920C9436CE0C9446B40C94DBB23B
:1001C0000C94C3B30C94A2520C9498B20C94337B4D
:1001D0000C94B1B20C9408A20C94077F0C94677D28
:1001E0000C945F260C941D520C94D7B30C940054BD
:1001F0000C94D7B20C940C7A0C94D7520C9408AA95
:100200000C94A6B20C943CB40C94A2B20C94C5B25B
:100210000C948E7F0C9451520C94CE790C94ADB208
:100220000C94B7B20C946A7A0C9456530C944C7F8D
:100230000C94A9B20C945AB40C948E530C94CEA87E
:100240000C94F8520C94DB510C94CDB20C946026B3
:100250000C94C9B20C94C2920C94437D0C94D3B20A
:100260000C94D8B50C940FB40C945E7B0C949192C2
:100270000C94887A0C94E1B30C94207D0C9419B4FE
:100280000C94C8B30C9421530C94B7790C94CDB34F
:100290004E414E494E495459494E46CDCCCC3D0A6B
:1002A000D7233C17B7D13877CC2B329595E6241F4E
:1002B000B14F0A000020410000C84200401C462007
:1002C000BCBE4CCA1B0E5AAEC59D74434F4D4D5516
:1002D0004E49434154494F4E0044525952554E00E5
:1002E0004552524F525300494E464F004543484FE6
:1002F00000557370696A2E2E2E004D35303000592E
:10030000206F7574206F662072616E6765202831DA
:100310002D32292E0A0058206F7574206F662072C6
:10032000616E67652028312D32292E0A004D6573D4
:10033000682070726F62696E6720646F6E652E0A46
:10034000005374617274206D6573682070726F62FF
:10035000696E6720776974682022473239205331EB
:10036000222066697273742E0A004732380A4732B7
:10037000392053320053746174653A20004D65731F
:100380006820626564206C6576656C696E672068BC
:100390006173206E6F20646174612E0A0053206FB8
:1003A0007574206F662072616E67652028302D3568
:1003B000292E0A004D65736820706F696E74206382
:1003C000616E6E6F74206265207265736F6C766506
:1003D000640A004F637A656B6977616E69652E2EDA
:1003E0002E004D30004272616B207275636875009B
:1003F000456E642066696C65206C6973740A0042FE
:100400006567696E2066696C65206C6973740A00A3
:100410004D313235005344207072696E74696E67D5
:10042000206279746520004E6F74205344207072EE
:10043000696E74696E670A005072696E742074691F
:100440006D653A200050726F746563746564205066
:10045000696E0A005072696E746F20483320676FAE
:10046000746F77612E00EC02E702E002D902CB0242
:100470006F66660044454255473A00556269747993
:100480002E20004D3131332053006F6B00436170DB
:100490003A454D455247454E43595F5041525345A9
:1004A000523A300A004361703A434153455F4C4928
:1004B0004748545F4252494748544E4553533A3097
:1004C0000A004361703A544F47474C455F4C4947D7
:1004D0004854533A300A004361703A534F465457D8
:1004E0004152455F504F5745523A300A00436170C0
:1004F0003A4C4556454C494E475F444154413A3188
:100500000A004361703A5A5F50524F42453A300AEE
:10051000004361703A4155544F4C4556454C3A3072
:100520000A004361703A5052494E545F4A4F423A72
:10053000310A004361703A50524F47524553533A83
:10054000300A004361703A4155544F5245504F5262
:10055000545F54454D503A310A004361703A454565
:1005600050524F4D3A310A004649524D574152457B
:100570005F4E414D453A4D61726C696E20312E33AC
:100580002E316120284769746875622920534F55C0
:100590005243455F434F44455F55524C3A6874742B
:1005A00070733A2F2F6769746875622E636F6D2FB1
:1005B0004D61726C696E4669726D776172652F4D1F
:1005C00061726C696E2050524F544F434F4C5F56CE
:1005D000455253494F4E3A312E30204D4143484900
:1005E0004E455F545950453A5072696E746F2048B9
:1005F000332045585452554445525F434F554E544D
:100600003A3120555549443A636564653261326632
:100610002D343161322D343734382D396231322D59
:100620006335356336326633363766660A002F2FF8
:10063000200053657474696E672054726176656C2E
:1006400020416363656C65726174696F6E3A200066
:1006500053657474696E67205265747261637420A7
:10066000416363656C65726174696F6E3A20005313
:10067000657474696E67205072696E74204163639B
:10068000656C65726174696F6E3A200053657474AD
:10069000696E67205072696E7420616E64205472B6
:1006A0006176656C20416363656C65726174696F26
:1006B0006E3A2000205A00205900580020204D6139
:1006C000783A2000205A00205900580020204D6917
:1006D0006E3A2000576C2E200057796C2E00536F15
:1006E000667420656E6473746F70733A2000000145
:1006F000363726FF023C3D380EFF2E303EFF13FFFB
:100700000C0809FFFFFF1A1C18FFFF08440AFF43EB
:10071000FFFFFFFFFFFF20643A0020693A002070CE
:100720003A0020643A0020693A0020703A004329D8
:100730000A0061626C656420286D696E2074656DC5
:10074000702000436F6C6420657874727564657303
:10075000206172652000426564204C6576656C6995
:100760006E6720004661696C656420746F20656E59
:1007700061626C6520426564204C6576656C696ECB
:10078000670A004D65736820426564204C65766594
:100790006C20646174613A0A00506F7A2E207A6589
:1007A000726F7761207573742E004572723A20540F
:1007B0006F6F206661722100546F6F206661722036
:1007C00066726F6D207265666572656E6365207016
:1007D0006F696E740A004E6F2063617365206C69E7
:1007E0006768740A0041637469766520457874729D
:1007F000756465723A2000556E6B6E6F776E20637C
:100800006F6D6D616E643A20220025697300256961
:100810006D20256973002569682025696D2025698B
:100820007300256964202569682025696D20256984
:100830007300256979202569642025696820256968
:100840006D202569730055626974792E20005A6104
:1008500074727A796D616E792E20005072696E74AF
:1008600065722073746F70706564206475652074A0
:100870006F206572726F72732E20466978207468DB
:1008800065206572726F7220616E642075736520D9
:100890004D39393920746F20726573746172742E0A
:1008A000202854656D706572617475726520697376
:1008B0002072657365742E205365742069742061FD
:1008C000667465722072657374617274696E6729EB
:1008D0000A004E6F204C696E65204E756D62657220
:1008E000207769746820636865636B73756D2C206D
:1008F0004C617374204C696E653A20004E6F204342
:100900006865636B73756D2077697468206C696EB8
:1009100065206E756D6265722C204C617374204C7D
:10092000696E653A2000636865636B73756D206D51
:1009300069736D617463682C204C617374204C6919
:100940006E653A20004C696E65204E756D62657269
:10095000206973206E6F74204C617374204C696E33
:1009600065204E756D6265722B312C204C6173745D
:10097000204C696E653A20004D313130004D3331E5
:10098000004D383420582059205A20450053442027
:1009900072656164206572726F720A00446F6E65E1
:1009A000207072696E74696E672066696C650A00F2
:1009B00020496E76616C696420657874727564652F
:1009C0007220000000000000000000000000000095
:1009D000004D430000524300004E43203936303072
:1009E000206F6B2C2074727920313135200A003948
:1009F000363030206661696C202D3E20747279207B
:100A0000313135200A0020636F6E6E656374656452
:100A1000210A0020370020342E330020332E3500E9
:100A200020332E320020322E34004E657874696FE8
:100A30006E004E657874696F6E206E6F7420636F00
:100A40006E6E656374656421002020506C616E6E6B
:100A5000657242756666657242797465733A200004
:100A60002046726565204D656D6F72793A200043AE
:100A70006F6D70696C65643A204F63742032332067
:100A8000323032300A00207C20417574686F723A2F
:100A900020285072696E746F33642E706C2C204A5B
:100AA000616B75622053696B6F7261290A00323085
:100AB00032302D31302D313900204C617374205586
:100AC0007064617465643A2000312E332E31610AFE
:100AD000004D61726C696E0020536F6674776172AD
:100AE000652052657365740A0020576174636864F9
:100AF0006F672052657365740A002042726F776ECB
:100B0000206F75742052657365740A0020457874EF
:100B100065726E616C2052657365740A00506F7760
:100B2000657255700A0073746172740A006572729E
:100B30006F722077726974696E6720746F206669BE
:100B40006C650A00205A3A0020593A0020583A00B1
:100B5000656E6473746F7073206869743A20004422
:100B60006F6E6520736176696E672066696C652EAD
:100B70000A004D323900202863616C63756C617422
:100B8000656429210A0020213D2000454550524F2F
:100B90004D20435243206D69736D61746368202D4D
:100BA000202873746F726564292000290A0020626E
:100BB000797465733B2063726320002073746F72D5
:100BC00065642073657474696E67732072657472EE
:100BD0006965766564202800204D61726C696E3D00
:100BE000563339290A0028454550524F4D3D00459E
:100BF0004550524F4D2076657273696F6E206D6956
:100C0000736D61746368200048617264636F64652A
:100C1000642044656661756C742053657474696EF4
:100C20006773204C6F616465640A00881300008854
:100C30001300006400000028230000000096430019
:100C4000009643000048420000A0420000A042007D
:100C500000A04200004844000020432044002049F6
:100C60000020204D33303420500020440020490023
:100C700020204D333031205000504944207365749A
:100C800074696E67733A0A00205A002059002020C8
:100C900047323920533320580020204D3432302041
:100CA00053004D65736820426564204C6576656C21
:100CB000696E673A0A00205A0020590020204D3200
:100CC0003036205800486F6D65206F666673657416
:100CD0003A0A00204500205A0020590020580020E0
:100CE000420020540020204D323035205300416412
:100CF00076616E6365643A20533C6D696E5F66652C
:100D00006564726174653E20543C6D696E5F7472F7
:100D10006176656C5F66656564726174653E2042EC
:100D20003C6D696E5F7365676D656E745F74696D48
:100D3000655F6D733E20583C6D61785F78795F6ABE
:100D400065726B3E205A3C6D61785F7A5F6A6572AE
:100D50006B3E20453C6D61785F655F6A65726B3EF6
:100D60000A0020540020520020204D323034205000
:100D700000416363656C65726174696F6E202875EC
:100D80006E6974732F7332293A20503C7072696E09
:100D9000745F616363656C3E20523C72657472617E
:100DA00063745F616363656C3E20543C747261766A
:100DB000656C5F616363656C3E0A00204500205AE4
:100DC0000020590020204D3230312058004D6178EC
:100DD000696D756D20416363656C65726174696FDF
:100DE0006E2028756E6974732F7332293A0A0020B9
:100DF0004500205A0020590020204D323033205821
:100E0000004D6178696D756D206665656472617409
:100E100065732028756E6974732F73293A0A002050
:100E20004500205A0020590020204D39322058001A
:100E300053746570732070657220756E69743A0A18
:100E40000020204D3230302044300A0020204D3226
:100E500030302044002044697361626C65640A008C
:100E600046696C616D656E742073657474696E6734
:100E7000733A002020473231202020203B20556E3D
:100E800069747320696E206D6D0A0020636F6C6455
:100E900020657874727573696F6E207072657665FF
:100EA0006E7465640A00456B7374727564756A20AC
:100EB00077696563656A00577A6E6F77206472752B
:100EC0006B6F77616E6965005779626965727A2028
:100ED0006F70636A650050726F737A6520637A651C
:100EE0006B616300526F7A67727A6577616E6965CC
:100EF000206479737A790057796D69616E61206633
:100F0000696C616D656E74750061627920726F7ACB
:100F100067727A6163206479737A650057636973D5
:100F20006E696A2070727A796369736B0057796DA4
:100F300069616E612066696C616D656E74750077BC
:100F4000796472756B75005472776120777A6E617F
:100F50007769616E6965006E6F7765676F206D6197
:100F600074657269616C75005472776120656B738A
:100F70007472757A6A610066696C616D656E74750C
:100F800020646F20676C6F776963790054727761B2
:100F9000207770726F7761647A616E696500577946
:100FA0006D69616E612066696C616D656E74750056
:100FB000616279206B6F6E74796E756F7761632EE5
:100FC0002E2E0069206E616369736E696A207072EB
:100FD0007A796369736B00576C6F7A2066696C610C
:100FE0006D656E740057796D69616E612066696C1C
:100FF000616D656E74750066696C616D656E7475A2
:10100000207A20676C6F776963790054727761206A
:101010007779737577616E69650057796D69616E6F
:10102000612066696C616D656E7475007A6D6961C9
:101030006E792066696C616D656E747500547277A7
:101040006120726F7A706F637A796E616E69650084
:1010500057796D69616E612066696C616D656E744A
:10106000750057726974696E6720746F2066696CC9
:10107000653A20006F70656E206661696C65642C4E
:101080002046696C653A20006F70656E2066616964
:101090006C65642C2046696C653A200046696C6575
:1010A0002073656C65637465640A002053697A6512
:1010B0003A200046696C65206F70656E65643A2061
:1010C000006F70656E206661696C65642C204669EE
:1010D0006C653A20002066696C653A20004E6F7797
:1010E00020002220706F73002220706172656E7480
:1010F0003A2200535542524F5554494E45204341E0
:101100004C4C207461726765743A220055626974B0
:10111000792E2000747279696E6720746F20636184
:101120006C6C207375622D67636F64652066696CF3
:101130006573207769746820746F6F206D616E79B4
:10114000206C6576656C732E204D4158206C657659
:10115000656C2069733A0024F4D43050C38E20C2E9
:10116000A24017828B7011127A910D816CD90AA856
:1011700061E108C7586607615143061E4B5D05C112
:1011800045A7041A411104093D9803713931034000
:1011900036DB0265339102D4305402802E1D026387
:1011A0002CEE01752AC501B028A001102781018FFE
:1011B0002564012B244B01E0223401AC211F018D59
:1011C000200D01801FFC00841EED00971DDF00B87C
:1011D0001CD200E61BC600201BBC00641AB200B281
:1011E00019A8000A19A0006A189900D117910040A7
:1011F000178B00B516840031167E00B31579003ABE
:10120000157300C7146F0058146A00EE1366008847
:1012100013630025135E00C7125B006C12570015A4
:10122000125400C111510070114F0021114B00D612
:101230001049008D1047004610440002104200C0C3
:101240000F4000800F3E00420F3C00060F3B00CBDA
:101250000E3800930E37005C0E3500270E3400F375
:101260000D3200C10D3100900D3000600D2E0032A6
:101270000D2D00050D2C00D90C2B00AE0C2900857E
:101280000C29005C0C2700350C27000E0C2600E80A
:101290000B2400C40B2400A00B23007D0B23005A59
:1012A0000B2100390B2100180B2000F80A1F00D970
:1012B0000A1E00BB0A1E009D0A1D00800A1D006355
:1012C0000A1C00470A1B002C0A1B00110A1A00F70F
:1012D000091A00DD091900C4091900AB09190092A7
:1012E0000917007B091800630917004C091600361E
:1012F000091600200916000A091500F5081500E076
:10130000081400CC081400B8081400A408140090B5
:101310000813007D0812006B0813005808120046DD
:1013200008120034081100230811001208110001EE
:10133000081100F0071000E0071000D0071000C0EF
:10134000071000B0070F00A107100091070E0083DF
:10135000070F0074070F0065070E0057070E0049BE
:10136000070E003B070D002E070E0020070D00138F
:10137000070D0006070D00F9060C00ED060D00E054
:10138000060C00D4060C00C8060C00BC060C00B00D
:10139000060C00A4060B0099060C008D060B0082BB
:1013A000060B0077060B006C060B0061060A00575F
:1013B000060B004C060A0042060A0038060A002EF8
:1013C000060A0024060A001A060A00100609000789
:1013D000060A00FD050900F4050900EB050900E215
:1013E000050900D9050900D0050900C7050900BE97
:1013F000050900B5050800AD050800A50509009C14
:10140000050800940508008C050800840508007C88
:10141000050800740508006C050700650508005DF7
:10142000050700560508004E050700470507004060
:1014300005080038050700310507002A05070023C5
:101440000507001C050600160507000F0507000824
:1014500005060002050700FB040600F5040700EE80
:10146000040600E8040600E2040700DB040600D5D9
:10147000040600CF040600C9040600C3040600BD2C
:10148000040600B7040600B1040500AC040600A67B
:10149000040600A00405009B0406009504050090C6
:1014A0000406008A04050085040500800406007A0D
:1014B00004050075040500700405006B0405006652
:1014C000040500610405005C040500570405005292
:1014D0000405004D04050048040500430405003ED2
:1014E0000404003A04050035040500300404002C0F
:1014F00004050027040400230405001E0404001A48
:1015000004040016040500110404000D040400097D
:101510000405000404040000040400FC030400F8B3
:10152000030400F4030400F0030400EC030400E8E7
:10153000030400E4030400E0030400DC030400D817
:10154000030400D4030400D0030400CC030400C847
:10155000030300C503030024F404D9201BC40C5C5E
:101560000E9804C4095F0265077101F405F900FBD8
:1015700004B30048048700C1036900580355000301
:10158000034500BE023A008402310053022A0029BA
:1015900002250004022000E4011C00C8011900AF6C
:1015A00001170098011400840113007101100061FB
:1015B00001100051010E0043010D0036010B002BFC
:1015C000010B0020010B00150109000C01090003AB
:1015D000010800FB000800F3000800EB000700E42E
:1015E000000600DE000600D8000600D2000600CC8F
:1015F000000500C7000500C2000500BD000400B9D9
:10160000000400B5000400B1000400AD000400A90E
:10161000000400A5000300A20003009F0004009B3B
:10162000000300980003009500020093000300905F
:101630000003008D0002008B00030088000200867A
:1016400000020084000300810002007F0002007D90
:101650000002007B000200790002007700010076A2
:101660000002007400020072000100710002006FAD
:101670000002006D0001006C0002006A00010069B8
:1016800000020067000100660001006500010064BF
:101690000002006200010061000100600001005FC3
:1016A0000002005D0001005C0001005B0001005AC7
:1016B00000010059000100580001005700010056C8
:1016C00000010055000100540001005300000053C8
:1016D0000001005200010051000100500001004FC4
:1016E0000001004E0000004E0001004D0001004CC2
:1016F0000001004B0000004B0001004A00010049BE
:1017000000010048000000480001004700010046B9
:1017100000000046000100450000004500010044B3
:1017200000010043000000430001004200000042AD
:101730000001004100000041000100400001003FA5
:101740000000003F0001003E0000003E0001003D9F
:101750000000003D0001003C0000003C0000003C97
:101760000001003B0000003B0001003A0000003A8D
:101770000001003900000039000100380000003885
:10178000000000380001003700000037000100367B
:101790000000003600000036000100350000003572
:1017A0000000003500010034000000340000003467
:1017B000000100330000003300000033000100325C
:1017C0000000003200000032000100310000003152
:1017D0000000003100010030000000300000003047
:1017E0000001002F0000002F0000002F0000002F3C
:1017F0000001002E0000002E0000002E0001002D30
:101800000000002D0000002D0000002D0001002C24
:101810000000002C0000002C0000002C0001002B18
:101820000000002B0000002B0000002B0001002A0C
:101830000000002A0000002A0000002A0001002900
:1018400000000029000000290000002900000029F4
:1018500000010028000000280000002800000028E7
:1018600000000028000100270000002700000027DA
:1018700000000027000000270001002600000026CD
:1018800000000026000000260000002600010025C0
:1018900000000025000000250000002500000025B4
:1018A00000000025000100240000002400000024A6
:1018B0000000002400000024000100230000002399
:1018C000000000230000002300000023000000238C
:1018D000000000230001002200000022000000227E
:1018E0000000002200000022000000220001002170
:1018F0000000002100000021000000210000002164
:101900000000002100000021000100200000002054
:101910000000002000000020000000200000002047
:1019200000000020000000200001001F0000001F38
:101930000000001F0000001F0000001F0000001F2B
:101940000000001F0001001E0000001E0000001E1D
:101950000000001E0000004D383420582059205A45
:1019600020450043616E6E6F74206F70656E20734A
:101970007562646972200053442063617264206F51
:101980006B0A006F70656E526F6F74206661696CD0
:1019900065640A00766F6C756D652E696E697420DA
:1019A0006661696C65640A004572726F723A005331
:1019B0004420696E6974206661696C0A00617574FF
:1019C0006F25692E67004D3234004D323320257368
:1019D00000656E7175657565696E672022006563C7
:1019E000686F3A0020636F6C642065787472757359
:1019F000696F6E2070726576656E7465640A006248
:101A00007573793A2070617573656420666F722012
:101A1000696E7075740A00627573793A2070617529
:101A200073656420666F7220757365720A00627553
:101A300073793A2070726F63657373696E670A0019
:101A40004D3630300055626974792E20004B494C78
:101A50004C20636175736564206279204B494C4C5E
:101A600020627574746F6E2F70696E0A005562691A
:101A700074792E20004B494C4C206361757365646A
:101A800020627920746F6F206D75636820696E61C4
:101A900063746976652074696D65202D20637572A5
:101AA00072656E7420636F6D6D616E643A200050D4
:101AB00072696E7465722068616C7465642E206B47
:101AC000696C6C28292063616C6C6564210A0000D4
:101AD000004D430000000000004E430000A0420003
:101AE00000A0420000F041000000005761726E69E2
:101AF0006E673A20486F6D696E672042756D702081
:101B000044697669736F72203C20310A0002020832
:101B10000000A0400000A0400000A04000004D4395
:101B20000000524300004E4301FF014D363030208B
:101B3000486F74656E6420746F6F20636F6C6420EF
:101B4000746F206368616E67652066696C616D659E
:101B50006E740A00206E6F7420656E746572656421
:101B60002E0A000A4D6561737572656420706F6995
:101B70006E74733A0A005A206F66667365743A2071
:101B8000004E756D20582C593A20322C320A0046EE
:101B9000696C652064656C657465643A0044656CC5
:101BA0006574696F6E206661696C65642C20466996
:101BB0006C653A20006F70656E206661696C6564C3
:101BC0002C2046696C653A20006D0046696C616D99
:101BD000656E7420757365643A2000537461747384
:101BE0003A20002C204C6F6E67657374206A6F6218
:101BF0003A2000546F74616C2074696D653A20005E
:101C000053746174733A20002C204661696C6564DA
:101C10003A20002C2046696E69736865643A20009A
:101C20005072696E74733A200053746174733A2071
:101C300000202F002042403A0020403A00526F7AA4
:101C400067727A616E6F0020573A005072696E7445
:101C50006F20483320676F746F77612E00526F7A60
:101C600067727A616E6F2073746F6C0020573A0050
:101C7000526F7A67727A6577616E69652073746FE7
:101C80006C752E2E2E00577A6E6F7769656E6965BA
:101C9000004D32340057796472756B20777374721B
:101CA0007A796D616E79004D3132350047323920D5
:101CB00053320070726F626573656E643A0A004E4B
:101CC00049450054414B004E4945004D2042204CAF
:101CD00000323032302D31302D313900312E332E5B
:101CE000316100256C642E25696D007A617069731D
:101CF000616E65007A616C61646F77616E65005436
:101D0000656D702E206D696E3A20313730006B6F33
:101D10006E74796E756F77616300726F7A67727A2D
:101D2000656A2061627900476C6F77696361206A38
:101D3000657374207A696D6E612C004D36303020E9
:101D400042300047393000473931004D38340047C0
:101D50003238004472756B2070727A657277616EEA
:101D60007900205A3A0020423A0020436F756E7481
:101D700020413A0020453A00205A3A0020593A00C2
:101D8000583A004B64200023646566696E65202024
:101D900044454641554C545F004B6920002364651F
:101DA00066696E65202044454641554C545F004BA2
:101DB00070200023646566696E65202044454641B5
:101DC000554C545F0050494420756B6F6E637A6FB9
:101DD0006E6F00504944204175746F74756E6520B4
:101DE00066696E6973686564212050757420746833
:101DF00065206C617374204B702C204B6920616EE0
:101E000064204B6420636F6E7374616E747320661C
:101E1000726F6D2062656C6F7720696E746F2043FE
:101E20006F6E66696775726174696F6E2E680A00FD
:101E3000504944204175746F74756E652066616900
:101E40006C6564212074696D656F75740A00504972
:101E50004420626C61643A206F76657273686F74B7
:101E60000050494420626C6164206B616C6962724D
:101E700061636A6900504944204175746F74756EDE
:101E800065206661696C6564212054656D706572BA
:101E9000617475726520746F6F20686967680A00E5
:101EA000204B643A2000204B693A2000204B703AC6
:101EB00020000A20436C61737369632050494420F9
:101EC0000A002054753A2000204B753A2000206DFE
:101ED00061783A2000206D696E3A200020643A2033
:101EE0000020626961733A200050494420726F7A81
:101EF000706F637A65746F004D65736820706F69E9
:101F00006E742063616E6E6F7420626520726573FB
:101F10006F6C7665640A004D34323120696E636FF0
:101F2000727265637420706172616D657465722090
:101F300075736167650A002066697273740A005AD6
:101F40000059005800486F6D6520007C3C3E5E2BB8
:101F50003D3F2F5B5D3B2C2A225C0070012C0190E1
:101F6000012701B0012201C0011D01F0011801107B
:101F700002130130020E016002090190020401C047
:101F800002FF000003FA004003F5008003F000D0D8
:101F900003EB002004E6007004E100E004DC0040F4
:101FA00005D700C005D2004006CD00D006C800808D
:101FB00007C3003008BE00F008B900C009B400B083
:101FC0000AAF00B00BAA00D00CA500000EA0005074
:101FD0000F9B00C01096005012910000148C00C09E
:101FE000158700B0178200B0197D00D01B78000063
:101FF0001E730040206E0090226900F024640040AF
:10200000275F0090295A00E02B5500102E50002029
:10201000304B0010324600E033410090353C001058
:1020200037370070383200A0392D00B03A2800A0B0
:102030003B2300603C1E00103D1900903D14001031
:102040003E0F00703E0A00C03E0500003F00004009
:102050003FFBFF803FF6FFC03FF1FF457272206DEE
:10206000696E2074656D702073746F6C75004572B5
:1020700072206D696E2074656D70004D494E544537
:102080004D502074726967676572656400457272AD
:10209000206D61782074656D702073746F6C7500AD
:1020A000457272206D61782074656D70004D4158E5
:1020B00054454D502074726967676572656400020B
:1020C0004572726F722077726974696E6720746FDF
:1020D00020454550524F4D210A00290A00206279BF
:1020E0007465733B20637263200053657474696E7A
:1020F00067732053746F7265642028004B6172749B
:1021000061207573756E69657461004B61727461ED
:1021100020776C6F7A6F6E610073645F73746174A3
:1021200075733A66616C73650A0073645F737461FA
:102130007475733A747275650A007A6D69616E61BF
:10214000207364206465743A0A0025756420253084
:1021500032753A2530327500202F200066696C6197
:102160006D656E743A20007A5F6D61783A2000796F
:102170005F6D696E3A2000785F6D61783A20005299
:1021800065706F7274696E6720656E6473746F70CA
:10219000207374617475730A0043616E6E6F7420EE
:1021A000656E746572207375626469723A200062AC
:1021B00065640A002C2073797374656D2073746FE5
:1021C0007070656421204865617465725F49443AA6
:1021D00020005A616E696B2074656D702E00546822
:1021E00065726D616C2052756E6177617900526F16
:1021F0007A67727A2E206E69657564616E65004833
:10220000656174696E67206661696C6564000000D1
:102210002100240027002A002D0030003300010196
:102220000000040107010A01000022002500280027
:102230002B002E00310034000201000005010801CE
:102240000B01000020002300260029002C002F0095
:102250003200000100000301060109010505050522
:10226000070508080808020202020A0A080804040E
:10227000040401010101010101010303030303033C
:102280000303040707070C0C0C0C0C0C0C0C0202CB
:10229000020206060606060606060B0B0B0B0B0BC8
:1022A0000B0B010210202008081020401020408055
:1022B000020102010804020101020408102040800A
:1022C0008040201008040201800402018040201098
:1022D00008040201080402010102040810204080E1
:1022E000010204081020408000000A0B02090C0DB6
:1022F0000E080703040100000000000000000000B9
:1023000000000000000000000000000000000000CD
:10231000000000001211100000000000000000008A
:1023200000000000000000000000000000005265F6
:1023300073656E643A20006F6B00D8B536CE1124F9
:102340001FBECFEFD1E2DEBFCDBF00E00CBF16E075
:10235000A0E0B2E0EAE0FAEB01E00BBF02C00790B8
:102360000D92A836B107D9F72EE1A8E6B6E001C074
:102370001D92A63BB207E1F711E1CEE9D1E100E001
:1023800006C021970109802FFE010E945DD9CD3939
:10239000D10780E00807A9F70E94B8C60C94F3DCC7
:1023A0000C9400002F923F924F925F926F927F9217
:1023B0008F929F92AF92BF92CF92DF92EF92FF9255
:1023C0000F931F93CF93DF93CDB7DEB7E9970FB687
:1023D000F894DEBF0FBECDBF0091B61420E4029F7B
:1023E000800111240A5C1D4E80910A1580FF1AC0DD
:1023F000EEEDF9E184917F013FEFE31AF30A8111D9
:1024000002C0780104C00E94182FF701F3CFD70152
:102410008D917D01882319F00E94182FF8CF8AE052
:102420000E94182F81E090E09093181D8093171D53
:1024300010928706109286068FE380939106109281
:10244000900610928F0684E0E2E8F6E0DF011D922C
:102450008A95E9F7F80180810F5F1F4F8032D1F331
:102460008E34C9F4818190ED980F9A3020F08D322E
:1024700011F08B3281F4DF0112969D012F5F3F4FE7
:102480008C9180538A3010F4D901F7CFFD01119659
:1024900080818032D9F3F093021DE093011D7F010A
:1024A000BFEFEB1AFB0A10816AE270E0C7010E94DD
:1024B000A1DC009731F0FC01319780818032E1F39B
:1024C00011821D3431F1143521F1173411F1EEED83
:1024D000F9E184918F010F5F1F4F882321F00E9443
:1024E000182FF801F6CF6091011D7091021D87EF42
:1024F00097E00E94915E82E20E94182F8AE00E947B
:10250000182F1092181D1092171D0E948EB50C9452
:102510001926C701FC01208101962032D9F32053EE
:102520002A30A8F61093910680E090E06AE0319698
:10253000DF0111972C91022E000C330B205331092F
:10254000689FA001699F500D1124C901840F951F38
:10255000208120532A3058F39093900680938F0661
:10256000DF0131962C912032D9F31D34D1F48E3114
:10257000910591F03CF48731910571F08C31910512
:1025800081F40AC08537910564F08737910524F0FE
:10259000803AE3E09E0729F4B0938706A09386066D
:1025A00083C010928706109286060091011D41E0BB
:1025B00050E0FD0131962C91222309F475C021329F
:1025C000A1F41D3491F48032910579F4F0938706DB
:1025D000E093860663E270E0CF010E94A1DC0097E1
:1025E00009F4B9C4DC011C925FC03FEBD32ED20EBC
:1025F00069E1C62ECD14C0F1BF01FB0130816F5FD0
:102600007F4F3032D1F360ED630F6A3040F063EDFD
:10261000630F623020F03B3211F00C949725BF011C
:10262000AD2CB12C7501A3E0F594E794AA95E1F7E0
:1026300097012E57394F79012D2D2770DA0102C0ED
:10264000AA0FBB1F2A95E2F79D01D7013C91232BCE
:102650002C936115710511F0601B01C060E0D5017C
:10266000A859B94F6C930AC020918606309187060D
:10267000232B21F4B0938706A09386062081215452
:102680002A3110F4DF0195CFDF01BD016F5F7F4F6D
:102690002C9120532A3010F4DB01F7CFFD01119665
:1026A00020812032D9F3EECF809191068D3409F448
:1026B00052C4843511F40C945425873409F007CFA3
:1026C00080918F06909190068D31910509F401C19A
:1026D0007CF48430910509F4BBC01CF40297D0F05F
:1026E00010CF4C9709F00DCF80E00E947A2D09CFD2
:1026F0008A35910509F436C324F48A9709F494C302
:1027000000CF8B35910509F430C38C35910509F460
:1027100030C3F7CE8091BA02882309F4F2CE59ED86
:10272000C52E52E0D52E60EEE62E6CE1F62E0BE6BD
:1027300015E17AE8A72E76E0B72EEDED8E2EE2E0D9
:102740009E2EF60181916F010E942D2D8823E1F0CC
:102750000E94FA2CD5012C91211104C020918E06E3
:10276000222331F0F801208131814281538103C05D
:1027700020E030E0A9010E946ED9D7016D937D93CE
:102780008D939C9313970AC0F80180819181A28157
:10279000B381F70180839183A283B383F4E0EF0ECA
:1027A000F11C0C5F1F4F2FEFA21AB20A8C149D046C
:1027B00041F686E40E945C2D8823C9F00E94FA2C21
:1027C00020E030E0A9010E94F1DA181684F40E949A
:1027D000FA2C20E030E040E752E40E94F1D9609307
:1027E00038027093390280933A0290933B028091B1
:1027F0000A1583FD2AC020917715309178154091F4
:10280000791550917A156091EC1C7091ED1C8091B6
:10281000EE1C9091EF1C0E946DD99B01AC01809140
:10282000330D882391F06091250D7091260D8091D4
:10283000270D9091280D0E946ED96093250D7093FD
:10284000260D8093270D9093280D0E94D57159CEA7
:1028500080E50E945C2D882329F00E94B62C6B0134
:102860007C0103C0C12CD12C760183E50E945C2D34
:10287000882361F00E94FA2C20E030E04AE754E41B
:102880000E94EBD40E946ADA6B017C010E9480B244
:102890000E946F2D8091031D9091041DA091051D34
:1028A000B091061DC80ED91EEA1EFB1E60E081EF26
:1028B00092E00E94E5A30E949DB4DC01CB018C193B
:1028C0009D09AE09BF09B7FF1CCE80E00E94C66A11
:1028D000F2CF83E50E945C2D882321F00E94D62C44
:1028E000182F01C010E0163068F0EDE9F3E0849194
:1028F0008F010F5F1F4F882309F403CE0E94182F0A
:10290000F801F5CF123009F445C0B0F41123F9F005
:10291000113009F024C20E941DAA109201021092E7
:1029200000028AE693E09093DF1C8093DE1C0E94F5
:102930005E2B1093701D13C2143009F401C208F409
:10294000A5C1153009F00BC20E94442A08C280912B
:10295000CF1480FD03C0EDE7F3E011C081FF03C099
:102960006BE773E002C060E873E085E793E00E94E4
:10297000915E8AE00E94182F0E9457CEF0C1849188
:102980008F010F5F1F4F882309F4E9C10E94182FA0
:10299000F801F5CF209100023091010237FF0CC001
:1029A00001E413E0F8018491882309F4AACD0F5FB4
:1029B0001F4F0E94182FF6CF2115310529F4809161
:1029C00037028093890631C08FEF820F982F91785C
:1029D00097FF03C091509E6F9F5FE92F87FD8F5F28
:1029E000859580FF02C0E1E0E91BEE0FFF0BE80FC9
:1029F000F11D87FDFA95EE0FFF1FEE0FFF1FE1544B
:102A0000FB4E8091731590917415A0917515B0913E
:102A1000761580839183A283B38380918906809306
:102A20003702243031050CF0CAC0822F817887FF2D
:102A300003C081508E6F8F5FA82EE22F27FF02C048
:102A4000E1E0E20FBE2EB594B0FE03C0A1E0AA2ED5
:102A5000A81AC0903802D0903902E0903A02F09063
:102A60003B0203EE1AE1F80185919591A591B4918D
:102A70008093380290933902A0933A02B0933B02BC
:102A800020E030E0A9016091BA157091BB158091EA
:102A9000BC159091BD150E946ED920E030E040EA4F
:102AA00050E40E946ED960937315709374158093EF
:102AB0007515909376150E9461C685E595E5A5E0AC
:102AC000B3E48093380290933902A0933A02B09312
:102AD0003B02FA2D24E0F202D0011124AB51B34F96
:102AE0002091B2153091B3154091B4155091B515A0
:102AF0006D917D918D919C910E946ED960936B1523
:102B000070936C1580936D1590936E153B2D84E03A
:102B10003802F0011124E352F34F2091B6153091A1
:102B2000B7154091B8155091B915608171818281B6
:102B300093810E946ED960936F1570937015809386
:102B40007115909372150E9461C6F8018591959157
:102B5000A591B4918093380290933902A0933A02E0
:102B6000B0933B0220E030E0A9016091BA1570916A
:102B7000BB158091BC159091BD150E946ED96093D4
:102B800073157093741580937515909376150E9444
:102B900061C6C0923802D0923902E0923A02F092B5
:102BA0003B020E9480B21092370280910002909105
:102BB000010201969093010280930002D0C020E0B0
:102BC00030E0A9016091BA157091BB158091BC15D8
:102BD0009091BD150E946ED920E030E040EA50E4AB
:102BE0000E946ED960937315709374158093751558
:102BF000909376150E9461C60E9480B28FEF9FEF7E
:102C00009093010280930002EDE2F3E084918F0142
:102C10000F5F1F4F882321F00E94182FF801F6CF75
:102C200083E992E09A83898304E610E019A308A35C
:102C3000BE016F5F7F4FCE0180960E94CA508AEB23
:102C400092E09A83898319A308A3BE016F5F7F4F27
:102C5000CE0180960E94CA508091CF1481608093EB
:102C6000CF1483EC9CE00E94F3A781E00E947A2DB0
:102C700081E00E94232A8AEF92E09093DF1C8093E8
:102C8000DE1C0E945E2B1092701D69C088E50E94B8
:102C90005C2D882391F00E94C62C1FEF160F123076
:102CA00090F006E113E0F8018491882309F429CC1F
:102CB0000F5F1F4F0E94182FF6CF88E50E94182F34
:102CC0000E940BCF1ECC89E50E945C2D882399F0D1
:102CD0000E94C62C0FEF060F023098F0EFEFF2E0E3
:102CE00084918F010F5F1F4F882309F40ACC0E9443
:102CF000182FF801F5CF89E50E94182F0E940BCFFD
:102D000000CC8AE50E945C2D8823A1F00E94FA2C59
:102D1000E12FEE0FFF0BE00FF11D07FDFA95EE0F0F
:102D2000FF1FEE0FFF1FE154FB4E60837183828310
:102D3000938315C08AE50E94182F0E940BCFE1CB28
:102D40008AE50E945C2D8823A9F30E94FA2C6093E7
:102D5000BB147093BC148093BD149093BE140E9456
:102D6000128ACFCB10928E06CCCB81E080938E0658
:102D7000C8CB85E40E945C2DB82E811102C00E9450
:102D800080B289ED882E82E0982E9BE6C92E95E1CF
:102D9000D92E2BE0E22E2DE1F22E00E010E0A12C46
:102DA000D4018D914D010E945C2D882339F1F601EB
:102DB00040805180628073800E94FA2CD6016D930E
:102DC0007D938D939C9313970330C1F0A3019201DF
:102DD0000E946DD99B01AC01F701608171818281F4
:102DE00093810E946ED9D7016D937D938D939C93AF
:102DF0001397C8010E94AE2AAA24A3940F5F1F4F05
:102E0000B4E0CB0ED11CE4E0EE0EF11C0430110551
:102E100039F6AA2019F00E94B72B03C0B1100E9406
:102E2000FB4F0E94128A6DCB8091BA02882309F46D
:102E300068CB89E40E945C2DE82E882321F00E9453
:102E4000C62C062F01C000E08AE40E945C2DF82EFB
:102E5000882321F00E94C62C162F01C010E0EE201E
:102E600011F0023020F4FF2079F0123068F0E4EB2A
:102E7000F3E084918F010F5F1F4F882309F441CB4A
:102E80000E94182FF801F5CF0E94A22CEE20E1F04D
:102E900024E00202F0011124EB51F34F2091B2150E
:102EA0003091B3154091B4155091B5156081718181
:102EB000828193810E946ED96093E01C7093E11C23
:102EC0008093E21C9093E31CFF20E1F034E01302B6
:102ED000F0011124E352F34F2091B6153091B7154C
:102EE0004091B8155091B9156081718182819381AB
:102EF0000E946ED96093E41C7093E51C8093E61CDD
:102F00009093E71C80E50E942D2D81110E94EA2CF0
:102F100086E40E945C2D882309F497CC0E94FA2C49
:102F20006B017C0120E030E0A9010E94F1DA181663
:102F30000CF08BCC20E030E040E752E4C701B60152
:102F40000E94F1D9609338027093390280933A025B
:102F500090933B027ACC80918F06909190068337B4
:102F6000910509F4EAC10CF0C4C08C34910509F450
:102F700003C40CF06BC08831910509F4BBC2D4F5D1
:102F80008231910509F40FC6D4F497FDBACA823094
:102F900091050CF4D5C1419709F0B3CA60E085EE04
:102FA00093E00E94E5A35F988A989FB7F894809178
:102FB00008018E7F809308019FBF1298A2CA8531B5
:102FC000910509F48DC234F4449709F09ACAEEEDE4
:102FD000F9E13EC28631910509F486C2479709F0AE
:102FE00090CA40E061E080918606909187060E9439
:102FF0005F5487CA8E31910509F405C3B4F48A3150
:10300000910509F4A4C20CF494C28B31910509F422
:10301000BDC24C9709F075CA40E060E08091860619
:10302000909187060E945F546CCA8032910509F422
:10303000EEC20CF436C38A32910509F45EC38B34B8
:10304000910509F05ECA0E9453505BCA893691050A
:1030500009F4A4C42CF58335910509F49FC58CF4BB
:103060008E34910509F490C30CF48AC3813591051F
:1030700009F482C58235910509F043CA10928D0684
:1030800040CA8535910509F4C5C50CF48CC58C354D
:10309000910509F4DAC58836910509F479C331CA76
:1030A0008E36910509F4A4C38CF48B36910509F48E
:1030B000DEC40CF4BDC48C36910509F41AC48D36F7
:1030C000910509F01ECA0E94F8741BCA8037910549
:1030D00009F413C40CF49FC38137910509F415C496
:1030E0008237910509F00DCA0E9480B20E94128AAF
:1030F00008CA823E910511F40C94C8210CF068C0F6
:103100008E3B910509F490C474F58837910509F454
:10311000F0C694F48637910509F4B0C60CF0E5C604
:103120008537910509F0EDC960E0809186069091A0
:1031300087060E9412A4E5C98D37910509F4A9C438
:103140004CF48937910509F0DCC9109208021092FD
:10315000B914D7C98C38910509F404C48B39910589
:1031600009F439C4CEC98D3C910511F40C947F202B
:103170009CF4893C910509F417C72CF4883C91050F
:1031800009F4BEC6BEC98B3C910509F42DC78C3C21
:10319000910509F448C7B5C9833D910509F4CAC032
:1031A00064F48E3C910509F0ACC969EDE62E62E04D
:1031B000F62E00E010E00C94EC208C3D910511F40B
:1031C0000C949D218D3D910511F40C94AC2199C96D
:1031D000853AA1E09A0711F40C94FB23DCF58033C7
:1031E000E1E09E0711F40C94BF22D4F48D3221E06B
:1031F000920711F40C94202234F48C32914011F493
:103200000C94F6217EC98E32B1E09B0711F40C9428
:103210003D238F32914009F074C90E94A18571C984
:103220008039F1E09F0711F40C94942344F4833621
:10323000914009F066C9E8EAF9E10C942C258A3935
:10324000A1E09A0709F45DC3843A914011F40C940B
:10325000982357C9873FE1E09E0711F40C94092594
:103260000CF050C0843F21E0920711F40C94C92463
:1032700004F58C3A914009F044C924E73DE13DABA7
:103280002CAB82EB882E85E1982E9BE6A92E95E14A
:10329000B92E20EFC22E2CE1D22E36E2232E32E0C0
:1032A000332E4FECE42E4AE1F42E00E010E00C94B3
:1032B000FF23853FB1E09B0711F40C94E924863F7E
:1032C000914009F01EC90E948E3484E59BE09A83E8
:1032D000898306E410E019A308A3BE016F5F7F4F46
:1032E000CE0180960E94CA508CEF98E09A83898321
:1032F00019A308A3BE016F5F7F4FCE0180960E9485
:10330000CA50FFC88835F2E09F0711F40C942525B8
:1033100034F48C31924011F40C941825F2C8803AA0
:10332000A3E09A0709F4B0C1873E934011F40C94CE
:103330004025E7C8EEEDF9E168C7E8E6F5E012C51B
:10334000E2EEF3E084918F010F5F1F4F882321F09D
:103350000E94182FF801F6CFA0908606B09087063D
:1033600080E50E945C2D882359F00E94B62C6B01E9
:103370007C0111E0672B682B692B31F410E004C04D
:1033800010E0C12CD12C760183E50E945C2D8823AE
:10339000F1F00E94FA2C20E030E04AE754E40E9469
:1033A000EBD40E946ADA6B017C01111112C0672B09
:1033B000682B692B71F4A114B10459F0F5018081D7
:1033C000882339F061E0C5010E9412A407C01123CF
:1033D00091F360E083ED93E00E94E5A383E090E049
:1033E0009093181D8093171D81E08093721D0E9499
:1033F00080B20E946F2DC114D104E104F10411F1D7
:103400008091031D9091041DA091051DB091061D92
:10341000C80ED91EEA1EFB1E0E949DB4DC01CB0122
:103420008C199D09AE09BF09B7FD02C00C94A825EF
:103430008091721D882311F40C94A82580E00E94CD
:10344000C66AEACF1092721D5CC80E94182FF8015C
:1034500084918F010F5F1F4F8111F7CFEFEFF3E0E2
:1034600084918F010F5F1F4F882321F00E94182F36
:10347000F801F6CF1092BD0F1092BC0F87E69DE0C9
:103480000E94348D8BE1E7E6FDE0DE0115960190A8
:103490000D928A95E1F78091650D9091660D9C8360
:1034A0008B8387EE92E09A83898340E050E0BE01EF
:1034B0006F5F7F4F8FE793E00E947F67CE01019699
:1034C0000E94356AE0EFF3E084918F010F5F1F4F98
:1034D000882311F40C9481120E94182FF801F4CF64
:1034E0000E94A3650C9481121092360D1092370D34
:1034F0000C94811219821A821B821C8218A219A2B2
:103500001AA21BA28091731D882341F040E0BE01E6
:103510006F5F7F4FCE0180960E944F708091370D74
:10352000882319F081E08093360D0E9453500C944B
:1035300081121092360D0E94395080E194E09093F0
:10354000DF1C8093DE1C0E945E2B0C948112809104
:10355000370D882311F40C94811283E50E945C2DB1
:10356000882311F40C9481120E94C62CAB01BC017B
:103570004093B30F5093B40F6093B50F7093B60F91
:1035800082E09FE00E94EC8A0C9481128091370DBA
:10359000811103C0E7E2F4E02AC0E5E1F4E08491A0
:1035A0008F010F5F1F4F882321F00E94182FF80111
:1035B000F6CF6091B30F7091B40F8091B50F9091D9
:1035C000B60F4AE00E946E2F8FE20E94182F609182
:1035D000AF0F7091B00F8091B10F9091B20F4AE090
:1035E0000E946E2F8AE00E94182F0C948112849101
:1035F0008F010F5F1F4F882311F40C9481120E94DA
:10360000182FF801F4CF0E9482780C9481128091D7
:10361000360D81110E9480B2E0908606F0908706F8
:1036200080E50E942D2D182F882319F00E94EA2C86
:10363000182F8091370D882311F40C948112412F9B
:1036400061E0C7010E945F5483E50E945C2D8823DE
:1036500081F00E94C62CAB01BC014093B30F509384
:10366000B40F6093B50F7093B60F82E09FE00E9495
:10367000EC8A8091370D882319F081E08093360D14
:1036800011110C94811251CF80918606909187067A
:1036900021E02093350D40E060E00E945F540C94DF
:1036A00081128BE09DE00E9449B168A379A38AA3AF
:1036B0009BA3BE016F5F7F4FCE0180960E943C2E80
:1036C00060E0CE0101960E9412A4EEEDF9E1849132
:1036D0008F010F5F1F4F882321F00E94182FF801E0
:1036E000F6CFBE016F5F7F4F88E394E00E94915E4A
:1036F0008AE00E94182F0C94811283E50E945C2DB1
:10370000882311F40C9481120E94D62CE82E80E5B7
:103710000E945C2D882339F00E94C62C8B0177FF14
:1037200004C00C9481120DE010E0802FEEEEF6E064
:103730009491891303C0E8EAF9E10AC0319627E0C1
:10374000E631F207A9F70C94AC250E94182FF80176
:1037500084918F010F5F1F4F8111F7CFE5E4F4E0F3
:1037600084918F010F5F1F4F882311F40C948112F5
:103770000E94182FF801F4CF0E9439500C94811246
:103780000E9491630C9481120E9490760C94811295
:1037900088E690E00E94DB2F81110C9481128091C9
:1037A0000A1583FF02C00C94811283E50E945C2DF0
:1037B0008823D1F00E94FA2C0E9463DACB010E9488
:1037C000C4980E94FA2C20E030E04AEA52E40E94B9
:1037D00085D418163CF00E94916360E084E594E083
:1037E0000E94E5A30E94FA2C0E94915F0C94811222
:1037F0008EE40E945C2D882311F40C9481120E94A7
:10380000C62C6093AC1E7093AD1E8093AE1E909339
:10381000AF1E0C94811283E50E945C2D882319F061
:103820000E94D62C01C080E080930A15EEEDF9E1EC
:1038300084918F010F5F1F4F811103C0E4E7F4E013
:1038400004C00E94182FF801F3CF84918F010F5FFD
:103850001F4F882321F00E94182FF801F6CF809186
:103860000A15811103C0E0E7F4E034C006E6C02E7B
:1038700004E0D02EE12CF12C20E080910A1590E09C
:103880000E2C02C0959587950A94E2F780FF17C029
:10389000BB24B394B20E222319F08CE20E94182F9D
:1038A000F60185919491FC0184918F010F5F1F4F68
:1038B000882321F00E94182FF801F6CF2B2D3FEF1F
:1038C000E31AF30A82E0C80ED11C95E0E916F10470
:1038D000A1F60AC084918F010F5F1F4F882321F04A
:1038E0000E94182FF801F6CF8AE00E94182F0C943E
:1038F000811210923C020C9481128BE794E00E949A
:10390000896A0E944B850C94811283E50E945C2D8C
:10391000811103C0EEEDF9E10DC00E94D62C809319
:1039200032028D3310F40C9481128CE380933202B6
:103930000C94811284918F010F5F1F4F882321F017
:103940000E94182FF801F6CF4091320250E060E05B
:1039500070E083E894E00E943E5E8AE00E94182FA7
:103960000C94811280910A1583FF02C00C9481127D
:1039700083E50E945C2D882311F40C9481120E942F
:10398000FA2C0E9463DA6739710514F066E970E079
:103990007093A31D6093A21D0C94811289E690E0A0
:1039A0000E94DB2F811111C0EAE8F4E084918F01BD
:1039B0000F5F1F4F882321F00E94182FF801F6CFC8
:1039C0000E94AC728AE00E94182F1092181D10926B
:1039D000171D0C94192683E50E945C2D882311F491
:1039E0000C9481120E94D62C8093001D8D3318F008
:1039F0008CE38093001D0E949DB46B017C0120919B
:103A0000001D30E0A8EEB3E00E9407D9C60ED71E15
:103A1000E81EF91EC092FC1CD092FD1CE092FE1C18
:103A2000F092FF1C0C9481120E9431730C9481124D
:103A300083E50E945C2D882339F00E94C62C8B01FF
:103A40006F3F710519F010F00FEF10E080E50E9454
:103A50005C2D811106C010930915009308150C9474
:103A600081120E94D62C81110C948112F4CF80E532
:103A70000E945C2D811106C0109209151092081544
:103A80000C9481120E94C62C672B11F00C948112A9
:103A9000F3CF8CE40E942D2D882319F00E94FA2C7C
:103AA00004C060E070E080EA90EC68AB79AB8AAB70
:103AB0009BAB8AE50E945C2D882319F00E94FA2CAA
:103AC00003C060E070E0CB0120E030E040E751E46B
:103AD0000E946ED96CA77DA78EA79FA788E50E943C
:103AE0005C2D882319F00E94FA2C03C060E070E07E
:103AF000CB0120E030E042E553E40E946ED968A794
:103B000079A78AA79BA789E50E945C2D882319F0D5
:103B10000E94FA2C03C060E070E0CB0120E030E0AE
:103B20004CED52E40E946ED96CA37DA38EA39FA39B
:103B300019821A821B821C8218A219A21AA21BA225
:103B40008091731D81110C948112A12CC12CDE0176
:103B500011967D018E01005E1F4F9E012C5D3F4F2F
:103B6000AE01485D5F4FBE01645D7F4FCE01C096E0
:103B70000E94966E0C9481120E94CB980E9480B293
:103B80000E94786A109209151092081568EE73E089
:103B900080E090E00E9415960C94811281E0809361
:103BA0008D060C94811283E50E945C2D8823A1F080
:103BB0000E94FA2C20E030E04AE754E40E94EBD463
:103BC0000E946ADA60933302709334028093350264
:103BD000909336020C94811288E50E942D2D81115C
:103BE0000C94C42589E50E942D2D81110C94C425C7
:103BF0008AE50E942D2D81110C94C42585E40E9434
:103C00002D2D81110C94C4250E9480B20E94786AE7
:103C10000C94811283E50E942D2D882311F40C94BD
:103C200081120E94FA2C20E030E04AE754E40E941E
:103C3000EBD40E946ADA6093071D7093081D80938D
:103C4000091D90930A1D0C948112B9EDCB2EB2E0A0
:103C5000DB2E1BE7E12E15E1F12E10E0F60181913C
:103C60006F010E942D2D882309F46EC0133009F0D6
:103C700063C00E94FA2C4B015C0120E030E040EA76
:103C800051E40E9485D487FF4EC0A5019401609144
:103C90008715709188158091891590918A150E94D9
:103CA000F1D92B013C019B01AC016091DC147091B6
:103CB000DD148091DE149091DF140E94EBD46093A8
:103CC000DC147093DD148093DE149093DF14A30151
:103CD00092016091F8147091F9148091FA14909106
:103CE000FB140E94EBD46093F8147093F914809342
:103CF000FA149093FB1460919D1570919E1580911C
:103D00009F159091A0150E948AD4A30192010E9450
:103D1000EBD40E946ADA60939D1570939E15809390
:103D20009F159093A0158092871590928815A09268
:103D30008915B0928A1508C00E94FA2CD7016D939C
:103D40007D938D939C9313971F5FB4E0EB0EF11C52
:103D5000143009F083CF0E94E9600C9481120E9414
:103D6000182FF80184918F010F5F1F4F8111F7CF3A
:103D7000EAE5F5E003C00E94182FF80184918F0155
:103D80000F5F1F4F8111F7CFE3E4F5E003C00E94FE
:103D9000182FF80184918F010F5F1F4F8111F7CF0A
:103DA000E3E3F5E003C00E94182FF80184918F012E
:103DB0000F5F1F4F8111F7CFE2E2F5E003C00E94D1
:103DC000182FF80184918F010F5F1F4F8111F7CFDA
:103DD000E1E1F5E003C00E94182FF80184918F0102
:103DE0000F5F1F4F8111F7CFE2E0F5E003C00E94A3
:103DF000182FF80184918F010F5F1F4F8111F7CFAA
:103E0000EDEEF4E003C00E94182FF80184918F01B9
:103E10000F5F1F4F8111F7CFE7EDF4E003C00E9461
:103E2000182FF80184918F010F5F1F4F8111F7CF79
:103E3000E2ECF4E003C00E94182FF80184918F0196
:103E40000F5F1F4F8111F7CFE5EAF4E003C00E9436
:103E5000182FF80184918F010F5F1F4F8111F7CF49
:103E6000EDE8F4E084918F010F5F1F4F882311F478
:103E70000C9481120E94182FF801F4CF85E40E945F
:103E80002D2D882381F00E94EA2C882361F0EEED2D
:103E9000F9E184918F010F5F1F4F882321F00E9469
:103EA000182FF801F6CF81E40E942D2D882381F090
:103EB0000E94EA2C882361F0EEE2F6E084918F0103
:103EC0000F5F1F4F882321F00E94182FF801F6CFB3
:103ED0000091860610918706F80181918F01882351
:103EE00009F402CD0E94182FF7CF0E940BAB0C945F
:103EF000811281E0809308028093B9140C9481129E
:103F000088EC90E00E94DB2F81110C94811284E4F4
:103F10000E942D2D882309F443C00E94FA2C6B01C6
:103F20007C0111E020E030E0A9010E9485D48111DC
:103F300001C010E01093BA1420E030E0A901C701DD
:103F4000B6010E9485D4882359F10091880610E0BB
:103F50000E94FA2C000F111F000F111FF801E75FDC
:103F6000FD4F608371838283938320E030E0A90159
:103F70006091090270910A0280910B0290910C02EB
:103F80000E9485D481110CC080E090E0A0EEBFE3D8
:103F90008093090290930A02A0930B02B0930C0243
:103FA0000E9490710C948112F9EDEF2EF2E0FF2E39
:103FB00001EA15E1D7018D917D010E942D2D882305
:103FC00049F00E94FA2C0E946ADAF801608371833A
:103FD000828393830C5F1F4FF5E1013B1F0751F76D
:103FE0000E94C15F0C94811279EDE72E72E0F72EEA
:103FF0000CEE14E1ECEFCE2EE4E1DE2ED7018D9134
:104000007D010E942D2D882339F00E94FA2CF801A1
:1040100060837183828393830C5F1F4FC016D10628
:1040200069F70C94811283E50E942D2D8823D9F025
:104030000E94FA2CAB01BC014093E4145093E514A8
:104040006093E6147093E7144093E0145093E114E6
:104050006093E2147093E3148CE896E00E945B5E38
:104060008AE00E94182F80E50E942D2D882399F068
:104070000E94FA2CAB01BC014093E4145093E51468
:104080006093E6147093E7148FE696E00E945B5EFF
:104090008AE00E94182F82E50E942D2D882399F036
:1040A0000E94FA2CAB01BC014093E8145093E91430
:1040B0006093EA147093EB1480E596E00E945B5ED7
:1040C0008AE00E94182F84E50E942D2D882311F488
:1040D0000C9481120E94FA2CAB01BC014093E014B5
:1040E0005093E1146093E2147093E31482E396E03A
:1040F0000E945B5E8AE00E94182F0C94811283E577
:104100000E942D2D882351F00E94FA2C60930415F3
:1041100070930515809306159093071584E50E940A
:104120002D2D882351F00E94FA2C60930015709376
:104130000115809302159093031582E40E942D2DA2
:10414000882351F00E94B62C6093FC147093FD14E8
:104150008093FE149093FF1488E50E942D2D8823F0
:1041600051F00E94FA2C6093D0147093D114809374
:10417000D2149093D31489E50E942D2D882351F0F9
:104180000E94FA2C6093D4147093D5148093D614A3
:104190009093D7148AE50E942D2D882351F00E9418
:1041A000FA2C6093D8147093D9148093DA149093F6
:1041B000DB1485E40E942D2D882311F40C948112C8
:1041C0000E94FA2C6093DC147093DD148093DE144B
:1041D0009093DF140C948112D7018D917D010E9480
:1041E0002D2D882339F00E94FA2CAB01BC01C801A7
:1041F0000E94042B0F5F1F4F0330110569F70E94C7
:10420000B72B0E94128A0C94811284918F010F5F48
:104210001F4F882321F00E94182FF801F6CF83E565
:104220000E942D2D882321F00E94EA2C80933702D2
:10423000EEEDF6E084918F010F5F1F4F882321F090
:104240000E94182FF801F6CF80913702882319F0C9
:10425000E4EDF6E002C0E9EDF6E084918F010F5F36
:104260001F4F811103C0ECECF6E004C00E94182F30
:10427000F801F3CF84918F010F5F1F4F882321F046
:104280000E94182FF801F6CF4091F01C5091F11CBC
:104290006091F21C7091F31C8AEC96E00E945B5EC8
:1042A0004091F41C5091F51C6091F61C7091F71C24
:1042B00087EC96E00E945B5E4091F81C5091F91CDF
:1042C0006091FA1C7091FB1C84EC96E00E945B5E8E
:1042D000ECEBF6E084918F010F5F1F4F882321F0F4
:1042E0000E94182FF801F6CF409126025091270224
:1042F00060912802709129028AEB96E00E945B5E31
:1043000040912A0250912B0260912C0270912D0253
:1043100087EB96E00E945B5E40912E0250912F0247
:10432000609130027091310284EB96E00E945B5EF6
:104330008AE00E94182F0C94811283E50E945C2D64
:10434000882311F40C9481120E94C62C70939F0252
:1043500060939E020C9481128DED90E00E94DB2F01
:1043600081110C94811283E50E945C2D882311F445
:104370000C9481120091880610E00E94C62C000F58
:10438000111FF801E35FFD4F718360830C9481126C
:1043900080E50E942D2D882311F40C9481120E9437
:1043A000C62CF62EC62ED72E83E50E945C2D8823C0
:1043B00021F00E94C62C8B0102C00FEF1FEFC80135
:1043C0000196039710F00C948112D7FE02C00C9452
:1043D0008112EEEEF6E08491F81611F40C9481123D
:1043E0003196B7E0E631FB07B1F7FAC383E50E94E7
:1043F0005C2D882319F00E94C62C02C064E071E095
:1044000079A368A380E50E945C2D882339F00E947F
:10441000C62C6938E3E17E0730F402C068EE73E031
:104420007A83698304C088E893E19A838983BE0113
:10443000605E7F4FCE0101960E94CA500C9481129B
:1044400085E40E945C2D811110C080E50E942D2D15
:10445000882391F00E94FA2C6093CB027093CC02D7
:104460008093CD029093CE0207C00E94D62C882361
:1044700061F3E8EAF9E172C089E40E942D2D8823F6
:1044800081F00E94FA2C2CEA35EC47E25EE30E94B0
:10449000EBD46093C7027093C8028093C9029093D3
:1044A000CA0284E40E942D2D882381F00E94FA2CF8
:1044B0002CEA35EC47E25EE30E94F1D96093CF022B
:1044C0007093D0028093D1029093D202EEEDF9E185
:1044D00084918F010F5F1F4F882321F00E94182FB6
:1044E000F801F6CF4091CB025091CC026091CD0201
:1044F0007091CE028EE197E00E945B5E2CEA35EC73
:1045000047E25EE36091C7027091C8028091C902E0
:104510009091CA020E94F1D9AB01BC018AE197E0F7
:104520000E945B5E2CEA35EC47E25EE36091CF02CD
:104530007091D0028091D1029091D2020E94EBD46E
:10454000AB01BC0186E197E00E945B5E8AE00E94BD
:10455000182F0C9481120E94182FF80184918F015A
:104560000F5F1F4F8111F7CF09E813E0D8018D913C
:104570008D01882309F4B8C90E94182FF7CF80E570
:104580000E942D2D882351F00E94FA2C6093C302C3
:104590007093C4028093C5029093C60289E40E947E
:1045A0002D2D882381F00E94FA2C2CEA35EC47E26D
:1045B0005EE30E94EBD46093BF027093C0028093CD
:1045C000C1029093C20284E40E942D2D882381F0C1
:1045D0000E94FA2C2CEA35EC47E25EE30E94F1D906
:1045E0006093BB027093BC028093BD029093BE02A5
:1045F000EEEDF9E184918F010F5F1F4F882321F0C9
:104600000E94182FF801F6CF4091C3025091C402C6
:104610006091C5027091C6028AE297E00E945B5EDB
:104620002CEA35EC47E25EE36091BF027091C00274
:104630008091C1029091C2020E94F1D9AB01BC01EC
:1046400086E297E00E945B5E2CEA35EC47E25EE38F
:104650006091BB027091BC028091BD029091BE023C
:104660000E94EBD4AB01BC0182E297E00E945B5E4A
:104670008AE00E94182F0C94811283E50E942D2D50
:10468000182F882371F00E94FA2C0E9463DA70932D
:10469000200260931F0221E0672B09F020E02093A5
:1046A000B11580E50E942D2D882361F020911F0215
:1046B00030912002232B11F00E94EA2C8093B11537
:1046C0000C94811211110C948112EEEDF9E1849198
:1046D0008F010F5F1F4F882321F00E94182FF801D0
:1046E000F6CF8091B115882319F065EB75E002C013
:1046F00065E873E083E497E00E94915E60911F0299
:104700007091200282E397E00E94785EEEE2F7E08B
:1047100084918F010F5F1F4F882311F40C94811235
:104720000E94182FF801F4CF0E9480B20C948112DD
:1047300086E50E942D2D882389F08091CF1480FF7B
:104740000DC003E817E0F8018491882329F00F5F7A
:104750001F4F0E94182FF7CF0E9457CE83E50E946B
:104760002D2D182F882319F00E94EA2C182F83E58D
:104770000E942D2D882319F0812F0E94232A8091D9
:10478000CF148270F82E111103C0EEEDF9E119C0BB
:104790008111FBCF08EA19E1F8018491811103C06E
:1047A00004E617E005C00F5F1F4F0E94182FF4CFDB
:1047B000F8018491882349F30F5F1F4F0E94182F3F
:1047C000F7CF84918F010F5F1F4F882321F00E9444
:1047D000182FF801F6CFFF2019F06BE773E002C045
:1047E00060E873E086E597E00E94915E8AE00E94AF
:1047F000182F0C9481120E9452840C948112ACA93F
:10480000BDA98D91BDABACAB882309F486C0F50181
:104810004080518062807380D1012D913D914D91F6
:104820005C91F60160817181828193810E946ED9D1
:1048300020E030E040E05FE30E94EBD49B01AC015C
:10484000C301B2010E94F1DA181654F4F701859100
:104850009591A591B4918EAB9FABA8AFB9AF04C0B1
:104860001EAA1FAA18AE19AED4012D913D914D91EB
:104870005C91C301B2010E946DD99B01AC016EA98C
:104880007FA988AD99AD0E946DD92B013C0120E034
:1048900030E040EA51EC0E94F1DA87FD0AC020E0E6
:1048A00030E040EA51E4C301B2010E9485D41816F9
:1048B0001CF4E8EAF9E109C0B301A201C8010E94B1
:1048C000042B2BC00E94182FF80184918F010F5FD9
:1048D0001F4F8111F7CFE8EBF7E084918F010F5F55
:1048E0001F4F882321F00E94182FF801F6CF61E0B6
:1048F0008AEA97E00E94E5A388E290E09A838983A0
:1049000088EC90E099A388A3BE016F5F7F4FCE0132
:1049100080960E94CA500C9481120F5F1F4FB4E022
:104920008B0E911CE4E0AE0EB11CF4E0CF0ED11C56
:1049300024E0220E311C34E0E30EF11C033011059B
:1049400009F05DCF0E94B72B0E94128A60E089E9CE
:1049500097E00E94E5A383E992E099A388A304E687
:1049600010E01A830983BE01605E7F4FCE0101967D
:104970000E94CA508AEB92E099A388A31A83098304
:10498000BE01605E7F4FCE0101960E94CA500C941A
:1049900081120E94179A8CEF98E09A83898306E42B
:1049A00010E019A308A3BE016F5F7F4FCE01809670
:1049B0000E94CA5084E59BE09A83898319A308A3C7
:1049C000BE016F5F7F4FCE0180960E94CA500C944B
:1049D00081120E949B398CEF98E09A83898306E4C8
:1049E00010E019A308A3BE016F5F7F4FCE01809630
:1049F0000E94CA5084E59BE09A83898319A308A387
:104A0000BE016F5F7F4FCE0180960E94CA500C940A
:104A1000811283E50E942D2D882319F00E94EA2C33
:104A200001C081E091E089270E94BA350C9481127F
:104A300083E50E942D2D882311F40C9481120E948D
:104A4000EA2C809318120C9481120E94BB820C9461
:104A500081120E94182FF80184918F010F5F1F4F60
:104A60008111F7CFE6EDF7E084918F010F5F1F4FC3
:104A7000882311F40C9481120E94182FF801F4CFAE
:104A800081E08093BA021092D11D83E50E942D2D02
:104A9000811104C00E94ADB50C9481120E94EA2CD1
:104AA00081110C948112F6CFF0908F06FF2029F12E
:104AB000EEEDF9E184918F010F5F1F4F882321F004
:104AC0000E94182FF801F6CF84E50E94182F6F2D51
:104AD00070E080E090E04AE00E946E2F80E20E9449
:104AE000182F09E813E0D8018D918D01882311F466
:104AF0000C94741C0E94182FF6CF1092711DEEEDCD
:104B0000F9E184918F010F5F1F4F882321F00E94EC
:104B1000182FF801F6CF6091711D70E085EE97E0D7
:104B20000E94785E8AE00E94182F0C948112609196
:104B3000860670918706672B39F4BF0161507109B1
:104B4000709387066093860660E070E00C94101303
:104B50001092721D0C94811261E0802F0E945EB34E
:104B60006E2D802F0E942FB3F12CB701802F0E9451
:104B70009AB30930110511F00C948112F0920915C5
:104B8000E09208150C9481120E9480B288E50E9480
:104B90002D2D882319F05F9A1092FA1189E50E9451
:104BA0002D2D882319F08A9A1092FB118AE50E9414
:104BB0002D2D882351F09FB7F894809108018160D2
:104BC000809308019FBF1092FC1185E40E942D2D57
:104BD000882311F40C9481120E94766A0C9481123D
:104BE0000E9480B260E08F2D0E945EB30F3FBFEF46
:104BF0001B0759F48F2D0E9406B331E020E0892B6A
:104C000009F030E0032F122F05C00130110571F4B7
:104C100001E010E08F2D0E9406B38017910711F478
:104C20000C94811280E00E94C66AF4CF00E010E08C
:104C3000F1CFE9960FB6F894DEBF0FBECDBFDF917E
:104C4000CF911F910F91FF90EF90DF90CF90BF9089
:104C5000AF909F908F907F906F905F904F903F901C
:104C60002F9008959091EA11E92FF0E0E25FFD4E58
:104C700080839F5F9A3018F49093EA1102C01092DB
:104C8000EA118091B7148F5F8093B71408958FB79E
:104C9000F8949091AB1E2091AA1E921759F0E92F1B
:104CA000F0E0E65DF14E208130E09F5F9F779093CA
:104CB000AB1E02C02FEF3FEF8FBFC90108950895CB
:104CC00080E090E008952F923F924F925F926F9212
:104CD0007F928F929F92AF92BF92CF92DF92EF928C
:104CE000FF920F931F93CF93DF9300D000D0CDB7E7
:104CF000DEB79A8389830E949DB4E981FA81C680D8
:104D0000D780E084F184C114D104E104F10409F0F6
:104D1000ACC22485222309F469C33285215024873B
:104D200021E0230F22874585241301C01286E981E3
:104D3000FA8124E0329FE00DF11D1124C684D7844E
:104D4000E088F188E981FA81C282D382E482F58227
:104D5000DC01CB018C0D9D1DA11DB11D86839783A8
:104D6000A087B18784819581892B09F43FC3FFB760
:104D7000FD83F894E981FA81228033802101612C3E
:104D8000712C0481158180914102853221F08F3F81
:104D900009F068C205C0EFEBF0E224912E83DAC07F
:104DA00085E280934102EFEBF0E284918E838F3FA6
:104DB00009F458C2823009F469C030F5882309F437
:104DC0004CC0813009F0C6C0109280001092810062
:104DD0008091810088608093810080918100816052
:104DE00080938100E1E8F2E2E491F0E0EE0FFF1F32
:104DF000E85DFD4D85919491E7ECF2E2E491E0935A
:104E00008D11E1E0EE8330C19E81943009F482C0BF
:104E100008F460C0953009F09DC0109220011092F6
:104E200021018091210188608093210180912101DD
:104E3000816080932101E1E8F2E2E491F0E0EE0F7D
:104E4000FF1FE85DFD4D85919491E7ECF2E2E4915E
:104E5000E0938A1195E09E8307C114BC15BC84B50C
:104E6000826084BD85B5816085BDE1E8F2E2E491B0
:104E7000F0E0EE0FFF1FE85DFD4D85919491E7ECAA
:104E8000F2E2E491E0938E111E82ABC21092B00068
:104E90001092B1008091B00082608093B000809148
:104EA000B10081608093B100E1E8F2E2E491F0E0CA
:104EB000EE0FFF1FE85DFD4D859194919093B31D1A
:104EC0008093B21DE7ECF2E2E491E093B41DF2E0CE
:104ED000FE8387C210929000109291008091910001
:104EE000886080939100809191008160809391000F
:104EF000E1E8F2E2E491F0E0EE0FFF1FE85DFD4D26
:104F000085919491E7ECF2E2E491E0938C1123E037
:104F10002E83AAC01092A0001092A1008091A1003F
:104F200088608093A1008091A10081608093A1009E
:104F3000E1E8F2E2E491F0E0EE0FFF1FE85DFD4DE5
:104F400085919491E7ECF2E2E491E0938B1184E097
:104F50008E838AC0EE81E7FD85C161E085E20E9413
:104F60005EB38E818D7F09F083C04801A12CB12CE6
:104F700060E072E18AE790E0A50194010E943ED9C9
:104F800029833A834B835C8369017A01F1E0CF1A6C
:104F9000D108E108F1082FEFC216D104E104F104B1
:104FA00009F008F44EC060E472E48FE090E0A501DF
:104FB00094010E943ED969017A0181E0C81AD108A2
:104FC000E108F1089E81923009F5EFEFCE16D10489
:104FD000E104F10409F008F4CBC160E970ED83E06D
:104FE00090E0A50194010E943ED969017A01F1E0A7
:104FF000CF1AD108E108F1082FEFC216D104E1045D
:10500000F10411F008F041C183E027C08FEFC8160A
:10501000D104E104F104B9F0B0F068E478EE81E085
:1050200090E0A50194010E943ED969017A0191E0C6
:10503000C91AD108E108F108EE81EE2309F49AC1FA
:1050400063C181E001C082E09E81911106C095B5E7
:10505000987F892B85BD7AC085E09091B100987FBB
:10506000892B8093B10072C061E085E20E945EB33B
:105070004801A12CB12C60E072E18AE790E0A50123
:1050800094010E943ED969017A01E1E0CE1AD1086B
:10509000E108F108C114D104F1E0EF06F10488F051
:1050A00068E478EE81E090E0A50194010E943ED989
:1050B00069017A0181E0C81AD108E108F10883E0AA
:1050C00001C081E09E81913071F490918100987FC0
:1050D000892B80938100452846284728D9F52FEF52
:1050E0003FEFA90168C0EE81E33071F49091910027
:1050F000987F892B8093910045284628472851F5B1
:105100002FEF3FEFA90179C0FE81F43071F4909147
:10511000A100987F892B8093A10045284628472825
:10512000C9F42FEF3FEFA9017AC02E81253071F429
:1051300090912101987F892B809321014528462851
:10514000472841F42FEF3FEFA9017BC045284628AF
:10515000472869F0D801AA0FBB1F91010E9407D907
:1051600028EE33E040E050E00E94DAD803C02FEF91
:105170003FEFA9018E81823081F12CF4882361F008
:105180008130C9F06FC09E81943009F448C0ACF101
:10519000953009F456C066C0C7BC20939F11309368
:1051A000A0114093A1115093A21180916E008260D2
:1051B00080936E0057C0D0928900C09288002093DF
:1051C0009B1130939C1140939D1150939E1180919F
:1051D0006F00826080936F0045C0C092B30020933F
:1051E000B51D3093B61D4093B71D5093B81D8091E7
:1051F000700082608093700035C0D0929900C09298
:1052000098002093971130939811409399115093DF
:105210009A118091710082608093710023C0D092B6
:10522000A900C092A8002093931130939411409349
:105230009511509396118091720082608093720054
:1052400011C0D0922901C092280120938F11309370
:10525000901140939111509392118091730082604C
:1052600080937300ED81EFBFC1C0DC01CB018C19CD
:105270009D09AE09BF09B7FDB9C04098E981FA811F
:105280001682178210861186B1C068E478EE81E03C
:1052900090E0A50194010E943ED969017A01F1E0F4
:1052A000CF1AD108E108F1082FEFC216D104E104AA
:1052B000F10441F138F164E274EF80E090E0A5017F
:1052C00094010E943ED969017A01F1E0CF1AD10818
:1052D000E108F1082FEFC216D104E104F10409F04E
:1052E00008F4BACE62E17AE780E090E0A50194018B
:1052F0000E943ED969017A0181E0C81AD108E1080B
:10530000F10819C084E0A9CE2FEFC216D104E10440
:10531000F10409F008F463C062E17AE780E090E00C
:10532000A50194010E943ED969017A01F1E0CF1AEA
:10533000D108E108F1082FEFC216D104E104F1040D
:10534000A9F0A0F089819A81AB81BC812AE0B59552
:10535000A795979587952A95D1F76C017D01F1E086
:10536000CF1AD108E108F10887E077CE86E075CE44
:1053700082E073CEEFEFCE16D104E104F10469F1BF
:1053800060F162E17AE780E090E0A50194010E947B
:105390003ED969017A0181E0C81AD108E108F10813
:1053A0009FEFC916D104E104F104A9F0A0F08981AE
:1053B0009A81AB81BC813AE0B595A7959795879581
:1053C0003A95D1F76C017D01E1E0CE1AD108E108F0
:1053D000F10885E03CCE84E03ACE83E038CE84E02C
:1053E00033CE61E085E20E945EB3BFCD26960FB654
:1053F000F894DEBF0FBECDBFDF91CF911F910F910B
:10540000FF90EF90DF90CF90BF90AF909F908F90E4
:105410007F906F905F904F903F902F90089582EC17
:105420009FE00E94C29221E0892B09F420E0822FA4
:1054300008958FE590E10E94C29221E0892B09F442
:1054400020E0822F08959091CF1491FB222720F91C
:105450008217C9F081110EC043E755E16FE675E18F
:105460008BE695E10E94144F8091CF148D7F80933D
:10547000CF14089590FFF8CF92609093CF148BE6ED
:1054800095E10C94AC5E089580E00E94232A8091FF
:10549000CF1480FF07C00E941DAA8091CF148E7F79
:1054A0008093CF1408958F929F92AF92BF92CF9224
:1054B000EF92FF920F931F93CF93DF93CDB7DEB799
:1054C0002C970FB6F894DEBF0FBECDBF4B015C0129
:1054D000C090711DE0EEFCE180859185A285B385C9
:1054E00044815581668177810081118122813381D8
:1054F00009831A832B833C834D835E836F83788774
:1055000089879A87AB87BC87AE01475F5F4FBE0133
:105510006B5F7F4FCE0101960E94144F850174018D
:105520002CEE3CE1AE01475F5F4FBE016B5F7F4FEA
:10553000CE0101960E947C402C960FB6F894DEBFF7
:105540000FBECDBFDF91CF911F910F91FF90EF90D4
:10555000CF90BF90AF909F908F900895CF92DF92A1
:10556000EF92FF920F931F93CF93DF93EC01CC0F39
:10557000DD1FCC0FDD1FFE01EE5FFD4E20E030E0B1
:10558000A90160817181828193810E946ED9FE019F
:10559000E55FF24E20813181428153810E946ED9B4
:1055A0006B017C01FE01EE54FA4E608371838283AD
:1055B0009383FE01ED53F64F25913591459154911A
:1055C0008E010051134E0E946ED9F80160837183E1
:1055D00082839383FE01E153F64F259135914591E6
:1055E0005491CA5DDD4FC701B6010E946ED9688330
:1055F00079838A839B83DF91CF911F910F91FF90D5
:10560000EF90DF90CF9008958F929F92AF92BF92CC
:10561000EF92FF920F931F93CF93DF938C014A0178
:105620005B01EC01CC0FDD1FCC0FDD1FCE018559D6
:105630009A4E7C01CE5FDD4E288139814A815B81A3
:10564000C501B4010E946DD9F701208131814281E9
:1056500053810E946ED9F7016083718382839383A3
:1056600088829982AA82BB82C801DF91CF911F9163
:105670000F91FF90EF90BF90AF909F908F900C9400
:10568000AE2ACF93FC0120812B33A9F02091B714CF
:105690002A3088F4C62FBC018091EA11F0E48F9F74
:1056A000C00111248A5C9D4E0E94B5DC8C2F0E94A3
:1056B000322681E001C080E0CF910895DF92EF9221
:1056C000FF920F931F93CF93DF93CDB7DEB76E9703
:1056D0000FB6F894DEBF0FBECDBF6091DE1C709197
:1056E000DF1C6115710549F14DE150E0CE010196D5
:1056F0007C010E94FFD31E8EF7018F010E191F0936
:10570000D190DD2019F09AE0D912F7CFF701E00F20
:10571000F11F1082C7010E946E64882371F0DD20A2
:10572000A9F00F5F1F4F8091DE1C9091DF1C080FC6
:10573000191F1093DF1C0093DE1C81E02091DE1CFA
:105740003091DF1C232B29F480E003C000E010E03F
:10575000F0CF6E960FB6F894DEBF0FBECDBFDF91CF
:10576000CF911F910F91FF90EF90DF9008950F93CD
:105770001F93CF93DF93CDB7DEB72C970FB6F89476
:10578000DEBF0FBECDBFEBE6F5E180859185A2853A
:10579000B3854481558166817781008111812281A1
:1057A000338109831A832B833C834D835E836F830C
:1057B000788789879A87AB87BC87AE01475F5F4F41
:1057C000BE016B5F7F4FCE0101960E94144F27E709
:1057D00035E1AE01475F5F4FBE016B5F7F4FCE018A
:1057E00001960E941C602C960FB6F894DEBF0FBE87
:1057F000CDBFDF91CF911F910F9108954F925F928E
:105800006F927F928F929F92AF92BF92CF92DF92D0
:10581000EF92FF920F931F93CF93DF93CDB7DEB735
:105820002C970FB6F894DEBF0FBECDBF2A013B0107
:10583000B22ED32E7C01EE0CFF1CEE0CFF1CC70118
:1058400085599A4E4C01FC011082118212821382FA
:105850000E94B72BF4014082518262827382C09011
:10586000711D20E030E0A901B8018B2D9D2D0E9413
:1058700085D481110CC0F701E552F54E85919591C3
:10588000A591B491982EA92EBA2EDB2E02C0902E8F
:10589000A12E8091731590917415A0917515B091FA
:1058A000761540916F15509170156091711570913A
:1058B000721500916B1510916C1520916D1530913A
:1058C0006E1509831A832B833C834D835E836F831C
:1058D000788789879A87AB87BC87AE01475F5F4F20
:1058E000BE016B5F7F4FCE0101960E94144FE92CE1
:1058F000FA2C0B2D1D2D27E735E1AE01475F5F4FD9
:10590000BE016B5F7F4FCE0101960E947C400E94DA
:1059100080B2109235122C960FB6F894DEBF0FBEEF
:10592000CDBFDF91CF911F910F91FF90EF90DF904E
:10593000CF90BF90AF909F908F907F906F905F902F
:105940004F90089580E1EBE6F5E1A0EEBCE1019017
:105950000D928A95E1F7089580E1E0EEFCE1ABE677
:10596000B5E101900D928A95E1F708958091881133
:1059700090918911009731F04AE050E060E070E0CA
:105980000C94C6D260E070E0CB010895809188113C
:1059900090918911009731F04AE050E060E070E0AA
:1059A0000C9498D160E070E0CB0108950E94C62C61
:1059B00097FD0CC00E94C62C6F3F710581059105B3
:1059C00009F034F40E94C62C862F089580E00895D3
:1059D0008FEF08958091881190918911892B39F06A
:1059E0000E94D62C91E0811103C090E001C091E0AB
:1059F000892F08950F931F93CF93809188119091D1
:105A000089110097F1F0FC018F01C1912C2F2F7D9E
:105A100089F0C53411F0C536B9F7F801108260E09D
:105A200070E00E943CD0F801C083562F472F382FDA
:105A3000292F0BC060E070E0CF911F910F910C9463
:105A40003CD050E040E030E020E0652F742F832F01
:105A5000922FCF911F910F91089581548A3150F563
:105A6000482F50E0FA0193E0F595E7959A95E1F714
:105A7000EE57F94F208130E0877002C035952795A9
:105A80008A95E2F7822F817020FF15C0FA01E8594C
:105A9000F94F9081992339F02091011D3091021D19
:105AA000290F311D02C020E030E03093891120938E
:105AB0008811089580E008950E942D2D882341F0DB
:105AC00081E02091881130918911232B09F480E025
:105AD0000895FC01238121110C94D68B08950E9416
