:100000000C947C100C94AD100C94AD100C94AD10AD
:100010000C94AD100C94AD100C94AD100C94AD106C
:100020000C94AD100C94AD100C94AD100C94AD105C
:100030000C94AD100C9409810C94AD100C94AD107F
:100040000C94AD100C94E75A0C94AD100C94AD10B8
:100050000C94AD100C94AD100C947A840C9415B0E3
:100060000C94AD100C9473310C94A1310C94AD1020
:100070000C94AD100C94AD100C94AD100C94AD100C
:100080000C94AD100C94AD100C94AD100C94AD10FC
:100090000C94AD100C94AD100C94AD100C94AD10EC
:1000A0000C94AD100C94AD100C94AD100C94AD10DC
:1000B0000C94AD100C94AD100C94AD100C94AD10CC
:1000C0000C94AD100C94AD100C94AD100C94FE314A
:1000D0000C94D4310C94AD100C94AD100C94AD1064
:1000E0000C94AD10B73BF93B2D3C7E3CB33C6A3DD4
:1000F000D43CDC3DFD3C323DE999089C189C189CA1
:10010000189C559C579C579C579C579C1B9C559CD6
:10011000579C279C60AE63AE52AE56AE5CAE9AAEB4
:1001200067AE6BAE71AE75AE79AE7FAE83AE87AEA5
:100130009AAE8DAE91AE95AE2FAF34AF39AF43AF1F
:100140004DAFC6AF57AF5FAF67AF71AF7BAF85AF96
:1001500094AF9EAFC6AFA8AFB2AFBCAF0C944D7218
:100160000C9479AE0C9471AF0C9428710C9463AE1E
:100170000C947BAF0C947E3C0C947B250C94579C88
:100180000C944DAF0C9434AF0C947E250C94976F67
:100190000C94B2AF0C9464710C9439AF0C9460AEB3
:1001A0000C945CAE0C942FAF0C94EA6F0C940E8000
:1001B0000C94F09E0C94DC3D0C949EAF0C94FD6E60
:1001C0000C9485730C94BCAF0C9443AF0C9495AE17
:1001D0000C94216E0C947A250C94279C0C945FAFA0
:1001E0000C94D43C0C94189C0C9438800C94ADB0B6
:1001F0000C9487AE0C941B9C0C9494AF0C947BA233
:100200000C9447800C9447C70C9494720C9467AF7D
:100210000C9467AE0C94E9990C9405710C9471AE32
:100220000C9457AF0C94F93B0C94879D0C94467139
:100230000C9491AE0C9469800C9452AE0C9483AEE5
:100240000C9417820C94FD3C0C948DAE0C947FAEF4
:100250000C94C6AF0C94B56E0C94C96F0C94386EA8
:100260000C945B800C94323D0C94B73B0C94D36E91
:100270000C94B33C0C94559C0C9485AF0C94407337
:100280000C94AA800C94CA810C9456AE0C946A3DCE
:100290000C94A8AF0C949AAE0C940F740C946BAEA3
:1002A0000C942D3C0C9411710C94CFA80C94089CC8
:1002B0000C9475AE4E414E494E495459494E46CD67
:1002C000CCCC3D0AD7233C17B7D13877CC2B32950D
:1002D00095E6241FB14F0A000020410000C84200EB
:1002E000401C4620BCBE4CCA1B0E5AAEC59D744372
:1002F0004F4D4D554E49434154494F4E004452597C
:1003000052554E004552524F525300494E464F00EF
:100310004543484F00557370696A2E2E2E004D35A7
:1003200030300059206F7574206F662072616E67DF
:10033000652028312D32292E0A0058206F7574202F
:100340006F662072616E67652028312D32292E0A72
:10035000004D6573682070726F62696E6720646F0C
:100360006E652E0A005374617274206D6573682087
:1003700070726F62696E67207769746820224732F5
:1003800039205331222066697273742E0A00473275
:10039000380A4732392053320053746174653A2069
:1003A000004D65736820626564206C6576656C69D4
:1003B0006E6720686173206E6F20646174612E0A1D
:1003C0000053206F7574206F662072616E67652020
:1003D00028302D35292E0A004D65736820706F690D
:1003E0006E742063616E6E6F742062652072657337
:1003F0006F6C7665640A004F637A656B6977616E2E
:1004000069652E2E2E004D30004272616B20727590
:1004100063687500456E642066696C65206C69735D
:10042000740A00426567696E2066696C65206C69B4
:1004300073740A004D313235005344207072696E76
:1004400074696E67206279746520004E6F74205362
:1004500044207072696E74696E670A005072696E2A
:10046000742074696D653A200050726F746563740E
:1004700065642050696E0A005072696E746F20487E
:100480003320546F77657220676F746F77612E0029
:1004900010030B030403FD02EF026F666600444580
:1004A0004255473A0055626974792E20004D31312A
:1004B000332053006F6B004361703A454D455247FE
:1004C000454E43595F5041525345523A300A00431A
:1004D00061703A434153455F4C494748545F42522B
:1004E000494748544E4553533A300A004361703AE5
:1004F000544F47474C455F4C49474854533A300A9C
:10050000004361703A534F4654574152455F504F34
:100510005745523A300A004361703A4C4556454CB3
:10052000494E475F444154413A310A004361703AB1
:100530005A5F50524F42453A300A004361703A4187
:1005400055544F4C4556454C3A300A004361703A79
:100550005052494E545F4A4F423A310A004361704B
:100560003A50524F47524553533A300A0043617054
:100570003A4155544F5245504F52545F54454D5097
:100580003A310A004361703A454550524F4D3A3175
:100590000A004649524D574152455F4E414D453A3A
:1005A0004D61726C696E20312E332E3162202847E6
:1005B00069746875622920534F555243455F434F14
:1005C00044455F55524C3A68747470733A2F2F67E4
:1005D00069746875622E636F6D2F4D61726C696E00
:1005E0004669726D776172652F4D61726C696E201C
:1005F00050524F544F434F4C5F56455253494F4E04
:100600003A312E30204D414348494E455F545950B0
:10061000453A5072696E746F20483320546F776585
:10062000722045585452554445525F434F554E54DD
:100630003A3120555549443A636564653261326602
:100640002D343161322D343734382D396231322D29
:100650006335356336326633363766660A002F2FC8
:10066000200053657474696E672054726176656CFE
:1006700020416363656C65726174696F6E3A200036
:1006800053657474696E6720526574726163742077
:10069000416363656C65726174696F6E3A200053E3
:1006A000657474696E67205072696E74204163636B
:1006B000656C65726174696F6E3A2000536574747D
:1006C000696E67205072696E7420616E6420547286
:1006D0006176656C20416363656C65726174696FF6
:1006E0006E3A2000205A00205900580020204D6109
:1006F000783A2000205A00205900580020204D69E7
:100700006E3A2000576C2E200057796C2E00536FE4
:10071000667420656E6473746F70733A2000000114
:10072000363726FF023C3D380EFF2E303EFF13FFCA
:100730000C0809FFFFFF1A1C18FFFF08440AFF43BB
:10074000FFFFFFFFFFFF20643A0020693A0020709E
:100750003A0020643A0020693A0020703A004329A8
:100760000A0061626C656420286D696E2074656D95
:10077000702000436F6C64206578747275646573D3
:10078000206172652000426564204C6576656C6965
:100790006E6720004661696C656420746F20656E29
:1007A00061626C6520426564204C6576656C696E9B
:1007B000670A004D65736820426564204C65766564
:1007C0006C20646174613A0A004D65736820706F33
:1007D000696E742063616E6E6F742062652072654D
:1007E000736F6C7665640A004D34323120696E6334
:1007F0006F727265637420706172616D6574657289
:100800002075736167650A00506F7A2E207A6572D1
:100810006F7761207573742E004572723A20546FA1
:100820006F206661722100546F6F206661722066CE
:10083000726F6D207265666572656E636520706F9C
:10084000696E740A004E6F2063617365206C69677E
:1008500068740A004163746976652045787472751E
:100860006465723A2000556E6B6E6F776E20636F11
:100870006D6D616E643A2022002569730025696DF3
:1008800020256973002569682025696D2025697315
:1008900000256964202569682025696D2025697314
:1008A0000025697920256964202569682025696DFE
:1008B000202569730055626974792E20005A61748D
:1008C000727A796D616E792E20005072696E74654E
:1008D000722073746F707065642064756520746F26
:1008E000206572726F72732E204669782074686575
:1008F000206572726F7220616E6420757365204D81
:1009000039393920746F20726573746172742E20C6
:100910002854656D70657261747572652069732005
:1009200072657365742E2053657420697420616646
:100930007465722072657374617274696E67290AD6
:10094000004E6F204C696E65204E756D6265722099
:100950007769746820636865636B73756D2C204CD0
:10096000617374204C696E653A20004E6F204368B5
:1009700065636B73756D2077697468206C696E654B
:10098000206E756D6265722C204C617374204C6909
:100990006E653A2000636865636B73756D206D69E1
:1009A000736D617463682C204C617374204C696EA4
:1009B000653A20004C696E65204E756D6265722047
:1009C0006973206E6F74204C617374204C696E657E
:1009D000204E756D6265722B312C204C6173742032
:1009E0004C696E653A20004D313130004D33310095
:1009F0004D383420582059205A2045005344207245
:100A0000656164206572726F720A00446F6E6520C2
:100A10007072696E74696E672066696C650A002081
:100A2000496E76616C69642065787472756465726C
:100A30002000000000000000000000000000000096
:100A40004D43000052430000CB4339363030204F35
:100A50004B202D3E20545259203131350A00393671
:100A60003030204641494C202D3E205452592031EF
:100A700031350A004E657874696F6E20636F6E6E53
:100A80006563746564210A004E657874696F6E2031
:100A90006E6F7420636F6E6E6563746564210A0007
:100AA0002020506C616E6E6572427566666572429A
:100AB000797465733A20002046726565204D656D36
:100AC0006F72793A2000436F6D70696C65643A20EB
:100AD00041756720203520323032300A00207C20DA
:100AE000417574686F723A20285072696E746F3362
:100AF000642E706C2C204A616B75622053696B6F99
:100B00007261290A00323032302D30372D313300F6
:100B1000204C61737420557064617465643A2000E0
:100B2000312E332E31620A004D61726C696E0020E5
:100B3000536F6674776172652052657365740A003D
:100B4000205761746368646F672052657365740A27
:100B5000002042726F776E206F7574205265736546
:100B6000740A002045787465726E616C205265735A
:100B700065740A00506F77657255700A007374616E
:100B800072740A006572726F722077726974696E8E
:100B90006720746F2066696C650A00205A3A00204D
:100BA000593A0020583A00656E6473746F70732070
:100BB0006869743A2000446F6E6520736176696ECF
:100BC000672066696C652E0A004D323900206E6F11
:100BD0007420656E74657265642E0A000A4D656145
:100BE000737572656420706F696E74733A0A005A87
:100BF000206F66667365743A20004E756D20582C20
:100C0000593A20322C320A0046696C652064656CC2
:100C1000657465643A0044656C6574696F6E20663E
:100C200061696C65642C2046696C653A20006F70C0
:100C3000656E206661696C65642C2046696C653A56
:100C400020006D0046696C616D656E74207573657A
:100C5000643A200053746174733A20002C204C6F66
:100C60006E67657374206A6F623A2000546F746116
:100C70006C2074696D653A200053746174733A2076
:100C8000002C204661696C65643A20002C2046697E
:100C90006E69736865643A20005072696E74733AC5
:100CA000200053746174733A2000202F00204240CA
:100CB0003A0020403A00526F7A67727A616E6F0094
:100CC00020573A005072696E746F20483320546F79
:100CD00077657220676F746F77612E0000002000C7
:100CE0002300260029002C002F0032000001000004
:100CF000030106010901050505050705080808089F
:100D0000020202020A0A08080404040401010101A3
:100D1000010101010303030303030303040707079E
:100D20000C0C0C0C0C0C0C0C020202020606060643
:100D3000060606060B0B0B0B0B0B0B0B0102102010
:100D40002008081020401020408002010201080401
:100D50000201010204081020408080402010080495
:100D600002018004020180402010080402010804EE
:100D70000201010204081020408001020408102032
:100D8000408000000A0B02090C0D0E080703040145
:100D90000000000000000000000000000000000053
:100DA0000000000000000000000000000000121120
:100DB0001000000000000000000000000000000023
:100DC0000000000000000000456B737472756475CC
:100DD0006A2077696563656A00577A6E6F77206469
:100DE00072756B6F77616E696500577962696572BC
:100DF0007A206F70636A650050726F737A65206342
:100E00007A656B616300526F7A67727A6577616E9B
:100E10006965206479737A790057796D69616E61CB
:100E20002066696C616D656E74750061627920720F
:100E30006F7A67727A6163206479737A65005763A9
:100E400069736E696A2070727A796369736B00578F
:100E5000796D69616E612066696C616D656E74752E
:100E60000077796472756B75005472776120777AB8
:100E70006E617769616E6965006E6F7765676F2077
:100E80006D6174657269616C75005472776120657B
:100E90006B737472757A6A610066696C616D656EF8
:100EA000747520646F20676C6F7769637900547282
:100EB0007761207770726F7761647A616E6965001F
:100EC00057796D69616E612066696C616D656E74DC
:100ED0007500616279206B6F6E74796E756F7761E2
:100EE000632E2E2E0069206E616369736E696A201D
:100EF00070727A796369736B00576C6F7A206669D8
:100F00006C616D656E740057796D69616E61206604
:100F1000696C616D656E74750066696C616D656E96
:100F20007475207A20676C6F7769637900547277E3
:100F300061207779737577616E69650057796D699E
:100F4000616E612066696C616D656E7475007A6DA5
:100F500069616E792066696C616D656E74750054A7
:100F600072776120726F7A706F637A796E616E69E1
:100F7000650057796D69616E612066696C616D65A8
:100F80006E74750057726974696E6720746F20669D
:100F9000696C653A20006F70656E206661696C65EA
:100FA000642C2046696C653A20006F70656E20667F
:100FB00061696C65642C2046696C653A200046695D
:100FC0006C652073656C65637465640A0020536901
:100FD0007A653A200046696C65206F70656E6564BD
:100FE0003A20006F70656E206661696C65642C2024
:100FF00046696C653A20002066696C653A20004EAF
:101000006F7720002220706F73002220706172655C
:101010006E743A2200535542524F5554494E452062
:1010200043414C4C207461726765743A22005562EA
:101030006974792E2000747279696E6720746F204C
:1010400063616C6C207375622D67636F64652066E5
:10105000696C6573207769746820746F6F206D61A7
:101060006E79206C6576656C732E204D4158206C2E
:101070006576656C2069733A0020636F6C64206547
:101080007874727573696F6E2070726576656E74B0
:1010900065640A0043616E6E6F74206F70656E2028
:1010A0007375626469722000534420636172642026
:1010B0006F6B0A006F70656E526F6F7420666169A6
:1010C0006C65640A00766F6C756D652E696E697467
:1010D000206661696C65640A004572726F723A003D
:1010E000534420696E6974206661696C0A006175F9
:1010F000746F25692E67004D3234004D3233202540
:101100007300656E7175657565696E67202200658F
:1011100063686F3A0024F4D43050C38E20C2A240DA
:1011200017828B7011127A910D816CD90AA861E136
:1011300008C7586607615143061E4B5D05C145A7A8
:10114000041A411104093D9803713931034036DB1B
:101150000265339102D4305402802E1D02632CEEBE
:1011600001752AC501B028A001102781018F2564CF
:10117000012B244B01E0223401AC211F018D200DF5
:1011800001801FFC00841EED00971DDF00B81CD2FB
:1011900000E61BC600201BBC00641AB200B219A8EE
:1011A000000A19A0006A189900D117910040178B06
:1011B00000B516840031167E00B31579003A157318
:1011C00000C7146F0058146A00EE1366008813639A
:1011D0000025135E00C7125B006C125700151254F5
:1011E00000C111510070114F0021114B00D6104960
:1011F000008D1047004610440002104200C00F400E
:1012000000800F3E00420F3C00060F3B00CB0E3823
:1012100000930E37005C0E3500270E3400F30D32BC
:1012200000C10D3100900D3000600D2E00320D2DEB
:1012300000050D2C00D90C2B00AE0C2900850C29C3
:10124000005C0C2700350C27000E0C2600E80B2450
:1012500000C40B2400A00B23007D0B23005A0B219C
:1012600000390B2100180B2000F80A1F00D90A1EB4
:1012700000BB0A1E009D0A1D00800A1D00630A1C97
:1012800000470A1B002C0A1B00110A1A00F7091A52
:1012900000DD091900C4091900AB091900920917EA
:1012A000007B091800630917004C0916003609165F
:1012B00000200916000A091500F5081500E00814B9
:1012C00000CC081400B8081400A4081400900813F7
:1012D000007D0812006B081300580812004608121F
:1012E0000034081100230811001208110001081130
:1012F00000F0071000E0071000D0071000C0071032
:1013000000B0070F00A107100091070E0083070F20
:101310000074070F0065070E0057070E0049070EFF
:10132000003B070D002E070E0020070D0013070DD0
:101330000006070D00F9060C00ED060D00E0060C96
:1013400000D4060C00C8060C00BC060C00B0060C4D
:1013500000A4060B0099060C008D060B0082060BFC
:101360000077060B006C060B0061060A0057060B9F
:10137000004C060A0042060A0038060A002E060A39
:101380000024060A001A060A001006090007060AC9
:1013900000FD050900F4050900EB050900E2050957
:1013A00000D9050900D0050900C7050900BE0509D7
:1013B00000B5050800AD050800A50509009C050855
:1013C00000940508008C050800840508007C0508C9
:1013D00000740508006C050700650508005D050739
:1013E00000560508004E05070047050700400508A0
:1013F0000038050700310507002A05070023050707
:10140000001C050600160507000F05070008050665
:101410000002050700FB040600F5040700EE0406C1
:1014200000E8040600E2040700DB040600D5040619
:1014300000CF040600C9040600C3040600BD04066C
:1014400000B7040600B1040500AC040600A60406BB
:1014500000A00405009B0406009504050090040606
:10146000008A04050085040500800406007A04054E
:101470000075040500700405006B04050066040592
:1014800000610405005C04050057040500520405D2
:10149000004D04050048040500430405003E040413
:1014A000003A04050035040500300404002C04054E
:1014B0000027040400230405001E0404001A040489
:1014C0000016040500110404000D040400090405BD
:1014D000000404040000040400FC030400F80304F6
:1014E00000F4030400F0030400EC030400E8030428
:1014F00000E4030400E0030400DC030400D8030458
:1015000000D4030400D0030400CC030400C8030388
:1015100000C503030024F404D9201BC40C5C0E98FE
:1015200004C4095F0265077101F405F900FB04B307
:101530000048048700C103690058035500030345B0
:1015400000BE023A008402310053022A002902251B
:101550000004022000E4011C00C8011900AF0117BB
:101560000098011400840113007101100061011042
:101570000051010E0043010D0036010B002B010B41
:101580000020010B00150109000C010900030108EE
:1015900000FB000800F3000800EB000700E4000671
:1015A00000DE000600D8000600D2000600CC0005D0
:1015B00000C7000500C2000500BD000400B900041A
:1015C00000B5000400B1000400AD000400A900044F
:1015D00000A5000300A20003009F0004009B00037D
:1015E00000980003009500020093000300900003A0
:1015F000008D0002008B00030088000200860002BC
:101600000084000300810002007F0002007D0002D0
:10161000007B0002007900020077000100760002E2
:10162000007400020072000100710002006F0002ED
:10163000006D0001006C0002006A000100690002F8
:1016400000670001006600010065000100640002FF
:10165000006200010061000100600001005F000203
:10166000005D0001005C0001005B0001005A000108
:101670000059000100580001005700010056000108
:101680000055000100540001005300000053000108
:10169000005200010051000100500001004F000104
:1016A000004E0000004E0001004D0001004C000102
:1016B000004B0000004B0001004A000100490001FE
:1016C00000480000004800010047000100460000FB
:1016D00000460001004500000045000100440001F3
:1016E00000430000004300010042000000420001EE
:1016F000004100000041000100400001003F0000E7
:10170000003F0001003E0000003E0001003D0000DF
:10171000003D0001003C0000003C0000003C0001D6
:10172000003B0000003B0001003A0000003A0001CD
:1017300000390000003900010038000000380000C6
:1017400000380001003700000037000100360000BB
:1017500000360000003600010035000000350000B2
:1017600000350001003400000034000000340001A6
:10177000003300000033000000330001003200009D
:101780000032000000320001003100000031000092
:101790000031000100300000003000000030000186
:1017A000002F0000002F0000002F0000002F00017C
:1017B000002E0000002E0000002E0001002D000071
:1017C000002D0000002D0000002D0001002C000065
:1017D000002C0000002C0000002C0001002B000059
:1017E000002B0000002B0000002B0001002A00004D
:1017F000002A0000002A0000002A00010029000041
:101800000029000000290000002900000029000133
:101810000028000000280000002800000028000028
:10182000002800010027000000270000002700001A
:10183000002700000027000100260000002600000D
:101840000026000000260000002600010025000000
:1018500000250000002500000025000000250000F4
:1018600000250001002400000024000000240000E6
:1018700000240000002400010023000000230000D9
:1018800000230000002300000023000000230000CC
:1018900000230001002200000022000000220000BE
:1018A00000220000002200000022000100210000B0
:1018B00000210000002100000021000000210000A4
:1018C0000021000000210001002000000020000095
:1018D0000020000000200000002000000020000088
:1018E0000020000000200001001F0000001F000079
:1018F000001F0000001F0000001F0000001F00006C
:10190000001F0001001E0000001E0000001E00005D
:10191000001E0000004D383420582059205A204520
:101920000020636F6C6420657874727573696F6EE4
:101930002070726576656E7465640A0062757379ED
:101940003A2070617573656420666F7220696E70ED
:1019500075740A00627573793A20706175736564F5
:1019600020666F7220757365720A00627573793A2A
:101970002070726F63657373696E670A004D36304D
:10198000300055626974792E20004B494C4C20631D
:101990006175736564206279204B494C4C206275F7
:1019A00074746F6E2F70696E0A0055626974792EB7
:1019B00020004B494C4C206361757365642062794B
:1019C00020746F6F206D75636820696E6163746940
:1019D00076652074696D65202D2063757272656E61
:1019E0007420636F6D6D616E643A20005072696E91
:1019F0007465722068616C7465642E206B696C6C10
:101A000028292063616C6C6564210A0000004D4345
:101A1000000000000000CB43000096420000964208
:101A20000000C841000000005761726E696E673A9D
:101A300020486F6D696E672042756D70204469762D
:101A400069736F72203C20310A000202080000A076
:101A5000400000A0400000A04000004D43000052A4
:101A6000430000CB4301FF014D36303020486F74F6
:101A7000656E6420746F6F20636F6C6420746F20D8
:101A80006368616E67652066696C616D656E740A76
:101A900000577A6E6F7769656E6965004D32340064
:101AA00057796472756B20777374727A796D616E91
:101AB00079004D31323500473239205332004E49DA
:101AC000450054414B004E4945004D2042204C00FA
:101AD000323032302D30372D313300312E332E312C
:101AE0006200256C642E25696D0054656D702E2092
:101AF0006D696E3A20313730006B6F6E74796E7598
:101B00006F77616300726F7A67727A656A206162CB
:101B10007900476C6F77696361206A657374207A16
:101B2000696D6E612C004D363030204230004739EF
:101B3000300047393100473238004472756B2070ED
:101B4000727A657277616E7900526F7A67727A6124
:101B50006E6F2073746F6C0020573A00526F7A6773
:101B6000727A6577616E69652073746F6C752E2E5D
:101B70002E00205A3A0020423A0020436F756E74BE
:101B800020413A0020453A00205A3A0020593A00B4
:101B9000583A004B64200023646566696E65202016
:101BA00044454641554C545F004B69200023646511
:101BB00066696E65202044454641554C545F004B94
:101BC00070200023646566696E65202044454641A7
:101BD000554C545F0050494420756B6F6E637A6FAB
:101BE0006E6F00504944204175746F74756E6520A6
:101BF00066696E6973686564212050757420746825
:101C000065206C617374204B702C204B6920616ED1
:101C100064204B6420636F6E7374616E747320660E
:101C2000726F6D2062656C6F7720696E746F2043F0
:101C30006F6E66696775726174696F6E2E680A00EF
:101C4000504944204175746F74756E6520666169F2
:101C50006C6564212074696D656F75740A00504964
:101C60004420626C61643A206F76657273686F74A9
:101C70000050494420626C6164206B616C6962723F
:101C800061636A6900504944204175746F74756ED0
:101C900065206661696C6564212054656D706572AC
:101CA000617475726520746F6F20686967680A00D7
:101CB000204B643A2000204B693A2000204B703AB8
:101CC00020000A20436C61737369632050494420EB
:101CD0000A002054753A2000204B753A2000206DF0
:101CE00061783A2000206D696E3A200020643A2025
:101CF0000020626961733A200050494420726F7A73
:101D0000706F637A65746F002066697273740A007D
:101D10005A0059005800486F6D65200070012C0171
:101D200090012701B0012201C0011D01F00118013D
:101D30001002130130020E01600209019002040139
:101D4000C002FF000003FA004003F5008003F0002A
:101D5000D003EB002004E6007004E100E004DC00A6
:101D60004005D700C005D2004006CD00D006C8000F
:101D70008007C3003008BE00F008B900C009B400F5
:101D8000B00AAF00B00BAA00D00CA500000EA00056
:101D9000500F9B00C01096005012910000148C0050
:101DA000C0158700B0178200B0197D00D01B7800E5
:101DB000001E730040206E0090226900F024640031
:101DC00040275F0090295A00E02B5500102E50004C
:101DD00020304B0010324600E033410090353C008B
:101DE0001037370070383200A0392D00B03A280083
:101DF000A03B2300603C1E00103D1900903D1400E4
:101E0000103E0F00703E0A00C03E0500003F00007B
:101E1000403FFBFF803FF6FFC03FF1FF457272205D
:101E20006D696E2074656D702073746F6C750045FC
:101E30007272206D696E2074656D70004D494E544C
:101E4000454D50207472696767657265640045721C
:101E500072206D61782074656D702073746F6C757D
:101E600000457272206D61782074656D70004D417F
:101E70005854454D502074726967676572656400F7
:101E8000027C3C3E5E2B3D3F2F5B5D3B2C2A225C5F
:101E900000290A002062797465733B206372632015
:101EA0000053657474696E67732053746F72656450
:101EB000202800202863616C63756C617465642957
:101EC000210A0020213D2000454550524F4D20431E
:101ED0005243206D69736D61746368202D202873EF
:101EE000746F726564292000290A00206279746584
:101EF000733B2063726320002073746F72656420EB
:101F000073657474696E677320726574726965763F
:101F10006564202800204D61726C696E3D5633392E
:101F2000290A0028454550524F4D3D004545505225
:101F30004F4D2076657273696F6E206D69736D61A8
:101F4000746368200025756420253032753A253089
:101F50003275004B61727461207573756E696574BA
:101F600061004B6172746120776C6F7A6F6E6100F3
:101F700073645F7374617475733A66616C73650A38
:101F80000073645F7374617475733A747275650A73
:101F900000202F200048617264636F6465642044F0
:101FA000656661756C742053657474696E6773201F
:101FB0004C6F616465640A00881300008813000098
:101FC00050000000282300000000824300008243EC
:101FD0000000E0410000A0420000A0420000A0423A
:101FE000000048440000204366696C616D656E74B2
:101FF0003A20007A5F6D61783A2000795F6D696EF2
:102000003A2000785F6D61783A20005265706F72F7
:1020100074696E6720656E6473746F702073746189
:102020007475730A0043616E6E6F7420656E74651B
:1020300072207375626469723A20004572726F7221
:102040002077726974696E6720746F20454550521D
:102050004F4D210A006265640A002C207379737465
:10206000656D2073746F70706564212048656174BC
:1020700065725F49443A20005A616E696B2074654D
:102080006D702E00546865726D616C2052756E61C2
:1020900077617900526F7A67727A2E206E69657562
:1020A00064616E650048656174696E672066616988
:1020B0006C65640000002100240027002A002D0028
:1020C0003000330001010000040107010A01000093
:1020D0002200250028002B002E00310034000201D0
:1020E0000000050108010B01526573656E643A201A
:1020F000006F6B00ADB047C711241FBECFEFD1E218
:10210000DEBFCDBF00E00CBF16E0A0E0B2E0E4EC23
:10211000FAEA01E00BBF02C007900D92AE30B107A2
:10212000D9F72DE1AEE0B6E001C01D92AE32B207A4
:10213000E1F710E1CBE7D0E100E006C0219701090B
:10214000802FFE010E94AAD1CA37D10780E008077C
:10215000A9F70E94F7BF0C9450D50C9400002F9261
:102160003F924F925F926F927F928F929F92AF9227
:10217000BF92CF92DF92EF92FF920F931F93CF9374
:10218000DF93CDB7DEB7E9970FB6F894DEBF0FBE89
:10219000CDBF00912B1320E4029F80011124055D27
:1021A0001E4E8091FA1380FF1AC0EFE0F1E1849196
:1021B0007F019FEFE91AF90A811102C0780104C07A
:1021C0000E94BE2CF701F3CFD7018D917D018823AA
:1021D00019F00E94BE2CF8CF8AE00E94BE2C81E04C
:1021E00090E090938B1B80938A1B10922D06109287
:1021F0002C068FE380933706109236061092350630
:1022000084E0E8E2F6E0DF011D928A95E9F7F80143
:1022100080810F5F1F4F8032D1F38E34C9F48181EA
:1022200090ED980F9A3020F08D3211F08B3281F4BE
:10223000DF0112969D012F5F3F4F8C9180538A30B2
:1022400010F4D901F7CFFD01119680818032D9F3C6
:10225000F093751BE093741B7F01BFEFEB1AFB0A31
:1022600010816AE270E0C7010E94EED4009731F05D
:10227000FC01319780818032E1F311821D3431F10C
:10228000143521F1173411F1EFE0F1E184918F0160
:102290000F5F1F4F882321F00E94BE2CF801F6CF5C
:1022A0006091741B7091751B86E698E00E94F7613F
:1022B00082E20E94BE2C8AE00E94BE2C10928B1BF0
:1022C00010928A1B0E9463B00C943425C701FC0154
:1022D000208101962032D9F320532A30A8F610939A
:1022E000370620E030E06AE03196DF0111978C91EB
:1022F000082E000C990BC097629FA001639F500DA0
:1023000011249C01240F351F808180538A3060F393
:102310003093360620933506DF0131968C9180325A
:10232000D9F31D34D1F42E31310591F03CF427312D
:10233000310571F02C31310581F40AC025373105A2
:1023400064F02737310524F0203AE3E03E0729F412
:10235000B0932D06A0932C0683C010922D061092E8
:102360002C060091741B41E050E0FD0131969C91D8
:10237000992309F475C09132A1F41D3491F42032EF
:10238000310579F4F0932D06E0932C0663E270E0BA
:10239000CF010E94EED4009709F424C4DC011C9202
:1023A0005FC08FEBD82ED90E99E1C92ECD14C0F1A4
:1023B000BF01FB0180816F5F7F4F8032D1F360ED01
:1023C000680F6A3040F063ED680F623020F08B32A6
:1023D00011F00C94AC24BF01AD2CB12C7501A3E01D
:1023E000F594E794AA95E1F7C701885D994F7C01C0
:1023F0009D2D9770DA0102C0AA0FBB1F9A95E2F7D4
:10240000CD01D7019C91892B8C936115710511F039
:10241000601B01C060E0D501A25FB94F6C930AC098
:1024200080912C0690912D06892B21F4B0932D06D6
:10243000A0932C06808181548A3110F4DF0195CF5E
:10244000DF01BD016F5F7F4F8C9180538A3010F4A4
:10245000DB01F7CFFD01119680818032D9F3EECFF9
:10246000809137068D3409F4BDC3843511F40C9482
:102470006924873409F008CF80913506909136069B
:102480008D31910509F46CC074F48430910539F1F3
:102490001CF40297D0F012CF4C9709F00FCF80E0D8
:1024A0000E9472360BCF8A35910509F4A2C224F43A
:1024B0008A9709F400C302CF8B35910509F49CC2B9
:1024C0008C35910509F49CC2F9CE8091AC02882329
:1024D00009F4F4CE0E9434370E94756DEFCE80E58A
:1024E0000E94C42B882329F00E941E2B6B017C01C3
:1024F00003C0C12CD12C760183E50E94C42B882314
:1025000061F00E94622B20E030E04AE754E40E9430
:1025100038CD0E94B7D26B017C010E9415AE0E949B
:10252000D72B8091761B9091771BA091781BB0914F
:10253000791BC80ED91EEA1EFB1E60E085E193E000
:102540000E940B990E9409B0DC01CB018C199D09F6
:10255000AE09BF09B7FFB2CE80E00E946C66F2CF31
:1025600083E50E94C42B882321F00E943E2B182F64
:1025700001C010E0163068F0E1ECF3E084918F01C7
:102580000F5F1F4F882309F499CE0E94BE2CF801DB
:10259000F5CF123009F445C0B0F41123F9F0113031
:1025A00009F024C20E94059F1092010210920002BD
:1025B0008EE893E090930C1680930B160E946A2A83
:1025C0001093DE1B13C2143009F401C208F4A5C134
:1025D000153009F00BC20E94763808C28091BF13F3
:1025E00080FD03C0E1EAF3E011C081FF03C06BE6A8
:1025F00073E002C060E773E089E993E00E94F7614D
:102600008AE00E94BE2C0E9483C6F0C184918F0193
:102610000F5F1F4F882309F4E9C10E94BE2CF80107
:10262000F5CF209100023091010237FF0CC005E682
:1026300013E0F8018491882309F440CE0F5F1F4F07
:102640000E94BE2CF6CF2115310529F4809133026A
:102650008093340631C08FEF820F982F917897FFC7
:1026600003C091509E6F9F5FE92F87FD8F5F859517
:1026700080FF02C0E1E0E91BEE0FFF0BE80FF11D48
:1026800087FDFA95EE0FFF1FEE0FFF1FE155FC4E81
:102690008091911390919213A0919313B091941300
:1026A00080839183A283B383809134068093330225
:1026B000243031050CF0CAC0822F817887FF03C017
:1026C00081508E6F8F5FA82EE22F27FF02C0E1E0BE
:1026D000E20FBE2EB594B0FE03C0A1E0AA2EA81A48
:1026E000C0903402D0903502E0903602F09037026C
:1026F00000E21AE1F80185919591A591B49180933A
:10270000340290933502A0933602B093370220E052
:1027100030E0A901609156167091571680915816B5
:10272000909159160E94BBD120E030E040EA50E47D
:102730000E94BBD160939113709392138093931373
:10274000909394130E94A0BF85E595E5A5E0B3E4BE
:102750008093340290933502A0933602B0933702EF
:10276000FA2D24E0F202D0011124AE51B44F209191
:102770004E1630914F1640915016509151166D9152
:102780007D918D919C910E94BBD160938913709330
:102790008A1380938B1390938C138B2D94E0890272
:1027A000F0011124E652F44F209152163091531645
:1027B00040915416509155166081718182819381A8
:1027C0000E94BBD160938D1370938E1380938F13EF
:1027D000909390130E94A0BFF80185919591A591C7
:1027E000B4918093340290933502A0933602B09353
:1027F000370220E030E0A90160915616709157161B
:1028000080915816909159160E94BBD160939113F4
:102810007093921380939313909394130E94A0BF8C
:10282000C0923402D0923502E0923602F092370222
:102830000E9415AE10923302809100029091010225
:1028400001969093010280930002D0C020E030E016
:10285000A901609156167091571680915816909163
:1028600059160E94BBD120E030E040EA50E40E94BB
:10287000BBD16093911370939213809393139093B1
:1028800094130E94A0BF0E9415AE8FEF9FEF90930C
:10289000010280930002E1E5F3E084918F010F5F74
:1028A0001F4F882321F00E94BE2CF801F6CF83E948
:1028B00092E09A83898304E610E019A308A3BE017D
:1028C0006F5F7F4FCE0180960E948F558AEB92E01A
:1028D0009A83898319A308A3BE016F5F7F4FCE013E
:1028E00080960E948F558091BF1381608093BF13A3
:1028F0008DEC9BE00E94AC9C81E00E94723681E0EE
:102900000E943E298EE193E090930C1680930B1663
:102910000E946A2A1092DE1B69C088E50E94C42BBF
:10292000882391F00E942E2B1FEF160F123090F08B
:102930000AE313E0F8018491882309F4BFCC0F5F08
:102940001F4F0E94BE2CF6CF88E50E94BE2C0E942D
:1029500037C7B4CC89E50E94C42B882399F00E9424
:102960002E2B0FEF060F023098F0E3E2F3E0849194
:102970008F010F5F1F4F882309F4A0CC0E94BE2C4B
:10298000F801F5CF89E50E94BE2C0E9437C796CC8E
:102990008AE50E94C42B8823A1F00E94622BE12FBC
:1029A000EE0FFF0BE00FF11D07FDFA95EE0FFF1F75
:1029B000EE0FFF1FE155FC4E60837183828393838A
:1029C00015C08AE50E94BE2C0E9437C777CC8AE5E5
:1029D0000E94C42B8823A9F30E94622B6093AB133F
:1029E0007093AC138093AD139093AE130E94B87D97
:1029F00065CC1092330662CC81E0809333065ECCC6
:102A000085E40E94C42BB82E811102C00E9415AE2D
:102A10001BEC812E12E0912E09E8C02E03E1D02E8E
:102A20008EE7E82E8BE1F82E00E010E0A12CD40117
:102A30008D914D010E94C42B882339F1F60140800D
:102A40005180628073800E94622BD6016D937D93CA
:102A50008D939C9313970330C1F0A30192010E94C0
:102A6000BAD19B01AC01F7016081718182819381B0
:102A70000E94BBD1D7016D937D938D939C93139747
:102A8000C8010E94BA29AA24A3940F5F1F4FB4E083
:102A9000CB0ED11CE4E0EE0EF11C0430110539F62A
:102AA000AA2019F00E94C32A03C0B1100E940B3A59
:102AB0000E94B87D03CC8091AC02882309F4FECB40
:102AC00089E40E94C42BE82E882321F00E942E2B3B
:102AD000062F01C000E08AE40E94C42BF82E882350
:102AE00021F00E942E2B162F01C010E0EE2011F0D5
:102AF000023020F4FF2079F0123068F0E8EDF3E0C6
:102B000084918F010F5F1F4F882309F4D7CB0E9458
:102B1000BE2CF801F5CF0E940A2BEE20E1F024E054
:102B20000202F0011124EE51F44F20914E16309123
:102B30004F164091501650915116608171818281DB
:102B400093810E94BBD160930D1670930E168093F3
:102B50000F1690931016FF20E1F084E01802F001A8
:102B60001124E652F44F20915216309153164091A1
:102B700054165091551660817181828193810E9413
:102B8000BBD1609311167093121680931316909315
:102B9000141680E50E94952B81110E94522B86E429
:102BA0000E94C42B8823D9F00E94622B6B017C0108
:102BB00020E030E0A9010E943ED3181684F420E002
:102BC00030E040E752E4C701B6010E943ED2609374
:102BD00034027093350280933602909337020E943C
:102BE000756D6CCB809135069091360682379105D4
:102BF00009F4B5C60CF0D3C08C34910509F4DBC3DD
:102C00000CF06BC08831910509F49AC2D4F5823179
:102C1000910509F4D5C5D4F497FD50CB82309105C8
:102C20000CF4B7C1419709F049CB60E089E094E02A
:102C30000E940B995F988A989FB7F8948091080139
:102C40008E7F809308019FBF129838CB8531910504
:102C500009F46EC234F4449709F030CBEFE0F1E1AF
:102C600020C28631910509F466C2479709F026CB48
:102C700040E061E080912C0690912D060E94643E18
:102C80001DCB8E31910509F4DDC2B4F48A31910572
:102C900009F481C20CF472C28B31910509F497C218
:102CA0004C9709F00BCB40E060E080912C069091AE
:102CB0002D060E94643E02CB8032910509F4C6C203
:102CC0000CF40EC38A32910509F436C38B34910596
:102CD00009F0F4CA0E94633AF1CA8836910509F4F2
:102CE00076C3C4F58235910509F461C5DCF48E34F0
:102CF000910509F468C30CF462C38135910509F0AC
:102D0000DDCA0E946B860E9415AE0E94EF6510928C
:102D1000F9131092F81368EE73E080E090E00E94DF
:102D2000BC83CCCA8435910509F44AC50CF443C56B
:102D30008535910509F477C58C35910509F0BECA32
:102D4000FBECCF2EF2E0DF2EA9E9EA2EA3E1FA2E6A
:102D500010E084C58D36910509F481C48CF48A365F
:102D6000910509F480C40CF434C48B36910509F440
:102D700099C48C36910509F0A1CA109238029ECAF6
:102D80008F36910509F46AC30CF455C38037910559
:102D900009F4D2C38137910509F4D2C38FCA8D3D9E
:102DA000910511F40C94BF1F0CF057C08B3991059D
:102DB00009F42CC40CF58737910509F4A5C66CF409
:102DC0008537910509F460C60CF067C68337910515
:102DD00009F074CAE2E9F5E0CBC58937910509F439
:102DE0009EC60CF495C68D37910509F46DC48C38D8
:102DF000910509F4D2C362CA8C3C910509F420C73D
:102E0000DCF4883C910509F490C63CF48E3B9105B6
:102E100009F054CA0E94777E51CA893C910509F491
:102E2000D8C68B3C910509F049CA6BECE62E62E0EE
:102E3000F62E0CED13E1F5C68E3C910511F40C94C1
:102E4000F91E0CF469C7833D910509F49FC08C3DC0
:102E5000910511F40C94B01F31CA843AA1E09A078D
:102E600011F40C94AF21CCF58F32E1E09E0711F400
:102E70000C94A721CCF48C3221E0920711F40C942D
:102E8000092034F4823E910511F40C94DB1F16CA1C
:102E90008D32B1E09B0711F40C9433208E329140B7
:102EA00011F40C9450210ACA8336F1E09F0709F40B
:102EB00069C034F48033914011F40C94D220FEC9DF
:102EC0008039B1E09B0711F40C94AB218A39914011
:102ED00009F0F4C90E94F178F1C9863FF1E09F073B
:102EE00011F40C940D24B4F58C3AA1E09A0711F476
:102EF0000C94092334F4853A914011F40C94122275
:102F0000DDC9843FF1E09F0711F40C94ED23853F68
:102F1000914009F0D3C90E94508E8CEF98E09A83BB
:102F2000898306E410E019A308A3BE016F5F7F4FF9
:102F3000CE0180960E948F5584E59BE09A83898319
:102F400019A308A3BE016F5F7F4FCE0180960E9438
:102F50008F55B4C98835A2E09A0711F40C943A242D
:102F600034F48C31924011F40C942D24A7C9803A8A
:102F7000F3E09F0709F4A7C1873E934011F40C9436
:102F800055249CC9E9EDF0E10C944124EFE0F1E116
:102F90004FC7E6E0F4E084918F010F5F1F4F882355
:102FA00021F00E94BE2CF801F6CFA0902C06B09024
:102FB0002D0680E50E94C42B882359F00E941E2B09
:102FC0006B017C0111E0672B682B692B31F410E059
:102FD00004C010E0C12CD12C760183E50E94C42BE3
:102FE0008823F1F00E94622B20E030E04AE754E4AD
:102FF0000E9438CD0E94B7D26B017C01111112C022
:10300000672B682B692B71F4A114B10459F0D50119
:103010008C91882339F061E0C5010E94389907C07E
:10302000112391F360E087EF93E00E940B9983E016
:1030300090E090938B1B80938A1B81E08093E01B30
:103040000E9415AE0E94D72BC114D104E104F104F3
:1030500011F18091761B9091771BA091781BB09114
:10306000791BC80ED91EEA1EFB1E0E9409B0DC01A6
:10307000CB018C199D09AE09BF09B7FD02C00C94A4
:10308000BD248091E01B882311F40C94BD2480E0C2
:103090000E946C66EACF1092E01B10C90E94BE2C01
:1030A000F80184918F010F5F1F4F8111F7CFE3E289
:1030B000F4E084918F010F5F1F4F882321F00E945D
:1030C000BE2CF801F6CF1092BA0E1092B90E84E61B
:1030D0009CE00E941D898BE1E4E6FCE0DE01159690
:1030E00001900D928A95E1F78091620C9091630CAA
:1030F0009C838B8389ED92E09A83898340E050E042
:10310000BE016F5F7F4F8FE693E00E94D458CE01DF
:1031100001960E94AC65E4E1F4E084918F010F5FB9
:103120001F4F882309F4CAC80E94BE2CF801F5CFAE
:103130000E94F856C3C81092330C1092340CBEC8CB
:1031400019821A821B821C8218A219A21AA21BA21F
:103150008091E11B882341F040E0BE016F5F7F4F0B
:10316000CE0180960E94EF6B8091340C882319F079
:1031700081E08093330C0E94633AA0C81092330C14
:103180000E94493A84E394E090930C1680930B16C6
:103190000E946A2A93C88091340C882309F48EC84F
:1031A00083E50E94C42B882309F488C80E942E2B33
:1031B000AB01BC014093B00E5093B10E6093B20EC0
:1031C0007093B30E8FEF9DE00E94B6A677C88091F2
:1031D000340C811103C0EBE4F4E029C0E9E3F4E02E
:1031E00084918F010F5F1F4F882321F00E94BE2C16
:1031F000F801F6CF6091B00E7091B10E8091B20ED1
:103200009091B30E4AE00E94142D8FE20E94BE2CD2
:103210006091AC0E7091AD0E8091AE0E9091AF0E9C
:103220004AE00E94142D8AE00E94BE2C47C8849177
:103230008F010F5F1F4F882309F440C80E94BE2CE6
:10324000F801F5CF0E9485380C945E118091330C03
:1032500081110E9415AEE0902C06F0902D0680E5BD
:103260000E94952B182F882319F00E94522B182F9B
:103270008091340C882311F40C945E11412F61E08D
:10328000C7010E94643E83E50E94C42B882381F01D
:103290000E942E2BAB01BC014093B00E5093B10E97
:1032A0006093B20E7093B30E8FEF9DE00E94B6A6AE
:1032B0008091340C882319F081E08093330C111134
:1032C0000C945E1158CF80912C0690912D0621E030
:1032D0002093320C40E060E00E94643E0C945E114A
:1032E00088E09CE00E94DEAC68A379A38AA39BA33C
:1032F000BE016F5F7F4FCE0180960E94E22B60E09F
:10330000CE0101960E943899EFE0F1E184918F019E
:103310000F5F1F4F882321F00E94BE2CF801F6CFCB
:10332000BE016F5F7F4F8CE594E00E94F7618AE0F9
:103330000E94BE2C0C945E1183E50E94C42B88234E
:1033400011F40C945E110E943E2BE82E80E50E9441
:10335000C42B882339F00E942E2B8B0177FF04C0E9
:103360000C945E110DE010E0802FEEE1F7E09491F7
:10337000891303C0E9EDF0E10AC03196B7E0E63405
:10338000FB07A9F70C94C1240E94BE2CF80184917C
:103390008F010F5F1F4F8111F7CFE9E6F4E08491B1
:1033A0008F010F5F1F4F882311F40C945E110E9450
:1033B000BE2CF801F4CF0E94493A0C945E110E9491
:1033C000B2540C945E110E9480340C945E1188E615
:1033D00090E00E94812D81110C945E118091FA136E
:1033E00083FF02C00C945E1183E50E94C42B8823E6
:1033F000F1F00E94622B0E94B0D27093131C609374
:10340000121C80E00E9420860E94622B20E030E0A7
:103410004AEA52E40E94D2CC18163CF00E94B25400
:1034200060E088E794E00E940B990E94622B0E9462
:10343000F7620C945E118EE40E94C42B882311F471
:103440000C945E110E942E2B6093241D7093251DF9
:103450008093261D9093271D0C945E1183E50E9496
:10346000C42B882319F00E943E2B01C080E080937A
:10347000FA13EFE0F1E184918F010F5F1F4F81118B
:1034800003C0EEE9F4E004C00E94BE2CF801F3CFC3
:1034900084918F010F5F1F4F882321F00E94BE2C63
:1034A000F801F6CF8091FA13811103C0EAE9F4E044
:1034B00034C0B0E9CB2EB4E0DB2EE12CF12C20E0BF
:1034C0008091FA1390E00E2C02C0959587950A948E
:1034D000E2F780FF17C0BB24B394B20E222319F089
:1034E0008CE20E94BE2CF60185919491FC0184919E
:1034F0008F010F5F1F4F882321F00E94BE2CF8011F
:10350000F6CF2B2DEFEFEE1AFE0AF2E0CF0ED11C14
:1035100085E0E816F104A1F60AC084918F010F5FDF
:103520001F4F882321F00E94BE2CF801F6CF8AE0BD
:103530000E94BE2C0C945E1185EA94E00E94006605
:1035400083E50E94C42B811103C0EFE0F1E10DC0BF
:103550000E943E2B80932E028D3310F40C945E114A
:103560008CE380932E020C945E1184918F010F5F87
:103570001F4F882321F00E94BE2CF801F6CF409106
:103580002E0250E060E070E08DEA94E00E94A461B9
:103590008AE00E94BE2C0C945E118091FA1383FF86
:1035A00002C00C945E1183E50E94C42B882311F4A1
:1035B0000C945E110E94622B0E94B0D26739710593
:1035C00014F066E970E07093111C6093101C0C9469
:1035D0005E1189E690E00E94812D811111C0E4EB1B
:1035E000F4E084918F010F5F1F4F882321F00E9428
:1035F000BE2CF801F6CF0E945F328AE00E94BE2CFA
:1036000010928B1B10928A1B0C94342583E50E9428
:10361000C42B882311F40C945E110E943E2B8093DE
:10362000731B8D3318F08CE38093731B0E9409B0D9
:103630006B017C012091731B30E0A8EEB3E00E9487
:1036400054D1C60ED71EE81EF91EC0926F1BD09231
:10365000701BE092711BF092721B0C945E110E9421
:10366000E4320C945E1183E50E94C42B882339F068
:103670000E942E2B8B016F3F710519F010F00FEF98
:1036800010E080E50E94C42B811106C01093F9134D
:103690000093F8130C945E110E943E2B81110C9440
:1036A0005E11F4CF80E50E94C42B811106C01092F8
:1036B000F9131092F8130C945E110E942E2B672BB5
:1036C00011F00C945E11F3CF8CE40E94952B8823AB
:1036D00019F00E94622B04C060E070E080EA90EC78
:1036E00068AB79AB8AAB9BAB8AE50E94C42B88237D
:1036F00019F00E94622B03C060E070E0CB0120E073
:1037000030E040E751E40E94BBD16CA77DA78EA7B3
:103710009FA788E50E94C42B882319F00E94622B82
:1037200003C060E070E0CB0120E030E042E553E40C
:103730000E94BBD168A779A78AA79BA789E50E94A9
:10374000C42B882319F00E94622B03C060E070E054
:10375000CB0120E030E04CED52E40E94BBD16CA3E1
:103760007DA38EA39FA319821A821B821C8218A29A
:1037700019A21AA21BA28091E11B81110C945E1167
:10378000A12CC12CDE0111967D018E01005E1F4F20
:103790009E012C5D3F4FAE01485D5F4FBE01645DF1
:1037A0007F4FCE01C0960E94366A0C945E11109233
:1037B00032060C945E1181E0809332060C945E1107
:1037C00083E50E94C42B8823A1F00E94622B20E095
:1037D00030E04AE754E40E9438CD0E94B7D26093AB
:1037E0002F027093300280933102909332020C9436
:1037F0005E1188E50E94952B81110C94D92489E5EE
:103800000E94952B81110C94D9248AE50E94952B56
:1038100081110C94D92485E40E94952B81110C947C
:10382000D9240C94052583E50E94952B882311F457
:103830000C945E110E94622B20E030E04AE754E4D1
:103840000E9438CD0E94B7D260937A1B70937B1B85
:1038500080937C1B90937D1B0C945E11F6018191EB
:103860006F010E94952B882309F46EC0133009F074
:1038700063C00E94622B4B015C0120E030E040EA13
:1038800051E40E94D2CC87FF4EC0A5019401609103
:10389000A5137091A6138091A7139091A8130E946D
:1038A0003ED22B013C019B01AC016091CC13709185
:1038B000CD138091CE139091CF130E9438CD609399
:1038C000CC137093CD138093CE139093CF13A30199
:1038D00092016091E8137091E9138091EA1390913D
:1038E000EB130E9438CD6093E8137093E913809333
:1038F000EA139093EB136091391670913A16809108
:103900003B1690913C160E94D7CCA30192010E94D5
:1039100038CD0E94B7D26093391670933A168093CF
:103920003B1690933C168092A5139092A613A092FA
:10393000A713B092A81308C00E94622BD7016D9301
:103940007D938D939C9313971F5FB4E0EB0EF11C56
:10395000143009F083CF0E944F640C945E110E94D2
:1039600015AE0E94B87D0C945E110E94BE2CF80129
:1039700084918F010F5F1F4F8111F7CFE4E8F5E0CD
:1039800003C00E94BE2CF80184918F010F5F1F4F6E
:103990008111F7CFEDE6F5E003C00E94BE2CF801DF
:1039A00084918F010F5F1F4F8111F7CFEDE5F5E097
:1039B00003C00E94BE2CF80184918F010F5F1F4F3E
:1039C0008111F7CFECE4F5E003C00E94BE2CF801B2
:1039D00084918F010F5F1F4F8111F7CFEBE3F5E06B
:1039E00003C00E94BE2CF80184918F010F5F1F4F0E
:1039F0008111F7CFECE2F5E003C00E94BE2CF80184
:103A000084918F010F5F1F4F8111F7CFE7E1F5E040
:103A100003C00E94BE2CF80184918F010F5F1F4FDD
:103A20008111F7CFE1E0F5E003C00E94BE2CF80160
:103A300084918F010F5F1F4F8111F7CFECEEF4E0FF
:103A400003C00E94BE2CF80184918F010F5F1F4FAD
:103A50008111F7CFEFECF4E003C00E94BE2CF80117
:103A600084918F010F5F1F4F8111F7CFE7EBF4E0D7
:103A700084918F010F5F1F4F882311F40C945E1106
:103A80000E94BE2CF801F4CF60E080912C0690914A
:103A90002D060E9438990C945E1185E40E94952BA6
:103AA000882381F00E94522B882361F0EFE0F1E13E
:103AB00084918F010F5F1F4F882321F00E94BE2C3D
:103AC000F801F6CF81E40E94952B882381F00E94B3
:103AD000522B882361F0EEE5F6E084918F010F5FB1
:103AE0001F4F882321F00E94BE2CF801F6CF0091D1
:103AF0002C0610912D06F80181918F01882309F47D
:103B000016CD0E94BE2CF7CF0E94F39F0C945E113D
:103B100081E08093080280935A1C0C945E111092ED
:103B2000080210925A1C0C945E1188EC90E00E94DE
:103B3000812D81110C945E1184E40E94952B8823C1
:103B400009F443C00E94622B6B017C0111E020E06C
:103B500030E0A9010E94D2CC811101C010E0109385
:103B60005B1C20E030E0A901C701B6010E94D2CC65
:103B7000882359F100912E0610E00E94622B000F5D
:103B8000111F000F111FF801EA55FD4F608371836B
:103B90008283938320E030E0A9016091A6027091B6
:103BA000A7028091A8029091A9020E94D2CC811113
:103BB0000CC080E090E0A0EEBFE38093A60290935B
:103BC000A702A093A802B093A9020E94306D0C94A2
:103BD0005E117BECE72E72E0F72E0DE316E1D701C4
:103BE0008D917D010E94952B882349F00E94622BC4
:103BF0000E94B7D2F80160837183828393830C5F44
:103C00001F4FF6E10D341F0751F70E9427630C94F4
:103C10005E110C5F1F4FF3E10C3E1F0711F40C9473
:103C20005E11D7018D917D010E94952B882389F328
:103C30000E94622BF8016083718382839383E9CFB2
:103C400083E50E94952B8823D9F00E94622BAB015B
:103C5000BC014093D4135093D5136093D613709343
:103C6000D7134093D0135093D1136093D213709312
:103C7000D3138CEB96E00E94C1618AE00E94BE2CB7
:103C800080E50E94952B882399F00E94622BAB015E
:103C9000BC014093D4135093D5136093D613709303
:103CA000D7138FE996E00E94C1618AE00E94BE2C82
:103CB00082E50E94952B882399F00E94622BAB012C
:103CC000BC014093D8135093D9136093DA137093C7
:103CD000DB1380E896E00E94C1618AE00E94BE2C5E
:103CE00084E50E94952B882311F40C945E110E94A8
:103CF000622BAB01BC014093D0135093D11360935E
:103D0000D2137093D31382E696E00E94C1618AE0D9
:103D10000E94BE2C0C945E1183E50E94952B882393
:103D200051F00E94622B6093F4137093F51380930B
:103D3000F6139093F71384E50E94952B882351F096
:103D40000E94622B6093F0137093F1138093F2132F
:103D50009093F31382E40E94952B882351F00E94E4
:103D60001E2B6093EC137093ED138093EE139093DE
:103D7000EF1388E50E94952B882351F00E94622B57
:103D80006093C0137093C1138093C2139093C313B5
:103D900089E50E94952B882351F00E94622B609345
:103DA000C4137093C5138093C6139093C7138AE509
:103DB0000E94952B882351F00E94622B6093C813B8
:103DC0007093C9138093CA139093CB1385E40E9418
:103DD000952B882311F40C945E110E94622B609342
:103DE000CC137093CD138093CE139093CF130C9478
:103DF0005E115BECE52E52E0F52E00E010E0D701FD
:103E00008D917D010E94952B882339F00E94622BB1
:103E1000AB01BC01C8010E94102A0F5F1F4F033085
:103E2000110569F70E94C32A0E94B87D0C945E11A7
:103E300084918F010F5F1F4F882321F00E94BE2CB9
:103E4000F801F6CF83E50E94952B882321F00E948C
:103E5000522B80933302EEE0F7E084918F010F5FE5
:103E60001F4F882321F00E94BE2CF801F6CF8091CD
:103E70003302882319F0E4E0F7E002C0E9E0F7E05C
:103E800084918F010F5F1F4F811103C0ECEFF6E0AB
:103E900004C00E94BE2CF801F3CF84918F010F5F04
:103EA0001F4F882321F00E94BE2CF801F6CF4091CD
:103EB0001D1650911E1660911F16709120168AEFE4
:103EC00096E00E94C16140912116509122166091A6
:103ED00023167091241687EF96E00E94C1614091ED
:103EE000251650912616609127167091281684EF9A
:103EF00096E00E94C161ECEEF6E084918F010F5FC5
:103F00001F4F882321F00E94BE2CF801F6CF40916C
:103F10000F025091100260911102709112028AEE0C
:103F200096E00E94C1614091130250911402609189
:103F300015027091160287EE96E00E94C1614091D1
:103F40001702509118026091190270911A0284EEC2
:103F500096E00E94C1618AE00E94BE2C0C945E1122
:103F600083E50E94C42B882311F40C945E110E94F7
:103F70002E2B70938D0260938C020C945E118DED4C
:103F800090E00E94812D81110C945E1183E50E94C6
:103F9000C42B882311F40C945E1100912E0610E0BE
:103FA0000E942E2B000F111FF801E75FFD4F718358
:103FB00060830C945E1180E50E94952B882311F498
:103FC0000C945E110E942E2BF62EC62ED72E83E562
:103FD0000E94C42B882321F00E942E2B8B0102C04B
:103FE0000FEF1FEFC8010196039710F00C945E11BC
:103FF000D7FE02C00C945E11EEE1F7E08491F81652
:1040000011F40C945E113196B7E0E634FB07B1F77A
:1040100002C583E50E94C42B882319F00E942E2B31
:1040200002C064E071E079A368A380E50E94C42B1C
:10403000882339F00E942E2B6938E3E17E0730F4A3
:1040400002C068EE73E07A83698304C088E893E174
:104050009A838983BE01605E7F4FCE0101960E94E4
:104060008F550C945E1185E40E94C42B811110C001
:1040700080E50E94952B882391F00E94622B60932B
:10408000BD027093BE028093BF029093C00207C02E
:104090000E943E2B882361F3E9EDF0E172C089E4D0
:1040A0000E94952B882381F00E94622B2CEA35EC2C
:1040B00047E25EE30E9438CD6093B9027093BA0282
:1040C0008093BB029093BC0284E40E94952B8823CA
:1040D00081F00E94622B2CEA35EC47E25EE30E94FD
:1040E0003ED26093C1027093C2028093C302909348
:1040F000C402EFE0F1E184918F010F5F1F4F88232D
:1041000021F00E94BE2CF801F6CF4091BD025091E3
:10411000BE026091BF027091C0028EE497E00E94DF
:10412000C1612CEA35EC47E25EE36091B90270911F
:10413000BA028091BB029091BC020E943ED2AB01B8
:10414000BC018AE497E00E94C1612CEA35EC47E2A9
:104150005EE36091C1027091C2028091C3029091AE
:10416000C4020E9438CDAB01BC0186E497E00E94F6
:10417000C1618AE00E94BE2C0C945E110E94BE2C8C
:10418000F80184918F010F5F1F4F8111F7CF09E76D
:1041900013E0D8018D918D01882309F4C8C90E94CC
:1041A000BE2CF7CF80E50E94952B882351F00E940A
:1041B000622B6093B5027093B6028093B70290931E
:1041C000B80289E40E94952B882381F00E94622B1B
:1041D0002CEA35EC47E25EE30E9438CD6093B102F1
:1041E0007093B2028093B3029093B40284E40E946D
:1041F000952B882381F00E94622B2CEA35EC47E254
:104200005EE30E943ED26093AD027093AE02809353
:10421000AF029093B002EFE0F1E184918F010F5F64
:104220001F4F882321F00E94BE2CF801F6CF409149
:10423000B5025091B6026091B7027091B8028AE55A
:1042400097E00E94C1612CEA35EC47E25EE36091A1
:10425000B1027091B2028091B3029091B4020E94B7
:104260003ED2AB01BC0186E597E00E94C1612CEA19
:1042700035EC47E25EE36091AD027091AE02809151
:10428000AF029091B0020E9438CDAB01BC0182E533
:1042900097E00E94C1618AE00E94BE2C0C945E11DE
:1042A00083E50E94952B182F882371F00E94622BC2
:1042B0000E94B0D2709328026093270221E0672BFE
:1042C00009F020E020934D1680E50E94952B88236D
:1042D00061F02091270230912802232B11F00E94D7
:1042E000522B80934D160C945E1111110C945E119B
:1042F000EFE0F1E184918F010F5F1F4F882321F0E0
:104300000E94BE2CF801F6CF80914D16882319F03B
:1043100061E575E002C065E773E083E797E00E941E
:10432000F761609127027091280282E697E00E946F
:10433000DE61EEE5F7E084918F010F5F1F4F882368
:1043400011F40C945E110E94BE2CF801F4CF0E946F
:1043500047790C945E110E9415AE0C945E1186E5AF
:104360000E94952B882389F08091BF1380FF0DC098
:1043700003EB17E0F8018491882329F00F5F1F4FAA
:104380000E94BE2CF7CF0E9483C683E50E94952B26
:10439000182F882319F00E94522B182F83E50E94B2
:1043A000952B882319F0812F0E943E298091BF13FD
:1043B0008270F82E111103C0EFE0F1E119C08111F4
:1043C000FBCF09ED10E1F8018491811103C004E9EC
:1043D00017E005C00F5F1F4F0E94BE2CF4CFF801FD
:1043E0008491882349F30F5F1F4F0E94BE2CF7CFA3
:1043F00084918F010F5F1F4F882321F00E94BE2CF4
:10440000F801F6CFFF2019F06BE673E002C060E719
:1044100073E086E897E00E94F7618AE00E94BE2C74
:104420000C945E1188E50E94952BD82E89E40E9499
:10443000952BC82E882319F00E942E2B27C0DD2033
:1044400011F10E94622B20914E1630914F1640912F
:104450005016509151160E94BAD120E030E040E24F
:1044600052E40E94BAD120E030E04AE752E40E94D0
:10447000BBD12FE632E143E05CE30E9438CD0E94DD
:10448000B0D2623018F0AA24AA9401C0A62E89E501
:104490000E94952BF82E8AE40E94952B182F8823D2
:1044A00019F00E942E2B27C0FF2011F10E94622BD1
:1044B0002091521630915316409154165091551632
:1044C0000E94BAD120E030E040E252E40E94BAD12A
:1044D00020E030E042E852E40E94BBD121EC3FE012
:1044E0004CEF5BE30E9438CD0E94B0D2623018F0EE
:1044F000BB24BA9401C0B62E8AE50E94952BE82E03
:10450000811105C081E50E94952B082F01C000E0B4
:10451000C11002C020E001C0212F30E0D11002C044
:1045200080E001C08F2D280F311D2130310521F48D
:10453000E1101DC001111BC0E9EDF0E184918F0174
:104540000F5F1F4F811103C0E8EEF7E004C00E9427
:10455000BE2CF801F3CF84918F010F5F1F4F88238A
:1045600011F40C945E110E94BE2CF801F4CFA7FC4C
:1045700002C0B7FE1BC0E9EDF0E184918F010F5F2F
:104580001F4F811103C0E9ECF7E004C00E94BE2C6C
:10459000F801F3CF84918F010F5F1F4F882311F42F
:1045A0000C945E110E94BE2CF801F4CF0E94622B85
:1045B000EA2CAA0CFF08AB2DBB0CBB0B002381F02F
:1045C000F701EE0FFF1FEA0FFB1FEE0FFF1FEE0FAD
:1045D000FF1FE155FC4E208131814281538103C090
:1045E00020E030E0A901F701EE0FFF1FEA0FFB1FEB
:1045F000EE0FFF1FEE0FFF1F8F0101551C4E0E9493
:10460000BBD1D8016D937D938D939C9313970C949C
:104610005E11E2EEFBE1FDABECAB8EE4882E86E1B1
:10462000982E99E8A92E93E1B92E2DE1C22E26E10C
:10463000D22E3FE0232E32E0332E4CE0E42E4AE12E
:10464000F42E00E010E0ACA9BDA98D91BDABACABE0
:10465000882309F486C0F501408051806280738010
:10466000D1012D913D914D915C91F6016081718157
:10467000828193810E94BBD120E030E040E05FE383
:104680000E9438CD9B01AC01C301B2010E943ED310
:10469000181654F4F70185919591A591B4918EABBC
:1046A0009FABA8AFB9AF04C01EAA1FAA18AE19AE1F
:1046B000D4012D913D914D915C91C301B2010E94B5
:1046C000BAD19B01AC016EA97FA988AD99AD0E94BA
:1046D000BAD12B013C0120E030E040EA51EC0E94CD
:1046E0003ED387FD0AC020E030E040EA51E4C30138
:1046F000B2010E94D2CC18161CF4E9EDF0E109C019
:10470000B301A201C8010E94102A2BC00E94BE2C36
:10471000F80184918F010F5F1F4F8111F7CFE7E2FE
:10472000F8E084918F010F5F1F4F882321F00E94D2
:10473000BE2CF801F6CF61E089E198E00E940B9968
:1047400088E290E09A83898388EC90E099A388A31B
:10475000BE016F5F7F4FCE0180960E948F550C94F3
:104760005E110F5F1F4FB4E08B0E911CE4E0AE0EA4
:10477000B11CF4E0CF0ED11C24E0220E311C84E0E9
:10478000E80EF11C0330110509F05DCF0E94C32A29
:104790000E94B87D60E088E098E00E940B9983E970
:1047A00092E099A388A304E610E01A830983BE016E
:1047B000605E7F4FCE0101960E948F558AEB92E09A
:1047C00099A388A31A830983BE01605E7F4FCE013F
:1047D00001960E948F550C945E110E945F938CEF9E
:1047E00098E09A83898306E410E019A308A3BE0128
:1047F0006F5F7F4FCE0180960E948F5584E59BE0CE
:104800009A83898319A308A3BE016F5F7F4FCE01EE
:1048100080960E948F550C945E110E9470A084E5D2
:104820009BE09A83898306E410E019A308A3BE01E4
:104830006F5F7F4FCE0180960E948F558CEF98E07E
:104840009A83898319A308A3BE016F5F7F4FCE01AE
:1048500080960E948F550C945E1183E50E94952BE3
:10486000882311F40C945E110E94522B80930D1139
:104870000C945E110E945A770C945E110E94BE2C1B
:10488000F80184918F010F5F1F4F8111F7CFE5E48D
:10489000F8E084918F010F5F1F4F882311F40C946F
:1048A0005E110E94BE2CF801F4CF81E08093AC022F
:1048B0001092401C83E50E94952B811104C00E9438
:1048C00082B00C945E110E94522B81110C945E11E7
:1048D000F6CFF0903506FF2029F1EFE0F1E1849169
:1048E0008F010F5F1F4F882321F00E94BE2CF8011B
:1048F000F6CF84E50E94BE2C6F2D70E080E090E042
:104900004AE00E94142D80E20E94BE2C09E713E0C9
:10491000D8018D918D01882311F40C94971A0E946F
:10492000BE2CF6CF1092DF1BEFE0F1E184918F01F6
:104930000F5F1F4F882321F00E94BE2CF801F6CF95
:104940006091DF1B70E084E598E00E94DE618AE000
:104950000E94BE2C0C945E1160912C0670912D0665
:10496000672B39F4BF016150710970932D06609374
:104970002C0660E070E00C94EC111092E01B0C949B
:104980005E1161E0802F0E94CAAE6E2D802F0E94C2
:104990009BAEF12CB701802F0E9406AF09301105A4
:1049A00011F00C945E11F092F913E092F8130C944C
:1049B0005E110E9415AE88E50E94952B882319F0A0
:1049C0005F9A1092F11089E50E94952B882319F0C7
:1049D0008A9A1092F2108AE50E94952B882351F052
:1049E0009FB7F894809108018160809308019FBF70
:1049F0001092F31085E40E94952B882311F40C94F7
:104A00005E110E94ED650C945E110E9415AE0E942D
:104A1000EF650C945E110E9415AE60E08F2D0E9430
:104A2000CAAE0F3FBFEF1B0759F48F2D0E94E93D1F
:104A300031E020E0892B09F030E0032F122F05C070
:104A40000130110571F401E010E08F2D0E94E93D65
:104A50008017910711F40C945E1180E00E946C663F
:104A6000F4CF00E010E0F1CFE9960FB6F894DEBF86
:104A70000FBECDBFDF91CF911F910F91FF90EF90AF
:104A8000DF90CF90BF90AF909F908F907F906F906E
:104A90005F904F903F902F9008959091E710E92FED
:104AA000F0E0EB5FFE4E80839F5F983018F49093A8
:104AB000E71002C01092E71080912C138F5F809353
:104AC0002C1308958FB7F8949091231D2091221DE7
:104AD000921759F0E92FF0E0EE55F34E208130E0C7
:104AE0009F5F9F779093231D02C02FEF3FEF8FBFF3
:104AF000C9010895089580E090E008952F923F92B3
:104B00004F925F926F927F928F929F92AF92BF92DD
:104B1000CF92DF92EF92FF920F931F93CF93DF9389
:104B200000D000D0CDB7DEB79A8389830E9409B048
:104B3000E981FA81C680D780E084F184C114D10470
:104B4000E104F10409F0ACC22485222309F469C30D
:104B500032852150248721E0230F228745852413A5
:104B600001C01286E981FA8124E0329FE00DF11D37
:104B70001124C684D784E088F188E981FA81C28251
:104B8000D382E482F582DC01CB018C0D9D1DA11D39
:104B9000B11D86839783A087B18784819581892BF6
:104BA00009F43FC3FFB7FD83F894E981FA812280BD
:104BB00033802101612C712C0481158180913D028B
:104BC000853221F08F3F09F068C205C0E0E8FEE1C0
:104BD00024912E83DAC085E280933D02E0E8FEE175
:104BE00084918E838F3F09F458C2823009F469C0E2
:104BF00030F5882309F44CC0813009F0C6C010920A
:104C000080001092810080918100886080938100F3
:104C100080918100816080938100EBE1FDE0E4916F
:104C2000F0E0EE0FFF1FE253FF4D85919491E1E616
:104C3000FDE0E491E0938A10E1E0EE8330C19E81D3
:104C4000943009F482C008F460C0953009F09DC02A
:104C5000109220011092210180912101886080939F
:104C6000210180912101816080932101EBE1FDE030
:104C7000E491F0E0EE0FFF1FE253FF4D8591949118
:104C8000E1E6FDE0E491E093871095E09E8307C1A3
:104C900014BC15BC84B5826084BD85B5816085BDBA
:104CA000EBE1FDE0E491F0E0EE0FFF1FE253FF4D7A
:104CB00085919491E1E6FDE0E491E0938B101E82F2
:104CC000ABC21092B0001092B1008091B00082602F
:104CD0008093B0008091B10081608093B100EBE1DE
:104CE000FDE0E491F0E0EE0FFF1FE253FF4D8591F0
:104CF00094919093211C8093201CE1E6FDE0E491C7
:104D0000E093221CF2E0FE8387C210929000109282
:104D10009100809191008860809391008091910032
:104D2000816080939100EBE1FDE0E491F0E0EE0F13
:104D3000FF1FE253FF4D85919491E1E6FDE0E49180
:104D4000E093891023E02E83AAC01092A000109255
:104D5000A1008091A10088608093A1008091A100B2
:104D600081608093A100EBE1FDE0E491F0E0EE0FC3
:104D7000FF1FE253FF4D85919491E1E6FDE0E49140
:104D8000E093881084E08E838AC0EE81E7FD85C1C0
:104D900061E085E20E94CAAE8E818D7F09F083C0FA
:104DA0004801A12CB12C60E072E18AE790E0A501F6
:104DB00094010E948BD129833A834B835C836901E0
:104DC0007A01F1E0CF1AD108E108F1082FEFC216FD
:104DD000D104E104F10409F008F44EC060E472E487
:104DE0008FE090E0A50194010E948BD169017A01C6
:104DF00081E0C81AD108E108F1089E81923009F5D6
:104E0000EFEFCE16D104E104F10409F008F4CBC1B0
:104E100060E970ED83E090E0A50194010E948BD1E0
:104E200069017A01F1E0CF1AD108E108F1082FEF0A
:104E3000C216D104E104F10411F008F041C183E08D
:104E400027C08FEFC816D104E104F104B9F0B0F027
:104E500068E478EE81E090E0A50194010E948BD196
:104E600069017A0191E0C91AD108E108F108EE81DF
:104E7000EE2309F49AC163C181E001C082E09E8102
:104E8000911106C095B5987F892B85BD7AC085E0C4
:104E90009091B100987F892B8093B10072C061E03E
:104EA00085E20E94CAAE4801A12CB12C60E072E1FB
:104EB0008AE790E0A50194010E948BD169017A01F3
:104EC000E1E0CE1AD108E108F108C114D104F1E003
:104ED000EF06F10488F068E478EE81E090E0A50147
:104EE00094010E948BD169017A0181E0C81AD1082E
:104EF000E108F10883E001C081E09E81913071F406
:104F000090918100987F892B8093810045284628C5
:104F10004728D9F52FEF3FEFA90168C0EE81E330B4
:104F200071F490919100987F892B8093910045288E
:104F30004628472851F52FEF3FEFA90179C0FE81A0
:104F4000F43071F49091A100987F892B8093A10097
:104F5000452846284728C9F42FEF3FEFA9017AC01A
:104F60002E81253071F490912101987F892B8093B7
:104F7000210145284628472841F42FEF3FEFA9019A
:104F80007BC045284628472869F0D801AA0FBB1FD7
:104F900091010E9454D128EE33E040E050E00E949D
:104FA00027D103C02FEF3FEFA9018E81823081F11D
:104FB0002CF4882361F08130C9F06FC09E81943059
:104FC00009F448C0ACF1953009F456C066C0C7BCBE
:104FD00020939C1030939D1040939E1050939F10EF
:104FE00080916E00826080936E0057C0D0928900DD
:104FF000C0928800209398103093991040939A1093
:1050000050939B1080916F00826080936F0045C029
:10501000C092B3002093231C3093241C4093251C82
:105020005093261C8091700082608093700035C080
:10503000D0929900C09298002093941030939510CC
:1050400040939610509397108091710082608093E6
:10505000710023C0D092A900C092A80020939010A4
:10506000309391104093921050939310809172005E
:1050700082608093720011C0D0922901C0922801F1
:1050800020938C1030938D1040938E1050938F107E
:1050900080917300826080937300ED81EFBFC1C087
:1050A000DC01CB018C199D09AE09BF09B7FDB9C060
:1050B0004098E981FA811682178210861186B1C064
:1050C00068E478EE81E090E0A50194010E948BD124
:1050D00069017A01F1E0CF1AD108E108F1082FEF58
:1050E000C216D104E104F10441F138F164E274EF35
:1050F00080E090E0A50194010E948BD169017A01C2
:10510000F1E0CF1AD108E108F1082FEFC216D1045F
:10511000E104F10409F008F4BACE62E17AE780E034
:1051200090E0A50194010E948BD169017A0181E090
:10513000C81AD108E108F10819C084E0A9CE2FEF00
:10514000C216D104E104F10409F008F463C062E17D
:105150007AE780E090E0A50194010E948BD169017B
:105160007A01F1E0CF1AD108E108F1082FEFC21659
:10517000D104E104F104A9F0A0F089819A81AB8106
:10518000BC812AE0B595A795979587952A95D1F783
:105190006C017D01F1E0CF1AD108E108F10887E048
:1051A00077CE86E075CE82E073CEEFEFCE16D104D7
:1051B000E104F10469F160F162E17AE780E090E0F6
:1051C000A50194010E948BD169017A0181E0C81A7E
:1051D000D108E108F1089FEFC916D104E104F104F8
:1051E000A9F0A0F089819A81AB81BC813AE0B595A4
:1051F000A795979587953A95D1F76C017D01E1E0E8
:10520000CE1AD108E108F10885E03CCE84E03ACE20
:1052100083E038CE84E033CE61E085E20E94CAAEFE
:10522000BFCD26960FB6F894DEBF0FBECDBFDF917F
:10523000CF911F910F91FF90EF90DF90CF90BF9093
:10524000AF909F908F907F906F905F904F903F9026
:105250002F9008958FEB9EE00E94698021E0892BBA
:1052600009F420E0822F08958CE59FE00E94698078
:1052700021E0892B09F420E0822F08959091BF133B
:1052800091FB222720F98217C9F081110EC041E954
:1052900053E16DE873E189E893E10E94E751809161
:1052A000BF138D7F8093BF13089590FFF8CF926056
:1052B0009093BF1389E893E10C94126208958F9242
:1052C0009F92AF92BF92CF92EF92FF920F931F9354
:1052D000CF93DF93CDB7DEB72C970FB6F894DEBF30
:1052E0000FBECDBF4B015C01C090DF1BEDE0F6E1CE
:1052F00080859185A285B3854481558166817781BA
:10530000008111812281338109831A832B833C839D
:105310004D835E836F83788789879A87AB87BC8745
:10532000AE01475F5F4FBE016B5F7F4FCE010196BD
:105330000E94E7518501740129E136E1AE01475F22
:105340005F4FBE016B5F7F4FCE0101960E944F43BE
:105350002C960FB6F894DEBF0FBECDBFDF91CF9174
:105360001F910F91FF90EF90CF90BF90AF909F90C3
:105370008F900895CF92DF92EF92FF920F931F9339
:10538000CF93DF93EC01CC0FDD1FCC0FDD1FFE01AF
:10539000E750FF4E20E030E0A901608171818281F9
:1053A00093810E94BBD1FE01E258F44E20813181ED
:1053B000428153810E94BBD16B017C01FE01E25B03
:1053C000F94E6083718382839383FE01EE5CF54F17
:1053D00025913591459154918E01035E194E0E949D
:1053E000BBD1F8016083718382839383FE01E25C09
:1053F000F54F2591359145915491C15FDD4FC7011E
:10540000B6010E94BBD1688379838A839B83DF9135
:10541000CF911F910F91FF90EF90DF90CF90089563
:105420008F929F92AF92BF92EF92FF920F931F9332
:10543000CF93DF938C014A015B01EC01CC0FDD1FA0
:10544000CC0FDD1FCE0187579C4E7C01C750DF4E2D
:10545000288139814A815B81C501B4010E94BAD19A
:10546000F70120813181428153810E94BBD1F70134
:10547000608371838283938388829982AA82BB82AC
:10548000C801DF91CF911F910F91FF90EF90BF90D6
:10549000AF909F908F900C94BA29CF93FC012081FC
:1054A0002B33A9F020912C13283088F4C62FBC018F
:1054B0008091E710F0E48F9FC0011124855D9E4E1E
:1054C0000E9402D58C2F0E944D2581E001C080E012
:1054D000CF910895DF92EF92FF920F931F93CF9396
:1054E000DF93CDB7DEB76E970FB6F894DEBF0FBE71
:1054F000CDBF60910B1670910C166115710549F1C5
:105500004DE150E0CE0101967C010E944CCC1E8EF4
:10551000F7018F010E191F09D190DD2019F09AE0D3
:10552000D912F7CFF701E00FF11F1082C7010E94D7
:10553000C355882371F0DD20A9F00F5F1F4F8091C4
:105540000B1690910C16080F191F10930C16009350
:105550000B1681E020910B1630910C16232B29F4A9
:1055600080E003C000E010E0F0CF6E960FB6F89434
:10557000DEBF0FBECDBFDF91CF911F910F91FF9086
:10558000EF90DF9008950F931F93CF93DF93CDB7E4
:10559000DEB72C970FB6F894DEBF0FBECDBFE9E89B
:1055A000F3E180859185A285B3854481558166812B
:1055B0007781008111812281338109831A832B83B2
:1055C0003C834D835E836F83788789879A87AB8717
:1055D000BC87AE01475F5F4FBE016B5F7F4FCE015F
:1055E00001960E94E75125E933E1AE01475F5F4F25
:1055F000BE016B5F7F4FCE0101960E9482632C96A5
:105600000FB6F894DEBF0FBECDBFDF91CF911F91D3
:105610000F91089580E1E9E8F3E1ADE0B6E1019092
:105620000D928A95E1F7089580E1EDE0F6E1A9E8B1
:10563000B3E101900D928A95E1F70895809185106C
:1056400090918610009731F04AE050E060E070E001
:105650000C9413CB60E070E0CB010895809185102D
:1056600090918610009731F04AE050E060E070E0E1
:105670000C94E5C960E070E0CB0108950E942E2BE8
:1056800097FD0CC00E942E2B6F3F7105810591057F
:1056900009F034F40E942E2B862F089580E008959F
:1056A0008FEF08958091851090918610892B39F0A5
:1056B0000E943E2B91E0811103C090E001C091E077
:1056C000892F08950F931F93CF9380918510909108
:1056D00086100097F1F0FC018F01C1912C2F2F7DD6
:1056E00089F0C53411F0C536B9F7F801108260E0D1
:1056F00070E00E9489C8F801C083562F472F382FC9
:10570000292F0BC060E070E0CF911F910F910C9496
:1057100089C850E040E030E020E0652F742F832FEF
:10572000922FCF911F910F91089581548A3150F596
:10573000482F50E0FA0193E0F595E7959A95E1F747
:10574000E85DF94F208130E0877002C035952795DC
:105750008A95E2F7822F817020FF15C0FA01E25F7F
:10576000F94F9081992339F02091741B3091751B6A
:10577000290F311D02C020E030E0309386102093C5
:105780008510089580E008950E94952B882341F0AC
:1057900081E02091851030918610232B09F480E060
:1057A0000895FC01238121110C94BF8708950E9464
:1057B00009B06093761B7093771B8093781B90934E
:1057C000791B08952F923F924F925F926F927F9232
:1057D0008F929F92AF92BF92CF92DF92EF92FF9201
:1057E0000F931F93CF93DF93EB01FC018080918097
:1057F000A280B380C501B40120E831E541E050E06A
:105800000E9427D1C9016DE671E00E9463D16B014E
:105810007C01C501B40120E13EE040E050E00E947F
:1058200027D1CA01B90128E130E040E050E00E94F0
:1058300027D1362E272E062F172F8CE3482E512CDA
:10584000612C712CC501B401A30192010E9427D1E2
:10585000B62EA72ECA01B901A30192010E9427D139
:10586000CB01C114D104D9F0AF92BF927F936F9353
:105870002F923F92FF92EF92DF92CF9281EA98E0CF
:105880009F938F93DF93CF930E94A3CC8DB79EB746
:105890000E960FB6F8949EBF0FBE8DBF5CC0E1148C
:1058A000F104C9F0AF92BF927F936F932F923F9212
:1058B000FF92EF9281E998E09F938F93DF93CF93CC
:1058C0000E94A3CCEDB7FEB73C960FB6F894FEBF8E
:1058D0000FBEEDBF40C0012BB9F0AF92BF927F93D6
:1058E0006F932F923F9285E898E09F938F93DF9379
:1058F000CF930E94A3CC8DB79EB70A960FB6F894AB
:105900009EBF0FBE8DBF27C0892BA9F0AF92BF925B
:105910007F936F938DE798E09F938F93DF93CF935F
:105920000E94A3CCEDB7FEB738960FB6F894FEBF31
:105930000FBEEDBF10C0AF92BF9289E798E09F9372
:105940008F93DF93CF930E94A3CC0F900F900F9073
:105950000F900F900F90DF91CF911F910F91FF90BB
:10596000EF90DF90CF90BF90AF909F908F907F90FF
:105970006F905F904F903F902F9008953FB7F894AD
:1059800020918310909184103FBF291304C09091FF
:10599000C00095FD3EC0909183109F5F977020914D
:1059A0008410921325C00FB607FCF9CF2091C000D8
:1059B00025FFF5CF20918410E22FF0E0E558FF4E4F
:1059C00030812F5F2770209384103093C600209180
:1059D000C00020642093C000309183102091841077
:1059E0003213DDCF2091C1002F7D2093C100D7CF8E
:1059F000E0918310F0E0E558FF4E80832FB7F894D4
:105A0000909383108091C10080628093C1002FBF6A
:105A100008959FB7F8948093C6008091C000806479
:105A20008093C0009FBF08958F929F92AF92BF92C4
:105A3000EF92FF920F931F93CF93DF93CDB7DEB713
:105A4000A0970FB6F894DEBF0FBECDBF61157105EC
:105A50008105910591F100E0842E912CA12CB12CAF
:105A6000102FEE24E394F12CEC0EFD1EE00EF11C41
:105A700007FDFA94A50194010E9427D1F7016083E4
:105A8000B901CA010F5F611571058105910541F7E3
:105A90001F3F31F1E1E0F0E0EC0FFD1FE10FF11DE0
:105AA00017FDFA9580818A3010F097E301C090E3EA
:105AB000890F0E94BE2C1150EBCF80E3A0960FB649
:105AC000F894DEBF0FBECDBFDF91CF911F910F9134
:105AD000FF90EF90BF90AF909F908F900C94BE2C52
