:100000000C94B7110C94E8110C94E8110C94E811BD
:100010000C94E8110C94E8110C9463A20C94E81170
:100020000C94E8110C94E8110C94E8110C94E8116C
:100030000C94E8110C942F7A0C94E8110C94E811AC
:100040000C94E8110C94AA650C94E8110C94E81136
:100050000C94E8110C94E8110C941E7E0C9430B5AD
:100060000C94E8110C94A8320C94D6320C94E8113C
:100070000C94E8110C94E8110C94E8110C94E8111C
:100080000C94E8110C94E8110C94E8110C94E8110C
:100090000C94E8110C94E8110C94E8110C94E811FC
:1000A0000C94E8110C94E8110C94E8110C94E811EC
:1000B0000C94E8110C94E8110C94E8110C94E811DC
:1000C0000C94E8110C94E8110C94E8110C9433335F
:1000D0000C9409330C94E8110C94E8110C94E81179
:1000E0000C94E811335F755FA95FFA5F2F60E660DB
:1000F000506058617960AE608E93AD95BD95BD95A9
:10010000BD95FA95FC95FC95FC95FC95C095FA95E6
:10011000FC95CC952DB330B31FB323B329B367B38C
:1001200034B338B33EB342B346B34CB350B354B315
:1001300067B35AB35EB362B34AB44FB454B45EB457
:1001400068B4E1B472B47AB482B48CB496B4A0B496
:10015000AFB4B9B4E1B4C3B4CDB4D7B40C94E874BB
:100160000C9450600C947AB40C940AA30C943479D7
:100170000C945E790C940A700C94AD950C94EC7010
:100180000C94B5730C9434B30C9461740C943EB31A
:100190000C9453750C9428700C9446B30C94AE6078
:1001A0000C9411B60C946D790C94A95F0C948B2669
:1001B0000C9454B30C94D7B40C9429B30C94586198
:1001C0000C94CDB40C9472B40C94E1B40C944CB374
:1001D0000C94D1A40C94E6600C9454B40C942F604D
:1001E0000C94DE750C94AFB40C948E930C94A0B464
:1001F0000C94FA5F0C948CB40C9496B40C94F07A32
:100200000C941FB30C94C3AD0C94A0720C9450B317
:100210000C94B9B40C943D7B0C9474720C9468B437
:100220000C9479600C94BD950C94335F0C94FA9502
:100230000C9430B30C9423B30C948D6F0C946672B1
:100240000C948C260C94BE720C94D0790C94817909
:100250000C9452700C9442B30C945AB30C94CC95F9
:100260000C945EB40C9467B30C944AB40C944B7128
:100270000C945EB30C944FB40C94C0950C942DB3B5
:100280000C9462B30C94755F0C9438B30C9482B4E4
:100290000C941E710C94FC950C9482720C948F2615
:1002A0000C94A6740C94E7D00C948F790C94C3B47E
:1002B0000C942A714E414E494E495459494E46CDEF
:1002C000CCCC3D0AD7233C17B7D13877CC2B32950D
:1002D00095E6241FB14F0A000020410000C84200EB
:1002E000401C4620BCBE4CCA1B0E5AAEC59D7400B5
:1002F000407A10F35A00A0724E18090010A5D4E8F5
:100300000000E87648170000E40B54020000CA9A87
:100310003B000000E1F505000080969800000040D9
:10032000420F000000A0860100000010270000001E
:1003300000E803000000006400000000000A000064
:100340000000000100000000002C76D888DC674F18
:100350000823DFC1DFAE59E1B1B796E5E3E453C648
:100360003AE651997696E8E6C28426EB898C9B6240
:10037000ED407C6FFCEFBC9C9F40F2BAA56FA5F4EA
:1003800090055A2AF75C936B6CF9676DC11BFCE012
:10039000E40D47FEF520E6B500D0ED902E03009465
:1003A0003577050080841E080000204E0A000000FA
:1003B000C80C333333330F986E12831141EF8D2104
:1003C00014893BE65516CFFEE6DB18D1844B381B6B
:1003D000F77C1D901DA4BBE424203284725E228130
:1003E00000C9F124ECA1E53D27434F4D4D554E4941
:1003F000434154494F4E0044525952554E004552C4
:10040000524F525300494E464F004543484F005506
:100410007370696A2E2E2E004D3530300059206FD2
:100420007574206F662072616E67652028312D32E9
:10043000292E0A0058206F7574206F662072616E35
:1004400067652028312D32292E0A004D65736820FA
:1004500070726F62696E6720646F6E652E0A00535A
:1004600074617274206D6573682070726F62696E5A
:10047000672077697468202247323920533122205F
:1004800066697273742E0A004732380A473239207F
:1004900053320053746174653A20004D65736820CF
:1004A000626564206C6576656C696E67206861734F
:1004B000206E6F20646174612E0A0053206F757482
:1004C000206F662072616E67652028302D35292ED9
:1004D0000A004D65736820706F696E742063616EE9
:1004E0006E6F74206265207265736F6C7665640A46
:1004F000004F637A656B6977616E69652E2E2E00F9
:100500004D30004272616B20727563687500456EF4
:10051000642066696C65206C6973740A00426567C3
:10052000696E2066696C65206C6973740A004D31D0
:100530003235005344207072696E74696E672062B0
:1005400079746520004E6F74205344207072696E78
:1005500074696E670A005072696E742074696D6503
:100560003A200050726F7465637465642050696E40
:100570000A005072696E746F2048332B20546F77D5
:10058000657220676F746F77612E000A040504FEA0
:1005900003F703E9036F66660044454255473A0096
:1005A00055626974792E20004D3131332053006F2C
:1005B0006B004361703A454D455247454E43595F84
:1005C0005041525345523A300A004361703A434118
:1005D00053455F4C494748545F4252494748544E3F
:1005E0004553533A300A004361703A544F47474CE1
:1005F000455F4C49474854533A300A004361703ACA
:10060000534F4654574152455F504F5745523A3029
:100610000A004361703A4C4556454C494E475F4489
:100620004154413A310A004361703A5A5F50524F87
:1006300042453A300A004361703A4155544F4C45A7
:1006400056454C3A300A004361703A5052494E5474
:100650005F4A4F423A310A004361703A50524F4765
:10066000524553533A300A004361703A4155544F52
:100670005245504F52545F54454D503A310A004351
:1006800061703A454550524F4D3A310A0046495241
:100690004D574152455F4E414D453A4D61726C692F
:1006A0006E20312E332E31622028476974687562BE
:1006B0002920534F555243455F434F44455F5552A0
:1006C0004C3A68747470733A2F2F67697468756256
:1006D0002E636F6D2F4D61726C696E4669726D7716
:1006E0006172652F4D61726C696E2050524F544F8C
:1006F000434F4C5F56455253494F4E3A312E3020AE
:100700004D414348494E455F545950453A507269EE
:100710006E746F2048332B20546F776572204558D4
:100720005452554445525F434F554E543A3120552B
:100730005549443A63656465326132662D343161EE
:10074000322D343734382D396231322D63353563EB
:1007500036326633363766660A002F2F200053651F
:100760007474696E672054726176656C20416363AE
:10077000656C65726174696F6E3A200053657474BC
:10078000696E6720526574726163742041636365AA
:100790006C65726174696F6E3A2000536574746998
:1007A0006E67205072696E7420416363656C657278
:1007B0006174696F6E3A200053657474696E6720C6
:1007C0005072696E7420616E642054726176656C3B
:1007D00020416363656C65726174696F6E3A2000D5
:1007E000205A00205900580020204D61783A2000FE
:1007F000205A00205900580020204D696E3A2000F0
:10080000576C2E200057796C2E00536F667420654C
:100810006E6473746F70733A20000001363726FFE0
:10082000023C3D380EFF2E303EFF13FF0C0809FF3F
:10083000FFFF1A1C18FFFF08440AFF43FFFFFFFFDA
:10084000FFFF20643A0020693A0020703A002064DB
:100850003A0020693A0020703A0043290A00616298
:100860006C656420286D696E2074656D702000438E
:100870006F6C64206578747275646573206172654D
:100880002000426564204C6576656C696E672000C7
:100890004661696C656420746F20656E61626C6589
:1008A00020426564204C6576656C696E670A004D70
:1008B00065736820426564204C6576656C206461D0
:1008C00074613A0A00506F7A2E207A65726F7761F0
:1008D000207573742E004572723A20546F6F206633
:1008E00061722100546F6F206661722066726F6DB5
:1008F000207265666572656E636520706F696E74DF
:100900000A0061627920777A6E6F77696320777960
:100910006472756B0066696C616D656E74752069D3
:10092000206B6C696B6E696A005573756E206E6121
:10093000646D6961720000577A6E617769616E69F2
:10094000652077796472756B75004D383132004ED1
:100950006F2063617365206C696768740A00416386
:10096000746976652045787472756465723A200002
:10097000556E6B6E6F776E20636F6D6D616E643A4E
:1009800020220039363030204F4B202D3E2054524B
:1009900059203131350A0039363030204641494C32
:1009A000202D3E20545259203131350A004E6578B1
:1009B00074696F6E20636F6E6E6563746564210A7F
:1009C000004E657874696F6E206E6F7420636F6E71
:1009D0006E6563746564210A004E69650054616B3D
:1009E00000437A7920777A6E6F776963207779642C
:1009F00072756B3F0057796B7279746F207A616EF4
:100A0000696B206E6170696563696100706F207A3F
:100A1000616E696B75207A6173696C616E696100E2
:100A2000577A6E617769616E69652077796472754E
:100A30006B75004D313137204472756B6F77616E85
:100A400069652E2E004739322045004D383200208E
:100A500046333030300020453138002059004731CE
:100A6000205800204633303030004731205A004DA6
:100A700038313200204633303030002045313500E7
:100A800020590047312058004D3233202573002E65
:100A900067636F004D31393020532564004D31308C
:100AA0003920532564006261627973686966743A1B
:100AB000006166746572686F6D653A006265666FA5
:100AC00072653A0042617A6F77616E6965206F7373
:100AD0006900706F207A616E696B75207A61736945
:100AE0006C616E6961005572756368616D69616EF4
:100AF000696500473238002020506C616E6E657267
:100B000042756666657242797465733A20002046C4
:100B1000726565204D656D6F72793A2000436F6D87
:100B200070696C65643A2041756720203520323049
:100B300032300A00207C20417574686F723A202898
:100B40005072696E746F33642E706C2C204A616B26
:100B500075622053696B6F7261290A00323032303E
:100B60002D30372D313300204C6173742055706463
:100B7000617465643A2000312E332E31620A004DD3
:100B800061726C696E0020536F66747761726520C4
:100B900052657365740A00205761746368646F67F7
:100BA0002052657365740A002042726F776E206F61
:100BB00075742052657365740A00204578746572F7
:100BC0006E616C2052657365740A00506F776572B0
:100BD00055700A0073746172740A006572726F72E4
:100BE0002077726974696E6720746F2066696C651E
:100BF0000A00205A3A0020593A0020583A00656EFF
:100C00006473746F7073206869743A2000446F6E67
:100C10006520736176696E672066696C652E0A00CF
:100C20004D3239002569730025696D2025697300EF
:100C30002569682025696D20256973002569642070
:100C40002569682025696D2025697300256979204B
:100C5000256964202569682025696D202569730050
:100C600055626974792E20005A6174727A796D61C7
:100C70006E792E20005072696E7465722073746FE5
:100C8000707065642064756520746F206572726F82
:100C900072732E2046697820746865206572726FC1
:100CA0007220616E6420757365204D393939207466
:100CB0006F20726573746172742E202854656D7094
:100CC00065726174757265206973207265736574ED
:100CD0002E205365742069742061667465722072D9
:100CE000657374617274696E67290A004E6F204CD7
:100CF000696E65204E756D62657220776974682033
:100D0000636865636B73756D2C204C617374204C44
:100D1000696E653A20004E6F20436865636B73759A
:100D20006D2077697468206C696E65206E756D62E0
:100D300065722C204C617374204C696E653A2000FA
:100D4000636865636B73756D206D69736D61746342
:100D5000682C204C617374204C696E653A20004CFD
:100D6000696E65204E756D626572206973206E6FC5
:100D700074204C617374204C696E65204E756D62F1
:100D800065722B312C204C617374204C696E653A6E
:100D900020004D313130004D3331004D3834205872
:100DA0002059205A20450053442072656164206513
:100DB00072726F720A00446F6E65207072696E7491
:100DC000696E672066696C650A0020496E76616C01
:100DD0006964206578747275646572200000000093
:100DE00000000000000000000000004D4300005221
:100DF000430000CB43206E6F7420656E746572658E
:100E0000642E0A000A4D6561737572656420706F07
:100E1000696E74733A0A005A206F66667365743A95
:100E200020004E756D20582C593A20322C320A0081
:100E300046696C652064656C657465643A00446558
:100E40006C6574696F6E206661696C65642C204600
:100E5000696C653A20006F70656E206661696C652B
:100E6000642C2046696C653A20006D0046696C610F
:100E70006D656E7420757365643A200053746174F7
:100E8000733A20002C204C6F6E67657374206A6F74
:100E9000623A2000546F74616C2074696D653A2069
:100EA0000053746174733A20002C204661696C65AC
:100EB000643A20002C2046696E69736865643A20A4
:100EC000005072696E74733A200053746174733AFF
:100ED0002000202F002042403A0020403A00526F6C
:100EE0007A67727A616E6F0020573A005072696EAD
:100EF000746F2048332B20546F77657220676F74AE
:100F00006F77612E00526F7A67727A616E6F20730D
:100F1000746F6C0020573A00526F7A67727A657767
:100F2000616E69652073746F6C752E2E2E00205AC9
:100F30003A0020423A0020436F756E7420413A0017
:100F400020453A00205A3A0020593A00583A004BBE
:100F500064200023646566696E652020444546412F
:100F6000554C545F004B69200023646566696E65CB
:100F7000202044454641554C545F004B70200023CF
:100F8000646566696E65202044454641554C545F52
:100F90000050494420756B6F6E637A6F6E6F00501E
:100FA0004944204175746F74756E652066696E6979
:100FB00073686564212050757420746865206C61C5
:100FC0007374204B702C204B6920616E64204B643D
:100FD00020636F6E7374616E74732066726F6D2020
:100FE00062656C6F7720696E746F20436F6E6669FF
:100FF0006775726174696F6E2E680A0050494420EB
:101000004175746F74756E65206661696C656421E5
:101010002074696D656F75740A0050494420626CD4
:1010200061643A206F76657273686F74005049444A
:1010300020626C6164206B616C69627261636A69D1
:1010400000504944204175746F74756E6520666167
:10105000696C6564212054656D7065726174757288
:101060006520746F6F20686967680A00204B643AD6
:101070002000204B693A2000204B703A20000A20C3
:10108000436C617373696320504944200A00205403
:10109000753A2000204B753A2000206D61783A2087
:1010A00000206D696E3A200020643A2000206269B9
:1010B00061733A200050494420726F7A706F637AEE
:1010C00065746F004D65736820706F696E7420637E
:1010D000616E6E6F74206265207265736F6C7665E9
:1010E000640A004D34323120696E636F7272656339
:1010F0007420706172616D657465722075736167CB
:10110000650A002066697273740A005A0059005813
:1011100000486F6D65200020636F6C6420657874F3
:10112000727573696F6E2070726576656E74656432
:101130000A0043616E6E6F74206F70656E20737568
:1011400062646972200053442063617264206F6B93
:101150000A006F70656E526F6F74206661696C650E
:10116000640A00766F6C756D652E696E6974206611
:1011700061696C65640A004572726F723A0053448B
:1011800020696E6974206661696C0A006175746F0C
:1011900025692E67004D3234004D3233202573000F
:1011A000656E7175657565696E6720220065636897
:1011B0006F3A0043616E6E6F7420656E74657220C5
:1011C0007375626469723A2000456B73747275645A
:1011D000756A2077696563656A00577A6E6F772054
:1011E0006472756B6F77616E6965005779626965C6
:1011F000727A206F70636A650050726F737A65202F
:10120000637A656B616300526F7A67727A657761A2
:101210006E6965206479737A790057796D69616EBA
:10122000612066696C616D656E747500616279201C
:10123000726F7A67727A6163206479737A65005796
:101240006369736E696A2070727A796369736B007F
:1012500057796D69616E612066696C616D656E7448
:10126000750077796472756B7500547277612077B9
:101270007A6E617769616E6965006E6F7765676F19
:10128000206D6174657269616C75005472776120BC
:10129000656B737472757A6A610066696C616D65FD
:1012A0006E747520646F20676C6F77696379005482
:1012B000727761207770726F7761647A616E6965A9
:1012C0000057796D69616E612066696C616D656E4C
:1012D000747500616279206B6F6E74796E756F77CB
:1012E00061632E2E2E0069206E616369736E696AD8
:1012F0002070727A796369736B00576C6F7A20661D
:10130000696C616D656E740057796D69616E6120FD
:1013100066696C616D656E74750066696C616D659A
:101320006E7475207A20676C6F77696379005472E8
:101330007761207779737577616E69650057796D8C
:1013400069616E612066696C616D656E7475007AA5
:101350006D69616E792066696C616D656E7475008A
:101360005472776120726F7A706F637A796E616EF2
:1013700069650057796D69616E612066696C616DA0
:10138000656E74750057726974696E6720746F209A
:1013900066696C653A20006F70656E206661696CE5
:1013A00065642C2046696C653A20006F70656E207C
:1013B0006661696C65642C2046696C653A2000465C
:1013C000696C652073656C65637465640A002053FD
:1013D000697A653A200046696C65206F70656E65B4
:1013E000643A20006F70656E206661696C65642CDC
:1013F0002046696C653A20002066696C653A2000D9
:101400004E6F7720002220706F730022207061726F
:10141000656E743A2200535542524F5554494E4519
:101420002043414C4C207461726765743A22005528
:10143000626974792E2000747279696E6720746F06
:101440002063616C6C207375622D67636F64652027
:1014500066696C6573207769746820746F6F206D9E
:10146000616E79206C6576656C732E204D41582035
:101470006C6576656C2069733A0024F4D43050C3EF
:101480008E20C2A24017828B7011127A910D816C4E
:10149000D90AA861E108C7586607615143061E4B87
:1014A0005D05C145A7041A411104093D980371392E
:1014B00031034036DB0265339102D4305402802E72
:1014C0001D02632CEE01752AC501B028A00110276A
:1014D00081018F2564012B244B01E0223401AC21D2
:1014E0001F018D200D01801FFC00841EED00971D43
:1014F000DF00B81CD200E61BC600201BBC00641A2B
:10150000B200B219A8000A19A0006A189900D117F0
:10151000910040178B00B516840031167E00B3157C
:1015200079003A157300C7146F0058146A00EE135F
:1015300066008813630025135E00C7125B006C12FF
:10154000570015125400C111510070114F002111A4
:101550004B00D61049008D10470046104400021081
:101560004200C00F4000800F3E00420F3C00060FBB
:101570003B00CB0E3800930E37005C0E3500270E73
:101580003400F30D3200C10D3100900D3000600DBC
:101590002E00320D2D00050D2C00D90C2B00AE0CA9
:1015A0002900850C29005C0C2700350C27000E0C47
:1015B0002600E80B2400C40B2400A00B23007D0BA5
:1015C00023005A0B2100390B2100180B2000F80AC8
:1015D0001F00D90A1E00BB0A1E009D0A1D00800ABA
:1015E0001D00630A1C00470A1B002C0A1B00110A7D
:1015F0001A00F7091A00DD091900C4091900AB091E
:101600001900920917007B091800630917004C099B
:10161000160036091600200916000A091500F508FB
:101620001500E0081400CC081400B8081400A40841
:101630001400900813007D0812006B08130058086E
:101640001200460812003408110023081100120885
:10165000110001081100F0071000E0071000D0078A
:101660001000C0071000B0070F00A107100091077D
:101670000E0083070F0074070F0065070E00570761
:101680000E0049070E003B070D002E070E00200735
:101690000D0013070D0006070D00F9060C00ED06FE
:1016A0000D00E0060C00D4060C00C8060C00BC06B9
:1016B0000C00B0060C00A4060B0099060C008D0669
:1016C0000B0082060B0077060B006C060B00610610
:1016D0000A0057060B004C060A0042060A003806AC
:1016E0000A002E060A0024060A001A060A0010063E
:1016F000090007060A00FD050900F4050900EB05CD
:101700000900E2050900D9050900D0050900C7054F
:101710000900BE050900B5050800AD050800A505CE
:1017200009009C050800940508008C050800840544
:1017300008007C050800740508006C0507006505B5
:1017400008005D050700560508004E05070047051F
:1017500007004005080038050700310507002A0585
:101760000700230507001C050600160507000F05E6
:1017700007000805060002050700FB040600F50443
:101780000700EE040600E8040600E2040700DB049C
:101790000600D5040600CF040600C9040600C304F1
:1017A0000600BD040600B7040600B1040500AC0441
:1017B0000600A6040600A00405009B04060095048C
:1017C0000500900406008A040500850405008004D5
:1017D00006007A04050075040500700405006B041A
:1017E000050066040500610405005C04050057045B
:1017F0000500520405004D0405004804050043049B
:1018000005003E0404003A040500350405003004D8
:1018100004002C04050027040400230405001E0412
:1018200004001A04040016040500110404000D0449
:101830000400090405000404040000040400FC037F
:101840000400F8030400F4030400F0030400EC03B4
:101850000400E8030400E4030400E0030400DC03E4
:101860000400D8030400D4030400D0030400CC0314
:101870000400C8030300C503030024F404D9201B9B
:10188000C40C5C0E9804C4095F0265077101F4057D
:10189000F900FB04B30048048700C1036900580342
:1018A000550003034500BE023A0084023100530292
:1018B0002A002902250004022000E4011C00C801BE
:1018C0001900AF0117009801140084011300710181
:1018D00010006101100051010E0043010D0036019E
:1018E0000B002B010B0020010B00150109000C015E
:1018F000090003010800FB000800F3000800EB00EA
:101900000700E4000600DE000600D8000600D20052
:101910000600CC000500C7000500C2000500BD00A0
:101920000400B9000400B5000400B1000400AD00DB
:101930000400A9000400A5000300A20003009F000A
:1019400004009B0003009800030095000200930030
:101950000300900003008D0002008B00030088004C
:1019600002008600020084000300810002007F0064
:1019700002007D0002007B00020079000200770077
:101980000100760002007400020072000100710084
:1019900002006F0002006D0001006C0002006A008E
:1019A0000100690002006700010066000100650097
:1019B000010064000200620001006100010060009B
:1019C00001005F0002005D0001005C0001005B009F
:1019D00001005A00010059000100580001005700A1
:1019E00001005600010055000100540001005300A1
:1019F000000053000100520001005100010050009E
:101A000001004F0001004E0000004E0001004D009B
:101A100001004C0001004B0000004B0001004A0097
:101A20000100490001004800000048000100470093
:101A3000010046000000460001004500000045008E
:101A40000100440001004300000043000100420087
:101A50000000420001004100000041000100400080
:101A600001003F0000003F0001003E0000003E007A
:101A700001003D0000003D0001003C0000003C0072
:101A800000003C0001003B0000003B0001003A0068
:101A900000003A0001003900000039000100380060
:101AA0000000380000003800010037000000370057
:101AB000010036000000360000003600010035004D
:101AC0000000350000003500010034000000340043
:101AD0000000340001003300000033000000330038
:101AE000010032000000320000003200010031002D
:101AF0000000310000003100010030000000300023
:101B00000000300001002F0000002F0000002F0017
:101B100000002F0001002E0000002E0000002E000B
:101B200001002D0000002D0000002D0000002D0000
:101B300001002C0000002C0000002C0000002C00F4
:101B400001002B0000002B0000002B0000002B00E8
:101B500001002A0000002A0000002A0000002A00DC
:101B600001002900000029000000290000002900D0
:101B700000002900010028000000280000002800C3
:101B800000002800000028000100270000002700B6
:101B900000002700000027000000270001002600A9
:101BA000000026000000260000002600000026009D
:101BB0000100250000002500000025000000250090
:101BC0000000250000002500010024000000240082
:101BD0000000240000002400000024000100230075
:101BE0000000230000002300000023000000230069
:101BF000000023000000230001002200000022005A
:101C0000000022000000220000002200000022004C
:101C1000010021000000210000002100000021003F
:101C20000000210000002100000021000100200030
:101C30000000200000002000000020000000200024
:101C400000002000000020000000200001001F0014
:101C500000001F0000001F0000001F0000001F0008
:101C600000001F0000001F0001001E0000001E00F9
:101C700000001E0000001E0000004D3834205820D7
:101C800059205A204500577A6E6F7769656E6965ED
:101C9000004D32340057796472756B20777374721B
:101CA0007A796D616E79004D3132350047323920D5
:101CB0005332004E49450054414B0054414B004DB6
:101CC0002042204C00323032302D30372D3133005D
:101CD000312E332E316200256C642E25696D00543F
:101CE000656D702E206D696E3A20313730006B6F54
:101CF0006E74796E756F77616300726F7A67727A4E
:101D0000656A2061627900476C6F77696361206A58
:101D1000657374207A696D6E612C004D3630302009
:101D200042300047393000473931004732380044EB
:101D300072756B2070727A657277616E79007001CE
:101D40002C0190012701B0012201C0011D01F00109
:101D500018011002130130020E0160020901900205
:101D60000401C002FF000003FA004003F5008003F5
:101D7000F000D003EB002004E6007004E100E00472
:101D8000DC004005D700C005D2004006CD00D006DB
:101D9000C8008007C3003008BE00F008B900C009C1
:101DA000B400B00AAF00B00BAA00D00CA500000E22
:101DB000A000500F9B00C01096005012910000141C
:101DC0008C00C0158700B0178200B0197D00D01BB1
:101DD0007800001E730040206E0090226900F024FD
:101DE000640040275F0090295A00E02B5500102E18
:101DF000500020304B0010324600E0334100903557
:101E00003C001037370070383200A0392D00B03A4E
:101E10002800A03B2300603C1E00103D1900903DAF
:101E20001400103E0F00703E0A00C03E0500003F47
:101E30000000403FFBFF803FF6FFC03FF1FF4572CF
:101E400072206D696E2074656D702073746F6C758F
:101E500000457272206D696E2074656D70004D4989
:101E60004E54454D50207472696767657265640011
:101E7000457272206D61782074656D702073746F87
:101E80006C7500457272206D61782074656D70000C
:101E90004D415854454D50207472696767657265AD
:101EA0006400027C3C3E5E2B3D3F2F5B5D3B2C2A59
:101EB000225C00290A002062797465733B206372FA
:101EC00063200053657474696E67732053746F7276
:101ED0006564202800202863616C63756C617465FB
:101EE0006429210A0020213D2000454550524F4DD4
:101EF00020435243206D69736D61746368202D2007
:101F00002873746F726564292000290A00206279A1
:101F10007465733B2063726320002073746F726575
:101F2000642073657474696E677320726574726976
:101F300065766564202800204D61726C696E3D569F
:101F40003339290A0028454550524F4D3D0045453B
:101F500050524F4D2076657273696F6E206D6973B4
:101F60006D61746368200025756420253032753AF0
:101F700025303275004B61727461207573756E691E
:101F8000657461004B6172746120776C6F7A6F6E5B
:101F9000610073645F7374617475733A66616C7326
:101FA000650A0073645F7374617475733A74727553
:101FB000650A00202F2000526573656E643A200088
:101FC0006F6B0020636F6C64206578747275736941
:101FD0006F6E2070726576656E7465640A00627556
:101FE00073793A2070617573656420666F72206939
:101FF0006E7075740A00627573793A20706175733A
:10200000656420666F7220757365720A006275736D
:10201000793A2070726F63657373696E670A004D59
:102020003630300055626974792E20004B494C4C93
:1020300020636175736564206279204B494C4C20A4
:10204000627574746F6E2F70696E0A0055626974E0
:10205000792E20004B494C4C2063617573656420D8
:10206000627920746F6F206D75636820696E61639B
:10207000746976652074696D65202D2063757272B0
:10208000656E7420636F6D6D616E643A20005072EE
:10209000696E7465722068616C7465642E206B696A
:1020A0006C6C28292063616C6C6564210A00506F98
:1020B0007765724C6F73732E2E0A0000004D43003B
:1020C0000000000000CB4300009642000096420052
:1020D00000C841000000005761726E696E673A20C7
:1020E000486F6D696E672042756D7020446976692E
:1020F000736F72203C20310A000202080000A040E9
:102100000000A0400000A04000004D4300005243EA
:102110000000CB4301FF014D36303020486F74651D
:102120006E6420746F6F20636F6C6420746F206323
:1021300068616E67652066696C616D656E740A0022
:1021400048617264636F6465642044656661756CA0
:10215000742053657474696E6773204C6F61646595
:10216000640A008813000088130000500000002853
:1021700023000000008243000082430000E0410091
:1021800000A0420000A0420000A04200004844001D
:1021900000204366696C616D656E743A20007A5F59
:1021A0006D61783A2000795F6D696E3A2000785F42
:1021B0006D61783A20005265706F7274696E6720A5
:1021C000656E6473746F70207374617475730A0044
:1021D0004572726F722077726974696E6720746FCE
:1021E00020454550524F4D210A006265640A002C7B
:1021F0002073797374656D2073746F7070656421DA
:10220000204865617465725F49443A20005A616EE6
:10221000696B2074656D702E00546865726D616C19
:102220002052756E6177617900526F7A67727A2EEB
:10223000206E69657564616E650048656174696EDC
:1022400067206661696C6564000000210024002736
:10225000002A002D003000330001010000040107B6
:10226000010A0100002200250028002B002E003169
:1022700000340002010000050108010B01000020EC
:10228000002300260029002C002F0032000001004E
:1022900000030106010901050505050705080808F1
:1022A00008020202020A0A080804040404010101E7
:1022B00001010101010303030303030303040707EF
:1022C000070C0C0C0C0C0C0C0C020202020606068D
:1022D00006060606060B0B0B0B0B0B0B0B01021075
:1022E0002020080810204010204080020102010830
:1022F00004020101020408102040808040201008E0
:102300000402018004020180402010080402010838
:102310000402010102040810204080010204081098
:1023200020408000000A0B02090C0D0E0807030470
:10233000010000000000000000000000000000009C
:10234000000000000000000000000000000000127B
:10235000111000000000000000000000000000005C
:102360000000000000000000000011B6E7D01124BA
:102370001FBECFEFD1E2DEBFCDBF00E00CBF16E045
:10238000A0E0B2E0E4E1F3EC01E00BBF02C0079093
:102390000D92A432B107D9F72DE1A4E2B6E001C055
:1023A0001D92A73EB207E1F711E1C6EBD1E100E0D3
:1023B00006C021970109802FFE010E94D2DDC53B96
:1023C000D10780E00807A9F70E9404C50C9478E1C2
:1023D0000C9400002F923F924F925F926F927F92E7
:1023E0008F929F92AF92BF92CF92DF92EF92FF9225
:1023F0000F931F93CF93DF93CDB7DEB7E9970FB657
:10240000F894DEBF0FBECDBF0091631320E4029F9E
:10241000800111240D511F4E8091331480FF1AC08A
:10242000EDEAF1E184917F013FEFE31AF30A8111B4
:1024300002C0780104C00E94D82DF701F3CFD70164
:102440008D917D01882319F00E94D82DF8CF8AE064
:102450000E94D82D81E090E09093AE108093AD1053
:1024600010924306109242068FE380934906109221
:1024700048061092470684E0EEE3F6E0DF011D9285
:102480008A95E9F7F80180810F5F1F4F8032D1F301
:102490008E34C9F4818190ED980F9A3020F08D32FE
:1024A00011F08B3281F4DF0112969D012F5F3F4FB7
:1024B0008C9180538A3010F4D901F7CFFD01119629
:1024C00080818032D9F3F093ED1CE093EC1C7F0106
:1024D000BFEFEB1AFB0A10816AE270E0C7010E94AD
:1024E00016E1009731F0FC01319780818032E1F3F1
:1024F00011821D3431F1143521F1173411F1EDEA57
:10250000F1E184918F010F5F1F4F882321F00E941A
:10251000D82DF801F6CF6091EC1C7091ED1C80E78E
:1025200099E00E94C26C82E20E94D82D8AE00E944B
:10253000D82D1092AE101092AD100E94309C0C94C9
:102540004526C701FC01208101962032D9F3205392
:102550002A30A8F61093490680E090E06AE03196B0
:10256000DF0111972C91022E000C330B20533109FF
:10257000689FA001699F500D1124C901840F951F08
:10258000208120532A3058F39093480680934706C1
:10259000DF0131962C912032D9F31D34D1F48E31E4
:1025A000910591F03CF48731910571F08C319105E2
:1025B00081F40AC08537910564F08737910524F0CE
:1025C000803AE3E09E0729F4B0934306A0934206C5
:1025D00083C010924306109242060091EC1C41E029
:1025E00050E0FD0131962C91222309F475C021326F
:1025F000A1F41D3491F48032910579F4F0934306EF
:10260000E093420663E270E0CF010E9416E100977A
:1026100009F424C4DC011C925FC03FEBD32ED20E20
:1026200069E1C62ECD14C0F1BF01FB0130816F5F9F
:102630007F4F3032D1F360ED630F6A3040F063EDCD
:10264000630F623020F03B3211F00C94C325BF01C0
:10265000AD2CB12C7501A3E0F594E794AA95E1F7B0
:102660009701225C394F79012D2D2770DA0102C0C4
:10267000AA0FBB1F2A95E2F79D01D7013C91232B9E
:102680002C936115710511F0601B01C060E0D5014C
:10269000AC5DB94F6C930AC020914206309143065D
:1026A000232B21F4B0934306A093420620812154AA
:1026B0002A3110F4DF0195CFDF01BD016F5F7F4F3D
:1026C0002C9120532A3010F4DB01F7CFFD01119635
:1026D00020812032D9F3EECF809149068D3409F460
:1026E000BDC3843511F40C948025873409F007CFDD
:1026F00080914706909148068D31910509F46CC090
:1027000074F48430910539F11CF40297D0F011CFA4
:102710004C9709F00ECF80E00E94A3370ACF8A358C
:10272000910509F4A2C224F48A9709F400C301CFE9
:102730008B35910509F49CC28C35910509F49CC236
:10274000F8CE8091AC02882309F4F3CE0E9465385C
:102750000E94849BEECE80E50E94D52C882329F030
:102760000E942F2C6B017C0103C0C12CD12C76015F
:1027700083E50E94D52C882361F00E94732C20E011
:1027800030E04AE754E40E94FFD60E94DFDE6B018E
:102790007C010E9409B30E94F12C8091EE1C909163
:1027A000EF1CA091F01CB091F11CC80ED91EEA1EBE
:1027B000FB1E60E08FE094E00E94B0920E9424B57E
:1027C000DC01CB018C199D09AE09BF09B7FFB1CE61
:1027D00080E00E946B97F2CF83E50E94D52C88237E
:1027E00021F00E944F2C182F01C010E0163068F025
:1027F000EBEBF4E084918F010F5F1F4F882309F406
:1028000098CE0E94D82DF801F5CF123009F445C0BA
:10281000B0F41123F9F0113009F024C20E94E6A4AB
:10282000109201021092000288E894E090934516FD
:10283000809344160E947B2B1093031C13C2143008
:1028400009F401C208F4A5C1153009F00BC20E94B9
:10285000A73908C28091FA1380FD03C0EBE9F4E0C8
:1028600011C081FF03C06BE673E002C060E773E054
:1028700083E994E00E94C26C8AE00E94D82D0E94F5
:1028800023D0F0C184918F010F5F1F4F882309F47B
:10289000E9C10E94D82DF801F5CF209100023091B6
:1028A000010237FF0CC00FE514E0F8018491882382
:1028B00009F43FCE0F5F1F4F0E94D82DF6CF211590
:1028C000310529F48091A5028093460631C08FEF2F
:1028D000820F982F917897FF03C091509E6F9F5F52
:1028E000E92F87FD8F5F859580FF02C0E1E0E91B3E
:1028F000EE0FFF0BE80FF11D87FDFA95EE0FFF1F9E
:10290000EE0FFF1FE651FC4E8091881690918916BC
:10291000A0918A16B0918B1680839183A283B38392
:10292000809146068093A502243031050CF0CAC080
:10293000822F817887FF03C081508E6F8F5FA82E12
:10294000E22F27FF02C0E1E0E20FBE2EB594B0FEF9
:1029500003C0A1E0AA2EA81AC0902E02D0902F0288
:10296000E0903002F09031020FEC10E2F801859116
:102970009591A591B49180932E0290932F02A093EC
:102980003002B093310220E030E0A9016091CF160F
:102990007091D0168091D1169091D2160E94E3DDED
:1029A00020E030E040EA50E40E94E3DD60938816C6
:1029B0007093891680938A1690938B160E94CCCFC1
:1029C00085E595E5A5E0B3E480932E0290932F0270
:1029D000A0933002B0933102FA2D24E0F202D0012C
:1029E0001124AF5FB34F2091C7163091C8164091A4
:1029F000C9165091CA166D917D918D919C910E943E
:102A0000E3DD609380167093811680938216909315
:102A100083163B2D84E03802F0011124E750F44F77
:102A20002091CB163091CC164091CD165091CE16F8
:102A300060817181828193810E94E3DD60938416BD
:102A40007093851680938616909387160E94CCCF3C
:102A5000F80185919591A591B49180932E02909360
:102A60002F02A0933002B093310220E030E0A901A0
:102A70006091CF167091D0168091D1169091D21698
:102A80000E94E3DD609388167093891680938A16FE
:102A900090938B160E94CCCFC0922E02D0922F0220
:102AA000E0923002F09231020E9409B31092A50226
:102AB000809100029091010201969093010280930F
:102AC0000002D0C020E030E0A9016091CF167091E3
:102AD000D0168091D1169091D2160E94E3DD20E0AD
:102AE00030E040EA50E40E94E3DD60938816709382
:102AF000891680938A1690938B160E94CCCF0E94E1
:102B000009B38FEF9FEF9093010280930002EBE4F3
:102B1000F4E084918F010F5F1F4F882321F00E9402
:102B2000D82DF801F6CF83E992E09A83898304E6F1
:102B300010E019A308A3BE016F5F7F4FCE018096FE
:102B40000E94B4588AEB92E09A83898319A308A360
:102B5000BE016F5F7F4FCE0180960E94B458809176
:102B6000FA1381608093FA138CEE9BE00E945196D9
:102B700081E00E94A33781E00E944F2A88E194E01F
:102B800090934516809344160E947B2B1092031C51
:102B900069C088E50E94D52C882391F00E943F2CC3
:102BA0001FEF160F123090F004E314E0F801849147
:102BB000882309F4BECC0F5F1F4F0E94D82DF6CF9B
:102BC00088E50E94D82D0E94D7D0B3CC89E50E9419
:102BD000D52C882399F00E943F2C0FEF060F02306E
:102BE00098F0EDE1F4E084918F010F5F1F4F88238F
:102BF00009F49FCC0E94D82DF801F5CF89E50E94F9
:102C0000D82D0E94D7D095CC8AE50E94D52C882358
:102C1000A1F00E94732CE12FEE0FFF0BE00FF11DCE
:102C200007FDFA95EE0FFF1FEE0FFF1FE651FC4E5A
:102C3000608371838283938315C08AE50E94D82DB7
:102C40000E94D7D076CC8AE50E94D52C8823A9F3A0
:102C50000E94732C6093E6137093E7138093E8133C
:102C60009093E9130E94404264CC1092450661CCD7
:102C700081E0809345065DCC85E40E94D52CB82E7A
:102C8000811102C00E9409B30BEC802E02E0902E4D
:102C900080E8C82E86E1D82E9FE3E92E9DE1F92E2B
:102CA00000E010E0A12CD4018D914D010E94D52CA3
:102CB000882339F1F60140805180628073800E9440
:102CC000732CD6016D937D938D939C931397033052
:102CD000C1F0A30192010E94E2DD9B01AC01F7016A
:102CE00060817181828193810E94E3DDD7016D93C0
:102CF0007D938D939C931397C8010E94CB2AAA249D
:102D0000A3940F5F1F4FB4E0CB0ED11CE4E0EE0E96
:102D1000F11C0430110539F6AA2019F00E94D42BB9
:102D200003C0B1100E94165E0E94404202CC809106
:102D3000AC02882309F4FDCB89E40E94D52CE82E4F
:102D4000882321F00E943F2C062F01C000E08AE476
:102D50000E94D52CF82E882321F00E943F2C162F9C
:102D600001C010E0EE2011F0023020F4FF2079F0D5
:102D7000123068F0E2EDF4E084918F010F5F1F4F95
:102D8000882309F4D6CB0E94D82DF801F5CF0E94F4
:102D90001B2CEE20E1F024E00202F0011124EF5F91
:102DA000F34F2091C7163091C8164091C916509123
:102DB000CA1660817181828193810E94E3DD6093F4
:102DC0004F16709350168093511690935216FF2011
:102DD000E1F034E01302F0011124E750F44F2091A8
:102DE000CB163091CC164091CD165091CE16608105
:102DF0007181828193810E94E3DD60935316709309
:102E00005416809355169093561680E50E94A62C72
:102E100081110E94632C86E40E94D52C8823D9F06E
:102E20000E94732C6B017C0120E030E0A9010E941C
:102E300066DF181684F420E030E040E752E4C70172
:102E4000B6010E9466DE60932E0270932F0280937B
:102E50003002909331020E94849B6BCB8091470695
:102E6000909148068337910509F4DBC10CF0C4C08A
:102E70008C34910509F4EBC30CF06BC088319105DB
:102E800009F4A9C2D4F58231910509F4F2C5D4F44C
:102E900097FD4FCB823091050CF4C6C1419709F0E4
:102EA00048CB60E083E095E00E94B0925F988A98FA
:102EB0009FB7F894809108018E7F809308019FBF8F
:102EC000129837CB8531910509F47DC234F44497CB
:102ED00009F02FCBEDEAF1E12FC28631910509F41B
:102EE00075C2479709F025CB40E061E0809142062A
:102EF000909143060E9446621CCB8E31910509F4E5
:102F0000EDC2B4F48A31910509F490C20CF481C287
:102F10008B31910509F4A6C24C9709F00ACB40E029
:102F200060E080914206909143060E94466201CB88
:102F30008032910509F4D6C20CF41EC38A32910581
:102F400009F446C38B34910509F0F3CA0E946E5E02
:102F5000F0CA8936910509F48CC42CF583359105A6
:102F600009F482C58CF48E34910509F478C30CF40D
:102F700072C38135910509F465C58235910509F063
:102F8000D8CA10929F10D5CA8535910509F4A8C5F5
:102F90000CF46FC58C35910509F4BDC588369105D3
:102FA00009F461C3C6CA8E36910509F48CC38CF44A
:102FB0008B36910509F4C2C40CF4A1C48C3691057A
:102FC00009F402C48D36910509F0B3CA0E94193480
:102FD000B0CA8037910509F4FBC30CF487C381376D
:102FE000910509F4FDC38237910509F0A2CA0E9438
:102FF00009B30E9440429DCA8C32A1E09A0711F4A5
:103000000C945A210CF076C0883C910509F4DCC67A
:10301000CCF58937910509F4D1C6FCF486379105C2
:1030200009F491C664F48537910509F082CA60E01D
:1030300080914206909143060E94DD927ACA8737BA
:10304000910509F4B7C68837910509F072CA81E085
:103050008093080280935D1D6CCA8C38910509F439
:10306000ECC32CF48D37910509F47AC462CA8B390C
:10307000910509F41BC48E3B910509F05ACA0E94C0
:10308000FF4257CA8E3C910511F40C944920CCF4B0
:103090008B3C910509F407C75CF4893C910509F064
:1030A00048CAEBECEE2EE2E0FE2E06EB16E1E0C69F
:1030B0008C3C910509F414C78D3C910509F47CC73B
:1030C00038CA8C3D910511F40C94002144F4833DE1
:1030D000910509F02ECAEDEAF1E10C9468208D3DCE
:1030E000910511F40C940F21823E910511F40C947A
:1030F0002B211FCA8C3AE1E09E0711F40C94622345
:10310000ACF5833621E0920709F487C0ACF48E3227
:10311000A1E09A0711F40C94A12214F40C948421D8
:103120008F32E1E09E0711F40C94F8228033914035
:1031300011F40C942322FDC98A3921E0920709F485
:103140004BC33CF48039914009F0F3C90E9409B3A4
:10315000F0C9843AB1E09B0711F40C94FC22853A43
:10316000914009F0E6C90E94823CE3C98835F2E04B
:103170009F0711F40C945125B4F5853F31E0930776
:1031800011F40C9446241CF5843F914009F0D1C9F8
:103190000E94048D8CEF98E09A83898306E410E006
:1031A00019A308A3BE016F5F7F4FCE0180960E94D6
:1031B000B45884E59BE09A83898319A308A3BE01D0
:1031C0006F5F7F4FCE0180960E94B458B2C9863F90
:1031D000E1E09E0711F40C9466248C31924011F4C6
:1031E0000C944425A6C98C3223E0920791F034F464
:1031F0008B32934009F09DC90E9466A0803AB3E0EB
:103200009B0709F4ACC1873E934011F40C946C25E4
:1032100090C9EAE4F9E00C948624E7E7F1E10C9424
:103220005825EDE8F6E003C5E0E0F5E084918F0174
:103230000F5F1F4F882321F00E94D82DF801F6CF91
:10324000A0904206B090430680E50E94D52C8823CA
:1032500059F00E942F2C6B017C0111E0672B682B29
:10326000692B31F410E004C010E0C12CD12C7601A0
:1032700083E50E94D52C8823F1F00E94732C20E076
:1032800030E04AE754E40E94FFD60E94DFDE6B0183
:103290007C01111112C0672B682B692B71F4A114EA
:1032A000B10459F0D5018C91882339F061E0C50152
:1032B0000E94DD9207C0112391F360E081EF94E05A
:1032C0000E94B09283E090E09093AE108093AD1096
:1032D00081E08093AC100E9409B30E94F12CC114CC
:1032E000D104E104F10411F18091EE1C9091EF1CE6
:1032F000A091F01CB091F11CC80ED91EEA1EFB1E55
:103300000E9424B5DC01CB018C199D09AE09BF09CF
:10331000B7FD02C00C94D4258091AC10882311F421
:103320000C94D42580E00E946B97EACF1092AC10E9
:1033300000C90E94D82DF80184918F010F5F1F4FA3
:103340008111F7CFEDE1F5E084918F010F5F1F4F01
:10335000882321F00E94D82DF801F6CF1092D90EC3
:103360001092D80E83E89CE00E94C2828BE1E3E8D1
:10337000FCE0DE01159601900D928A95E1F78091AF
:10338000810C9091820C9C838B8389ED92E09A83CF
:10339000898340E050E0BE016F5F7F4F8FE693E08E
:1033A0000E94F95BCE0101960E945EA0EEE0F5E07E
:1033B00084918F010F5F1F4F882309F4BAC80E94C0
:1033C000D82DF801F5CF0E941D5AB3C81092520CA7
:1033D0001092530CAEC819821A821B821C8218A24A
:1033E00019A21AA21BA280919910882341F040E0F3
:1033F000BE016F5F7F4FCE0180960E943A9E809102
:10340000530C882319F081E08093520C0E946E5E69
:1034100090C81092520C0E94545E8EE295E09093F8
:103420004516809344160E947B2B83C88091530CD1
:10343000882309F47EC883E50E94D52C882309F4EB
:1034400078C80E943F2CAB01BC014093CF0E509333
:10345000D00E6093D10E7093D20E8EE19EE00E944A
:10346000AAAB67C88091530C811103C0E5E4F5E075
:1034700029C0E3E3F5E084918F010F5F1F4F88239C
:1034800021F00E94D82DF801F6CF6091CF0E7091F7
:10349000D00E8091D10E9091D20E4AE00E942E2E35
:1034A0008FE20E94D82D6091CB0E7091CC0E80914E
:1034B000CD0E9091CE0E4AE00E942E2E8AE00E9400
:1034C000D82D37C884918F010F5F1F4F882311F4C7
:1034D0000C9499120E94D82DF801F4CF0E94B639AD
:1034E0000C9499128091520C81110E9409B3E090C2
:1034F0004206F090430680E50E94A62C182F8823F0
:1035000019F00E94632C182F8091530C882311F41A
:103510000C949912412F61E0C7010E94466283E535
:103520000E94D52C882381F00E943F2CAB01BC0166
:103530004093CF0E5093D00E6093D10E7093D20E65
:103540008EE19EE00E94AAAB8091530C882319F073
:1035500081E08093520C11110C94991257CF8091F5
:1035600042069091430621E02093510C40E060E038
:103570000E9446620C94991287E29CE00E94D2B1AC
:1035800068A379A38AA39BA3BE016F5F7F4FCE017F
:1035900080960E94FC2C60E0CE0101960E94DD9294
:1035A000EDEAF1E184918F010F5F1F4F882321F035
:1035B0000E94D82DF801F6CFBE016F5F7F4F86E5E0
:1035C00095E00E94C26C8AE00E94D82D0C9499125A
:1035D00083E50E94D52C882311F40C9499120E9443
:1035E0004F2CE82E80E50E94D52C882339F00E94CC
:1035F0003F2C8B0177FF04C00C9499120DE010E072
:10360000802FEAE1F8E09491891303C0E7E7F1E144
:103610000AC03196B8E0E234FB07A9F70C94D8252C
:103620000E94D82DF80184918F010F5F1F4F8111E7
:10363000F7CFE3E6F5E084918F010F5F1F4F8823FA
:1036400011F40C9499120E94D82DF801F4CF0E9425
:10365000545E0C9499120E94D7570C9499120E94B0
:10366000B1350C94991288E690E00E949B2E81114E
:103670000C9499128091331483FF02C00C94991218
:1036800083E50E94D52C8823D1F00E94732C0E94E0
:10369000D8DECB010E940F800E94732C20E030E026
:1036A0004AEA52E40E9499D618163CF00E94D75775
:1036B00060E082E795E00E94B0920E94732C0E9425
:1036C000C26D0C9499128EE40E94D52C882311F4BB
:1036D0000C9499120E943F2C6093E31C7093E41C9D
:1036E0008093E51C9093E61C0C94991283E50E944C
:1036F000D52C882319F00E944F2C01C080E08093C4
:103700003314EDEAF1E184918F010F5F1F4F8111B6
:1037100003C0E9E9F5E004C00E94D82DF801F3CF19
:1037200084918F010F5F1F4F882321F00E94D82DB5
:10373000F801F6CF80913314811103C0E5E9F5E07B
:1037400034C01BE8C12E15E0D12EE12CF12C20E075
:103750008091331490E00E2C02C0959587950A94C1
:10376000E2F780FF17C0BB24B394B20E222319F0F6
:103770008CE20E94D82DF60185919491FC018491F0
:103780008F010F5F1F4F882321F00E94D82DF80171
:10379000F6CF2B2DEFEFEE1AFE0AF2E0CF0ED11C82
:1037A00035E0E316F104A1F60AC084918F010F5FA2
:1037B0001F4F882321F00E94D82DF801F6CF8AE010
:1037C0000E94D82D0C949912109232020C949912E6
:1037D00080EA95E00E949EA20E947B3D0C94991283
:1037E00083E50E94D52C811103C0EDEAF1E10DC003
:1037F0000E944F2C8093A0028D3310F40C949912E8
:103800008CE38093A0020C94991284918F010F5F36
:103810001F4F882321F00E94D82DF801F6CF409148
:10382000A00250E060E070E088EA95E00E946F6CD2
:103830008AE00E94D82D0C9499128091331483FF52
:1038400002C00C94991283E50E94D52C882311F4B0
:103850000C9499120E94732C0E94D8DE673971056E
:1038600014F066E970E07093A1106093A0100C94BE
:10387000991289E690E00E949B2E811111C0EFEA17
:10388000F5E084918F010F5F1F4F882321F00E9484
:10389000D82DF801F6CF0E9494338AE00E94D82DEB
:1038A0001092AE101092AD100C94452683E50E9444
:1038B000D52C882311F40C9499120E944F2C8093DC
:1038C000EB1C8D3318F08CE38093EB1C0E9424B525
:1038D0006B017C012091EB1C30E0A8EEB3E00E946C
:1038E0007CDDC60ED71EE81EF91EC092E71CD092E2
:1038F000E81CE092E91CF092EA1C0C94991283E512
:103900000E94D52C882339F00E943F2C8B016F3FF9
:10391000710519F010F00FEF10E080E50E94D52C32
:10392000811106C010939B1000939A100C94991269
:103930000E944F2C81110C949912F4CF80E50E94C3
:10394000D52C811106C010929B1010929A100C94E5
:1039500099120E943F2C672B11F00C949912F3CF0F
:103960008CE40E94A62C882319F00E94732C04C0BA
:1039700060E070E080EA90EC68AB79AB8AAB9BAB1F
:103980008AE50E94D52C882319F00E94732C03C06D
:1039900060E070E0CB0120E030E040E751E40E94BD
:1039A000E3DD6CA77DA78EA79FA788E50E94D52C95
:1039B000882319F00E94732C03C060E070E0CB01F3
:1039C00020E030E042E553E40E94E3DD68A779A7F8
:1039D0008AA79BA789E50E94D52C882319F00E940D
:1039E000732C03C060E070E0CB0120E030E04CEDD0
:1039F00052E40E94E3DD6CA37DA38EA39FA31982F2
:103A00001A821B821C8218A219A21AA21BA28091E0
:103A1000991081110C949912A12CC12CCE01019600
:103A20007C018E01005E1F4F9E012C5D3F4FAE0159
:103A3000485D5F4FBE01645D7F4F8F960E94819C01
:103A40000C9499120E9416800E9409B30E942E9B2A
:103A500010929B1010929A1068EE73E080E090E054
:103A60000E94607D0C94991281E080939F100C94C9
:103A7000991283E50E94D52C8823A1F00E94732C13
:103A800020E030E04AE754E40E94FFD60E94DFDEE7
:103A90006093A1027093A2028093A3029093A40268
:103AA0000C94991288E50E94A62C81110C94F025A3
:103AB00089E50E94A62C81110C94F0258AE50E94CC
:103AC000A62C81110C94F02585E40E94A62C81116E
:103AD0000C94F0250E9409B30E942E9B0C9499121D
:103AE00083E50E94A62C882311F40C9499120E945D
:103AF000732C20E030E04AE754E40E94FFD60E9495
:103B0000DFDE6093F21C7093F31C8093F41C90939F
:103B1000F51C0C949912ABECCA2EA2E0DA2EB0E997
:103B2000EB2EB6E1FB2E10E0D6018D916D010E94C7
:103B3000A62C882309F46DC0133009F063C00E94DD
:103B4000732C4B015C0120E030E040EA51E40E941C
:103B500099D687FF4EC0A501940160919C16709183
:103B60009D1680919E1690919F160E9466DE2B01F5
:103B70003C019B01AC016091071470910814809185
:103B8000091490910A140E94FFD660930714709351
:103B900008148093091490930A14A3019201609170
:103BA00023147091241480912514909126140E945E
:103BB000FFD660932314709324148093251490935C
:103BC00026146091B2167091B3168091B41690913C
:103BD000B5160E949ED6A30192010E94FFD60E94B4
:103BE000DFDE6093B2167093B3168093B416909391
:103BF000B51680929C1690929D16A0929E16B09239
:103C00009F1607C00E94732CF70160837183828323
:103C100093831F5FF4E0EF0EF11C143009F084CFA2
:103C20000E941A6F0C9499120E94D82DF801849169
:103C30008F010F5F1F4F8111F7CFEFE7F6E003C051
:103C40000E94D82DF80184918F010F5F1F4F8111C1
:103C5000F7CFE8E6F6E003C00E94D82DF801849182
:103C60008F010F5F1F4F8111F7CFE8E5F6E003C02A
:103C70000E94D82DF80184918F010F5F1F4F811191
:103C8000F7CFE7E4F6E003C00E94D82DF801849155
:103C90008F010F5F1F4F8111F7CFE6E3F6E003C0FE
:103CA0000E94D82DF80184918F010F5F1F4F811161
:103CB000F7CFE7E2F6E003C00E94D82DF801849127
:103CC0008F010F5F1F4F8111F7CFE2E1F6E003C0D4
:103CD0000E94D82DF80184918F010F5F1F4F811131
:103CE000F7CFECEFF5E003C00E94D82DF8018491E6
:103CF0008F010F5F1F4F8111F7CFE7EEF5E003C093
:103D00000E94D82DF80184918F010F5F1F4F811100
:103D1000F7CFEAECF5E003C00E94D82DF8018491BA
:103D20008F010F5F1F4F8111F7CFE2EBF5E0849118
:103D30008F010F5F1F4F882311F40C9499120E947A
:103D4000D82DF801F4CF85E40E94A62C882381F0B9
:103D50000E94632C882361F0EDEAF1E184918F01E8
:103D60000F5F1F4F882321F00E94D82DF801F6CF56
:103D700081E40E94A62C882381F00E94632C882372
:103D800061F0EAE5F7E084918F010F5F1F4F882310
:103D900021F00E94D82DF801F6CF00914206109133
:103DA0004306D8018D918D01882309F408CD0E9426
:103DB000D82DF7CF0E94D4A50C9499121092080226
:103DC00010925D1D0C94991288EC90E00E949B2E3D
:103DD00081110C94991284E40E94A62C882309F482
:103DE00043C00E94732C6B017C0111E020E030E0A5
:103DF000A9010E9499D6811101C010E010935E1DA7
:103E000020E030E0A901C701B6010E9499D68823BD
:103E100059F10091440610E00E94732C000F111F0D
:103E2000000F111FF801EA55FD4F608371838283F3
:103E3000938320E030E0A9016091A6027091A7026F
:103E40008091A8029091A9020E9499D681110CC07C
:103E500080E090E0A0EEBFE38093A6029093A702DB
:103E6000A093A802B093A9020E943F9B0C949912C0
:103E7000F70181917F010E94A62C882351F00E94B6
:103E8000732C0E94DFDED8016D937D938D939C93FC
:103E900013970C5F1F4FB6E1063C1B0749F70E94C2
:103EA000F26D0C9499127BECE72E72E0F72E07E18D
:103EB00014E1F70181917F010E94A62C882341F033
:103EC0000E94732CD8016D937D938D939C931397CF
:103ED0000C5F1F4FB4E107321B0759F70C9499127E
:103EE00083E50E94A62C8823D9F00E94732CAB0195
:103EF000BC0140930F1450931014609311147093ED
:103F0000121440930B1450930C1460930D1470937F
:103F10000E1488EB97E00E948C6C8AE00E94D82DEA
:103F200080E50E94A62C882399F00E94732CAB0197
:103F3000BC0140930F1450931014609311147093AC
:103F400012148BE997E00E948C6C8AE00E94D82DB5
:103F500082E50E94A62C882399F00E94732CAB0165
:103F6000BC01409313145093141460931514709370
:103F700016148CE797E00E948C6C8AE00E94D82D82
:103F800084E50E94A62C882311F40C9499120E94B7
:103F9000732CAB01BC0140930B1450930C14609331
:103FA0000D1470930E148EE597E00E948C6C8AE0DD
:103FB0000E94D82D0C94991283E50E94A62C882388
:103FC00051F00E94732C60932F14709330148093DF
:103FD00031149093321484E50E94A62C882351F06A
:103FE0000E94732C60932B1470932C1480932D14C7
:103FF00090932E1482E40E94A62C882351F00E94F4
:104000002F2C609327147093281480932914909375
:104010002A1488E50E94A62C882351F00E94732C54
:104020006093FB137093FC138093FD139093FE1326
:1040300089E50E94A62C882351F00E94732C60937E
:10404000FF137093001480930114909302148AE577
:104050000E94A62C882351F00E94732C60930314B5
:1040600070930414809305149093061485E40E94C1
:10407000A62C882311F40C9499120E94732C60933F
:104080000714709308148093091490930A140C94E5
:1040900099126BECE62E62E0F62E00E010E0F701DC
:1040A00081917F010E94A62C882339F00E94732CF5
:1040B000AB01BC01C8010E94212B0F5F1F4F0330D1
:1040C000110569F70E94D42B0E9440420C9499126A
:1040D00084918F010F5F1F4F882321F00E94D82DFC
:1040E000F801F6CF83E50E94A62C882321F00E94D8
:1040F000632C8093A502EAE0F8E084918F010F5FC2
:104100001F4F882321F00E94D82DF801F6CF80910F
:10411000A502882319F0E0E0F8E002C0E5E0F8E04D
:1041200084918F010F5F1F4F811103C0E8EFF7E00B
:1041300004C00E94D82DF801F3CF84918F010F5F46
:104140001F4F882321F00E94D82DF801F6CF40910F
:104150005F1650916016609161167091621686EF3D
:1041600097E00E948C6C40916316509164166091A8
:1041700065167091661683EF97E00E948C6C4091F3
:104180006716509168166091691670916A1680EFF3
:1041900097E00E948C6CE8EEF7E084918F010F5F4E
:1041A0001F4F882321F00E94D82DF801F6CF4091AF
:1041B0000F0250911002609111027091120286EE6E
:1041C00097E00E948C6C4091130250911402609110
:1041D00015027091160283EE97E00E948C6C40915C
:1041E0001702509118026091190270911A0280EE24
:1041F00097E00E948C6C8AE00E94D82D0C94991252
:1042000083E50E94D52C882311F40C9499120E9406
:104210003F2C70938702609386020C9499128DED67
:1042200090E00E949B2E81110C94991283E50E94CC
:10423000D52C882311F40C9499120091440610E0B7
:104240000E943F2C000F111FF801E75FFD4F7183A3
:1042500060830C94991280E50E94A62C882311F4A7
:104260000C9499120E943F2CF62EC62ED72E83E571
:104270000E94D52C882321F00E943F2C8B0102C084
:104280000FEF1FEFC8010196039710F00C949912DD
:10429000D7FE02C00C949912EAE1F8E082E498E0BB
:1042A0002491F21611F40C94991231968E179F07EF
:1042B000B9F7C2C483E50E94D52C882319F00E9467
:1042C0003F2C02C064E071E079A368A380E50E94FE
:1042D000D52C882339F00E943F2C6938F3E17F0701
:1042E00030F402C068EE73E07A83698304C088E822
:1042F00093E19A838983BE01605E7F4FCE01019670
:104300000E94B4580C94991285E40E94D52C811116
:1043100010C080E50E94A62C882391F00E94732C87
:104320006093BD027093BE028093BF029093C0025F
:1043300007C00E944F2C882361F3E7E7F1E172C0C8
:1043400089E40E94A62C882381F00E94732C2CEA19
:1043500035EC47E25EE30E94FFD66093B9027093AA
:10436000BA028093BB029093BC0284E40E94A62C04
:10437000882381F00E94732C2CEA35EC47E25EE33F
:104380000E9466DE6093C1027093C2028093C302F2
:104390009093C402EDEAF1E184918F010F5F1F4F0A
:1043A000882321F00E94D82DF801F6CF4091BD025C
:1043B0005091BE026091BF027091C0028AE498E001
:1043C0000E948C6C2CEA35EC47E25EE36091B90206
:1043D0007091BA028091BB029091BC020E9466DE8D
:1043E000AB01BC0186E498E00E948C6C2CEA35ECB1
:1043F00047E25EE36091C1027091C2028091C30204
:104400009091C4020E94FFD6AB01BC0182E498E007
:104410000E948C6C8AE00E94D82D0C9499120E9404
:10442000D82DF80184918F010F5F1F4F8111F7CFB5
:1044300009E713E0D8018D918D01882309F4BFC9E4
:104440000E94D82DF7CF80E50E94A62C882351F03A
:104450000E94732C6093B5027093B6028093B702EA
:104460009093B80289E40E94A62C882381F00E94D0
:10447000732C2CEA35EC47E25EE30E94FFD6609392
:10448000B1027093B2028093B3029093B40284E4B9
:104490000E94A62C882381F00E94732C2CEA35EC14
:1044A00047E25EE30E9466DE6093AD027093AE0267
:1044B0008093AF029093B002EDEAF1E184918F0115
:1044C0000F5F1F4F882321F00E94D82DF801F6CFEF
:1044D0004091B5025091B6026091B7027091B80256
:1044E00086E598E00E948C6C2CEA35EC47E25EE3AE
:1044F0006091B1027091B2028091B3029091B402C6
:104500000E9466DEAB01BC0182E598E00E948C6CE3
:104510002CEA35EC47E25EE36091AD027091AE02A9
:104520008091AF029091B0020E94FFD6AB01BC0116
:104530008EE498E00E948C6C8AE00E94D82D0C9446
:10454000991283E50E94A62C182F882371F00E94EF
:10455000732C0E94D8DE709328026093270221E01A
:10456000672B09F020E02093C61680E50E94A62C58
:10457000882361F02091270230912802232B11F02B
:104580000E94632C8093C6160C94991211110C94FE
:104590009912EDEAF1E184918F010F5F1F4F88239B
:1045A00021F00E94D82DF801F6CF8091C6168823FD
:1045B00019F068E975E002C065E773E08FE698E0FE
:1045C0000E94C26C60912702709128028EE598E0EB
:1045D0000E94A96CEAE5F8E084918F010F5F1F4FFC
:1045E000882311F40C9499120E94D82DF801F4CF6D
:1045F0000E94CF3D0C94991286E50E94A62C882338
:1046000091F08091FA1380FF0EC0EFEAF8E08491F8
:104610008F010F5F1F4F882321F00E94D82DF801D2
:10462000F6CF0E9423D083E50E94A62C182F882362
:1046300019F00E94632C182F83E50E94A62C882372
:1046400019F0812F0E944F2A8091FA138270F82E60
:10465000111103C0EDEAF1E11BC08111FBCFE7E7C7
:10466000F1E184918F010F5F1F4F811103C0E0E9D9
:10467000F8E004C00E94D82DF801F3CF84918F0197
:104680000F5F1F4F882331F30E94D82DF801F6CF1A
:1046900084918F010F5F1F4F882321F00E94D82D36
:1046A000F801F6CFFF2019F06BE673E002C060E777
:1046B00073E082E898E00E94C26C8AE00E94D82DE4
:1046C0000C949912E5E0FCE1FDABECAB87EC882E95
:1046D00086E1982E90E8A92E96E1B92E2FE5C22EFC
:1046E00026E1D22E3FE0232E32E0332E4BEBE42E98
:1046F00040E2F42E00E010E0ACA9BDA98D91BDAB65
:10470000ACAB882309F486C0F501408051806280FB
:104710007380D1012D913D914D915C91F6016081A5
:104720007181828193810E94E3DD20E030E040E0EE
:104730005FE30E94FFD69B01AC01C301B2010E945E
:1047400066DF181654F4F70185919591A591B491FF
:104750008EAB9FABA8AFB9AF04C01EAA1FAA18AEFC
:1047600019AED4012D913D914D915C91C301B201DF
:104770000E94E2DD9B01AC016EA97FA988AD99ADD5
:104780000E94E2DD2B013C0120E030E040EA51ECE8
:104790000E9466DF87FD0AC020E030E040EA51E475
:1047A000C301B2010E9499D618161CF4E7E7F1E1A3
:1047B00009C0B301A201C8010E94212B2BC00E9495
:1047C000D82DF80184918F010F5F1F4F8111F7CF12
:1047D000E4EEF8E084918F010F5F1F4F882321F0F2
:1047E0000E94D82DF801F6CF61E086ED98E00E9496
:1047F000B09288E290E09A83898388EC90E099A354
:1048000088A3BE016F5F7F4FCE0180960E94B4588F
:104810000C9499120F5F1F4FB4E08B0E911CE4E0D3
:10482000AE0EB11CF4E0CF0ED11C24E0220E311CE0
:1048300034E0E30EF11C0330110509F05DCF0E9456
:10484000D42B0E94404260E085EC98E00E94B09238
:1048500083E992E099A388A304E610E01A83098310
:10486000BE01605E7F4FCE0101960E94B4588AEB74
:1048700092E099A388A31A830983BE01605E7F4FEB
:10488000CE0101960E94B4580C9499120E94F587AB
:104890008CEF98E09A83898306E410E019A308A3BB
:1048A000BE016F5F7F4FCE0180960E94B45884E5B1
:1048B0009BE09A83898319A308A3BE016F5F7F4F92
:1048C000CE0180960E94B4580C9499120E9451A671
:1048D00084E59BE09A83898306E410E019A308A38A
:1048E000BE016F5F7F4FCE0180960E94B4588CEF5F
:1048F00098E09A83898319A308A3BE016F5F7F4F55
:10490000CE0180960E94B4580C94991284918F0124
:104910000F5F1F4F882321F00E94D82DF801F6CF9A
:1049200083E090E09093AE108093AD101092AC10A5
:104930009093AB108093AA1085EC9BE00E94519657
:104940001092A6101092A7101092A8101092A91001
:1049500080E00E94FD5E80916F16882381F040E028
:1049600050E069E279E084E498E00E94059240E03A
:1049700050E061E070E089EE97E00E94279180911D
:104980006F16882381F040E050E065E179E087E32D
:1049900098E00E94059240E050E062E070E089EE0D
:1049A00097E00E94279180916F16882381F040E064
:1049B00050E062E079E08AE298E00E94059240E0EF
:1049C00050E063E070E089EE97E00E9427918091CB
:1049D0006E16882329F01092AB101092AA1006C010
:1049E00080E00E946B9710926F16B5CF8091AA104D
:1049F0009091AB108330910521F481E00E946B9778
:104A0000F5CF21E030E03093AE102093AD10892B2C
:104A100011F00C94991280E00E94FD5E80916F1657
:104A2000882381F040E050E067E379E084E498E097
:104A30000E94059240E050E061E070E089EE97E06E
:104A40000E94279180916F16882381F040E050E00A
:104A500066E379E087E398E00E94059240E050E049
:104A600062E070E089EE97E00E94279110926F1645
:104A70000E9424B56093A6107093A7108093A8108D
:104A80009093A9100C94991283E50E94A62C882378
:104A900011F40C9499120E94632C8093C5100C940D
:104AA00099120E94EB3A0C9499120E94D82DF801A9
:104AB00084918F010F5F1F4F8111F7CFEFE4F9E071
:104AC00084918F010F5F1F4F882311F40C9499126A
:104AD0000E94D82DF801F4CF81E08093AC021092AF
:104AE000471C83E50E94A62C811104C00E944F9CA4
:104AF0000C9499120E94632C81110C949912F6CF98
:104B0000F0904706FF2029F1EDEAF1E184918F0151
:104B10000F5F1F4F882321F00E94D82DF801F6CF98
:104B200084E50E94D82D6F2D70E080E090E04AE08F
:104B30000E942E2E80E20E94D82D09E713E0D801B2
:104B40008D918D01882311F40C94DF1B0E94D82DC8
:104B5000F6CF1092041CEDEAF1E184918F010F5F12
:104B60001F4F882321F00E94D82DF801F6CF6091C5
:104B7000041C70E08EE599E00E94A96C8AE00E9416
:104B8000D82D0C9499126091420670914306672BC0
:104B900039F4BF0161507109709343066093420676
:104BA00060E070E00C9428131092AC100C949912F1
:104BB00061E0802F0E94E5B36E2D802F0E94B6B376
:104BC000F12CB701802F0E9421B40930110511F09A
:104BD0000C949912F0929B10E0929A100C949912F6
:104BE0000E9409B388E50E94A62C882319F05F9AD9
:104BF00010924C1689E50E94A62C882319F08A9AF7
:104C000010924D168AE50E94A62C882351F09FB77A
:104C1000F894809108018160809308019FBF1092F1
:104C20004E1685E40E94A62C882311F40C94991248
:104C30000E9469970C9499120E9409B360E08F2D2D
:104C40000E94E5B30F3FBFEF1B0759F48F2D0E9461
:104C50008DB331E020E0892B09F030E0032F122FD3
:104C600005C00130110571F401E010E08F2D0E94A4
:104C70008DB38017910711F40C94991280E00E9473
:104C80006B97F4CF00E010E0F1CFE9960FB6F894FF
:104C9000DEBF0FBECDBFDF91CF911F910F91FF906F
:104CA000EF90DF90CF90BF90AF909F908F907F90CC
:104CB0006F905F904F903F902F9008959091361D88
:104CC000E92FF0E0E554FF4E80839F5F9A3018F49F
:104CD0009093361D02C01092361D809164138F5F31
:104CE0008093641308958FB7F8949091E21C2091FB
:104CF000E11C921759F0E92FF0E0EF59F34E2081B3
:104D000030E09F5F9F779093E21C02C02FEF3FEF50
:104D10008FBFC9010895089580E090E008952F9213
:104D20003F924F925F926F927F928F929F92AF923B
:104D3000BF92CF92DF92EF92FF920F931F93CF9388
:104D4000DF9300D000D0CDB7DEB79A8389830E946D
:104D500024B5E981FA81C680D780E084F184C1144A
:104D6000D104E104F10409F0ACC22485222309F442
:104D700069C332852150248721E0230F228745858E
:104D8000241301C01286E981FA8124E0329FE00DEC
:104D9000F11D1124C684D784E088F188E981FA8165
:104DA000C282D382E482F582DC01CB018C0D9D1D91
:104DB000A11DB11D86839783A087B18784819581CA
:104DC000892B09F43FC3FFB7FD83F894E981FA8189
:104DD000228033802101612C712C04811581809106
:104DE0003702853221F08F3F09F068C205C0E2EA40
:104DF000FEE124912E83DAC085E280933702E2EA55
:104E0000FEE184918E838F3F09F458C2823009F409
:104E100069C030F5882309F44CC0813009F0C6C060
:104E200010928000109281008091810088608093B0
:104E3000810080918100816080938100ECEBF2E23F
:104E4000E491F0E0EE0FFF1FED59FD4D8591949137
:104E5000E2E0F3E2E491E0937413E1E0EE8330C129
:104E60009E81943009F482C008F460C0953009F046
:104E70009DC0109220011092210180912101886033
:104E80008093210180912101816080932101ECEBCD
:104E9000F2E2E491F0E0EE0FFF1FED59FD4D859138
:104EA0009491E2E0F3E2E491E093711395E09E8344
:104EB00007C114BC15BC84B5826084BD85B5816012
:104EC00085BDECEBF2E2E491F0E0EE0FFF1FED594F
:104ED000FD4D85919491E2E0F3E2E491E093751346
:104EE0001E82ABC21092B0001092B1008091B0004F
:104EF00082608093B0008091B10081608093B100A6
:104F0000ECEBF2E2E491F0E0EE0FFF1FED59FD4D06
:104F10008591949190932C1C80932B1CE2E0F3E2FA
:104F2000E491E0932D1CF2E0FE8387C21092900082
:104F300010929100809191008860809391008091FF
:104F40009100816080939100ECEBF2E2E491F0E05B
:104F5000EE0FFF1FED59FD4D85919491E2E0F3E2D4
:104F6000E491E093731323E02E83AAC01092A00073
:104F70001092A1008091A10088608093A10080918F
:104F8000A10081608093A100ECEBF2E2E491F0E0FB
:104F9000EE0FFF1FED59FD4D85919491E2E0F3E294
:104FA000E491E093721384E08E838AC0EE81E7FD82
:104FB00085C161E085E20E94E5B38E818D7F09F0B5
:104FC00083C04801A12CB12C60E072E18AE790E037
:104FD000A50194010E94B3DD29833A834B835C834E
:104FE00069017A01F1E0CF1AD108E108F1082FEF49
:104FF000C216D104E104F10409F008F44EC060E4E3
:1050000072E48FE090E0A50194010E94B3DD690194
:105010007A0181E0C81AD108E108F1089E81923036
:1050200009F5EFEFCE16D104E104F10409F008F41C
:10503000CBC160E970ED83E090E0A50194010E948E
:10504000B3DD69017A01F1E0CF1AD108E108F10876
:105050002FEFC216D104E104F10411F008F041C1B0
:1050600083E027C08FEFC816D104E104F104B9F042
:10507000B0F068E478EE81E090E0A50194010E9430
:10508000B3DD69017A0191E0C91AD108E108F1089C
:10509000EE81EE2309F49AC163C181E001C082E090
:1050A0009E81911106C095B5987F892B85BD7AC0E8
:1050B00085E09091B100987F892B8093B10072C0F8
:1050C00061E085E20E94E5B34801A12CB12C60E0CB
:1050D00072E18AE790E0A50194010E94B3DD6901C5
:1050E0007A01E1E0CE1AD108E108F108C114D10437
:1050F000F1E0EF06F10488F068E478EE81E090E0FA
:10510000A50194010E94B3DD69017A0181E0C81A0A
:10511000D108E108F10883E001C081E09E8191306F
:1051200071F490918100987F892B809381004528AC
:1051300046284728D9F52FEF3FEFA90168C0EE8137
:10514000E33071F490919100987F892B80939100C6
:1051500045284628472851F52FEF3FEFA90179C090
:10516000FE81F43071F49091A100987F892B809397
:10517000A100452846284728C9F42FEF3FEFA90191
:105180007AC02E81253071F490912101987F892B6E
:105190008093210145284628472841F42FEF3FEF0F
:1051A000A9017BC045284628472869F0D801AA0FE5
:1051B000BB1F91010E947CDD28EE33E040E050E00F
:1051C0000E944FDD03C02FEF3FEFA9018E81823097
:1051D00081F12CF4882361F08130C9F06FC09E8189
:1051E000943009F448C0ACF1953009F456C066C05B
:1051F000C7BC209386133093871340938813509332
:10520000891380916E00826080936E0057C0D092A7
:105210008900C092880020938213309383134093B7
:1052200084135093851380916F00826080936F0088
:1052300045C0C092B30020932E1C30932F1C409386
:10524000301C5093311C80917000826080937000FC
:1052500035C0D0929900C092980020937E1330936D
:105260007F1340938013509381138091710082606B
:105270008093710023C0D092A900C092A80020930F
:105280007A1330937B1340937C1350937D1380915A
:10529000720082608093720011C0D0922901C09286
:1052A000280120937613309377134093781350930B
:1052B000791380917300826080937300ED81EFBF5A
:1052C000C1C0DC01CB018C199D09AE09BF09B7FD36
:1052D000B9C04098E981FA8116821782108611863A
:1052E000B1C068E478EE81E090E0A50194010E94ED
:1052F000B3DD69017A01F1E0CF1AD108E108F108C4
:105300002FEFC216D104E104F10441F138F164E257
:1053100074EF80E090E0A50194010E94B3DD690183
:105320007A01F1E0CF1AD108E108F1082FEFC21697
:10533000D104E104F10409F008F4BACE62E17AE79D
:1053400080E090E0A50194010E94B3DD69017A013B
:1053500081E0C81AD108E108F10819C084E0A9CE9B
:105360002FEFC216D104E104F10409F008F463C080
:1053700062E17AE780E090E0A50194010E94B3DD4C
:1053800069017A01F1E0CF1AD108E108F1082FEFA5
:10539000C216D104E104F104A9F0A0F089819A8138
:1053A000AB81BC812AE0B595A795979587952A95FD
:1053B000D1F76C017D01F1E0CF1AD108E108F108C5
:1053C00087E077CE86E075CE82E073CEEFEFCE1623
:1053D000D104E104F10469F160F162E17AE780E06F
:1053E00090E0A50194010E94B3DD69017A0181E09A
:1053F000C81AD108E108F1089FEFC916D104E104E9
:10540000F104A9F0A0F089819A81AB81BC813AE0D6
:10541000B595A795979587953A95D1F76C017D013C
:10542000E1E0CE1AD108E108F10885E03CCE84E045
:105430003ACE83E038CE84E033CE61E085E20E944C
:10544000E5B3BFCD26960FB6F894DEBF0FBECDBF35
:10545000DF91CF911F910F91FF90EF90DF90CF9050
:10546000BF90AF909F908F907F906F905F904F9084
:105470003F902F9008958EED9EE00E948F7921E05D
:10548000892B09F420E0822F08958BE79FE00E948A
:105490008F7921E0892B09F420E0822F08959091E3
:1054A000FA1391FB222720F98217C9F081110EC04F
:1054B00048E856E164E876E180E896E10E94FD5410
:1054C0008091FA138D7F8093FA13089590FFF8CF9F
:1054D00092609093FA1380E896E10C94DD6C089545
:1054E0008F929F92AF92BF92CF92EF92FF920F93C3
:1054F0001F93CF93DF93CDB7DEB72C970FB6F894F9
:10550000DEBF0FBECDBF4B015C01C090041CEFE4B9
:10551000F6E180859185A285B385448155816681B8
:105520007781008111812281338109831A832B8342
:105530003C834D835E836F83788789879A87AB87A7
:10554000BC87AE01475F5F4FBE016B5F7F4FCE01EF
:1055500001960E94FD54850174012BE536E1AE01F0
:10556000475F5F4FBE016B5F7F4FCE0101960E9488
:1055700065462C960FB6F894DEBF0FBECDBFDF9107
:10558000CF911F910F91FF90EF90CF90BF90AF9070
:105590009F908F900895CF92DF92EF92FF920F939A
:1055A0001F93CF93DF93EC01CC0FDD1FCC0FDD1FDA
:1055B000FE01E155FF4E20E030E0A90160817181DC
:1055C000828193810E94E3DDFE01E15CF24E208145
:1055D0003181428153810E94E3DD6B017C01FE0138
:1055E000E953F94E6083718382839383FE01E35212
:1055F000F24F25913591459154918E01015A194EE2
:105600000E94E3DDF8016083718382839383FE014E
:10561000E751F24F2591359145915491C15FDD4F8E
:10562000C701B6010E94E3DD688379838A839B8387
:10563000DF91CF911F910F91FF90EF90DF90CF906E
:1056400008958F929F92AF92BF92EF92FF920F9325
:105650001F93CF93DF938C014A015B01EC01CC0FC8
:10566000DD1FCC0FDD1FCE018058994E7C01C15546
:10567000DF4E288139814A815B81C501B4010E94D6
:10568000E2DDF70120813181428153810E94E3DD17
:10569000F701608371838283938388829982AA82CF
:1056A000BB82C801DF91CF911F910F91FF90EF90C6
:1056B000BF90AF909F908F900C94CB2ACF93FC011A
:1056C00020812B33A9F0209164132A3088F4C62F4F
:1056D000BC018091361DF0E48F9FC00111248D51D3
:1056E0009F4E0E942AE18C2F0E945E2681E001C01D
:1056F00080E0CF910895DF92EF92FF920F931F9376
:10570000CF93DF93CDB7DEB76E970FB6F894DEBFB9
:105710000FBECDBF6091441670914516611571059D
:1057200049F14DE150E0CE0101967C010E9413D673
:105730001E8EF7018F010E191F09D190DD2019F07F
:105740009AE0D912F7CFF701E00FF11F1082C701DD
:105750000E94E858882371F0DD20A9F00F5F1F4FE9
:105760008091441690914516080F191F1093451605
:105770000093441681E02091441630914516232B66
:1057800029F480E003C000E010E0F0CF6E960FB681
:10579000F894DEBF0FBECDBFDF91CF911F910F9167
:1057A000FF90EF90DF9008950F931F93CF93DF93B7
:1057B000CDB7DEB72C970FB6F894DEBF0FBECDBFC6
:1057C000E0E8F6E180859185A285B3854481558125
:1057D00066817781008111812281338109831A8357
:1057E0002B833C834D835E836F83788789879A8779
:1057F000AB87BC87AE01475F5F4FBE016B5F7F4FDA
:10580000CE0101960E94FD542CE836E1AE01475FBF
:105810005F4FBE016B5F7F4FCE0101960E944D6EC0
:105820002C960FB6F894DEBF0FBECDBFDF91CF919F
:105830001F910F91089580E1E0E8F6E1AFE4B6E151
:1058400001900D928A95E1F7089580E1EFE4F6E189
:10585000A0E8B6E101900D928A95E1F70895809154
:105860006F1390917013009731F04AE050E060E0C0
:1058700070E00C94D3D460E070E0CB010895809187
:105880006F1390917013009731F04AE050E060E0A0
:1058900070E00C94A5D360E070E0CB0108950E9405
:1058A0003F2C97FD0CC00E943F2C6F3F7105810576
:1058B000910509F034F40E943F2C862F089580E072
:1058C00008958FEF089580916F1390917013892B35
:1058D00039F00E944F2C91E0811103C090E001C08B
:1058E00091E0892F08950F931F93CF9380916F13A9
:1058F000909170130097F1F0FC018F01C1912C2F52
:105900002F7D89F0C53411F0C536B9F7F801108242
:1059100060E070E00E9449D2F801C083562F472F03
:10592000382F292F0BC060E070E0CF911F910F91AD
:105930000C9449D250E040E030E020E0652F742F15
:10594000832F922FCF911F910F91089581548A3107
:1059500050F5482F50E0FA0193E0F595E7959A95B8
:10596000E1F7E25CF94F208130E0877002C03595A5
:1059700027958A95E2F7822F817020FF15C0FA01E2
:10598000EC5DF94F9081992339F02091EC1C309116
:10599000ED1C290F311D02C020E030E03093701360
:1059A00020936F13089580E008950E94A62C882309
:1059B00041F081E020916F1330917013232B09F493
:1059C00080E00895FC01238121110C9464810895E5
:1059D00020916E0690916F0681E0291301C080E04E
:1059E00008950E9424B56093EE1C7093EF1C809381
:1059F000F01C9093F11C08952F923F924F925F926A
:105A00006F927F928F929F92AF92BF92CF92DF92CE
:105A1000EF92FF920F931F93CF93DF93EB01FC0163
:105A200080809180A280B380C501B40120E831E577
:105A300041E050E00E944FDDC9016DE671E00E9437
:105A40008BDD6B017C01C501B40120E13EE040E04B
:105A500050E00E944FDDCA01B90128E130E040E08A
:105A600050E00E944FDD362E272E062F172F8CE395
:105A7000482E512C612C712CC501B401A301920157
:105A80000E944FDDB62EA72ECA01B901A3019201D3
:105A90000E944FDDCB01C114D104D9F0AF92BF9267
:105AA0007F936F932F923F92FF92EF92DF92CF926C
:105AB0008CE49CE09F938F93DF93CF930E946AD6F0
:105AC0008DB79EB70E960FB6F8949EBF0FBE8DBFD2
:105AD0005CC0E114F104C9F0AF92BF927F936F9361
