:100000000C94C1120C94F2120C94F2120C94F21291
:100010000C94F2120C94F2120C94ACA50C94F21203
:100020000C94F2120C94F2120C94F2120C94F21240
:100030000C94F2120C94787D0C94F2120C94F2123F
:100040000C94F2120C94B75A0C94F2120C94F21213
:100050000C94F2120C94F2120C9467810C9417B465
:100060000C94F2120C945C780C948A780C94F21232
:100070000C94F2120C94F2120C94F2120C94F212F0
:100080000C94F2120C94F2120C94F2120C94F212E0
:100090000C94F2120C94F2120C94F2120C94F212D0
:1000A0000C94F2120C94F2120C94F2120C94F212C0
:1000B0000C94F2120C94F2120C94F2120C94F212B0
:1000C0000C94F2120C94F2120C94F2120C94477CE1
:1000D0000C941D7C0C94F2120C94F2120C94F212FB
:1000E0000C94F2126955AB55DF55305665561C57C6
:1000F00086568E57AF56E456D796F69806990699C7
:10010000069943994599459945994599099943997E
:100110004599159985B188B177B17BB181B1BFB1EE
:100120008CB190B196B19AB19EB1A4B1A8B1ACB165
:10013000BFB1B2B1B6B1BAB131B336B33BB345B367
:100140004FB3C8B359B361B369B373B37DB387B366
:1001500096B3A0B3C8B3AAB3B4B3BEB30C94356519
:100160000C94A4B10C9496B10C9443990C94CA7C51
:100170000C9485B10C9469B30C949C750C94A77C79
:100180000C9409990C9458660C942B660C94867EFA
:100190000C94BAB10C9437660C94DF550C949AB158
:1001A0000C94F9650C941AA80C94EB6A0C94CB6728
:1001B0000C94C2680C94AB550C94E4560C94816773
:1001C0000C9417650C9458B10C947DB30C9445B302
:1001D0000C948CB10C94AAB30C9488B10C9415991E
:1001E0000C94F5690C9459B30C94BEB30C949EB165
:1001F0000C9405280C9461B30C94D87C0C948F67F4
:100200000C94A0B30C9477B10C9469550C94069996
:100210000C94B67C0C94F6980C947BB10C94D79605
:100220000C94B4B30C94A8B10C94B2B10C94655670
:100230000C94B6B10C94606A0C947D7C0C945F6550
:100240000C94397E0C944FB30C941C570C94BFB192
:100250000C9436B30C94A5D50C94197D0C9481B1F3
:100260000C9486560C9490B10C9430560C9487B331
:100270000C9445990C949A640C94AF560C946E6946
:100280000C949B750C94AD670C94ACB10C9473B347
:100290000C94CFBA0C9473670C9453A60C94C8B307
:1002A0000C9431B30C948E570C9496B30C94B369A0
:1002B0000C943BB34E414E494E495459494E46CD9C
:1002C000CCCC3D0AD7233C17B7D13877CC2B32950D
:1002D00095E6241FB14F0A000020410000C84200EB
:1002E000401C4620BCBE4CCA1B0E5AAEC59D7400B5
:1002F000407A10F35A00A0724E18090010A5D4E8F5
:100300000000E87648170000E40B54020000CA9A87
:100310003B000000E1F505000080969800000040D9
:10032000420F000000A0860100000010270000001E
:1003300000E803000000006400000000000A000064
:100340000000000100000000002C76D888DC674F18
:100350000823DFC1DFAE59E1B1B796E5E3E453C648
:100360003AE651997696E8E6C28426EB898C9B6240
:10037000ED407C6FFCEFBC9C9F40F2BAA56FA5F4EA
:1003800090055A2AF75C936B6CF9676DC11BFCE012
:10039000E40D47FEF520E6B500D0ED902E03009465
:1003A0003577050080841E080000204E0A000000FA
:1003B000C80C333333330F986E12831141EF8D2104
:1003C00014893BE65516CFFEE6DB18D1844B381B6B
:1003D000F77C1D901DA4BBE424203284725E228130
:1003E00000C9F124ECA1E53D27434F4D4D554E4941
:1003F000434154494F4E0044525952554E004552C4
:10040000524F525300494E464F004543484F005506
:100410007370696A2E2E2E004D3530300059206FD2
:100420007574206F662072616E67652028312D32E9
:10043000292E0A0058206F7574206F662072616E35
:1004400067652028312D32292E0A004D65736820FA
:1004500070726F62696E6720646F6E652E0A00535A
:1004600074617274206D6573682070726F62696E5A
:10047000672077697468202247323920533122205F
:1004800066697273742E0A004732380A473239207F
:1004900053320053746174653A20004D65736820CF
:1004A000626564206C6576656C696E67206861734F
:1004B000206E6F20646174612E0A0053206F757482
:1004C000206F662072616E67652028302D35292ED9
:1004D0000A004D65736820706F696E742063616EE9
:1004E0006E6F74206265207265736F6C7665640A46
:1004F000004F637A656B6977616E69652E2E2E00F9
:100500004D30004272616B20727563687500456EF4
:10051000642066696C65206C6973740A00426567C3
:10052000696E2066696C65206C6973740A004D31D0
:100530003235005344207072696E74696E672062B0
:1005400079746520004E6F74205344207072696E78
:1005500074696E670A005072696E742074696D6503
:100560003A200050726F7465637465642050696E40
:100570000A005072696E746F2048332B20546F77D5
:10058000657220676F746F77612E000A040504FEA0
:1005900003F703E9036F66660044454255473A0096
:1005A00055626974792E20004D3131332053006F2C
:1005B0006B004361703A454D455247454E43595F84
:1005C0005041525345523A300A004361703A434118
:1005D00053455F4C494748545F4252494748544E3F
:1005E0004553533A300A004361703A544F47474CE1
:1005F000455F4C49474854533A300A004361703ACA
:10060000534F4654574152455F504F5745523A3029
:100610000A004361703A4C4556454C494E475F4489
:100620004154413A310A004361703A5A5F50524F87
:1006300042453A300A004361703A4155544F4C45A7
:1006400056454C3A300A004361703A5052494E5474
:100650005F4A4F423A310A004361703A50524F4765
:10066000524553533A300A004361703A4155544F52
:100670005245504F52545F54454D503A310A004351
:1006800061703A454550524F4D3A310A0046495241
:100690004D574152455F4E414D453A4D61726C692F
:1006A0006E20312E332E31622028476974687562BE
:1006B0002920534F555243455F434F44455F5552A0
:1006C0004C3A68747470733A2F2F67697468756256
:1006D0002E636F6D2F4D61726C696E4669726D7716
:1006E0006172652F4D61726C696E2050524F544F8C
:1006F000434F4C5F56455253494F4E3A312E3020AE
:100700004D414348494E455F545950453A507269EE
:100710006E746F2048332B20546F776572204558D4
:100720005452554445525F434F554E543A3120552B
:100730005549443A63656465326132662D343161EE
:10074000322D343734382D396231322D63353563EB
:1007500036326633363766660A002F2F200053651F
:100760007474696E672054726176656C20416363AE
:10077000656C65726174696F6E3A200053657474BC
:10078000696E6720526574726163742041636365AA
:100790006C65726174696F6E3A2000536574746998
:1007A0006E67205072696E7420416363656C657278
:1007B0006174696F6E3A200053657474696E6720C6
:1007C0005072696E7420616E642054726176656C3B
:1007D00020416363656C65726174696F6E3A2000D5
:1007E000205A00205900580020204D61783A2000FE
:1007F000205A00205900580020204D696E3A2000F0
:10080000576C2E200057796C2E00536F667420654C
:100810006E6473746F70733A20000001363726FFE0
:10082000023C3D380EFF2E303EFF13FF0C0809FF3F
:10083000FFFF1A1C18FFFF08440AFF43FFFFFFFFDA
:10084000FFFF20643A0020693A0020703A002064DB
:100850003A0020693A0020703A0043290A00616298
:100860006C656420286D696E2074656D702000438E
:100870006F6C64206578747275646573206172654D
:100880002000426564204C6576656C696E672000C7
:100890004661696C656420746F20656E61626C6589
:1008A00020426564204C6576656C696E670A004D70
:1008B00065736820426564204C6576656C206461D0
:1008C00074613A0A00506F7A2E207A65726F7761F0
:1008D000207573742E004572723A20546F6F206633
:1008E00061722100546F6F206661722066726F6DB5
:1008F000207265666572656E636520706F696E74DF
:100900000A0061627920777A6E6F77696320777960
:100910006472756B0066696C616D656E74752069D3
:10092000206B6C696B6E696A005573756E206E6121
:10093000646D6961720000577A6E617769616E69F2
:10094000652077796472756B75004D383132004ED1
:100950006F2063617365206C696768740A00416386
:10096000746976652045787472756465723A200002
:10097000556E6B6E6F776E20636F6D6D616E643A4E
:10098000202200736C6F743A0039363030204F4BA0
:10099000202D3E20545259203131350A003936304D
:1009A00030204641494C202D3E20545259203131AF
:1009B000350A004E657874696F6E20636F6E6E65E0
:1009C00063746564210A004E657874696F6E206EE9
:1009D0006F7420636F6E6E6563746564210A004EE8
:1009E00069650054616B00437A7920777A6E6F777E
:1009F00069632077796472756B3F0057796B727900
:100A0000746F207A616E696B206E617069656369CD
:100A10006100706F207A616E696B75207A6173690D
:100A20006C616E696100577A6E617769616E6965A4
:100A30002077796472756B75004D313137204472BF
:100A4000756B6F77616E69652E2E004739322045D0
:100A5000004D3832002046333030300020453138E8
:100A600000205900473120580020463330303000F4
:100A70004731205A004D3831320020463330303073
:100A800000204531350020590047312058004D32B3
:100A900033202573002E67636F004D3139302053AA
:100AA0002564004D3130392053256400626162793C
:100AB00073686966743A006166746572686F6D6523
:100AC0003A006265666F72653A0042617A6F7761DB
:100AD0006E6965206F736900706F207A616E696B53
:100AE00075207A6173696C616E6961005572756316
:100AF00068616D69616E6965004732380020205079
:100B00006C616E6E65724275666665724279746577
:100B1000733A20002046726565204D656D6F7279CD
:100B20003A2000436F6D70696C65643A20417567C7
:100B300020203620323032300A00207C204175746B
:100B4000686F723A20285072696E746F33642E7029
:100B50006C2C204A616B75622053696B6F7261293E
:100B60000A00323032302D30382D303600204C61C2
:100B7000737420557064617465643A2000312E33BB
:100B80002E31620A004D61726C696E0020536F66EF
:100B900074776172652052657365740A002057612D
:100BA000746368646F672052657365740A0020423D
:100BB000726F776E206F75742052657365740A00CA
:100BC0002045787465726E616C2052657365740A95
:100BD00000506F77657255700A0073746172740A01
:100BE000006572726F722077726974696E67207423
:100BF0006F2066696C650A00205A3A0020593A0055
:100C000020583A00656E6473746F7073206869745D
:100C10003A2000446F6E6520736176696E672066C6
:100C2000696C652E0A004D32390055626974792E5F
:100C300020005A6174727A796D616E792E200050AD
:100C400072696E7465722073746F7070656420646D
:100C5000756520746F206572726F72732E204669FD
:100C60007820746865206572726F7220616E6420EE
:100C7000757365204D39393920746F20726573742E
:100C80006172742E202854656D706572617475727E
:100C9000652069732072657365742E205365742016
:100CA0006974206166746572207265737461727410
:100CB000696E67290A004E6F204C696E65204E757B
:100CC0006D626572207769746820636865636B7311
:100CD000756D2C204C617374204C696E653A200050
:100CE0004E6F20436865636B73756D207769746818
:100CF000206C696E65206E756D6265722C204C618A
:100D00007374204C696E653A2000636865636B7389
:100D1000756D206D69736D617463682C204C61730F
:100D200074204C696E653A20004C696E65204E75E2
:100D30006D626572206973206E6F74204C617374EC
:100D4000204C696E65204E756D6265722B312C20CA
:100D50004C617374204C696E653A20004D3131301E
:100D6000004D3331004D383420582059205A204549
:100D70000053442072656164206572726F720A00CC
:100D8000446F6E65207072696E74696E6720666963
:100D90006C650A0020496E76616C69642065787420
:100DA0007275646572200000000000000000000001
:100DB00000000000004D43000052430000CB4320E0
:100DC0006E6F7420656E74657265642E0A000A4D3C
:100DD0006561737572656420706F696E74733A0A29
:100DE000005A206F66667365743A20004E756D2058
:100DF000582C593A20322C320A0046696C6520641E
:100E0000656C657465643A0044656C6574696F6E01
:100E1000206661696C65642C2046696C653A200027
:100E20006F70656E206661696C65642C2046696C24
:100E3000653A20006D0046696C616D656E742075C1
:100E40007365643A200053746174733A20002C2057
:100E50004C6F6E67657374206A6F623A2000546F3E
:100E600074616C2074696D653A2000537461747309
:100E70003A20002C204661696C65643A20002C20E1
:100E800046696E69736865643A20005072696E74D1
:100E9000733A200053746174733A2000202F0020AD
:100EA00042403A0020403A00526F7A67727A616E8F
:100EB0006F0020573A005072696E746F2048332BD0
:100EC00020546F77657220676F746F77612E0052C0
:100ED0006F7A67727A616E6F2073746F6C0020573F
:100EE0003A00526F7A67727A6577616E696520732E
:100EF000746F6C752E2E2E00205A3A0020423A0054
:100F000020436F756E7420413A0020453A00205A04
:100F10003A0020593A00583A004B64200023646597
:100F200066696E65202044454641554C545F004B30
:100F300069200023646566696E652020444546414A
:100F4000554C545F004B70200023646566696E65E4
:100F5000202044454641554C545F0050494420757B
:100F60006B6F6E637A6F6E6F0050494420417574E9
:100F70006F74756E652066696E697368656421209B
:100F800050757420746865206C617374204B702CEC
:100F9000204B6920616E64204B6420636F6E737414
:100FA000616E74732066726F6D2062656C6F77205E
:100FB000696E746F20436F6E6669677572617469DC
:100FC0006F6E2E680A00504944204175746F747525
:100FD0006E65206661696C6564212074696D656F5A
:100FE00075740A0050494420626C61643A206F763F
:100FF000657273686F740050494420626C616420AC
:101000006B616C69627261636A6900504944204196
:1010100075746F74756E65206661696C65642120F6
:1010200054656D706572617475726520746F6F20A0
:10103000686967680A00204B643A2000204B693ACF
:101040002000204B703A20000A20436C61737369C2
:101050006320504944200A002054753A2000204B58
:10106000753A2000206D61783A2000206D696E3A53
:10107000200020643A200020626961733A20005009
:10108000494420726F7A706F637A65746F004D65A2
:10109000736820706F696E742063616E6E6F742068
:1010A0006265207265736F6C7665640A004D343238
:1010B0003120696E636F7272656374207061726152
:1010C0006D657465722075736167650A00206669D5
:1010D0007273740A005A0059005800486F6D6520F9
:1010E0000020636F6C6420657874727573696F6E2D
:1010F0002070726576656E7465640A00456B737462
:10110000727564756A2077696563656A00577A6EDF
:101110006F77206472756B6F77616E6965005779C0
:10112000626965727A206F70636A650050726F73CE
:101130007A6520637A656B616300526F7A67727AB1
:101140006577616E6965206479737A790057796D86
:1011500069616E612066696C616D656E74750061B0
:10116000627920726F7A67727A6163206479737A28
:101170006500576369736E696A2070727A79636972
:10118000736B0057796D69616E612066696C616D82
:10119000656E74750077796472756B75005472773B
:1011A0006120777A6E617769616E6965006E6F772D
:1011B00065676F206D6174657269616C750054724A
:1011C000776120656B737472757A6A610066696C09
:1011D000616D656E747520646F20676C6F776963ED
:1011E000790054727761207770726F7761647A61E9
:1011F0006E69650057796D69616E612066696C6121
:101200006D656E747500616279206B6F6E74796EB6
:10121000756F7761632E2E2E0069206E616369738E
:101220006E696A2070727A796369736B00576C6FAC
:101230007A2066696C616D656E740057796D6961BD
:101240006E612066696C616D656E74750066696CAF
:10125000616D656E7475207A20676C6F776963794C
:101260000054727761207779737577616E696500D4
:1012700057796D69616E612066696C616D656E7428
:1012800075007A6D69616E792066696C616D656E55
:101290007475005472776120726F7A706F637A7917
:1012A0006E616E69650057796D69616E612066696E
:1012B0006C616D656E74750057726974696E672034
:1012C000746F2066696C653A20006F70656E2066E9
:1012D00061696C65642C2046696C653A20006F700A
:1012E000656E206661696C65642C2046696C653AA0
:1012F000200046696C652073656C65637465640ADB
:10130000002053697A653A200046696C65206F7049
:10131000656E65643A20006F70656E206661696C69
:1013200065642C2046696C653A20002066696C650E
:101330003A20004E6F7720002220706F7300222029
:10134000706172656E743A2200535542524F555483
:10135000494E452043414C4C207461726765743A94
:10136000220055626974792E2000747279696E6763
:1013700020746F2063616C6C207375622D67636FDE
:1013800064652066696C6573207769746820746F82
:101390006F206D616E79206C6576656C732E204DC3
:1013A0004158206C6576656C2069733A0024F4D44A
:1013B0003050C38E20C2A24017828B7011127A91D6
:1013C0000D816CD90AA861E108C7586607615143CD
:1013D000061E4B5D05C145A7041A411104093D983D
:1013E00003713931034036DB0265339102D4305446
:1013F00002802E1D02632CEE01752AC501B028A0C3
:1014000001102781018F2564012B244B01E0223438
:1014100001AC211F018D200D01801FFC00841EEDF9
:1014200000971DDF00B81CD200E61BC600201BBCC5
:1014300000641AB200B219A8000A19A0006A18992B
:1014400000D117910040178B00B516840031167E2D
:1014500000B31579003A157300C7146F0058146A69
:1014600000EE1366008813630025135E00C7125B4D
:10147000006C12570015125400C111510070114F29
:101480000021114B00D61049008D10470046104432
:101490000002104200C00F4000800F3E00420F3C8F
:1014A00000060F3B00CB0E3800930E37005C0E3564
:1014B00000270E3400F30D3200C10D3100900D30C5
:1014C00000600D2E00320D2D00050D2C00D90C2BC7
:1014D00000AE0C2900850C29005C0C2700350C2778
:1014E000000E0C2600E80B2400C40B2400A00B23E4
:1014F000007D0B23005A0B2100390B2100180B2013
:1015000000F80A1F00D90A1E00BB0A1E009D0A1D12
:1015100000800A1D00630A1C00470A1B002C0A1BDE
:1015200000110A1A00F7091A00DD091900C4091987
:1015300000AB091900920917007B0918006309170D
:10154000004C09160036091600200916000A091574
:1015500000F5081500E0081400CC081400B80814C1
:1015600000A4081400900813007D0812006B0813F3
:101570000058081200460812003408110023081110
:10158000001208110001081100F0071000E0071018
:1015900000D0071000C0071000B0070F00A107100F
:1015A0000091070E0083070F0074070F0065070EF8
:1015B0000057070E0049070E003B070D002E070ECF
:1015C0000020070D0013070D0006070D00F9060C9B
:1015D00000ED060D00E0060C00D4060C00C8060C59
:1015E00000BC060C00B0060C00A4060B0099060C0B
:1015F000008D060B0082060B0077060B006C060BB5
:101600000061060A0057060B004C060A0042060A53
:101610000038060A002E060A0024060A001A060AE6
:10162000001006090007060A00FD050900F4050977
:1016300000EB050900E2050900D9050900D00509FC
:1016400000C7050900BE050900B5050800AD05087D
:1016500000A50509009C050800940508008C0508F4
:1016600000840508007C050800740508006C050767
:1016700000650508005D050700560508004E0507D2
:101680000047050700400508003805070031050739
:10169000002A050700230507001C0506001605079C
:1016A000000F0507000805060002050700FB0406F9
:1016B00000F5040700EE040600E8040600E2040753
:1016C00000DB040600D5040600CF040600C90406AA
:1016D00000C3040600BD040600B7040600B10405FB
:1016E00000AC040600A6040600A00405009B040646
:1016F0000095040500900406008A04050085040591
:1017000000800406007A04050075040500700405D5
:10171000006B04050066040500610405005C040517
:101720000057040500520405004D04050048040557
:1017300000430405003E0404003A04050035040596
:1017400000300404002C04050027040400230405D1
:10175000001E0404001A0404001604050011040409
:10176000000D04040009040500040404000004043E
:1017700000FC030400F8030400F4030400F0030475
:1017800000EC030400E8030400E4030400E00304A5
:1017900000DC030400D8030400D4030400D00304D5
:1017A00000CC030400C8030300C503030024F404B1
:1017B000D9201BC40C5C0E9804C4095F0265077134
:1017C00001F405F900FB04B30048048700C1036974
:1017D000005803550003034500BE023A008402315D
:1017E0000053022A002902250004022000E4011C03
:1017F00000C8011900AF01170098011400840113FB
:1018000000710110006101100051010E0043010D33
:101810000036010B002B010B0020010B0015010904
:10182000000C01090003010800FB000800F3000898
:1018300000EB000700E4000600DE000600D800060A
:1018400000D2000600CC000500C7000500C200055C
:1018500000BD000400B9000400B5000400B100049C
:1018600000AD000400A9000400A5000300A20003CD
:10187000009F0004009B00030098000300950002F5
:101880000093000300900003008D0002008B000312
:10189000008800020086000200840003008100022C
:1018A000007F0002007D0002007B00020079000240
:1018B000007700010076000200740002007200014F
:1018C00000710002006F0002006D0001006C000258
:1018D000006A000100690002006700010066000163
:1018E0000065000100640002006200010061000167
:1018F00000600001005F0002005D0001005C00016B
:10190000005B0001005A000100590001005800016D
:10191000005700010056000100550001005400016D
:10192000005300000053000100520001005100016B
:1019300000500001004F0001004E0000004E000169
:10194000004D0001004C0001004B0000004B000165
:10195000004A000100490001004800000048000161
:10196000004700010046000000460001004500005D
:101970000045000100440001004300000043000155
:10198000004200000042000100410000004100014F
:1019900000400001003F0000003F0001003E000049
:1019A000003E0001003D0000003D0001003C000041
:1019B000003C0000003C0001003B0000003B000137
:1019C000003A0000003A000100390000003900012F
:1019D0000038000000380000003800010037000027
:1019E000003700010036000000360000003600011C
:1019F0000035000000350000003500010034000013
:101A00000034000000340001003300000033000007
:101A100000330001003200000032000000320001FB
:101A200000310000003100000031000100300000F2
:101A30000030000000300001002F0000002F0000E7
:101A4000002F0000002F0001002E0000002E0000DB
:101A5000002E0001002D0000002D0000002D0000D0
:101A6000002D0001002C0000002C0000002C0000C4
:101A7000002C0001002B0000002B0000002B0000B8
:101A8000002B0001002A0000002A0000002A0000AC
:101A9000002A0001002900000029000000290000A0
:101AA0000029000000290001002800000028000093
:101AB0000028000000280000002800010027000086
:101AC0000027000000270000002700000027000179
:101AD000002600000026000000260000002600006E
:101AE0000026000100250000002500000025000060
:101AF0000025000000250000002500010024000052
:101B00000024000000240000002400000024000144
:101B10000023000000230000002300000023000039
:101B20000023000000230000002300010022000029
:101B3000002200000022000000220000002200001D
:101B4000002200010021000000210000002100000F
:101B50000021000000210000002100000021000100
:101B600000200000002000000020000000200000F5
:101B700000200000002000000020000000200001E4
:101B8000001F0000001F0000001F0000001F0000D9
:101B9000001F0000001F0000001F0001001E0000C9
:101BA000001E0000001E0000001E0000004D383422
:101BB00020582059205A204500577A6E6F77696562
:101BC0006E6965004D32340057796472756B207709
:101BD0007374727A796D616E79004D3132350047D8
:101BE0003239205332004E49450054414B00544194
:101BF0004B004D2042204C00323032302D30382DF9
:101C0000303600312E332E316200256C642E25696A
:101C10006D0054656D702E206D696E3A203137303D
:101C2000006B6F6E74796E756F77616300726F7A97
:101C300067727A656A2061627900476C6F776963C1
:101C400061206A657374207A696D6E612C004D366F
:101C500030302042300047393000473931004732B8
:101C600038004472756B2070727A657277616E7994
:101C70000043616E6E6F74206F70656E20737562C5
:101C8000646972200053442063617264206F6B0AA0
:101C9000006F70656E526F6F74206661696C656469
:101CA0000A00766F6C756D652E696E6974206661C9
:101CB000696C65640A004572726F723A0053442081
:101CC000696E6974206661696C0A006175746F25BC
:101CD000692E67004D3234004D3233202573006584
:101CE0006E7175657565696E672022006563686F42
:101CF0003A003D003F2061646472657373203A20AE
:101D000000206279746573206F66206D656D6F7257
:101D10007920696E697469616C697A65642E0A0A52
:101D200000556E61626C6520746F20696E6974691C
:101D3000616C697A652E0A0A00496E697469616C82
:101D4000697A696E672066726565206D656D6F7270
:101D50007920626C6F636B2E0A0A0A0074727565D3
:101D60000A002072657475726E3D000A4D656D6FD4
:101D7000727920436F7272757074696F6E2064653A
:101D800074656374656420696E2066726565206D94
:101D9000656D6F727920617265612E0A0020206284
:101DA0006C6F636B5F666F756E643D002020200072
:101DB0002920666F756E643D002028002073702016
:101DC0003C204865617020002073703D000A5F5F11
:101DD0006273735F656E643A20003D000A265F5FA0
:101DE00062726B76616C3A20000A666D6328292066
:101DF0006E3D00636865636B5F666F725F667265F8
:101E0000655F6D656D6F72795F636F727275707407
:101E1000696F6E2829203D20002062797465732047
:101E2000617420000A4C6172676573742066726584
:101E30006520626C6F636B20697320000A4D656DCD
:101E40006F727920436F7272757074696F6E20645F
:101E50006574656374656420696E206672656520CB
:101E60006D656D6F727920617265612E0A00206266
:101E70007974657320667265652061742000466F11
:101E8000756E6420000A436F7272757074696E67B4
:101E900020616464726573733A2000436F727275D7
:101EA0007074696E672066726565206D656D6F720E
:101EB0007920626C6F636B2E0A0A000A53746163A7
:101EC0006B20506F696E746572203A20000A73743B
:101ED000617274206F66206672656520737061633D
:101EE00065203A20000A5F5F6273735F656E64204D
:101EF0003A20000A5F5F62726B76616C203A2000C4
:101F00002569730025696D2025697300256968209E
:101F100025696D202569730025696420256968207D
:101F200025696D202569730025697920256964205C
:101F30002569682025696D202569730070012C01D1
:101F400090012701B0012201C0011D01F00118011B
:101F50001002130130020E01600209019002040117
:101F6000C002FF000003FA004003F5008003F00008
:101F7000D003EB002004E6007004E100E004DC0084
:101F80004005D700C005D2004006CD00D006C800ED
:101F90008007C3003008BE00F008B900C009B400D3
:101FA000B00AAF00B00BAA00D00CA500000EA00034
:101FB000500F9B00C01096005012910000148C002E
:101FC000C0158700B0178200B0197D00D01B7800C3
:101FD000001E730040206E0090226900F02464000F
:101FE00040275F0090295A00E02B5500102E50002A
:101FF00020304B0010324600E033410090353C0069
:102000001037370070383200A0392D00B03A280060
:10201000A03B2300603C1E00103D1900903D1400C1
:10202000103E0F00703E0A00C03E0500003F000059
:10203000403FFBFF803FF6FFC03FF1FF457272203B
:102040006D696E2074656D702073746F6C750045DA
:102050007272206D696E2074656D70004D494E542A
:10206000454D5020747269676765726564004572FA
:1020700072206D61782074656D702073746F6C755B
:1020800000457272206D61782074656D70004D415D
:102090005854454D502074726967676572656400D5
:1020A000027C3C3E5E2B3D3F2F5B5D3B2C2A225C3D
:1020B00000290A002062797465733B2063726320F3
:1020C0000053657474696E67732053746F7265642E
:1020D000202800202863616C63756C617465642935
:1020E000210A0020213D2000454550524F4D2043FC
:1020F0005243206D69736D61746368202D202873CD
:10210000746F726564292000290A00206279746561
:10211000733B2063726320002073746F72656420C8
:1021200073657474696E677320726574726965761D
:102130006564202800204D61726C696E3D5633390C
:10214000290A0028454550524F4D3D004545505203
:102150004F4D2076657273696F6E206D69736D6186
:10216000746368200025756420253032753A253067
:102170003275004B61727461207573756E69657498
:1021800061004B6172746120776C6F7A6F6E6100D1
:1021900073645F7374617475733A66616C73650A16
:1021A0000073645F7374617475733A747275650A51
:1021B00000202F2000526573656E643A20006F6B1B
:1021C0000020636F6C6420657874727573696F6E3C
:1021D0002070726576656E7465640A006275737945
:1021E0003A2070617573656420666F7220696E7045
:1021F00075740A00627573793A207061757365644D
:1022000020666F7220757365720A00627573793A81
:102210002070726F63657373696E670A004D3630A4
:10222000300055626974792E20004B494C4C206374
:102230006175736564206279204B494C4C2062754E
:1022400074746F6E2F70696E0A0055626974792E0E
:1022500020004B494C4C20636175736564206279A2
:1022600020746F6F206D75636820696E6163746997
:1022700076652074696D65202D2063757272656EB8
:102280007420636F6D6D616E643A20005072696EE8
:102290007465722068616C7465642E206B696C6C67
:1022A00028292063616C6C6564210A00506F776592
:1022B000724C6F73732E2E0A0000004D4300000015
:1022C000000000CB4300009642000096420000C888
:1022D00041000000005761726E696E673A20486FD6
:1022E0006D696E672042756D702044697669736F01
:1022F00072203C20310A000202080000A0400000C9
:10230000A0400000A04000004D43000052430000E8
:10231000CB4301FF014D36303020486F74656E6449
:1023200020746F6F20636F6C6420746F206368612A
:102330006E67652066696C616D656E740A00486140
:102340007264636F6465642044656661756C7420B3
:1023500053657474696E6773204C6F616465640AB9
:10236000008813000088130000500000002823009C
:102370000000008243000082430000E0410000A012
:10238000420000A0420000A042000048440000209B
:102390004366696C616D656E743A20007A5F6D61A9
:1023A000783A2000795F6D696E3A2000785F6D6140
:1023B000783A20005265706F7274696E6720656E9E
:1023C0006473746F70207374617475730A0045725E
:1023D000726F722077726974696E6720746F20451E
:1023E0004550524F4D210A000000210024002700D3
:1023F0002A002D0030003300010100000401070114
:102400000A0100002200250028002B002E003100C8
:10241000340002010000050108010B01000020004A
:102420002300260029002C002F00320000010000AC
:102430000301060109010505050507050808080847
:10244000020202020A0A080804040404010101014C
:102450000101010103030303030303030407070747
:102460000C0C0C0C0C0C0C0C0202020206060606EC
:10247000060606060B0B0B0B0B0B0B0B01021020B9
:1024800020080810204010204080020102010804AA
:10249000020101020408102040808040201008043E
:1024A0000201800402018040201008040201080497
:1024B00002010102040810204080010204081020DB
:1024C000408000000A0B02090C0D0E0807030401EE
:1024D00000000000000000000000000000000000FC
:1024E00000000000000000000000000000001211C9
:1024F00010000000000000000000000000000000CC
:10250000000000000000000043616E6E6F742065E3
:102510006E746572207375626469723A2000626538
:10252000640A002C2073797374656D2073746F7066
:1025300070656421204865617465725F49443A2082
:10254000005A616E696B2074656D702E0054686569
:10255000726D616C2052756E6177617900526F7A8D
:1025600067727A2E206E69657564616E65004865D4
:102570006174696E67206661696C65640000CFBA3A
:10258000A5D511241FBECFEFD1E2DEBFCDBF00E045
:102590000CBF16E0A0E0B2E0EEE9FCEC01E00BBFFE
:1025A00002C007900D92A237B107D9F72EE1A2E73A
:1025B000B6E001C01D92A533B207E1F712E1C0EC0D
:1025C000D2E100E006C021970109802FFE010E94A0
:1025D00090E2CF3BD10780E00807A9F70E94C2C96B
:1025E0000C943DE60C9400002F923F924F925F9224
:1025F0006F927F928F929F92AF92BF92CF92DF9213
:10260000EF92FF920F931F93CF93DF93CDB7DEB777
:10261000E9970FB6F894DEBF0FBECDBF8091B1131E
:1026200020E4829FC0011124DC01AF5CBE4E7D011D
:102630008091771480FF35C0ECEEFCE184918F012E
:102640000F5F1F4F811102C0870104C00E94F07606
:10265000F801F4CFF80181918F01882319F00E94CD
:10266000F076F8CF8AE00E94F0766091B11370E0C6
:1026700083E899E00E94B66101E813E0D8018D91EA
:102680008D01882319F00E94F076F8CF8AE00E942D
:10269000F07661E371EB6F6081E391E1807F0E94EE
:1026A000BD7881E090E09093FC108093FB10109235
:1026B0009106109290068FE38093970610929606EB
:1026C0001092950684E0ECE8F6E0DF011D928A9511
:1026D000E9F7C701FC01208101962032D9F32E349D
:1026E000C9F4818190ED980F9A3020F08D3211F06D
:1026F0008B3281F4DF0112969D012F5F3F4F8C9149
:1027000080538A3010F4D901F7CFFD0111968081F2
:102710008032D9F3F0933B1DE0933A1D7F01BFEF68
:10272000EB1AFB0A10816AE270E0C7010E94DBE548
:10273000009731F0FC01319780818032E1F3118202
:102740001D3411F00C946D27F70180812FEFE21AF0
:10275000F20A8032C9F380538A3008F0CDC010935A
:10276000970680E090E06AE03196DF0111972C91A6
:10277000022E000C330B20533109689FA001699F82
:10278000500D1124C901840F951F208120532A3038
:1027900058F39093960680939506DF0131962C911D
:1027A0002032D9F31D34D1F48E31910591F03CF4EF
:1027B0008731910571F08C31910581F40AC085371C
:1027C000910564F08737910524F0803A33E0930750
:1027D00029F4B0939106A093900683C010929106BD
:1027E0001092900600913A1D41E050E0FD013196B3
:1027F0002C91222309F475C02132A1F41D3491F4E7
:102800008032910579F4F0939106E093900663E2AB
:1028100070E0CF010E94DBE5009709F43EC4DC01C3
:102820001C925FC03FEBD32ED20E69E1C62ECD14B1
:10283000C0F1BF01FB0130816F5F7F4F3032D1F3B8
:1028400060ED630F6A3040F063ED630F623020F09B
:102850003B3211F00C940927BF01AD2CB12C75014E
:10286000A3E0F594E794AA95E1F797012457394F2F
:1028700079012D2D2770DA0102C0AA0FBB1F2A95FE
:10288000E2F79D01D7013C91232B2C936115710533
:1028900011F0601B01C060E0D501AE58B94F6C93D8
:1028A0000AC02091900630919106232B21F4B09319
:1028B0009106A0939006208121542A3110F4DF0163
:1028C00095CFDF01BD016F5F7F4F2C9120532A30E0
:1028D00010F4DB01F7CFFD01119620812032D9F3EE
:1028E000EECF809197068D3409F4D7C3843511F467
:1028F0000C94A826873421F0ECEEFCE10C94EA2637
:1029000080919506909196068D31910509F475C0D8
:102910008CF48430910571F124F40297F8F00C9452
:1029200002274C9711F00C94022780E00E94333567
:102930000C9402278A35910509F4B0C22CF48A97C9
:1029400009F411C30C9402278B35910509F4AAC22E
:102950008C35910509F4ABC20C9402278091B40226
:10296000882311F40C9402270E94F5350E94CD9E15
:102970000C94022780E50E947C79882329F00E942C
:10298000B3756B017C0103C0C12CD12C760183E5AA
:102990000E947C79882361F00E94C37520E030E0BA
:1029A0004AE754E40E94BDDB0E949DE36B017C0179
:1029B0000E94C6BA0E94097680913C1D90913D1DEF
:1029C000A0913E1DB0913F1DC80ED91EEA1EFB1EF0
:1029D00060E08FE094E00E94F9950E940BB4DC0166
:1029E000CB018C199D09AE09BF09B7FD02C00C943B
:1029F000022780E00E94B49AF0CF83E50E947C79A0
:102A0000882321F00E949330182F01C010E0163067
:102A100070F0EBEBF4E084918F010F5F1F4F882380
:102A200011F40C9402270E94F076F801F4CF1230D2
:102A300009F445C0B0F41123F9F0113009F02AC2AD
:102A40000E942FA8109201021092000288E894E0E0
:102A50009093531C8093521C0E94DD2C10933A1AC1
:102A600019C2143009F407C208F4A6C1153009F0E0
:102A700011C20E9437370EC280913E1480FD03C000
:102A8000EBE9F4E011C081FF03C063E773E002C02B
:102A900068E773E083E994E00E94CF618AE00E94D6
:102AA000F0760E94E1D4F6C184918F010F5F1F4F31
:102AB000882309F4EFC10E94F076F801F5CF209148
:102AC00000023091010237FF0DC00FE514E0F8015C
:102AD0008491882311F40C9402270F5F1F4F0E94EA
:102AE000F076F5CF2115310529F48091A602809367
:102AF000940631C08FEF820F982F917897FF03C013
:102B000091509E6F9F5FE92F87FD8F5F859580FFB6
:102B100002C0E1E0E91BEE0FFF0BE80FF11D87FD9E
:102B2000FA95EE0FFF1FEE0FFF1FE25DFB4E809147
:102B30009A1490919B14A0919C14B0919D14808341
:102B40009183A283B383809194068093A60224305C
:102B500031050CF0CAC0822F817887FF03C08150F5
:102B60008E6F8F5FB82EE22F27FF02C0E1E0E20FE9
:102B7000AE2EA594A0FE03C0A1E0BA2EB81AC09054
:102B80002E02D0902F02E0903002F09031020DEC36
:102B900012E2F80185919591A591B49180932E024E
:102BA00090932F02A0933002B093310220E030E0E6
:102BB000A9016091061570910715809108159091F3
:102BC00009150E94A1E220E030E040EA50E40E94B2
:102BD000A1E260939A1470939B1480939C14909339
:102BE0009D140E948AD485E595E5A5E0B3E4809321
:102BF0002E0290932F02A0933002B0933102FB2D4E
:102C000024E0F202D0011124A15BB34F2091FE1405
:102C10003091FF1440910015509101156D917D91F7
:102C20008D919C910E94A1E26093921470939314F1
:102C300080939414909395143A2D84E03802F00117
:102C40001124E95BF34F2091021530910315409157
:102C500004155091051560817181828193810E94D4
:102C6000A1E26093961470939714809398149093B4
:102C700099140E948AD4F80185919591A591B491F7
:102C800080932E0290932F02A0933002B0933102D2
:102C900020E030E0A9016091061570910715809140
:102CA0000815909109150E94A1E260939A147093FF
:102CB0009B1480939C1490939D140E948AD4C0927C
:102CC0002E02D0922F02E0923002F09231020E9446
:102CD000C6BA1092A602809100029091010201965C
:102CE0009093010280930002D5C020E030E0A9015A
:102CF000609106157091071580910815909109153E
:102D00000E94A1E220E030E040EA50E40E94A1E20B
:102D100060939A1470939B1480939C1490939D14C9
:102D20000E948AD40E94C6BA8FEF9FEF909301024F
:102D300080930002EBE4F4E084918F010F5F1F4F5A
:102D4000882321F00E94F076F801F6CF83E992E023
:102D50009A83898304E610E019A308A3BE016F5F7C
:102D60007F4FCE0180960E948A708AEB92E09A8310
:102D7000898319A308A3BE016F5F7F4FCE018096A0
:102D80000E948A7080913E14816080933E148AE391
:102D90009CE00E949A9981E00E94333581E00E9474
:102DA000B12B88E194E09093531C8093521C0E94B5
:102DB000DD2C10923A1A6EC088E50E947C79882337
:102DC00099F00E943D791FEF160F1230A0F004E336
:102DD00014E0F8018491882311F40C9402270F5F0A
:102DE0001F4F0E94F076F5CF88E50E94F0760E9492
:102DF00095D50C94022789E50E947C798823A1F05F
:102E00000E943D790FEF060F0230A8F0EDE1F4E0EB
:102E100084918F010F5F1F4F882311F40C940227B8
:102E20000E94F076F801F4CF89E50E94F0760E94C6
:102E300095D50C9402278AE50E947C798823A1F01D
:102E40000E94C375E12FEE0FFF0BE00FF11D07FD90
:102E5000FA95EE0FFF1FEE0FFF1FE25DFB4E608342
:102E600071838283938316C08AE50E94F0760E9464
:102E700095D50C9402278AE50E947C798823A1F3DA
:102E80000E94C37560932A1470932B1480932C14A2
:102E900090932D140E94D03F0C9402271092930619
:102EA0000C94022781E0809393060C94022785E41A
:102EB0000E947C79B82E811102C00E94C6BA03ED2F
:102EC000802E02E0902E82E9C82E84E1D82E9DE863
:102ED000E92E9DE1F92E00E010E0A12CD4018D91A6
:102EE0004D010E947C79882339F1F60140805180A0
:102EF000628073800E94C375D6016D937D938D931C
:102F00009C9313970330C1F0A30192010E94A0E2A9
:102F10009B01AC01F70160817181828193810E94E4
:102F2000A1E2D7016D937D938D939C931397C80174
:102F30000E942D2CAA24A3940F5F1F4FB4E0CB0E48
:102F4000D11CE4E0EE0EF11C0430110539F6AA2084
:102F500019F00E94383003C0B1100E944C540E94F6
:102F6000D03F0C9402278091B402882311F40C9472
:102F7000022789E40E947C79E82E882321F00E94B0
:102F80003D79062F01C000E08AE40E947C79F82E8A
:102F9000882321F00E943D79162F01C010E0EE2019
:102FA00011F0023020F4FF2081F0123070F0E2EDD9
:102FB000F4E084918F010F5F1F4F882311F40C946C
:102FC00002270E94F076F801F4CF0E947F30EE20B5
:102FD000E1F024E00202F0011124E15BF34F2091C3
:102FE000FE143091FF14409100155091011560813D
:102FF0007181828193810E94A1E26093BB147093DE
:10300000BC148093BD149093BE14FF20E1F034E013
:103010001302F0011124E95BF34F20910215309166
:1030200003154091041550910515608171818281CD
:1030300093810E94A1E26093BF147093C0148093A7
:10304000C1149093C21480E50E944D7981110E94B1
:10305000E93086E40E947C798823D9F00E94C37508
:103060006B017C0120E030E0A9010E9424E41816E5
:1030700084F420E030E040E752E4C701B6010E944A
:1030800024E360932E0270932F028093300290937A
:1030900031020E94CD9E0C9402278091950690915A
:1030A00096068337910509F4F4C10CF0C6C08D343F
:1030B000910509F424C40CF058C08931910509F434
:1030C00002C32CF58431910509F4E6C18CF48131F9
:1030D000910509F468C23CF4029710F00C940227A1
:1030E000E0E0F5E0DCC1429709F416C60C94022733
:1030F0008631910509F4B8C20CF4B2C2873191054A
:1031000009F4B8C2489709F4BFC20C9402278F3162
:10311000910509F485C394F48B31910509F4EFC24C
:103120000CF4DFC28C31910509F426C34E9711F0DF
:103130000C9402270E9446370C9402278A3291058C
:1031400009F49AC32CF4809709F420C30C94022745
:103150008B34910509F4CFC38C34910511F00C9494
:1031600002270E948A540C9402278936910509F49B
:10317000D4C4B4F58435910509F4CEC5E4F48135A1
:10318000910509F4B3C54CF48E34910511F00C94FB
:1031900002270E9441330C9402278235910509F4DD
:1031A000B7C58335910511F00C94022781E0809317
:1031B000ED100C9402278C35910509F4FFC534F409
:1031C0008535910509F4DFC50C94022784369105F5
:1031D00009F499C38836910509F499C30C94022720
:1031E0008E36910509F4C3C39CF48B36910509F41E
:1031F000F9C40CF4D8C48C36910509F439C48D3661
:10320000910511F00C9402270E94A9310C94022719
:103210008037910509F430C40CF4BCC381379105A3
:1032200009F432C48237910511F00C9402270E94F0
:10323000C6BA0E94D03F0C9402278C32A1E09A07B4
:1032400011F40C9496220CF083C0883C910509F48B
:103250000BC70CF040C08937910509F400C71CF575
:103260008637910509F4C1C674F48537910511F0CC
:103270000C94022760E080919006909191060E9444
:1032800026960C9402278737910509F4E5C68837FE
:10329000910511F00C94022781E08093080280933D
:1032A000AB1D0C9402278C38910509F41AC434F430
:1032B0008D37910509F4A8C40C9402278B39910528
:1032C00009F448C48E3B910511F00C9402270E942A
:1032D0008F400C9402278E3C910511F40C9491219F
:1032E000E4F48B3C910509F42BC764F4893C910507
:1032F00011F00C940227E3EDEE2EE2E0FE2E0DEE2F
:1033000014E104C78C3C910509F436C78D3C910546
:1033100011F40C9426210C9402278C3D910511F494
:103320000C9446224CF4833D910511F00C94022735
:10333000ECEEFCE10C94AF218D3D910511F40C9461
:103340005322823E910511F40C946C220C940227B6
:103350008C3AE1E09E0711F40C949624D4F5833660
:1033600021E0920709F491C0B4F48E32A1E09A07EB
:1033700011F40C94DA2314F40C94BF228F32E1E0A0
:103380009E0711F40C942E248033914011F40C9478
:103390005D230C9402278A3921E0920709F470C357
:1033A0004CF48039914011F00C9402270E94C6BA67
:1033B0000C940227843AB1E09B0711F40C94312459
:1033C000853A914011F00C9402270E94123A0C9415
:1033D00002278835F2E09F0711F40C947D26CCF586
:1033E000853F31E0930711F40C9478252CF5843F48
:1033F000914011F00C9402270E944D908CEF98E0C0
:103400009A83898306E410E019A308A3BE016F5FC5
:103410007F4FCE0180960E948A7084E59BE09A835C
:10342000898319A308A3BE016F5F7F4FCE018096E9
:103430000E948A700C940227863FE1E09E0711F4F7
:103440000C9497258C31924011F40C9472260C94B4
:1034500002278C3223E09207A1F03CF48B32934098
:1034600011F00C9402270E94AFA3803AB3E09B07AF
:1034700009F4C9C1873E934011F40C9496260C942C
:103480000227EAE4F9E00C94B625E6EBFCE10C94A3
:103490008326EDE8F6E01EC5ECEEFCE199C08491D0
:1034A0008F010F5F1F4F882321F00E94F076F801F3
:1034B000F6CFA0909006B090910680E50E947C79AE
:1034C000882359F00E94B3756B017C0111E0672BD2
:1034D000682B692B31F410E004C010E0C12CD12C12
:1034E000760183E50E947C798823F1F00E94C37500
:1034F00020E030E04AE754E40E94BDDB0E949DE3F7
:103500006B017C01111112C0672B682B692B71F4C0
:10351000A114B10459F0D5018C91882339F061E0F0
:10352000C5010E94269607C0112391F360E081EF48
:1035300094E00E94F99583E090E09093FC108093D2
:10354000FB1081E08093FA100E94C6BA0E940976AF
:10355000C114D104E104F10411F180913C1D90915A
:103560003D1DA0913E1DB0913F1DC80ED91EEA1E03
:10357000FB1E0E940BB4DC01CB018C199D09AE0926
:10358000BF09B7FD02C00C941A278091FA10882356
:1035900011F40C941A2780E00E94B49AEACF10929A
:1035A000FA100C94022760E083E095E00E94F99500
:1035B0005F988A989FB7F894809108018E7F8093D6
:1035C00008019FBF12980C9402270E94F076F80120
:1035D00084918F010F5F1F4F8111F7CFEDE1F5E06F
:1035E00084918F010F5F1F4F882321F00E94F07696
:1035F000F801F6CF1092270F1092260F81ED9CE074
:103600000E940B868BE1E1EDFCE0DE011596019056
:103610000D928A95E1F78091CF0C9091D00C9C830C
:103620008B8381EE92E09A83898340E050E0BE0173
:103630006F5F7F4F88EF95E00E94CF73CE010196B8
:103640000E94A7A3EEE0F5E084918F010F5F1F4F6A
:10365000882311F40C9402270E94F076F801F4CF2D
:103660000E94F3710C9402271092A00C1092A10CEE
:103670000C94022740E061E08091900690919106C1
:103680000E94ED570C94022719821A821B821C8219
:1036900018A219A21AA21BA28091E710882341F058
:1036A00040E0BE016F5F7F4FCE0180960E9483A1F4
:1036B0008091A10C882319F081E08093A00C0E94D6
:1036C000A4540C9402271092A00C0E948A548EE2FB
:1036D00095E09093531C8093521C0E94DD2C0C9417
:1036E00002278091A10C882311F40C94022783E512
:1036F0000E947C7981110C941D270C9402278091E3
:10370000A10C811103C0E5E4F5E02AC0E3E3F5E094
:1037100084918F010F5F1F4F882321F00E94F07664
:10372000F801F6CF60911D0F70911E0F80911F0F51
:103730009091200F4AE00E9446778FE20E94F07637
:103740006091190F70911A0F80911B0F90911C0FAF
:103750004AE00E9446778AE00E94F0760C940227A5
:1037600084918F010F5F1F4F882311F40C9402275F
:103770000E94F076F801F4CF40E060E0809190067E
:10378000909191060E94ED570C9402278091A00C15
:1037900081110E94C6BAE0909006F090910680E5F3
:1037A0000E944D79182F882319F00E94E930182FB4
:1037B0008091A10C882311F40C940227412F61E021
:1037C000C7010E94ED5783E50E947C79882381F030
:1037D0000E943D79AB01BC0140931D0F50931E0F19
:1037E00060931F0F7093200F8CE69EE00E943FAF06
:1037F0008091A10C882319F081E08093A00C111115
:103800000C9402275CCF809190069091910621E064
:1038100020939F0C40E060E00E94ED570C9402273B
:1038200085E79CE00E948FB968A379A38AA39BA334
:10383000BE016F5F7F4FCE0180960E94147660E0DC
:10384000CE0101960E942696ECEEFCE184918F0158
:103850000F5F1F4F882321F00E94F076F801F6CF0A
:10386000BE016F5F7F4F86E595E00E94CF618AE0E1
:103870000E94F0760C94022783E50E947C798823CD
:1038800011F40C9402270E949330E82E80E50E94E8
:103890007C79882339F00E943D798B0177FF04C041
:1038A0000C9402270DE010E0802FEAE1F8E09491FB
:1038B000891303C0E6EBFCE10AC03196B8E0E234BC
:1038C000FB07A9F70C942E270E94F076F80184914B
:1038D0008F010F5F1F4F8111F7CFE3E6F5E0849171
:1038E0008F010F5F1F4F882311F40C9402270E9451
:1038F000F076F801F4CF0E94A4540C9402270E94A1
:10390000AD6F0C9402270E9489790C94022788E6F7
:1039100090E00E94A73081110C94022780917714C7
:1039200083FF02C00C94022783E50E947C798823E0
:10393000D1F00E94C3750E9496E3CB010E94588388
:103940000E94C37520E030E04AEA52E40E9457DB4F
:1039500018163CF00E94AD6F60E082E795E00E948F
:10396000F9950E94C3750E94CF620C9402278EE4E1
:103970000E947C79882311F40C9402270E943D79DF
:103980006093311D7093321D8093331D9093341DCD
:103990000C94022783E50E947C79882319F00E9409
:1039A000933001C080E080937714ECEEFCE18491C9
:1039B0008F010F5F1F4F811103C0E9E9F5E004C0DB
:1039C0000E94F076F801F3CF84918F010F5F1F4FB3
:1039D000882321F00E94F076F801F6CF80917714C9
:1039E000811103C0E5E9F5E034C01BE8C12E15E004
:1039F000D12EE12CF12C20E08091771490E00E2C58
:103A000002C0959587950A94E2F780FF17C0BB2402
:103A1000B394B20E222319F08CE20E94F076F601E4
:103A200085919491FC0184918F010F5F1F4F882332
:103A300021F00E94F076F801F6CF2B2DEFEFEE1A71
:103A4000FE0AF2E0CF0ED11C35E0E316F104A1F638
:103A50000AC084918F010F5F1F4F882321F00E94BD
:103A6000F076F801F6CF8AE00E94F0760C940227F7
:103A7000109232020C94022780EA95E00E94E7A59A
:103A80000E940B3B0C94022783E50E947C798111F4
:103A900003C0ECEEFCE10DC00E9493308093A102C4
:103AA0008D3310F40C9402278CE38093A1020C94C4
:103AB000022784918F010F5F1F4F882321F00E94FE
:103AC000F076F801F6CF4091A10250E060E070E09E
:103AD00088EA95E00E947C618AE00E94F0760C946E
:103AE00002278091771483FF02C00C94022783E59C
:103AF0000E947C79882311F40C9402270E94C375DC
:103B00000E9496E36739710514F066E970E07093DE
:103B1000EF106093EE100C94022789E690E00E946B
:103B2000A730811111C0EFEAF5E084918F010F5F9A
:103B30001F4F882321F00E94F076F801F6CF0E94F3
:103B400024318AE00E94F0761092FC101092FB1053
:103B50000C949F2783E50E947C79882311F40C94B0
:103B600002270E9493308093391D8D3318F08CE327
:103B70008093391D0E940BB46B017C012091391D8B
:103B800030E0A8EEB3E00E943AE2C60ED71EE81E6F
:103B9000F91EC092351DD092361DE092371DF0926D
:103BA000381D0C94022783E50E947C79882339F024
:103BB0000E943D798B016F3F710519F010F00FEFF6
:103BC00010E080E50E947C79811106C01093E91015
:103BD0000093E8100C9402270E94933081110C94FA
:103BE0000227F4CF80E50E947C79811106C01092F3
:103BF000E9101092E8100C9402270E943D79672B7F
:103C000011F00C940227F3CF8CE40E944D798823A5
:103C100019F00E94C37504C060E070E080EA90EC87
:103C200068AB79AB8AAB9BAB8AE50E947C79882331
:103C300019F00E94C37503C060E070E0CB0120E082
:103C400030E040E751E40E94A1E26CA77DA78EA777
:103C50009FA788E50E947C79882319F00E94C3758C
:103C600003C060E070E0CB0120E030E042E553E4C7
:103C70000E94A1E268A779A78AA79BA789E50E946D
:103C80007C79882319F00E94C37503C060E070E05E
:103C9000CB0120E030E04CED52E40E94A1E26CA3A5
:103CA0007DA38EA39FA319821A821B821C8218A255
:103CB00019A21AA21BA28091E71081110C9402276D
:103CC000A12CC12CCE0101967C018E01005E1F4FFC
:103CD0009E012C5D3F4FAE01485D5F4FBE01645DAC
:103CE0007F4F8F960E94CA9F0C9402270E945F8389
:103CF0000E94C6BA0E94779E1092E9101092E810B6
:103D000068EE73E080E090E00E94A9800C940227A6
:103D10001092ED100C94022783E50E947C79882391
:103D2000A1F00E94C37520E030E04AE754E40E940D
:103D3000BDDB0E949DE36093A2027093A302809377
:103D4000A4029093A5020C94022788E50E944D7965
:103D500081110C94432789E50E944D7981110C94BF
:103D600043278AE50E944D7981110C94432785E40D
:103D70000E944D7981110C9443270E94C6BA0E947B
:103D8000779E0C94022783E50E944D79882311F4D5
:103D90000C9402270E94C37520E030E04AE754E407
:103DA0000E94BDDB0E949DE36093401D7093411D06
:103DB0008093421D9093431D0C940227A3EDCA2EBD
:103DC000A2E0DA2EB2EAEB2EB4E1FB2E10E0D6012F
:103DD0008D916D010E944D79882309F46DC01330D7
:103DE00009F063C00E94C3754B015C0120E030E024
:103DF00040EA51E40E9457DB87FF4EC0A5019401C1
:103E00006091AE147091AF148091B0149091B11480
:103E10000E9424E32B013C019B01AC0160914B14F7
:103E200070914C1480914D1490914E140E94BDDB02
:103E300060934B1470934C1480934D1490934E14D4
:103E4000A3019201609167147091681480916914C4
:103E500090916A140E94BDDB60936714709368149C
:103E60008093691490936A146091E9147091EA1434
:103E70008091EB149091EC140E945CDBA301920101
:103E80000E94BDDB0E949DE36093E9147093EA14E5
:103E90008093EB149093EC148092AE149092AF1434
:103EA000A092B014B092B11407C00E94C375F7017C
:103EB00060837183828393831F5FF4E0EF0EF11CB4
:103EC000143009F084CF0E9427640C9402270E94CA
:103ED000F076F80184918F010F5F1F4F8111F7CFAA
:103EE000EFE7F6E003C00E94F076F80184918F01BD
:103EF0000F5F1F4F8111F7CFE8E6F6E003C00E9485
:103F0000F076F80184918F010F5F1F4F8111F7CF79
:103F1000E8E5F6E003C00E94F076F80184918F0195
:103F20000F5F1F4F8111F7CFE7E4F6E003C00E9457
:103F3000F076F80184918F010F5F1F4F8111F7CF49
:103F4000E6E3F6E003C00E94F076F80184918F0169
:103F50000F5F1F4F8111F7CFE7E2F6E003C00E9429
:103F6000F076F80184918F010F5F1F4F8111F7CF19
:103F7000E2E1F6E003C00E94F076F80184918F013F
:103F80000F5F1F4F8111F7CFECEFF5E003C00E94E8
:103F9000F076F80184918F010F5F1F4F8111F7CFE9
:103FA000E7EEF5E003C00E94F076F80184918F01FE
:103FB0000F5F1F4F8111F7CFEAECF5E003C00E94BD
:103FC000F076F80184918F010F5F1F4F8111F7CFB9
:103FD000E2EBF5E084918F010F5F1F4F882309F416
:103FE00011C70E94F076F801F5CF85E40E944D7963
:103FF000882381F00E94E930882361F0ECEEFCE137
:1040000084918F010F5F1F4F882321F00E94F0766B
:10401000F801F6CF81E40E944D79882381F00E9457
:10402000E930882361F0EAE5F7E084918F010F5FC2
:104030001F4F882321F00E94F076F801F6CF0091FF
:10404000900610919106D8018D918D01882309F475
:104050000ACD0E94F076F7CF0E9469A9D3C61092CC
:1040600008021092AB1DCEC688EC90E00E94A730EB
:104070008111C8C684E40E944D79882309F443C0A5
:104080000E94C3756B017C0111E020E030E0A901C2
:104090000E9457DB811101C010E01093AC1D20E09D
:1040A00030E0A901C701B6010E9457DB882359F10E
:1040B0000091920610E00E94C375000F111F000FBF
:1040C000111FF801E955FD4F60837183828393834B
:1040D00020E030E0A9016091A7027091A8028091D0
:1040E000A9029091AA020E9457DB81110CC080E0C6
:1040F00090E0A0EEBFE38093A7029093A802A09364
:10410000A902B093AA020E94889E7CC6F701819101
:104110007F010E944D79882351F00E94C3750E944F
:104120009DE3D8016D937D938D939C9313970C5FC2
:104130001F4FB4E10D3F1B0749F70E94FF6262C6A3
:1041400073EDE72E72E0F72E0BE514E1F701819194
:104150007F010E944D79882341F00E94C375D801E8
:104160006D937D938D939C9313970C5F1F4FB4E1D8
:104170000B361B0759F746C683E50E944D79882305
:10418000D9F00E94C375AB01BC0140935314509306
:104190005414609355147093561440934F145093D5
:1041A0005014609351147093521488EB97E00E945E
:1041B00099618AE00E94F07680E50E944D7988231B
:1041C00099F00E94C375AB01BC0140935314509306
:1041D000541460935514709356148BE997E00E9421
:1041E00099618AE00E94F07682E50E944D798823E9
:1041F00099F00E94C375AB01BC01409357145093D2
:1042000058146093591470935A148CE797E00E94E5
:1042100099618AE00E94F07684E50E944D798823B6
:1042200009F4F0C50E94C375AB01BC0140934F1463
:104230005093501460935114709352148EE597E08C
:104240000E9499618AE00E94F076DCC583E50E94B5
:104250004D79882351F00E94C37560937314709355
:104260007414809375149093761484E50E944D79AC
:10427000882351F00E94C37560936F14709370147B
:10428000809371149093721482E40E944D79882374
:1042900051F00E94B37560936B1470936C1480930B
:1042A0006D1490936E1488E50E944D79882351F027
:1042B0000E94C37560933F1470934014809341141F
:1042C0009093421489E50E944D79882351F00E9411
:1042D000C375609343147093441480934514909372
:1042E00046148AE50E944D79882351F00E94C375D7
:1042F00060934714709348148093491490934A1420
:1043000085E40E944D79882309F47CC50E94C37519
:1043100060934B1470934C1480934D1490934E14EF
:1043200071C563EDE62E62E0F62E00E010E0F701C5
:1043300081917F010E944D79882339F00E94C375D5
:10434000AB01BC01C8010E94832C0F5F1F4F0330DB
:10435000110569F70E9438300E94D03F53C58491FF
:104360008F010F5F1F4F882321F00E94F076F80124
:10437000F6CF83E50E944D79882321F00E94E93031
:104380008093A602EAE0F8E084918F010F5F1F4F4F
:10439000882321F00E94F076F801F6CF8091A602E2
:1043A000882319F0E0E0F8E002C0E5E0F8E084914D
:1043B0008F010F5F1F4F811103C0E8EFF7E004C0CA
:1043C0000E94F076F801F3CF84918F010F5F1F4FA9
:1043D000882321F00E94F076F801F6CF4091CB14AB
:1043E0005091CC146091CD147091CE1486EF97E06B
:1043F0000E9499614091CF145091D0146091D114D2
:104400007091D21483EF97E00E9499614091D31488
:104410005091D4146091D5147091D61480EF97E028
:104420000E949961E8EEF7E084918F010F5F1F4FC2
:10443000882321F00E94F076F801F6CF40910F0218
:1044400050911002609111027091120286EE97E075
:104450000E949961409113025091140260911502DB
:104460007091160283EE97E00E94996140911702C5
:10447000509118026091190270911A0280EE97E033
:104480000E9499618AE00E94F076BCC483E50E9494
:104490007C79882309F4B6C40E943D797093880220
:1044A00060938702AFC48DED90E00E94A730811128
:1044B000A9C483E50E947C79882309F4A3C40091F0
:1044C000920610E00E943D79000F111FF801E75F8E
:1044D000FD4F7183608396C480E50E944D798823E7
:1044E00009F490C40E943D79F62EC62ED72E83E59E
:1044F0000E947C79882321F00E943D798B0102C0C3
:104500000FEF1FEFC8010196039708F07BC4D7FC9B
:1045100079C4EAE1F8E082E498E02491F21609F423
:1045200071C431968E179F07C1F7E1C483E50E94DD
:104530007C79882319F00E943D7902C064E071E023
:1045400079A368A380E50E947C79882339F00E94D2
:104550003D796938F3E17F0730F402C068EE73E01B
:104560007A83698304C088E893E19A838983BE01D2
:10457000605E7F4FCE0101960E948A7043C485E43D
:104580000E947C79811110C080E50E944D798823BA
:1045900091F00E94C3756093C5027093C602809328
:1045A000C7029093C80207C00E949330882361F32A
:1045B000E6EBFCE171C089E40E944D79882381F02B
:1045C0000E94C3752CEA35EC47E25EE30E94BDDB36
:1045D0006093C1027093C2028093C3029093C4029D
:1045E00084E40E944D79882381F00E94C3752CEAEF
:1045F00035EC47E25EE30E9424E36093C9027093C6
:10460000CA028093CB029093CC02ECEEFCE1849141
:104610008F010F5F1F4F882321F00E94F076F80171
:10462000F6CF4091C5025091C6026091C7027091C9
:10463000C8028AE498E00E9499612CEA35EC47E2CE
:104640005EE36091C1027091C2028091C3029091B9
:10465000C4020E9424E3AB01BC0186E498E00E94FE
:1046600099612CEA35EC47E25EE36091C9027091F2
:10467000CA028091CB029091CC020E94BDDBAB01BB
:10468000BC0182E498E00E9499618AE00E94F07681
:10469000B9C30E94F076F80184918F010F5F1F4F1C
:1046A0008111F7CF03E913E0D8018D918D018823A3
:1046B00009F4D9C90E94F076F7CF80E50E944D79C0
:1046C000882351F00E94C3756093BD027093BE02AF
:1046D0008093BF029093C00289E40E944D798823A1
:1046E00081F00E94C3752CEA35EC47E25EE30E943C
:1046F000BDDB6093B9027093BA028093BB029093C2
:10470000BC0284E40E944D79882381F00E94C37525
:104710002CEA35EC47E25EE30E9424E36093B502A5
:104720007093B6028093B7029093B802ECEEFCE16E
:1047300084918F010F5F1F4F882321F00E94F07634
:10474000F801F6CF4091BD025091BE026091BF02C8
:104750007091C00286E598E00E9499612CEA35ECE0
:1047600047E25EE36091B9027091BA028091BB02A8
:104770009091BC020E9424E3AB01BC0182E598E069
:104780000E9499612CEA35EC47E25EE36091B50244
:104790007091B6028091B7029091B8020E94BDDB81
:1047A000AB01BC018EE498E00E9499618AE00E940E
:1047B000F07628C383E50E944D79182F882371F085
:1047C0000E94C3750E9496E37093280260932702AB
:1047D00021E0672B09F020E02093FD1480E50E9482
:1047E0004D79882359F02091270230912802232BFC
:1047F00011F00E94E9308093FD1404C3111102C32B
:10480000ECEEFCE184918F010F5F1F4F882321F0B4
:104810000E94F076F801F6CF8091FD14882319F0FC
:1048200060EB75E002C06DE773E08FE698E00E94F0
:10483000CF6160912702709128028EE598E00E9476
:10484000B661EAE5F8E084918F010F5F1F4F88237E
:1048500009F4D8C20E94F076F801F5CF0E945F3BC0
:10486000D1C286E50E944D79882391F080913E1453
:1048700080FF0EC0EFEAF8E084918F010F5F1F4FB9
:10488000882321F00E94F076F801F6CF0E94E1D44F
:1048900083E50E944D79182F882319F00E94E93092
:1048A000182F83E50E944D79882319F0812F0E94EB
:1048B000B12B80913E148270F82E111103C0ECEEE2
:1048C000FCE11BC08111FBCFE6EBFCE184918F0181
:1048D0000F5F1F4F811103C0E0E9F8E004C00E94A0
:1048E000F076F801F3CF84918F010F5F1F4F88237B
:1048F00031F30E94F076F801F6CF84918F010F5FBB
:104900001F4F882321F00E94F076F801F6CFFF2098
:1049100019F063E773E002C068E773E082E898E0AB
:104920000E94CF618AE00E94F0766CC2ECE3FAE16B
:10493000FDABECAB8EEF882E84E1982E92E9A92E88
:1049400094E1B92E2BECC22E24E1D22E3FE0232E8F
:1049500032E0332E49EBE42E42E2F42E00E010E088
:10496000ACA9BDA98D91BDABACAB882309F485C0C2
:10497000F5014080518062807380D1012D913D917D
:104980004D915C91F60160817181828193810E94D9
:10499000A1E220E030E040E05FE30E94BDDB9B014C
:1049A000AC01C301B2010E9424E4181654F4F701CB
:1049B00085919591A591B4918EAB9FABA8AFB9AFFE
:1049C00004C01EAA1FAA18AE19AED4012D913D91A4
:1049D0004D915C91C301B2010E94A0E29B01AC0128
:1049E0006EA97FA988AD99AD0E94A0E22B013C0180
:1049F00020E030E040EA51EC0E9424E487FD0AC048
:104A000020E030E040EA51E4C301B2010E9457DBEC
:104A100018161CF4E6EBFCE109C0B301A201C801C1
:104A20000E94832C2AC00E94F076F80184918F01A5
:104A30000F5F1F4F8111F7CFE4EEF8E084918F01F3
:104A40000F5F1F4F882321F00E94F076F801F6CF08
:104A500061E086ED98E00E94F99588E290E09A8303
:104A6000898388EC90E099A388A3BE016F5F7F4F94
:104A7000CE0180960E948A70C5C10F5F1F4FB4E0BF
:104A80008B0E911CE4E0AE0EB11CF4E0CF0ED11CF5
:104A900024E0220E311C34E0E30EF11C033011053A
:104AA00009F05ECF0E9438300E94D03F60E085EC74
:104AB00098E00E94F99583E992E099A388A304E61F
:104AC00010E01A830983BE01605E7F4FCE0101961C
:104AD0000E948A708AEB92E099A388A31A830983C3
:104AE000BE01605E7F4FCE0101960E948A708AC12E
:104AF0000E943E8B8CEF98E09A83898306E410E055
:104B000019A308A3BE016F5F7F4FCE0180960E945C
:104B10008A7084E59BE09A83898319A308A3BE0168
:104B20006F5F7F4FCE0180960E948A706BC10E949A
:104B3000E6A984E59BE09A83898306E410E019A343
:104B400008A3BE016F5F7F4FCE0180960E948A70DE
:104B50008CEF98E09A83898319A308A3BE016F5F45
:104B60007F4FCE0180960E948A704CC184918F0144
:104B70000F5F1F4F882321F00E94F076F801F6CFD7
:104B800083E090E09093FC108093FB101092FA1059
:104B90009093F9108093F81083E19CE00E949A9919
:104BA0001092F4101092F5101092F6101092F71067
:104BB00080E00E94335580918114882381F040E089
:104BC00050E069E279E082E998E00E944E9540E089
:104BD00050E061E070E087E398E00E94709480917B
:104BE0008114882381F040E050E065E179E085E8B8
:104BF00098E00E944E9540E050E062E070E087E36C
:104C000098E00E94709480918114882381F040E0A4
:104C100050E062E079E088E798E00E944E9540E03D
:104C200050E063E070E087E398E00E947094809128
:104C30008014882329F01092F9101092F81006C001
:104C400080E00E94B49A10928114B5CF8091F81040
:104C50009091F9108330910521F481E00E94B49A7B
:104C6000F5CF21E030E03093FC102093FB10892B2E
:104C700009F0C8C080E00E943355809181148823D8
:104C800081F040E050E067E379E082E998E00E943B
:104C90004E9540E050E061E070E087E398E00E94CC
:104CA000709480918114882381F040E050E066E3A5
:104CB00079E085E898E00E944E9540E050E062E09F
:104CC00070E087E398E00E947094109281140E9433
:104CD0000BB46093F4107093F5108093F6109093DA
:104CE000F71090C083E50E944D79882309F48AC0AB
:104CF0000E94E9308093131185C00E947B3882C0E6
:104D00000E94F076F80184918F010F5F1F4F81118F
:104D1000F7CFEFE4F9E084918F010F5F1F4F8823F5
:104D200009F470C00E94F076F801F5CF81E080931D
:104D3000B4021092951C83E50E944D79811103C045
:104D40000E94989F5FC00E94E93081115BC0F8CF3C
:104D5000F0909506FF2029F1ECEEFCE184918F01A3
:104D60000F5F1F4F882321F00E94F076F801F6CFE5
:104D700084E50E94F0766F2D70E080E090E04AE0DC
:104D80000E94467780E20E94F07603E913E0D801A2
:104D90008D918D01882311F40C94331D0E94F076BF
:104DA000F6CF10923B1AECEEFCE184918F010F5F7D
:104DB0001F4F882321F00E94F076F801F6CF609112
:104DC0003B1A70E08EE599E00E94B6618AE00E948D
:104DD000F07618C084918F010F5F1F4F882321F058
:104DE0000E94F076F801F6CF60913A1D70913B1D5C
:104DF00080E799E00E94CF6182E20E94F0768AE02B
:104E00000E94F0761092FC101092FB100E94799F85
:104E100096C06091900670919106672B39F4BF019E
:104E200061507109709391066093900660E070E0A4
:104E30000C942D141092FA10E5CF0E943D79AB012D
:104E4000BC0140931D0F50931E0F60931F0F709372
:104E5000200F8CE69EE00E943FAFD4CF61E0802F10
:104E60000E94CCB26E2D802F0E949DB2F12CB70112
:104E7000802F0E9408B30930110521F6F092E91045
:104E8000E092E810BFCF0E94C6BA88E50E944D7933
:104E9000882319F05F9A1092B81489E50E944D7921
:104EA000882319F08A9A1092B9148AE50E944D79E4
:104EB000882351F09FB7F894809108018160809316
:104EC00008019FBF1092BA1485E40E944D7988238F
:104ED00009F498CF0E94B29A95CF143511F40C942E
:104EE000A413173411F00C947C140C94A4130E9496
:104EF000C6BA60E08F2D0E94CCB20F3FBFEF1B07F8
:104F000059F48F2D0E9474B231E020E0892B09F012
:104F100030E0032F122F05C00130110569F401E0C4
:104F200010E08F2D0E9474B28017910709F46ACFA8
:104F300080E00E94B49AF5CF00E010E0F2CFE9964D
:104F40000FB6F894DEBF0FBECDBFDF91CF911F919A
:104F50000F91FF90EF90DF90CF90BF90AF909F9018
:104F60008F907F906F905F904F903F902F9008951B
:104F70009091841DE92FF0E0E75FFE4E80839F5FF4
:104F80009A3018F49093841D02C01092841D809171
:104F9000B2138F5F8093B2130895FF920F931F9304
:104FA000CF93DF93F82E092F162FE6EBFCE18491C7
:104FB000EF012196882321F00E94F076FE01F7CFC1
:104FC000EF2DF02F8491EF012196882321F00E948C
:104FD000F076FE01F7CF6091311D7091321D809106
:104FE000331D9091341D0E94B3778AE00E94F076C1
:104FF00011110E94989F1092131410921214DF91B5
:10500000CF911F910F91FF9008952F923F924F9251
:105010005F926F927F928F929F92AF92BF92CF9248
:10502000DF92EF92FF920F931F93CF93DF9300D005
:1050300000D0CDB7DEB79A8389830E940BB4E98193
:10504000FA81C680D780E084F184C114D104E104E0
:10505000F10409F0ACC22485222309F469C3328526
:105060002150248721E0230F22874585241301C086
:105070001286E981FA8124E0329FE00DF11D1124AE
:10508000C684D784E088F188E981FA81C282D3821C
:10509000E482F582DC01CB018C0D9D1DA11DB11DAB
:1050A00086839783A087B18784819581892B09F4B2
:1050B0003FC3FFB7FD83F894E981FA8122803380F2
:1050C0002101612C712C0481158180913802853277
:1050D00021F08F3F09F068C205C0E0EAF0E22491B8
:1050E0002E83DAC085E280933802E0EAF0E2849110
:1050F0008E838F3F09F458C2823009F469C030F5BD
:10510000882309F44CC0813009F0C6C01092800099
:10511000109281008091810088608093810080914D
:105120008100816080938100EBE5F4E2E491F0E09E
:10513000EE0FFF1FEE5FFB4D85919491E1EAF4E2E3
:10514000E491E093B813E1E0EE8330C19E819430A6
:1051500009F482C008F460C0953009F09DC0109237
:10516000200110922101809121018860809321010A
:1051700080912101816080932101EBE5F4E2E491CB
:10518000F0E0EE0FFF1FEE5FFB4D85919491E1EA99
:10519000F4E2E491E093B51395E09E8307C114BC5B
:1051A00015BC84B5826084BD85B5816085BDEBE5A5
:1051B000F4E2E491F0E0EE0FFF1FEE5FFB4D85910E
:1051C0009491E1EAF4E2E491E093B9131E82ABC258
:1051D0001092B0001092B1008091B0008260809374
:1051E000B0008091B10081608093B100EBE5F4E202
:1051F000E491F0E0EE0FFF1FEE5FFB4D859194917F
:1052000090937A1C8093791CE1EAF4E2E491E093B4
:105210007B1CF2E0FE8387C21092900010929100F6
:1052200080919100886080939100809191008160CD
:1052300080939100EBE5F4E2E491F0E0EE0FFF1FC4
:10524000EE5FFB4D85919491E1EAF4E2E491E09305
:10525000B71323E02E83AAC01092A0001092A100E1
:105260008091A10088608093A1008091A10081605D
:105270008093A100EBE5F4E2E491F0E0EE0FFF1F74
:10528000EE5FFB4D85919491E1EAF4E2E491E093C5
:10529000B61384E08E838AC0EE81E7FD85C161E0AC
:1052A00085E20E94CCB28E818D7F09F083C04801D7
:1052B000A12CB12C60E072E18AE790E0A501940195
:1052C0000E9471E229833A834B835C8369017A01EE
:1052D000F1E0CF1AD108E108F1082FEFC216D1048E
:1052E000E104F10409F008F44EC060E472E48FE0D8
:1052F00090E0A50194010E9471E269017A0181E0C8
:10530000C81AD108E108F1089E81923009F5EFEF43
:10531000CE16D104E104F10409F008F4CBC160E930
:1053200070ED83E090E0A50194010E9471E26901B3
:105330007A01F1E0CF1AD108E108F1082FEFC21687
:10534000D104E104F10411F008F041C183E027C069
:105350008FEFC816D104E104F104B9F0B0F068E4AD
:1053600078EE81E090E0A50194010E9471E269016C
:105370007A0191E0C91AD108E108F108EE81EE2323
:1053800009F49AC163C181E001C082E09E8191115C
:1053900006C095B5987F892B85BD7AC085E0909130
:1053A000B100987F892B8093B10072C061E085E2E3
:1053B0000E94CCB24801A12CB12C60E072E18AE7D6
:1053C00090E0A50194010E9471E269017A01E1E097
:1053D000CE1AD108E108F108C114D104F1E0EF06BA
:1053E000F10488F068E478EE81E090E0A501940192
:1053F0000E9471E269017A0181E0C81AD108E108CE
:10540000F10883E001C081E09E81913071F49091B8
:105410008100987F892B8093810045284628472862
:10542000D9F52FEF3FEFA90168C0EE81E33071F4A9
:1054300090919100987F892B809391004528462870
:10544000472851F52FEF3FEFA90179C0FE81F430D5
:1054500071F49091A100987F892B8093A100452839
:1054600046284728C9F42FEF3FEFA9017AC02E81C3
:10547000253071F490912101987F892B809321012F
:1054800045284628472841F42FEF3FEFA9017BC06C
:1054900045284628472869F0D801AA0FBB1F91016B
:1054A0000E943AE228EE33E040E050E00E940DE234
:1054B00003C02FEF3FEFA9018E81823081F12CF4E0
:1054C000882361F08130C9F06FC09E81943009F467
:1054D00048C0ACF1953009F456C066C0C7BC2093F3
:1054E000CA133093CB134093CC135093CD138091B8
:1054F0006E00826080936E0057C0D0928900C09287
:1055000088002093C6133093C7134093C813509359
:10551000C91380916F00826080936F0045C0C09274
:10552000B30020937C1C30937D1C40937E1C5093D1
:105530007F1C8091700082608093700035C0D09293
:105540009900C09298002093C2133093C3134093E4
:10555000C4135093C51380917100826080937100D1
:1055600023C0D092A900C092A8002093BE1330930C
:10557000BF134093C0135093C11380917200826097
:105580008093720011C0D0922901C092280120930B
:10559000BA133093BB134093BC135093BD13809147
:1055A0007300826080937300ED81EFBFC1C0DC01A6
:1055B000CB018C199D09AE09BF09B7FDB9C0409850
:1055C000E981FA811682178210861186B1C068E4DB
:1055D00078EE81E090E0A50194010E9471E26901FA
:1055E0007A01F1E0CF1AD108E108F1082FEFC216D5
:1055F000D104E104F10441F138F164E274EF80E098
:1056000090E0A50194010E9471E269017A01F1E044
:10561000CF1AD108E108F1082FEFC216D104E10436
:10562000F10409F008F4BACE62E17AE780E090E094
:10563000A50194010E9471E269017A0181E0C81A12
:10564000D108E108F10819C084E0A9CE2FEFC216F5
:10565000D104E104F10409F008F463C062E17AE7DF
:1056600080E090E0A50194010E9471E269017A0155
:10567000F1E0CF1AD108E108F1082FEFC216D104EA
:10568000E104F104A9F0A0F089819A81AB81BC8189
:105690002AE0B595A795979587952A95D1F76C013E
:1056A0007D01F1E0CF1AD108E108F10887E077CE5B
:1056B00086E075CE82E073CEEFEFCE16D104E10422
:1056C000F10469F160F162E17AE780E090E0A50120
:1056D00094010E9471E269017A0181E0C81AD1083F
:1056E000E108F1089FEFC916D104E104F104A9F023
:1056F000A0F089819A81AB81BC813AE0B595A795EC
:10570000979587953A95D1F76C017D01E1E0CE1A26
:10571000D108E108F10885E03CCE84E03ACE83E090
:1057200038CE84E033CE61E085E20E94CCB2BFCDBA
:1057300026960FB6F894DEBF0FBECDBFDF91CF9196
:105740001F910F91FF90EF90DF90CF90BF90AF909F
:105750009F908F907F906F905F904F903F902F9091
:10576000089590913E1491FB222720F98217C9F0E9
:1057700081110EC04AE954E166E974E182E994E1DD
:105780000E948D5280913E148D7F80933E14089527
:1057900090FFF8CF926090933E1482E994E10C94CC
:1057A000EA6108958F929F92AF92BF92CF92EF924B
:1057B000FF920F931F93CF93DF93CDB7DEB72C9754
:1057C0000FB6F894DEBF0FBECDBF4B015C01C09099
:1057D0003B1AEBEBF4E180859185A285B38544818A
:1057E000558166817781008111812281338109830E
:1057F0001A832B833C834D835E836F8378878987ED
:105800009A87AB87BC87AE01475F5F4FBE016B5F76
:105810007F4FCE0101960E948D528501740127ECC5
:1058200034E1AE01475F5F4FBE016B5F7F4FCE013A
:1058300001960E94F5432C960FB6F894DEBF0FBE7A
:10584000CDBFDF91CF911F910F91FF90EF90CF903F
:10585000BF90AF909F908F900895CF92DF92EF927C
:10586000FF920F931F93CF93DF93EC01CC0FDD1FBB
:10587000CC0FDD1FFE01E350FF4E20E030E0A90118
:1058800060817181828193810E94A1E2FE01E357D0
:10589000F24E20813181428153810E94A1E26B014D
:1058A0007C01FE01E250FB4E60837183828393830F
:1058B000FE01E955F24F25913591459154918E01A4
:1058C00005531B4E0E94A1E2F8016083718382831D
:1058D0009383FE01ED54F24F2591359145915491FA
:1058E000C15FDD4FC701B6010E94A1E268837983E1
:1058F0008A839B83DF91CF911F910F91FF90EF904F
:10590000DF90CF9008958F929F92AF92BF92EF92C7
:10591000FF920F931F93CF93DF938C014A015B019A
:10592000EC01CC0FDD1FCC0FDD1FCE018E569B4E40
:105930007C01C350DF4E288139814A815B81C501DA
:10594000B4010E94A0E2F70120813181428153819C
:105950000E94A1E2F701608371838283938388822E
:105960009982AA82BB82C801DF91CF911F910F91CA
:10597000FF90EF90BF90AF909F908F900C942D2C44
:10598000CF93FC0120812B33A9F02091B2132A3050
:1059900088F4C62FBC018091841DF0E48F9FC00164
:1059A00011248F5C9E4E0E94EFE58C2F0E94B82739
:1059B00081E001C080E0CF910895DF92EF92FF92E5
:1059C0000F931F93CF93DF93CDB7DEB76E970FB6CC
:1059D000F894DEBF0FBECDBF6091521C7091531C76
:1059E0006115710549F14DE150E0CE0101967C0150
:1059F0000E94D1DA1E8EF7018F010E191F09D19076
:105A0000DD2019F09AE0D912F7CFF701E00FF11F6E
:105A10001082C7010E94BE70882371F0DD20A9F0BA
:105A20000F5F1F4F8091521C9091531C080F191F3C
:105A30001093531C0093521C81E02091521C309112
:105A4000531C232B29F480E003C000E010E0F0CFCA
:105A50006E960FB6F894DEBF0FBECDBFDF91CF912B
:105A60001F910F91FF90EF90DF9008952F923F923A
:105A70004F925F926F927F928F929F92AF92BF925E
:105A8000CF92DF92EF92FF920F931F93CF93DF930A
:105A90001F92CDB7DEB70E94DD2C8111D5C2809157
:105AA000B2138A3008F06FC02FB7F89480912F1D81
:105AB0009091301D2FBF891B8F7709F464C00E941D
:105AC000447820911214309113148A3019F08D30DB
:105AD00009F089C2109214142115310509F4E5C1A9
