:100000000C94331E0C94641E0C94641E0C94641E99
:100010000C94641E0C94641E0C94641E0C94641E58
:100020000C94641E0C94641E0C94641E0C94641E48
:100030000C94641E0C94C5760C94641E0C94641E7F
:100040000C94641E0C9485600C94641E0C94641EC5
:100050000C94641E0C94641E0C9480D10C94EE934A
:100060000C94641E0C944DE30C94641E0C94641E5A
:100070000C94641E0C94641E0C94641E0C94641EF8
:100080000C94641E0C94641E0C94641E0C94641EE8
:100090000C94641E0C94641E0C94641E0C94641ED8
:1000A0000C94641E0C94641E0C94641E0C94641EC8
:1000B0000C94641E0C94641E0C94641E0C94641EB8
:1000C0000C94641E0C94641E0C94641E0C94641EA8
:1000D0000C94641E0C94641E0C94641E0C94641E98
:1000E0000C94641E3D5646565056595662567D56DF
:1000F0008A5693566B567456B156B456A356A756A5
:10010000AD56EB56B856BC56C256C656CA56D05611
:10011000D456D856EB56DE56E256E656A657AB579F
:10012000B057BA57C4573D58CE57D657DE57E85741
:10013000F257FC570B5815583D581F58295833583B
:10014000084AD73B3BCE016E84BCBFFDC12F3D6C3E
:1001500074319ABD56833DDA3D00C77F11BED9E4A4
:10016000BB4C3E916BAAAABE000000803F05A84C84
:10017000CDB2D44EB93836A9020C50B99186880850
:100180003CA6AAAA2ABE000000803F000D944702A8
:100190000D94DD004E414E494E495459494E46CDCD
:1001A000CCCC3D0AD7233C17B7D13877CC2B32952E
:1001B00095E6241FB14F0A000020410000C842000C
:1001C000401C4620BCBE4CCA1B0E5AAEC59D74478F
:1001D000322F47332062616420706172616D6574F3
:1001E0006572730A0055C59B70696A2E2E2E0059E0
:1001F000206F7574206F662072616E6765202831EC
:100200002D32292E0A0058206F7574206F662072D7
:10021000616E67652028312D32292E0A004D6573E5
:10022000682070726F62696E6720646F6E652E0A57
:10023000005374617274206D6573682070726F6210
:10024000696E6720776974682022473239205331FC
:10025000222066697273742E0A004732380A4732C8
:10026000392053320053746174653A20004D657330
:100270006820626564206C6576656C696E672068CD
:100280006173206E6F20646174612E0A0053206FC9
:100290007574206F662072616E67652028302D3579
:1002A000292E0A004D65736820706F696E74206393
:1002B000616E6E6F74206265207265736F6C766517
:1002C000640A005072696E746F20483320546F774F
:1002D000657220676F746F77612E00577A6E617751
:1002E00069616E6965206472756B75004F637A652C
:1002F0006B6977616E69652E2E2E004272616B20EC
:10030000727563687500456E642066696C65206C63
:100310006973740A00426567696E2066696C6520BE
:100320006C6973740A005344207072696E74696E4C
:1003300067206279746520004E6F742053442070EA
:1003400072696E74696E670A0046696C652064653F
:100350006C657465643A0044656C6574696F6E2001
:100360006661696C65642C2046696C653A20006F93
:1003700070656E206661696C65642C2046696C65E9
:100380003A20005072696E742074696D653A2000DD
:100390000001363726FF023C3D380EFF2E303EFF6F
:1003A00013FF0C0809FFFFFF1A1C18FFFF08440A7F
:1003B000FF43FFFFFFFFFFFF50726F7465637465BB
:1003C000642050696E0A004525692025730050722B
:1003D000696E746F20483320546F77657220676FA1
:1003E000746F77612E0055626974792E2000526F08
:1003F0007A67727A616E6F207374C3B3C58200200E
:10040000573A00526F7A67727A6577616E69652034
:1004100073746FC582752E2E2E0053657474696EC9
:10042000672054726176656C20416363656C657208
:100430006174696F6E3A200053657474696E672049
:100440005265747261637420416363656C657261A7
:1004500074696F6E3A200053657474696E6720503A
:1004600072696E7420416363656C65726174696F53
:100470006E3A200053657474696E67205072696E1D
:100480007420616E642054726176656C20416363F0
:10049000656C65726174696F6E3A2000205A0020A5
:1004A0005900580020204D61783A2000205A002041
:1004B0005900580020204D696E3A200057C5822E01
:1004C00020005779C5822E00536F667420656E64D4
:1004D00073746F70733A20004B6420002364656668
:1004E000696E65202044454641554C545F004B6978
:1004F000200023646566696E6520204445464155A9
:100500004C545F004B70200023646566696E652063
:100510002044454641554C545F0050494420756B7A
:100520006FF1637A6F6E6F00504944204175746FAC
:1005300074756E652066696E697368656421205004
:10054000757420746865206C617374204B702C2066
:100550004B6920616E64204B6420636F6E7374611D
:100560006E74732066726F6D2062656C6F772069A0
:100570006E746F20436F6E66696775726174696F20
:100580006E2E680A00504944204175746F74756E70
:1005900065206661696C6564212074696D656F759D
:1005A000740A005049442062B3B9643A206F7665FA
:1005B0007273686F74005049442062B3B964206B51
:1005C000616C69627261636A6900504944204175D7
:1005D000746F74756E65206661696C656421205462
:1005E000656D706572617475726520746F6F2068D7
:1005F0006967680A00204B643A2000204B693A2062
:1006000000204B703A20000A20436C6173736963C9
:1006100020504944200A002054753A2000204B7590
:100620003A2000206D61783A2000206D696E3A20F2
:100630000020643A200020626961733A200050492A
:100640004420726F7A706F637AEA746F00506F7A29
:100650002E207A65726F7761207573742E00457253
:10066000723A20546F6F206661722100546F6F20C0
:100670006661722066726F6D207265666572656E66
:10068000636520706F696E740A004D363030204803
:100690006F74656E6420746F6F20636F6C64207478
:1006A0006F206368616E67652066696C616D656E59
:1006B000740A004E6F2063617365206C696768740B
:1006C0000A004163746976652045787472756465C3
:1006D000723A2000556E6B6E6F776E20636F6D6D92
:1006E000616E643A2022004572726F7220777269DF
:1006F00074696E6720746F20454550524F4D210A32
:1007000000290A002062797465733B2063726320BC
:100710000053657474696E67732053746F726564F7
:10072000202800202863616C63756C6174656429FE
:10073000210A0020213D2000454550524F4D2043C5
:100740005243206D69736D61746368202D20287396
:10075000746F726564292000290A0020627974652B
:10076000733B2063726320002073746F7265642092
:1007700073657474696E67732072657472696576E7
:100780006564202800204D61726C696E3D563339D6
:10079000290A0028454550524F4D3D0045455052CD
:1007A0004F4D2076657273696F6E206D69736D6150
:1007B000746368200048617264636F6465642044F8
:1007C000656661756C742053657474696E67732017
:1007D0004C6F616465640A00881300008813000090
:1007E00064000000102700000000964300009643BC
:1007F00000004842000020430000A0420000A04248
:1008000000004844000020432044002049002020EC
:100810004D33303420500020440020490020204D2A
:100820003330312050005049442073657474696E30
:1008300067733A0A0020460020420020480020202A
:100840004D3134352053004D6174657269616C20FF
:1008500068656174757020706172616D6574657230
:10086000733A0A00205A00205900202047323920CC
:10087000533320580020204D3432302053004D6532
:10088000736820426564204C6576656C696E673AD2
:100890000A00205A0020590020204D3230362058BE
:1008A00000486F6D65206F66667365743A0A0020B4
:1008B0004500205A002059002058002042002054B2
:1008C0000020204D323035205300416476616E6344
:1008D00065643A20533C6D696E5F6665656472615C
:1008E00074653E20543C6D696E5F74726176656C10
:1008F0005F66656564726174653E20423C6D696E39
:100900005F7365676D656E745F74696D655F6D7348
:100910003E20583C6D61785F78795F6A65726B3E06
:10092000205A3C6D61785F7A5F6A65726B3E204544
:100930003C6D61785F655F6A65726B3E0A002054AA
:100940000020520020204D3230342050004163639B
:10095000656C65726174696F6E2028756E69747359
:100960002F7332293A20503C7072696E745F616354
:1009700063656C3E20523C726574726163745F61A2
:100980006363656C3E20543C74726176656C5F6194
:100990006363656C3E0A00204500205A0020590020
:1009A00020204D3230312058004D6178696D756DD1
:1009B00020416363656C65726174696F6E20287590
:1009C0006E6974732F7332293A0A00204500205A49
:1009D0000020590020204D3230332058004D6178DE
:1009E000696D756D20666565647261746573202834
:1009F000756E6974732F73293A0A00204500205AD6
:100A00000020590020204D39322058005374657061
:100A1000732070657220756E69743A0A0020204D4B
:100A20003230302044300A0020204D323030204413
:100A3000002044697361626C65640A0046696C61F8
:100A40006D656E742073657474696E67733A002007
:100A5000204D3134392043203B20556E697473207A
:100A6000696E2043656C736975730A0020204732F4
:100A700031202020203B20556E69747320696E2040
:100A80006D6D0A00204479737A613A00200077790D
:100A90006AC4996369652066696C616D656E747579
:100AA00000437A656B616D206E61005A4D49414E7D
:100AB000412046494C414D454E54550020447973E0
:100AC0007A613A00200050726F737AEA20637A6587
:100AD0006B61E600526F7A67727A6577616E69655D
:100AE000206479737A79005A4D49414E4120464934
:100AF0004C414D454E545500204479737A613A007B
:100B0000200061627920726F7A67727A61E62064F0
:100B100079737AEA005763699C6E696A2070727A09
:100B2000796369736B005A4D49414E412046494CE7
:100B3000414D454E545500204479737A613A006125
:100B40006279206B6F6E74796E756F7761C4872ED2
:100B50002E2E0069206E616369C59B6E696A2070E4
:100B6000727A796369736B0057C582C3B37A206662
:100B7000696C616D656E74005A4D49414E41204665
:100B8000494C414D454E545500204479737A613AA1
:100B900000200077C5826FC5BC656E6965206669F7
:100BA0006C616D656E747500437A656B616D206E66
:100BB00061005A4D49414E412046494C414D454EF8
:100BC000545500204479737A613A002000656B73B4
:100BD0007472757A6AC4992066696C616D656E7409
:100BE0007500437A656B616D206E61005A4D494115
:100BF0004E412046494C414D454E545500777A6E42
:100C00006F7769656E6965206472756B7500437AEC
:100C1000656B616D206E61005A4D49414E41204621
:100C2000494C414D454E54550000002100240027F9
:100C3000002A002D003000330001010000040107EC
:100C4000010A0100002200250028002B002E00319F
:100C500000340002010000050108010B0100002022
:100C6000002300260029002C002F00320000010084
:100C70000003010601090105050505070508080827
:100C800008020202020A0A0808040404040101011D
:100C90000101010101030303030303030304070725
:100CA000070C0C0C0C0C0C0C0C02020202060606C3
:100CB00006060606060B0B0B0B0B0B0B0B010210AB
:100CC0002020080810204010204080020102010866
:100CD0000402010102040810204080804020100816
:100CE000040201800402018040201008040201086F
:100CF00004020101020408102040800102040810CF
:100D000020408000000A0B02090C0D0E08070304A6
:100D100001000000000000000000000000000000D2
:100D200000000000000000000000000000000012B1
:100D30001110000000000000000000000000000092
:100D400000000000000000000055626974792E2048
:100D500000202D20496E76616C696420657874727C
:100D600075646572206E756D62657220210A0020BF
:100D700020506C616E6E657242756666657242796E
:100D80007465733A20002046726565204D656D6F6D
:100D900072793A2000436F6D70696C65643A204146
:100DA000756720333020323031380A00207C2041F2
:100DB0007574686F723A20285072696E746F33646C
:100DC0002E706C2C204A616B75622053696B6F72B8
:100DD00061290A00323031382D30372D3131203140
:100DE000323A303000204C61737420557064617465
:100DF00065643A2000312E322D766C63730A004D03
:100E000061726C696E0020536F6674776172652041
:100E100052657365740A00205761746368646F6774
:100E20002052657365740A002042726F776E206FDE
:100E300075742052657365740A0020457874657274
:100E40006E616C2052657365740A00506F7765722D
:100E500055700A0073746172740A006572726F7261
:100E60002077726974696E6720746F2066696C659B
:100E70000A004B72616E63C3B3772E202563202571
:100E80006320256320256300205A3A0020593A0048
:100E900020583A00656E6473746F707320686974CB
:100EA0003A2000446F6E6520736176696E67206634
:100EB000696C652E0A004D3239004E6F204C696E08
:100EC00065204E756D62657220776974682063686D
:100ED00065636B73756D2C204C617374204C696E67
:100EE000653A200055626974792E20005A61747247
:100EF0007A796D616E792E20005072696E74657218
:100F00002073746F707065642064756520746F2041
:100F10006572726F72732E2046697820746865203E
:100F20006572726F7220616E6420757365204D3931
:100F3000393920746F20726573746172742E2028A1
:100F400054656D7065726174757265206973207285
:100F5000657365742E20536574206974206166740E
:100F600065722072657374617274696E67290A0014
:100F70004E6F20436865636B73756D207769746885
:100F8000206C696E65206E756D6265722C204C61F7
:100F90007374204C696E653A2000636865636B73F7
:100FA000756D206D69736D617463682C204C61737D
:100FB00074204C696E653A20004C696E65204E7550
:100FC0006D626572206973206E6F74204C6173745A
:100FD000204C696E65204E756D6265722B312C2038
:100FE0004C617374204C696E653A20004D3131308C
:100FF000004D3331004D383420582059205A2045B7
:101000000053442072656164206572726F720A0039
:10101000446F6E65207072696E74696E67206669D0
:101020006C650A0020496E76616C6964206578748D
:10103000727564657220000000000000000000006E
:1010400000000000004D43000052430000CB43204D
:101050006E6F7420656E74657265642E0A000A4DA9
:101060006561737572656420706F696E74733A0A96
:10107000005A206F66667365743A20004E756D20C5
:10108000582C593A20322C320A004D353030002489
:10109000F4D43050C38E20C2A24017828B7011123C
:1010A0007A910D816CD90AA861E108C75866076179
:1010B0005143061E4B5D05C145A7041A41110409A1
:1010C0003D9803713931034036DB0265339102D418
:1010D000305402802E1D02632CEE01752AC501B02A
:1010E00028A001102781018F2564012B244B01E0EA
:1010F000223401AC211F018D200D01801FFC0084D2
:101100001EED00971DDF00B81CD200E61BC60020B4
:101110001BBC00641AB200B219A8000A19A0006A28
:10112000189900D117910040178B00B51684003133
:10113000167E00B31579003A157300C7146F005876
:10114000146A00EE1366008813630025135E00C75F
:10115000125B006C12570015125400C1115100703F
:10116000114F0021114B00D61049008D1047004649
:1011700010440002104200C00F4000800F3E0042A9
:101180000F3C00060F3B00CB0E3800930E37005C7F
:101190000E3500270E3400F30D3200C10D310090E2
:1011A0000D3000600D2E00320D2D00050D2C00D9E4
:1011B0000C2B00AE0C2900850C29005C0C27003597
:1011C0000C27000E0C2600E80B2400C40B2400A002
:1011D0000B23007D0B23005A0B2100390B21001833
:1011E0000B2000F80A1F00D90A1E00BB0A1E009D32
:1011F0000A1D00800A1D00630A1C00470A1B002C00
:101200000A1B00110A1A00F7091A00DD091900C4A7
:10121000091900AB091900920917007B091800632E
:101220000917004C09160036091600200916000A95
:10123000091500F5081500E0081400CC081400B8E2
:10124000081400A4081400900813007D0812006B15
:101250000813005808120046081200340811002331
:101260000811001208110001081100F0071000E039
:10127000071000D0071000C0071000B0070F00A132
:1012800007100091070E0083070F0074070F006519
:10129000070E0057070E0049070E003B070D002EF2
:1012A000070E0020070D0013070D0006070D00F9BB
:1012B000060C00ED060D00E0060C00D4060C00C87C
:1012C000060C00BC060C00B0060C00A4060B00992E
:1012D000060C008D060B0082060B0077060B006CD7
:1012E000060B0061060A0057060B004C060A004276
:1012F000060A0038060A002E060A0024060A001A0A
:10130000060A001006090007060A00FD050900F498
:10131000050900EB050900E2050900D9050900D01F
:10132000050900C7050900BE050900B5050800AD9F
:10133000050800A50509009C050800940508008C17
:10134000050800840508007C050800740508006C89
:10135000050700650508005D050700560508004EF5
:10136000050700470507004005080038050700315C
:101370000507002A050700230507001C05060016BF
:101380000507000F0507000805060002050700FB1A
:10139000040600F5040700EE040600E8040600E277
:1013A000040700DB040600D5040600CF040600C9CC
:1013B000040600C3040600BD040600B7040600B11D
:1013C000040500AC040600A6040600A00405009B6A
:1013D00004060095040500900406008A04050085B3
:1013E000040500800406007A0405007504050070F9
:1013F0000405006B04050066040500610405005C3B
:1014000004050057040500520405004D040500487A
:10141000040500430405003E0404003A04050035B9
:10142000040500300404002C0405002704040023F4
:101430000405001E0404001A04040016040500112B
:101440000404000D04040009040500040404000061
:10145000040400FC030400F8030400F4030400F097
:10146000030400EC030400E8030400E4030400E0C8
:10147000030400DC030400D8030400D4030400D0F8
:10148000030400CC030400C8030300C503030024C5
:10149000F404D9201BC40C5C0E9804C4095F0265D7
:1014A000077101F405F900FB04B30048048700C18B
:1014B0000369005803550003034500BE023A008447
:1014C00002310053022A002902250004022000E410
:1014D000011C00C8011900AF011700980114008415
:1014E000011300710110006101100051010E004351
:1014F000010D0036010B002B010B0020010B001524
:101500000109000C01090003010800FB000800F3B9
:10151000000800EB000700E4000600DE000600D82B
:10152000000600D2000600CC000500C7000500C27E
:10153000000500BD000400B9000400B5000400B1BE
:10154000000400AD000400A9000400A5000300A2EF
:101550000003009F0004009B000300980003009517
:1015600000020093000300900003008D0002008B36
:10157000000300880002008600020084000300814E
:101580000002007F0002007D0002007B0002007963
:101590000002007700010076000200740002007271
:1015A000000100710002006F0002006D0001006C7C
:1015B0000002006A00010069000200670001006685
:1015C000000100650001006400020062000100618A
:1015D000000100600001005F0002005D0001005C8E
:1015E0000001005B0001005A000100590001005891
:1015F0000001005700010056000100550001005491
:10160000000100530000005300010052000100518E
:10161000000100500001004F0001004E0000004E8C
:101620000001004D0001004C0001004B0000004B88
:101630000001004A00010049000100480000004884
:10164000000100470001004600000046000100457F
:101650000000004500010044000100430000004379
:101660000001004200000042000100410000004172
:10167000000100400001003F0000003F0001003E6B
:101680000000003E0001003D0000003D0001003C64
:101690000000003C0000003C0001003B0000003B5B
:1016A0000001003A0000003A000100390000003952
:1016B0000001003800000038000000380001003749
:1016C0000000003700010036000000360000003640
:1016D0000001003500000035000000350001003435
:1016E000000000340000003400010033000000332B
:1016F0000000003300010032000000320000003220
:101700000001003100000031000000310001003014
:1017100000000030000000300001002F0000002F0A
:101720000000002F0000002F0001002E0000002EFE
:101730000000002E0001002D0000002D0000002DF3
:101740000000002D0001002C0000002C0000002CE7
:101750000000002C0001002B0000002B0000002BDB
:101760000000002B0001002A0000002A0000002ACF
:101770000000002A000100290000002900000029C3
:1017800000000029000000290001002800000028B6
:1017900000000028000000280000002800010027A9
:1017A000000000270000002700000027000000279D
:1017B0000001002600000026000000260000002690
:1017C0000000002600010025000000250000002583
:1017D0000000002500000025000000250001002475
:1017E0000000002400000024000000240000002469
:1017F000000100230000002300000023000000235C
:10180000000000230000002300000023000100224C
:101810000000002200000022000000220000002240
:101820000000002200010021000000210000002132
:101830000000002100000021000000210000002124
:101840000001002000000020000000200000002017
:101850000000002000000020000000200000002008
:101860000001001F0000001F0000001F0000001FFB
:101870000000001F0000001F0000001F0001001EEC
:101880000000001E0000001E0000001E0000004DB1
:10189000383420582059205A2045005A7279772030
:1018A0005665005A727977205665005A727977200A
:1018B0005665005A72797720567A005A72797720E5
:1018C000567A005A727977205679005A72797720C1
:1018D0005679005A727977205679005A72797720B2
:1018E0005678005A727977205678005A72797720A4
:1018F00056780052756368006B726F6B69452F6D87
:101900006D006B726F6B69452F6D6D006B726F6B45
:10191000695A2F6D6D006B726F6B695A2F6D6D0078
:101920006B726F6B69592F6D6D006B726F6B6959BC
:101930002F6D6D006B726F6B69582F6D6D006B7240
:101940006F6B69582F6D6D0052756368005779C5CC
:10195000822E0057C5822E200042C582C485642095
:101960006B7261C58463C3B3776B69006B726F6B15
:10197000692F6D6D005A7279770050727A79C59B24
:10198000706965737A656E6965005072C499646B9D
:101990006FC59B636900557374617769656E696192
:1019A0000043616E6E6F7420656E7465722073758E
:1019B000626469723A2000022E2E004D656E752019
:1019C00067C582C3B3776E65000055C5BC7974796D
:1019D0002066696C616D2E3A2000256C642E2569A5
:1019E0006D00004E616A64C5822E206472756B3A88
:1019F000200000437A6173206472756B753A200091
:101A0000556B6FC584637A6F6E6F3A2000577964A7
:101A100072756B6F77616E6F3A20005374617479E1
:101A20007374796B693A20000253442063617264D5
:101A3000206F6B0A006F70656E526F6F7420666165
:101A4000696C65640A00766F6C756D652E696E69E8
:101A500074206661696C65640A00534420696E698C
:101A600074206661696C0A006175746F25692E6760
:101A7000004B61727461207573756E69C4997461ED
:101A8000004B617274612077C5826FC5BC6F6E6157
:101A90000000060900FE070192032120FFFF08FE57
:101AA00007FF000000060000010707060200808013
:101AB0008080800080030202060105A0A0050707C0
:101AC0000600005050F850F8505005070706000077
:101AD0002078A07028F020050707060000C0C81075
:101AE000204098180507070600006090A040A890C5
:101AF00068020303060104C04080030707060100D3
:101B0000204080808040200307070601008040209D
:101B10002020408005050506000120A870A82005AA
:101B200005050600012020F820200203030602FF1D
:101B3000C04080050101060003F80202020602000F
:101B4000C0C00505050600010810204080050707F4
:101B500006000070888888888870030707060100DF
:101B600040C040404040E00507070600007088087C
:101B7000708080F8050707060000F810201008089C
:101B8000F005070706000010305090F81010050708
:101B900007060000F880F0080888700507070600AF
:101BA00000708080F0888870050707060000F8083C
:101BB0001020202020050707060000708888708804
:101BC000887005070706000070888878080870028A
:101BD0000505060200C0C000C0C00206060602FFDE
:101BE000C0C000C0408004070706000010204080ED
:101BF000402010050303060002F800F8040707065A
:101C0000010080402010204080050707060000707A
:101C10008808102000200507070600007088086863
:101C2000A8A870050707060000708888F8888888CB
:101C3000050707060000F08888F08888F005070788
:101C40000600007088808080887005070706000005
:101C5000F08888888888F0050707060000F88080EB
:101C6000F08080F8050707060000F88080F080808B
:101C700080050707060000708880B888887005070F
:101C800007060000888888F8888888010707060208
:101C90000080808080808080050707060000381063
:101CA00010101090600507070600008890A0C0A0E3
:101CB0009088050707060000808080808080F805F6
:101CC000070706000088D8A88888888805070706BF
:101CD00000008888C8A89888880507070600007053
:101CE000888888888870050707060000F08888F0D3
:101CF00080808005070706000070888888A89068A3
:101D0000050707060000F08888F0A09088050707FF
:101D1000060000788080700808F0050707060000BC
:101D2000F82020202020200507070600008888884A
:101D3000888888700507070600008888888888508A
:101D4000200507070600008888888888A8500507AE
:101D5000070600008888502050888805070706007D
:101D60000088888850202020050707060000F80812
:101D700010204080F8030707060100E08080808083
:101D800080E00505050600018040201008030707D4
:101D9000060100E02020202020E0050303060004C7
:101DA000205088050101060000F802020206020523
:101DB000804005050506000070087888780507074B
:101DC0000600008080B0C88888F005050506000080
:101DD00070808088700507070600000808689888EA
:101DE00088780505050600007088F88070050707EB
:101DF0000600003048E0404040400506060600FF6F
:101E00007088887808700507070600008080B0C8D1
:101E10008888880107070602008000808080808013
:101E20000308080601FF200020202020A04004070E
:101E300007060000808090A0C0A09003070706015D
:101E400000C04040404040E0050505060000D0A825
:101E5000A8A8A8050505060000B0C888888805055B
:101E60000506000070888888700506060600FFF0E9
:101E70008888F080800506060600FF788888780844
:101E800008050505060000B0C88080800505050628
:101E9000000070807008F00407070600004040E072
:101EA0004040403005050506000088888898680590
:101EB00005050600008888885020050505060000F5
:101EC0008888A8A85005050506000088502050887D
:101ED0000506060600FF888888780870050505064F
:101EE0000000F8102040F8030707060100204040DA
:101EF00080404020010707060200808080808080AB
:101F00008003070706010080404020404080050212
:101F1000020600026890000000060000050909069C
:101F200000FE708888F8888888102005070706005A
:101F3000FE70087888781020050808060000102038
:101F40007088808088700507070600001020708068
:101F50008088700509090600FEF88080F08080F80E
:101F600008100507070600FE7088F880701020052D
:101F700007070600008090A0C08080F805070706CC
:101F8000000060283060A0207005080806000010DE
:101F9000A888C8A8988888050808060000081000C6
:101FA000B0C8888888050808060000102070888856
:101FB000888870050808060000102000708888884E
:101FC0007005080806000010788080700808F00589
:101FD000080806000010200070807008F00508084E
:101FE00006000020F80810204080F80508080600C8
:101FF00000102000F8102040F8050707060000F840
:102000000810F84080F8050808060000303000F895
:10201000102040F80000000600000000000600004C
:10202000000000060000000000060000000000069E
:102030000000000000060000000000060000000094
:10204000000600000000000600000000000600007E
:10205000000000060000000000060000000000066E
:10206000000000000006000000000006000001075C
:102070000706020080008080808080050707060038
:10208000002070A8A0A870200507070600003040B7
:1020900040E04050A8050505060000887050708893
:1020A000050707060000885020F820F820010707E0
:1020B00006020080808000808080050808060000FD
:1020C0003048205050209060030101060107A00510
:1020D0000707060000F888B8B8B888F805070706AB
:1020E0000001700878887800F805050506000128C9
:1020F00050A05028050303060001F8080802020258
:102100000602064080050707060000F888A88898A0
:10211000A8F8050101060006F8040404060003609F
:102120009090600507070600002020F8202000F8A6
:1021300004050506000360902040F0030505060035
:1021400003E020E020E002020206020640800508CB
:10215000080600FF8888888898E8808005070706B9
:10216000000078989878181818020202060202C037
:10217000C00202020602FF4080030505060003407C
:10218000C04040E00507070600017088888870009D
:10219000F8050505060001A0502850A00507070610
:1021A00000008890A858B8080805070706000088AE
:1021B00090B848982038050808060000C040C0487C
:1021C000D83808080507070600002000204080884E
:1021D000700508080600004020007088F88888050F
:1021E00008080600001020007088F8888805080894
:1021F0000600002050007088F8888805080806004E
:10220000006890007088F88888050808060000506B
:1022100000708888F888880508080600002050208B
:102220007088F888880507070600003860A0B8E0C5
:10223000A0B80508080600FF7088808088702060BC
:10224000050808060000402000F880F080F8050826
:1022500008060000081000F880F080F8050808065D
:102260000000205000F880F080F805070706000005
:102270005000F880F080F803080806010080400054
:10228000E0404040E0030808060100204000E04034
:102290004040E003080806010040A000E040404044
:1022A000E0030707060100A000E0404040E005070A
:1022B00007060000704848E848487005080806000E
:1022C0000068900088C8A8988805080806000040A3
:1022D0002070888888887005080806000010207023
:1022E00088888888700508080600002050007088DB
:1022F0008888700508080600006890007088888843
:1023000070050808060000500070888888887005ED
:10231000050506000188502050880508080600FFC2
:102320001070A8A8A8A87040050808060000402062
:10233000888888888870050808060000102088882A
:102340008888887005080806000020500088888862
:102350008870050808060000500088888888887002
:1023600005080806000010208850202020200509BC
:10237000090600FFC040704848704040E00408086B
:102380000601FF609090A09090E08005080806008C
:1023900000402000700878887805080806000010C2
:1023A0002000700878887805080806000020500092
:1023B00070087888780508080600006890007008A2
:1023C000788878050707060000500070087888783C
:1023D0000508080600002050207008788878050657
:1023E00006060000D02878A0A8500506060600FFC3
:1023F000708088702060050808060000402000708A
:1024000088F880700508080600001020007088F821
:1024100080700508080600002050007088F8807061
:1024200005070706000050007088F8807003080850
:1024300006010080400040C04040E003080806015B
:102440000020400040C04040E00308080601004072
:10245000A00040C04040E0030707060100A0004084
:10246000C04040E0050707060000A040A0107888A3
:1024700070050808060000689000B0C888888805C4
:102480000808060000402000708888887005080849
:102490000600001020007088888870050808060073
:1024A00000205000708888887005080806000068C1
:1024B000900070888888700507070600005000703B
:1024C000888888700505050600012000F8002005B1
:1024D00007070600FF1070A8A8A8704005080806A6
:1024E00000004020008888889868050808060000D9
:1024F0001020008888889868050808060000205089
:1025000000888888986805070706000050008888BA
:102510008898680509090600FF102000888888F857
:1025200008700407070601FFC04060506040E005E6
:1025300008080600FF500088888878087050726983
:102540006E742070617573656400004472756B2051
:1025500070727A657277616E79004272616B206B7E
:1025600061727479003E4B61727461205344005370
:10257000746F7000577A6E6F7769656E6965004F8A
:10258000206472756B61726365005061757A6100D9
:10259000557374617769656E69610050727A796705
:1025A0006F74756A005374726F6A656E6965004571
:1025B0006B72616E2067C582C3B3776E790042612A
:1025C00062797374657070696E67205A004D363099
:1025D00030204230005A6D6965C5842066696C619F
:1025E0006D656E74004261627973746570205A0083
:1025F00050727A6570C58279770050727A6570C5BD
:102600008279770050727A6570C5827977004F625F
:10261000726F7479207769617472616B61004F62C7
:10262000726F7479207769617472616B61004F62B7
:10263000726F7479207769617472616B6100537491
:10264000C3B3C582005374C3B3C582004479737A9F
:1026500061004479737A61005374C3B3C582205A10
:10266000005374C3B3C582205A00507265646B6F07
:10267000C59BC48700507265646B6FC59BC487009F
:10268000507265646B6FC59BC487004D656E752085
:1026900067C582C3B3776E650008526F7A67727A36
:1026A000656A204142530008526F7A67727A656A00
:1026B000205045542D470008526F7A67727A656A38
:1026C00020504C410050727A79676F74756A00002F
:1026D00000000000000000000000000000000000FA
:1026E00000000000000000000000000000000000EA
:1026F00000000000000000000000000000000000DA
:1027000000000000000000000000000000000000C9
:1027100000000000000000000000000000000000B9
:1027200000000000000000000000000000000000A9
:102730000000000000000000000000000000000099
:102740000000000000000000000000000000000089
:102750000000000000000000000000000000000079
:102760000000000000000000000000000000000069
:102770000000000000000000000000000000000059
:102780000000000000000000000000000000000049
:102790000000000000000000000000000000000039
:1027A0000000000000000000000000000000000029
:1027B0000000000000000000000000000000000019
:1027C0000000000000000000000000000000000009
:1027D00000000000000000000000000000000000F9
:1027E00000000000000000000000000000000000E9
:1027F00000000000000000000000000000000000D9
:1028000000000000000000000000000000F7800051
:10281000FFFFFFFFFFFFFFFFFFFFFFFFFC14400173
:10282000800000000000000000000000067440016D
:102830001FFFF03FF80000000000000002144001FC
:102840003FFFF83FFC0000000000000002144001C0
:102850003FFFF83FFE7FC1CC03FFF87F02F7800106
:102860003FFFF8001E7FF1CF03FFF8FF8200000159
:102870003FFFF8000F7FF9CF83FFF9FFC20000018F
:102880003FFFF8000F7079CFC38383E3E2000001BC
:102890003FFFF8000F7039CFE38387C1F2000001DA
:1028A0003FFFF8000F7039CFF3838780F2000001FB
:1028B0003DFFF8001E7FF9CFFB8387007200000107
:1028C00038FFF83FFE7FF1CEFF83870072000001E2
:1028D0003DFFF83FFC7FE1CE7F838700720000015F
:1028E0003FFFF83FF073E1CE3F838780F2000001A5
:1028F0001FFFF0380071F1CE1F8387C1F200000185
:10290000003FC0380070F9CE0F8383E3E20000017E
:10291000001FA03800707DCE078381FFC200000138
:10292000000F003800703DCE038380FF820000015D
:102930000006003800701DCE0183807F0200000178
:102940000000000000000000000000000200000184
:1029500080060000000000000000000006000000EB
:10296000FFE3FFFFFFFFFFFFFFFFFFFFFC00000093
:102970000000000000000000000000000000000057
:102980000000000000000000000000000000000047
:102990000000000000000000000000000000000037
:1029A0000000000000000000000000000000000027
:1029B0000000000000000000000000000000000017
:1029C0000000000000000000000000000000000007
:1029D00000000000000000000000000000000000F7
:1029E00000000000000000000000000000000000E7
:1029F00000000000000000000000000000000000D7
:102A000000000000000000000000000000000000C6
:102A100000000000000000000000000000000000B6
:102A200000000000000000000000000000000000A6
:102A30000000000000000000000000000000000096
:102A40000000000000000000000000000000000086
:102A50000000000000000000000000000000000076
:102A60000000000000000000000000000000000066
:102A70000000000000000000000000000000000056
:102A80000000000000000000000000000000000046
:102A90000000000000000000000000000000000036
:102AA0000000000000000000000000000000000026
:102AB0000000000000000000000000000000000016
:102AC00000000000000000000000000000000025E1
:102AD000753A2530327500253032753A2530327519
:102AE0000025756420253032753A25303275001C7A
:102AF000006300490088808C808080410063001C56
:102B00000009200000224422440000FF092000FFA9
:102B10008181422418181FF173371FF8ECCE8F0EF5
:102B20008CC8E00713317000060900FE00000000A9
:102B30000001090008FE000005080806000040F03A
:102B4000C88888987810050808060000C0F88888AA
:102B5000888888F80505050600012030F830200532
:102B600008080600002070F820202020E005090950
:102B70000600FF2070A8A8B88888702005090906FB
:102B800000FFE080C0B0A828302828050909060009
:102B9000FFF8A88888888888A8F8050A0A0600FE31
:102BA000205050505088A8A88870030303060003E3
:102BB00040A040E7BDC35A5AC3BDE7000000000073
:102BC000000000205A3A0020423A0020436F756E00
:102BD0007420413A0020453A00205A3A0020593AE0
:102BE00000583A004361703A454D455247454E43BF
:102BF000595F5041525345523A300A004361703A8E
:102C0000434153455F4C494748545F425249474806
:102C1000544E4553533A300A004361703A544F477B
:102C2000474C455F4C49474854533A300A0043618A
:102C3000703A534F4654574152455F504F57455293
:102C40003A300A004361703A4C4556454C494E476C
:102C50005F444154413A310A004361703A5A5F502F
:102C6000524F42453A300A004361703A4155544F41
:102C70004C4556454C3A300A004361703A5052492F
:102C80004E545F4A4F423A310A004361703A505203
:102C90004F47524553533A300A004361703A415509
:102CA000544F5245504F52545F54454D503A310A9B
:102CB000004361703A454550524F4D3A310A004643
:102CC00049524D574152455F4E414D453A4D617213
:102CD0006C696E20312E322D766C63732028476923
:102CE000746875622920534F555243455F434F44E2
:102CF000455F55524C3A68747470733A2F2F676968
:102D0000746875622E636F6D2F4D61726C696E46CB
:102D100069726D776172652F4D61726C696E2050BA
:102D2000524F544F434F4C5F56455253494F4E3AC2
:102D3000312E30204D414348494E455F545950454E
:102D40003A5072696E746F20483320546F77657201
:102D50002045585452554445525F434F554E543ABE
:102D60003120555549443A63656465326132662DB8
:102D7000343161322D343734382D396231322D639C
:102D800035356336326633363766660A002F2F20B4
:102D90000020643A0020693A0020703A0020643A2A
:102DA0000020693A0020703A0043290A0061626CF1
:102DB000656420286D696E2074656D702000436F16
:102DC0006C64206578747275646573206172652027
:102DD00000426564204C6576656C696E672000462C
:102DE00061696C656420746F20656E61626C65203A
:102DF000426564204C6576656C696E670A004D65B6
:102E0000736820426564204C6576656C206461744B
:102E1000613A0A004D65736820706F696E742063B3
:102E2000616E6E6F74206265207265736F6C76657B
:102E3000640A004D34323120696E636F72726563CB
:102E40007420706172616D6574657220757361675D
:102E5000650A00FFE0FFD1AFFF32FFD0FFFEFFE0C9
:102E6000FFD1AEFFD0FFFEFFE0FFD11000FFFEFF5D
:102E7000D0FFE0FFC1FFD1AED580A83FD300408D89
:102E8000142000A1C8DA1281CFD9F1DB402EA4A60C
:102E9000AFFFD0FFFE66696C616D656E743A20000D
:102EA0007A5F6D61783A2000795F6D696E3A200033
:102EB000785F6D61783A20005265706F7274696E48
:102EC0006720656E6473746F7020737461747573BA
:102ED0000A002569730025696D202569730025693D
:102EE000682025696D20256973002569642025699E
:102EF000682025696D202569730025697920256979
:102F000064202569682025696D202569730057793B
:102F1000706F7A696F6D6F77616E6F210050727A92
:102F2000657375C5842077205A004E617374C49907
:102F3000706E792070756E6B74002569202F2025C6
:102F400075005A61637A656B616A2E2E2E004B6C98
:102F5000696B6E696A20627920726F7A702E0050F8
:102F60006F7A79636A61207A65726F7761004D3498
:102F7000323020533000473238005A617069737A1A
:102F800020772070616D69C49963690057637A790D
:102F900074616A207A2070616D69C4996369005018
:102FA0006F7A696F6D2E2073746FC58275005779C3
:102FB000C5822E0057C5822E2000506F7A696F6D32
:102FC0002E2073746FC5827500506F7A79636A61C1
:102FD000207A65726F7761004732380050727A79D3
:102FE000676F74756A00473238004D383400527587
:102FF0006368206F736900506F7A696F6D2E20735C
:10300000746FC58275005A6D6965C5842066696CE8
:10301000616D656E74004368C5826F647A656E6920
:103020006500526F7A67727A656A00506F7A7963C9
:103030006A61207A65726F7761005779C582C485AD
:10304000637A2073696C6E696B69004D656E7520DB
:1030500067C582C3B3776E650020746F6F206C6F95
:103060006E6720657874727573696F6E2070726513
:1030700076656E7465640A0020636F6C6420657801
:1030800074727573696F6E2070726576656E7465A3
:10309000640A007C3C3E5E2B3D3F2F5B5D3B2C2A4F
:1030A000225C00434F4D4D554E49434154494F4ECC
:1030B0000044525952554E004552524F5253004906
:1030C0004E464F004543484F006D0046696C616DA8
:1030D000656E7420757365643A200053746174736F
:1030E0003A20002C204C6F6E67657374206A6F6203
:1030F0003A2000546F74616C2074696D653A200049
:1031000053746174733A20002C204661696C6564C5
:103110003A20002C2046696E69736865643A200085
:103120005072696E74733A200053746174733A205C
:1031300000202F002042403A0020403A006F6B00F0
:10314000526F7A67727A616E6F0020573A00452598
:1031500069202573005072696E746F2048332054C3
:103160006F77657220676F746F77612E00C430BF10
:1031700030B830B130A3306F6666004445425547E1
:103180003A004D3131332053004D31343520533C1A
:10319000696E6465783E206F7574206F6620726179
:1031A0006E67652028302D31290A005072696E74CF
:1031B0006F20483320546F776572205779C5822E6F
:1031C0002E005A616177616E736F77616E65004F93
:1031D00062726F7479207769617472616B61004FFC
:1031E00062726F7479207769617472616B61004FEC
:1031F00062726F7479207769617472616B610053D8
:1032000074C3B3C582005374C3B3C58200447973D9
:103210007A61004479737A610055737461776965E6
:103220006E696100504944204175746F74756E6514
:1032300000504944204175746F74756E65005049A3
:10324000442D44005049442D44005049442D490028
:103250005049442D49005049442D50005049442DB7
:10326000500008204D6E6FC5BC6E696B0008204D84
:103270006E6FC5BC6E696B0008204D617800082038
:103280004D61780008204D61780008204D696E007E
:1032900008204D696E0008204D696E005779C5827F
:1032A0002E0057C5822E20004175746F2E20746544
:1032B0006D70657261747572610055737461772EFB
:1032C00020726F7A672E205045542D470055737435
:1032D00061772E20726F7A672E204142530055731A
:1032E0007461772E20726F7A672E20504C41005403
:1032F000656D7065726174757261005A6170697391
:103300007A20772070616D69C4996369005374C332
:10331000B3C582005374C3B3C582005374C3B3C52D
:1033200082004479737A61004479737A6100447948
:10333000737A61004F62726F747920776961747279
:10334000616B61004F62726F74792077696174728A
:10335000616B61004F62726F74792077696174727A
:10336000616B610054656D706572617475726100A6
:1033700043616E6E6F74206F70656E20737562644A
:1033800069722000656E7175657565696E672022CA
:10339000006563686F3A005A6173696C61637A3AD9
:1033A0002047656E65726963203234560050726F33
:1033B000746F6BC3B3C5823A20312E3000507265F2
:1033C000646B6FC59BC487205553423A2032353019
:1033D000303030005072696E746F204833204D4B8E
:1033E00053204F4C454400737570706F7274407079
:1033F00072696E746F33642E706C005773706172F3
:103400006369653A200046696C616D656E7420538E
:10341000656E736F72004D657368204C6576656CE0
:10342000696E6700456B73747275646572793A20D2
:1034300031007777772E7072696E746F33642E70F7
:103440006C005072696E746F20483320546F77653A
:103450007200323031382D30372D31312031323A4F
:103460003030004D61726C696E20762E20312E3224
:103470002D766C6373002B3438203739322038387E
:10348000302036383200737570706F72744070720D
:10349000696E746F33642E706C007A206E616D6992
:1034A0003A2000736B6F6E74616B74756A20736978
:1034B000EA00572072617A69652070726F626C65EC
:1034C0006DF37700577370617263696500537461BF
:1034D00074797374796B6900537465726F776E6970
:1034E0006B00496E666F726D61636A65004D656E53
:1034F000752067C582C3B3776E6500204479737AFF
:10350000613A00200057737465637A004D696E2E2E
:103510002054656D702E20746F3A203137302E00A4
:10352000526F7A67727A2E206E69657564616E6576
:1035300000456B7374727564756A207769C499630A
:10354000656A00577A6EC3B377206472756B6F77C4
:10355000616E6965005759424945525A204F5043A0
:103560004A453A00204479737A613A0020007A6D26
:1035700069616EC4992066696C616D656E747500D1
:10358000437A656B616D206E6120005A4D49414E52
:10359000412046494C414D454E545500526F7A6783
:1035A000727A2E206E69657564616E65004865618A
:1035B00074696E67206661696C65640070012C0136
:1035C00090012701B0012201C0011D01F001180185
:1035D0001002130130020E01600209019002040181
:1035E000C002FF000003FA004003F5008003F00072
:1035F000D003EB002004E6007004E100E004DC00EE
:103600004005D700C005D2004006CD00D006C80056
:103610008007C3003008BE00F008B900C009B4003C
:10362000B00AAF00B00BAA00D00CA500000EA0009D
:10363000500F9B00C01096005012910000148C0097
:10364000C0158700B0178200B0197D00D01B78002C
:10365000001E730040206E0090226900F024640078
:1036600040275F0090295A00E02B5500102E500093
:1036700020304B0010324600E033410090353C00D2
:103680001037370070383200A0392D00B03A2800CA
:10369000A03B2300603C1E00103D1900903D14002B
:1036A000103E0F00703E0A00C03E0500003F0000C3
:1036B000403FFBFF803FF6FFC03FF1FF45727220A5
:1036C0006D696E2074656D702073746FC5827500AE
:1036D000457272206D696E2074656D70004D494EA3
:1036E00054454D5020747269676765726564004582
:1036F0007272206D61782074656D702073746FC56F
:10370000827500457272206D61782074656D70005D
:103710004D415854454D5020747269676765726514
:10372000640050727A657375C58420772058005004
:10373000727A657375C584207720590050727A6556
:103740007375C5842077205A00456B737472757A3F
:103750006A6120286F732045290050727A6573755D
:10376000C58420636F202E316D6D0050727A6573B1
:1037700075C58420636F20316D6D0050727A65735A
:1037800075C58420636F2031306D6D00527563689C
:10379000206F736900456B737472757A6A612028B3
:1037A0006F732045290050727A657375C584207740
:1037B000205A0050727A657375C5842077205900AD
:1037C00050727A657375C5842077205800456B73F5
:1037D0007472757A6A6120286F73204529005072CF
:1037E0007A657375C5842077205A0050727A6573A4
:1037F00075C584207720590050727A657375C58429
:10380000207720580050727A79676F74756A005576
:10381000737461772E206661627279637A6E6500D7
:1038200057637A7974616A207A2070616D69C499EE
:103830006369005A617069737A20772070616D69DD
:10384000C499636900527563680054656D70657250
:103850006174757261004D656E752067C582C3B372
:10386000776E65004D353030004D333033205531A3
:103870002045256920532569004D3234004D3233EF
:103880002025730057726974696E6720746F206613
:10389000696C653A20006F70656E206661696C65C1
:1038A000642C2046696C653A20006F70656E206656
:1038B00061696C65642C2046696C653A2000466934
:1038C0006C652073656C65637465640A00205369D8
:1038D0007A653A200046696C65206F70656E656494
:1038E0003A20006F70656E206661696C65642C20FB
:1038F00046696C653A20002066696C653A20004E86
:103900006F7720002220706F730022207061726533
:103910006E743A2200535542524F5554494E452039
:1039200043414C4C207461726765743A22005562C1
:103930006974792E2000747279696E6720746F2023
:1039400063616C6C207375622D67636F64652066BC
:10395000696C6573207769746820746F6F206D617E
:103960006E79206C6576656C732E204D4158206C05
:103970006576656C2069733A004572726F723A0021
:103980005A616E696B2074656D702E0054686572A3
:103990006D616C2052756E617761790050726F7342
:1039A0007AC499207A72657365746F7761C48700F1
:1039B0004472756B61726B61207A6174727A796D91
:1039C0002E005072696E7465722068616C74656453
:1039D0002E206B696C6C28292063616C6C656421F6
:1039E0000A0000004D43000000000000CB4300002F
:1039F000A0420000A0420000F0410000000057611A
:103A0000726E696E673A20486F6D696E6720427505
:103A10006D702044697669736F72203C20310A0012
:103A20000202040000A0400000A0400000A04000EE
:103A3000004D43000052430000CB4301FF01567389
:103A40006B6F6B206D696E0056736B6F6B206D69C9
:103A50006E0056736B6F6B206D696E00566D696EEC
:103A600000566D696E00566D696E00566D61782066
:103A70004500566D6178204500566D6178204500FF
:103A8000566D6178205A00566D6178205A00566D47
:103A90006178205A00566D6178205900566D617822
:103AA000205900566D6178205900566D6178205874
:103AB00000566D6178205800566D6178205800528C
:103AC00075636800416D61784500416D617845001E
:103AD000416D61785A00416D61785A00416D61789D
:103AE0005900416D61785900416D61785800416D10
:103AF00061785800412D70727A657375C5842E0007
:103B0000412D70727A657375C5842E00412D7779C9
:103B1000636F66616E696500412D7779636F6661D9
:103B20006E69650050727A79C59B706965737A65B4
:103B30006E69650050727A79C59B706965737A65A4
:103B40006E696500527563680020746F6F206C6F3A
:103B50006E6720657874727573696F6E2070726518
:103B600076656E7465640A0020636F6C6420657806
:103B700074727573696F6E2070726576656E7465A8
:103B8000640A00627573793A207061757365642008
:103B9000666F7220696E7075740A00627573793A87
:103BA0002070617573656420666F7220757365722D
:103BB0000A00627573793A2070726F636573736976
:103BC0006E670A004D3630300055626974792E20D8
:103BD000004B494C4C206361757365642062792009
:103BE0004B494C4C20627574746F6E2F70696E0A6D
:103BF0000055626974792E20004B494C4C2063615A
:103C00007573656420627920746F6F206D756368C9
:103C100020696E6163746976652074696D65202D15
:103C20002063757272656E7420636F6D6D616E6472
:103C30003A20006265640A002C2073797374656D04
:103C40002073746F707065642120486561746572BB
:103C50005F49443A2000526573656E643A20006FF4
:103C60006B00C800C60011241FBECFEFD1E2DEBF3B
:103C7000CDBF00E00CBF14E0A0E0B2E0EAE8FDE157
:103C800002E00BBF02C007900D92A430B107D9F734
:103C90002AE1A4E0B4E001C01D92A33CB207E1F721
:103CA0001EE1C2E3DEE100E006C021970109802F9A
:103CB000FE010F942E0EC133D10780E00807A9F74B
:103CC0000E94EAF80D94B40E0C9400002F923F92DB
:103CD0004F925F926F927F928F929F92AF92BF921C
:103CE000CF92DF92EF92FF920F931F93CF93DF93C8
:103CF000CDB7DEB7CB58D1090FB6F894DEBF0FBEF3
:103D0000CDBF00911E0C20E6029F800111240256B7
:103D10001B4F80916B1280FF1AC0E1E9F3E384919D
:103D20007F013FEFE31AF30A811102C0780104C05A
:103D30000E943DE2F701F3CFD7018D917D018823E9
:103D400019F00E943DE2F8CF8AE00E943DE281E056
:103D500090E090931F1A80931E1A109223041092E1
:103D600022048FE380934B0410924A04109249047A
:103D700010921E0410921F0410922004109221042D
:103D8000F80180810F5F1F4F8032D1F38E34B1F480
:103D9000818190ED980F9A3020F08D3211F08B32A6
:103DA00069F43296DF0131962C9120532A30D0F3FA
:103DB000CD01FC01019620812032D9F3F093281A1D
:103DC000E093271A7F01BFEFEB1AFB0A10816AE22A
:103DD00070E0C7010F947C0E009731F0FC01319721
:103DE00080818032E1F311821D3429F0143519F0FD
:103DF000173409F0CBC0F70180812FEFE21AF20AE5
:103E00008032C9F380538A3008F0C0C010934B044D
:103E10002091490430914A044AE03196429FC00102
:103E2000439F900D1124DF0111972C91022E000C5D
:103E3000330B20533109280F391F808180538A307A
:103E400060F330934A0420934904DF0131968C914A
:103E50008032D9F31D34D1F42E31310591F03CF488
:103E60002731310571F02C31310581F40AC0253735
:103E7000310564F02737310524F0203A43E0340758
:103E800029F4B0932304A093220480C01092230449
:103E9000109222040091271A41E050E0FD01319672
:103EA0008C91882309F472C08132A1F41D3491F4FD
:103EB0002032310579F4F0932304E093220463E285
:103EC00070E0CF010F947C0E009709F45FC0DC0115
:103ED0001C925CC09FEBD92ED80E69E1C62ECD1482
:103EE000C0F1BF01FB0190816F5F7F4F9032D1F332
:103EF00060ED690F6A3040F063ED690F623020F0C9
:103F00009B3211F00C94003ABF01AD2CB12C75011D
:103F1000A3E0F594E794AA95E1F7C701825E9B4F71
:103F20007C018D2D8770DA0102C0AA0FBB1F8A9514
:103F3000E2F7CD01D7019C91892B8C936115710516
:103F400011F0601B01C060E0D501AC5FBB4F6C930A
:103F50000AC08091220490912304892B21F4B0930C
:103F60002304A0932204808181548A3110F4DF015C
:103F700095CFDF0131969C9190539A30D0F3CD01CB
:103F8000FC01019660816032D9F3F1CF80914B043E
:103F90008D3411F40C946529843511F40C949B39FB
:103FA000873411F00C94DF398091490490914A04D0
:103FB0008C31910509F41FC67CF4843091053CF4E2
:103FC000823091058CF597FF23C00C94F939049742
:103FD00009F4CAC50C94F9398A35910511F40C9489
:103FE000392854F48D31910509F40AC68A9711F4E1
:103FF0000C94C7280C94F9398B35910511F40C9465
:104000003D288C35910511F40C9442280C94F93913
:104010008091AB02882311F40C94F9390E94385A2C
:104020000E943EED0C94F9392091AB02222311F449
:104030000C94F93911E0029709F010E00E94385A07
:1040400082E50E94C49B882309F452C10E94629BAE
:104050006B017C014090101250901112609012126E
:104060007090131220911412309115124091161273
:10407000509117122BAF3CAF4DAF5EAF80915519E9
:1040800090915619A0915719B091581923968CAF59
:104090009DAFAEAFBFAF23972091591930915A19F8
:1040A00040915B1950915C192B962CAF3DAF4EAFF0
:1040B0005FAF2B9720E030E0A901C701B6010F9454
:1040C000DB06882309F436C5A301920123966CAD63
:1040D0007DAD8EAD9FAD23970F94DB0681110FC090
:1040E0002BAD3CAD4DAD5EAD2B966CAD7DAD8EADCB
:1040F0009FAD2B970F94DB06882309F41BC520E0A6
:1041000030E0A901C701B6010F94DB06881F88279C
:10411000881F18130BC080E090E0A0E8BFE367960B
:104120008CAF9DAFAEAFBFAF67970AC020E030E065
:1041300040E85FEB67962CAF3DAF4EAF5FAF679740
:10414000A301920123966CAD7DAD8EAD9FAD2397FB
:104150000F94220B2F966CAF7DAF8EAF9FAF2F9732
:104160002BAD3CAD4DAD5EAD2B966CAD7DAD8EAD4A
:104170009FAD2B970F94220B63966CAF7DAF8EAFE4
:104180009FAF63972F962CAD3DAD4EAD5FAD2F9792
:10419000CA01B9010F9440074B015C0163962CAD35
:1041A0003DAD4EAD5FAD6397CA01B9010F944007B5
:1041B0009B01AC01C501B4010F94230B0F948E0D2C
:1041C00027966CAF7DAF8EAF9FAF279720E030E092
:1041D00040E05FE30F9440074B015C01A7019601AB
:1041E000C701B6010F9440076B017C01A501940142
:1041F000C501B4010F9440079B01AC01C701B60192
:104200000F94220B0F948E0D9B01AC0167966CAD41
:104210007DAD8EAD9FAD67970F9440074B015C015C
:1042200023962CAD3DAD4EAD5FAD2397C301B201DA
:104230000F94230B20E030E040E05FE30F94400751
:104240006B017C0163966CAD7DAD8EAD9FAD6397C8
:10425000905827962CAD3DAD4EAD5FAD27970F948E
:10426000FF0B9B01AC01C501B4010F9440079B01FA
:10427000AC01C701B6010F94230BA30192010F9467
:10428000220B6B017C012B962CAD3DAD4EAD5FAD8D
:104290002B976BAD7CAD8DAD9EAD0F94230B20E0C5
:1042A00030E040E05FE30F9440072B013C0127968C
:1042B0002CAD3DAD4EAD5FAD27972F966CAD7DAD6E
:1042C0008EAD9FAD2F970F94FF0B9B01AC01C501E5
:1042D000B4010F9440079B01AC01C301B2010F94DC
:1042E000230B2BAD3CAD4DAD5EAD0F94220B14C036
:1042F00089E40E94C49B882329F00E94629B6B0181
:104300007C0103C0C12CD12C76018AE40E94C49B9D
:104310008823F9F00E94629B2B966CAF7DAF8EAF25
:104320009FAF2B9720E030E0A901C701B6010F94A1
:10433000DB0681111EC020E030E0A9012B966CAD98
:104340007DAD8EAD9FAD2B970F94DB06811111C013
:10435000F1C320E030E0A901C701B6010F94DB06EC
:10436000882309F4E7C32B961CAE1DAE1EAE1FAE0C
:104370002B97D701C601B0588BAF9CAFADAFBEAF86
:104380002B962CAD3DAD4EAD5FAD2B97505823967F
:104390002CAF3DAF4EAF5FAF23979C01AD01BC0189
:1043A000CD010F9440074B015C0123962CAD3DAD30
:1043B0004EAD5FAD2397CA01B9010F9440079B0131
:1043C000AC01C501B4010F94230B0F948E0DA79679
:1043D0006CAF7DAF8EAF9FAFA79780911012909179
:1043E0001112A0911212B091131227968CAF9DAFAB
:1043F000AEAFBFAF2797A7019601BC01CD010F94C7
:10440000230B67966CAF7DAF8EAF9FAF6797209100
:1044100014123091151240911612509117122F96C6
:104420002CAF3DAF4EAF5FAF2F972B962CAD3DAD70
:104430004EAD5FAD2B972F966CAD7DAD8EAD9FAD24
:104440002F970F94230B6B966CAF7DAF8EAF9FAF02
:104450006B978091551990915619A0915719B09169
:1044600058196F968CAF9DAFAEAFBFAF6F97679681
:104470002CAD3DAD4EAD5FAD6797BC01CD010F9446
:10448000220B6B017C012091591930915A194091EE
:104490005B1950915C19A3962CAF3DAF4EAF5FAF47
:1044A000A3976B962CAD3DAD4EAD5FAD6B97A396CC
:1044B0006CAD7DAD8EAD9FADA3970F94220B4B01DC
:1044C0005C018091181290911912A0911A12B0916A
:1044D0001B12AF968CAF9DAFAEAFBFAFAF979C0135
:1044E000AD0160915D1970915E1980915F19909195
:1044F00060190F94220B63966CAF7DAF8EAF9FAFA8
:10450000639720916119309162194091631950911C
:104510006419AB962CAF3DAF4EAF5FAFAB978091B8
:104520001C1290911D12A0911E12B0911F12E396C1
:104530008CAF9DAFAEAFBFAFE397A70196016BAD58
:104540007CAD8DAD9EAD0F9440072B013C01A501C4
:10455000940123966CAD7DAD8EAD9FAD23970F94E6
:1045600040079B01AC01C301B2010F94230B2B0147
:104570003C01A50194016BAD7CAD8DAD9EAD0F945A
:1045800040074B015C01A701960123966CAD7DAD00
:104590008EAD9FAD23970F9440079B01AC01C501E1
:1045A000B4010F94220BA30192010F94960B6B019F
:1045B0007C0120E030E0A9010F94DB0687FF0AC0F0
:1045C0002BED3FE049EC50E4C701B6010F94230BFB
:1045D0006B017C01112351F02BED3FE049EC50E4DD
:1045E000C701B6010F94220B6B017C0120E030E083
:1045F000A901C701B6010F94DB06811128C06F968F
:104600002CAD3DAD4EAD5FAD6F9727966CAD7DADDA
:104610008EAD9FAD27970F94DB06811118C0A3962E
:104620002CAD3DAD4EAD5FADA3972F966CAD7DAD7E
:104630008EAD9FAD2F970F94DB06811108C03BED27
:10464000C32E3FE0D32E39ECE32E30E4F32EA796B1
:104650002CAD3DAD4EAD5FADA797C701B6010F9430
:1046600040079B01AC010F9440074B015C0163962E
:104670002CAD3DAD4EAD5FAD6397CA01B9010F944E
:1046800040079B01AC01C501B4010F94230B0F94AB
:104690008E0D4B015C012FE632E143E85AE30F94A3
:1046A000DB0687FD43C2C501B4010F94980C0F943B
:1046B0006C0C2D967FAF6EAF2D97DB01AB2B31F4D9
:1046C000E1E0F0E02D96FFAFEEAF2D972D962EADE9
:1046D0003FAD2D97B90180E090E00F94DF064B01CC
:1046E0005C019B01AC01C701B6010F94FF0B27963B
:1046F0006CAF7DAF8EAF9FAF2797A50194016396F6
:104700006CAD7DAD8EAD9FAD63970F94FF0BA796FB
:104710006CAF7DAF8EAF9FAFA797E3962CAD3DAD4D
:104720004EAD5FADE397AB966CAD7DAD8EAD9FADFD
:10473000AB970F94220BA50194010F94FF0BAB963E
:104740006CAF7DAF8EAF9FAFAB9727962CAD3DADD5
:104750004EAD5FAD2797CA01B9010F94400720E025
:1047600030E040E05FE30F9440079B01AC0160E064
:1047700070E080E89FE30F94220B63966CAF7DAFEF
:104780008EAF9FAF6397AF968CAD9DADAEADBFAD15
:10479000AF9789879A87AB87BC87E3962CAD3DADF1
:1047A0004EAD5FADE3972D873E874F87588B609165
:1047B0005C0270915D02072E000C880B990B0F9420
:1047C000E10620919E0230919F024091A0025091FB
:1047D000A1020F9440072AE037ED43E25CE30F9417
:1047E00040076F966CAF7DAF8EAF9FAF6F970E9403
:1047F000E2939B01AC0128533F4F4F4F5F4FA3966D
:104800002CAF3DAF4EAF5FAFA3974BAC5CAC6DAC84
:104810007EAC22242394312C29E1D22E2D964EAD4C
:104820005FAD2D972416350609F442C10E945AD473
:104830000E94E293DC01CB01A3962CAD3DAD4EADC1
:104840005FADA397821B930BA40BB50BB7FD11C0F3
:104850000E94E2939B01AC0128533F4F4F4F5F4FA3
:10486000A3962CAF3DAF4EAF5FAFA39780E00E9401
:104870001EE9DA94DD2009F44BC063962CAD3DAD02
:104880004EAD5FAD639723966CAD7DAD8EAD9FADA4
:1048900023970F9440074B015C0127962CAD3DAD4B
:1048A0004EAD5FAD2797B201C3010F944007A5013C
:1048B00094010F94230B7B018C0163962CAD3DADCD
:1048C0004EAD5FAD6397B201C3010F9440074B013A
:1048D0005C0127962CAD3DAD4EAD5FAD279723967D
:1048E0006CAD7DAD8EAD9FAD23970F9440079B01BE
:1048F000AC01C501B4010F94220B2B013C01C7018F
:10490000D80123968CAF9DAFAEAFBFAF239757C0F2
:10491000B10180E090E00F94DF0627962CAD3DAD0D
:104920004EAD5FAD27970F9440074B015C010F948C
:10493000FC0B6B017C01C501B4010F94840D4B018C
:104940005C01A70196016BAD7CAD8DAD9EAD0F9462
:1049500040072B013C01A50194012B966CAD7DAD68
:104960008EAD9FAD2B970F9440079B01AC01C30107
:10497000B2010F94230B2B013C01A50194016BADF7
:104980007CAD8DAD9EAD0F9440074B015C01A7013E
:1049900096012B966CAD7DAD8EAD9FAD2B970F9490
:1049A00040079B01AC01C501B4010F94220B239673
:1049B0006CAF7DAF8EAF9FAF239789E1D82E920168
:1049C000A30167966CAD7DAD8EAD9FAD67970F94DB
:1049D000230B69837A838B839C8323962CAD3DAD17
:1049E0004EAD5FAD23976B966CAD7DAD8EAD9FAD3B
:1049F0006B970F94230B6D837E838F839887A79685
:104A00002CAD3DAD4EAD5FADA79769857A858B85A1
:104A10009C850F94230B69877A878B879C87AB963D
:104A20002CAD3DAD4EAD5FADAB976D857E858F8571
:104A300098890F94230B6D877E878F87988BCE0183
:104A400001960E94FCF6C090F51289819A81AB8193
:104A5000BC8188A399A3AAA3BBA38D819E81AF81AA
:104A6000B8858CA39DA3AEA3BFA389859A85AB858A
:104A7000BC8588A799A7AAA7BBA7CE0180960E944C
:104A8000909C6F96ECACFDAC0EAD1FAD6F979E0188
:104A9000235F3F4FAE01485D5F4FBE016C5D7F4FAE
:104AA000CE0180960E9449A53FEF231A330AB6CE65
:104AB000C090F5128091551990915619A0915719EF
:104AC000B091581988A399A3AAA3BBA3809159199F
:104AD00090915A19A0915B19B0915C198CA39DA378
:104AE000AEA3BFA380915D1990915E19A0915F194B
:104AF000B091601988A799A7AAA7BBA7CE018096F5
:104B00000E94909C6F96ECACFDAC0EAD1FAD6F9704
:104B100021E639E1AE01485D5F4FBE016C5D7F4F1C
:104B2000CE0180960E9449A50E94605C0E94989CDC
:104B30000C94F939E9E7F9E384918F010F5F1F4F76
:104B4000882321F00E943DE2F801F6CFEFECF1E07E
:104B500084918F010F5F1F4F882311F40C94F93952
:104B60000E943DE2F801F4CF80E50E94C49B8823B7
:104B700029F00E94229B6B017C0103C0C12CD12C27
:104B8000760183E50E94C49B882361F00E94629BAA
:104B900020E030E04AE754E40F9440070F946C0C97
:104BA0006B017C010E94EDF60E94989C8091291A6D
:104BB00090912A1AA0912B1AB0912C1AC80ED91EC6
:104BC000EA1EFB1E80911202811105C060E085EE95
:104BD00091E00E94517C0E94E293DC01CB018C1990
:104BE0009D09AE09BF09B7FD02C00C94F93980E0F8
:104BF0000E941EE9F0CF80E00E94B25B0C94F9396C
:104C000083E50E94C49B882319F00E94429B01C047
:104C100080E0863070F0EDE8F2E084918F010F5F64
:104C20001F4F882311F40C94F9390E943DE2F801DA
:104C3000F4CF823009F443C0A0F48823E9F0813036
:104C400009F013C20E942BE210920102109200029E
:104C50008AE592E090933E1980933D190E947D9AD7
:104C600004C2843009F4F2C108F490C1853009F01F
:104C7000FCC10E949A5BF9C18091051380FF13C0AB
:104C80000E941D9B811103C06CE373E002C066E3C8
:104C900073E085E692E00E94AE678AE00E943DE202
:104CA0000E948659E2C10DE612E0F8018491882342
:104CB00009F4DBC10F5F1F4F0E943DE2F6CF209148
:104CC00000023091010237FF0EC0E1E3F2E084916F
:104CD0008F010F5F1F4F882311F40C94F9390E9444
:104CE0003DE2F801F4CF2115310529F480916D02E0
:104CF0008093370431C08FEF820F982F917897FF00
:104D000003C091509E6F9F5FE92F87FD8F5F859550
:104D100080FF02C0E1E0E91BEE0FFF0BE80FF11D81
:104D200087FDFA95EE0FFF1FEE0FFF1FEB51FD4EB3
:104D30008091181290911912A0911A12B0911B1221
:104D400080839183A283B3838091370480936D0223
:104D5000243031050CF0CAC0822F817887FF03C050
:104D600081508E6F8F5FA82EA22F27FF02C0A1E077
:104D7000A20FBA2EB594B0FE03C0A1E0AA2EA81AC5
:104D8000C0909E02D0909F02E090A002F090A102FD
:104D900006EF19E3F80185919591A591B49180935F
:104DA0009E0290939F02A093A002B093A10220E0E4
:104DB00030E0A9016091FE127091FF128091001302
:104DC000909101130F94230B20E030E040EA50E46F
:104DD0000F94230B609318127093191280931A1278
:104DE00090931B120E94A1FD85E595E5A5E0B3E433
:104DF00080939E0290939F02A093A002B093A10281
:104E0000FA2D24E0F202D0011124AE55BA4E2091C1
:104E1000F6123091F7124091F8125091F9126D91FB
:104E20007D918D919C910F94230B60931012709340
:104E3000111280931212909313123B2D44E034020E
:104E4000D0011124A656BA4E2091FA123091FB12CD
:104E50004091FC125091FD126D917D918D919C912C
:104E60000F94230B609314127093151280931612F3
:104E7000909317120E94A1FDF80185919591A5913B
:104E8000B49180939E0290939F02A093A002B0934E
:104E9000A10220E030E0A9016091FE127091FF12A2
:104EA00080910013909101130F94230B60931812BB
:104EB0007093191280931A1290931B120E94A1FDF5
:104EC000C0929E02D0929F02E092A002F092A102B4
:104ED0000E94EDF610926D02809100029091010205
:104EE00001969093010280930002BFC020E030E061
:104EF000A9016091FE127091FF12809100139091B0
:104F000001130F94230B20E030E040EA50E40F94AB
:104F1000230B609318127093191280931A129093B6
:104F20001B120E94A1FD0E94EDF68FEF9FEF909360
:104F3000010280930002EDE1F2E084918F010F5FA6
:104F40001F4F882321F00E943DE2F801F6CF83E94C
:104F500092E09A83898304E610E019A308A3BE01B6
:104F60006F5F7F4FCE0180960E94D9DC8AEB92E082
:104F70009A83898319A308A3BE016F5F7F4FCE0177
:104F800080960E94D9DC0E944F5C6FC088E50E9429
:104F9000C49B8823A1F00E94329B1FEF160F123092
:104FA000A8F0E6E0F2E084918F010F5F1F4F8823A5
:104FB00011F40C94F9390E943DE2F801F4CF88E530
:104FC0000E943DE20E9491FD0C94F93989E50E940E
:104FD000C49B8823A1F00E94329B0FEF060F023082
:104FE000A8F0EFEEF1E084918F010F5F1F4F88234F
:104FF00011F40C94F9390E943DE2F801F4CF89E5EF
:105000000E943DE20E9491FD0C94F9398AE50E94CC
:10501000C49B8823A1F00E94629BE12FEE0FFF0B3F
:10502000E00FF11D07FDFA95EE0FFF1FEE0FFF1FBA
:10503000EB51FD4E608371838283938316C08AE5B2
:105040000E943DE20E9491FD0C94F9398AE50E948C
:10505000C49B8823A1F30E94629B6093711270939A
:10506000721280937312909374120E94CC900C94DD
:10507000F939109236040C94F93981E080933604A2
:105080000C94F93985E40E94C49BB82E811102C0AA
:105090000E94EDF6F8EB8F2EF2E09F2EA0E1CA2ED3
:1050A000A2E1DA2EB9E4EB2EB9E1FB2E00E010E02C
:1050B000A12CD4018D914D010E94C49B882309F439
:1050C0004EC0F6012081318142815381C857DF4FA4
:1050D0002883C858D040C757DF4F3883C958D040BD
:1050E000C657DF4F4883CA58D040C557DF4F588353
:1050F000CB58D0400E94629BD6016D937D938D93D7
:105100009C931397C857DF4F2881C858D040C75782
:10511000DF4F3881C958D040C657DF4F4881CA5841
:10512000D040C557DF4F5881CB58D04003301105D0
:10513000B1F00F94220B9B01AC01F70160817181EA
:10514000828193810F94230BD7016D937D938D936F
:105150009C931397C8010E94C55CAA24A3940F5F77
:105160001F4FB4E0CB0ED11CE4E0EE0EF11C043076
:10517000110509F09ECFAA2019F00E94D69A03C00B
:10518000B1100E9485750E94CC900C94F9398091E1
:10519000AB02882311F40C94F93989E40E94C49B72
:1051A000F82E882321F00E94329B062F01C000E0D8
:1051B0008AE40E94C49BE82E882331F00E94329B2F
:1051C000162FF11004C00AC010E0FF20B1F0023029
:1051D00010F40C94363DE4EAF2E003C01230D8F744
:1051E0000CC084918F010F5F1F4F882311F40C9422
:1051F000F9390E943DE2F801F4CF0E94A85BFF203C
:10520000E1F024E00202F0011124EE55FA4E209163
:10521000F6123091F7124091F8125091F912608114
:105220007181828193810F94230B60935519709340
:1052300056198093571990935819EE20E1F034E0F5
:105240001302F0011124E656FA4E2091FA12309121
:10525000FB124091FC125091FD126081718182819C
:1052600093810F94230B6093591970935A1980936B
:105270005B1990935C1980E50E94959B81110E94B7
:10528000539B86E40E94C49B8823D9F00E94629BB2
:105290006B017C0120E030E0A9010F94490D181644
:1052A00084F420E030E040E752E4C701B6010F94F7
:1052B000FF0B60939E0270939F028093A0029093D5
:1052C000A1020E943EED0C94F9398091490490911D
:1052D0004A048337910509F4D5C50CF0D1C08C344C
:1052E000910509F488C40CF071C08831910509F466
:1052F000ADC20CF041C08231910509F432C5F4F41D
:1053000097FF02C00C94F939823091050CF4C7C1A3
:10531000419711F00C94F93960E08BEF92E00E9414
:10532000517C5F988A989FB7F894809108018E7F8E
:10533000809308019FBF12980C94F939853191052B
:1053400009F47AC23CF4449711F00C94F939E5E180
:10535000F3E02FC28631910509F472C2479711F02C
:105360000C94F93940E061E080912204909123048B
:105370000E940DDD0C94F9398E31910509F4C3C2F8
:1053800094F48A31910509F474C20CF46AC28B3129
:10539000910509F47CC24C9711F00C94F9390E94E4
:1053A00008590C94F9398032910509F4B1C30CF411
:1053B000B7C38A32910509F4DFC38B34910511F02C
:1053C0000C94F9390E9428750C94F93989369105A5
:1053D00009F492C444F58335910509F4BDC49CF4E5
:1053E0008E34910509F411C40CF40BC48135910578
:1053F00009F4AEC48235910511F00C94F93910927C
:1054000035040C94F9398535910509F4AEC40CF4D2
:10541000A8C48C35910509F4ACC48836910509F40B
:10542000F8C30C94F9398E36910509F449C49CF4FB
:105430008B36910509F488C40CF482C48C3691052E
:1054400009F446C48D36910511F00C94F9390E9487
:10545000DABC0C94F9398037910509F43DC40CF499
:1054600033C48137910509F43FC48237910511F0A7
:105470000C94F9390E94EDF60E94CC900C94F93905
:10548000823E910509F42CC70CF07BC08E3B910540
:1054900009F43AC4B4F58837910509F4FFC4A4F4BB
:1054A0008637910509F4F2C40CF0F4C485379105F0
:1054B00011F00C94F93960E080912204909123045A
:1054C0000E94717C0C94F9398C38910509F410C450
:1054D0005CF48937910511F00C94F93910920802A7
:1054E000109224040C94F9398139910509F4DDC432
:1054F0008B39910511F00C94F9390E9420BC0C9461
:10550000F9398D3C910509F480C5C4F4893C9105B5
:1055100009F4CFC44CF4883C910511F00C94F9398E
:105520000E94BD8F0C94F9398B3C910509F4E3C4BA
:105530008C3C910509F4FDC40C94F939833D910527
:1055400009F40AC6A4F48E3C910511F00C94F939C3
:10555000F8EBAF2EF2E0BF2EA0E1CA2EA2E1DA2EC8
:10556000B0E6EB2EB4E0FB2E00E010E0BBC58C3DB6
:10557000910509F48AC68D3D910509F495C60C94F0
:10558000F939853A41E0940711F40C940035DCF5C3
:105590008033A1E09A0709F4D5C6BCF48D32E1E06E
:1055A0009E0709F4CBC634F48C32914009F49CC6B2
:1055B0000C94F9398E3231E0930709F4C7C68F3263
:1055C000914009F4C7C60C94F939803951E0950728
:1055D00011F40C94FD344CF48336914011F00C948A
:1055E000F939E9E7F9E30C9472398A39E1E09E0769
:1055F00009F476C3843A914011F00C94F9390E9471
:105600002E8D0C94F939873F21E0920711F40C9408
:10561000E7355CF5843F41E0940711F40C94E135E3
:10562000ACF48C3A914011F00C94F93940E6C42E58
:1056300044E0D42E50E1E52E52E1F52E62E0262E14
:1056400063E1362E00E010E00C940335853FB1E0B5
:105650009B0711F40C94E435863F914011F00C94B3
:10566000F9390E946A420C94F9398835F2E09F07B3
:1056700011F40C9400363CF48C31924011F40C94EB
:10568000F5350C94F939803A43E0940709F444C2A3
:10569000873E934011F40C9489390C94F939A09009
:1056A0002204B090230480E50E94C49B882359F013
:1056B0000E94229B6B017C0111E0672B682B692BF8
:1056C00031F410E004C010E0C12CD12C760183E548
:1056D0000E94C49B8823F1F00E94629B20E030E08E
:1056E0004AE754E40F9440070F946C0C6B017C0163
:1056F000111112C0672B682B692B71F4A114B1042E
:1057000059F0D5018C91882339F061E0C5010E94E0
:10571000717C07C0112391F360E08CEE92E00E944F
:10572000517C83E090E090931F1A80931E1A81E0D1
:10573000809342120E94EDF60E94989CC114D104FD
:10574000E104F104F1F08091291A90912A1AA091B4
:105750002B1AB0912C1AC80ED91EEA1EFB1E0E94ED
:10576000E293DC01CB018C199D09AE09BF09B7FF9B
:105770001CC0809142128823C1F080E00E941EE983
:10578000EECF80914212882321F080E00E941EE932
:10579000F8CF8091F31560E0882319F08BED92E04B
:1057A00002C083EC92E00E94517C109242120C9451
:1057B000F93984918F010F5F1F4F882321F00E94D8
:1057C0003DE2F801F6CF10927A181092791840E075
:1057D00050E0BA0184E296E10E94ADB38BE1E4E2CD
:1057E000F6E1DE01159601900D928A95E1F7809120
:1057F0002216909123169C838B8384E093E09A83F6
:10580000898340E050E0BE016F5F7F4F8BE393E000
:105810000E94B1C8CE0101960E942A4CE6E0F3E056
:1058200084918F010F5F1F4F882311F40C94F93975
:105830000E943DE2F801F4CF0E94AA730C94F9395A
:105840001092F3151092F4150C94F9398091F41517
:10585000882319F081E08093F3150E9428750C9439
:10586000F9391092F31588EC95E10E94CAF50C9471
:10587000F9398091F415882311F40C94F93983E5F2
:105880000E94C49B81110C94113A0C94F9398091B7
:10589000F415882351F1E6E2F3E084918F010F5F64
:1058A0001F4F882321F00E943DE2F801F6CF60915E
:1058B00070187091711880917218909173184AE065
:1058C0000E9444E28FE20E943DE260916C18709168
:1058D0006D1880916E1890916F184AE00E9444E212
:1058E0008AE00E943DE20C94F939E8E3F3E0849108
:1058F0008F010F5F1F4F882311F40C94F9390E9418
:105900003DE2F801F4CF8091F415882311F40C9452
:10591000F9398FEB97E10E94D6B58FEB97E10E94A2
:105920008BB71092F2151092F115C0902204D0900E
:1059300023048091F415882311F40C94F9390E9402
:1059400084DAFE0131967F01CF010E941A4C80E279
:1059500096E19093401680933F16D6018C918F323A
:1059600009F060C06FE270E0C6010F947C0E8C01FC
:105970000F5F1F4F09F45CC06FE270E0C8010F9425
:105980007C0E5C01009709F454C00817190708F051
:1059900050C04C01801A910AA401B801CE01809632
:1059A0000F94A50EE0E2F0E0EC0FFD1FE80DF91DED
:1059B00010828E01005E1F4FF80181918F018823B4
:1059C00019F00E943DE2F8CF8AE00E943DE260912A
:1059D0003F16709140166115710511F06C5F7F4F95
:1059E00021E0AE01405E5F4FCE0105960E947DB979
:1059F000811112C0BE01605E7F4F8FE693E00E946E
:105A0000AE678EE20E943DE28AE00E943DE2C7015D
:105A10000E942A4C0C94F939F0924016E0923F16FD
:105A20008501A6CF81E496E19093401680933F16BE
:105A3000860160913F16709140166115710511F055
:105A40006C5F7F4F18A21BA222E0A801CE018096B6
:105A50000E947DB9811102C0D12C14C0CE01809664
:105A60000E941FC88823C1F361E0CE0180960E9486
:105A7000BAB5009789F325EEDC012C931BA20E9496
:105A8000D667D82ECE0180960E94244CDD2011F1DD
:105A9000E9E4CE2EE3E0DE2EF6018491882331F096
:105AA000FFEFCF1ADF0A0E943DE2F6CFD8018D91B9
:105AB0008D01882319F00E943DE2F8CF8AE00E9410
:105AC0003DE2109270181092711810927218109294
:105AD000731819C077E5C72E73E0D72EF6018491AD
