:100000000C9419110C944A110C944A110C944A1135
:100010000C944A110C944A110C944A110C944A11F4
:100020000C944A110C944A110C944A110C944A11E4
:100030000C944A110C9433B50C944A110C944A1147
:100040000C944A110C94DF660C944A110C944A11DA
:100050000C944A110C944A110C94ED7C0C94A1510F
:100060000C944A110C94E3930C9411940C944A113F
:100070000C944A110C944A110C944A110C944A1194
:100080000C944A110C944A110C944A110C944A1184
:100090000C944A110C944A110C944A110C944A1174
:1000A0000C944A110C944A110C944A110C944A1164
:1000B0000C944A110C944A110C944A110C944A1154
:1000C0000C944A110C944A110C944A110C942D2D45
:1000D0000C94032D0C944A110C944A110C944A115F
:1000E0000C944A11194F1C4F0B4F0F4F154F534F84
:1000F000204F244F2A4F2E4F324F384F3C4F404F06
:10010000534F464F4A4F4E4FBD50C250C750D1502B
:10011000DB505451E550ED50F550FF50095113514B
:1001200022512C515451365140514A51328E738EC6
:10013000A68EF68E2A8FDD8F4A8F4E90728FA68FF5
:100140004E414E494E495459494E46CDCCCC3D0ABC
:10015000D7233C17B7D13877CC2B329595E6241F9F
:10016000B14F0A000020410000C84200401C462058
:10017000BCBE4CCA1B0E5AAEC59D74434F4D4D5567
:100180004E49434154494F4E0044525952554E0036
:100190004552524F525300494E464F004543484F37
:1001A000004272616B207275636875004D313235A3
:1001B0000050726F7465637465642050696E0A0044
:1001C0006D0046696C616D656E7420757365643A87
:1001D000200053746174733A20002C204C6F6E67BA
:1001E000657374206A6F623A2000546F74616C20EA
:1001F00074696D653A200053746174733A20002C61
:10020000204661696C65643A20002C2046696E695D
:10021000736865643A20005072696E74733A200006
:1002200053746174733A20005072696E746F204881
:100230003320676F746F77612E009C0197019001E6
:1002400089017B016F66660044454255473A005577
:10025000626974792E20006F6B00526F7A67727A30
:10026000616E6F0020573A005072696E746F2048BB
:100270003320676F746F77612E00526F7A67727ADE
:10028000616E6F2073746F6C0020573A00526F7A62
:1002900067727A6577616E69652073746F6C752E0D
:1002A0002E2E002F2F200066696C616D656E743AEA
:1002B00020007A5F6D61783A2000795F6D696E3A4F
:1002C0002000785F6D61783A20005265706F72741B
:1002D000696E6720656E6473746F702073746174E7
:1002E00075730A0053657474696E67205472617681
:1002F000656C20416363656C65726174696F6E3A09
:10030000200053657474696E67205265747261636E
:100310007420416363656C65726174696F6E3A2025
:100320000053657474696E67205072696E74204161
:100330006363656C65726174696F6E3A2000536522
:100340007474696E67205072696E7420616E6420E7
:1003500054726176656C20416363656C657261748B
:10036000696F6E3A2000205A002059005800202062
:100370004D61783A2000205A002059005800202072
:100380004D696E3A2000576C2E200057796C2E0074
:10039000536F667420656E6473746F70733A2000D7
:1003A0000001363726FF023C3D380EFF2E303EFF5F
:1003B00013FF0C0809FFFFFF1A1C18FFFF08440A6F
:1003C000FF43FFFFFFFFFFFF20643A0020693A0070
:1003D00020703A0020643A0020693A0020703A0008
:1003E00043290A0061626C656420286D696E20747F
:1003F000656D702000436F6C64206578747275645D
:1004000065732061726520004B642000236465667B
:10041000696E65202044454641554C545F004B6948
:10042000200023646566696E652020444546415579
:100430004C545F004B70200023646566696E652034
:100440002044454641554C545F0050494420756B4B
:100450006F6E637A6F6E6F00504944204175746F00
:1004600074756E652066696E6973686564212050D5
:10047000757420746865206C617374204B702C2037
:100480004B6920616E64204B6420636F6E737461EE
:100490006E74732066726F6D2062656C6F77206971
:1004A0006E746F20436F6E66696775726174696FF1
:1004B0006E2E680A00504944204175746F74756E41
:1004C00065206661696C6564212074696D656F756E
:1004D000740A0050494420626C61643A206F76656A
:1004E0007273686F740050494420626C6164206BC1
:1004F000616C69627261636A6900504944204175A8
:10050000746F74756E65206661696C656421205432
:10051000656D706572617475726520746F6F2068A7
:100520006967680A00204B643A2000204B693A2032
:1005300000204B703A20000A20436C61737369639A
:1005400020504944200A002054753A2000204B7561
:100550003A2000206D61783A2000206D696E3A20C3
:100560000020643A200020626961733A20005049FB
:100570004420726F7A706F637A65746F00426564AD
:10058000204C6576656C696E6720004661696C6514
:100590006420746F20656E61626C65204265642022
:1005A0004C6576656C696E670A004D65736820421C
:1005B0006564204C6576656C20646174613A0A005C
:1005C0004D65736820706F696E742063616E6E6F25
:1005D00074206265207265736F6C7665640A004DE5
:1005E00034323120696E636F72726563742070619A
:1005F00072616D657465722075736167650A00507C
:100600006F7A2E207A65726F7761207573742E0071
:100610004572723A20546F6F206661722100546FE8
:100620006F206661722066726F6D207265666572FA
:10063000656E636520706F696E740A00206669726A
:1006400073740A005A0059005800486F6D65200005
:100650004E6F2063617365206C696768740A00419E
:1006600063746976652045787472756465723A20A2
:1006700000556E6B6E6F776E20636F6D6D616E648B
:100680003A2022004572726F722077726974696E27
:100690006720746F20454550524F4D210A00290AAA
:1006A000002062797465733B206372632000536598
:1006B0007474696E67732053746F726564202800C8
:1006C000202863616C63756C6174656429210A007C
:1006D00020213D2000454550524F4D20435243209C
:1006E0006D69736D61746368202D202873746F7257
:1006F0006564292000290A002062797465733B2013
:1007000063726320002073746F7265642073657474
:1007100074696E67732072657472696576656420AA
:100720002800204D61726C696E3D563339290A00EC
:1007300028454550524F4D3D00454550524F4D20A4
:1007400076657273696F6E206D69736D617463682D
:10075000200048617264636F64656420446566616B
:10076000756C742053657474696E6773204C6F6187
:100770006465640A008813000088130000640000A8
:100780000028230000000096430000964300004824
:10079000420000A0420000A0420000A04200004829
:1007A000440000204320440020490020204D3330E5
:1007B0003420500020440020490020204D333031A7
:1007C0002050005049442073657474696E67733A11
:1007D0000A00205A00205900202047323920533384
:1007E00020580020204D3432302053004D6573686E
:1007F00020426564204C6576656C696E673A0A0034
:10080000205A0020590020204D3230362058004810
:100810006F6D65206F66667365743A0A0020450047
:10082000205A002059002058002042002054002067
:10083000204D323035205300416476616E6365642B
:100840003A20533C6D696E5F6665656472617465DC
:100850003E20543C6D696E5F74726176656C5F66B4
:10086000656564726174653E20423C6D696E5F73BC
:1008700065676D656E745F74696D655F6D733E204D
:10088000583C6D61785F78795F6A65726B3E205A7B
:100890003C6D61785F7A5F6A65726B3E20453C6DA6
:1008A00061785F655F6A65726B3E0A0020540020C4
:1008B000520020204D323034205000416363656C7B
:1008C00065726174696F6E2028756E6974732F7319
:1008D00032293A20503C7072696E745F61636365BF
:1008E0006C3E20523C726574726163745F61636335
:1008F000656C3E20543C74726176656C5F61636325
:10090000656C3E0A00204500205A00205900202036
:100910004D3230312058004D6178696D756D204140
:100920006363656C65726174696F6E2028756E69AA
:1009300074732F7332293A0A00204500205A002090
:10094000590020204D3230332058004D6178696DB8
:10095000756D206665656472617465732028756EB7
:100960006974732F73293A0A00204500205A002029
:10097000590020204D39322058005374657073207F
:1009800070657220756E69743A0A0020204D32300D
:10099000302044300A0020204D32303020440020E6
:1009A00044697361626C65640A0046696C616D65D7
:1009B0006E742073657474696E67733A0020204703
:1009C0003231202020203B20556E69747320696EDF
:1009D000206D6D0A002569730025696D20256973F6
:1009E000002569682025696D2025697300256964E3
:1009F000202569682025696D20256973002569799E
:100A000020256964202569682025696D2025697382
:100A10000055626974792E2000202D20496E766180
:100A20006C6964206578747275646572206E756D8A
:100A300062657220210A00207765737A6C6F2077D7
:100A400020393630302C2070726F6261207A6D69E7
:100A5000616E79206E6120313135200A00206E6987
:100A600065207765737A6C6F2077203936303020B7
:100A700070726F62612077656A73636961206E616D
:100A800020313135200A0020636F6E6E6563746516
:100A900064210A0020370020342E330020332E3505
:100AA0000020332E320020322E34004E65787469D7
:100AB0006F6E004E657874696F6E206E6F74206380
:100AC0006F6E6E656374656421002020506C616EEA
:100AD0006E657242756666657242797465733A2016
:100AE000002046726565204D656D6F72793A200071
:100AF000436F6D70696C65643A204D6172203237C6
:100B000020323031390A00207C20417574686F72C0
:100B10003A20285072696E746F33642E706C2C20EA
:100B20004A616B75622053696B6F7261290A0032EA
:100B30003031392D30332D323700204C6173742021
:100B4000557064617465643A2000312E332E310A89
:100B5000004D61726C696E0020536F66747761722C
:100B6000652052657365740A002057617463686478
:100B70006F672052657365740A002042726F776E4A
:100B8000206F75742052657365740A00204578746F
:100B900065726E616C2052657365740A00506F77E0
:100BA000657255700A0073746172740A006572721E
:100BB0006F722077726974696E6720746F2066693E
:100BC0006C650A00205A3A0020593A0020583A0031
:100BD000656E6473746F7073206869743A200044A2
:100BE0006F6E6520736176696E672066696C652E2D
:100BF0000A004D32390020636F6C6420657874728E
:100C00007573696F6E2070726576656E7465640ABF
:100C1000004B61727461207573756E696574610053
:100C20004B6172746120776C6F7A6F6E61007364D0
:100C30005F7374617475733A66616C73650A0073EF
:100C4000645F7374617475733A747275650A007ABF
:100C50006D69616E61207364206465743A0A0020D6
:100C60002F200000002100240027002A002D003042
:100C700000330001010000040107010A0100002205
:100C800000250028002B002E003100340002010056
:100C900000050108010B01000020002300260029A7
:100CA000002C002F003200000100000301060109A2
:100CB0000105050505070508080808020202020AE1
:100CC0000A080804040404010101010101010103EF
:100CD00003030303030303040707070C0C0C0C0CAA
:100CE0000C0C0C0202020206060606060606060B9D
:100CF0000B0B0B0B0B0B0B01021020200808102014
:100D00004010204080020102010804020101020497
:100D10000810204080804020100804020180040256
:100D200001804020100804020108040201010204AD
:100D30000810204080010204081020408000000AB2
:100D40000B02090C0D0E080703040100000000004F
:100D50000000000000000000000000000000000093
:100D60000000000000000000001211100000000050
:100D70000000000000000000000000000000000073
:100D800000000043616E6E6F7420656E74657220A2
:100D90007375626469723A200057796472756B20CA
:100DA000777374727A796D616E79004D31323500E6
:100DB000577A6E6F7769656E6965004D323400470A
:100DC00032392053320070726F626573656E643A17
:100DD0000A004E6F204C696E65204E756D6265721B
:100DE000207769746820636865636B73756D2C2068
:100DF0004C617374204C696E653A200055626974C9
:100E0000792E20005A6174727A796D616E792E2084
:100E1000005072696E7465722073746F70706564CF
:100E20002064756520746F206572726F72732E2056
:100E300046697820746865206572726F7220616EF1
:100E40006420757365204D39393920746F207265BF
:100E500073746172742E202854656D7065726174AC
:100E60007572652069732072657365742E205365F1
:100E70007420697420616674657220726573746190
:100E80007274696E67290A004E6F20436865636B50
:100E900073756D2077697468206C696E65206E7556
:100EA0006D6265722C204C617374204C696E653ADA
:100EB0002000636865636B73756D206D69736D6188
:100EC0007463682C204C617374204C696E653A2001
:100ED000004C696E65204E756D62657220697320E5
:100EE0006E6F74204C617374204C696E65204E7572
:100EF0006D6265722B312C204C617374204C696ECD
:100F0000653A20004D313130004D3331004D3834D9
:100F100020582059205A20450053442072656164AE
:100F2000206572726F720A00446F6E65207072697C
:100F30006E74696E672066696C650A0020496E767A
:100F4000616C696420657874727564657220000054
:100F5000000000000000000000000000004D430001
:100F600000524300004E4324F4D43050C38E20C2BC
:100F7000A24017828B7011127A910D816CD90AA848
:100F800061E108C7586607615143061E4B5D05C104
:100F900045A7041A411104093D98037139310340F2
:100FA00036DB0265339102D4305402802E1D026379
:100FB0002CEE01752AC501B028A001102781018FF0
:100FC0002564012B244B01E0223401AC211F018D4B
:100FD000200D01801FFC00841EED00971DDF00B86E
:100FE0001CD200E61BC600201BBC00641AB200B273
:100FF00019A8000A19A0006A189900D11791004099
:10100000178B00B516840031167E00B31579003AAF
:10101000157300C7146F0058146A00EE1366008839
:1010200013630025135E00C7125B006C1257001596
:10103000125400C111510070114F0021114B00D604
:101040001049008D1047004610440002104200C0B5
:101050000F4000800F3E00420F3C00060F3B00CBCC
:101060000E3800930E37005C0E3500270E3400F367
:101070000D3200C10D3100900D3000600D2E003298
:101080000D2D00050D2C00D90C2B00AE0C29008570
:101090000C29005C0C2700350C27000E0C2600E8FC
:1010A0000B2400C40B2400A00B23007D0B23005A4B
:1010B0000B2100390B2100180B2000F80A1F00D962
:1010C0000A1E00BB0A1E009D0A1D00800A1D006347
:1010D0000A1C00470A1B002C0A1B00110A1A00F701
:1010E000091A00DD091900C4091900AB0919009299
:1010F0000917007B091800630917004C0916003610
:10110000091600200916000A091500F5081500E067
:10111000081400CC081400B8081400A408140090A7
:101120000813007D0812006B0813005808120046CF
:1011300008120034081100230811001208110001E0
:10114000081100F0071000E0071000D0071000C0E1
:10115000071000B0070F00A107100091070E0083D1
:10116000070F0074070F0065070E0057070E0049B0
:10117000070E003B070D002E070E0020070D001381
:10118000070D0006070D00F9060C00ED060D00E046
:10119000060C00D4060C00C8060C00BC060C00B0FF
:1011A000060C00A4060B0099060C008D060B0082AD
:1011B000060B0077060B006C060B0061060A005751
:1011C000060B004C060A0042060A0038060A002EEA
:1011D000060A0024060A001A060A0010060900077B
:1011E000060A00FD050900F4050900EB050900E207
:1011F000050900D9050900D0050900C7050900BE89
:10120000050900B5050800AD050800A50509009C05
:10121000050800940508008C050800840508007C7A
:10122000050800740508006C050700650508005DE9
:10123000050700560508004E050700470507004052
:1012400005080038050700310507002A05070023B7
:101250000507001C050600160507000F0507000816
:1012600005060002050700FB040600F5040700EE72
:10127000040600E8040600E2040700DB040600D5CB
:10128000040600CF040600C9040600C3040600BD1E
:10129000040600B7040600B1040500AC040600A66D
:1012A000040600A00405009B0406009504050090B8
:1012B0000406008A04050085040500800406007AFF
:1012C00004050075040500700405006B0405006644
:1012D000040500610405005C040500570405005284
:1012E0000405004D04050048040500430405003EC4
:1012F0000404003A04050035040500300404002C01
:1013000004050027040400230405001E0404001A39
:1013100004040016040500110404000D040400096F
:101320000405000404040000040400FC030400F8A5
:10133000030400F4030400F0030400EC030400E8D9
:10134000030400E4030400E0030400DC030400D809
:10135000030400D4030400D0030400CC030400C839
:10136000030300C503030024F404D9201BC40C5C50
:101370000E9804C4095F0265077101F405F900FBCA
:1013800004B30048048700C10369005803550003F3
:10139000034500BE023A008402310053022A0029AC
:1013A00002250004022000E4011C00C8011900AF5E
:1013B00001170098011400840113007101100061ED
:1013C00001100051010E0043010D0036010B002BEE
:1013D000010B0020010B00150109000C010900039D
:1013E000010800FB000800F3000800EB000700E420
:1013F000000600DE000600D8000600D2000600CC81
:10140000000500C7000500C2000500BD000400B9CA
:10141000000400B5000400B1000400AD000400A900
:10142000000400A5000300A20003009F0004009B2D
:101430000003009800030095000200930003009051
:101440000003008D0002008B00030088000200866C
:1014500000020084000300810002007F0002007D82
:101460000002007B00020079000200770001007694
:101470000002007400020072000100710002006F9F
:101480000002006D0001006C0002006A00010069AA
:1014900000020067000100660001006500010064B1
:1014A0000002006200010061000100600001005FB5
:1014B0000002005D0001005C0001005B0001005AB9
:1014C00000010059000100580001005700010056BA
:1014D00000010055000100540001005300000053BA
:1014E0000001005200010051000100500001004FB6
:1014F0000001004E0000004E0001004D0001004CB4
:101500000001004B0000004B0001004A00010049AF
:1015100000010048000000480001004700010046AB
:1015200000000046000100450000004500010044A5
:10153000000100430000004300010042000000429F
:101540000001004100000041000100400001003F97
:101550000000003F0001003E0000003E0001003D91
:101560000000003D0001003C0000003C0000003C89
:101570000001003B0000003B0001003A0000003A7F
:101580000001003900000039000100380000003877
:10159000000000380001003700000037000100366D
:1015A0000000003600000036000100350000003564
:1015B0000000003500010034000000340000003459
:1015C000000100330000003300000033000100324E
:1015D0000000003200000032000100310000003144
:1015E0000000003100010030000000300000003039
:1015F0000001002F0000002F0000002F0000002F2E
:101600000001002E0000002E0000002E0001002D21
:101610000000002D0000002D0000002D0001002C16
:101620000000002C0000002C0000002C0001002B0A
:101630000000002B0000002B0000002B0001002AFE
:101640000000002A0000002A0000002A00010029F2
:1016500000000029000000290000002900000029E6
:1016600000010028000000280000002800000028D9
:1016700000000028000100270000002700000027CC
:1016800000000027000000270001002600000026BF
:1016900000000026000000260000002600010025B2
:1016A00000000025000000250000002500000025A6
:1016B0000000002500010024000000240000002498
:1016C000000000240000002400010023000000238B
:1016D000000000230000002300000023000000237E
:1016E0000000002300010022000000220000002270
:1016F0000000002200000022000000220001002162
:101700000000002100000021000000210000002155
:101710000000002100000021000100200000002046
:101720000000002000000020000000200000002039
:1017300000000020000000200001001F0000001F2A
:101740000000001F0000001F0000001F0000001F1D
:101750000000001F0001001E0000001E0000001E0F
:101760000000001E0000004D383420582059205A37
:1017700020450025756420253032753A25303275B4
:101780000053442063617264206F6B0A006F7065C0
:101790006E526F6F74206661696C65640A00766FC3
:1017A0006C756D652E696E6974206661696C65641F
:1017B0000A00534420696E6974206661696C0A00EE
:1017C0006175746F25692E67004D3234004D3233D8
:1017D000202573005A616E696B2074656D702E0050
:1017E000546865726D616C2052756E617761790025
:1017F00057726974696E6720746F2066696C653A08
:1018000020006F70656E206661696C65642C2046EF
:10181000696C653A20006F70656E206661696C6561
:10182000642C2046696C653A200046696C6520731B
:10183000656C65637465640A002053697A653A20B3
:101840000046696C65206F70656E65643A20006FB4
:1018500070656E206661696C65642C2046696C65F4
:101860003A20002066696C653A20004E6F772000B0
:101870002220706F73002220706172656E743A22AC
:1018800000535542524F5554494E452043414C4C0C
:10189000207461726765743A220055626974792E0A
:1018A0002000747279696E6720746F2063616C6CBC
:1018B000207375622D67636F64652066696C65735C
:1018C000207769746820746F6F206D616E79206C69
:1018D0006576656C732E204D4158206C6576656C7D
:1018E0002069733A004572726F723A006265640A49
:1018F000002C2073797374656D2073746F7070653C
:101900006421204865617465725F49443A20005241
:101910006F7A67727A2E206E69657564616E6500F4
:1019200048656174696E67206661696C6564007002
:10193000012C0190012701B0012201C0011D01F01D
:101940000118011002130130020E0160020901901A
:10195000020401C002FF000003FA004003F500800A
:1019600003F000D003EB002004E6007004E100E087
:1019700004DC004005D700C005D2004006CD00D0F1
:1019800006C8008007C3003008BE00F008B900C0D8
:1019900009B400B00AAF00B00BAA00D00CA500003B
:1019A0000EA000500F9B00C0109600501291000036
:1019B000148C00C0158700B0178200B0197D00D0CC
:1019C0001B7800001E730040206E0090226900F01A
:1019D00024640040275F0090295A00E02B55001036
:1019E0002E500020304B0010324600E03341009072
:1019F000353C001037370070383200A0392D00B068
:101A00003A2800A03B2300603C1E00103D190090C6
:101A10003D1400103E0F00703E0A00C03E0500005D
:101A20003F0000403FFBFF803FF6FFC03FF1FF4516
:101A30007272206D696E2074656D702073746F6CA6
:101A40007500457272206D696E2074656D70004D71
:101A5000494E54454D5020747269676765726564DC
:101A600000457272206D61782074656D702073740A
:101A70006F6C7500457272206D61782074656D70B1
:101A8000004D415854454D50207472696767657226
:101A90006564004E49450054414B004E4945004D98
:101AA0002042204C00323031392D30332D32370076
:101AB000312E332E3100256C642E25696D007A613C
:101AC000706973616E65007A616C61646F77616ED5
:101AD000650054656D702E206D696E3A2031373087
:101AE000006B6F6E74796E756F77616300726F7AD9
:101AF00067727A656A2061627900476C6F77696303
:101B000061206A657374207A696D6E612C004D36B0
:101B100030302042300047393000473931004D38ED
:101B200034004472756B2070727A657277616E79D9
:101B3000006F6B0020636F6C64206578747275733E
:101B4000696F6E2070726576656E7465640A0062F6
:101B50007573793A2070617573656420666F7220C1
:101B6000696E7075740A00627573793A20706175D8
:101B700073656420666F7220757365720A00627502
:101B800073793A2070726F63657373696E670A00C8
:101B90004D3630300055626974792E20004B494C27
:101BA0004C20636175736564206279204B494C4C0D
:101BB00020627574746F6E2F70696E0A00556269C9
:101BC00074792E20004B494C4C2063617573656419
:101BD00020627920746F6F206D75636820696E6173
:101BE00063746976652074696D65202D2063757254
:101BF00072656E7420636F6D6D616E643A20005083
:101C000072696E7465722068616C7465642E206BF5
:101C1000696C6C28292063616C6C6564210A00453D
:101C20006B7374727564756A2077696563656A00A1
:101C3000577A6E6F77206472756B6F77616E696526
:101C4000005779626965727A206F70636A65005027
:101C5000726F737A6520637A656B616300526F7A85
:101C600067727A6577616E6965206479737A790045
:101C700057796D69616E612066696C616D656E741E
:101C8000750061627920726F7A67727A616320648D
:101C900079737A6500576369736E696A2070727A26
:101CA000796369736B0057796D69616E612066694C
:101CB0006C616D656E74750077796472756B750013
:101CC0005472776120777A6E617769616E69650019
:101CD0006E6F7765676F206D6174657269616C7591
:101CE000005472776120656B737472757A6A610053
:101CF00066696C616D656E747520646F20676C6FCA
:101D0000776963790054727761207770726F7761B9
:101D1000647A616E69650057796D69616E612066EC
:101D2000696C616D656E747500616279206B6F6EB0
:101D300074796E756F7761632E2E2E0069206E6147
:101D40006369736E696A2070727A796369736B0074
:101D5000576C6F7A2066696C616D656E7400577997
:101D60006D69616E612066696C616D656E74750088
:101D700066696C616D656E7475207A20676C6F772B
:101D80006963790054727761207779737577616E32
:101D900069650057796D69616E612066696C616D76
:101DA000656E7475007A6D69616E792066696C6123
:101DB0006D656E7475005472776120726F7A706F02
:101DC000637A796E616E69650057796D69616E61DC
:101DD0002066696C616D656E74750000004D43008E
:101DE00000000000004E430000A0420000A042009E
:101DF00000F041000000005761726E696E673A2082
:101E0000486F6D696E672042756D70204469766910
:101E1000736F72203C20310A000202080000A040CB
:101E20000000A0400000A04000004D4300005243CD
:101E300000004E4301FF014D36303020486F74657D
:101E40006E6420746F6F20636F6C6420746F206306
:101E500068616E67652066696C616D656E740A0005
:101E6000557370696A2E2E2E00206E6F7420656E79
:101E700074657265642E0A000A4D6561737572653A
:101E80006420706F696E74733A0A005A206F666638
:101E90007365743A20004E756D20582C593A2032E3
:101EA0002C320A004D3530300059206F7574206F88
:101EB000662072616E67652028312D32292E0A0056
:101EC00058206F7574206F662072616E67652028D8
:101ED000312D32292E0A004D6573682070726F62B1
:101EE000696E6720646F6E652E0A005374617274A8
:101EF000206D6573682070726F62696E6720776904
:101F00007468202247323920533122206669727367
:101F1000742E0A004732380A4732392053320053B0
:101F2000746174653A20004D6573682062656420B1
:101F30006C6576656C696E6720686173206E6F20D2
:101F4000646174612E0A0053206F7574206F6620DF
:101F500072616E67652028302D35292E0A007C3C81
:101F60003E5E2B3D3F2F5B5D3B2C2A225C00202FE9
:101F7000002042403A0020403A004D313133205396
:101F800000205A3A0020423A0020436F756E7420B8
:101F9000413A0020453A00205A3A0020593A005868
:101FA0003A004361703A454D455247454E43595FAB
:101FB0005041525345523A300A004361703A43410E
:101FC00053455F4C494748545F4252494748544E35
:101FD0004553533A300A004361703A544F47474CD7
:101FE000455F4C49474854533A300A004361703AC0
:101FF000534F4654574152455F504F5745523A3020
:102000000A004361703A4C4556454C494E475F447F
:102010004154413A310A004361703A5A5F50524F7D
:1020200042453A300A004361703A4155544F4C459D
:1020300056454C3A300A004361703A5052494E546A
:102040005F4A4F423A310A004361703A50524F475B
:10205000524553533A300A004361703A4155544F48
:102060005245504F52545F54454D503A310A004347
:1020700061703A454550524F4D3A310A0046495237
:102080004D574152455F4E414D453A4D61726C6925
:102090006E20312E332E31202847697468756229ED
:1020A00020534F555243455F434F44455F55524C73
:1020B0003A68747470733A2F2F6769746875622E6A
:1020C000636F6D2F4D61726C696E4669726D7761D9
:1020D00072652F4D61726C696E2050524F544F43A0
:1020E0004F4C5F56455253494F4E3A312E30204D9A
:1020F000414348494E455F545950453A5072696EC4
:10210000746F2048332045585452554445525F431C
:102110004F554E543A3120555549443A63656465EC
:10212000326132662D343161322D343734382D39F5
:102130006231322D63353563363266333637666643
:102140000A004D65736820706F696E742063616E5C
:102150006E6F74206265207265736F6C7665640AB9
:10216000004F637A656B6977616E69652E2E2E006C
:102170004D3000456E642066696C65206C6973742F
:102180000A00426567696E2066696C65206C697338
:10219000740A005344207072696E74696E6720621D
:1021A00079746520004E6F74205344207072696EFC
:1021B00074696E670A0046696C652064656C6574B5
:1021C00065643A0044656C6574696F6E2066616988
:1021D0006C65642C2046696C653A20006F70656EF2
:1021E000206661696C65642C2046696C653A200044
:1021F0005072696E742074696D653A200043616E97
:102200006E6F74206F70656E2073756264697220E2
:1022100000656E7175657565696E6720220065637E
:10222000686F3A0002526573656E643A2000FDB52E
:102230008ECE11241FBECFEFD1E2DEBFCDBF00E0B6
:102240000CBF16E0A0E0B2E0EEEDF8EB01E00BBF52
:1022500002C007900D92A439B107D9F72EE1A4E985
:10226000B6E001C01D92A032B207E1F711E1C8E16A
:10227000D1E100E006C021970109802FFE010E94F4
:10228000D6DAC731D10780E00807A9F70E948EC6C9
:102290000C945EDC0C9400002F923F924F925F9260
:1022A0006F927F928F929F92AF92BF92CF92DF9266
:1022B000EF92FF920F931F93CF93DF93CDB7DEB7CB
:1022C000C956D1090FB6F894DEBF0FBECDBF00913D
:1022D0008E1320E4029F8001112402571E4E80912C
:1022E0006E1A80FF1AC0EEE1F2E284917F013FEFA7
:1022F000E31AF30A811102C0780104C00E9481929E
:10230000F701F3CFD7018D917D01882319F00E9449
:102310008192F8CF8AE00E94819281E090E09093D0
:102320003A1B8093391B1092B3061092B2068FE3CA
:102330008093BD061092BC061092BB061092AE06AA
:102340001092AF061092B0061092B106F80180818B
:102350000F5F1F4F8032D1F38E34B1F4818190ED45
:10236000980F9A3020F08D3211F08B3269F432964A
:10237000DF0131962C9120532A30D0F3CD01FC019E
:10238000019620812032D9F3F093941AE093931AA6
:102390007F01BFEFEB1AFB0A10816AE270E0C70110
:1023A0000E940CDC009731F0FC0131978081803273
:1023B000E1F311821D3429F0143519F0173409F0B6
:1023C000CBC0F70180812FEFE21AF20A8032C9F305
:1023D00080538A3008F0C0C01093BD062091BB0620
:1023E0003091BC064AE03196429FC001439F900D58
:1023F0001124DF0111972C91022E000C330B205376
:102400003109280F391F808180538A3060F330935F
:10241000BC062093BB06DF0131968C918032D9F344
:102420001D34D1F42E31310591F03CF427313105C2
:1024300071F02C31310581F40AC02537310564F083
:102440002737310524F0203A43E0340729F4B093CC
:10245000B306A093B20680C01092B3061092B206E3
:102460000091931A61E070E0FD0131968C91882310
:1024700009F472C08132A1F41D3491F42032310587
:1024800079F4F093B306E093B20663E270E0CF0113
:102490000E940CDC009709F45FC0DC011C925CC058
:1024A0009FEBD92ED80E49E1C42ECD14C0F1AF0157
:1024B000FA0190814F5F5F4F9032D1F340ED490FA9
:1024C0004A3040F043ED490F423020F09B3211F08A
:1024D0000C943C26AF01AD2CB12C7501A3E0F59412
:1024E000E794AA95E1F7C7018255994F7C018D2D9C
:1024F0008770DB0102C0AA0FBB1F8A95E2F7CD01EE
:10250000D7019C91892B8C934115510511F0401BEB
:1025100001C040E0D501AC56B94F4C930AC0809140
:10252000B2069091B306892B21F4B093B306A09321
:10253000B206808181548A3110F4DF0195CFDF012A
:1025400031969C9190539A30D0F3CD01FC010196C5
:1025500040814032D9F3F1CF8091BD068D3409F42A
:102560005EC1843511F40C94D925873411F00C9494
:102570001B268091BB069091BC068D31910509F414
:10258000CDC094F48430910509F4C4C024F40297BA
:1025900010F10C9435264C9711F00C94352680E000
:1025A0000E94189A0C9435268A35910509F4BAC010
:1025B00044F48A9711F00C9435260E94A3AA0C9437
:1025C00035268B35910509F4B1C08C35910509F498
:1025D000B2C00C9435268091A602882311F40C9485
:1025E000352631ECC32E39E1D32E41EAE42E49E100
:1025F000F42E56EBA52E56E0B52E09ED12E064E060
:10260000962E900EF80181918F010E94F42B882361
:10261000E1F00E94BD2BD5012C91211104C0209125
:10262000BA06222331F0F7012081318142815381A2
:1026300003C020E030E0A9010E94AFD8D6016D931D
:102640007D938D939C9313970AC0F70180819181AC
:10265000A281B381F60180839183A283B383F4E0E6
:10266000CF0ED11C24E0E20EF11C3FEFA31AB30AF7
:102670009012C8CF86E40E94232C8823C9F00E94C0
:10268000BD2B20E030E0A9010E9412DA181684F474
:102690000E94BD2B20E030E040E752E40E9426D9A2
:1026A00060939102709392028093930290939402AC
:1026B00080916E1A83FD2AC02091AD193091AE1918
:1026C0004091AF195091B0196091CD197091CE1908
:1026D0008091CF199091D0190E94AED89B01AC0186
:1026E00080915F0D882391F06091510D7091520D92
:1026F0008091530D9091540D0E94AFD86093510D6D
:102700007093520D8093530D9093540D0E94568CEC
:102710000C9435260E9411990C9435260E94E39A58
:102720000C9435261092BA060C94352681E08093DD
:10273000BA060C94352685E40E94232CB82E81110C
:1027400002C00E94916689ED882E82E0982E91EA5F
:10275000C92E99E1D92E2CE2E22E2BE1F22E00E0D7
:1027600010E0A12CD4018D914D010E94232C8823CF
:10277000F1F1F6012081318142815381A7962FAF7B
:10278000A797A8963FAFA897A9964FAFA997AA96E3
:102790005FAFAA970E94BD2BD6016D937D938D9359
:1027A0009C931397A7962FADA797A8963FADA89790
:1027B000A9964FADA997AA965FADAA9703301105C8
:1027C000B1F00E94AED89B01AC01F701608171812C
:1027D000828193810E94AFD8D7016D937D938D93B1
:1027E0009C931397C8010E94F561AA24A3940F5FDC
:1027F0001F4FB4E0CB0ED11CE4E0EE0EF11C043010
:10280000110509F0AFCFAA2019F00E94B16503C0ED
:10281000B1100E948E770E9415A40C9435268091E9
:10282000BB069091BC068337910509F443C50CF0B3
:10283000D5C08C34910509F48CC20CF078C0883175
:10284000910509F400C20CF042C08231910509F4EF
:102850000EC5F4F497FF02C00C9435268230910522
:102860000CF4E3C1419711F00C94352660E081EA45
:1028700091E00E94EB515F988A989FB7F8948091FD
:1028800008018E7F809308019FBF12980C94352613
:102890008531910509F4CDC144F4449711F00C94AD
:1028A00035260E94DBA80C9435268631910509F463
:1028B000C4C1479711F00C94352640E061E0809147
:1028C000B2069091B3060E94FA6F0C9435268E31B1
:1028D000910509F4EFC1C4F48A31910509F4E2C10C
:1028E0000CF4D0C18B31910509F4E0C14C9711F083
:1028F0000C94352640E060E08091B2069091B306DA
:102900000E94FA6F0C9435268032910509F4D6C1E5
:102910000CF4DCC18A32910509F4DCC18B349105D9
:1029200011F00C9435260E9431770C9435268936A7
:10293000910509F409C444F58335910509F492C45D
:102940009CF48E34910509F40EC20CF408C2813552
:10295000910509F483C48235910511F00C94352654
:102960001092B9060C9435268535910509F483C477
:102970000CF47DC48C35910509F498C48836910512
:1029800009F403C30C9435268E36910509F431C33E
:1029900084F48B36910509F459C40CF453C48C3675
:1029A000910509F4A5C38D36910509F415C40C945D
:1029B00035268037910509F49FC30CF42DC3813768
:1029C000910509F4A1C38237910511F00C943526C5
:1029D0000E9491660E9415A40C943526823E9105B2
:1029E00009F491C70CF075C08E3B910509F410C431
:1029F0009CF58837910509F41CC5A4F48637910528
:102A000009F45CC40CF091C48537910511F00C9465
:102A1000352660E08091B2069091B3060E9417526D
:102A20000C9435268D37910509F414C45CF489376C
:102A3000910511F00C943526109206021092B406FE
:102A40000C9435268C38910509F462C38B399105B5
:102A500009F497C30C9435268D3C910509F4E8C51B
:102A6000ACF4893C910509F435C534F4883C9105F2
:102A700009F4E6C40C9435268B3C910509F44DC548
:102A80008C3C910509F468C50C943526833D91056D
:102A900009F475C6A4F48E3C910511F00C9435260A
:102AA00099EDA92E92E0B92E21EAC22E29E1D22E6B
:102AB0003CE5E32E31E1F32E00E010E026C68C3D2C
:102AC000910509F4F5C68D3D910509F400C70C94F4
:102AD0003526853AF1E09F0711F40C942822E4F59D
:102AE000803331E0930711F40C947B1DCCF48D32CC
:102AF00051E0950709F460C734F48C32914009F431
:102B000031C70C9435268E32E1E09E0711F40C9407
:102B1000F91D8F32914011F40C944F1E0C94352600
:102B2000803921E0920711F40C94C3214CF48336D0
:102B3000914011F00C943526E5EEF8E10C94B125A6
:102B40008A3951E0950709F4DBC2843A914011F4C7
:102B50000C94C6210C943526873FB1E09B0711F4F5
:102B60000C9435240CF047C0843FF1E09F0711F42A
:102B70000C94F723ACF48C3A914011F00C94352668
:102B80009CE5C92E91E1D92E21EAE22E29E1F22E0F
:102B90003CE7232E3AE1332E00E010E00C941B2397
:102BA000853F41E0940711F40C941624863F914030
:102BB00011F00C9435260E942D3284E59BE09A8317
:102BC000898306E410E01F8B0E8BBE016F5F7F4F81
:102BD000CE0146960E94358D8CEF98E09A838983CA
:102BE0001F8B0E8BBE016F5F7F4FCE0146960E94FA
:102BF000358D0C9435268835A2E09A0711F40C9493
:102C00004C243CF48C31924011F40C9442240C94EA
:102C10003526803AF3E09F0709F454C0873E93407D
:102C200011F40C94C8250C9435260E940DAA0C941E
:102C300035260E941D740C9435261092620D109258
:102C4000630D0C94352619821A821B821C821E8AFF
:102C50001F8A188E198E8091731A882341F040E0E4
:102C6000BE016F5F7F4FCE0146960E94F195809125
:102C7000630D882319F081E08093620D0E94317703
:102C80000C9435261092620D87E39DE00E94A17F8F
:102C90008CEA91E09093DE198093DD190E946962BD
:102CA0000C9435260E94C2A80C9435260E9485A853
:102CB0000C9435260E9451A70C9435260E94CBA671
:102CC0000C9435260E94C0A60C9435260E9410A7AD
:102CD0000C94352683E50E94232C882311F40C9450
:102CE00035260E940C66E82E80E50E94232C88235E
:102CF00039F00E94AD2B8B0177FF04C00C94352670
:102D00000DE010E0902FE0EAF3E088E28E0F2491CE
:102D1000921729F031968E13FACF0C944D26E5EEDA
:102D2000F8E184918F010F5F1F4F882321F00E94EB
:102D30008192F801F6CFE1EBF1E084918F010F5F12
:102D40001F4F882311F40C9435260E948192F801BC
:102D5000F4CF87E39DE00E94A17F0C9435260E946A
:102D6000E2AC0C94352683E50E94232C882359F08D
:102D70000E94AD2B6E34710531F487E39DE00E9413
:102D8000C63E0C9435261E8A1F8A188E198EE0E2E4
:102D9000F2E084918F010F5F1F4F882321F00E9482
:102DA0008192F801F6CFE7E1F2E084918F010F5FA5
:102DB0001F4F882321F00E948192F801F6CF609185
:102DC000450D7091460D80E090E04AE00E94DA9255
:102DD000EAE0F2E084918F010F5F1F4F882321F01A
:102DE0000E948192F801F6CF6091470D7091480DD5
:102DF00080E090E04AE00E94DA92EFEFF1E0849107
:102E00008F010F5F1F4F882321F00E948192F801EC
:102E1000F6CF6091450D7091460D8091470D9091D0
:102E2000480D681B790B8091370D9091380D0197F3
:102E300021E030E0029710F020E030E0621B730BDD
:102E400080E090E04AE00E94DA928AE00E9481925B
:102E5000E7EFF1E084918F010F5F1F4F882321F08E
:102E60000E948192F801F6CF8091490D90914A0D10
:102E7000A0914B0DB0914C0D8E8B9F8BA88FB98F6D
:102E8000BE016F5F7F4FCE0146960E94432CEAEE53
:102E9000F1E084918F010F5F1F4F811106C0AE01D9
:102EA0004F5F5F4F7A018A0104C00E948192F8014E
:102EB000F0CFD8018D918D01882319F00E94819265
:102EC000F8CF80914D0D90914E0DA0914F0DB09186
:102ED000500D8E8B9F8BA88FB98FBE016F5F7F4F78
:102EE000CE0146960E94432CEAEDF1E084918F01D9
:102EF0000F5F1F4F882321F00E948192F801F6CFC7
:102F0000F70181917F01882319F00E948192F8CF07
:102F10008AE00E948192E2EDF1E084918F010F5FDF
:102F20001F4F882321F00E948192F801F6CFE2EC36
:102F3000F1E084918F010F5F1F4F882321F00E94E1
:102F40008192F801F6CF20E030E04AE754E4609146
:102F5000510D7091520D8091530D9091540D0E941E
:102F600026D942E00E945A93E0ECF1E084918F016F
:102F70000F5F1F4F882321F00E948192F801F6CF46
:102F80008AE00E9481920C94352688E690E00E94A7
:102F9000206681110C94352680916E1A83FF02C041
:102FA0000C94352683E50E94232C8823F1F00E949F
:102FB000BD2B0E948ED97093E3136093E21380E0DF
:102FC0000E94507B0E94BD2B20E030E04AEA52E490
:102FD0000E944FD418163CF00E94E2AC60E088E2F8
:102FE00092E00E94EB510E94BD2B0E9437CE0C94C0
:102FF00035268EE40E94232C882311F40C94352668
:103000000E94AD2B6093161E7093171E8093181E9E
:103010009093191E0C94352683E50E94232C882357
:1030200019F00E940C6601C080E080936E1AEEE1F8
:10303000F2E284918F010F5F1F4F882321F00E94DD
:103040008192F801F6CFE8E4F2E084918F010F5FFE
:103050001F4F882321F00E948192F801F6CF8091C2
:103060006E1A8823A1F10AE3C02E02E0D02EE12CD3
:10307000F12C20E080916E1A90E00E2C02C0959504
:1030800087950A94E2F780FF17C0BB24B394B20E71
:10309000222319F08CE20E948192F601259134914D
:1030A000F901849189010F5F1F4F882321F00E944D
:1030B00081929801F5CF2B2DFFEFEF1AFF0A32E036
:1030C000C30ED11C45E0E416F104A1F60CC0E4E403
:1030D000F2E084918F010F5F1F4F882321F00E943F
:1030E0008192F801F6CF8AE00E9481920C943526F5
:1030F0001092C5020C9435268FE492E00E9401885C
:103100000E94CFA20C9435260E94DAA50C94352695
:1031100080916E1A83FF02C00C94352683E50E94CD
:10312000232C882311F40C9435260E94BD2B0E9479
:103130008ED96739710514F066E970E07093DD137C
:103140006093DC130C94352689E690E00E9420669B
:10315000811111C0E7E5F2E084918F010F5F1F4FED
:10316000882321F00E948192F801F6CF0E9434A6B4
:103170008AE00E94819210923A1B1092391B0C94A3
:10318000C22A83E50E94232C882311F40C9435264F
:103190000E940C668093921A8D3318F08CE3809312
:1031A000921A0E9495516B017C012091921A30E095
:1031B000A8EEB3E00E949FD8DC01CB018C0D9D1DD1
:1031C000AE1DBF1D80938E1A90938F1AA093901AF4
:1031D000B093911A0C9435268DE690E00E942066FB
:1031E00081110C94352680916E1A83FF02C00C94D5
:1031F000352683E50E94232C88AF81110C9462262A
:1032000082E50E94232C81110C9462260C943526B1
:1032100080916E1A83FF02C00C94352660E08DE821
:1032200092E00E94EB5183E50E94232C88AF81112C
:103230000C94BE2782E50E94232C81110C94BE279A
:103240000C9435260E9413A60C9435260E9404A6E1
:103250000C9435260E94FEA20C9435260E94CAA525
:103260000C94352681E08093B9060C9435260E9493
:1032700072A50C94352683E50E94F42B882311F463
:103280000C9435260E94BD2B20E030E04AE754E440
:103290000E94B4D40E9493D96093991A70939A1A99
:1032A00080939B1A90939C1A0C9435260E94D4A468
:1032B0000C9435260E948CA30C94352685E40E943C
:1032C000F42B882381F00E946066882361F0EEE190
:1032D000F2E284918F010F5F1F4F882321F00E943B
:1032E0008192F801F6CF81E40E94F42B882381F0CB
:1032F0000E946066882361F0E3EAF2E084918F0126
:103300000F5F1F4F882321F00E948192F801F6CFB2
:103310000091B2061091B306D8018D918D018823DA
:1033200009F4E1CE0E948192F7CFEAECF2E08491B9
:103330008F010F5F1F4F882321F00E948192F801B7
:10334000F6CFE2ECF2E084918F010F5F1F4F8823EC
:1033500021F00E948192F801F6CF649903C001E741
:1033600013E002C006E713E0F80181918F01882382
:1033700019F00E948192F8CF8AE00E948192EAEBD4
:10338000F2E084918F010F5F1F4F882321F00E948C
:103390008192F801F6CF8091030181FD03C001E71E
:1033A00013E002C006E713E0D8018D918D01882358
:1033B00019F00E948192F8CF8AE00E948192E2EB9C
:1033C000F2E084918F010F5F1F4F882321F00E944C
:1033D0008192F801F6CF4A9903C001E713E002C0D9
:1033E00006E713E0F80181918F01882319F00E940C
:1033F0008192F8CF8AE00E948192E7EAF2E084911C
:103400008F010F5F1F4F882321F00E948192F801E6
:10341000F6CF959903C001E713E002C006E713E079
:10342000D8018D918D01882309F45DCE0E9481928F
:10343000F7CF81E0809306028093B4060C94352682
:1034400088EC90E00E94206681110C94352684E47B
:103450000E94F42B8823D1F10E94BD2B11E020E0C3
:1034600030E0A9010E944FD4811101C010E01093F7
:103470008D1A112359F10091B50610E00E94BD2B61
:10348000000F111F000F111FF801EA53FD4F608359
:1034900071838283938320E030E0A9016091C602AA
:1034A0007091C7028091C8029091C9020E944FD4C6
:1034B00081110CC080E090E0A0EEBFE38093C602D3
:1034C0009093C702A093C802B093C9020E94118CC6
:1034D0000C9435266AE4E62E6AE1F62E09ED12E038
:1034E00074E0D72ED00EF80181918F010E94F42B49
:1034F000882351F00E94BD2B0E9493D9D7016D9370
:103500007D938D939C931397B4E0EB0EF11CD01236
:10351000EACF0E94E03E0C94352641EAE42E43E1D6
:10352000F42E09ED12E054E0D52ED00EF801819171
:103530008F010E94F42B882341F00E94BD2BD701FC
:103540006D937D938D939C931397B4E0EB0EF11CD8
:10355000D012ECCF0C94352683E50E94F42B8823FF
:10356000D9F00E94BD2BAB01BC014093621A50936D
:10357000631A6093641A7093651A40935A1A5093B1
:103580005B1A60935C1A70935D1A8EE393E00E945D
:10359000AC6D8AE00E94819280E50E94F42B882322
:1035A00099F00E94BD2BAB01BC014093621A50936D
:1035B000631A6093641A7093651A81E293E00E9423
:1035C000AC6D8AE00E94819282E50E94F42B8823F0
:1035D00099F00E94BD2BAB01BC0140935E1A509341
:1035E0005F1A6093601A7093611A82E093E00E9400
:1035F000AC6D8AE00E94819284E50E94F42B8823BE
:1036000011F40C9435260E94BD2BAB01BC014093F4
:103610005A1A50935B1A60935C1A70935D1A84EE89
:1036200092E00E94AC6D8AE00E9481920C94352653
:1036300083E50E94F42B882351F00E94BD2B6093F8
:10364000B9137093BA138093BB139093BC1384E5A2
:103650000E94F42B882351F00E94BD2B6093B51378
:103660007093B6138093B7139093B81382E40E94BB
:10367000F42B882351F00E946F666093B11370930E
:10368000B2138093B3139093B41388E50E94F42B84
:10369000882351F00E94BD2B609391137093921375
:1036A000809393139093941389E50E94F42B8823BD
:1036B00051F00E94BD2B60939513709396138093E5
:1036C0009713909398138AE50E94F42B882351F066
:1036D0000E94BD2B6093991370939A1380939B1350
:1036E00090939C1385E40E94F42B882311F40C948E
:1036F00035260E94BD2B60939D1370939E1380937B
:103700009F139093A0130C943526F50181915F01CE
:103710000E94F42B882311F10E94BD2B2B013C0148
:10372000D7012D913D914D915C910E94AED89B01A6
:10373000AC01F60160817181828193810E94AFD8D2
:10374000D6016D937D938D939C931397F7014082DF
:10375000518262827382C8010E94F5610F5F1F4F20
:10376000F4E0CF0ED11C24E0E20EF11C0330110571
:1037700061F60E94B1650E9415A40C943526EEE115
:10378000F2E284918F010F5F1F4F882321F00E9486
:103790008192F801F6CF83E50E94F42B882321F073
:1037A0000E9460668093CF02E0E9F3E084918F018C
:1037B0000F5F1F4F882321F00E948192F801F6CFFE
:1037C0008091CF02811103C0EBE8F3E002C0E6E88C
:1037D000F3E084918F010F5F1F4F882321F00E9437
:1037E0008192F801F6CFEEE7F3E084918F010F5F4D
:1037F0001F4F882321F00E948192F801F6CF40915B
:10380000D1195091D2196091D3197091D4198CE7C4
:1038100093E00E94AC6D4091D5195091D6196091FA
:10382000D7197091D81989E793E00E94AC6D409147
:10383000D9195091DA196091DB197091DC1986E77A
:1038400093E00E94AC6DEEE6F3E084918F010F5F90
:103850001F4F882321F00E948192F801F6CF4091FA
:103860009A0250919B0260919C0270919D028CE69D
:1038700093E00E94AC6D40919E0250919F02609136
:10388000A0027091A10289E693E00E94AC6D409184
:10389000A2025091A3026091A4027091A50286E653
:1038A00093E00E94AC6D8AE00E9481920C943526D0
:1038B00083E50E94232C882311F40C9435260E9462
:1038C000AD2B70937602609375020C9435268DEDC6
:1038D00090E00E94206681110C94352683E50E94B9
:1038E000232C882311F40C9435260091B50610E0A2
:1038F0000E94AD2B000F111FF801ED58FD4F718391
:1039000060830C94352680E50E94F42B882311F403
:103910000C9435260E94AD2BF62EC62ED72E83E5AD
:103920000E94232C882321F00E94AD2B8B0102C022
:103930000FEF1FEFC8010196039710F00C94352686
:10394000D7FE02C00C943526E0EAF3E088E28E0F41
:103950009491F91611F40C94352631968E13F8CF04
:103960000C949A2A83E50E94232C882319F00E9444
:10397000AD2B02C064E071E07F8B6E8B80E50E940E
:10398000232C882339F00E94AD2B693833E173076B
:1039900030F402C068EE73E07A83698304C088E87B
:1039A00093E19A838983BE016A5E7F4FCE010196BF
:1039B0000E94358D0C94352685E40E94232C8111BC
:1039C00010C080E50E94F42B882391F00E94BD2B4B
:1039D0006093AB027093AC028093AD029093AE0201
:1039E00007C00E940C66882361F3E5EEF8E172C01F
:1039F00089E40E94F42B882381F00E94BD2B2CEADD
:103A000035EC47E25EE30E94B4D46093A702709362
:103A1000A8028093A9029093AA0284E40E94F42B46
:103A2000882381F00E94BD2B2CEA35EC47E25EE34F
:103A30000E9426D96093AF027093B0028093B102C6
:103A40009093B202EEE1F2E284918F010F5F1F4F7B
:103A5000882321F00E948192F801F6CF4091AB02B9
:103A60005091AC026091AD027091AE0280ED93E096
:103A70000E94AC6D2CEA35EC47E25EE36091A70250
:103A80007091A8028091A9029091AA020E9426D961
:103A9000AB01BC018CEC93E00E948F6D2CEA35ECFD
:103AA00047E25EE36091AF027091B0028091B10293
:103AB0009091B2020E94B4D4AB01BC0188EC93E0B7
:103AC0000E948F6D8AE00E9481920C9435260E949C
:103AD0008192F80184918F010F5F1F4F8111F7CF01
:103AE00002E913E0D8018D918D01882309F4FBCA06
:103AF0000E948192F7CF80E50E94F42B882351F039
:103B00000E94BD2B6093BB027093BC028093BD02E8
:103B10009093BE0289E40E94F42B882381F00E94D6
:103B2000BD2B2CEA35EC47E25EE30E94B4D46093EF
:103B3000B7027093B8028093B9029093BA0284E4FA
:103B40000E94F42B882381F00E94BD2B2CEA35ECD7
:103B500047E25EE30E9426D96093B3027093B402F9
:103B60008093B5029093B602EEE1F2E284918F0168
:103B70000F5F1F4F882321F00E948192F801F6CF3A
:103B80004091BB025091BC026091BD027091BE0297
:103B90008CED93E00E94AC6D2CEA35EC47E25EE3DD
:103BA0006091B7027091B8028091B9029091BA0207
:103BB0000E9426D9AB01BC0188ED93E00E948F6D75
:103BC0002CEA35EC47E25EE36091B3027091B402F7
:103BD0008091B5029091B6020E94B4D4AB01BC01B1
:103BE00084ED93E00E948F6D8AE00E9481920C9494
:103BF000352683E50E94F42B182F882371F00E944C
:103C0000BD2B0E948ED97093C4026093C30221E041
:103C1000672B09F020E020936D1A80E50E94F42BB9
:103C2000882361F02091C3023091C402232B11F04C
:103C30000E94606680936D1A0C94352611110C94C5
:103C40003526EEE1F2E284918F010F5F1F4F88234A
:103C500021F00E948192F801F6CF80916D1A8111B6
:103C600003C060E873E002C06BE676E085EF93E0A6
:103C70000E94E26D6091C3027091C40284EE93E0F1
:103C80000E94C96DE0EEF3E084918F010F5F1F4F3A
:103C9000882309F4EAC70E948192F801F5CF8CEFDE
:103CA00098E09A83898306E410E01F8B0E8BBE0197
:103CB0006F5F7F4FCE0146960E94358D8CE19CE070
:103CC0009A8389831F8B0E8BBE016F5F7F4FCE015E
:103CD00046960E94358D85E40E94232C882321F08E
:103CE0000E94AD2B1B0102C0212C312C83E40E94C9
:103CF000232C882339F00E94AD2BA2967FAF6EAFA4
:103D0000A29706C0E5E0F0E0A296FFAFEEAFA29763
:103D100085E50E94F42B67968FAF6797882329F07B
:103D20000E94606667968FAF679737FC07C0C12C0B
:103D3000D12CB6E1EB2EB3E4FB2E06C0C12CD12C66
:103D4000ACE8EA2EA2E4FA2E83E50E94232C882315
:103D500021F00E94BD2B6B017C012114310411F470
:103D60001092B50610923A1B1092391B0E94955181
:103D70002B013C01C1010196029718F403EA13E0FC
:103D80000EC002EB13E0D8018D918D01882319F04C
:103D90000E948192F8CF8AE00E948192CFC2F801FE
:103DA00081918F01882319F00E948192F8CF8AE0D7
:103DB0000E94819260E08EE695E00E94EB510E94A5
:103DC0009A7B8FE7FFEF2F163F0619F48093F519C2
:103DD00002C08093F619C701B6010E948ED9072E42
:103DE000000C880B990B0E9455D42B966FAF2B9724
:103DF0002C967FAF2C972D968FAF2D972E969FAF39
:103E00002E9781E08093C5026C964CAE5DAE6EAE8F
:103E10007FAE6C97A6964CAE5DAE6EAE7FAEA697AB
:103E20002F961FAE2F9720E460962FAF60973CE14E
:103E300061963FAF619746E462964FAF6297639693
:103E40001FAE639764961FAE649765961FAE659725
:103E500066961FAE66972A961CAE1DAE1EAE1FAEAE
:103E60002A9726961CAE1DAE1EAE1FAE2697C12CFD
:103E7000D12C7601FFE78F2E912CA12CB12C8FE74E
:103E800090E0A0E0B0E08CAF9DAFAEAFBFAFA0962A
:103E90001CAE1DAE1EAE1FAEA09791E068969FAF00
:103EA000689722961FAE1EAE22971AAA1CAA00E09F
:103EB00010E08091C502882309F43AC20E94B687B7
:103EC0000E94955168AF79AF8AAF9BAF8091F4198A
:103ED000882309F4E6C00E945F7CAFEF2A163A06F9
:103EE00059F4B091DE13BAABE091DF13ECAB009163
:103EF000E0131091E1130AC0F091E413FAAB2091A2
:103F0000E5132CAB0091E6131091E7132AA93CA905
:103F1000A80163966FAD639764967FAD64976596CD
:103F20008FAD659766969FAD66970E944FD487FFC9
:103F30000EC03AA963963FAF63974CA964964FAF02
:103F4000649765960FAF659766961FAF66972AA927
:103F50003CA9A8012F966FAD2F9760967FAD609713
:103F600061968FAD619762969FAD62970E9412DA5B
:103F7000181674F45AA92F965FAF2F978CA96096E4
:103F80008FAF609761960FAF619762961FAF629790
:103F900068969FAD68972B962FAD2B972C963FADCB
:103FA0002C972D964FAD2D972E965FAD2E976AA923
:103FB0007CA9802F992309F457C0912F0E9412DA0F
:103FC00018160CF06EC048AD59AD6AAD7BAD441902
:103FD000550966097709DB01CA0188589341A1098F
:103FE000B109B7FD5EC08CAD9DADAEADBFAD88195A
:103FF0009909AA09BB09B595A79597958795EFEFFC
:104000002E163E0619F48093F51902C08093F61916
:10401000A0964CAF5DAF6EAF7FAFA0972B96FFAD74
:104020002B976396FFAF63972C962FAD2C976496D2
:104030002FAF64972D963FAD2D9765963FAF65974F
:104040002E964FAD2E9766964FAF669788AD99AD79
:10405000AAADBBAD6C968CAF9DAFAEAFBFAF6C974A
:1040600068961FAE68971DC0912F0E944FD487FF9E
:1040700018C088AD99ADAAADBBAD6C962CAD3DAD69
:104080004EAD5FAD6C97821B930BA40BB50BAC01CF
:10409000BD01485853416109710977FD02C00C9474
:1040A000162920E030E040ED51E42B966FAD2B97C0
:1040B0002C967FAD2C972D968FAD2D972E969FAD7C
:1040C0002E970E94AFD89B01AC016AA97CA9C801B8
:1040D0000E9412DA1816BCF4EAEFF4E084918F0122
:1040E0000F5F1F4F882321F00E948192F801F6CFC5
:1040F00060E086EE94E00E94EB5160E083ED94E096
:104100000E94EB511BC180E398EFAFEFBFEFA69683
:104110002CAD3DAD4EAD5FADA697821B930BA40BAE
:10412000B50B28AD39AD4AAD5BAD820F931FA41F0F
:10413000B51FB7FD0FC00E9434A68AE00E9481928D
:1041400088AD99ADAAADBBADA6968CAF9DAFAEAF15
:10415000BFAFA69788AD99ADAAADBBAD880F991F2B
:10416000AA1FBB1F6C962CAD3DAD4EAD5FAD6C97DD
:10417000821B930BA40BB50B84199509A609B709EB
:1041800081389F44A241B10568F0E5EBF4E08491E9
:104190008F010F5F1F4F882309F4D0C00E948192C6
:1041A000F801F5CF22964EAD5FAD2297A2968EAD67
:1041B0009FADA297841795070CF0B7C0E8E5F4E02F
:1041C00084918F010F5F1F4F882321F00E948192FD
:1041D000F801F6CF60E08AE494E00E94EB519FEF93
:1041E0002916390619F00CE813E002C004E813E0C0
:1041F000B80188E394E00E94E26DB701A60184E370
:1042000094E00E94AC6D8AE00E948192B80182E243
:1042100094E00E94E26D26964CAD5DAD6EAD7FAD33
:1042200026978EE194E00E94AC6D8AE00E94819214
:10423000B8018CE094E00E94E26D2A964CAD5DAD31
:104240006EAD7FAD2A9788E094E00E94AC6D8AE065
:104250000E9481926796AFAD6797AA2309F46EC05A
:104260002320209489F5C092BB02D092BC02E09238
:10427000BD02F092BE022CEA35EC47E25EE32696E0
:104280006CAD7DAD8EAD9FAD26970E94B4D460938A
:10429000B7027093B8028093B9029093BA022CEAE5
:1042A00035EC47E25EE32A966CAD7DAD8EAD9FADF9
:1042B0002A970E9426D96093B3027093B402809328
:1042C000B5029093B6023AC0C092AB02D092AC0253
:1042D000E092AD02F092AE022CEA35EC47E25EE3EA
:1042E00026966CAD7DAD8EAD9FAD26970E94B4D461
:1042F0006093A7027093A8028093A9029093AA02E8
:104300002CEA35EC47E25EE32A966CAD7DAD8EADCE
:104310009FAD2A970E9426D96093AF027093B00296
:104320008093B1029093B20209C00E945C55C1CD46
:104330008091C502811102C00E949A7B81E090E0C9
:1043400090933A1B8093391B0E9457388CEF98E06A
:104350009A83898306E410E01F8B0E8BBE016F5F8A
:104360007F4FCE0146960E94358D8CE19CE09A836A
:1043700089831F8B0E8BBE016F5F7F4FCE014696E8
:104380000E94358D72C40E9491666FC486E50E94BA
:10439000F42B882389F08091901380FF0DC00AEAE6
:1043A00015E0F8018491882329F00F5F1F4F0E94C8
:1043B0008192F7CF0E94709883E50E94F42B182F0A
:1043C000882319F00E946066182F83E50E94F42B61
:1043D000882319F0812F0E94F799F0909013F1FA39
:1043E000FF24F0F8111103C0EEE1F2E218C0F11061
:1043F000FBCF05EE18E1F8018491882329F00F5FC7
:104400001F4F0E948192F7CF0BE815E0F8018491CD
:10441000882351F30F5F1F4F0E948192F7CF849141
:104420008F010F5F1F4F882321F00E948192F801B6
:10443000F6CFF11003C06DE873E002C068E873E0E6
:104440008DE795E00E94E26D8AE00E9481920DC4A2
:1044500088E50E94F42BD82E89E40E94F42BC82E04
:10446000882319F00E94AD2B24C0DD2021F10E9489
:10447000BD2B20917F1A3091801A4091811A509162
:10448000821A0E94AED820E030E040E252E40E945E
:10449000AED820E030E04AE752E40E94AFD82FE6E1
:1044A00032E143E05CE30E94B4D40E948ED96230D2
:1044B00010F4B62E02C0BB24BA9489E50E94F42BF6
:1044C000F82E8AE40E94F42B182F882319F00E94FA
:1044D000AD2B24C0FF2021F10E94BD2B2091831A17
:1044E0003091841A4091851A5091861A0E94AED854
:1044F00020E030E040E252E40E94AED820E030E01C
:1045000042E852E40E94AFD821EC3FE04CEF5BE37D
:104510000E94B4D40E948ED9623010F4062F01C0DC
:104520000FEF8AE50E94F42BE82E811105C081E58A
:104530000E94F42BA82E01C0A12CC11001C010E0D4
:10454000212F30E0D11002C090E001C09F2D290F33
:10455000311D2130310519F0E5EEF8E105C0E1101B
:104560001AC0A11018C0F8CF84918F010F5F1F4FA0
:10457000882321F00E948192F801F6CFEFEDF5E05B
:1045800084918F010F5F1F4F882309F46EC30E942F
:104590008192F801F5CFB7FE03C0E5EEF8E106C061
:1045A00007FF17C0FACF0E948192F80184918F0112
:1045B0000F5F1F4F8111F7CFE0ECF5E084918F0181
:1045C0000F5F1F4F882309F450C30E948192F801A6
:1045D000F5CF0E94BD2BA02F000FBB0B0B2DBB0CEA
:1045E000110BAA2081F0F801EE0FFF1FEA0FFB1F4D
:1045F000EE0FFF1FEE0FFF1FEF53F44E20813181AE
:104600004281538103C020E030E0A901F801EE0FA0
:10461000FF1FEA0FFB1FEE0FFF1FEE0FFF1F8F01A3
:104620000F53144E0E94AFD8D8016D937D938D9394
:104630009C9313971AC3F101EC57FA41FBABEAAB19
:10464000D1018D911D01882309F49FC0F70140809D
:10465000518062807380F801E656FD4F20813181E0
:1046600042815381F801EF52F64E6081718182815F
:1046700093810E94AFD820E030E040E05FE30E94E9
:10468000B4D49B01AC01C301B2010E9412DA181626
:1046900044F4F801E552F24E85909590A590B490BF
:1046A00003C0812C912C5401F801E158F54E208172
:1046B000318142815381C301B2010E94AED89B0176
:1046C000AC01C501B4010E94AED84B015C0120E0F1
:1046D00030E040EA51EC0E9412DA87FD29C020E068
:1046E00030E040EA51E4C501B4010E944FD41816ED
:1046F000FCF0D6012D913D914D915C91C501B40125
:104700000E94AED89B01AC01C301B2010E94AFD898
:10471000F7016083718382839383D6018D929D928A
:10472000AD92BC9213978AA99BA90E94F5612DC0F6
:10473000E5EEF8E184918F010F5F1F4F882321F090
:104740000E948192F801F6CFEEE1F6E084918F01AC
:104750000F5F1F4F882321F00E948192F801F6CF4E
:1047600061E080E196E00E94EB5188E290E09A835C
:10477000898388EC90E09F8B8E8BBE016F5F7F4FAB
:10478000CE0146960E94358D70C2B4E0CB0ED11C8E
:104790000C5F1F4FE4E0EE0EF11C0C30110509F028
:1047A0004ACF0E94B1650E9415A460E08FEF95E0AA
:1047B0000E94EB5183E992E09F8B8E8B04E610E020
:1047C0001A830983BE016A5E7F4FCE0101960E9463
:1047D000358D8AEB92E09F8B8E8B1A830983BE0105
:1047E0006A5E7F4FCE0101960E94358D3EC20E94C7
:1047F00057388CEF98E09A83898306E410E01F8B8A
:104800000E8BBE016F5F7F4FCE0146960E94358DA5
:1048100084E59BE09A8389831F8B0E8BBE016F5FBB
:104820007F4FCE0146960E94358D1FC20E9458339D
:104830008CEF98E09A83898306E410E01F8B0E8B3F
:10484000BE016F5F7F4FCE0146960E94358D84E595
:104850009BE09A8389831F8B0E8BBE016F5F7F4F16
:10486000CE0146960E94358D00C283E5BDD78823D0
:1048700019F00E94606601C081E091E089270E94E2
:10488000492EF3C183E5B0D7882309F4EEC10E9415
:10489000606680937011E9C100917C1A81E008275D
:1048A000D0907D1AD82610917E1A1827011102C0C7
:1048B000DD2019F0EEE1F2E203C01111FBCF54C08C
:1048C00084917F012FEFE21AF20A882321F00E94DF
:1048D0008192F701F5CFEAE4F6E084917F013FEFA2
:1048E000E31AF30A882321F00E948192F701F5CFA1
:1048F000002369F0E8E4F6E084917F014FEFE41AC9
:10490000F40A882321F00E948192F701F5CFDD207F
:1049100069F0E6E4F6E084917F015FEFE51AF50ABD
:10492000882321F00E948192F701F5CF111103C075
:10493000ECE3F6E00CC0E4E4F6E084918F010F5F55
:104940001F4F8823A9F30E948192F801F6CF84912A
:104950008F010F5F1F4F882321F00E948192F80181
:10496000F6CF81E00E94189A85E43ED7882311F0A3
:1049700004D704C060E070E080EA90EC6EA77FA7E7
:1049800088AB99AB8AE55FD7882311F0F6D604C0CF
:1049900060E070E080E791E46AA77BA78CA79DA701
:1049A00088E551D7882311F0E8D604C060E070E0B4
:1049B00082E593E46EA37FA388A799A789E543D7EF
:1049C000882311F0DAD604C060E070E08CED92E448
:1049D0006AA37BA38CA39DA385E406D7882311F04B
:1049E000CCD604C060E070E080E791E46E8F7F8FEA
:1049F00088A399A385E5F8D6882311F0BED604C014
:104A000060E070E08AE294EC6A8F7B8F8C8F9D8FE0
:104A10008CE4EAD6882311F0B0D604C060E070E8D8
:104A200082E294E46E8B7F8B888F998F82E40BD720
:104A3000882319F092D6D62E02C085E0D82E809019
:104A4000370D9090380D8091731A811183C0AA247C
:104A5000A394CD2CCE014A967C018E01025E1F4F9D
:104A60009E012E5D3F4FAE014A5D5F4FBE01665D08
:104A70007F4F44960E944494882309F46BC083E0DE
:104A800090E090933A1B8093391B81E080936F1ADA
:104A900011E080916F1A882309F442C060E08D2DE7
:104AA0000E9497A98091E0198823B1F188E090E0F5
:104AB0000E94148E80916F1A882321F081E00E9459
:104AC0003D88F8CF1092EF191092F0191092F11959
:104AD0001092F2191092E0190E94507B0E943FA997
:104AE00082E090E00E94148E0E949551DC01CB017F
:104AF00080549B42AE4FBF4F8093EF199093F019B3
:104B0000A093F119B093F2191092E01910936F1A53
:104B100061E08D2D0E9497A981E00E943D88B9CF68
:104B200081E090E090933A1B8093391B80E090E005
:104B3000A8E4B2E489839A83AB83BC838091731A1F
:104B4000882341F04D2DBE016F5F7F4FCE01469609
:104B50000E94F1958A94892809F087C00E943177D4
:104B600084C084918F010F5F1F4F882321F00E9422
:104B70008192F801F6CFE0E5F6E084918F010F5FB6
:104B80001F4F882309F471C00E948192F801F5CF6C
:104B900081E08093A6021092DA1383E525D6811175
:104BA00003C00E94D2B561C00E94606681115DC0E1
:104BB000F8CFF090BB06FF2029F1EEE1F2E28491FC
:104BC0008F010F5F1F4F882321F00E948192F8010F
:104BD000F6CF84E50E9481926F2D70E080E090E036
:104BE0004AE00E94DA9280E20E94819202E913E098
:104BF000D8018D918D01882311F40C9473180E94B3
:104C00008192F6CF1092661AEEE1F2E284918F0162
:104C10000F5F1F4F882321F00E948192F801F6CF89
:104C20006091661A70E08FE596E00E94C96D8AE097
:104C30000E9481921AC0EEE1F2E284918F010F5F2F
:104C40001F4F882321F00E948192F801F6CF6091D6
:104C5000931A7091941A81E796E00E94E26D82E2C5
:104C60000E9481928AE00E94819210923A1B1092D7
:104C7000391B0E94188D86C44091B2065091B3062C
:104C8000452B39F4AF01415051095093B30640937D
:104C9000B20640E050E00C946B1261E0802F0E945D
:104CA0005A506E2D802F0E942B50F12CB701802F6F
:104CB0000E94965009301105C1F6F092E913E09276
:104CC000E813D3CF5AD50E948ED97093E313609323
:104CD000E21380E00E94507B50D520E030E04AEAA9
:104CE00052E40E944FD4181644F00E94E2AC60E0F7
:104CF00088E692E00E94EB5102C00E9431770E9448
:104D000037CE81E08093C50210923A1B1092391B76
:104D10001CAA1DAA1EAA1FAA1CAE1DAE1EAE1FAE47
:104D20001AAA21961FAE21975CE323965FAF2397C3
:104D30008CE127968FAF279796E42B969FAF2B9702
:104D4000C12CD12CB0E8EB2E1FEBF12E812C912C35
:104D500054016091E2137091E313072E000C880B4D
:104D6000990B0E9455D4162F072F782E692E262FC7
:104D7000372F482F592FB601C7010E944FD48823DF
:104D800011F12091E4133091E5134091E613509115
:104D9000E713612F702F872D962D0E944FD4881F07
:104DA0008827881F8AABC8ACCC2089F0882379F08B
:104DB0008091C502882309F458CF60E08AE592E02B
:104DC0000E94EB5152CF1C2D0D2D7E2C6F2C0E947A
:104DD00095516B017C01DC01CB012CAD3DAD4EAD9D
:104DE0005FAD821B930BA40BB50BB7FD3BC0D70186
:104DF000C60188519C4FAF4FBF4F8CAF9DAFAEAF38
:104E0000BFAF0E9434A6E4E6F2E084912F019FEF49
:104E1000491A590A882321F00E948192F201F5CFA4
:104E200081149104A104B104B9F0D501C401805FDB
:104E3000984DAF4FBF4FBC01CD016C197D098E0954
:104E40009F0928EE33E040E050E00E9473D8CA0189
:104E5000B9010E94409303C08FE30E9481928AE0CF
:104E60000E94819280E00E943D8802D52090E41348
:104E70003090E5134090E6135090E7139101A201A2
:104E8000612F702F872D962D0E94AED89F778114A9
:104E90009104A104B10449F420E030E040E85FE36C
:104EA0000E944FD487FF0BC008C020E030E040E4F0
:104EB00050E40E9412DA181614F446015701AAA908
:104EC000AA2309F43FC02CA93DA94EA95FA9211529
:104ED00031054105510541F0D701C601821B930BF5
:104EE000A40BB50BB7FD2EC09101A20121966FADA9
:104EF000219723967FAD239727968FAD27972B96E3
:104F00009FAD2B970E94AED820E030E040EC5FE3ED
:104F10000E944FD487FD4CCFD701C601805A9541DE
:104F2000AF4FBF4F8CAB9DABAEABBFAB21962FAE9F
:104F3000219723963FAE239727964FAE27972B9620
:104F40005FAE2B978091C502882309F431CF81147D
:104F50009104A104B10429F4C12ED02EE72CF62C23
:104F6000F8CE90E1C91A97E2D90AE108F108C81809
:104F7000D908EA08FB08F7FE1BCFEECFFED30E944C
:104F80008ED96739710514F066E970E07093DD130E
:104F90006093DC13F2D320E030E040EA50E40E945A
:104FA00012DA181614F40E94317781E08093C5025A
:104FB00010923A1B1092391B8091661A8093B506A5
:104FC0001CAA1DAA1EAA1FAA1CAE1DAE1EAE1FAE95
:104FD0001AAA21961FAE2197ACE32396AFAF239771
:104FE000BCE12796BFAF2797E6E42B96EFAF2B9750
:104FF000C12CD12CF0E8EF2EAFEBFA2E812C912CA6
:1050000054016091DC137091DD13072E000C880BA6
:10501000990B0E9455D4162F072F782E692E262F14
:10502000372F482F592FB601C7010E944FD488232C
:1050300011F12091DE133091DF134091E013509174
:10504000E113612F702F872D962D0E944FD4881F5A
:105050008827881F8AABC8ACCC2089F0882379F0D8
:105060008091C502882309F400CE60E08AE792E0CF
:105070000E94EB51FACD1C2D0D2D7E2C6F2C0E9421
:1050800095516B017C01DC01CB012CAD3DAD4EADEA
:105090005FAD821B930BA40BB50BB7FD3BC0D701D3
:1050A000C60188519C4FAF4FBF4F8CAF9DAFAEAF85
:1050B000BFAF0E9434A6E9E8F2E084912F019FEF90
:1050C000491A590A882321F00E948192F201F5CFF2
:1050D00081149104A104B104B9F0D501C401805F29
:1050E000984DAF4FBF4FBC01CD016C197D098E09A2
:1050F0009F0928EE33E040E050E00E9473D8CA01D7
:10510000B9010E94409303C08FE30E9481928AE01C
:105110000E94819280E00E943D88AAD32090DE13F5
:105120003090DF134090E0135090E1139101A20101
:10513000612F702F872D962D0E94AED89F778114F6
:105140009104A104B10449F420E030E040E85FE3B9
:105150000E944FD487FF0BC008C020E030E040E43D
:1051600050E40E9412DA181614F446015701AAA955
:10517000AA2309F43FC02CA93DA94EA95FA9211576
:1051800031054105510541F0D701C601821B930B42
:10519000A40BB50BB7FD2EC09101A20121966FADF6
:1051A000219723967FAD239727968FAD27972B9630
:1051B0009FAD2B970E94AED820E030E040EC5FE33B
:1051C0000E944FD487FD4CCFD701C601805A95412C
:1051D000AF4FBF4F8CAB9DABAEABBFAB21962FAEED
:1051E000219723963FAE239727964FAE27972B966E
:1051F0005FAE2B978091C502882309F431CF8114CB
:105200009104A104B10429F4C12ED02EE72CF62C70
:10521000F8CE90E1C91A97E2D90AE108F108C81856
:10522000D908EA08FB08F7FE1BCFEECF22964EAD59
:105230005FAD2297141615060CF03BC1A0964CAC3E
:105240005DAC6EAC7FACA097480E591E6A1E7B1EEB
:10525000A0962CAD3DAD4EAD5FADA097281B390B90
:105260004A0B5B0BCA01B901A50194010E9464D8E5
:10527000A30192010E94BADA8CAC9DACAEACBFAC7B
:10528000820E931EA41EB51E34E183169104A10460
:10529000B1040CF14CEE84169104A104B1043CF469
:1052A00050E885169104A104B1041CF105C07BEE01
:1052B000872E912CA12CB12C8CAE9DAEAEAEBFAE84
:1052C0008EEF90E0A0E0B0E088199909AA09BB0927
:1052D0004C015D0112C024E130E040E050E02CAF11
:1052E0003DAF4EAF5FAF64E1862E912CA12CB12C67
:1052F00004C08CAE9DAEAEAEBFAE4CAD5DAD6EAD7E
:105300007FAD86E695E00E9467CEB501A40181E6F7
:1053100095E00E9467CE2F964FAD2F9760965FADB8
:10532000609761966FAD619762967FAD62978AE5EF
:1053300095E00E94AC6D63964FAD639764965FAD48
:10534000649765966FAD659766967FAD669783E5C2
:1053500095E00E94AC6D22964EAD5FAD2297433032
:1053600051050CF4A6C0C501B4010E9455D420E03B
:1053700030E040E850E40E94B4D46B017C012F96E9
:105380002FAD2F9760963FAD609761964FAD6197B7
:1053900062965FAD629763966FAD639764967FADDB
:1053A000649765968FAD659766969FAD66970E94E8
:1053B000AED82BED3FE049E450E40E94B4D420E0A5
:1053C00030E040E05FE30E94B4D49B01AC01C70130
:1053D000B6010E9426D96B017C01C301B2010E9473
:1053E00055D42FE632E143E85AE30E94B4D42B01AE
:1053F0003C01B701A6018DE495E00E94AC6DB301BC
:10540000A20187E495E00E94AC6D2AE939E949E1FF
:105410005FE3C701B6010E94B4D46B017C019B011C
:10542000AC010E94AFD8A30192010E9426D9269612
:105430006CAF7DAF8EAF9FAF2697A3019201C701DE
:10544000B6010E94B4D420E030E040E05EE30E9468
:10545000B4D42A966CAF7DAF8EAF9FAF2A97E7E3A7
:10546000F5E084913F015FEF651A750A882321F00A
:105470000E948192F301F5CFB701A60181E395E087
:105480000E94AC6D26964CAD5DAD6EAD7FAD26979E
:105490008BE295E00E94AC6D2A964CAD5DAD6EAD91
:1054A0007FAD2A9785E295E00E94AC6D8AE00E946C
:1054B00081928CAD9DADAEADBFAD880D991DAA1D7D
:1054C000BB1DB595A79597958795EFEF2E163E06D0
:1054D00019F48093F51902C08093F61922962EAD27
:1054E0003FAD22972F5F3F4F22963FAF2EAF2297BF
:1054F0002B963FAD2B972F963FAF2F972C964FAD06
:105500002C9760964FAF60972D965FAD2D97619663
:105510005FAF61972E968FAD2E9762968FAF629791
:1055200048AC59AC6AAC7BAC91E068969FAF689789
:105530000C9451200E94916660E08F2D0E945A5079
:105540000F3FBFEF1B0759F48F2D0E94035031E02E
:1055500020E0892B09F030E0032F122F05C0013025
:10556000110569F000E010E08F2D0E9403508017B4
:10557000910709F47ACB80E00E943D88F5CF01E0E5
:1055800010E0F2CFC759DF4F0FB6F894DEBF0FBE61
:10559000CDBFDF91CF911F910F91FF90EF90DF90E2
:1055A000CF90BF90AF909F908F907F906F905F90C3
:1055B0004F903F902F900895089580E090E00895D7
:1055C0008EEE9FE00E94BD4E21E0892B09F420E081
:1055D000822F08958BE590E10E94BD4E21E0892B3A
:1055E00009F420E0822F0895AF92BF92CF92DF920C
:1055F000EF92FF920F931F93CF93DF931F92CDB73C
:10560000DEB77C016B018A01590180914A11811139
:1056100019C0F701808191810E9425D88983F60104
:1056200081936F01BE016F5F7F4FC5010E945C7661
:10563000F701408151814F5F5F4F5183408301509B
:10564000110939F70F90DF91CF911F910F91FF90C2
:10565000EF90DF90CF90BF90AF9008958F929F9280
:10566000AF92BF92CF92DF92EF92FF920F931F9370
:10567000CF93DF931F921F92CDB7DEB7E0914A110F
:10568000E1114AC059016C018B017B01E40EF51E4A
:105690000E151F0509F440C0F60180809180F801C5
:1056A00061918F016983C4016A830E9425D86A8150
:1056B000681729F1C4010E9456D8C4010E9425D858
:1056C00099818917E1F0EEE1F2E284918F010F5F99
:1056D0001F4F882321F00E948192F801F6CFE4E861
:1056E000F6E084918F010F5F1F4F882321F00E9405
:1056F0008192F801F6CF81E080934A110DC0BE017E
:105700006F5F7F4FC5010E945C76F60180819181B9
:10571000019691838083BCCF0F900F90DF91CF9142
:105720001F910F91FF90EF90DF90CF90BF90AF90BF
:105730009F908F9008950E94E03E0E941A4E0E9412
:10574000118C80E090E00E94F56181E090E00E9481
:10575000F56182E090E00C94F56180910C149091D9
:105760000D14009731F04AE050E060E070E00C94D6
:1057700043D160E070E0CB0108950F931F93CF9366
:1057800080910C1490910D14009711F1FC018F0180
:10579000C1912C2F2F7DA9F0C53411F0C536B9F772
:1057A000F801108260E070E080910C1490910D146B
:1057B0000E94DCCFF801C083562F472F382F292FA6
:1057C0000BC060E070E0CF911F910F910C94DCCF83
:1057D00050E040E030E020E0652F742F832F922FBF
:1057E000CF911F910F91089581548A3150F5482F20
:1057F00050E0FA0193E0F595E7959A95E1F7E255C7
:10580000F94F208130E08770B90102C07595679526
:105810008A95E2F760FF15C0FA01EC56F94F208136
:10582000222339F08091931A9091941A820F911D3E
:1058300002C080E090E090930D1480930C1481E0FE
:10584000089580E00895D0DF882341F081E0209121
:105850000C1430910D14232B09F480E0089520914D
:10586000070D9091080D81E0291301C080E0089593
:105870000E9495516093951A7093961A8093971A87
:105880009093981A08954F925F926F927F92AF9281
:10589000BF92CF92DF92EF92FF92CF93DF93EB0113
:1058A000FC0160817181828193812CE3C22ED12C15
:1058B000E12CF12CA70196010E9473D8B62EA72ED9
:1058C000CA01B901A70196010E9473D86B017C013E
:1058D000CA01B90128E130E040E050E00E9473D8ED
:1058E0002B013C01C9016DE671E00E9493DA61155C
:1058F0007105D9F0AF92BF92DF92CF925F924F9233
:105900009F938F937F936F938DEF99E09F938F93E6
:10591000DF93CF930E9420D48DB79EB70E960FB61B
:10592000F8949EBF0FBE8DBF61C00097C9F0AF92C3
:10593000BF92DF92CF925F924F929F938F938DEEA3
:1059400099E09F938F93DF93CF930E9420D4EDB77C
:10595000FEB73C960FB6F894FEBF0FBEEDBF46C033
:105960004114510461047104B9F0AF92BF92DF9207
:10597000CF925F924F9281EE99E09F938F93DF9346
:10598000CF930E9420D48DB79EB70A960FB6F89495
:105990009EBF0FBE8DBF2AC0C114D104E104F10423
:1059A000A9F0AF92BF92DF92CF9289ED99E09F93D9
:1059B0008F93DF93CF930E9420D4EDB7FEB7389634
:1059C0000FB6F894FEBF0FBEEDBF10C0AF92BF92EE
:1059D00085ED99E09F938F93DF93CF930E9420D41E
:1059E0000F900F900F900F900F900F90DF91CF912D
:1059F000FF90EF90DF90CF90BF90AF907F906F902F
:105A00005F904F9008951F920F920FB60F9211243E
:105A10000BB60F922F933F934F935F936F937F93A8
:105A20008F939F93AF93BF93EF93FF938EEE9FE07F
:105A30000E947B4FFF91EF91BF91AF919F918F910A
:105A40007F916F915F914F913F912F910F900BBE7E
:105A50000F900FBE0F901F9018951F920F920FB6C8
:105A60000F9211240BB60F922F938F939F93EF9366
:105A7000FF93E091FE0FF091FF0F8081E091041001
:105A8000F091051082FD12C09081809107108F5F08
:105A90008F7320910810821751F0E0910710F0E009
:105AA000E251F04F958F8093071001C08081FF91E4
:105AB000EF919F918F912F910F900BBE0F900FBE82
:105AC0000F901F901895CF92DF92EF92FF920F9355
:105AD0001F93CF93DF93E091711AF091721AC280F5
