:100000000C94AE110C94DF110C94DF110C94DF11E1
:100010000C94DF110C94DF110C945AA20C94DF1194
:100020000C94DF110C94DF110C94DF110C94DF1190
:100030000C94DF110C94267A0C94DF110C94DF11D0
:100040000C94DF110C94A1650C94DF110C94DF115A
:100050000C94DF110C94DF110C94157E0C9427B5D1
:100060000C94DF110C949F320C94CD320C94DF1160
:100070000C94DF110C94DF110C94DF110C94DF1140
:100080000C94DF110C94DF110C94DF110C94DF1130
:100090000C94DF110C94DF110C94DF110C94DF1120
:1000A0000C94DF110C94DF110C94DF110C94DF1110
:1000B0000C94DF110C94DF110C94DF110C94DF1100
:1000C0000C94DF110C94DF110C94DF110C942A3383
:1000D0000C9400330C94DF110C94DF110C94DF119D
:1000E0000C94DF112A5F6C5FA05FF15F2660DD601A
:1000F00047604F617060A5608593A495B495B495F1
:10010000B495F195F395F395F395F395B795F1952E
:10011000F395C39524B327B316B31AB320B35EB3D4
:100120002BB32FB335B339B33DB343B347B34BB35D
:100130005EB351B355B359B341B446B44BB455B49F
:100140005FB4D8B469B471B479B483B48DB497B4DE
:10015000A6B4B0B4D8B4BAB4C4B4CEB40C94DF74FA
:100160000C9447600C9471B40C9401A30C942B79FB
:100170000C9455790C9401700C94A4950C94E37034
:100180000C94AC730C942BB30C9458740C9435B33E
:100190000C944A750C941F700C943DB30C94A5609C
:1001A0000C9408B60C9464790C94A05F0C9482268D
:1001B0000C944BB30C94CEB40C9420B30C944F61BC
:1001C0000C94C4B40C9469B40C94D8B40C9443B398
:1001D0000C94C8A40C94DD600C944BB40C94266071
:1001E0000C94D5750C94A6B40C9485930C9497B488
:1001F0000C94F15F0C9483B40C948DB40C94E77A56
:100200000C9416B30C94BAAD0C9497720C9447B33B
:100210000C94B0B40C94347B0C946B720C945FB45B
:100220000C9470600C94B4950C942A5F0C94F19526
:100230000C9427B30C941AB30C94846F0C945D72D5
:100240000C9483260C94B5720C94C7790C9478792D
:100250000C9449700C9439B30C9451B30C94C3951D
:100260000C9455B40C945EB30C9441B40C9442714C
:100270000C9455B30C9446B40C94B7950C9424B3D9
:100280000C9459B30C946C5F0C942FB30C9479B408
:100290000C9415710C94F3950C9479720C94862639
:1002A0000C949D740C94DED00C9486790C94BAB4A2
:1002B0000C9421714E414E494E495459494E46CDF8
:1002C000CCCC3D0AD7233C17B7D13877CC2B32950D
:1002D00095E6241FB14F0A000020410000C84200EB
:1002E000401C4620BCBE4CCA1B0E5AAEC59D7400B5
:1002F000407A10F35A00A0724E18090010A5D4E8F5
:100300000000E87648170000E40B54020000CA9A87
:100310003B000000E1F505000080969800000040D9
:10032000420F000000A0860100000010270000001E
:1003300000E803000000006400000000000A000064
:100340000000000100000000002C76D888DC674F18
:100350000823DFC1DFAE59E1B1B796E5E3E453C648
:100360003AE651997696E8E6C28426EB898C9B6240
:10037000ED407C6FFCEFBC9C9F40F2BAA56FA5F4EA
:1003800090055A2AF75C936B6CF9676DC11BFCE012
:10039000E40D47FEF520E6B500D0ED902E03009465
:1003A0003577050080841E080000204E0A000000FA
:1003B000C80C333333330F986E12831141EF8D2104
:1003C00014893BE65516CFFEE6DB18D1844B381B6B
:1003D000F77C1D901DA4BBE424203284725E228130
:1003E00000C9F124ECA1E53D27434F4D4D554E4941
:1003F000434154494F4E0044525952554E004552C4
:10040000524F525300494E464F004543484F005506
:100410007370696A2E2E2E004D3530300059206FD2
:100420007574206F662072616E67652028312D32E9
:10043000292E0A0058206F7574206F662072616E35
:1004400067652028312D32292E0A004D65736820FA
:1004500070726F62696E6720646F6E652E0A00535A
:1004600074617274206D6573682070726F62696E5A
:10047000672077697468202247323920533122205F
:1004800066697273742E0A004732380A473239207F
:1004900053320053746174653A20004D65736820CF
:1004A000626564206C6576656C696E67206861734F
:1004B000206E6F20646174612E0A0053206F757482
:1004C000206F662072616E67652028302D35292ED9
:1004D0000A004D65736820706F696E742063616EE9
:1004E0006E6F74206265207265736F6C7665640A46
:1004F000004F637A656B6977616E69652E2E2E00F9
:100500004D30004272616B20727563687500456EF4
:10051000642066696C65206C6973740A00426567C3
:10052000696E2066696C65206C6973740A004D31D0
:100530003235005344207072696E74696E672062B0
:1005400079746520004E6F74205344207072696E78
:1005500074696E670A005072696E742074696D6503
:100560003A200050726F7465637465642050696E40
:100570000A005072696E746F2048332B20676F74C5
:100580006F77612E000A040504FE03F703E9036F89
:1005900066660044454255473A0055626974792EB3
:1005A00020004D3131332053006F6B004361703AAE
:1005B000454D455247454E43595F50415253455270
:1005C0003A300A004361703A434153455F4C494712
:1005D00048545F4252494748544E4553533A300AB3
:1005E000004361703A544F47474C455F4C49474878
:1005F00054533A300A004361703A534F46545741BE
:1006000052455F504F5745523A300A004361703AA5
:100610004C4556454C494E475F444154413A310A96
:10062000004361703A5A5F50524F42453A300A00D7
:100630004361703A4155544F4C4556454C3A300A47
:10064000004361703A5052494E545F4A4F423A312A
:100650000A004361703A50524F47524553533A3063
:100660000A004361703A4155544F5245504F52541D
:100670005F54454D503A310A004361703A45455048
:10068000524F4D3A310A004649524D574152455F4B
:100690004E414D453A4D61726C696E20312E332EBC
:1006A000316220284769746875622920534F55527A
:1006B00043455F434F44455F55524C3A68747470EC
:1006C000733A2F2F6769746875622E636F6D2F4DB3
:1006D00061726C696E4669726D776172652F4D61EA
:1006E000726C696E2050524F544F434F4C5F5645C9
:1006F0005253494F4E3A312E30204D414348494ED6
:10070000455F545950453A5072696E746F204833B2
:100710002B2045585452554445525F434F554E5433
:100720003A3120555549443A636564653261326611
:100730002D343161322D343734382D396231322D38
:100740006335356336326633363766660A002F2FD7
:10075000200053657474696E672054726176656C0D
:1007600020416363656C65726174696F6E3A200045
:1007700053657474696E6720526574726163742086
:10078000416363656C65726174696F6E3A200053F2
:10079000657474696E67205072696E74204163637A
:1007A000656C65726174696F6E3A2000536574748C
:1007B000696E67205072696E7420616E6420547295
:1007C0006176656C20416363656C65726174696F05
:1007D0006E3A2000205A00205900580020204D6118
:1007E000783A2000205A00205900580020204D69F6
:1007F0006E3A2000576C2E200057796C2E00536FF4
:10080000667420656E6473746F70733A2000000123
:10081000363726FF023C3D380EFF2E303EFF13FFD9
:100820000C0809FFFFFF1A1C18FFFF08440AFF43CA
:10083000FFFFFFFFFFFF20643A0020693A002070AD
:100840003A0020643A0020693A0020703A004329B7
:100850000A0061626C656420286D696E2074656DA4
:10086000702000436F6C64206578747275646573E2
:10087000206172652000426564204C6576656C6974
:100880006E6720004661696C656420746F20656E38
:1008900061626C6520426564204C6576656C696EAA
:1008A000670A004D65736820426564204C65766573
:1008B0006C20646174613A0A00506F7A2E207A6568
:1008C000726F7761207573742E004572723A2054EE
:1008D0006F6F206661722100546F6F206661722015
:1008E00066726F6D207265666572656E63652070F5
:1008F0006F696E740A0061627920777A6E6F77692A
:10090000632077796472756B0066696C616D656EE2
:1009100074752069206B6C696B6E696A005573751C
:100920006E206E61646D6961720000577A6E617746
:1009300069616E69652077796472756B75004D38F1
:100940003132004E6F2063617365206C6967687493
:100950000A00416374697665204578747275646530
:10096000723A2000556E6B6E6F776E20636F6D6DFF
:10097000616E643A20220039363030204F4B202DF2
:100980003E20545259203131350A0039363030205A
:100990004641494C202D3E20545259203131350AD0
:1009A000004E657874696F6E20636F6E6E65637458
:1009B0006564210A004E657874696F6E206E6F74ED
:1009C00020636F6E6E6563746564210A004E69650D
:1009D0000054616B00437A7920777A6E6F77696390
:1009E0002077796472756B3F0057796B7279746FF9
:1009F000207A616E696B206E617069656369610060
:100A0000706F207A616E696B75207A6173696C61B1
:100A10006E696100577A6E617769616E69652077EA
:100A2000796472756B75004D313137204472756B86
:100A30006F77616E69652E2E004739322045004D73
:100A40003832002046333030300020453138002025
:100A500059004731205800204633303030004731AC
:100A6000205A004D383132002046333030300020DB
:100A70004531350020590047312058004D32332090
:100A80002573002E67636F004D3139302053256484
:100A9000004D3130392053256400626162797368FA
:100AA0006966743A006166746572686F6D653A00D4
:100AB0006265666F72653A0042617A6F77616E694E
:100AC00065206F736900706F207A616E696B7520A5
:100AD0007A6173696C616E696100557275636861F2
:100AE0006D69616E696500473238002020506C6185
:100AF0006E6E657242756666657242797465733AA8
:100B000020002046726565204D656D6F72793A2030
:100B100000436F6D70696C65643A204175672020F1
:100B20003520323032300A00207C20417574686FE5
:100B3000723A20285072696E746F33642E706C2C78
:100B4000204A616B75622053696B6F7261290A00DC
:100B5000323032302D30372D313300204C617374F8
:100B600020557064617465643A2000312E332E3153
:100B7000620A004D61726C696E0020536F66747773
:100B80006172652052657365740A00205761746351
:100B900068646F672052657365740A002042726F43
:100BA000776E206F75742052657365740A00204556
:100BB000787465726E616C2052657365740A0050BA
:100BC0006F77657255700A0073746172740A0065FC
:100BD00072726F722077726974696E6720746F2009
:100BE00066696C650A00205A3A0020593A0020587C
:100BF0003A00656E6473746F7073206869743A208C
:100C000000446F6E6520736176696E672066696C5B
:100C1000652E0A004D3239002569730025696D2063
:100C2000256973002569682025696D202569730091
:100C3000256964202569682025696D202569730070
:100C400025697920256964202569682025696D203A
:100C50002569730055626974792E20005A61747297
:100C60007A796D616E792E20005072696E746572AA
:100C70002073746F707065642064756520746F20D4
:100C80006572726F72732E204669782074686520D1
:100C90006572726F7220616E6420757365204D39C4
:100CA000393920746F20726573746172742E202834
:100CB00054656D7065726174757265206973207218
:100CC000657365742E2053657420697420616674A1
:100CD00065722072657374617274696E67290A00A7
:100CE0004E6F204C696E65204E756D62657220777F
:100CF00069746820636865636B73756D2C204C6143
:100D00007374204C696E653A20004E6F204368650D
:100D1000636B73756D2077697468206C696E6520EC
:100D20006E756D6265722C204C617374204C696E17
:100D3000653A2000636865636B73756D206D697338
:100D40006D617463682C204C617374204C696E650E
:100D50003A20004C696E65204E756D62657220699F
:100D600073206E6F74204C617374204C696E652023
:100D70004E756D6265722B312C204C617374204C62
:100D8000696E653A20004D313130004D3331004DF0
:100D9000383420582059205A204500534420726589
:100DA0006164206572726F720A00446F6E65207014
:100DB00072696E74696E672066696C650A00204905
:100DC0006E76616C696420657874727564657220F2
:100DD0000000000000000000000000000000004DC6
:100DE000430000524300004E43206E6F7420656E36
:100DF00074657265642E0A000A4D656173757265CB
:100E00006420706F696E74733A0A005A206F6666C8
:100E10007365743A20004E756D20582C593A203273
:100E20002C320A0046696C652064656C65746564E3
:100E30003A0044656C6574696F6E206661696C6523
:100E4000642C2046696C653A20006F70656E2066E0
:100E500061696C65642C2046696C653A20006D0000
:100E600046696C616D656E7420757365643A200027
:100E700053746174733A20002C204C6F6E67657355
:100E800074206A6F623A2000546F74616C20746938
:100E90006D653A200053746174733A20002C20462B
:100EA00061696C65643A20002C2046696E6973683C
:100EB00065643A20005072696E74733A200053746E
:100EC0006174733A2000202F002042403A002040F5
:100ED0003A00526F7A67727A616E6F0020573A005B
:100EE0005072696E746F2048332B20676F746F7770
:100EF000612E00526F7A67727A616E6F2073746F21
:100F00006C0020573A00526F7A67727A6577616E8B
:100F100069652073746F6C752E2E2E00205A3A006E
:100F200020423A0020436F756E7420413A002045FC
:100F30003A00205A3A0020593A00583A004B6420AF
:100F40000023646566696E65202044454641554C22
:100F5000545F004B69200023646566696E6520203C
:100F600044454641554C545F004B70200023646556
:100F700066696E65202044454641554C545F0050DB
:100F8000494420756B6F6E637A6F6E6F00504944F1
:100F9000204175746F74756E652066696E6973683B
:100FA0006564212050757420746865206C617374C9
:100FB000204B702C204B6920616E64204B642063B1
:100FC0006F6E7374616E74732066726F6D206265EC
:100FD0006C6F7720696E746F20436F6E66696775FA
:100FE000726174696F6E2E680A0050494420417521
:100FF000746F74756E65206661696C656421207418
:10100000696D656F75740A0050494420626C6164B3
:101010003A206F76657273686F740050494420629D
:101020006C6164206B616C69627261636A69005013
:101030004944204175746F74756E65206661696CF2
:101040006564212054656D706572617475726520E8
:10105000746F6F20686967680A00204B643A20004B
:10106000204B693A2000204B703A20000A20436C44
:10107000617373696320504944200A002054753A13
:101080002000204B753A2000206D61783A20002026
:101090006D696E3A200020643A2000206269617315
:1010A0003A200050494420726F7A706F637A6574F9
:1010B0006F004D65736820706F696E742063616E98
:1010C0006E6F74206265207265736F6C7665640A5A
:1010D000004D34323120696E636F72726563742023
:1010E000706172616D657465722075736167650A00
:1010F000002066697273740A005A0059005800484B
:101100006F6D65200020636F6C6420657874727564
:1011100073696F6E2070726576656E7465640A001F
:1011200043616E6E6F74206F70656E2073756264BC
:101130006972200053442063617264206F6B0A005F
:101140006F70656E526F6F74206661696C65640ABA
:1011500000766F6C756D652E696E697420666169C5
:101160006C65640A004572726F723A0053442069DC
:101170006E6974206661696C0A006175746F256917
:101180002E67004D3234004D323320257300656EDA
:101190007175657565696E672022006563686F3AD1
:1011A0000043616E6E6F7420656E74657220737596
:1011B000626469723A2000456B7374727564756A73
:1011C0002077696563656A00577A6E6F772064726D
:1011D000756B6F77616E6965005779626965727AC0
:1011E000206F70636A650050726F737A6520637A4E
:1011F000656B616300526F7A67727A6577616E69B9
:1012000065206479737A790057796D69616E612020
:1012100066696C616D656E74750061627920726FCC
:101220007A67727A6163206479737A6500576369BB
:10123000736E696A2070727A796369736B0057798B
:101240006D69616E612066696C616D656E747500B3
:1012500077796472756B75005472776120777A6E56
:10126000617769616E6965006E6F7765676F206D84
:101270006174657269616C75005472776120656B89
:10128000737472757A6A610066696C616D656E74FB
:101290007520646F20676C6F77696379005472778B
:1012A00061207770726F7761647A616E696500574B
:1012B000796D69616E612066696C616D656E7475CA
:1012C00000616279206B6F6E74796E756F77616300
:1012D0002E2E2E0069206E616369736E696A20701C
:1012E000727A796369736B00576C6F7A2066696CE8
:1012F000616D656E740057796D69616E6120666914
:101300006C616D656E74750066696C616D656E7497
:1013100075207A20676C6F77696379005472776102
:10132000207779737577616E69650057796D6961AA
:101330006E612066696C616D656E7475007A6D69A9
:10134000616E792066696C616D656E7475005472AA
:10135000776120726F7A706F637A796E616E6965FA
:101360000057796D69616E612066696C616D656EAB
:1013700074750057726974696E6720746F206669AE
:101380006C653A20006F70656E206661696C6564FB
:101390002C2046696C653A20006F70656E2066618E
:1013A000696C65642C2046696C653A200046696C5E
:1013B000652073656C65637465640A002053697AFF
:1013C000653A200046696C65206F70656E65643A09
:1013D00020006F70656E206661696C65642C204624
:1013E000696C653A20002066696C653A20004E6F92
:1013F0007720002220706F73002220706172656E6A
:10140000743A2200535542524F5554494E45204399
:10141000414C4C207461726765743A2200556269D0
:1014200074792E2000747279696E6720746F20635E
:10143000616C6C207375622D67636F6465206669EB
:101440006C6573207769746820746F6F206D616EAE
:1014500079206C6576656C732E204D4158206C6543
:1014600076656C2069733A0024F4D43050C38E2022
:10147000C2A24017828B7011127A910D816CD90A29
:10148000A861E108C7586607615143061E4B5D0518
:10149000C145A7041A411104093D9803713931036C
:1014A0004036DB0265339102D4305402802E1D0297
:1014B000632CEE01752AC501B028A0011027810117
:1014C0008F2564012B244B01E0223401AC211F0144
:1014D0008D200D01801FFC00841EED00971DDF0094
:1014E000B81CD200E61BC600201BBC00641AB20068
:1014F000B219A8000A19A0006A189900D117910022
:1015000040178B00B516840031167E00B3157900A4
:101510003A157300C7146F0058146A00EE13660082
:101520008813630025135E00C7125B006C1257001E
:1015300015125400C111510070114F0021114B00C0
:10154000D61049008D10470046104400021042009A
:10155000C00F4000800F3E00420F3C00060F3B00D2
:10156000CB0E3800930E37005C0E3500270E34008A
:10157000F30D3200C10D3100900D3000600D2E00D2
:10158000320D2D00050D2C00D90C2B00AE0C2900BE
:10159000850C29005C0C2700350C27000E0C26005A
:1015A000E80B2400C40B2400A00B23007D0B2300B8
:1015B0005A0B2100390B2100180B2000F80A1F00DC
:1015C000D90A1E00BB0A1E009D0A1D00800A1D00CC
:1015D000630A1C00470A1B002C0A1B00110A1A0090
:1015E000F7091A00DD091900C4091900AB0919002F
:1015F000920917007B091800630917004C091600AF
:1016000036091600200916000A091500F50815000C
:10161000E0081400CC081400B8081400A408140052
:10162000900813007D0812006B0813005808120080
:101630004608120034081100230811001208110096
:1016400001081100F0071000E0071000D00710009B
:10165000C0071000B0070F00A107100091070E008F
:1016600083070F0074070F0065070E0057070E0071
:1016700049070E003B070D002E070E0020070D0046
:1016800013070D0006070D00F9060C00ED060D000E
:10169000E0060C00D4060C00C8060C00BC060C00CA
:1016A000B0060C00A4060B0099060C008D060B007A
:1016B00082060B0077060B006C060B0061060A0021
:1016C00057060B004C060A0042060A0038060A00BC
:1016D0002E060A0024060A001A060A00100609004F
:1016E00007060A00FD050900F4050900EB050900DD
:1016F000E2050900D9050900D0050900C705090060
:10170000BE050900B5050800AD050800A5050900DE
:101710009C050800940508008C0508008405080055
:101720007C050800740508006C05070065050800C5
:101730005D050700560508004E0507004705070030
:101740004005080038050700310507002A05070095
:10175000230507001C050600160507000F050700F6
:101760000805060002050700FB040600F504070053
:10177000EE040600E8040600E2040700DB040600AD
:10178000D5040600CF040600C9040600C304060001
:10179000BD040600B7040600B1040500AC04060051
:1017A000A6040600A00405009B040600950405009D
:1017B000900406008A0405008504050080040600E4
:1017C0007A04050075040500700405006B0405002B
:1017D00066040500610405005C040500570405006B
:1017E000520405004D0405004804050043040500AB
:1017F0003E0404003A0405003504050030040400EA
:101800002C04050027040400230405001E04040022
:101810001A04040016040500110404000D04040059
:10182000090405000404040000040400FC0304008F
:10183000F8030400F4030400F0030400EC030400C4
:10184000E8030400E4030400E0030400DC030400F4
:10185000D8030400D4030400D0030400CC03040024
:10186000C8030300C503030024F404D9201BC40CDF
:101870005C0E9804C4095F0265077101F405F90064
:10188000FB04B30048048700C103690058035500F6
:1018900003034500BE023A008402310053022A00CD
:1018A0002902250004022000E4011C00C8011900DF
:1018B000AF0117009801140084011300710110009A
:1018C0006101100051010E0043010D0036010B00B3
:1018D0002B010B0020010B00150109000C01090070
:1018E00003010800FB000800F3000800EB000700FC
:1018F000E4000600DE000600D8000600D200060064
:10190000CC000500C7000500C2000500BD000400B2
:10191000B9000400B5000400B1000400AD000400EB
:10192000A9000400A5000300A20003009F0004001A
:101930009B00030098000300950002009300030041
:10194000900003008D0002008B000300880002005D
:101950008600020084000300810002007F00020074
:101960007D0002007B000200790002007700010088
:101970007600020074000200720001007100020093
:101980006F0002006D0001006C0002006A0001009F
:1019900069000200670001006600010065000100A7
:1019A00064000200620001006100010060000100AB
:1019B0005F0002005D0001005C0001005B000100AF
:1019C0005A000100590001005800010057000100B1
:1019D00056000100550001005400010053000000B2
:1019E00053000100520001005100010050000100AD
:1019F0004F0001004E0000004E0001004D000100AC
:101A00004C0001004B0000004B0001004A000100A7
:101A100049000100480000004800010047000100A3
:101A2000460000004600010045000000450001009E
:101A30004400010043000000430001004200000098
:101A4000420001004100000041000100400001008F
:101A50003F0000003F0001003E0000003E0001008A
:101A60003D0000003D0001003C0000003C00000083
:101A70003C0001003B0000003B0001003A00000078
:101A80003A00010039000000390001003800000070
:101A90003800000038000100370000003700010066
:101AA000360000003600000036000100350000005E
:101AB0003500000035000100340000003400000053
:101AC0003400010033000000330000003300010047
:101AD000320000003200000032000100310000003E
:101AE0003100000031000100300000003000000033
:101AF000300001002F0000002F0000002F00000028
:101B00002F0001002E0000002E0000002E0001001A
:101B10002D0000002D0000002D0000002D00010010
:101B20002C0000002C0000002C0000002C00010004
:101B30002B0000002B0000002B0000002B000100F8
:101B40002A0000002A0000002A0000002A000100EC
:101B500029000000290000002900000029000000E1
:101B600029000100280000002800000028000000D3
:101B700028000000280001002700000027000000C6
:101B800027000000270000002700010026000000B9
:101B900026000000260000002600000026000100AC
:101BA00025000000250000002500000025000000A1
:101BB0002500000025000100240000002400000092
:101BC0002400000024000000240001002300000085
:101BD0002300000023000000230000002300000079
:101BE000230000002300010022000000220000006A
:101BF000220000002200000022000000220001005C
:101C00002100000021000000210000002100000050
:101C10002100000021000000210001002000000040
:101C20002000000020000000200000002000000034
:101C30002000000020000000200001001F00000024
:101C40001F0000001F0000001F0000001F00000018
:101C50001F0000001F0001001E0000001E00000009
:101C60001E0000001E0000004D383420582059206E
:101C70005A204500577A6E6F7769656E6965004D29
:101C800032340057796472756B20777374727A7985
:101C90006D616E79004D3132350047323920533253
:101CA000004E49450054414B0054414B004D2042E9
:101CB000204C00323032302D30372D313300312E70
:101CC000332E316200256C642E25696D0054656DDC
:101CD000702E206D696E3A20313730006B6F6E7454
:101CE000796E756F77616300726F7A67727A656A71
:101CF0002061627900476C6F77696361206A657360
:101D000074207A696D6E612C004D3630302042307F
:101D10000047393000473931004732380044727586
:101D20006B2070727A657277616E790070012C0198
:101D300090012701B0012201C0011D01F00118012D
:101D40001002130130020E01600209019002040129
:101D5000C002FF000003FA004003F5008003F0001A
:101D6000D003EB002004E6007004E100E004DC0096
:101D70004005D700C005D2004006CD00D006C800FF
:101D80008007C3003008BE00F008B900C009B400E5
:101D9000B00AAF00B00BAA00D00CA500000EA00046
:101DA000500F9B00C01096005012910000148C0040
:101DB000C0158700B0178200B0197D00D01B7800D5
:101DC000001E730040206E0090226900F024640021
:101DD00040275F0090295A00E02B5500102E50003C
:101DE00020304B0010324600E033410090353C007B
:101DF0001037370070383200A0392D00B03A280073
:101E0000A03B2300603C1E00103D1900903D1400D3
:101E1000103E0F00703E0A00C03E0500003F00006B
:101E2000403FFBFF803FF6FFC03FF1FF457272204D
:101E30006D696E2074656D702073746F6C750045EC
:101E40007272206D696E2074656D70004D494E543C
:101E5000454D50207472696767657265640045720C
:101E600072206D61782074656D702073746F6C756D
:101E700000457272206D61782074656D70004D416F
:101E80005854454D502074726967676572656400E7
:101E9000027C3C3E5E2B3D3F2F5B5D3B2C2A225C4F
:101EA00000290A002062797465733B206372632005
:101EB0000053657474696E67732053746F72656440
:101EC000202800202863616C63756C617465642947
:101ED000210A0020213D2000454550524F4D20430E
:101EE0005243206D69736D61746368202D202873DF
:101EF000746F726564292000290A00206279746574
:101F0000733B2063726320002073746F72656420DA
:101F100073657474696E677320726574726965762F
:101F20006564202800204D61726C696E3D5633391E
:101F3000290A0028454550524F4D3D004545505215
:101F40004F4D2076657273696F6E206D69736D6198
:101F5000746368200025756420253032753A253079
:101F60003275004B61727461207573756E696574AA
:101F700061004B6172746120776C6F7A6F6E6100E3
:101F800073645F7374617475733A66616C73650A28
:101F90000073645F7374617475733A747275650A63
:101FA00000202F2000526573656E643A20006F6B2D
:101FB0000020636F6C6420657874727573696F6E4E
:101FC0002070726576656E7465640A006275737957
:101FD0003A2070617573656420666F7220696E7057
:101FE00075740A00627573793A207061757365645F
:101FF00020666F7220757365720A00627573793A94
:102000002070726F63657373696E670A004D3630B6
:10201000300055626974792E20004B494C4C206386
:102020006175736564206279204B494C4C20627560
:1020300074746F6E2F70696E0A0055626974792E20
:1020400020004B494C4C20636175736564206279B4
:1020500020746F6F206D75636820696E61637469A9
:1020600076652074696D65202D2063757272656ECA
:102070007420636F6D6D616E643A20005072696EFA
:102080007465722068616C7465642E206B696C6C79
:1020900028292063616C6C6564210A00506F7765A4
:1020A000724C6F73732E2E0A0000004D4300000027
:1020B0000000004E4300009642000096420000C817
:1020C00041000000005761726E696E673A20486FE8
:1020D0006D696E672042756D702044697669736F13
:1020E00072203C20310A000202080000A0400000DB
:1020F000A0400000A04000004D43000052430000FB
:102100004E4301FF014D36303020486F74656E64D8
:1021100020746F6F20636F6C6420746F206368613C
:102120006E67652066696C616D656E740A00486152
:102130007264636F6465642044656661756C7420C5
:1021400053657474696E6773204C6F616465640ACB
:1021500000881300008813000050000000282300AE
:102160000000008243000082430000E0410000A024
:10217000420000A0420000A04200004844000020AD
:102180004366696C616D656E743A20007A5F6D61BB
:10219000783A2000795F6D696E3A2000785F6D6152
:1021A000783A20005265706F7274696E6720656EB0
:1021B0006473746F70207374617475730A00457270
:1021C000726F722077726974696E6720746F204530
:1021D0004550524F4D210A006265640A002C20735D
:1021E000797374656D2073746F7070656421204815
:1021F00065617465725F49443A20005A616E696B8B
:102200002074656D702E00546865726D616C20528B
:10221000756E6177617900526F7A67727A2E206EDF
:1022200069657564616E650048656174696E6720F3
:102230006661696C65640000002100240027002AA3
:10224000002D003000330001010000040107010AE5
:102250000100002200250028002B002E0031003450
:102260000002010000050108010B0100002000230D
:1022700000260029002C002F00320000010000037E
:1022800001060109010505050507050808080802FA
:102290000202020A0A0808040404040101010101FF
:1022A0000101010303030303030303040707070CEE
:1022B0000C0C0C0C0C0C0C020202020606060606A4
:1022C0000606060B0B0B0B0B0B0B0B010210202051
:1022D000080810204010204080020102010804027A
:1022E00001010204081020408080402010080402F0
:1022F0000180040201804020100804020108040249
:10230000010102040810204080010204081020404E
:102310008000000A0B02090C0D0E080703040100DF
:1023200000000000000000000000000000000000AD
:10233000000000000000000000000000001211106A
:10234000000000000000000000000000000000008D
:10235000000000000000000008B6DED011241FBEFF
:10236000CFEFD1E2DEBFCDBF00E00CBF16E0A0E0B2
:10237000B2E0E2E0F3EC01E00BBF02C007900D9287
:10238000A432B107D9F72DE1A4E2B6E001C01D9255
:10239000A73EB207E1F711E1CDEAD1E100E006C0C6
:1023A00021970109802FFE010E94C9DDCC3AD10797
:1023B00080E00807A9F70E94FBC40C946FE10C941D
:1023C00000002F923F924F925F926F927F928F9276
:1023D0009F92AF92BF92CF92DF92EF92FF920F93B4
:1023E0001F93CF93DF93CDB7DEB7E9970FB6F8947D
:1023F000DEBF0FBECDBF0091631320E4029F8001BA
:1024000011240D511F4E8091331480FF1AC0EBE947
:10241000F1E184917F013FEFE31AF30A811102C0D9
:10242000780104C00E94CF2DF701F3CFD7018D9121
:102430007D01882319F00E94CF2DF8CF8AE00E94F9
:10244000CF2D81E090E09093AE108093AD1010926C
:102450004306109242068FE3809349061092480685
:102460001092470684E0EEE3F6E0DF011D928A95C4
:10247000E9F7F80180810F5F1F4F8032D1F38E346E
:10248000C9F4818190ED980F9A3020F08D3211F0CF
:102490008B3281F4DF0112969D012F5F3F4F8C91AB
:1024A00080538A3010F4D901F7CFFD011196808155
:1024B0008032D9F3F093ED1CE093EC1C7F01BFEF69
:1024C000EB1AFB0A10816AE270E0C7010E940DE17D
:1024D000009731F0FC01319780818032E1F3118265
:1024E0001D3431F1143521F1173411F1EBE9F1E12B
:1024F00084918F010F5F1F4F882321F00E94CF2D01
:10250000F801F6CF6091EC1C7091ED1C84E699E027
:102510000E94B96C82E20E94CF2D8AE00E94CF2DEA
:102520001092AE101092AD100E94279C0C943C2685
:10253000C701FC01208101962032D9F320532A30B3
:10254000A8F61093490680E090E06AE03196DF013A
:1025500011972C91022E000C330B20533109689FE8
:10256000A001699F500D1124C901840F951F20817E
:1025700020532A3058F39093480680934706DF0192
:1025800031962C912032D9F31D34D1F48E3191053E
:1025900091F03CF48731910571F08C31910581F413
:1025A0000AC08537910564F08737910524F0803A99
:1025B000E3E09E0729F4B0934306A093420683C04C
:1025C00010924306109242060091EC1C41E050E04C
:1025D000FD0131962C91222309F475C02132A1F41A
:1025E0001D3491F48032910579F4F0934306E09321
:1025F000420663E270E0CF010E940DE1009709F40A
:1026000024C4DC011C925FC03FEBD32ED20E69E1E3
:10261000C62ECD14C0F1BF01FB0130816F5F7F4F2B
:102620003032D1F360ED630F6A3040F063ED630F39
:10263000623020F03B3211F00C94BA25BF01AD2C72
:10264000B12C7501A3E0F594E794AA95E1F7970101
:10265000225C394F79012D2D2770DA0102C0AA0FB3
:10266000BB1F2A95E2F79D01D7013C91232B2C93A8
:102670006115710511F0601B01C060E0D501AC5D12
:10268000B94F6C930AC02091420630914306232B28
:1026900021F4B0934306A0934206208121542A31AD
:1026A00010F4DF0195CFDF01BD016F5F7F4F2C91EB
:1026B00020532A3010F4DB01F7CFFD011196208161
:1026C0002032D9F3EECF809149068D3409F4BDC391
:1026D000843511F40C947725873409F007CF809165
:1026E0004706909148068D31910509F46CC074F449
:1026F0008430910539F11CF40297D0F011CF4C973A
:1027000009F00ECF80E00E949A370ACF8A359105F2
:1027100009F4A2C224F48A9709F400C301CF8B35CF
:10272000910509F49CC28C35910509F49CC2F8CE40
:102730008091AC02882309F4F3CE0E945C380E9499
:102740007B9BEECE80E50E94CC2C882329F00E9452
:10275000262C6B017C0103C0C12CD12C760183E5B2
:102760000E94CC2C882361F00E946A2C20E030E08B
:102770004AE754E40E94F6D60E94D6DE6B017C0143
:102780000E9400B30E94E82C8091EE1C9091EF1CF7
:10279000A091F01CB091F11CC80ED91EEA1EFB1EC0
:1027A00060E08FE094E00E94A7920E941BB5DC01DC
:1027B000CB018C199D09AE09BF09B7FFB1CE80E0EE
:1027C0000E946297F2CF83E50E94CC2C882321F0EF
:1027D0000E94462C182F01C010E0163068F0EBEB79
:1027E000F4E084918F010F5F1F4F882309F498CE86
:1027F0000E94CF2DF801F5CF123009F445C0B0F496
:102800001123F9F0113009F024C20E94DDA41092C6
:1028100001021092000288E894E09093451680939C
:1028200044160E94722B1093031C13C2143009F437
:1028300001C208F4A5C1153009F00BC20E949E39EF
:1028400008C28091FA1380FD03C0EBE9F4E011C0E7
:1028500081FF03C06BE673E002C060E773E083E9C9
:1028600094E00E94B96C8AE00E94CF2D0E941AD099
:10287000F0C184918F010F5F1F4F882309F4E9C1D4
:102880000E94CF2DF801F5CF209100023091010276
:1028900037FF0CC00FE514E0F8018491882309F498
:1028A0003FCE0F5F1F4F0E94CF2DF6CF2115310570
:1028B00029F48091A5028093460631C08FEF820FE4
:1028C000982F917897FF03C091509E6F9F5FE92FDB
:1028D00087FD8F5F859580FF02C0E1E0E91BEE0F69
:1028E000FF0BE80FF11D87FDFA95EE0FFF1FEE0FAE
:1028F000FF1FE651FC4E8091881690918916A09199
:102900008A16B0918B1680839183A283B3838091C2
:1029100046068093A502243031050CF0CAC0822FF0
:10292000817887FF03C081508E6F8F5FA82EE22FC2
:1029300027FF02C0E1E0E20FBE2EB594B0FE03C057
:10294000A1E0AA2EA81AC0902E02D0902F02E090EB
:102950003002F09031020DEB10E2F8018591959173
:10296000A591B49180932E0290932F02A0933002F0
:10297000B093310220E030E0A9016091CF16709150
:10298000D0168091D1169091D2160E94DADD20E007
:1029900030E040EA50E40E94DADD609388167093DC
:1029A000891680938A1690938B160E94C3CF85E573
:1029B00095E5A5E0B3E480932E0290932F02A093B7
:1029C0003002B0933102FA2D24E0F202D00111243A
:1029D000AF5FB34F2091C7163091C8164091C9160A
:1029E0005091CA166D917D918D919C910E94DADD76
:1029F000609380167093811680938216909383164D
:102A00003B2D84E03802F0011124E750F44F20916F
:102A1000CB163091CC164091CD165091CE166081D8
:102A20007181828193810E94DADD609384167093B4
:102A3000851680938616909387160E94C3CFF8015F
:102A400085919591A591B49180932E0290932F0238
:102A5000A0933002B093310220E030E0A9016091F0
:102A6000CF167091D0168091D1169091D2160E94F7
:102A7000DADD609388167093891680938A16909396
:102A80008B160E94C3CFC0922E02D0922F02E092EA
:102A90003002F09231020E9400B31092A5028091A0
:102AA000000290910102019690930102809300022E
:102AB000D0C020E030E0A9016091CF167091D0160F
:102AC0008091D1169091D2160E94DADD20E030E09C
:102AD00040EA50E40E94DADD60938816709389160C
:102AE00080938A1690938B160E94C3CF0E9400B3E6
:102AF0008FEF9FEF9093010280930002EBE4F4E0EC
:102B000084918F010F5F1F4F882321F00E94CF2DEA
:102B1000F801F6CF83E992E09A83898304E610E016
:102B200019A308A3BE016F5F7F4FCE0180960E945C
:102B3000AB588AEB92E09A83898319A308A3BE015C
:102B40006F5F7F4FCE0180960E94AB588091FA1341
:102B500081608093FA138CEE9BE00E94489681E09E
:102B60000E949A3781E00E94462A88E194E090937F
:102B70004516809344160E94722B1092031C69C064
:102B800088E50E94CC2C882391F00E94362C1FEF00
:102B9000160F123090F004E314E0F80184918823BA
:102BA00009F4BECC0F5F1F4F0E94CF2DF6CF88E5F2
:102BB0000E94CF2D0E94CED0B3CC89E50E94CC2CB0
:102BC000882399F00E94362C0FEF060F023098F000
:102BD000EDE1F4E084918F010F5F1F4F882309F42A
:102BE0009FCC0E94CF2DF801F5CF89E50E94CF2D13
:102BF0000E94CED095CC8AE50E94CC2C8823A1F0EF
:102C00000E946A2CE12FEE0FFF0BE00FF11D07FD74
:102C1000FA95EE0FFF1FEE0FFF1FE651FC4E60838B
:102C200071838283938315C08AE50E94CF2D0E9411
:102C3000CED076CC8AE50E94CC2C8823A9F30E94C2
:102C40006A2C6093E6137093E7138093E8139093D4
:102C5000E9130E94374264CC1092450661CC81E0B2
:102C6000809345065DCC85E40E94CC2CB82E811162
:102C700002C00E9400B30BEC802E02E0902E80E890
:102C8000C82E86E1D82E9FE3E92E9DE1F92E00E0C3
:102C900010E0A12CD4018D914D010E94CC2C8823F1
:102CA00039F1F60140805180628073800E946A2C65
:102CB000D6016D937D938D939C9313970330C1F050
:102CC000A30192010E94D9DD9B01AC01F701608153
:102CD0007181828193810E94DADDD7016D937D93AA
:102CE0008D939C931397C8010E94C22AAA24A3948F
:102CF0000F5F1F4FB4E0CB0ED11CE4E0EE0EF11CD1
:102D00000430110539F6AA2019F00E94CB2B03C01C
:102D1000B1100E940D5E0E94374202CC8091AC023D
:102D2000882309F4FDCB89E40E94CC2CE82E88236B
:102D300021F00E94362C062F01C000E08AE40E9498
:102D4000CC2CF82E882321F00E94362C162F01C09F
:102D500010E0EE2011F0023020F4FF2079F0123064
:102D600068F0E2EDF4E084918F010F5F1F4F88233C
:102D700009F4D6CB0E94CF2DF801F5CF0E94122C7A
:102D8000EE20E1F024E00202F0011124EF5FF34FA6
:102D90002091C7163091C8164091C9165091CA1695
:102DA00060817181828193810E94DADD60934F1688
:102DB000709350168093511690935216FF20E1F0B5
:102DC00034E01302F0011124E750F44F2091CB16A8
:102DD0003091CC164091CD165091CE166081718104
:102DE000828193810E94DADD6093531670935416AA
:102DF000809355169093561680E50E949D2C811164
:102E00000E945A2C86E40E94CC2C8823D9F00E9480
:102E10006A2C6B017C0120E030E0A9010E945DDF9B
:102E2000181684F420E030E040E752E4C701B60110
:102E30000E945DDE60932E0270932F028093300219
:102E4000909331020E947B9B6BCB809147069091BF
:102E500048068337910509F4DBC10CF0C4C08C34FB
:102E6000910509F4EBC30CF06BC08831910509F4AE
:102E7000A9C2D4F58231910509F4F2C5D4F497FDC5
:102E80004FCB823091050CF4C6C1419709F048CB75
:102E900060E083E095E00E94A7925F988A989FB7D0
:102EA000F894809108018E7F809308019FBF12984B
:102EB00037CB8531910509F47DC234F4449709F08C
:102EC0002FCBEBE9F1E12FC28631910509F475C2F0
:102ED000479709F025CB40E061E080914206909150
:102EE00043060E943D621CCB8E31910509F4EDC270
:102EF000B4F48A31910509F490C20CF481C28B318B
:102F0000910509F4A6C24C9709F00ACB40E060E0B5
:102F100080914206909143060E943D6201CB80322F
:102F2000910509F4D6C20CF41EC38A32910509F446
:102F300046C38B34910509F0F3CA0E94655EF0CA5E
:102F40008936910509F48CC42CF58335910509F473
:102F500082C58CF48E34910509F478C30CF472C3E5
:102F60008135910509F465C58235910509F0D8CA06
:102F700010929F10D5CA8535910509F4A8C50CF4A7
:102F80006FC58C35910509F4BDC58836910509F4E6
:102F900061C3C6CA8E36910509F48CC38CF48B3696
:102FA000910509F4C2C40CF4A1C48C36910509F44E
:102FB00002C48D36910509F0B3CA0E941034B0CA1C
:102FC0008037910509F4FBC30CF487C38137910561
:102FD00009F4FDC38237910509F0A2CA0E9400B32B
:102FE0000E9437429DCA8C32A1E09A0711F40C94DA
:102FF00051210CF076C0883C910509F4DCC6CCF573
:103000008937910509F4D1C6FCF48637910509F496
:1030100091C664F48537910509F082CA60E0809119
:103020004206909143060E94D4927ACA873791054E
:1030300009F4B7C68837910509F072CA81E0809318
:10304000080280935D1D6CCA8C38910509F4ECC3AD
:103050002CF48D37910509F47AC462CA8B39910535
:1030600009F41BC48E3B910509F05ACA0E94F6422E
:1030700057CA8E3C910511F40C944020CCF48B3C43
:10308000910509F407C75CF4893C910509F048CA29
:10309000EBECEE2EE2E0FE2E06EB16E1E0C68C3CF9
:1030A000910509F414C78D3C910509F47CC738CA11
:1030B0008C3D910511F40C94F72044F4833D910567
:1030C00009F02ECAEBE9F1E10C945F208D3D9105EA
:1030D00011F40C940621823E910511F40C942221E6
:1030E0001FCA8C3AE1E09E0711F40C945923ACF509
:1030F000833621E0920709F487C0ACF48E32A1E058
:103100009A0711F40C94982214F40C947B218F32BA
:10311000E1E09E0711F40C94EF228033914011F40A
:103120000C941A22FDC98A3921E0920709F44BC395
:103130003CF48039914009F0F3C90E9400B3F0C912
:10314000843AB1E09B0711F40C94F322853A914044
:1031500009F0E6C90E94793CE3C98835F2E09F078F
:1031600011F40C944825B4F5853F31E0930711F430
:103170000C943D241CF5843F914009F0D1C90E9474
:10318000FB8C8CEF98E09A83898306E410E019A306
:1031900008A3BE016F5F7F4FCE0180960E94AB589F
:1031A00084E59BE09A83898319A308A3BE016F5F1E
:1031B0007F4FCE0180960E94AB58B2C9863FE1E0B6
:1031C0009E0711F40C945D248C31924011F40C9400
:1031D0003B25A6C98C3223E0920791F034F48B3260
:1031E000934009F09DC90E945DA0803AB3E09B071F
:1031F00009F4ACC1873E934011F40C94632590C947
:10320000EEE3F9E00C947D24E5E6F1E10C944F2522
:10321000E7E8F6E003C5E0E0F5E084918F010F5F99
:103220001F4F882321F00E94CF2DF801F6CFA090E8
:103230004206B090430680E50E94CC2C882359F0CA
:103240000E94262C6B017C0111E0672B682B692BF7
:1032500031F410E004C010E0C12CD12C760183E5DC
:103260000E94CC2C8823F1F00E946A2C20E030E0F0
:103270004AE754E40E94F6D60E94D6DE6B017C0138
:10328000111112C0672B682B692B71F4A114B104C2
:1032900059F0D5018C91882339F061E0C5010E9475
:1032A000D49207C0112391F360E081EF94E00E9473
:1032B000A79283E090E09093AE108093AD1081E0F0
:1032C0008093AC100E9400B30E94E82CC114D1047A
:1032D000E104F10411F18091EE1C9091EF1CA0919A
:1032E000F01CB091F11CC80ED91EEA1EFB1E0E94F4
:1032F0001BB5DC01CB018C199D09AE09BF09B7FDD7
:1033000002C00C94CB258091AC10882311F40C944E
:10331000CB2580E00E946297EACF1092AC1000C9E2
:103320000E94CF2DF80184918F010F5F1F4F8111F3
:10333000F7CFEDE1F5E084918F010F5F1F4F8823F8
:1033400021F00E94CF2DF801F6CF1092D90E1092E5
:10335000D80E83E89CE00E94B9828BE1E3E8FCE0B0
:10336000DE01159601900D928A95E1F78091810C0E
:103370009091820C9C838B8389ED92E09A83898360
:1033800040E050E0BE016F5F7F4F8FE693E00E9408
:10339000F05BCE0101960E9455A0EEE0F5E084912D
:1033A0008F010F5F1F4F882309F4BAC80E94CF2DE9
:1033B000F801F5CF0E94145AB3C81092520C109223
:1033C000530CAEC819821A821B821C8218A219A241
:1033D0001AA21BA280919910882341F040E0BE01FF
:1033E0006F5F7F4FCE0180960E94319E8091530C7B
:1033F000882319F081E08093520C0E94655E90C88A
:103400001092520C0E944B5E8EE295E0909345160E
:10341000809344160E94722B83C88091530C88239A
:1034200009F47EC883E50E94CC2C882309F478C86F
:103430000E94362CAB01BC014093CF0E5093D00EAE
:103440006093D10E7093D20E8EE19EE00E94A1ABEC
:1034500067C88091530C811103C0E5E4F5E029C0F1
:10346000E3E3F5E084918F010F5F1F4F882321F084
:103470000E94CF2DF801F6CF6091CF0E7091D00E43
:103480008091D10E9091D20E4AE00E94252E8FE2BB
:103490000E94CF2D6091CB0E7091CC0E8091CD0EFD
:1034A0009091CE0E4AE00E94252E8AE00E94CF2DF8
:1034B00037C884918F010F5F1F4F882311F40C943C
:1034C00090120E94CF2DF801F4CF0E94AD390C94D8
:1034D00090128091520C81110E9400B3E09042063C
:1034E000F090430680E50E949D2C182F882319F048
:1034F0000E945A2C182F8091530C882311F40C949D
:103500009012412F61E0C7010E943D6283E50E9455
:10351000CC2C882381F00E94362CAB01BC01409357
:10352000CF0E5093D00E6093D10E7093D20E8EE1D9
:103530009EE00E94A1AB8091530C882319F081E09A
:103540008093520C11110C94901257CF8091420627
:103550009091430621E02093510C40E060E00E94EE
:103560003D620C94901287E29CE00E94C9B168A36E
:1035700079A38AA39BA3BE016F5F7F4FCE01809684
:103580000E94F32C60E0CE0101960E94D492EBE9F8
:10359000F1E184918F010F5F1F4F882321F00E947A
:1035A000CF2DF801F6CFBE016F5F7F4F86E595E026
:1035B0000E94B96C8AE00E94CF2D0C94901283E592
:1035C0000E94CC2C882311F40C9490120E94462C5B
:1035D000E82E80E50E94CC2C882339F00E94362CFE
:1035E0008B0177FF04C00C9490120DE010E0802F47
:1035F000EEE0F8E09491891303C0E5E6F1E10AC03A
:103600003196B8E0E633FB07A9F70C94CF250E946A
:10361000CF2DF80184918F010F5F1F4F8111F7CFDC
:10362000E3E6F5E084918F010F5F1F4F882311F4CB
:103630000C9490120E94CF2DF801F4CF0E944B5EA3
:103640000C9490120E94CE570C9490120E94A835B0
:103650000C94901288E690E00E94922E81110C94B6
:1036600090128091331483FF02C00C94901283E572
:103670000E94CC2C8823D1F00E946A2C0E94CFDEBD
:10368000CB010E9406800E946A2C20E030E04AEACA
:1036900052E40E9490D618163CF00E94CE5760E08B
:1036A00082E795E00E94A7920E946A2C0E94B96D61
:1036B0000C9490128EE40E94CC2C882311F40C946C
:1036C00090120E94362C6093E31C7093E41C80934C
:1036D000E51C9093E61C0C94901283E50E94CC2C80
:1036E000882319F00E94462C01C080E08093331497
:1036F000EBE9F1E184918F010F5F1F4F811103C04E
:10370000E3E9F5E004C00E94CF2DF801F3CF8491E6
:103710008F010F5F1F4F882321F00E94CF2DF801EA
:10372000F6CF80913314811103C0EFE8F5E034C087
:1037300015E8C12E15E0D12EE12CF12C20E080916E
:10374000331490E00E2C02C0959587950A94E2F709
:1037500080FF17C0BB24B394B20E222319F08CE271
:103760000E94CF2DF60185919491FC0184918F01E7
:103770000F5F1F4F882321F00E94CF2DF801F6CF55
:103780002B2DEFEFEE1AFE0AF2E0CF0ED11C35E042
:10379000E316F104A1F60AC084918F010F5F1F4F59
:1037A000882321F00E94CF2DF801F6CF8AE00E94F5
:1037B000CF2D0C949012109232020C9490128AE940
:1037C00095E00E9495A20E94723D0C94901283E5B0
:1037D0000E94CC2C811103C0EBE9F1E10DC00E94E5
:1037E000462C8093A0028D3310F40C9490128CE33D
:1037F0008093A0020C94901284918F010F5F1F4F51
:10380000882321F00E94CF2DF801F6CF4091A0022D
:1038100050E060E070E082EA95E00E94666C8AE029
:103820000E94CF2D0C9490128091331483FF02C01C
:103830000C94901283E50E94CC2C882311F40C94F4
:1038400090120E946A2C0E94CFDE6739710514F035
:1038500066E970E07093A1106093A0100C94901230
:1038600089E690E00E94922E811111C0E9EAF5E00C
:1038700084918F010F5F1F4F882321F00E94CF2D6D
:10388000F801F6CF0E948B338AE00E94CF2D109270
:10389000AE101092AD100C943C2683E50E94CC2C07
:1038A000882311F40C9490120E94462C8093EB1CF8
:1038B0008D3318F08CE38093EB1C0E941BB56B01D9
:1038C0007C012091EB1C30E0A8EEB3E00E9473DD98
:1038D000C60ED71EE81EF91EC092E71CD092E81C47
:1038E000E092E91CF092EA1C0C94901283E50E948D
:1038F000CC2C882339F00E94362C8B016F3F710548
:1039000019F010F00FEF10E080E50E94CC2C81112F
:1039100006C010939B1000939A100C9490120E9472
:10392000462C81110C949012F4CF80E50E94CC2C8F
:10393000811106C010929B1010929A100C94901254
:103940000E94362C672B11F00C949012F3CF8CE46C
:103950000E949D2C882319F00E946A2C04C060E00C
:1039600070E080EA90EC68AB79AB8AAB9BAB8AE500
:103970000E94CC2C882319F00E946A2C03C060E0BE
:1039800070E0CB0120E030E040E751E40E94DADD56
:103990006CA77DA78EA79FA788E50E94CC2C8823C3
:1039A00019F00E946A2C03C060E070E0CB0120E0B7
:1039B00030E042E553E40E94DADD68A779A78AA7E0
:1039C0009BA789E50E94CC2C882319F00E946A2CC1
:1039D00003C060E070E0CB0120E030E04CED52E449
:1039E0000E94DADD6CA37DA38EA39FA319821A82A5
:1039F0001B821C8218A219A21AA21BA280919910E4
:103A000081110C949012A12CC12CCE0101967C0145
:103A10008E01005E1F4F9E012C5D3F4FAE01485D41
:103A20005F4FBE01645D7F4F8F960E94789C0C941F
:103A300090120E940D800E9400B30E94259B10925C
:103A40009B1010929A1068EE73E080E090E00E9464
:103A5000577D0C94901281E080939F100C949012EB
:103A600083E50E94CC2C8823A1F00E946A2C20E0E0
:103A700030E04AE754E40E94F6D60E94D6DE609316
:103A8000A1027093A2028093A3029093A4020C94CB
:103A9000901288E50E949D2C81110C94E72589E500
:103AA0000E949D2C81110C94E7258AE50E949D2C93
:103AB00081110C94E72585E40E949D2C81110C94C2
:103AC000E7250E9400B30E94259B0C94901283E589
:103AD0000E949D2C882311F40C9490120E946A2C51
:103AE00020E030E04AE754E40E94F6D60E94D6DE99
:103AF0006093F21C7093F31C8093F41C9093F51C5C
:103B00000C949012ABECCA2EA2E0DA2EB0E9EB2EA8
:103B1000B6E1FB2E10E0D6018D916D010E949D2C27
:103B2000882309F46DC0133009F063C00E946A2C29
:103B30004B015C0120E030E040EA51E40E9490D665
:103B400087FF4EC0A501940160919C1670919D164F
:103B500080919E1690919F160E945DDE2B013C0184
:103B60009B01AC01609107147091081480910914B5
:103B700090910A140E94F6D660930714709308146B
:103B80008093091490930A14A30192016091231465
:103B90007091241480912514909126140E94F6D6D9
:103BA0006093231470932414809325149093261407
:103BB0006091B2167091B3168091B4169091B516BB
:103BC0000E9495D6A30192010E94F6D60E94D6DEED
:103BD0006093B2167093B3168093B4169093B51693
:103BE00080929C1690929D16A0929E16B0929F165F
:103BF00007C00E946A2CF7016083718382839383DC
:103C00001F5FF4E0EF0EF11C143009F084CF0E9426
:103C1000116F0C9490120E94CF2DF80184918F01A6
:103C20000F5F1F4F8111F7CFE9E7F6E003C00E9455
:103C3000CF2DF80184918F010F5F1F4F8111F7CFB6
:103C4000E2E6F6E003C00E94CF2DF80184918F01D7
:103C50000F5F1F4F8111F7CFE2E5F6E003C00E942E
:103C6000CF2DF80184918F010F5F1F4F8111F7CF86
:103C7000E1E4F6E003C00E94CF2DF80184918F01AA
:103C80000F5F1F4F8111F7CFE0E3F6E003C00E9402
:103C9000CF2DF80184918F010F5F1F4F8111F7CF56
:103CA000E1E2F6E003C00E94CF2DF80184918F017C
:103CB0000F5F1F4F8111F7CFECE0F6E003C00E94C9
:103CC000CF2DF80184918F010F5F1F4F8111F7CF26
:103CD000E6EFF5E003C00E94CF2DF80184918F013B
:103CE0000F5F1F4F8111F7CFE1EEF5E003C00E9497
:103CF000CF2DF80184918F010F5F1F4F8111F7CFF6
:103D0000E4ECF5E003C00E94CF2DF80184918F010F
:103D10000F5F1F4F8111F7CFECEAF5E084918F011F
:103D20000F5F1F4F882311F40C9490120E94CF2D27
:103D3000F801F4CF85E40E949D2C882381F00E9435
:103D40005A2C882361F0EBE9F1E184918F010F5F38
:103D50001F4F882321F00E94CF2DF801F6CF81E478
:103D60000E949D2C882381F00E945A2C882361F0A8
:103D7000EEE4F7E084918F010F5F1F4F882321F05D
:103D80000E94CF2DF801F6CF009142061091430614
:103D9000D8018D918D01882309F408CD0E94CF2D83
:103DA000F7CF0E94CBA50C949012109208021092AB
:103DB0005D1D0C94901288EC90E00E94922E81116F
:103DC0000C94901284E40E949D2C882309F443C033
:103DD0000E946A2C6B017C0111E020E030E0A90117
:103DE0000E9490D6811101C010E010935E1D20E06A
:103DF00030E0A901C701B6010E9490D6882359F18D
:103E00000091440610E00E946A2C000F111F000F61
:103E1000111FF801EA55FD4F6083718382839383FC
:103E200020E030E0A9016091A6027091A702809184
:103E3000A8029091A9020E9490D681110CC080E046
:103E400090E0A0EEBFE38093A6029093A702A09318
:103E5000A802B093A9020E94369B0C949012F7011D
:103E600081917F010E949D2C882351F00E946A2C31
:103E70000E94D6DED8016D937D938D939C9313970A
:103E80000C5F1F4FB6E1063C1B0749F70E94E96D26
:103E90000C9490127BECE72E72E0F72E07E114E110
:103EA000F70181917F010E949D2C882341F00E949F
:103EB0006A2CD8016D937D938D939C9313970C5F1F
:103EC0001F4FB4E107321B0759F70C94901283E59A
:103ED0000E949D2C8823D9F00E946A2CAB01BC0162
:103EE00040930F1450931014609311147093121494
:103EF00040930B1450930C1460930D1470930E1494
:103F00008CEA97E00E94836C8AE00E94CF2D80E5C6
:103F10000E949D2C882399F00E946A2CAB01BC0161
:103F200040930F1450931014609311147093121453
:103F30008FE897E00E94836C8AE00E94CF2D82E593
:103F40000E949D2C882399F00E946A2CAB01BC0131
:103F50004093131450931414609315147093161413
:103F600080E797E00E94836C8AE00E94CF2D84E571
:103F70000E949D2C882311F40C9490120E946A2CAC
:103F8000AB01BC0140930B1450930C1460930D14BF
:103F900070930E1482E597E00E94836C8AE00E9481
:103FA000CF2D0C94901283E50E949D2C882351F014
:103FB0000E946A2C60932F147093301480933114F4
:103FC0009093321484E50E949D2C882351F00E9426
:103FD0006A2C60932B1470932C1480932D1490935F
:103FE0002E1482E40E949D2C882351F00E94262CDE
:103FF00060932714709328148093291490932A14A3
:1040000088E50E949D2C882351F00E946A2C6093C1
:10401000FB137093FC138093FD139093FE1389E5BB
:104020000E949D2C882351F00E946A2C6093FF13FC
:104030007093001480930114909302148AE50E94F7
:104040009D2C882351F00E946A2C60930314709376
:104050000414809305149093061485E40E949D2C0B
:10406000882311F40C9490120E946A2C6093071418
:10407000709308148093091490930A140C9490126E
:104080006BECE62E62E0F62E00E010E0F701819185
:104090007F010E949D2C882339F00E946A2CAB017D
:1040A000BC01C8010E94182B0F5F1F4F0330110580
:1040B00069F70E94CB2B0E9437420C949012849196
:1040C0008F010F5F1F4F882321F00E94CF2DF80131
:1040D000F6CF83E50E949D2C882321F00E945A2C64
:1040E0008093A502EEEFF7E084918F010F5F1F4FE1
:1040F000882321F00E94CF2DF801F6CF8091A502F0
:10410000882319F0E4EFF7E002C0E9EFF7E08491CB
:104110008F010F5F1F4F811103C0ECEEF7E004C069
:104120000E94CF2DF801F3CF84918F010F5F1F4FB5
:10413000882321F00E94CF2DF801F6CF40915F1621
:104140005091601660916116709162168AEE97E048
:104150000E94836C409163165091641660916516BD
:104160007091661687EE97E00E94836C4091671607
:10417000509168166091691670916A1684EE97E006
:104180000E94836CECEDF7E084918F010F5F1F4F6D
:10419000882321F00E94CF2DF801F6CF40910F0225
:1041A0005091100260911102709112028AED97E015
:1041B0000E94836C40911302509114026091150289
:1041C0007091160287ED97E00E94836C4091170270
:1041D000509118026091190270911A0284ED97E0D3
:1041E0000E94836C8AE00E94CF2D0C94901283E58C
:1041F0000E94CC2C882311F40C9490120E94362C2F
:1042000070938702609386020C9490128DED90E07B
:104210000E94922E81110C94901283E50E94CC2C66
:10422000882311F40C9490120091440610E00E942F
:10423000362C000F111FF801E75FFD4F718360837B
:104240000C94901280E50E949D2C882311F40C940C
:1042500090120E94362CF62EC62ED72E83E50E9491
:10426000CC2C882321F00E94362C8B0102C00FEF4A
:104270001FEFC8010196039710F00C949012D7FE1F
:1042800002C00C949012EEE0F8E086E398E02491EE
:10429000F21611F40C94901231968E179F07B9F70D
:1042A000C2C483E50E94CC2C882319F00E94362CCE
:1042B00002C064E071E079A368A380E50E94CC2C81
:1042C000882339F00E94362C6938F3E17F0730F4F7
:1042D00002C068EE73E07A83698304C088E893E1E2
:1042E0009A838983BE01605E7F4FCE0101960E9452
:1042F000AB580C94901285E40E94CC2C811110C014
:1043000080E50E949D2C882391F00E946A2C609386
:10431000BD027093BE028093BF029093C00207C09B
:104320000E94462C882361F3E5E6F1E172C089E43E
:104330000E949D2C882381F00E946A2C2CEA35EC87
:1043400047E25EE30E94F6D66093B9027093BA0228
:104350008093BB029093BC0284E40E949D2C88232E
:1043600081F00E946A2C2CEA35EC47E25EE30E9461
:104370005DDE6093C1027093C2028093C30290938A
:10438000C402EBE9F1E184918F010F5F1F4F882395
:1043900021F00E94CF2DF801F6CF4091BD0250913F
:1043A000BE026091BF027091C0028EE398E00E944D
:1043B000836C2CEA35EC47E25EE36091B9027091C0
:1043C000BA028091BB029091BC020E945DDEAB01FB
:1043D000BC018AE398E00E94836C2CEA35EC47E24A
:1043E0005EE36091C1027091C2028091C30290911C
:1043F000C4020E94F6D6AB01BC0186E398E00E949D
:10440000836C8AE00E94CF2D0C9490120E94CF2DD5
:10441000F80184918F010F5F1F4F8111F7CF09E7DA
:1044200013E0D8018D918D01882309F4BFC90E9442
:10443000CF2DF7CF80E50E949D2C882351F00E945C
:104440006A2C6093B5027093B6028093B702909382
:10445000B80289E40E949D2C882381F00E946A2C76
:104460002CEA35EC47E25EE30E94F6D66093B10297
:104470007093B2028093B3029093B40284E40E94DA
:104480009D2C882381F00E946A2C2CEA35EC47E2AF
:104490005EE30E945DDE6093AD027093AE02809396
:1044A000AF029093B002EBE9F1E184918F010F5FCD
:1044B0001F4F882321F00E94CF2DF801F6CF4091A5
:1044C000B5025091B6026091B7027091B8028AE4C9
:1044D00098E00E94836C2CEA35EC47E25EE3609141
:1044E000B1027091B2028091B3029091B4020E9425
:1044F0005DDEAB01BC0186E498E00E94836C2CEA8F
:1045000035EC47E25EE36091AD027091AE028091BE
:10451000AF029091B0020E94F6D6AB01BC0182E4DA
:1045200098E00E94836C8AE00E94CF2D0C94901238
:1045300083E50E949D2C182F882371F00E946A2C1D
:104540000E94CFDE709328026093270221E0672B40
:1045500009F020E02093C61680E50E949D2C882358
:1045600061F02091270230912802232B11F00E9444
:104570005A2C8093C6160C94901211110C94901220
:10458000EBE9F1E184918F010F5F1F4F882321F048
:104590000E94CF2DF801F6CF8091C616882319F01E
:1045A00068E975E002C065E773E083E698E00E9481
:1045B000B96C609127027091280282E598E00E9410
:1045C000A06CEEE4F8E084918F010F5F1F4F882309
:1045D00011F40C9490120E94CF2DF801F4CF0E9498
:1045E000C63D0C94901286E50E949D2C882391F084
:1045F0008091FA1380FF0EC0E3EAF8E084918F0106
:104600000F5F1F4F882321F00E94CF2DF801F6CFB6
:104610000E941AD083E50E949D2C182F882319F040
:104620000E945A2C182F83E50E949D2C882319F094
:10463000812F0E94462A8091FA138270F82E111160
:1046400003C0EBE9F1E11BC08111FBCFE5E6F1E12D
:1046500084918F010F5F1F4F811103C0E4E8F8E0E0
:1046600004C00E94CF2DF801F3CF84918F010F5F1A
:104670001F4F882331F30E94CF2DF801F6CF84918C
:104680008F010F5F1F4F882321F00E94CF2DF8016B
:10469000F6CFFF2019F06BE673E002C060E773E02D
:1046A00086E798E00E94B96C8AE00E94CF2D0C94B6
:1046B0009012E5E0FCE1FDABECAB87EC882E86E1E7
:1046C000982E90E8A92E96E1B92E2FE5C22E26E16C
:1046D000D22E3FE0232E32E0332E49EAE42E40E290
:1046E000F42E00E010E0ACA9BDA98D91BDABACAB40
:1046F000882309F486C0F501408051806280738070
:10470000D1012D913D914D915C91F60160817181B6
:10471000828193810E94DADD20E030E040E05FE3B7
:104720000E94F6D69B01AC01C301B2010E945DDF7D
:10473000181654F4F70185919591A591B4918EAB1B
:104740009FABA8AFB9AF04C01EAA1FAA18AE19AE7E
:10475000D4012D913D914D915C91C301B2010E9414
:10476000D9DD9B01AC016EA97FA988AD99AD0E94EE
:10477000D9DD2B013C0120E030E040EA51EC0E9401
:104780005DDF87FD0AC020E030E040EA51E4C3016C
:10479000B2010E9490D618161CF4E5E6F1E109C0BA
:1047A000B301A201C8010E94182B2BC00E94CF2D7B
:1047B000F80184918F010F5F1F4F8111F7CFE8ED52
:1047C000F8E084918F010F5F1F4F882321F00E9432
:1047D000CF2DF801F6CF61E08AEC98E00E94A79215
:1047E00088E290E09A83898388EC90E099A388A37B
:1047F000BE016F5F7F4FCE0180960E94AB580C9434
:1048000090120F5F1F4FB4E08B0E911CE4E0AE0ED0
:10481000B11CF4E0CF0ED11C24E0220E311C34E098
:10482000E30EF11C0330110509F05DCF0E94CB2B84
:104830000E94374260E089EB98E00E94A79283E9EA
:1048400092E099A388A304E610E01A830983BE01CD
:10485000605E7F4FCE0101960E94AB588AEB92E0DA
:1048600099A388A31A830983BE01605E7F4FCE019E
:1048700001960E94AB580C9490120E94EC878CEF2A
:1048800098E09A83898306E410E019A308A3BE0187
:104890006F5F7F4FCE0180960E94AB5884E59BE00E
:1048A0009A83898319A308A3BE016F5F7F4FCE014E
:1048B00080960E94AB580C9490120E9448A684E502
:1048C0009BE09A83898306E410E019A308A3BE0144
:1048D0006F5F7F4FCE0180960E94AB588CEF98E0BF
:1048E0009A83898319A308A3BE016F5F7F4FCE010E
:1048F00080960E94AB580C94901284918F010F5FA8
:104900001F4F882321F00E94CF2DF801F6CF83E0BE
:1049100090E09093AE108093AD101092AC109093F5
:10492000AB108093AA1085EC9BE00E9448961092F1
:10493000A6101092A7101092A8101092A91080E053
:104940000E94F45E80916F16882381F040E050E071
:104950006DE179E084E498E00E94FC9140E050E051
:1049600061E070E089EE97E00E941E9180916F16E1
:10497000882381F040E050E069E079E087E398E047
:104980000E94FC9140E050E062E070E089EE97E028
:104990000E941E9180916F16882381F040E050E0C4
:1049A00066EF78E08AE298E00E94FC9140E050E0F7
:1049B00063E070E089EE97E00E941E9180916E1690
:1049C000882329F01092AB101092AA1006C080E044
:1049D0000E94629710926F16B5CF8091AA109091A5
:1049E000AB108330910521F481E00E946297F5CFEE
:1049F00021E030E03093AE102093AD10892B11F000
:104A00000C94901280E00E94F45E80916F168823CF
:104A100081F040E050E06BE279E084E498E00E94AD
:104A2000FC9140E050E061E070E089EE97E00E9488
:104A30001E9180916F16882381F040E050E06AE279
:104A400079E087E398E00E94FC9140E050E062E06A
:104A500070E089EE97E00E941E9110926F160E94FE
:104A60001BB56093A6107093A7108093A810909325
:104A7000A9100C94901283E50E949D2C882311F4B8
:104A80000C9490120E945A2C8093C5100C94901292
:104A90000E94E23A0C9490120E94CF2DF80184916A
:104AA0008F010F5F1F4F8111F7CFE3E4F9E084918D
:104AB0008F010F5F1F4F882311F40C9490120E94F6
:104AC000CF2DF801F4CF81E08093AC021092471C07
:104AD00083E50E949D2C811104C00E94469C0C9489
:104AE00090120E945A2C81110C949012F6CFF090E3
:104AF0004706FF2029F1EBE9F1E184918F010F5F77
:104B00001F4F882321F00E94CF2DF801F6CF84E5B6
:104B10000E94CF2D6F2D70E080E090E04AE00E946F
:104B2000252E80E20E94CF2D09E713E0D8018D9158
:104B30008D01882311F40C94D61B0E94CF2DF6CF43
:104B40001092041CEBE9F1E184918F010F5F1F4F7C
:104B5000882321F00E94CF2DF801F6CF6091041C2C
:104B600070E082E599E00E94A06C8AE00E94CF2D5F
:104B70000C9490126091420670914306672B39F4B1
:104B8000BF0161507109709343066093420660E073
:104B900070E00C941F131092AC100C94901261E012
:104BA000802F0E94DCB36E2D802F0E94ADB3F12CBC
:104BB000B701802F0E9418B40930110511F00C9430
:104BC0009012F0929B10E0929A100C9490120E9416
:104BD00000B388E50E949D2C882319F05F9A1092FB
:104BE0004C1689E50E949D2C882319F08A9A109210
:104BF0004D168AE50E949D2C882351F09FB7F894AA
:104C0000809108018160809308019FBF10924E1629
:104C100085E40E949D2C882311F40C9490120E942C
:104C200060970C9490120E9400B360E08F2D0E9458
:104C3000DCB30F3FBFEF1B0759F48F2D0E9484B3E5
:104C400031E020E0892B09F030E0032F122F05C05E
:104C50000130110571F401E010E08F2D0E9484B342
:104C60008017910711F40C94901280E00E946297D3
:104C7000F4CF00E010E0F1CFE9960FB6F894DEBF74
:104C80000FBECDBFDF91CF911F910F91FF90EF909D
:104C9000DF90CF90BF90AF909F908F907F906F905C
:104CA0005F904F903F902F9008959091361DE92F7F
:104CB000F0E0E554FF4E80839F5F9A3018F49093A4
:104CC000361D02C01092361D809164138F5F809351
:104CD000641308958FB7F8949091E21C2091E11C21
:104CE000921759F0E92FF0E0EF59F34E208130E0B0
:104CF0009F5F9F779093E21C02C02FEF3FEF8FBF23
:104D0000C9010895089580E090E008952F923F92A0
:104D10004F925F926F927F928F929F92AF92BF92CB
:104D2000CF92DF92EF92FF920F931F93CF93DF9377
:104D300000D000D0CDB7DEB79A8389830E941BB51F
:104D4000E981FA81C680D780E084F184C114D1045E
:104D5000E104F10409F0ACC22485222309F469C3FB
:104D600032852150248721E0230F22874585241393
:104D700001C01286E981FA8124E0329FE00DF11D25
:104D80001124C684D784E088F188E981FA81C2823F
:104D9000D382E482F582DC01CB018C0D9D1DA11D27
:104DA000B11D86839783A087B18784819581892BE4
:104DB00009F43FC3FFB7FD83F894E981FA812280AB
:104DC00033802101612C712C04811581809137027F
:104DD000853221F08F3F09F068C205C0E0E9FEE1AD
:104DE00024912E83DAC085E280933702E0E9FEE168
:104DF00084918E838F3F09F458C2823009F469C0D0
:104E000030F5882309F44CC0813009F0C6C01092F7
:104E100080001092810080918100886080938100E1
:104E200080918100816080938100EAEAF2E2E4915E
:104E3000F0E0EE0FFF1FEF5AFD4D85919491E0EFEA
:104E4000F2E2E491E0937413E1E0EE8330C19E81DD
:104E5000943009F482C008F460C0953009F09DC018
:104E6000109220011092210180912101886080938D
:104E7000210180912101816080932101EAEAF2E21F
:104E8000E491F0E0EE0FFF1FEF5AFD4D85919491F4
:104E9000E0EFF2E2E491E093711395E09E8307C1A5
:104EA00014BC15BC84B5826084BD85B5816085BDA8
:104EB000EAEAF2E2E491F0E0EE0FFF1FEF5AFD4D57
:104EC00085919491E0EFF2E2E491E09375131E82F4
:104ED000ABC21092B0001092B1008091B00082601D
:104EE0008093B0008091B10081608093B100EAEAC4
:104EF000F2E2E491F0E0EE0FFF1FEF5AFD4D8591D5
:104F0000949190932C1C80932B1CE0EFF2E2E4919F
:104F1000E0932D1CF2E0FE8387C210929000109265
:104F20009100809191008860809391008091910020
:104F3000816080939100EAEAF2E2E491F0E0EE0F02
:104F4000FF1FEF5AFD4D85919491E0EFF2E2E4915D
:104F5000E093731323E02E83AAC01092A000109256
:104F6000A1008091A10088608093A1008091A100A0
:104F700081608093A100EAEAF2E2E491F0E0EE0FB2
:104F8000FF1FEF5AFD4D85919491E0EFF2E2E4911D
:104F9000E093721384E08E838AC0EE81E7FD85C1C1
:104FA00061E085E20E94DCB38E818D7F09F083C0D1
:104FB0004801A12CB12C60E072E18AE790E0A501E4
:104FC00094010E94AADD29833A834B835C836901A3
:104FD0007A01F1E0CF1AD108E108F1082FEFC216EB
:104FE000D104E104F10409F008F44EC060E472E475
:104FF0008FE090E0A50194010E94AADD69017A0189
:1050000081E0C81AD108E108F1089E81923009F5C3
:10501000EFEFCE16D104E104F10409F008F4CBC19E
:1050200060E970ED83E090E0A50194010E94AADDA3
:1050300069017A01F1E0CF1AD108E108F1082FEFF8
:10504000C216D104E104F10411F008F041C183E07B
:1050500027C08FEFC816D104E104F104B9F0B0F015
:1050600068E478EE81E090E0A50194010E94AADD59
:1050700069017A0191E0C91AD108E108F108EE81CD
:10508000EE2309F49AC163C181E001C082E09E81F0
:10509000911106C095B5987F892B85BD7AC085E0B2
:1050A0009091B100987F892B8093B10072C061E02C
:1050B00085E20E94DCB34801A12CB12C60E072E1D2
:1050C0008AE790E0A50194010E94AADD69017A01B6
:1050D000E1E0CE1AD108E108F108C114D104F1E0F1
:1050E000EF06F10488F068E478EE81E090E0A50135
:1050F00094010E94AADD69017A0181E0C81AD108F1
:10510000E108F10883E001C081E09E81913071F4F3
:1051100090918100987F892B8093810045284628B3
:105120004728D9F52FEF3FEFA90168C0EE81E330A2
:1051300071F490919100987F892B8093910045287C
:105140004628472851F52FEF3FEFA90179C0FE818E
:10515000F43071F49091A100987F892B8093A10085
:10516000452846284728C9F42FEF3FEFA9017AC008
:105170002E81253071F490912101987F892B8093A5
:10518000210145284628472841F42FEF3FEFA90188
:105190007BC045284628472869F0D801AA0FBB1FC5
:1051A00091010E9473DD28EE33E040E050E00E9460
:1051B00046DD03C02FEF3FEFA9018E81823081F1E0
:1051C0002CF4882361F08130C9F06FC09E81943047
:1051D00009F448C0ACF1953009F456C066C0C7BCAC
:1051E0002093861330938713409388135093891329
:1051F00080916E00826080936E0057C0D0928900CB
:10520000C0928800209382133093831340938413B9
:105210005093851380916F00826080936F0045C02A
:10522000C092B30020932E1C30932F1C4093301C4F
:105230005093311C8091700082608093700035C063
:10524000D0929900C092980020937E1330937F13E0
:1052500040938013509381138091710082608093FA
:10526000710023C0D092A900C092A80020937A13A5
:1052700030937B1340937C1350937D138091720085
:1052800082608093720011C0D0922901C0922801DF
:1052900020937613309377134093781350937913B8
:1052A00080917300826080937300ED81EFBFC1C075
:1052B000DC01CB018C199D09AE09BF09B7FDB9C04E
:1052C0004098E981FA811682178210861186B1C052
:1052D00068E478EE81E090E0A50194010E94AADDE7
:1052E00069017A01F1E0CF1AD108E108F1082FEF46
:1052F000C216D104E104F10441F138F164E274EF23
:1053000080E090E0A50194010E94AADD69017A0184
:10531000F1E0CF1AD108E108F1082FEFC216D1044D
:10532000E104F10409F008F4BACE62E17AE780E022
:1053300090E0A50194010E94AADD69017A0181E053
:10534000C81AD108E108F10819C084E0A9CE2FEFEE
:10535000C216D104E104F10409F008F463C062E16B
:105360007AE780E090E0A50194010E94AADD69013E
:105370007A01F1E0CF1AD108E108F1082FEFC21647
:10538000D104E104F104A9F0A0F089819A81AB81F4
:10539000BC812AE0B595A795979587952A95D1F771
:1053A0006C017D01F1E0CF1AD108E108F10887E036
:1053B00077CE86E075CE82E073CEEFEFCE16D104C5
:1053C000E104F10469F160F162E17AE780E090E0E4
:1053D000A50194010E94AADD69017A0181E0C81A41
:1053E000D108E108F1089FEFC916D104E104F104E6
:1053F000A9F0A0F089819A81AB81BC813AE0B59592
:10540000A795979587953A95D1F76C017D01E1E0D5
:10541000CE1AD108E108F10885E03CCE84E03ACE0E
:1054200083E038CE84E033CE61E085E20E94DCB3D5
:10543000BFCD26960FB6F894DEBF0FBECDBFDF916D
:10544000CF911F910F91FF90EF90DF90CF90BF9081
:10545000AF909F908F907F906F905F904F903F9014
:105460002F9008958EED9EE00E94867921E0892B91
:1054700009F420E0822F08958BE79FE00E9486794F
:1054800021E0892B09F420E0822F08959091FA13EE
:1054900091FB222720F98217C9F081110EC048E83C
:1054A00056E164E876E180E896E10E94F454809148
:1054B000FA138D7F8093FA13089590FFF8CF9260CE
:1054C0009093FA1380E896E10C94D46C08958F922F
:1054D0009F92AF92BF92CF92EF92FF920F931F9342
:1054E000CF93DF93CDB7DEB72C970FB6F894DEBF1E
:1054F0000FBECDBF4B015C01C090041CEFE4F6E190
:1055000080859185A285B3854481558166817781A7
:10551000008111812281338109831A832B833C838B
:105520004D835E836F83788789879A87AB87BC8733
:10553000AE01475F5F4FBE016B5F7F4FCE010196AB
:105540000E94F454850174012BE536E1AE01475FFA
:105550005F4FBE016B5F7F4FCE0101960E945C469C
:105560002C960FB6F894DEBF0FBECDBFDF91CF9162
:105570001F910F91FF90EF90CF90BF90AF909F90B1
:105580008F900895CF92DF92EF92FF920F931F9327
:10559000CF93DF93EC01CC0FDD1FCC0FDD1FFE019D
:1055A000E155FF4E20E030E0A901608171818281E8
:1055B00093810E94DADDFE01E15CF24E20813181AF
:1055C000428153810E94DADD6B017C01FE01E953C7
:1055D000F94E6083718382839383FE01EF52F24F11
:1055E00025913591459154918E01015A194E0E9491
:1055F000DADDF8016083718382839383FE01E352D5
:10560000F24F2591359145915491C15FDD4FC7010E
:10561000B6010E94DADD688379838A839B83DF91F8
:10562000CF911F910F91FF90EF90DF90CF90089551
:105630008F929F92AF92BF92EF92FF920F931F9320
:10564000CF93DF938C014A015B01EC01CC0FDD1F8E
:10565000CC0FDD1FCE018058994E7C01C155DF4E25
:10566000288139814A815B81C501B4010E94D9DD5D
:10567000F70120813181428153810E94DADDF701F7
:10568000608371838283938388829982AA82BB829A
:10569000C801DF91CF911F910F91FF90EF90BF90C4
:1056A000AF909F908F900C94C22ACF93FC012081E1
:1056B0002B33A9F0209164132A3088F4C62FBC0143
:1056C0008091361DF0E48F9FC00111248D519F4EB3
:1056D0000E9421E18C2F0E94552681E001C080E0CC
:1056E000CF910895DF92EF92FF920F931F93CF9384
:1056F000DF93CDB7DEB76E970FB6F894DEBF0FBE5F
:10570000CDBF60914416709145166115710549F140
:105710004DE150E0CE0101967C010E940AD61E8E1A
:10572000F7018F010E191F09D190DD2019F09AE0C1
:10573000D912F7CFF701E00FF11F1082C7010E94C5
:10574000DF58882371F0DD20A9F00F5F1F4F809193
:10575000441690914516080F191F10934516009393
:10576000441681E02091441630914516232B29F4EC
:1057700080E003C000E010E0F0CF6E960FB6F89422
:10578000DEBF0FBECDBFDF91CF911F910F91FF9074
:10579000EF90DF9008950F931F93CF93DF93CDB7D2
:1057A000DEB72C970FB6F894DEBF0FBECDBFE0E892
:1057B000F6E180859185A285B38544815581668116
:1057C0007781008111812281338109831A832B83A0
:1057D0003C834D835E836F83788789879A87AB8705
:1057E000BC87AE01475F5F4FBE016B5F7F4FCE014D
:1057F00001960E94F4542CE836E1AE01475F5F4FFA
:10580000BE016B5F7F4FCE0101960E94446E2C96C5
:105810000FB6F894DEBF0FBECDBFDF91CF911F91C1
:105820000F91089580E1E0E8F6E1AFE4B6E1019080
:105830000D928A95E1F7089580E1EFE4F6E1A0E8A2
:10584000B6E101900D928A95E1F7089580916F136A
:1058500090917013009731F04AE050E060E070E002
:105860000C94CAD460E070E0CB01089580916F136E
:1058700090917013009731F04AE050E060E070E0E2
:105880000C949CD360E070E0CB0108950E94362C0C
:1058900097FD0CC00E94362C6F3F71058105910564
:1058A00009F034F40E94362C862F089580E0089584
:1058B0008FEF089580916F1390917013892B39F0B9
:1058C0000E94462C91E0811103C090E001C091E05C
:1058D000892F08950F931F93CF9380916F13909109
:1058E00070130097F1F0FC018F01C1912C2F2F7DD7
:1058F00089F0C53411F0C536B9F7F801108260E0BF
:1059000070E00E9440D2F801C083562F472F382FF5
:10591000292F0BC060E070E0CF911F910F910C9484
:1059200040D250E040E030E020E0652F742F832F1C
:10593000922FCF911F910F91089581548A3150F584
:10594000482F50E0FA0193E0F595E7959A95E1F735
:10595000E25CF94F208130E0877002C035952795D1
:105960008A95E2F7822F817020FF15C0FA01EC5D65
:10597000F94F9081992339F02091EC1C3091ED1C66
:10598000290F311D02C020E030E0309370132093C6
:105990006F13089580E008950E949D2C882341F0A4
:1059A00081E020916F1330917013232B09F480E074
:1059B0000895FC01238121110C945B8108952091AD
:1059C0006E0690916F0681E0291301C080E0089572
:1059D0000E941BB56093EE1C7093EF1C8093F01C2B
:1059E0009093F11C08952F923F924F925F926F9285
:1059F0007F928F929F92AF92BF92CF92DF92EF925F
:105A0000FF920F931F93CF93DF93EB01FC018080F4
:105A10009180A280B380C501B40120E831E541E066
:105A200050E00E9446DDC9016DE671E00E9482DD12
:105A30006B017C01C501B40120E13EE040E050E093
:105A40000E9446DDCA01B90128E130E040E050E0A3
:105A50000E9446DD362E272E062F172F8CE3482E68
:105A6000512C612C712CC501B401A30192010E943B
:105A700046DDB62EA72ECA01B901A30192010E94EC
:105A800046DDCB01C114D104D9F0AF92BF927F9310
:105A90006F932F923F92FF92EF92DF92CF9280E42A
:105AA0009CE09F938F93DF93CF930E9461D68DB735
:105AB0009EB70E960FB6F8949EBF0FBE8DBF5CC00A
:105AC000E114F104C9F0AF92BF927F936F932F92CC
:105AD0003F92FF92EF9280E39CE09F938F93DF933E
