:100000000C9416120C9447120C9447120C9447123D
:100010000C9447120C9447120C9473820C94471260
:100020000C9447120C9447120C9447120C944712EC
:100030000C9447120C940DAF0C9447120C94471279
:100040000C9447120C945D3E0C9447120C9447128A
:100050000C9447120C9447120C94BE5D0C94072428
:100060000C9447120C94EE3C0C941C3D0C944712DB
:100070000C9447120C9447120C9447120C9447129C
:100080000C9447120C9447120C9447120C9447128C
:100090000C9447120C9447120C9447120C9447127C
:1000A0000C9447120C9447120C9447120C9447126C
:1000B0000C9447120C9447120C9447120C9447125C
:1000C0000C9447120C9447120C9447120C946345FD
:1000D0000C9439450C9447120C9447120C94471217
:1000E0000C9447124E414E494E495459494E46CD03
:1000F000CCCC3D0AD7233C17B7D13877CC2B3295DF
:1001000095E6241FB14F0A000020410000C84200BC
:10011000401C4620BCBE4CCA1B0E5AAEC59D740086
:10012000407A10F35A00A0724E18090010A5D4E8C6
:100130000000E87648170000E40B54020000CA9A59
:100140003B000000E1F505000080969800000040AB
:10015000420F000000A086010000001027000000F0
:1001600000E803000000006400000000000A000036
:100170000000000100000000002C76D888DC674FEA
:100180000823DFC1DFAE59E1B1B796E5E3E453C61A
:100190003AE651997696E8E6C28426EB898C9B6212
:1001A000ED407C6FFCEFBC9C9F40F2BAA56FA5F4BC
:1001B00090055A2AF75C936B6CF9676DC11BFCE0E4
:1001C000E40D47FEF520E6B500D0ED902E03009437
:1001D0003577050080841E080000204E0A000000CC
:1001E000C80C333333330F986E12831141EF8D21D6
:1001F00014893BE65516CFFEE6DB18D1844B381B3D
:10020000F77C1D901DA4BBE424203284725E228101
:1002100000C9F124ECA1E53D27434F4D4D554E4912
:10022000434154494F4E0044525952554E00455295
:10023000524F525300494E464F004543484F0045E8
:1002400072726F722077726974696E6720746F20A2
:10025000454550524F4D210A00290A002062797409
:1002600065733B20637263200053657474696E6725
:10027000732053746F726564202800202863616CBA
:1002800063756C6174656429210A0020213D20009A
:10029000454550524F4D20435243206D69736D6167
:1002A000746368202D202873746F726564292000A0
:1002B000290A002062797465733B20637263200011
:1002C0002073746F7265642073657474696E6773EC
:1002D00020726574726965766564202800204D611E
:1002E000726C696E3D563339290A002845455052D3
:1002F0004F4D3D00454550524F4D20766572736914
:100300006F6E206D69736D6174636820004861725F
:1003100064636F6465642044656661756C74205322
:10032000657474696E6773204C6F616465640A005C
:1003300088130000881300006400000028230000D8
:100340000000964300009643000048420000A0428F
:100350000000A0420000A0420000484400002043EA
:1003600020440020490020204D333034205000200C
:10037000440020490020204D3330312050005049A6
:10038000442073657474696E67733A0A00205A00DA
:100390002059002020473239205333205800202094
:1003A0004D3432302053004D65736820426564201F
:1003B0004C6576656C696E673A0A00205A002059D0
:1003C0000020204D323036205800486F6D65206F78
:1003D00066667365743A0A00204500205A00205969
:1003E0000020580020420020540020204D3230359B
:1003F000205300416476616E6365643A20533C6D1E
:10040000696E5F66656564726174653E20543C6D1B
:10041000696E5F74726176656C5F66656564726152
:1004200074653E20423C6D696E5F7365676D656EF5
:10043000745F74696D655F6D733E20583C6D6178C3
:100440005F78795F6A65726B3E205A3C6D61785FB8
:100450007A5F6A65726B3E20453C6D61785F655FCF
:100460006A65726B3E0A0020540020520020204D25
:10047000323034205000416363656C657261746989
:100480006F6E2028756E6974732F7332293A20506D
:100490003C7072696E745F616363656C3E20523CB0
:1004A000726574726163745F616363656C3E20544E
:1004B0003C74726176656C5F616363656C3E0A00D3
:1004C000204500205A0020590020204D3230312094
:1004D00058004D6178696D756D20416363656C6589
:1004E000726174696F6E2028756E6974732F733230
:1004F000293A0A00204500205A0020590020204DAA
:100500003230332058004D6178696D756D20666515
:10051000656472617465732028756E6974732F73D6
:10052000293A0A00204500205A0020590020204D79
:1005300039322058005374657073207065722075CD
:100540006E69743A0A0020204D3230302044300A5F
:100550000020204D32303020440020446973616215
:100560006C65640A0046696C616D656E7420736524
:100570007474696E67733A0020204732312020205E
:10058000203B20556E69747320696E206D6D0A00E2
:1005900066696C616D656E743A20007A5F6D617892
:1005A0003A2000795F6D696E3A2000785F6D61785E
:1005B0003A20005265706F7274696E6720656E64D0
:1005C00073746F70207374617475730A0025697396
:1005D0000025696D20256973002569682025696DEE
:1005E0002025697300256964202569682025696DC7
:1005F00020256973002569792025696420256968AB
:100600002025696D202569730055626974792E2053
:10061000005A6174727A796D616E792E2000507281
:10062000696E7465722073746F7070656420647590
:100630006520746F206572726F72732E2046697820
:1006400020746865206572726F7220616E64207517
:100650007365204D39393920746F20726573746168
:1006600072742E202854656D7065726174757265A0
:100670002069732072657365742E20536574206938
:100680007420616674657220726573746172746936
:100690006E67290A004E6F204C696E65204E756D9D
:1006A000626572207769746820636865636B73752F
:1006B0006D2C204C617374204C696E653A20004E9D
:1006C0006F20436865636B73756D2077697468206C
:1006D0006C696E65206E756D6265722C204C61735D
:1006E00074204C696E653A2000636865636B7375AE
:1006F0006D206D69736D617463682C204C61737437
:10070000204C696E653A20004C696E65204E756D0F
:10071000626572206973206E6F74204C617374205F
:100720004C696E65204E756D6265722B312C204CC4
:10073000617374204C696E653A20004D3131300090
:100740004D3331004D383420582059205A2045006F
:1007500053442072656164206572726F720A0044AE
:100760006F6E65207072696E74696E672066696C61
:10077000650A0020496E76616C6964206578747240
:100780007564657220000000000000000000000099
:10079000000000004D430000524300004E43206E15
:1007A0006F7420656E74657265642E0A000A4D656B
:1007B00061737572656420706F696E74733A0A00B4
:1007C0005A206F66667365743A20004E756D205826
:1007D0002C593A20322C320A0044656C6574696FDA
:1007E0006E206661696C65642C2046696C653A20F0
:1007F0000046696C652064656C657465643A006FD9
:1008000070656E206661696C65642C2046696C6554
:100810003A20006D0046696C616D656E74207573D9
:1008200065643A200053746174733A20002C204CA4
:100830006F6E67657374206A6F623A2000546F743C
:10084000616C2074696D653A200053746174733A69
:1008500020002C204661696C65643A20002C2046FB
:10086000696E69736865643A20005072696E7473CA
:100870003A200053746174733A2000202F00204204
:10088000403A0020403A00526F7A67727A616E6F88
:100890000020573A005072696E746F2048332B2045
:1008A000676F746F77612E00526F7A67727A616E2C
:1008B0006F2073746F6C0020573A00526F7A677222
:1008C0007A6577616E69652073746F6C752E2E2E54
:1008D00000205A3A0020423A0020436F756E74207F
:1008E000413A0020453A00205A3A0020593A00582F
:1008F0003A004B64200023646566696E65202044DD
:10090000454641554C545F004B69200023646566A1
:10091000696E65202044454641554C545F004B703C
:10092000200023646566696E652020444546415574
:100930004C545F0050494420756B6F6E637A6F6E44
:100940006F00504944204175746F74756E65206660
:10095000696E6973686564212050757420746865D8
:10096000206C617374204B702C204B6920616E6485
:10097000204B6420636F6E7374616E7473206672B3
:100980006F6D2062656C6F7720696E746F20436FA6
:100990006E66696775726174696F6E2E680A0050C1
:1009A0004944204175746F74756E65206661696C89
:1009B0006564212074696D656F75740A005049443F
:1009C00020626C61643A206F76657273686F7400A0
:1009D00050494420626C6164206B616C6962726191
:1009E000636A6900504944204175746F74756E657F
:1009F000206661696C6564212054656D7065726163
:100A00007475726520746F6F20686967680A0020CA
:100A10004B643A2000204B693A2000204B703A206A
:100A2000000A20436C617373696320504944200AB3
:100A3000002054753A2000204B753A2000206D614B
:100A4000783A2000206D696E3A200020643A200038
:100A500020626961733A200050494420726F7A70B5
:100A60006F637A65746F004D65736820706F696E8F
:100A7000742063616E6E6F74206265207265736F9F
:100A80006C7665640A004D34323120696E636F7292
:100A90007265637420706172616D65746572207532
:100AA000736167650A002066697273740A005A00F0
:100AB00059005800486F6D652000557370696A2EA3
:100AC0002E2E004D3530300059206F7574206F6622
:100AD0002072616E67652028312D32292E0A005858
:100AE000206F7574206F662072616E6765202831F3
:100AF0002D32292E0A004D6573682070726F62696D
:100B00006E6720646F6E652E0A00537461727420E4
:100B10006D6573682070726F62696E6720776974A3
:100B2000682022473239205331222066697273745B
:100B30002E0A004732380A473239205332004D65B9
:100B4000736820626564206C6576656C696E6720E9
:100B5000686173206E6F20646174612E0A005374A3
:100B60006174653A200053206F7574206F6620729F
:100B7000616E67652028302D35292E0A004D65737A
:100B80006820706F696E742063616E6E6F7420628E
:100B900065207265736F6C7665640A004F637A65D1
:100BA0006B6977616E69652E2E2E004D30004272A2
:100BB000616B20727563687500456E642066696CB0
:100BC00065206C6973740A00426567696E20666906
:100BD0006C65206C6973740A004D313235005344E2
:100BE000207072696E74696E672062797465200086
:100BF0004E6F74205344207072696E74696E670A78
:100C0000005072696E742074696D653A20005072EC
:100C10006F7465637465642050696E0A0050726970
:100C20006E746F2048332B20676F746F77612E00CE
:100C30006F6666003A0235022E0227021902444509
:100C40004255473A0055626974792E20004D313182
:100C5000332053006F6B004361703A454D45524756
:100C6000454E43595F5041525345523A300A004372
:100C700061703A434153455F4C494748545F425283
:100C8000494748544E4553533A300A004361703A3D
:100C9000544F47474C455F4C49474854533A300AF4
:100CA000004361703A534F4654574152455F504F8D
:100CB0005745523A300A004361703A4C4556454C0C
:100CC000494E475F444154413A310A004361703A0A
:100CD0005A5F50524F42453A300A004361703A41E0
:100CE00055544F4C4556454C3A300A004361703AD2
:100CF0005052494E545F4A4F423A310A00436170A4
:100D00003A50524F47524553533A300A00436170AC
:100D10003A4155544F5245504F52545F54454D50EF
:100D20003A310A004361703A454550524F4D3A31CD
:100D30000A004649524D574152455F4E414D453A92
:100D40004D61726C696E20312E332E31622028473E
:100D500069746875622920534F555243455F434F6C
:100D600044455F55524C3A68747470733A2F2F673C
:100D700069746875622E636F6D2F4D61726C696E58
:100D80004669726D776172652F4D61726C696E2074
:100D900050524F544F434F4C5F56455253494F4E5C
:100DA0003A312E30204D414348494E455F54595009
:100DB000453A5072696E746F2048332B2045585461
:100DC00052554445525F434F554E543A3120555584
:100DD00049443A63656465326132662D343161326B
:100DE0002D343734382D396231322D633535633641
:100DF000326633363766660A002F2F20005365743B
:100E000074696E672054726176656C204163636516
:100E10006C65726174696F6E3A2000536574746911
:100E20006E67205265747261637420416363656C00
:100E300065726174696F6E3A200053657474696EEF
:100E400067205072696E7420416363656C657261DE
:100E500074696F6E3A200053657474696E67205030
:100E600072696E7420616E642054726176656C20C4
:100E7000416363656C65726174696F6E3A2000202E
:100E80005A00205900580020204D61783A20002057
:100E90005A00205900580020204D696E3A20005712
:100EA0006C2E200057796C2E00536F667420656E8F
:100EB0006473746F70733A20000001363726FF02A6
:100EC0003C3D380EFF2E303EFF13FF0C0809FFFF9C
:100ED000FF1A1C18FFFF08440AFF43FFFFFFFFFF34
:100EE000FF20643A0020693A0020703A0020643AFA
:100EF0000020693A0020703A0043290A0061626CC0
:100F0000656420286D696E2074656D702000436FE4
:100F10006C642065787472756465732061726520F5
:100F200000426564204C6576656C696E67200046FA
:100F300061696C656420746F20656E61626C652008
:100F4000426564204C6576656C696E670A004D6584
:100F5000736820426564204C6576656C206461741A
:100F6000613A0A004572723A20546F6F20666172CE
:100F70002100546F6F206661722066726F6D20725F
:100F800065666572656E636520706F696E740A00D0
:100F9000506F7A2E207A65726F7761207573742E88
:100FA0000061627920777A6E6F7769632077796460
:100FB00072756B0066696C616D656E747520692071
:100FC0006B6C696B6E696A005573756E206E616437
:100FD0006D6961720000577A6E617769616E69654B
:100FE0002077796472756B75004D383132004E6F21
:100FF0002063617365206C696768740A00416374DB
:101000006976652045787472756465723A2000557A
:101010006E6B6E6F776E20636F6D6D616E643A20DC
:101020002200526573656E643A20006F6B00206386
:101030006F6C6420657874727573696F6E2070725E
:101040006576656E7465640A00627573793A20701E
:10105000617573656420666F7220696E7075740ABD
:1010600000627573793A2070617573656420666FEC
:101070007220757365720A00627573793A20707216
:101080006F63657373696E670A004D3630300055C3
:10109000626974792E20004B494C4C206361757352
:1010A0006564206279204B494C4C20627574746FE2
:1010B0006E2F70696E0A0055626974792E20004B9C
:1010C000494C4C2063617573656420627920746FAC
:1010D0006F206D75636820696E6163746976652041
:1010E00074696D65202D2063757272656E7420635E
:1010F0006F6D6D616E643A20005072696E74657236
:101100002068616C7465642E206B696C6C282920E2
:1011100063616C6C6564210A00506F7765724C6F77
:1011200073732E2E0A0000004D43000000000000E3
:101130004E430000A0420000A0420000F041000029
:1011400000005761726E696E673A20486F6D696E74
:10115000672042756D702044697669736F72203C18
:1011600020310A000202080000A0400000A0400058
:1011700000A04000004D430000524300004E4301D8
:10118000FF014D36303020486F74656E6420746FF7
:101190006F20636F6C6420746F206368616E676595
:1011A0002066696C616D656E740A0020636F6C6403
:1011B00020657874727573696F6E207072657665DC
:1011C0006E7465640A007C3C3E5E2B3D3F2F5B5D88
:1011D0003B2C2A225C0024F4D43050C38E20C2A2BF
:1011E0004017828B7011127A910D816CD90AA86117
:1011F000E108C7586607615143061E4B5D05C145AE
:10120000A7041A411104093D98037139310340368E
:10121000DB0265339102D4305402802E1D02632C10
:10122000EE01752AC501B028A001102781018F2584
:1012300064012B244B01E0223401AC211F018D20DD
:101240000D01801FFC00841EED00971DDF00B81CFF
:10125000D200E61BC600201BBC00641AB200B21903
:10126000A8000A19A0006A189900D1179100401728
:101270008B00B516840031167E00B31579003A153F
:101280007300C7146F0058146A00EE1366008813C9
:10129000630025135E00C7125B006C125700151225
:1012A0005400C111510070114F0021114B00D61094
:1012B00049008D1047004610440002104200C00F44
:1012C0004000800F3E00420F3C00060F3B00CB0E5B
:1012D0003800930E37005C0E3500270E3400F30DF6
:1012E0003200C10D3100900D3000600D2E00320D26
:1012F0002D00050D2C00D90C2B00AE0C2900850CFF
:1013000029005C0C2700350C27000E0C2600E80B8A
:101310002400C40B2400A00B23007D0B23005A0BD8
:101320002100390B2100180B2000F80A1F00D90AF0
:101330001E00BB0A1E009D0A1D00800A1D00630AD4
:101340001C00470A1B002C0A1B00110A1A00F7098F
:101350001A00DD091900C4091900AB091900920926
:1013600017007B091800630917004C09160036099D
:101370001600200916000A091500F5081500E008F6
:101380001400CC081400B8081400A4081400900835
:1013900013007D0812006B0813005808120046085D
:1013A000120034081100230811001208110001086E
:1013B0001100F0071000E0071000D0071000C00770
:1013C0001000B0070F00A107100091070E0083075F
:1013D0000F0074070F0065070E0057070E0049073E
:1013E0000E003B070D002E070E0020070D0013070F
:1013F0000D0006070D00F9060C00ED060D00E006D5
:101400000C00D4060C00C8060C00BC060C00B0068C
:101410000C00A4060B0099060C008D060B0082063A
:101420000B0077060B006C060B0061060A005706DE
:101430000B004C060A0042060A0038060A002E0677
:101440000A0024060A001A060A0010060900070608
:101450000A00FD050900F4050900EB050900E20595
:101460000900D9050900D0050900C7050900BE0516
:101470000900B5050800AD050800A50509009C0593
:101480000800940508008C050800840508007C0508
:101490000800740508006C050700650508005D0577
:1014A0000700560508004E050700470507004005E0
:1014B000080038050700310507002A050700230545
:1014C00007001C050600160507000F0507000805A4
:1014D000060002050700FB040600F5040700EE0401
:1014E0000600E8040600E2040700DB040600D50459
:1014F0000600CF040600C9040600C3040600BD04AC
:101500000600B7040600B1040500AC040600A604FA
:101510000600A00405009B04060095040500900445
:1015200006008A04050085040500800406007A048C
:10153000050075040500700405006B0405006604D1
:101540000500610405005C04050057040500520411
:1015500005004D04050048040500430405003E0451
:1015600004003A04050035040500300404002C048E
:10157000050027040400230405001E0404001A04C7
:10158000040016040500110404000D0404000904FD
:1015900005000404040000040400FC030400F80334
:1015A0000400F4030400F0030400EC030400E80367
:1015B0000400E4030400E0030400DC030400D80397
:1015C0000400D4030400D0030400CC030400C803C7
:1015D0000300C503030024F404D9201BC40C5C0ED3
:1015E0009804C4095F0265077101F405F900FB0462
:1015F000B30048048700C103690058035500030382
:101600004500BE023A008402310053022A0029023A
:10161000250004022000E4011C00C8011900AF01EC
:10162000170098011400840113007101100061017A
:10163000100051010E0043010D0036010B002B017B
:101640000B0020010B00150109000C01090003012A
:101650000800FB000800F3000800EB000700E400AE
:101660000600DE000600D8000600D2000600CC000E
:101670000500C7000500C2000500BD000400B90058
:101680000400B5000400B1000400AD000400A9008E
:101690000400A5000300A20003009F0004009B00BB
:1016A00003009800030095000200930003009000DF
:1016B00003008D0002008B000300880002008600FA
:1016C000020084000300810002007F0002007D0010
:1016D00002007B0002007900020077000100760022
:1016E00002007400020072000100710002006F002D
:1016F00002006D0001006C0002006A000100690038
:10170000020067000100660001006500010064003E
:1017100002006200010061000100600001005F0042
:1017200002005D0001005C0001005B0001005A0046
:101730000100590001005800010057000100560047
:101740000100550001005400010053000000530047
:1017500001005200010051000100500001004F0043
:1017600001004E0000004E0001004D0001004C0041
:1017700001004B0000004B0001004A00010049003D
:101780000100480000004800010047000100460039
:101790000000460001004500000045000100440033
:1017A000010043000000430001004200000042002D
:1017B00001004100000041000100400001003F0025
:1017C00000003F0001003E0000003E0001003D001F
:1017D00000003D0001003C0000003C0000003C0017
:1017E00001003B0000003B0001003A0000003A000D
:1017F0000100390000003900010038000000380005
:1018000000003800010037000000370001003600FA
:1018100000003600000036000100350000003500F1
:1018200000003500010034000000340000003400E6
:1018300001003300000033000000330001003200DB
:1018400000003200000032000100310000003100D1
:1018500000003100010030000000300000003000C6
:1018600001002F0000002F0000002F0000002F00BB
:1018700001002E0000002E0000002E0001002D00AF
:1018800000002D0000002D0000002D0001002C00A4
:1018900000002C0000002C0000002C0001002B0098
:1018A00000002B0000002B0000002B0001002A008C
:1018B00000002A0000002A0000002A000100290080
:1018C0000000290000002900000029000000290074
:1018D0000100280000002800000028000000280067
:1018E000000028000100270000002700000027005A
:1018F000000027000000270001002600000026004D
:10190000000026000000260000002600010025003F
:101910000000250000002500000025000000250033
:101920000000250001002400000024000000240025
:101930000000240000002400010023000000230018
:10194000000023000000230000002300000023000B
:1019500000002300010022000000220000002200FD
:1019600000002200000022000000220001002100EF
:1019700000002100000021000000210000002100E3
:1019800000002100000021000100200000002000D4
:1019900000002000000020000000200000002000C7
:1019A000000020000000200001001F0000001F00B8
:1019B00000001F0000001F0000001F0000001F00AB
:1019C00000001F0001001E0000001E0000001E009D
:1019D00000001E0000004D383420582059205A20A5
:1019E00045006265640A002C2073797374656D206C
:1019F00073746F7070656421204865617465725FEF
:101A000049443A20005A616E696B2074656D702EEE
:101A100000546865726D616C2052756E61776179F2
:101A200000526F7A67727A2E206E69657564616EF6
:101A3000650048656174696E67206661696C6564FC
:101A40000070012C0190012701B0012201C0011D8D
:101A500001F00118011002130130020E01600209A9
:101A60000190020401C002FF000003FA004003F5E8
:101A7000008003F000D003EB002004E6007004E1D6
:101A800000E004DC004005D700C005D2004006CDD0
:101A900000D006C8008007C3003008BE00F008B9B7
:101AA00000C009B400B00AAF00B00BAA00D00CA56A
:101AB00000000EA000500F9B00C010960050129125
:101AC0000000148C00C0158700B0178200B0197D8B
:101AD00000D01B7800001E730040206E0090226929
:101AE00000F024640040275F0090295A00E02B5545
:101AF00000102E500020304B0010324600E03341E1
:101B00000090353C001037370070383200A0392D76
:101B100000B03A2800A03B2300603C1E00103D1995
:101B200000903D1400103E0F00703E0A00C03E05BC
:101B300000003F0000403FFBFF803FF6FFC03FF149
:101B4000FF457272206D696E2074656D702073742C
:101B50006F6C7500457272206D696E2074656D70D2
:101B6000004D494E54454D50207472696767657247
:101B7000656400457272206D61782074656D702017
:101B800073746F6C7500457272206D617820746596
:101B90006D70004D415854454D502074726967670F
:101BA000657265640057796472756B20777374721F
:101BB0007A796D616E79004D31323500577A6E6FEA
:101BC0007769656E6965004D3234004732392053BC
:101BD000320070726F626573656E643A0A004E4936
:101BE000450054414B0054414B004D2042204C00D5
:101BF000323032302D31312D313700312E332E310C
:101C00006200256C642E25696D007A6170697361CC
:101C10006E65007A616C61646F77616E6500546512
:101C20006D702E206D696E3A20313730006B6F6E0B
:101C300074796E756F77616300726F7A67727A6517
:101C40006A2061627900476C6F77696361206A6519
:101C50007374207A696D6E612C004D3630302042ED
:101C6000300047393000473931004D3834004732B1
:101C700038004472756B2070727A657277616E7984
:101C8000004B61727461207573756E6965746100D3
:101C900073645F7374617475733A747275650A0066
:101CA0004B6172746120776C6F7A6F6E6100736440
:101CB0005F7374617475733A66616C73650A007A58
:101CC0006D69616E61207364206465743A0A002551
:101CD000756420253032753A2530327500202F206A
:101CE0000000002100240027002A002D00300033CE
:101CF0000001010000040107010A01000022002583
:101D00000028002B002E00310034000201000005E5
:101D10000108010B01000020002300260029002CEF
:101D2000002F003200000100000301060109010537
:101D3000050505070508080808020202020A0A0844
:101D4000080404040401010101010101010303036A
:101D50000303030303040707070C0C0C0C0C0C0C07
:101D60000C0202020206060606060606060B0B0B0E
:101D70000B0B0B0B0B010210202008081020401049
:101D8000204080020102010804020101020408103F
:101D9000204080804020100804020180040201805D
:101DA0004020100804020108040201010204081086
:101DB000204080010204081020408000000A0B022D
:101DC000090C0D0E080703040100000000000000CC
:101DD0000000000000000000000000000000000003
:101DE00000000000000000121110000000000000C0
:101DF00000000000000000000000000000000000E3
:101E000000206E6965207765737A6C6F20772039C2
:101E10003630302070726F62612077656A73636953
:101E200061206E6120313135200A00207765737A98
:101E30006C6F207720393630302C2070726F6261E1
:101E4000207A6D69616E79206E6120313135200A0A
:101E50000020636F6E6E6563746564210A0020372D
:101E60000020342E330020332E350020332E320054
:101E700020322E34004E657874696F6E004E65789E
:101E800074696F6E206E6F7420636F6E6E6563741D
:101E9000656421004E69650054616B00437A7920C6
:101EA000777A6E6F7769632077796472756B3F001C
:101EB00057796B7279746F207A616E696B206E61ED
:101EC00070696563696100706F207A616E696B7516
:101ED000207A6173696C616E696100577A6E61770F
:101EE00069616E69652077796472756B75004D3133
:101EF0003137204472756B6F77616E69652E2E00E5
:101F00004739322045004D383200204633303030DA
:101F10000020453138002059004731205800204624
:101F200033303030004731205A004D3831320020F4
:101F300046333030300020453135002059004731DC
:101F40002058004D3233202573002E67636F004DFB
:101F500031393020532564004D3130392053256408
:101F6000006261627973686966743A0061667465DB
:101F700072686F6D653A006265666F72653A00421D
:101F8000617A6F77616E6965206F736900706F2089
:101F90007A616E696B75207A6173696C616E6961D3
:101FA000005572756368616D69616E6965004732DD
:101FB00038002020506C616E6E65724275666665F1
:101FC0007242797465733A20002046726565204D2F
:101FD000656D6F72793A2000436F6D70696C65644E
:101FE0003A204E6F7620313720323032300A0020CE
:101FF0007C20417574686F723A20285072696E7443
:102000006F33642E706C2C204A616B7562205369AB
:102010006B6F7261290A00323032302D31312D312F
:102020003700204C61737420557064617465643AA4
:102030002000312E332E31620A004D61726C696EC0
:102040000020536F66747761726520526573657402
:102050000A00205761746368646F67205265736576
:10206000740A002042726F776E206F75742052657B
:102070007365740A002045787465726E616C205235
:10208000657365740A00506F77657255700A007346
:10209000746172740A006572726F7220777269746B
:1020A000696E6720746F2066696C650A00205A3A71
:1020B0000020593A0020583A00656E6473746F70BE
:1020C00073206869743A2000446F6E6520736176EE
:1020D000696E672066696C652E0A004D3239000210
:1020E000456B7374727564756A2077696563656A98
:1020F00000577A6E6F77206472756B6F77616E69C7
:1021000065005779626965727A206F70636A65004D
:1021100050726F737A6520637A656B616300526FEA
:102120007A67727A6577616E6965206479737A7906
:102130000057796D69616E612066696C616D656ECD
:1021400074750061627920726F7A67727A616320B8
:102150006479737A6500576369736E696A20707277
:102160007A796369736B0057796D69616E61206676
:10217000696C616D656E74750077796472756B75E5
:10218000005472776120777A6E617769616E696554
:10219000006E6F7765676F206D6174657269616C41
:1021A00075005472776120656B737472757A6A6119
:1021B0000066696C616D656E747520646F20676C74
:1021C0006F776963790054727761207770726F77E7
:1021D00061647A616E69650057796D69616E61202D
:1021E00066696C616D656E747500616279206B6FF4
:1021F0006E74796E756F7761632E2E2E0069206E76
:10220000616369736E696A2070727A796369736B4E
:1022100000576C6F7A2066696C616D656E7400574B
:10222000796D69616E612066696C616D656E74754A
:102230000066696C616D656E7475207A20676C6FDD
:102240007769637900547277612077797375776164
:102250006E69650057796D69616E612066696C61B0
:102260006D656E7475007A6D69616E792066696C52
:10227000616D656E7475005472776120726F7A704B
:102280006F637A796E616E69650057796D69616E09
:10229000612066696C616D656E74750043616E6E78
:1022A0006F7420656E746572207375626469723A2A
:1022B000200057726974696E6720746F2066696CBC
:1022C000653A20006F70656E206661696C65642CEC
:1022D0002046696C653A20006F70656E2066616902
:1022E0006C65642C2046696C653A200046696C6513
:1022F0002073656C65637465640A002053697A65B0
:102300003A200046696C65206F70656E65643A20FE
:10231000006F70656E206661696C65642C2046698B
:102320006C653A20002066696C653A20004E6F7734
:1023300020002220706F73002220706172656E741D
:102340003A2200535542524F5554494E452043417D
:102350004C4C207461726765743A2200556269744E
:10236000792E2000747279696E6720746F20636122
:102370006C6C207375622D67636F64652066696C91
:102380006573207769746820746F6F206D616E7952
:10239000206C6576656C732E204D4158206C6576F7
:1023A000656C2069733A006175746F25692E67004A
:1023B0004D3234004D323320257300534420636185
:1023C0007264206F6B0A006F70656E526F6F7420BD
:1023D0006661696C65640A00766F6C756D652E695F
:1023E0006E6974206661696C65640A004572726F7B
:1023F000723A00534420696E6974206661696C0A00
:102400000043616E6E6F74206F70656E207375622D
:102410006469722000656E7175657565696E672007
:1024200022006563686F3A0041B623B611241FBECF
:10243000CFEFD1E2DEBFCDBF00E00CBF16E0A0E0E1
:10244000B2E0EAEEF4EC01E00BBF02C007900D929F
:10245000A23BB107D9F72FE1A2EBB6E001C01D9274
:10246000A931B207E1F712E1C5E1D2E100E006C00F
:1024700021970109802FFE010E94E8E0C431D107B5
:1024800080E00807A9F70E94C4C60C9464E20C948B
:102490000000FC01538D448D252F30E0842F90E007
:1024A000821B930B541710F0CF960895019708954F
:1024B000FC01918D828D981761F0A28DAE0FBF2F18
:1024C000B11D5D968C91928D9F5F9F73928F90E06E
:1024D00008958FEF9FEF0895FC01918D828D9817DD
:1024E00031F0828DE80FF11D858D90E008958FEF1A
:1024F0009FEF0895FC01918D228D892F90E0805CE3
:102500009F4F821B91098F739927089584EA9DE15B
:10251000F1DF21E0892B09F420E0822F089587E084
:102520009DE1E8DF21E0892B09F420E0822F089566
:1025300080E090E0892B21F0E9DF81110E9400000A
:1025400080E090E0892B49F080E090E0892B29F031
:102550000E94000081110E94000080E090E0892B21
:1025600021F0DDDF81110E94000080E090E0892BE6
:1025700049F080E090E0892B29F00E940000811151
:102580000C94000008958150823108F05AC0E82F61
:10259000F0E08827E153FD4E8F4F0C94E8E0EF12F6
:1025A000F312E112E712EB122113F612FC120013E0
:1025B00006130A130E131413181321131C132213DA
:1025C0002613809180008F778093800008958091FA
:1025D00080008F7DF9CF80918000877FF5CF84B513
:1025E0008F7784BD089584B58F7DFBCF8091B00037
:1025F0008F778093B00008958091B0008F7DF9CFE0
:10260000809190008F778093900008958091900042
:102610008F7DF9CF80919000877FF5CF8091A000CA
:102620008F778093A00008958091A0008F7DF9CFCF
:102630008091A000877FF5CF809120018F778093D4
:1026400020010895809120018F7DF9CF8091200194
:10265000877FF5CF3FB7F8948091880E9091890ECF
:10266000A0918A0EB0918B0E26B5A89B05C02F3F76
:1026700019F00196A11DB11D3FBFBA2FA92F982FA8
:102680008827BC01CD01620F711D811D911D42E0A3
:10269000660F771F881F991F4A95D1F7089520E08C
:1026A00030E040E251E4FC016081718182819381DC
:1026B0000E9468D80E949FDF9B018BE237FF05C014
:1026C00022273327261B370B8DE28093510EC90139
:1026D00068EE73E00E94B9E0CB01EAE0F0E0BF01F0
:1026E0000E94B9E0805D8093520EC90164E670E0FB
:1026F0000E94B9E0CB01BF010E94B9E0805D8093E8
:10270000530EC901BF010E94B9E0282FCB01BF01C0
:102710000E94B9E0805D8093540E8EE28093550E46
:10272000205D2093560E81E59EE00895CF92DF92C2
:10273000EF92FF920F931F93CF93DF93FC01C08022
:10274000D180E280F38020E030E040E251E4C70134
:10275000B6010E9468D80E949FDF9B01AB014D59D2
:102760005F4F4B34544008F458C0C701B6010E9473
:102770009FDF8B01FB0177FF20C0119501951109A7
:10278000ED398FEFF8070CF076C08DE28093530E91
:10279000C80164E670E00E94B9E0CB012AE030E0B5
:1027A000B9010E94B9E0805D8093540EC801B9015F
:1027B0000E94B9E0CB01B90125C0083E83E01807AB
:1027C0000CF454C0C80168EE73E00E94B9E0CB017C
:1027D000CAE0D0E0BE010E94B9E0805D8093530E54
:1027E000C80164E670E00E94B9E0CB01BE010E941E
:1027F000B9E0805D8093540EC801BE010E94B9E02B
:10280000CB01BE010E94B9E0805D8093550E48C0A7
:102810008DE2F7FDFACF80E2F8CF77FF1CC02227C8
:102820003327261B370B6DE26093530EEAE0F0E08E
:10283000C901BF010E94B9E0282FCB01BF010E944E
:10284000B9E0805D8093540E8EE28093550E205D3A
:102850002093560E2DC060E2243631052CF3C901B9
:1028600064E670E00E94B9E0605DDECF80E204368D
:1028700011050CF08BCF80E28093530E8093540EA1
:102880000A3011052CF28DE2F7FF80E28093540E9E
:10289000C8016AE070E00E94B9E0605D6093550E87
:1028A000C8016AE070E00E94B9E0805D8093560E36
:1028B00083E59EE0DF91CF911F910F91FF90EF9004
:1028C000DF90CF9008959C01EAE0F0E0BF010E9404
:1028D000B9E0805D8093560E2A303105CCF0CB01F3
:1028E000BF010E94B9E0805D8093550E243631050A
:1028F00094F0C90164E670E00E94B9E0CB01BF0129
:102900000E94B9E0805D8093540E84E59EE00895B6
:1029100086E59EE0089585E59EE008959C0197FD7B
:102920002DC080E2243631055CF0C90164E670E018
:102930000E94B9E0CB016AE070E00E94B9E0805DDE
:102940008093540E80E22A3031055CF0EAE0F0E03A
:10295000C901BF010E94B9E0CB01BF010E94B9E0EB
:10296000805D8093550EC9016AE070E00E94B9E075
:10297000805D8093560E84E59EE008953195219503
:1029800031098DE2DDCFF894029799F58091090124
:1029900082702FB7F894909108019E7F9093080160
:1029A0002FBF2FB7611127C0F89490910B0192604F
:1029B00090930B012FBF2FB7F89490910B01986063
:1029C00090930B012FBFEBE0F0E03197F1F72FB7B9
:1029D000F89490910B01977F90930B012FBF9FB7B5
:1029E000882371F0F89480910B01826080930B0131
:1029F0009FBF78940895F89490910B019D7FD8CF54
:102A0000F89480910B018D7FF1CF0F931F93CF939B
:102A1000DF93EC016091320F7091330F8091340F8E
:102A20009091350F0091360F1091370F2091380F8C
:102A30003091390FC130D10569F5601B710B820BE4
:102A4000930B0E9409D820E030E040E05FE30E9451
:102A500068D80E949FDFCC0FDD1FCC0FDD1FCE5248
:102A6000D14F688379838A839B83E091CC0DF09169
:102A7000CD0D82899389A489B5898093C80D9093DF
:102A8000C90DA093CA0DB093CB0DDF91CF911F91CB
:102A90000F910895600F711F821F931FD2CFCF92A5
:102AA000DF92EF92FF921F93CF93DF93EC01CC0F55
:102AB000DD1FCC0FDD1F823091050CF046C01FB723
:102AC000F894019769F56091320F7091330F8091FE
:102AD000340F9091350FC090360FD090370FE090A3
:102AE000380FF090390F6C197D098E099F090E94EB
:102AF00009D820E030E040E05FE30E9468D81FBFC3
:102B0000CE53D14F288139814A815B810E9468D898
:102B1000DF91CF911F91FF90EF90DF90CF900895BC
:102B20006091320F7091330F8091340F9091350F77
:102B3000C090360FD090370FE090380FF090390FDB
:102B40006C0D7D1D8E1D9F1DD2CF2FB7F894FE01F9
:102B5000EE5CF04F60817181828193812FBF0E9472
:102B600009D8CECF80914E0E81111AC060914402D7
:102B700070914502072E000C880B990B0E9409D812
:102B80009B01AC0160918F0F7091900F8091910F1C
:102B90009091920F0E9403D8881F8827881F08955C
:102BA00080E008954F925F926F927F928F929F92F2
:102BB000AF92BF92EF92FF920F931F93CF93DF9349
:102BC000C1E3DEE082E5E82E8FE0F82E03EA18E0AC
:102BD000412C512C320143946991799189919991B9
:102BE000F70181909190A190B1907F010E9407D848
:102BF000A50194010E9468D80E94A4DFF8016193A6
:102C00007193819391938F01461657066806790652
:102C100010F42B013C01FEE0C134DF07E9F66FEF51
:102C20007FEFCB01A30192010E9484DE20939F08D5
:102C30003093A0084093A1085093A208DF91CF9150
:102C40001F910F91FF90EF90BF90AF909F908F904A
:102C50007F906F905F904F9008952F923F924F9288
:102C60005F926F927F928F929F92AF92BF92CF921C
:102C7000DF92EF92FF920F931F93CF93DF9300D0D9
:102C800000D01F921F92CDB7DEB78C011B01EAE284
:102C9000FAE180809180A280B380ADE5B8E0CD906C
:102CA000DD90ED90FC90A501940164817581868191
:102CB00097810E94BFDE2B013C01A5019401F80120
:102CC00060817181828193810E94BFDE4B015C0132
:102CD000A701960160916508709166088091670868
:102CE000909168080E94BFDEA30192010E9437DF25
:102CF000A50194010E9468D8A70196010E94C0DE38
:102D00006D837E838F839887C0906108D09062081E
:102D1000E0906308F090640802E21AE1D8018D9116
:102D20009D910D90BC91A02D89839A83AB83BC8328
:102D3000A70196016091690870916A0880916B08FB
:102D400090916C080E94BFDEA30192010E9437DFC0
:102D5000A50194010E9468D8A70196010E94C0DED7
:102D60002D813E814F8158850E94BFDE6B017C0121
:102D700029813A814B815C81F8016481758186816A
:102D800097810E94BFDE9B01AC01C701B6010E9482
:102D900037DF6B017C0129813A814B815C81D10154
:102DA0006D917D918D919C910E94BFDE9B01AC0144
:102DB000C701B6010E9468D82D813E814F81588598
:102DC0000E94C0DE2091590830915A0840915B085A
:102DD00050915C080E94C0DE28960FB6F894DEBFC2
:102DE0000FBECDBFDF91CF911F910F91FF90EF905C
:102DF000DF90CF90BF90AF909F908F907F906F901B
:102E00005F904F903F902F900895EF92FF920F9315
:102E10001F93CF93DF9300D000D01F921F92CDB7A6
:102E2000DEB78C018BE5E82E8EE0F82EF7012481C9
:102E3000358146815781F80164817581868197814A
:102E40000E94BFDE69837A838B839C83F701208194
:102E5000318142815381F801608171818281938146
:102E60000E94BFDE6D837E838F839887BE016F5F74
:102E70007F4FCE010596F1DE9B01AC01F801608524
:102E80007185828593850E94BFDEF8016087718716
:102E90008287938728960FB6F894DEBF0FBECDBF0A
:102EA000DF91CF911F910F91FF90EF9008958FB711
:102EB000F89490914E0820914D08291769F0E92F58
:102EC000F0E0E353F84F208130E09F5F9F779093CD
:102ED0004E088FBFC90108952FEF3FEFFACF129A26
:102EE00008955F9AE4E8FFE010828A9A11829FB702
:102EF000F894A8E0B1E08C9181608C939FBF12821E
:102F0000EECFCF92DF92EF92FF92C0900202D0906C
:102F10000302E0900402F090050280915707882395
:102F200081F120E030E0A901C701B6010E9403D879
:102F3000882339F120E030E040E05FE3C701B601CB
:102F40000E9468D89B01AC010E9468D82BED3FE03D
:102F500049E450E40E9468D89B01AC0160E070E055
:102F600080E89FE30E9437DF60930C0270930D02AC
:102F700080930E0290930F02FF90EF90DF90CF901E
:102F8000089560E070E080E89FE3EECFCF92DF929B
:102F9000EF92FF920F931F93CF93DF93EC01CC0F2F
:102FA000DD1FCC0FDD1FFE01E555F14F20E030E0C5
:102FB000A90160817181828193810E94C0DEFE013E
:102FC000E155F84F20813181428153810E94C0DE5A
:102FD0006B017C01FE01E55AF14FC082D182E28291
:102FE000F382FE01EA57F84F2591359145915491AE
:102FF0008E010E58104F0E94C0DEF801608371836D
:1030000082839383FE01EE56F84F259135914591C9
:103010005491C155DD4FC701B6010E94C0DE6883DF
:1030200079838A839B83DF91CF911F910F91FF90CA
:10303000EF90DF90CF9008958F929F92AF92BF92C2
:10304000EF92FF920F931F93CF93DF938C014A016E
:103050005B01EC01CC0FDD1FCC0FDD1FCE018E5BC1
:10306000904F7C01C555D14F288139814A815B81C0
:10307000CB01B4010E94BFDEF70120813181428182
:1030800053810E94C0DEF701608371838283938342
:1030900088829982AA82BB82C801DF91CF911F9159
:1030A0000F91FF90EF90BF90AF909F908F906ECF59
:1030B00080E1E2E4FFE0A2E6BFE001900D928A9594
:1030C000E1F7089580E1E2E6FFE0A2E4BFE00190CD
:1030D0000D928A95E1F708952FEB280F2A3168F5B4
:1030E000422F50E0FA0183E0F595E7958A95E1F7E4
:1030F000EA5BF84F9081892F90E0277002C0959588
:1031000087952A95E2F780FD02C081700895445D9D
:10311000584FFA018081882369F020916F07309120
:103120007007820F932F911D9093B6068093B5067A
:1031300081E0089590E080E0F7CF80E00895CCDF53
:10314000882341F081E02091B5063091B606232B0B
:1031500009F480E008952091201A9091211A81E0CD
:10316000291301C080E00895F6DF882331F08091B3
:10317000211A8F5F8F708093211A0895EF92FF922A
:103180000F931F93CF93DF93E090CC0DF090CD0D74
:10319000F701428153816481758186819781A08581
:1031A000B185481759076A077B0771F4141615068D
:1031B000160617060CF071C08091C10D81FB99278E
:1031C00090F9817089139FC08091C10D84FD22C048
:1031D0009091B4068CB184FB222720F930E0319520
:1031E0002195310929272071332792279093B4061E
:1031F0002091B3062071292369F0141615061606CE
:10320000170644F48091DE0E81608093DE0E90E01C
:1032100080E0FBDBF7014281538164817581868107
:103220009781A085B185481759076A077B0769F41C
:10323000181619061A061B0684F52091C10D21FBEC
:10324000332730F92170231741F12091C10D25FF5B
:1032500024C02091B4063091030136953170C32FFC
:10326000F0E0DF2FD195C195D109C227C270DD27CB
:103270002C272093B406C091B306C270C22369F014
:10328000181619061A061B0644F48091DE0E826099
:103290008093DE0E81E090E0B8DBF70182859385B4
:1032A000A485B585181619061A061B060CF580911B
:1032B000C10D82FD1DC08091B40699B192FB00271B
:1032C00000F910E0119501951109082700741127E4
:1032D00080278093B4060091B3060074082341F060
:1032E0008091DE0E84608093DE0E82E090E08DDBC4
:1032F0008091B4068093B306DF91CF911F910F9117
:10330000FF90EF900895DB01CA0197CF089590E0F8
:1033100080E008952F923F924F925F926F927F923A
:103320008F929F92AF92BF92CF92DF92EF92FF92D5
:103330000F931F93CF93DF93EB01FC01808091806B
:10334000A280B380C501B40120E831E541E050E03E
:103350000E9484DEC9016DE671E00E94A5E06B0168
:103360007C01C501B40120E13EE040E050E00E9454
:1033700084DECA01B90128E130E040E050E00E945B
:1033800084DE362E272E062F172F8CE3482E512C45
:10339000612C712CC501B401A30192010E9484DE4D
:1033A000B62EA72ECA01B901A30192010E9484DEA4
:1033B000CB01C114D10469F1AF92BF927F936F9397
:1033C0002F923F92FF92EF92DF92CF9285EF95E09E
:1033D0009F938F93DF93CF930E94D4D78DB79EB7DF
:1033E0000E960FB6F8949EBF0FBE8DBFDF91CF91A2
:1033F0001F910F91FF90EF90DF90CF90BF90AF9013
:103400009F908F907F906F905F904F903F902F9004
:103410000895E114F104C9F0AF92BF927F936F93C6
:103420002F923F92FF92EF9285EE95E09F938F93BC
:10343000DF93CF930E94D4D7EDB7FEB73C960FB67B
:10344000F894FEBF0FBEEDBFD1CF012BB9F0AF9204
:10345000BF927F936F932F923F9289ED95E09F9358
:103460008F93DF93CF930E94D4D78DB79EB70A96E0
:103470000FB6F8949EBF0FBE8DBFB8CF892BA9F0B1
:10348000AF92BF927F936F9381ED95E09F938F935F
:10349000DF93CF930E94D4D7EDB7FEB738960FB61F
:1034A000F894FEBF0FBEEDBFA1CFAF92BF928DECDF
:1034B00095E09F938F93DF93CF930E94D4D70F9083
:1034C0000F900F900F900F900F9090CF4091A00E03
:1034D0005091A10E052E000C660B770B8CE79FE038
:1034E0000C945BDE88E090E00E9433A98091A00EEE
:1034F0009091A10E08969093A10E8093A00E08952E
:1035000088EF9FEF0E9433A98091A00E9091A10EA9
:1035100008979093A10E8093A00E08954F925F920A
:103520006F927F92AF92BF92CF92DF92EF92FF9213
:103530000F931F93CF93DF938C01EB01FC0147A006
:1035400050A461A472A4AFA0B8A4C9A4DAA4950140
:10355000A601C301B2010E9403D887FF3EC0A301A8
:103560009201C301B2010E9468D82B013C01F8010D
:1035700063A974A985A996A990589B01AC010E94E2
:10358000C0DEF80127A530A941A952A90E9468D838
:103590009B01AC01C301B2010E94BFDE0E945BE04F
:1035A0007B018C019B01AC01B501C6010E9403D8CF
:1035B00087FF02C0750186019701A801B501C60108
:1035C0000E9403D8882349F0C701D8018FA398A788
:1035D000A9A7BAA7888181608883DF91CF911F91C5
:1035E0000F91FF90EF90DF90CF90BF90AF907F90C2
:1035F0006F905F904F9008954F925F926F927F927D
:103600008F929F92AF92BF92CF92DF92EF92FF92F2
:10361000CF93DF93CDB7DEB76A970FB6F894DEBFCE
:103620000FBECDBF9A8F898F5B014A01DC01D7960F
:103630006D917D918D919C91DA970E9407D86B01D5
:103640007C01F50120813181428153810E9468D83B
:103650000E9424DF0E94A4DF3B015C01D4012D9174
:103660003D914D915C91C701B6010E9468D80E94BE
:1036700024DF0E94A4DF6D827E82AF82B8862D8116
:103680003E814F815885283731054105510540F469
:1036900028E730E040E050E02D833E834F83588799
:1036A00069837A838B839C8389819A81AB81BC8176
:1036B00088379105A105B10540F428E730E040E0E6
:1036C00050E029833A834B835C83E98DFA8DED5B6F
:1036D000FF4F80819181A281B3818D879E87AF87C3
:1036E000B88BBC01CD010E9409D869877A878B8786
:1036F0009C876D817E818F8198850E9407D8698B18
:103700007A8B8B8B9C8B20E030E0A90169857A85D0
:103710008B859C850E9403D8882309F432C1A701B8
:103720009601C701B6010E9468D84B015C01298946
:103730003A894B895C89CA01B9010E9468D89B010A
:10374000AC01C501B4010E94BFDE4B015C012985BB
:103750003A854B855C85CA01B9010E94C0DE9B0198
:10376000AC01C501B4010E9437DF0E9424DF0E9432
:103770009FDF2B013C016D857E858F859889909513
:103780008095709561957F4F8F4F9F4F0E9409D80C
:103790004B015C0169817A818B819C810E9407D8F1
:1037A0006D877E878F87988B20E030E0A901C50167
:1037B000B4010E9403D8882309F4E7C02D853E8513
:1037C0004F855889CA01B9010E9468D86D8B7E8BDC
:1037D0008F8B988FA7019601C701B6010E9468D808
:1037E0009B01AC016D897E898F89988D0E94BFDE17
:1037F0006B017C01A5019401C501B4010E94C0DEEA
:103800009B01AC01C701B6010E9437DF0E94D0DFE7
:10381000A98DBA8D52968D909D90AD90BC90559784
:1038200075016401C418D508E608F7080E949FDFF7
:10383000C61AD70AE80AF90AF7FE67C020E030E0A6
:10384000A90169857A858B859C850E9403D8882388
:1038500009F49FC0C501B4010E9407D86B017C0127
:1038600029853A854B855C85CA01B9010E94C0DE75
:103870009B01AC01C701B6010E9468D86B017C01B5
:1038800029893A894B895C89CA01B9010E9468D8A3
:103890009B01AC01C701B6010E94BFDE6B017C0138
:1038A0002D853E854F855889CA01B9010E9468D887
:1038B0009B01AC01C701B6010E94C0DE6B017C0117
:1038C00020E030E040E850E469857A858B859C856E
:1038D0000E9468D89B01AC01C701B6010E9437DF86
:1038E0000E9424DF0E949FDF2B013C0177FE03C072
:1038F000412C512C3201481459046A047B0410F005
:1039000024013501C12CD12C76018FB7F894E98DB3
:10391000FA8D908193FD1FC0DF01468A578A608E21
:10392000718EC40CD51CE61CF71CC28ED38EE48E9F
:10393000F58E2D813E814F81588523AF34AF45AF41
:1039400056AFDF9629813A814B815C812D933D935F
:103950004D935C9313978FBF6A960FB6F894DEBFB2
:103960000FBECDBFDF91CF91FF90EF90DF90CF9052
:10397000BF90AF909F908F907F906F905F904F908F
:10398000089560E070E0CB01F0CE60E070E0CB0124
:103990003DCF60E070E0CB01A3CF8091B506909160
:1039A000B606009731F04AE050E070E060E00C9419
:1039B0001FD560E070E0CB010895EFDF97FD0AC0EE
:1039C000ECDF6F3F71058105910509F02CF4E5DF0F
:1039D000862F089580E008958FEF08958091B506B1
:1039E0009091B606892B39F0E8DF91E0811101C092
:1039F00090E0892F089591E0FCCF8091B5069091D9
:103A0000B606009731F04AE050E070E060E00C94B8
:103A10004CD660E070E0CB0108950F931F93CF93D5
:103A20008091B5069091B6060097E9F0FC018F01F0
:103A3000C1912C2F2F7D81F0C53411F0C536B9F717
:103A4000F801108270E060E00E94C9D3F801C083E1
:103A5000CF911F910F91089570E060E0CF911F9179
:103A60000F910C94C9D360E070E0CB01F1CF86E4F4
:103A700033DB8093FC0D882349F0CFDF609318027D
:103A80007093190280931A0290931B0283E524DB42
:103A9000882349F0C2DF609314027093150280936B
:103AA00016029093170282E417DB882349F0B5DFF2
:103AB000609310027093110280931202909313028C
:103AC0000895CF92DF92EF92FF920F931F93CF93BF
:103AD000DF9385E1C82E83E0D82E92E6E92E9FE0A1
:103AE000F92E02E41FE0D0E0C0E0F60181916F0101
:103AF000F3DA882309F477C090DF9B01AC01FE0163
:103B0000E656F14F8081811105C080914F078823CF
:103B100009F465C0F80160817181828193810E94FE
:103B2000C0DEF70160837183828393832196F4E082
:103B3000EF0EF11C0C5F1F4FC430D105B1F686E4C7
:103B4000FEDA8823B9F069DF20E030E0A9010E94A5
:103B500023E018167CF461DF20E030E040E752E417
:103B60000E9437DF609340027093410280934202CB
:103B70009093430280914F0E83FD28C08091781A64
:103B8000882321F120914E0F30914F0F4091500F1B
:103B90005091510F60916E0F70916F0F8091700F67
:103BA0009091710F0E94BFDE20916A1A30916B1ABA
:103BB00040916C1A50916D1A0E94C0DE60936A1A8F
:103BC00070936B1A80936C1A90936D1ADF91CF915A
:103BD0001F910F91FF90EF90DF90CF90089560E0DC
:103BE00070E0CB019CCFF80180819181A281B381EB
:103BF000F70180839183A283B38398CFAF92BF9262
:103C0000CF92DF92EF92FF920F931F93CF93DF93A8
:103C10001F92CDB7DEB76C018B0159018091B206BE
:103C200081111BC07B01E40EF51EF601808191819C
:103C30000E9428DE8983F80181938F01BE016F5FA6
:103C40007F4FC5010E941DA9F601808191810196D7
:103C500091838083E016F10641F70F90DF91CF91B9
:103C60001F910F91FF90EF90DF90CF90BF90AF909A
:103C70000895FC01A48DA80FB92FB11DA35ABF4F01
:103C80002C91848D90E001968F739927848FA6895B
:103C9000B7892C93A089B1898C91837080648C93AF
:103CA000938D848D981306C00288F389E02D80815E
:103CB0008F7D80830895CF93DF93EC01888D8823D7
:103CC000B1F0AA89BB89E889F9898C9185FD03C087
:103CD000808186FD0CC00FB607FCF7CF8C9185FF65
:103CE000F2CF808185FFEDCFCE01C3DFEACFDF9138
:103CF000CF9108951F93CF93DF93282F30E0F901E0
:103D0000E554F24E8491F901EB58F24ED491F90149
:103D1000E15DF24EC491CC23A9F0162F81110E94CF
:103D2000C312EC2FF0E0EE0FFF1FE550F34EA5910C
:103D3000B4918FB7F894EC91111108C0D095DE239F
:103D4000DC938FBFDF91CF911F910895DE2BF8CFC9
:103D5000CF93DF9390E0FC01EB58F24E2491815D0C
:103D6000924EFC0184918823D1F090E0880F991F36
:103D7000FC01EF51F34EA591B491FC01E550F34ED7
:103D8000C591D49161110EC09FB7F8948C91E22F28
:103D9000E0958E238C932881E223E8839FBFDF91F7
:103DA000CF9108958FB7F894EC91E22BEC938FBFED
:103DB000F6CF1F93CF93DF93182FEB0161E0C8DF9D
:103DC000209731F460E0812FDF91CF911F9192CF46
:103DD000CF3FD10511F461E0F6CFE12FF0E0E554DB
:103DE000F24EE491E150E23108F0B3C0F0E08827F0
:103DF000E350F14E8F4F0C94E8E00F1F171F1C1F6C
:103E0000261F301FA91F3A1F421F4A1F541F5E1F43
:103E1000681F771F811FA91F8B1F951F9F1F84B5C8
:103E2000806884BDC7BDDF91CF911F91089584B58F
:103E3000806284BDC8BDF7CF809180008068809388
:103E40008000D0938900C0938800EDCF80918000DE
:103E5000806280938000D0938B00C0938A00E3CF70
:103E600080918000886080938000D0938D00C09303
:103E70008C00D9CF8091B00080688093B000C0934F
:103E8000B300D1CF8091B00080628093B000C09326
:103E9000B400C9CF80919000806880939000D09347
:103EA0009900C0939800BFCF80919000806280936A
:103EB0009000D0939B00C0939A00B5CF8091900062
:103EC000886080939000D0939D00C0939C00ABCFFE
:103ED0008091A00080688093A0008091A0008F7BDB
:103EE0008093A000D093A900C093A8009CCF80919C
:103EF000A00080628093A000D093AB00C093AA0082
:103F000092CF8091A00088608093A000D093AD00F4
:103F1000C093AC0088CF80912001806880932001FD
:103F2000D0932901C09328017ECF80912001806227
:103F300080932001D0932B01C0932A0174CF8091EC
:103F40002001886080932001D0932D01C0932C0123
:103F50006ACFC038D1050CF03ECF34CF8F929F92FC
:103F6000AF92BF92CF92DF92EF92FF926B017C01F2
:103F70000E942A134B015C01C114D104E104F10435
:103F8000B9F00E942A13681979098A099B09683EC9
:103F900073408105910580F321E0C21AD108E10840
:103FA000F10888EE880E83E0981EA11CB11CE4CFB6
:103FB000FF90EF90DF90CF90BF90AF909F908F9049
:103FC00008952FB7F8946091840E7091850E8091BA
:103FD000860E9091870E2FBF0895CF92DF92EF92B9
:103FE000FF921F93CF93DF9300D01F92CDB7DEB720
:103FF000182F662351F010921F0710921B07109282
:104000001C0710921D0710921E07DBDFAB01BC01DD
:1040100080911B0790911C07A0911D07B0911E076E
:104020006A017B01C81AD90AEA0AFB0AD701C6014C
:10403000B7FD37C017FD41C080911F07212F012E0A
:10404000000C330B2C5F3F4FE82F082E000CFF0BAA
:104050002E173F0734F1811784F180E991E0A0E049
:10406000B0E0840F951FA61FB71F80931B07909386
:104070001C07A0931D07B0931E0780ED97E09C835B
:104080008B838CE291E09A838983BE016D5F7F4FC1
:10409000CE0101960E94CAAA80911F078F5F80936C
:1040A0001F070F900F900F900F90DF91CF911F91EE
:1040B000FF90EF90DF90CF90089584EC99E0A0E01E
:1040C000B0E0CFCF2F923F924F925F926F927F924C
:1040D0008F929F92AF92BF92CF92DF92EF92FF9218
:1040E0000F931F93CF93DF9300D000D0CDB7DEB7EF
:1040F0009A83898366DFA981BA811696CD90DD9077
:10410000ED90FC901997C114D104E104F10409F079
:104110000EC31C962C911C97222309F44DC01A96AD
:10412000EC911A9721501C962C931C9721E02E0F8E
:104130001A962C931A971D963C911D97231302C033
:104140001A961C92F0E03196EE0FFF1FEE0FFF1F44
:1041500029813A81E20FF31FC284D384E484F58479
:10416000D9011296CD92DD92ED92FC9215976C0DCD
:104170007D1D811D911DF90166837783808791875D
:1041800084819581892BC1F0FFB7FD83F894A981C3
:10419000BA8112962D903C9013972101712C612CBD
:1041A00014960D911C918091AE028532F1F08F3FF3
:1041B00009F496C0FD81FFBF26960FB6F894DEBFC6
:1041C0000FBECDBFDF91CF911F910F91FF90EF9068
:1041D000DF90CF90BF90AF909F908F907F906F9027
:1041E0005F904F903F902F900895EFEDF0E2B491E3
:1041F000BE83B7FDDFCF61E085E2AADD9E81992312
:1042000021F0AE81A23009F0BDC14801B12CA12C32
:1042100060E072E18AE790E0A50198010E94CCE09D
:1042200029833A834B835C8369017A01B1E0CB1A1D
:10423000D108E108F108EFEFCE16D104E104F10452
:1042400009F00CF46FC160E472E48FE090E0A50126
:1042500098010E94CCE069017A01F1E0CF1AD108FF
:10426000E108F1082E81223009F010C182E03FEF11
:10427000C316D104E104F10409F00CF4B7C260E9FB
:1042800070ED83E090E0A50198010E94CCE0690107
:104290007A0181E0C81AD108E108F10883E09FEFB4
:1042A000C916D104E104F10409F00CF49FC268E4DA
:1042B00078EE81E090E0A50198010E94CCE06901D0
:1042C0007A0181E0C81AD108E108F1089FEFC91608
:1042D000D104E104F10411F00CF0FCC084E086C2CA
:1042E00085E28093AE02EFEDF0E224912E83822FDF
:1042F0002F3F09F45FCF223009F468C058F422231D
:1043000079F1213009F444C087FD54CF61E085E2A2
:104310001FDD77CF3E81343009F49AC008F478C0AD
:10432000353091F7109220011092210180912101E6
:104330008860809321018091210181608093210117
:10434000E4E5FDE1E491F0E0EE0FFF1FE550F34EF0
:1043500085919491EAE9FDE1E491E093B7064BCFB2
:1043600014BC15BC84B5826084BD85B5816085BDF3
:10437000E4E5FDE1E491F0E0EE0FFF1FE550F34EC0
:1043800085919491EAE9FDE1E491E093BB0633CF96
:10439000109280001092810080918100886080934B
:1043A000810080918100816080938100E4E5FDE1DE
:1043B000E491F0E0EE0FFF1FE550F34E85919491EC
:1043C000EAE9FDE1E491E093BA0615CF1092B0005E
:1043D0001092B1008091B00082608093B000809113
:1043E000B10081608093B100E4E5FDE1E491F0E08B
:1043F000EE0FFF1FE550F34E859194919093E10EDF
:104400008093E00EEAE9FDE1E491E093E20EF3CE61
:10441000109290001092910080919100886080939A
:10442000910080919100816080939100E4E5FDE12D
:10443000E491F0E0EE0FFF1FE550F34E859194916B
:10444000EAE9FDE1E491E093B90683E08E83D3CEFF
:104450001092A0001092A1008091A100886080932A
:10446000A1008091A10081608093A100E4E5FDE1BD
:10447000E491F0E0EE0FFF1FE550F34E859194912B
:10448000EAE9FDE1E491E093B806B5CEAFEFCA16D4
:10449000D104E104F10409F00CF472C068E478EE90
:1044A00081E090E0A50198010E94CCE069017A01C9
:1044B000B1E0CB1AD108E108F108EE81EE2309F44E
:1044C00061C1EFEFCE16D104E104F10411F00CF05C
:1044D00062C104CF64E274EF80E090E0A501940132
:1044E0000E94CCE069017A01F1E0CF1AD108E1081D
:1044F000F10885E02FEFC216D104E104F10409F0C0
:1045000008F474C162E17AE780E090E0A5019401CB
:104510000E94CCE069017A01A1E0CA1AD108E10841
:10452000F1084BC181E0AE81A11160C195B5987FC2
:10453000892B85BD2FEF3FEFA90145284628472845
:1045400009F059C0BE81B23009F4E1C00CF0C8C016
:10455000BB2309F4CDC0B13009F02CCED092890034
:10456000C09288002093C8063093C9064093CA06BB
:104570005093CB0680916F00826080936F001ACEBB
:1045800082E0D1CFB12CA12C60E072E18AE790E00B
:10459000A50198010E94CCE069017A01B1E0CB1A33
:1045A000D108E108F10891E0C114D104E1E0EE0680
:1045B000F10484F068E478EE81E090E0A5019801D0
:1045C0000E94CCE069017A01F1E0CF1AD108E1083C
:1045D000F10893E02E812130D9F480918100887F09
:1045E000892B809381002FEF3FEFA90145284628B2
:1045F000472809F4B3CF9801220F331FD1010E943D
:10460000B0DE28EE33E040E050E00E9484DE9ACF36
:104610003E813330F9F480919100887F892B80931B
:1046200091002FEF3FEFA90145284628472819F7A9
:10463000D0929900C09298002093C4063093C5068A
:104640004093C6065093C7068091710082608093A4
:104650007100B0CD8E818430F9F48091A100887F03
:10466000892B8093A1002FEF3FEFA9014528462811
:10467000472809F6D092A900C092A8002093C0064E
:104680003093C1064093C2065093C30680917200D6
:104690008260809372008ECDAE81A53009F04ACF42
:1046A00080912101887F892B809321012FEF3FEF9B
:1046B000A90145284628472809F09DCFD092290115
:1046C000C09228012093BC063093BD064093BE06DD
:1046D0005093BF06809173008260809373006ACD0F
:1046E000EE81E43039F20CF4A3CFE53039F362CD3A
:1046F000C7BC2093CC063093CD064093CE06509392
:10470000CF0680916E00826080936E0053CDC09280
:10471000B3002093E30E3093E40E4093E50E5093E4
:10472000E60E8091700082608093700043CD6C191A
:104730007D098E099F0997FD3FCD4098A981BA81D7
:1047400016961D921D921D921C92199735CD84E0EC
:10475000EFEFCE16D104E104F10409F008F4E6CE3F
:10476000C980DA80EB80FC809AE0F594E794D794D6
:10477000C7949A95D1F7B1E0CB1AD108E108F108B6
:1047800085E0D4CE83E0BFEFCB16D104E104F10481
:1047900009F00CF4CBCE62E17AE780E090E0A5016D
:1047A00094010E94CCE069017A0181E0C81AD10825
:1047B000E108F1089E81992351F286E02FEFC2169D
:1047C000D104E104F10491F088F0C980DA80EB8033
:1047D000FC808AE0F594E794D794C7948A95D1F742
:1047E000F1E0CF1AD108E108F10887E09091B1001B
:1047F000987F892B8093B1009DCEE3DB6093710796
:1048000070937207809373079093740708951F92B3
:104810000F920FB60F9211242F933F938F939F9374
:10482000AF93BF938091840E9091850EA091860ED8
:10483000B091870E3091830E23E0230F2D3758F56A
:104840000196A11DB11D2093830E8093840E909339
:10485000850EA093860EB093870E8091880E90915E
:10486000890EA0918A0EB0918B0E0196A11DB11DEB
:104870008093880E9093890EA0938A0EB0938B0E2E
:10488000BF91AF919F918F913F912F910F900FBE4C
:104890000F901F90189526E8230F0296A11DB11DB9
:1048A000D2CF90938E0F80938D0F0C9487A887E0C2
:1048B0009DE10E947A12892B29F087E09DE10E94F8
:1048C0005812F5CF0895CF93DF93EC0187E09DE177
:1048D0000E947A12892B29F087E09DE10E945812EC
:1048E000F5CF209769F0FE0101900020E9F731979C
:1048F000AF014C1B5D0BBE0187E09DE10E94CEA283
:104900006FEF87E09DE10E9469A46FEF87E09DE172
:104910000E9469A46FEF87E09DE1DF91CF910C9435
:1049200069A48F929F92AF92BF92CF92DF92EF9243
:10493000FF92CF9320E030E048EC52E4FC0160812C
:104940007181828193810E9468D80E949FDF6B01F0
:104950007C01F7FC5AC020E137E240E050E00E94C1
:10496000CCE0CA01B9012AE030E040E050E00E940A
:10497000CCE0605D6093510EC701B60128EE33E0D4
:1049800040E050E00E94CCE08AE0882E912CA12CDF
:10499000B12CCA01B901A50194010E94CCE0605D6F
:1049A0006093520EC701B60124E630E040E050E0CB
:1049B0000E94CCE0CA01B901A50194010E94CCE09B
:1049C000605D6093530E8EE28093540EC701B60172
:1049D000A50194010E94CCE0C62FCA01B901A5012E
:1049E00094010E94CCE0605D6093550EC05DC09361
:1049F000560E81E59EE0CF91FF90EF90DF90CF9033
:104A0000BF90AF909F908F900895F094E094D094D1
:104A1000C094C11CD11CE11CF11C6DE2ABCF4F92C4
:104A20005F926F927F92AF92BF92CF92DF92EF929E
:104A3000FF920F931F93CF93DF9324E030E041E088
:104A400050E0D901AF5BB54EFD01659174918617B9
:104A500097070CF066C041505109440F551F440F91
:104A6000551FEA01CD5BD54EFE01059114914F5BB8
:104A7000554EFA0165917491F901ED5BF54EE590A3
:104A8000F490FE01C590D490FD01C591D491FA0136
:104A9000A590B490861B970BBC01990F880B990BBE
:104AA0000E9409D82B013C01B7016C197D09072E22
:104AB000000C880B990B0E9409D89B01AC01C30123
:104AC000B2010E9468D86B017C01BE016A197B09A2
:104AD000072E000C880B990B0E9409D89B01AC0192
:104AE000C701B6010E9437DF6B017C01B801110FCD
:104AF000880B990B0E9409D89B01AC01C701B60134
:104B00000E94C0DEDF91CF911F910F91FF90EF9037
:104B1000DF90CF90BF90AF907F906F905F904F905D
:104B200008954F5F5F4F2C5F3F4F211561E03607BF
:104B300009F087CFEFE3FBE165917491072E000C3C
:104B4000880B990B0E9409D8DDCF1092FC0D90E0E4
:104B500080E0A7DE10929F0E10929E0E0E9400A58C
:104B600090E080E09EDE1092130E2C9810929F0E23
:104B700010929E0E1092110E9FB7F894E2E0F1E0B1
:104B800080818F7D80839FBF08954F925F926F9247
:104B90007F92AF92BF92CF92DF92EF92FF920F93EC
:104BA0001F93CF93DF9324E030E041E050E0D90140
:104BB000AF5BB54EFD0165917491861797070CF0B8
:104BC00066C041505109440F551F440F551FEA015B
:104BD000CD5BD54EFE01059114914F5B554EFA0108
:104BE00065917491F901ED5BF54EE590F490FE014D
:104BF000C590D490FD01C591D491FA01A590B490CF
:104C0000861B970BBC01990F880B990B0E9409D842
:104C10002B013C01B7016C197D09072E000C880B94
:104C2000990B0E9409D89B01AC01C301B2010E94FB
:104C300068D86B017C01BE016A197B09072E000C44
:104C4000880B990B0E9409D89B01AC01C701B601E2
:104C50000E9437DF6B017C01B801110F880B990BA3
:104C60000E9409D89B01AC01C701B6010E94C0DEB9
:104C7000DF91CF911F910F91FF90EF90DF90CF9038
:104C8000BF90AF907F906F905F904F9008954F5F6F
:104C90005F4F2C5F3F4F211561E0360709F087CF4A
:104CA000EFE3FBE165917491072E000C880B990BE3
:104CB0000E9409D8DDCF8091FF0D9091000EAFDEEC
:104CC00060938F0F7093900F8093910F9093920F3A
:104CD0008091FD0D9091FE0D58DF6093730E7093DF
:104CE000740E8093750E9093760EA8958FB7F894F6
:104CF0001092010E8FBF08950F931F93CF93DF93F0
:104D0000EC01888199810197E1F45BD90E811F81C3
:104D100028853985601B710B820B930B28EE33E0DD
:104D200040E050E00E9484DE6A817B818C819D811D
:104D3000620F731F841F951FDF91CF911F910F91F9
:104D400008956A857B858C859D85E0CF8091C10D16
:104D500080FF24C0899A8FEF80931C028091C10D3F
:104D600081FF1FC08F9A8FEF80931D028091C10D2C
:104D70009FB782FF19C0F89480910B0182608093E5
:104D80000B019FBF8FEF80931E028091C10D83FFA7
:104D900014C0169A8FEF80931F020895899881E0BE
:104DA000DBCF8F9881E0E0CFF89480910B018D7F6D
:104DB00080930B019FBF81E0E6CF169881E0EBCF97
:104DC00061E0FC0180810C947A1E8EBD0DB407FE5B
:104DD000FDCF08958FEF8EBD0DB407FEFDCF8EB5CC
:104DE00008958F929F92AF92BF92EF92FF920F938E
:104DF0001F93CF937C01C62F49015A01FC01928178
:104E0000892F806A86958CBD90FD03C081E0963025
:104E100009F480E08DBD60E0F70180810E947A1E78
:104E20008CE291E00E9477A58C2F8064CEDF08E1B0
:104E300010E0D501C401002E04C0B695A795979542
:104E400087950A94D2F7C1DF08501109083FFFEF98
:104E50001F0779F785E9CC2321F087E8C83009F0EE
:104E60008FEFB3DFCC3009F4B5DFC0E0B3DFF7017B
:104E7000838387FF04C0CF3F11F0CF5FF7CFCF917F
:104E80001F910F91FF90EF90BF90AF909F908F90E8
:104E900008950F931F93CF93DF93EC0189018C81C9
:104EA000833039F089E0440F551F661F771F8A95BC
:104EB000D1F79A01AB0168E1CE0193DF882319F0A5
:104EC00086E0898335C08EEF8EBDF801C8019E5FF4
:104ED0000DB407FEFDCF20812EBD0DB407FEFDCF22
:104EE00021812EBD3296E817F90791F70DB407FE20
:104EF000FDCF8FEF6ADF8FEF68DF6CDF8B838F7101
:104F0000853091F488E592E00E9477A5182F87E11B
:104F10001123B9F220E030E0A9016DE0CE0161DF9C
:104F2000882351F086E1CDCF83E18983CE0148DF2C
:104F3000CE0146DF10E005C04DDF8111F3CFCE0179
:104F40003FDF812FDF91CF911F910F910895CF9374
:104F50008091A011C1E0882399F04091981150915F
:104F6000991160919A1170919B1128E93FE080910D
:104F7000A1119091A2118DDFC82F811104C0C0E052
:104F80008C2FCF91089540919C1150919D1160916B
:104F90009E1170919F11411551056105710589F0B0
:104FA00028E93FE08091A1119091A21172DF88233E
:104FB00031F310929C1110929D1110929E1110923B
:104FC0009F111092A011DCCFEF92FF920F931F93CD
:104FD000CF93DF93EC0179018C81833039F089E044
:104FE000440F551F661F771F8A95D1F79A01AB01B1
:104FF00061E1CE01F6DE882331F084E08983CE01C1
:10500000DFDE80E034C00E94E11F8B01E3DE8B8392
:105010008F3F71F40E94E11F601B710B6D32714074
:10502000A8F381E18983CE01CBDE8FEFCEDEE9CF1D
:105030008E3F11F08FE0F6CF8FEF8EBDF701D701D5
:10504000A150BE4F0DB407FEFDCF9EB591938EBD0E
:10505000AE17BF07B9F70DB407FEFDCF8EB58C9321
:10506000B9DEB8DECE01ACDE8FEFAFDE81E0DF91DE
:10507000CF911F910F91FF90EF900895CF92DF9203
:10508000EF92FF92CF936B017C01C42F8091981116
:1050900090919911A0919A11B0919B118C159D0539
:1050A000AE05BF05F1F053DF811108C0C0E08C2FC1
:1050B000CF91FF90EF90DF90CF90089528E93FE0E7
:1050C000B701A6018091A1119091A2117DDF8823E3
:1050D00069F3C0929811D0929911E0929A11F092CE
:1050E0009B11CC2321F081E08093A011E0CFC1E09F
:1050F000DECF4F925F926F927F928F929F92AF928C
:10510000BF92CF92DF92EF92FF920F931F93CF93B4
:10511000DF93EC01423051056105710590F480E0A8
:10512000DF91CF911F910F91FF90EF90DF90CF9083
:10513000BF90AF909F908F907F906F905F904F90B7
:10514000089589859A85AB85BC850196A11DB11D01
:1051500084179507A607B70710F38F898031C1F52B
:10516000852E962EA72EBB248B899C89AD89BE895E
:10517000880E991EAA1EBB1E280139016A017B01F7
:1051800041E0C501B4017ADF882349F29F8990315B
:1051900081F5DD24EE24FF24F601EE0FFF1FE85613
:1051A000F04F118300839A89923008F4B9CF4D8172
:1051B0005E816F817885840E951EA61EB71E809233
:1051C0009C1190929D11A0929E11B0929F11A8CF18
:1051D000803209F0A4CF8B899C89AD89BE894A01B0
:1051E0005B01E7E0B694A79497948794EA95D1F78A
:1051F000BFCFE894C7F8DD24EE24FF24F601EE0FBC
:10520000FF1FEE0FFF1FE856F04F4082518262826F
:105210007382C9CFCF92DF92EF92FF920F931F93C9
:10522000CF93DF93FC0181859285A385B485019698
:10523000A11DB11D84179507A607B70750F480E09C
:10524000DF91CF911F910F91FF90EF90DF90CF9062
:10525000089587898031A9F5BB27A72F962F852F21
:10526000C388D488E588F6888C0D9D1DAE1DBF1DB2
:10527000E9016A017B018F014091981150919911C8
:1052800060919A1170919B1184179507A607B70733
:1052900049F5F8018789803161F5B701A6015527E5
:1052A00066277727440F551F4856504FFA018081D3
:1052B0009181B0E0A0E088839983AA83BB8381E0D9
:1052C000BFCF803209F0BBCFC388D488E588F68889
:1052D000DB01CA01C7E0B695A79597958795CA9552
:1052E000D1F7C2CF40E0BC01CD01C8DE8111D1CFE2
:1052F000A6CFB701A6014F77552766277727440F1A
:10530000551F440F551F4856504FFA018081918117
:10531000A281B381BF70CFCF4F925F926F927F9285
:10532000AF92BF92CF92DF92EF92FF920F931F93B3
:10533000CF93DF9300D01F92CDB7DEB78C014983A6
:105340005A836B837C835901C12CD12C7601412C6B
:1053500082E0582E612C712C49815A816B817C81AD
:105360009E012F5F3F4FC80155DF882319F1F801D7
:105370008585A301920104C0220F331F441F551FCE
:105380008A95D2F7DA01C901C80ED91EEA1EFB1EA2
:1053900049815A816B817C8187898031F1F481E078
:1053A000483F5F4F61057105B8F2F501C082D182B7
:1053B000E282F3820F900F900F900F90DF91CF91C8
:1053C0001F910F91FF90EF90DF90CF90BF90AF9023
:1053D0007F906F905F904F90089581E0483F5F4FBE
:1053E0006F4F7F4008F4B8CFE0CF0F931F93CF9358
:1053F000DF93FC012381222331F080E0DF91CF9104
:105400001F910F9108958B01EC01FB018789803179
:1054100039F582E08B831D8A1E8A1F8A188E808D43
:10542000918DB0E0A0E025E0880F991FAA1FBB1F57
:105430002A95D1F7898B9A8BAB8BBC8B1A8F098FEE
:1054400081E089831C821D821E821F821886198634
:105450001A861B861C861D861E861F86188ACECF3E
:10546000803259F683E08B83428D538D648D758D28
:105470004D8B5E8B6F8B788F9E012F5E3F4FC801E7
:105480004BDF8111DBCFB9CF8F929F92AF92BF924A
:10549000CF92DF92EF92FF920F931F93CF93DF9300
:1054A000EC018B8181110EC080E0DF91CF911F91C3
:1054B0000F91FF90EF90DF90CF90BF90AF909F90B3
:1054C0008F90089509891A892B893C89041715073B
:1054D0002607370748F34A015B01823031F488869A
:1054E0009986AA86BB8681E0E0CF81149104A1044D
:1054F000B10449F41C821D821E821F8218861986FF
:105500001A861B86F0CF088519852A853B85E98D8B
:10551000FA8D858590E00996B901A801415051099D
:1055200061097109082E04C07695679557954795CE
:105530000A94D2F775016401E1E0CE1AD108E108BE
:10554000F10804C0F694E794D794C7948A95D2F7EB
:10555000C416D506E606F70620F0012B022B032B16
:1055600009F58D899E89AF89B88D8C839D83AE8323
:10557000BF838E010C5F1F4FC114D104E104F104FD
:1055800009F4ADCF4C815D816E817F819801898D59
:105590009A8D40DE91E0C91AD108E108F108811125
:1055A000EBCF82CFC41AD50AE60AF70AE2CF3F92C0
:1055B0004F925F926F927F928F929F92AF92BF9223
:1055C000CF92DF92EF92FF920F931F93CF93DF93CF
:1055D000CDB7DEB72C970FB6F894DEBF0FBECDBFA8
:1055E0005C01DC0159968D909C90F4018185928537
:1055F000A385B4859C01AD012F5F3F4F4F4F5F4F97
:1056000029873A874B875C87D50114964D905D902A
:105610006D907C901797411451046104710409F452
:1056200058C0BFEF4B1A5B0A6B0A7B0A312C73011F
:1056300062011D821E821F821886F4018185928577
:10564000A385B4852D813E814F8158852817390760
:105650004A075B0708F054C089859A85AB85BC85ED
:105660008C159D05AE05BF0550F482E0C82ED12CE7
:10567000E12CF12C92E0492E512C612C712C9E01D1
:105680002F5F3F4FB701A601C401C4DD8823C1F1DC
:1056900089819A81AB81BC81892B8A2B8B2B01F16B
:1056A000260137019FEF491A590A690A790A2D81A3
:1056B0003E814F8158852F5F3F4F4F4F5F4F2D8366
:1056C0003E834F8358873FEFC31AD30AE30AF30A96
:1056D000B4CF408051806280738033243394A7CF4D
:1056E000C414D504E604F70411F70FEF1FEF2FEFF2
:1056F0003FE0B701A601C401FCDC782E81111AC07D
:10570000712C872D2C960FB6F894DEBF0FBECDBF3F
:10571000DF91CF911F910F91FF90EF90DF90CF908D
:10572000BF90AF909F908F907F906F905F904F90C1
:105730003F900895F5014481558166817781411537
:1057400051056105710531F097018601C401D1DC75
:105750008823B1F2D5011496CD92DD92ED92FC92A0
:105760001797332051F0D701C6010196A11DB11D35
:10577000F40180839183A283B383F501858996899F
:10578000A789B08D892B8A2B8B2B09F0BACFC58ABC
:10579000D68AE78AF08E818180688183B2CFCF93E9
:1057A000DF93EC01462F41706C857D858E859F854A
:1057B00065DC882351F0888920E2829FC001112492
:1057C0008856904FDF91CF91089590E080E0FACF16
:1057D000CF93DF93EC018B81882339F1898187FF97
:1057E00021C061E0CE01DBDFFC01892BF1F080817B
:1057F000853ED9F08B81823040F489899A89AB89C2
:10580000BC89848F958FA68FB78F8D899E89938F42
:10581000828F8D899E89AF89B88DB58BA48B898144
:105820008F778983DF91CF9192CB81E0888380E06D
:10583000DF91CF9108952F923F924F925F926F9296
:105840007F928F929F92AF92BF92CF92DF92EF9210
:10585000FF920F931F93CF93DF9300D01F92CDB78A
:10586000DEB78C014B011A01DC0113968C91139762
:10587000813009F0C7C011968C9181FFC3C082FDB1
:10588000AEC06101D80118964D915D916D917C91EA
:105890001B97C114D10409F414C159968D919C91A0
:1058A0005A97FC0174802FEF270D2A013B0139E044
:1058B00076946794579447943A95D1F7722E742052
:1058C0007A01F1E0FF2271101FC0E114F104E1F44C
:1058D00014964D915D916D917C91179741155105ED
:1058E0006105710509F094C055968D919D910D90BB
:1058F000BC91A02D0097A105B10509F0A1C0C80178
:1059000056DE882309F47EC080E092E08E199F095C
:1059100056018C159D0508F45C01D80159964D91EE
:105920005C915A9714968D919D910D90BC91A02DEC
:105930000297A109B109FA01258504C0880F991FB2
:10594000AA1FBB1F2A95D2F74685578560897189A2
:10595000840F951FA61FB71F9C01AD01270D311D98
:10596000411D511D29013A01A11432E0B30609F08D
:1059700075C08091981190919911A0919A11B09150
:105980009B11481659066A067B0669F41092A0110D
:105990008FEF9FEFDC018093981190939911A09362
:1059A0009A11B0939B119401B301A2018091A111AE
:1059B0009091A2116EDA882329F1F80180859185F2
:1059C000A285B3858A0D9B1DA11DB11D808791877E
:1059D000A287B3878A0C9B1CCA18DB0853CFF80137
:1059E000418952896389748980859185A285B385AF
:1059F000481759076A077B0709F443CFC80144DDFC
:105A000081113FCF81E0D8018C938FEF9FEF6FC062
:105A10009E012F5F3F4FFEDB8823A1F389819A818E
:105A2000AB81BC81F801218D328DF90127892031AC
:105A300069F4883FFFEF9F07A105B10508F05FCF2C
:105A4000F80184839583A683B7835ECF883F2FEFC9
:105A50009207A2072FE0B20798F351CFE114F104A7
:105A600049F5D80118964D915D916D917C911B97E8
:105A700051968D919D910D90BC91A02D481759077D
:105A80006A077B07B8F063DA882309F4BBCF81E0AB
:105A90008093A011409298115092991160929A119E
:105AA00070929B11A501B401C7018856904F0E94C6
:105AB000EBE183CF41E0C301B201E0DA8111F2CF23
:105AC000A1CFF80181899289A389B48984179507A8
:105AD000A607B70738F48181418B528B638B748B97
