:100000000C94DA120C940B130C940B130C940B132A
:100010000C940B130C940B130C94C4AC0C940B1396
:100020000C940B130C940B130C940B130C940B13D8
:100030000C940B130C94B47B0C940B130C940B13B7
:100040000C940B130C94324A0C940B130C940B135A
:100050000C940B130C940B130C94A37F0C9418BAF0
:100060000C940B130C940E9A0C943C9A0C940B1356
:100070000C940B130C940B130C940B130C940B1388
:100080000C940B130C940B130C940B130C940B1378
:100090000C940B130C940B130C940B130C940B1368
:1000A0000C940B130C940B130C940B130C940B1358
:1000B0000C940B130C940B130C940B130C940B1348
:1000C0000C940B130C940B130C940B130C94999A23
:1000D0000C946F9A0C940B130C940B130C940B133D
:1000E0000C940B1347298929BD290E2A432AFA2A81
:1000F000642A6C2B8D2AC22A15B818B807B80BB819
:1001000011B84FB81CB820B826B82AB82EB834B8E1
:1001100038B83CB84FB842B846B84AB832B937B91F
:100120003CB946B950B9C9B95AB962B96AB974B9D2
:100130007EB988B997B9A1B9C9B9ABB9B5B9BFB9D1
:100140000C946AB90C9420B80C94147B0C947640EF
:100150000C949BD80C94E8460C94FA2A0C942EB874
:100160000C943CB90C94FC430C94E37A0C9430410D
:100170000C9489290C944FBB0C9415B80C944FB86F
:100180000C94757C0C94BFB90C9434B80C94534106
:100190000C9436930C9407B80C9488B90C942AB834
:1001A0000C940E440C948E420C94642A0C94B4402B
:1001B0000C94067B0C9455460C94557B0C9442B8D9
:1001C0000C9432B90C940E2A0C941CB80C9497B968
:1001D0000C9447290C94BD290C94ABB20C94135C7D
:1001E0000C94AF420C94B97A0C94ABB90C94EE43D6
:1001F0000C94B5B90C9406420C9450B90C94C22AD4
:100200000C9437B90C94DE420C9438B80C9446B96F
:100210000C945AB90C946C2B0C943CB80C9462B9A5
:100220000C944AB80C9446B80C94C0460C94DB412C
:100230000C9461410C9420440C9417450C94C9B95A
:100240000C9412410C9411B80C9418B80C940BB87F
:100250000C94AB5D0C948D2A0C947EB90C94F27ABC
:100260000C9413460C94432A0C94C27C0C9426B82C
:100270000C9435930C9412420C94CE450C9474B9A2
:100280000C941A420C94A1B90C94E0430C94399349
:100290004E414E494E495459494E46CDCCCC3D0A6B
:1002A000D7233C17B7D13877CC2B329595E6241F4E
:1002B000B14F0A000020410000C84200401C462007
:1002C000BCBE4CCA1B0E5AAEC59D7400407A10F3DA
:1002D0005A00A0724E18090010A5D4E80000E87674
:1002E00048170000E40B54020000CA9A3B000000CB
:1002F000E1F505000080969800000040420F0000E4
:1003000000A08601000000102700000000E80300A4
:100310000000006400000000000A0000000000016E
:1003200000000000002C76D888DC674F0823DFC16E
:10033000DFAE59E1B1B796E5E3E453C63AE6519929
:100340007696E8E6C28426EB898C9B62ED407C6F52
:10035000FCEFBC9C9F40F2BAA56FA5F490055A2A09
:10036000F75C936B6CF9676DC11BFCE0E40D47FE15
:10037000F520E6B500D0ED902E030094357705000A
:1003800080841E080000204E0A000000C80C333391
:1003900033330F986E12831141EF8D2114893BE6A0
:1003A0005516CFFEE6DB18D1844B381BF77C1D9029
:1003B0001DA4BBE424203284725E228100C9F12492
:1003C000ECA1E53D27434F4D4D554E49434154491E
:1003D0004F4E0044525952554E004552524F5253BF
:1003E00000494E464F004543484F00557370696AB7
:1003F0002E2E2E004D3530300059206F7574206F31
:10040000662072616E67652028312D32292E0A0020
:1004100058206F7574206F662072616E67652028A2
:10042000312D32292E0A004D6573682070726F627B
:10043000696E6720646F6E652E0A00537461727472
:10044000206D6573682070726F62696E67207769CE
:100450007468202247323920533122206669727332
:10046000742E0A004732380A47323920533200537B
:10047000746174653A20004D65736820626564207C
:100480006C6576656C696E6720686173206E6F209D
:10049000646174612E0A0053206F7574206F6620AA
:1004A00072616E67652028302D35292E0A004D6552
:1004B000736820706F696E742063616E6E6F742054
:1004C0006265207265736F6C7665640A004F637AAB
:1004D000656B6977616E69652E2E2E004D30004286
:1004E00072616B20727563687500456E6420666981
:1004F0006C65206C6973740A00426567696E2066DA
:10050000696C65206C6973740A004D313235005393
:1005100044207072696E74696E6720627974652018
:10052000004E6F74205344207072696E74696E6758
:100530000A005072696E742074696D653A2000502B
:10054000726F7465637465642050696E0A0050723E
:10055000696E746F2048332B20676F746F77612E3C
:1005600000E603E103DA03D303C5036F66660044C4
:10057000454255473A0055626974792E20004D3145
:1005800031332053006F6B004361703A454D455243
:1005900047454E43595F5041525345523A300A0045
:1005A0004361703A434153455F4C494748545F4269
:1005B00052494748544E4553533A300A00436170FC
:1005C0003A544F47474C455F4C49474854533A309B
:1005D0000A004361703A534F4654574152455F50A9
:1005E0004F5745523A300A004361703A4C455645E0
:1005F0004C494E475F444154413A310A00436170CF
:100600003A5A5F50524F42453A300A004361703ABD
:100610004155544F4C4556454C3A300A00436170A1
:100620003A5052494E545F4A4F423A310A004361B0
:10063000703A50524F47524553533A300A00436183
:10064000703A4155544F5245504F52545F54454DA6
:10065000503A310A004361703A454550524F4D3A85
:10066000310A004649524D574152455F4E414D4572
:100670003A4D61726C696E20312E332E3161202823
:100680004769746875622920534F555243455F434B
:100690004F44455F55524C3A68747470733A2F2F2B
:1006A0006769746875622E636F6D2F4D61726C6936
:1006B0006E4669726D776172652F4D61726C696EFD
:1006C0002050524F544F434F4C5F56455253494F61
:1006D0004E3A312E30204D414348494E455F5459E2
:1006E00050453A5072696E746F2048332B2045583C
:1006F0005452554445525F434F554E543A3120555C
:100700005549443A63656465326132662D3431611E
:10071000322D343734382D396231322D633535631B
:1007200036326633363766660A002F2F200053654F
:100730007474696E672054726176656C20416363DE
:10074000656C65726174696F6E3A200053657474EC
:10075000696E6720526574726163742041636365DA
:100760006C65726174696F6E3A20005365747469C8
:100770006E67205072696E7420416363656C6572A8
:100780006174696F6E3A200053657474696E6720F6
:100790005072696E7420616E642054726176656C6B
:1007A00020416363656C65726174696F6E3A200005
:1007B000205A00205900580020204D61783A20002E
:1007C000205A00205900580020204D696E3A200020
:1007D000576C2E200057796C2E00536F667420657D
:1007E0006E6473746F70733A20000001363726FF11
:1007F000023C3D380EFF2E303EFF13FF0C0809FF70
:10080000FFFF1A1C18FFFF08440AFF43FFFFFFFF0A
:10081000FFFF20643A0020693A0020703A0020640B
:100820003A0020693A0020703A0043290A006162C8
:100830006C656420286D696E2074656D70200043BE
:100840006F6C64206578747275646573206172657D
:100850002000426564204C6576656C696E672000F7
:100860004661696C656420746F20656E61626C65B9
:1008700020426564204C6576656C696E670A004DA0
:1008800065736820426564204C6576656C20646100
:1008900074613A0A00506F7A2E207A65726F776120
:1008A000207573742E004572723A20546F6F206663
:1008B00061722100546F6F206661722066726F6DE5
:1008C000207265666572656E636520706F696E740F
:1008D0000A0061627920777A6E6F77696320777991
:1008E0006472756B0066696C616D656E7475206904
:1008F000206B6C696B6E696A005573756E206E6152
:10090000646D6961720000577A6E617769616E6922
:10091000652077796472756B75004D383132004E01
:100920006F2063617365206C696768740A004163B6
:10093000746976652045787472756465723A200032
:10094000556E6B6E6F776E20636F6D6D616E643A7E
:100950002022002039363030206F6B2C20747279C1
:1009600020313135200A0039363030206661696C1B
:10097000202D3E2074727920313135200A00206309
:100980006F6E6E6563746564210A00203700203441
:100990002E330020332E350020332E320020322E0D
:1009A00034004E657874696F6E004E657874696FB7
:1009B0006E206E6F7420636F6E6E65637465642164
:1009C000004E69650054616B00437A7920777A6E36
:1009D0006F7769632077796472756B3F0057796B25
:1009E0007279746F207A616E696B206E61706965CF
:1009F00063696100706F207A616E696B75207A613E
:100A000073696C616E696100577A6E617769616EB6
:100A100069652077796472756B75004D31313720C7
:100A20004472756B6F77616E69652E2E004739329F
:100A30002045004D3832002046333030300020450C
:100A400031380020590047312058002046333030DB
:100A500030004731205A004D3831320020463330C3
:100A600030300020453135002059004731205800F2
:100A70004D3233202573002E67636F004D313930BE
:100A800020532564004D31303920532564006261C4
:100A9000627973686966743A006166746572686F3A
:100AA0006D653A006265666F72653A0042617A6F01
:100AB00077616E6965206F736900706F207A616E6F
:100AC000696B75207A6173696C616E69610055723A
:100AD000756368616D69616E696500473238002031
:100AE00020506C616E6E6572427566666572427901
:100AF0007465733A20002046726565204D656D6F00
:100B000072793A2000436F6D70696C65643A204ECB
:100B10006F7620313620323032300A00207C20417E
:100B20007574686F723A20285072696E746F3364FE
:100B30002E706C2C204A616B75622053696B6F724A
:100B400061290A00323032302D31302D3139002008
:100B50004C61737420557064617465643A2000318F
:100B60002E332E31610A004D61726C696E00205384
:100B70006F6674776172652052657365740A002030
:100B80005761746368646F672052657365740A0007
:100B90002042726F776E206F757420526573657492
:100BA0000A002045787465726E616C205265736529
:100BB000740A00506F77657255700A007374617221
:100BC000740A006572726F722077726974696E6759
:100BD00020746F2066696C650A00205A3A0020591B
:100BE0003A0020583A00656E6473746F7073206821
:100BF00069743A2000446F6E6520736176696E6790
:100C00002066696C652E0A004D32390043616E6EB4
:100C10006F7420656E746572207375626469723AD0
:100C20002000456B7374727564756A20776965631B
:100C3000656A00577A6E6F77206472756B6F7761A3
:100C40006E6965005779626965727A206F70636AB0
:100C5000650050726F737A6520637A656B6163001B
:100C6000526F7A67727A6577616E6965206479730D
:100C70007A790057796D69616E612066696C616D82
:100C8000656E74750061627920726F7A67727A613D
:100C900063206479737A6500576369736E696A20AB
:100CA00070727A796369736B0057796D69616E61EF
:100CB0002066696C616D656E747500777964727514
:100CC0006B75005472776120777A6E617769616E17
:100CD0006965006E6F7765676F206D617465726915
:100CE000616C75005472776120656B737472757AEC
:100CF0006A610066696C616D656E747520646F2051
:100D0000676C6F77696379005472776120777072CE
:100D10006F7761647A616E69650057796D69616E9C
:100D2000612066696C616D656E7475006162792021
:100D30006B6F6E74796E756F7761632E2E2E0069FE
:100D4000206E616369736E696A2070727A79636973
:100D5000736B00576C6F7A2066696C616D656E7499
:100D60000057796D69616E612066696C616D656EB1
:100D700074750066696C616D656E7475207A2067A4
:100D80006C6F776963790054727761207779737536
:100D900077616E69650057796D69616E612066697A
:100DA0006C616D656E7475007A6D69616E7920662F
:100DB000696C616D656E7475005472776120726F35
:100DC0007A706F637A796E616E69650057796D69C3
:100DD000616E612066696C616D656E747500577235
:100DE0006974696E6720746F2066696C653A2000CB
:100DF0006F70656E206661696C65642C2046696C55
:100E0000653A20006F70656E206661696C65642CC0
:100E10002046696C653A200046696C652073656CF4
:100E200065637465640A002053697A653A20004658
:100E3000696C65206F70656E65643A20006F70653F
:100E40006E206661696C65642C2046696C653A2089
:100E5000002066696C653A20004E6F7720002220E2
:100E6000706F73002220706172656E743A220053B5
:100E70005542524F5554494E452043414C4C2074E5
:100E800061726765743A220055626974792E200098
:100E9000747279696E6720746F2063616C6C207363
:100EA00075622D67636F64652066696C6573207772
:100EB00069746820746F6F206D616E79206C65763F
:100EC000656C732E204D4158206C6576656C2069E9
:100ED000733A0020636F6C6420657874727573696F
:100EE0006F6E2070726576656E7465640A00577A5D
:100EF0006E6F7769656E6965004D323400577964AD
:100F000072756B20777374727A796D616E79004DAA
:100F1000313235004732392053320070726F6265CA
:100F200073656E643A0A004E49450054414B0054C3
:100F3000414B004D2042204C00323032302D3130B8
:100F40002D313900312E332E316100256C642E2570
:100F5000696D007A61706973616E65007A616C61B8
:100F6000646F77616E650054656D702E206D696EDB
:100F70003A20313730006B6F6E74796E756F776120
:100F80006300726F7A67727A656A206162790047DE
:100F90006C6F77696361206A657374207A696D6E1E
:100FA000612C004D36303020423000473930004748
:100FB0003931004D383400473238004472756B20A7
:100FC00070727A657277616E790024F4D43050C300
:100FD0008E20C2A24017828B7011127A910D816C03
:100FE000D90AA861E108C7586607615143061E4B3C
:100FF0005D05C145A7041A411104093D98037139E3
:1010000031034036DB0265339102D4305402802E26
:101010001D02632CEE01752AC501B028A00110271E
:1010200081018F2564012B244B01E0223401AC2186
:101030001F018D200D01801FFC00841EED00971DF7
:10104000DF00B81CD200E61BC600201BBC00641ADF
:10105000B200B219A8000A19A0006A189900D117A5
:10106000910040178B00B516840031167E00B31531
:1010700079003A157300C7146F0058146A00EE1314
:1010800066008813630025135E00C7125B006C12B4
:10109000570015125400C111510070114F00211159
:1010A0004B00D61049008D10470046104400021036
:1010B0004200C00F4000800F3E00420F3C00060F70
:1010C0003B00CB0E3800930E37005C0E3500270E28
:1010D0003400F30D3200C10D3100900D3000600D71
:1010E0002E00320D2D00050D2C00D90C2B00AE0C5E
:1010F0002900850C29005C0C2700350C27000E0CFC
:101100002600E80B2400C40B2400A00B23007D0B59
:1011100023005A0B2100390B2100180B2000F80A7C
:101120001F00D90A1E00BB0A1E009D0A1D00800A6E
:101130001D00630A1C00470A1B002C0A1B00110A31
:101140001A00F7091A00DD091900C4091900AB09D2
:101150001900920917007B091800630917004C0950
:10116000160036091600200916000A091500F508B0
:101170001500E0081400CC081400B8081400A408F6
:101180001400900813007D0812006B081300580823
:10119000120046081200340811002308110012083A
:1011A000110001081100F0071000E0071000D0073F
:1011B0001000C0071000B0070F00A1071000910732
:1011C0000E0083070F0074070F0065070E00570716
:1011D0000E0049070E003B070D002E070E002007EA
:1011E0000D0013070D0006070D00F9060C00ED06B3
:1011F0000D00E0060C00D4060C00C8060C00BC066E
:101200000C00B0060C00A4060B0099060C008D061D
:101210000B0082060B0077060B006C060B006106C4
:101220000A0057060B004C060A0042060A00380660
:101230000A002E060A0024060A001A060A001006F2
:10124000090007060A00FD050900F4050900EB0581
:101250000900E2050900D9050900D0050900C70504
:101260000900BE050900B5050800AD050800A50583
:1012700009009C050800940508008C0508008405F9
:1012800008007C050800740508006C05070065056A
:1012900008005D050700560508004E0507004705D4
:1012A00007004005080038050700310507002A053A
:1012B0000700230507001C050600160507000F059B
:1012C00007000805060002050700FB040600F504F8
:1012D0000700EE040600E8040600E2040700DB0451
:1012E0000600D5040600CF040600C9040600C304A6
:1012F0000600BD040600B7040600B1040500AC04F6
:101300000600A6040600A00405009B040600950440
:101310000500900406008A04050085040500800489
:1013200006007A04050075040500700405006B04CE
:10133000050066040500610405005C04050057040F
:101340000500520405004D0405004804050043044F
:1013500005003E0404003A0405003504050030048D
:1013600004002C04050027040400230405001E04C7
:1013700004001A04040016040500110404000D04FE
:101380000400090405000404040000040400FC0334
:101390000400F8030400F4030400F0030400EC0369
:1013A0000400E8030400E4030400E0030400DC0399
:1013B0000400D8030400D4030400D0030400CC03C9
:1013C0000400C8030300C503030024F404D9201B50
:1013D000C40C5C0E9804C4095F0265077101F40532
:1013E000F900FB04B30048048700C10369005803F7
:1013F000550003034500BE023A0084023100530247
:101400002A002902250004022000E4011C00C80172
:101410001900AF0117009801140084011300710135
:1014200010006101100051010E0043010D00360152
:101430000B002B010B0020010B00150109000C0112
:10144000090003010800FB000800F3000800EB009E
:101450000700E4000600DE000600D8000600D20007
:101460000600CC000500C7000500C2000500BD0055
:101470000400B9000400B5000400B1000400AD0090
:101480000400A9000400A5000300A20003009F00BF
:1014900004009B00030098000300950002009300E5
:1014A0000300900003008D0002008B000300880001
:1014B00002008600020084000300810002007F0019
:1014C00002007D0002007B0002007900020077002C
:1014D0000100760002007400020072000100710039
:1014E00002006F0002006D0001006C0002006A0043
:1014F000010069000200670001006600010065004C
:10150000010064000200620001006100010060004F
:1015100001005F0002005D0001005C0001005B0053
:1015200001005A0001005900010058000100570055
:101530000100560001005500010054000100530055
:101540000000530001005200010051000100500052
:1015500001004F0001004E0000004E0001004D0050
:1015600001004C0001004B0000004B0001004A004C
:101570000100490001004800000048000100470048
:101580000100460000004600010045000000450043
:10159000010044000100430000004300010042003C
:1015A0000000420001004100000041000100400035
:1015B00001003F0000003F0001003E0000003E002F
:1015C00001003D0000003D0001003C0000003C0027
:1015D00000003C0001003B0000003B0001003A001D
:1015E00000003A0001003900000039000100380015
:1015F000000038000000380001003700000037000C
:101600000100360000003600000036000100350001
:1016100000003500000035000100340000003400F7
:1016200000003400010033000000330000003300EC
:1016300001003200000032000000320001003100E1
:1016400000003100000031000100300000003000D7
:101650000000300001002F0000002F0000002F00CC
:1016600000002F0001002E0000002E0000002E00C0
:1016700001002D0000002D0000002D0000002D00B5
:1016800001002C0000002C0000002C0000002C00A9
:1016900001002B0000002B0000002B0000002B009D
:1016A00001002A0000002A0000002A0000002A0091
:1016B0000100290000002900000029000000290085
:1016C0000000290001002800000028000000280078
:1016D000000028000000280001002700000027006B
:1016E000000027000000270000002700010026005E
:1016F0000000260000002600000026000000260052
:101700000100250000002500000025000000250044
:101710000000250000002500010024000000240036
:101720000000240000002400000024000100230029
:10173000000023000000230000002300000023001D
:10174000000023000000230001002200000022000E
:101750000000220000002200000022000000220001
:1017600001002100000021000000210000002100F4
:1017700000002100000021000000210001002000E5
:1017800000002000000020000000200000002000D9
:1017900000002000000020000000200001001F00C9
:1017A00000001F0000001F0000001F0000001F00BD
:1017B00000001F0000001F0001001E0000001E00AE
:1017C00000001E0000001E0000004D38342058208C
:1017D00059205A20450043616E6E6F74206F70650A
:1017E0006E207375626469722000534420636172D5
:1017F00064206F6B0A006F70656E526F6F742066A5
:1018000061696C65640A00766F6C756D652E696E32
:101810006974206661696C65640A004572726F7252
:101820003A00534420696E6974206661696C0A004D
:101830006175746F25692E67004D3234004D323367
:1018400020257300656E7175657565696E67202268
:10185000006563686F3A0020440020490020204D55
:1018600033303420500020440020490020204D33E4
:1018700030312050005049442073657474696E679C
:10188000733A0A00205A002059002020473239209C
:10189000533320580020204D3432302053004D6502
:1018A000736820426564204C6576656C696E673AA2
:1018B0000A00205A0020590020204D32303620588E
:1018C00000486F6D65206F66667365743A0A002084
:1018D0004500205A00205900205800204200205482
:1018E0000020204D323035205300416476616E6314
:1018F00065643A20533C6D696E5F6665656472612C
:1019000074653E20543C6D696E5F74726176656CDF
:101910005F66656564726174653E20423C6D696E08
:101920005F7365676D656E745F74696D655F6D7318
:101930003E20583C6D61785F78795F6A65726B3ED6
:10194000205A3C6D61785F7A5F6A65726B3E204514
:101950003C6D61785F655F6A65726B3E0A0020547A
:101960000020520020204D3230342050004163636B
:10197000656C65726174696F6E2028756E69747329
:101980002F7332293A20503C7072696E745F616324
:1019900063656C3E20523C726574726163745F6172
:1019A0006363656C3E20543C74726176656C5F6164
:1019B0006363656C3E0A00204500205A00205900F0
:1019C00020204D3230312058004D6178696D756DA1
:1019D00020416363656C65726174696F6E20287560
:1019E0006E6974732F7332293A0A00204500205A19
:1019F0000020590020204D3230332058004D6178AE
:101A0000696D756D20666565647261746573202803
:101A1000756E6974732F73293A0A00204500205AA5
:101A20000020590020204D39322058005374657031
:101A3000732070657220756E69743A0A0020204D1B
:101A40003230302044300A0020204D3230302044E3
:101A5000002044697361626C65640A0046696C61C8
:101A60006D656E742073657474696E67733A0020D7
:101A700020473231202020203B20556E697473208E
:101A8000696E206D6D0A0066696C616D656E743AF1
:101A900020007A5F6D61783A2000795F6D696E3A57
:101AA0002000785F6D61783A20005265706F727423
:101AB000696E6720656E6473746F702073746174EF
:101AC00075730A00206E6F7420656E7465726564AC
:101AD0002E0A000A4D6561737572656420706F6926
:101AE0006E74733A0A005A206F66667365743A2002
:101AF000004E756D20582C593A20322C320A00467F
:101B0000696C652064656C657465643A0044656C55
:101B10006574696F6E206661696C65642C20466926
:101B20006C653A20006F70656E206661696C656453
:101B30002C2046696C653A20006D0046696C616D29
:101B4000656E7420757365643A2000537461747314
:101B50003A20002C204C6F6E67657374206A6F62A8
:101B60003A2000546F74616C2074696D653A2000EE
:101B700053746174733A20002C204661696C65646B
:101B80003A20002C2046696E69736865643A20002B
:101B90005072696E74733A200053746174733A2002
:101BA00000202F002042403A0020403A00526F7A35
:101BB00067727A616E6F0020573A005072696E74D6
:101BC0006F2048332B20676F746F77612E00526F40
:101BD0007A67727A616E6F2073746F6C0020573A67
:101BE00000526F7A67727A6577616E6965207374E7
:101BF0006F6C752E2E2E0055626974792E20005A56
:101C00006174727A796D616E792E20005072696EFE
:101C10007465722073746F707065642064756520DC
:101C2000746F206572726F72732E2046697820740B
:101C30006865206572726F7220616E6420757365CD
:101C4000204D39393920746F207265737461727454
:101C50002E202854656D70657261747572652069F7
:101C6000732072657365742E205365742069742027
:101C700061667465722072657374617274696E67EF
:101C8000290A004E6F204C696E65204E756D6265A5
:101C900072207769746820636865636B73756D2C57
:101CA000204C617374204C696E653A20004E6F20A1
:101CB000436865636B73756D2077697468206C6920
:101CC0006E65206E756D6265722C204C6173742098
:101CD0004C696E653A2000636865636B73756D20AF
:101CE0006D69736D617463682C204C617374204C52
:101CF000696E653A20004C696E65204E756D6265AF
:101D000072206973206E6F74204C617374204C696B
:101D10006E65204E756D6265722B312C204C61739F
:101D200074204C696E653A20004D313130004D33DE
:101D300031004D383420582059205A204500534452
:101D40002072656164206572726F720A00446F6E62
:101D500065207072696E74696E672066696C650AC9
:101D60000020496E76616C696420657874727564D0
:101D7000657220000000000000000000000000006C
:101D800000004D430000524300004E43205A3A00E9
:101D900020423A0020436F756E7420413A0020457E
:101DA0003A00205A3A0020593A00583A004B642031
:101DB0000023646566696E65202044454641554CA4
:101DC000545F004B69200023646566696E652020BE
:101DD00044454641554C545F004B702000236465D8
:101DE00066696E65202044454641554C545F00505D
:101DF000494420756B6F6E637A6F6E6F0050494473
:101E0000204175746F74756E652066696E697368BC
:101E10006564212050757420746865206C6173744A
:101E2000204B702C204B6920616E64204B64206332
:101E30006F6E7374616E74732066726F6D2062656D
:101E40006C6F7720696E746F20436F6E666967757B
:101E5000726174696F6E2E680A00504944204175A2
:101E6000746F74756E65206661696C656421207499
:101E7000696D656F75740A0050494420626C616435
:101E80003A206F76657273686F740050494420621F
:101E90006C6164206B616C69627261636A69005095
:101EA0004944204175746F74756E65206661696C74
:101EB0006564212054656D7065726174757265206A
:101EC000746F6F20686967680A00204B643A2000CD
:101ED000204B693A2000204B703A20000A20436CC6
:101EE000617373696320504944200A002054753A95
:101EF0002000204B753A2000206D61783A200020A8
:101F00006D696E3A200020643A2000206269617396
:101F10003A200050494420726F7A706F637A65747A
:101F20006F004D65736820706F696E742063616E19
:101F30006E6F74206265207265736F6C7665640ADB
:101F4000004D34323120696E636F727265637420A4
:101F5000706172616D657465722075736167650A81
:101F6000002066697273740A005A005900580048CC
:101F70006F6D65200070012C0190012701B00122D6
:101F800001C0011D01F00118011002130130020E01
:101F9000016002090190020401C002FF000003FA7F
:101FA000004003F5008003F000D003EB002004E6BE
:101FB000007004E100E004DC004005D700C005D259
:101FC000004006CD00D006C8008007C3003008BE20
:101FD00000F008B900C009B400B00AAF00B00BAA05
:101FE00000D00CA500000EA000500F9B00C0109662
:101FF000005012910000148C00C0158700B01782A9
:1020000000B0197D00D01B7800001E730040206EC8
:102010000090226900F024640040275F0090295A54
:1020200000E02B5500102E500020304B001032469F
:1020300000E033410090353C0010373700703832F3
:1020400000A0392D00B03A2800A03B2300603C1EC0
:1020500000103D1900903D1400103E0F00703E0A24
:1020600000C03E0500003F0000403FFBFF803FF600
:10207000FFC03FF1FF457272206D696E2074656D7F
:10208000702073746F6C7500457272206D696E20DC
:1020900074656D70004D494E54454D502074726901
:1020A00067676572656400457272206D617820749F
:1020B000656D702073746F6C7500457272206D6170
:1020C000782074656D70004D415854454D50207412
:1020D00072696767657265640002290A0020627987
:1020E0007465733B20637263200053657474696E7A
:1020F00067732053746F7265642028002028636121
:102100006C63756C6174656429210A0020213D208F
:1021100000454550524F4D20435243206D69736D29
:1021200061746368202D202873746F7265642920A0
:1021300000290A002062797465733B206372632072
:10214000002073746F7265642073657474696E67C0
:102150007320726574726965766564202800204D6D
:1021600061726C696E3D563339290A002845455025
:10217000524F4D3D00454550524F4D20766572738C
:10218000696F6E206D69736D6174636820004861CA
:102190007264636F6465642044656661756C742065
:1021A00053657474696E6773204C6F616465640A6B
:1021B000008813000088130000640000002823003A
:1021C000000000964300009643000048420000A033
:1021D000420000A0420000A0420000484400001459
:1021E000437C3C3E5E2B3D3F2F5B5D3B2C2A225CBB
:1021F000002569730025696D2025697300256968CC
:102200002025696D2025697300256964202569688A
:102210002025696D20256973002569792025696469
:10222000202569682025696D20256973004B61723E
:102230007461207573756E69657461004B617274A9
:102240006120776C6F7A6F6E610073645F73746185
:102250007475733A66616C73650A0073645F7374B6
:10226000617475733A747275650A007A6D69616E8E
:1022700061207364206465743A0A00257564202522
:102280003032753A2530327500202F2000526573A8
:10229000656E643A20006F6B0020636F6C6420658C
:1022A0007874727573696F6E2070726576656E747E
:1022B00065640A00627573793A20706175736564AC
:1022C00020666F7220696E7075740A00627573798A
:1022D0003A2070617573656420666F72207573654E
:1022E000720A00627573793A2070726F6365737356
:1022F000696E670A004D3630300055626974792E78
:1023000020004B494C4C20636175736564206279F1
:10231000204B494C4C20627574746F6E2F70696E3F
:102320000A0055626974792E20004B494C4C206399
:10233000617573656420627920746F6F206D7563B9
:102340006820696E6163746976652074696D6520C3
:102350002D2063757272656E7420636F6D6D616E92
:10236000643A20005072696E7465722068616C7402
:1023700065642E206B696C6C28292063616C6C6528
:1023800064210A00506F7765724C6F73732E2E0AAA
:102390000000004D430000000000004E430000A07C
:1023A000420000A0420000F04100000000576172AE
:1023B0006E696E673A20486F6D696E672042756D71
:1023C000702044697669736F72203C20310A0002E4
:1023D00002080000A0400000A0400000A040000053
:1023E0004D430000524300004E4301FF014D363083
:1023F0003020486F74656E6420746F6F20636F6C5B
:102400006420746F206368616E67652066696C6123
:102410006D656E740A004572726F7220777269740E
:10242000696E6720746F20454550524F4D210A0058
:102430006265640A002C2073797374656D2073746F
:102440006F7070656421204865617465725F4944EE
:102450003A20005A616E696B2074656D702E0054CD
:102460006865726D616C2052756E6177617900529A
:102470006F7A67727A2E206E69657564616E650089
:1024800048656174696E67206661696C6564000007
:10249000002100240027002A002D00300033000115
:1024A000010000040107010A0100002200250028A4
:1024B000002B002E0031003400020100000501084D
:1024C000010B01000020002300260029002C002F12
:1024D00000320000010000030106010901050505A5
:1024E00005070508080808020202020A0A0808048B
:1024F00004040401010101010101010303030303B9
:10250000030303040707070C0C0C0C0C0C0C0C0247
:1025100002020206060606060606060B0B0B0B0B4E
:102520000B0B0B0102102020080810204010204047
:102530008002010201080402010102040810204087
:1025400080804020100804020180040201804020A5
:1025500010080402010804020101020408102040CE
:1025600080010204081020408000000A0B02090CC0
:102570000D0E080703040100000000000000000029
:10258000000000000000000000000000000000004B
:102590000000000000121110000000000000000008
:1025A000000000000000000000000000000000002B
:1025B0004FBB9BD811241FBECFEFD1E2DEBFCDBFF2
:1025C00000E00CBF16E0A0E0B2E0ECE5F2ED01E0C7
:1025D0000BBF02C007900D92AC37B107D9F72EE1BF
:1025E000ACE7B6E001C01D92AB3EB207E1F712E1E5
:1025F000C9EDD2E100E006C021970109802FFE015C
:102600000E9486E5C83DD10780E00807A9F70E942F
:10261000D8CB0C941CE90C9400002F923F924F925F
:102620005F926F927F928F929F92AF92BF92CF9262
:10263000DF92EF92FF920F931F93CF93DF93CDB76B
:10264000DEB7E9970FB6F894DEBF0FBECDBF00919D
:10265000641420E4029F800111240C511E4E8091CD
:10266000EA1480FF1AC0E1E5F8E184917F013FEFB1
:10267000E31AF30A811102C0780104C00E94A298F3
:10268000F701F3CFD7018D917D01882319F00E94C6
:10269000A298F8CF8AE00E94A29881E090E09093FF
:1026A000AF118093AE1110929B0610929A068FE3A1
:1026B0008093A1061092A00610929F0684E0E6E99E
:1026C000F6E0DF011D928A95E9F7F80180810F5F3E
:1026D0001F4F8032D1F38E34C9F4818190ED980F71
:1026E0009A3020F08D3211F08B3281F4DF01129696
:1026F0009D012F5F3F4F8C9180538A3010F4D90198
:10270000F7CFFD01119680818032D9F3F093F21D4D
:10271000E093F11D7F01BFEFEB1AFB0A10816AE223
:1027200070E0C7010E94CAE8009731F0FC013197C0
:1027300080818032E1F311821D3431F1143521F1B1
:10274000173411F1E1E5F8E184918F010F5F1F4F1C
:10275000882321F00E94A298F801F6CF6091F11D24
:102760007091F21D80E499E00E944A5182E20E9439
:10277000A2988AE00E94A2981092AF111092AE1116
:102780000E9491A60C948C27C701FC012081019620
:102790002032D9F320532A30A8F61093A10680E006
:1027A00090E06AE03196DF0111972C91022E000C27
:1027B000330B20533109689FA001699F500D1124EC
:1027C000C901840F951F208120532A3058F390931C
:1027D000A00680939F06DF0131962C912032D9F319
:1027E0001D34D1F48E31910591F03CF4873191057F
:1027F00071F08C31910581F40AC08537910564F040
:102800008737910524F0803AE3E09E0729F4B093DE
:102810009B06A0939A0683C010929B0610929A067C
:102820000091F11D41E050E0FD0131962C912223F1
:1028300009F475C02132A1F41D3491F48032910560
:1028400079F4F0939B06E0939A0663E270E0CF017F
:102850000E94CAE8009709F424C4DC011C925FC0FE
:102860003FEBD32ED20E69E1C62ECD14C0F1BF01CD
:10287000FB0130816F5F7F4F3032D1F360ED630F2A
:102880006A3040F063ED630F623020F03B3211F0AC
:102890000C940A27BF01AD2CB12C7501A3E0F5946F
:1028A000E794AA95E1F797012A56394F79012D2D22
:1028B0002770DA0102C0AA0FBB1F2A95E2F79D011B
:1028C000D7013C91232B2C936115710511F0601BEE
:1028D00001C060E0D501A458B94F6C930AC02091A3
:1028E0009A0630919B06232B21F4B0939B06A0936C
:1028F0009A06208121542A3110F4DF0195CFDF019F
:10290000BD016F5F7F4F2C9120532A3010F4DB0103
:10291000F7CFFD01119620812032D9F3EECF8091BF
:10292000A1068D3409F4BDC3843511F40C94C72677
:10293000873409F007CF80919F069091A0068D31D2
:10294000910509F46CC074F48430910539F11CF4DC
:102950000297D0F011CF4C9709F00ECF80E00E9483
:10296000D9710ACF8A35910509F4A2C224F48A9755
:1029700009F400C301CF8B35910509F49CC28C3555
:10298000910509F49CC2F8CE8091BA02882309F41B
:10299000F3CE0E946E6B0E94E5A5EECE80E50E940C
:1029A0009F97882329F00E94F9966B017C0103C050
:1029B000C12CD12C760183E50E949F97882361F07A
:1029C0000E943D9720E030E04AE754E40E94B3DEE5
:1029D0000E9493E66B017C010E94F1B70E94BB97B5
:1029E0008091F31D9091F41DA091F51DB091F61DFD
:1029F000C80ED91EEA1EFB1E60E08BEE93E00E941B
:102A00009A9C0E940CBADC01CB018C199D09AE097D
:102A1000BF09B7FFB1CE80E00E94C2A1F2CF83E52B
:102A20000E949F97882321F00E941997182F01C0B8
:102A300010E0163068F0E7E9F4E084918F010F5F51
:102A40001F4F882309F498CE0E94A298F801F5CF71
:102A5000123009F445C0B0F41123F9F0113009F037
:102A600024C20E94C05D109201021092000284E60E
:102A700094E090936A1C8093691C0E94896D109366
:102A80000B1513C2143009F401C208F4A5C11530A6
:102A900009F00BC20E942D6C08C28091B11480FD18
:102AA00003C0E7E7F4E011C081FF03C069E773E00A
:102AB00002C06EE773E08FE694E00E944A518AE01C
:102AC0000E94A2980E9480D7F0C184918F010F5F6D
:102AD0001F4F882309F4E9C10E94A298F801F5CF9D
:102AE000209100023091010237FF0CC00BE314E08B
:102AF000F8018491882309F43FCE0F5F1F4F0E9495
:102B0000A298F6CF2115310529F48091B90280935E
:102B10009E0631C08FEF820F982F917897FF03C0E8
:102B200091509E6F9F5FE92F87FD8F5F859580FF96
:102B300002C0E1E0E91BEE0FFF0BE80FF11D87FD7E
:102B4000FA95EE0FFF1FEE0FFF1FEF55FB4E809122
:102B5000831490918414A0918514B091861480837D
:102B60009183A283B38380919E068093B90224301F
:102B700031050CF0CAC0822F817887FF03C08150D5
:102B80008E6F8F5FA82EE22F27FF02C0E1E0E20FD9
:102B9000BE2EB594B0FE03C0A1E0AA2EA81AC09024
:102BA0000F02D0901002E0901102F090120205EA9C
:102BB00013E2F80185919591A591B49180930F024C
:102BC00090931002A0931102B093120220E030E023
:102BD000A901609145157091461580914715909116
:102BE00048150E9497E520E030E040EA50E40E945A
:102BF00097E5609383147093841480938514909365
:102C000086140E9444D885E595E5A5E0B3E4809359
:102C10000F0290931002A0931102B0931202FA2DAA
:102C200024E0F202D0011124AE5FB24F20913D1595
:102C300030913E1540913F15509140156D917D9119
:102C40008D919C910E9497E560937B1470937C1406
:102C500080937D1490937E143B2D84E03802F00124
:102C60001124E650F34F20914115309142154091C7
:102C700043155091441560817181828193810E9436
:102C800097E560937F1470938014809381149093E0
:102C900082140E9444D8F80185919591A591B49130
:102CA00080930F0290931002A0931102B09312022E
:102CB00020E030E0A90160914515709146158091A2
:102CC0004715909148150E9497E56093831470937F
:102CD000841480938514909386140E9444D8C092E3
:102CE0000F02D0921002E0921102F09212020E94A2
:102CF000F1B71092B9028091000290910102019601
:102D00009093010280930002D0C020E030E0A9013E
:102D10006091451570914615809147159091481521
:102D20000E9497E520E030E040EA50E40E9497E5F9
:102D30006093831470938414809385149093861405
:102D40000E9444D80E94F1B78FEF9FEF9093010249
:102D500080930002E7E2F4E084918F010F5F1F4F40
:102D6000882321F00E94A298F801F6CF83E992E02F
:102D70009A83898304E610E019A308A3BE016F5F5C
:102D80007F4FCE0180960E94C5288AEB92E09A83FD
:102D9000898319A308A3BE016F5F7F4FCE01809680
:102DA0000E94C5288091B11481608093B11480EE97
:102DB0009CE00E94A8A081E00E94D97181E00E945D
:102DC0000C6C84EF93E090936A1C8093691C0E94C2
:102DD000896D10920B1569C088E50E949F97882322
:102DE00091F00E9409971FEF160F123090F000E14A
:102DF00014E0F8018491882309F4BECC0F5F1F4FC3
:102E00000E94A298F6CF88E50E94A2980E9434D82A
:102E1000B3CC89E50E949F97882399F00E94099777
:102E20000FEF060F023098F0E9EFF3E084918F0185
:102E30000F5F1F4F882309F49FCC0E94A298F801CE
:102E4000F5CF89E50E94A2980E9434D895CC8AE5F6
:102E50000E949F978823A1F00E943D97E12FEE0FDB
:102E6000FF0BE00FF11D07FDFA95EE0FFF1FEE0FB0
:102E7000FF1FEF55FB4E608371838283938315C0E0
:102E80008AE50E94A2980E9434D876CC8AE50E94F6
:102E90009F978823A9F30E943D9760939D14709398
:102EA0009E1480939F149093A0140E94FA7964CC8E
:102EB00010929D0661CC81E080939D065DCC85E4F7
:102EC0000E949F97B82E811102C00E94F1B709EDB0
:102ED000802E02E0902E8BE7C82E84E1D82E94E459
:102EE000E92E9EE1F92E00E010E0A12CD4018D9195
:102EF0004D010E949F97882339F1F601408051804F
:102F0000628073800E943D97D6016D937D938D936F
:102F10009C9313970330C1F0A30192010E9496E5A0
:102F20009B01AC01F70160817181828193810E94D4
:102F300097E5D7016D937D938D939C931397C8016B
:102F40000E94976CAA24A3940F5F1F4FB4E0CB0E8E
:102F5000D11CE4E0EE0EF11C0430110539F6AA2074
:102F600019F00E94E47003C0B1100E94F6270E947D
:102F7000FA7902CC8091BA02882309F4FDCB89E466
:102F80000E949F97E82E882321F00E940997062F20
:102F900001C000E08AE40E949F97F82E882321F068
:102FA0000E940997162F01C010E0EE2011F00230A8
:102FB00020F4FF2079F0123068F0EEEAF4E084911A
:102FC0008F010F5F1F4F882309F4D6CB0E94A29870
:102FD000F801F5CF0E94CF71EE20E1F024E002026B
:102FE000F0011124EE5FF24F20913D1530913E1516
:102FF00040913F155091401560817181828193818C
:103000000E9497E56093741C7093751C8093761CE6
:103010009093771CFF20E1F034E01302F0011124BB
:10302000E650F34F209141153091421540914315E0
:103030005091441560817181828193810E9497E54E
:103040006093781C7093791C80937A1C90937B1CFE
:1030500080E50E94709781110E942D9786E40E945E
:103060009F978823D9F00E943D976B017C0120E057
:1030700030E0A9010E941AE7181684F420E030E03D
:1030800040E752E4C701B6010E941AE660930F02BE
:103090007093100280931102909312020E94E5A592
:1030A0006BCB80919F069091A0068537910509F41E
:1030B0006FC70CF0B0C08D34910509F4ECC30CF06F
:1030C00050C08931910509F4BEC214F584319105CF
:1030D00009F4A9C17CF48131910509F42AC234F4C0
:1030E000029708F049CBECEDF4E0A0C1429709F457
:1030F000DFC542CB8631910509F479C20CF474C264
:103100008731910509F478C2489709F47EC234CB1F
:103110008F31910509F450C384F48B31910509F482
:10312000BBC20CF49DC28C31910509F4F1C24E97DB
:1031300009F022CB0E94EC691FCB8A32910509F479
:1031400067C324F4809709F4EDC216CB8B34910544
:1031500009F49DC38C34910509F00ECB0E943428EC
:103160000BCB8A36910509F4EAC484F584359105C0
:1031700009F49EC5C4F48135910509F483C53CF476
:103180008E34910509F0F8CA0E94FA67F5CA8235B3
:10319000910509F489C58335910509F0EDCA81E0EF
:1031A0008093A011E9CA8C35910509F4D3C52CF49C
:1031B0008535910509F4B3C5DFCA8836910509F450
:1031C0006EC38936910509F46CC4D6CA8F36910551
:1031D00009F4A8C37CF48C36910509F411C40CF4ED
:1031E000CDC48D36910509F4A2C48E36910509F43B
:1031F00086C3C2CA8137910509F40AC40CF404C419
:103200008237910509F42FC68337910509F0B4CAB6
:10321000E3E6F6E031C68D32A1E09A0711F40C9492
:10322000AE220CF06DC0893C910509F450C75CF5E5
:103230008D37910509F4B4C49CF48737910509F4DE
:10324000E7C60CF4AEC68837910509F4E5C68937A0
:10325000910509F091CA109208021092261D8CCA9D
:103260008B39910509F43AC42CF48C38910509F492
:10327000FCC382CA8E3B910509F45DC4883C91056C
:1032800009F4D1C679CA833D910509F4C9C00CF58A
:103290008C3C910509F454C75CF48B3C910509F012
:1032A0006BCA79EDE72E72E0F72E0EEC14E138C709
:1032B0008D3C910511F40C940C218E3C910509F084
:1032C0005BCA69EDE62E62E0F62E00E010E00C9499
:1032D00079218D3D910511F40C94392234F48C3D03
:1032E000910511F40C942A2247CA823E910511F4EB
:1032F0000C9455228C32914011F40C9484223CCAD7
:10330000843FF1E09F0711F40C945E250CF052C04D
:10331000803931E0930711F40C942624BCF48F32E9
:10332000B1E09B0711F40C94222414F40C94CB23E9
:103330008033F1E09F0711F40C944D2383369140C4
:1033400009F01ACAEBE1F8E10C949F26843A31E0C7
:10335000930711F40C942A243CF48A39914009F023
:103360000BCA0E94357508CA853AE1E09E0711F440
:103370000C9490248C3A914009F0FEC9EDE0F5E1FF
:10338000FDABECAB8DE3882E85E1982E9BE7A92E53
:1033900094E1B92E24E8C22E2CE1D22E37E2232E5E
:1033A00032E0332E41E9E42E43E2F42E00E010E057
:1033B0000C949424883522E0920711F40C949826FA
:1033C000ACF4863FA1E09A0711F40C949E2514F406
:1033D0000C947E25873FE1E09E0711F40C94BE25F6
:1033E0008C31924011F40C948B26C6C98C3223E0A8
:1033F000920791F034F48B32934009F0BDC90E94DA
:10340000C7AA803AB3E09B0709F4C9C1873E93403D
:1034100011F40C94B326B0C9EAE1F9E00C94CD257F
:10342000E1E5F8E17FC7E1E5F8E197C084918F011C
:103430000F5F1F4F882321F00E94A298F801F6CF5A
:10344000A0909A06B0909B0680E50E949F978823E3
:1034500059F00E94F9966B017C0111E0672B682BF3
:10346000692B31F410E004C010E0C12CD12C76019E
:1034700083E50E949F978823F1F00E943D9720E00A
:1034800030E04AE754E40E94B3DE0E9493E66B0109
:103490007C01111112C0672B682B692B71F4A114E8
:1034A000B10459F0D5018C91882339F061E0C50150
:1034B0000E94C79C07C0112391F360E08DEC94E05B
:1034C0000E949A9C83E090E09093AF118093AE119C
:1034D00081E08093AD110E94F1B70E94BB97C114A7
:1034E000D104E104F10411F18091F31D9091F41DD8
:1034F000A091F51DB091F61DC80ED91EEA1EFB1E47
:103500000E940CBADC01CB018C199D09AE09BF09E0
:10351000B7FD02C00C941B278091AD11882311F4D4
:103520000C941B2780E00E94C2A1EACF1092AD113B
:1035300023C960E08FED94E00E949A9C5F988A987E
:103540009FB7F894809108018E7F809308019FBFF8
:10355000129812C90E94A298F80184918F010F5FFE
:103560001F4F8111F7CFE9EFF4E084918F010F5FD6
:103570001F4F882321F00E94A298F801F6CF1092E5
:10358000DA0F1092D90F84E89DE00E94028E8BE141
:10359000E4E8FDE0DE01159601900D928A95E1F7D1
:1035A0008091820D9091830D9C838B8387EE92E0B6
:1035B0009A83898340E050E0BE016F5F7F4F8DE7C3
:1035C00093E00E94475ACE0101960E94BFAAEAEEFC
:1035D000F4E084918F010F5F1F4F882309F4CCC85A
:1035E0000E94A298F801F5CF0E946B58C5C81092AE
:1035F000530D1092540DC0C840E061E080919A06CE
:1036000090919B060E945A2CB7C819821A821B827D
:103610001C8218A219A21AA21BA280919A118823B7
:1036200041F040E0BE016F5F7F4FCE0180960E9467
:103630009BA88091540D882319F081E08093530D4D
:103640000E944E2899C81092530D0E9434288AE097
:1036500095E090936A1C8093691C0E94896D8CC8C8
:103660008091540D882309F487C883E50E949F97B1
:10367000882309F481C80E940997AB01BC014093DB
:10368000D00F5093D10F6093D20F7093D30F8FE16F
:103690009FE00E9492B070C88091540D811103C0C8
:1036A000E1E2F5E029C0EFE0F5E084918F010F5FE2
:1036B0001F4F882321F00E94A298F801F6CF609155
:1036C000D00F7091D10F8091D20F9091D30F4AE01B
:1036D0000E94F8988FE20E94A2986091CC0F70919E
:1036E000CD0F8091CE0F9091CF0F4AE00E94F898B5
:1036F0008AE00E94A29840C884918F010F5F1F4FFB
:10370000882311F40C94BC130E94A298F801F4CF02
:1037100040E060E080919A0690919B060E945A2CAE
:103720000C94BC138091530D81110E94F1B7E0906D
:103730009A06F0909B0680E50E947097182F8823C8
:1037400019F00E942D97182F8091540D882311F4A1
:103750000C94BC13412F61E0C7010E945A2C83E5F1
:103760000E949F97882381F00E940997AB01BC01BA
:103770004093D00F5093D10F6093D20F7093D30F1B
:103780008FE19FE00E9492B08091540D882319F040
:1037900081E08093530D11110C94BC1351CF809193
:1037A0009A0690919B0621E02093520D40E060E044
:1037B0000E945A2C0C94BC1388E29DE00E94BAB679
:1037C00068A379A38AA39BA3BE016F5F7F4FCE013D
:1037D00080960E94C69760E0CE0101960E94C79C29
:1037E000E1E5F8E184918F010F5F1F4F882321F0FD
:1037F0000E94A298F801F6CFBE016F5F7F4F82E36F
:1038000095E00E944A518AE00E94A2980C94BC1351
:1038100083E50E949F97882311F40C94BC130E94A7
:103820001997E82E80E50E949F97882339F00E941F
:1038300009978B0177FF04C00C94BC130DE010E0D6
:10384000802FEAEEF7E09491891303C0EBE1F8E1F1
:103850000AC03196B8E0E231FB07A9F70C941F27A4
:103860000E94A298F80184918F010F5F1F4F811170
:10387000F7CFEFE3F5E084918F010F5F1F4F8823AF
:1038800011F40C94BC130E94A298F801F4CF0E948A
:103890004E280C94BC130E9459560C94BC1388E615
:1038A00090E00E942A6D81110C94BC138091EA145F
:1038B00083FF02C00C94BC1383E50E949F9788236A
:1038C000D1F00E943D970E948CE6CB010E9494812A
:1038D0000E943D9720E030E04AEA52E40E944DDE2B
:1038E00018163CF00E94595660E08EE495E00E9464
:1038F0009A9C0E943D970E944A520C94BC138EE4FD
:103900000E949F97882311F40C94BC130E9409977E
:103910006093E81D7093E91D8093EA1D9093EB1D61
:103920000C94BC1383E50E949F97882319F00E9492
:10393000199701C080E08093EA14E1E5F8E18491F1
:103940008F010F5F1F4F811103C0EFE6F5E004C048
:103950000E94A298F801F3CF84918F010F5F1F4F4F
:10396000882321F00E94A298F801F6CF8091EA14F2
:10397000811103C0EBE6F5E034C011E6C12E15E07D
:10398000D12EE12CF12C20E08091EA1490E00E2C55
:1039900002C0959587950A94E2F780FF17C0BB2473
:1039A000B394B20E222319F08CE20E94A298F60181
:1039B00085919491FC0184918F010F5F1F4F8823A3
:1039C00021F00E94A298F801F6CF2B2DEFEFEE1A0E
:1039D000FE0AF2E0CF0ED11C35E0E316F104A1F6A9
:1039E0000AC084918F010F5F1F4F882321F00E942E
:1039F000A298F801F6CF8AE00E94A2980C94BC131A
:103A0000109213020C94BC1386E795E00E94FFAC61
:103A100083E50E949F97811103C0E1E5F8E10DC0A5
:103A20000E9419978093B4028D3310F40C94BC1348
:103A30008CE38093B4020C94BC1384918F010F5FCC
:103A40001F4F882321F00E94A298F801F6CF4091E1
:103A5000B40250E060E070E08EE795E00E94F7501D
:103A60008AE00E94A2980C94BC138091EA1483FF10
:103A700002C00C94BC1383E50E949F97882311F425
:103A80000C94BC130E943D970E948CE66739710527
:103A900014F066E970E07093A2116093A1110C9488
:103AA000BC1389E690E00E942A6D811111C0E5E8FF
:103AB000F5E084918F010F5F1F4F882321F00E9452
:103AC000A298F801F6CF0E9416648AE00E94A2989C
:103AD0001092AF111092AE110C948C2783E50E94C6
:103AE0009F97882311F40C94BC130E94199780931C
:103AF000F01D8D3318F08CE38093F01D0E940CBAFA
:103B00006B017C012091F01D30E0A8EEB3E00E9433
:103B100030E5C60ED71EE81EF91EC092EC1DD092ED
:103B2000ED1DE092EE1DF092EF1D0C94BC130E946F
:103B300062660C94BC130E949B640C94BC1383E5D6
:103B40000E949F97882339F00E9409978B016F3F4D
:103B5000710519F010F00FEF10E080E50E949F97BB
:103B6000811106C010939C1100939B110C94BC13FF
:103B70000E94199781110C94BC13F4CF80E50E9428
:103B80009F97811106C010929C1110929B110C946A
:103B9000BC130E940997672B11F00C94BC13F3CF50
:103BA0008CE40E947097882319F00E943D9704C00E
:103BB00060E070E080EA90EC68AB79AB8AAB9BABDD
:103BC0008AE50E949F97882319F00E943D9703C0C1
:103BD00060E070E0CB0120E030E040E751E40E947B
:103BE00097E56CA77DA78EA79FA788E50E949F9762
:103BF000882319F00E943D9703C060E070E0CB017C
:103C000020E030E042E553E40E9497E568A779A7F9
:103C10008AA79BA789E50E949F97882319F00E9495
:103C20003D9703C060E070E0CB0120E030E04CED58
:103C300052E40E9497E56CA37DA38EA39FA31982F3
:103C40001A821B821C8218A219A21AA21BA280919E
:103C50009A1181110C94BC13A12CC12CCE01019698
:103C60007C018E01005E1F4F9E012C5D3F4FAE0117
:103C7000485D5F4FBE01645D7F4F8F960E94E2A654
:103C80000C94BC130E949B810E94F1B70E948FA5E7
:103C900010929C1110929B1168EE73E080E090E00E
:103CA0000E94E57E0C94BC131092A0110C94BC13DE
:103CB00083E50E949F978823A1F00E943D9720E012
:103CC00030E04AE754E40E94B3DE0E9493E660933A
:103CD000B5027093B6028093B7029093B8020C9429
:103CE000BC1388E50E94709781110C94372789E5F1
:103CF0000E94709781110C9437278AE50E94709773
:103D000081110C94372785E40E94709781110C94DF
:103D100037270E94F1B70E948FA50C94BC1383E54E
:103D20000E947097882311F40C94BC130E943D9755
:103D300020E030E04AE754E40E94B3DE0E9493E6BC
:103D40006093F71D7093F81D8093F91D9093FA1DF1
:103D50000C94BC13A9EDCA2EA2E0DA2EBBE8EB2E20
:103D6000B4E1FB2E10E0D6018D916D010E94709799
:103D7000882309F46DC0133009F063C00E943D9799
:103D80004B015C0120E030E040EA51E40E944DDE4E
:103D900087FF4EC0A501940160919714709198140B
:103DA0008091991490919A140E941AE62B013C017B
:103DB0009B01AC016091BE147091BF148091C0143E
:103DC0009091C1140E94B3DE6093BE147093BF142F
:103DD0008093C0149093C114A30192016091DA14EE
:103DE0007091DB148091DC149091DD140E94B3DE9D
:103DF0006093DA147093DB148093DC149093DD14D9
:103E0000609128157091291580912A1590912B1594
:103E10000E9452DEA30192010E94B3DE0E9493E64B
:103E2000609328157093291580932A1590932B156C
:103E30008092971490929814A0929914B0929A1428
:103E400007C00E943D97F70160837183828393834B
:103E50001F5FF4E0EF0EF11C143009F084CF0E94D4
:103E6000A2530C94BC130E94F1B70E94FA790C94EF
:103E7000BC130E94A298F80184918F010F5F1F4F1D
:103E80008111F7CFE5E5F6E003C00E94A298F801A2
:103E900084918F010F5F1F4F8111F7CFEEE3F6E0A2
:103EA00003C00E94A298F80184918F010F5F1F4FF9
:103EB0008111F7CFEEE2F6E003C00E94A298F8016C
:103EC00084918F010F5F1F4F8111F7CFEDE1F6E075
:103ED00003C00E94A298F80184918F010F5F1F4FC9
:103EE0008111F7CFECE0F6E003C00E94A298F80140
:103EF00084918F010F5F1F4F8111F7CFEDEFF5E038
:103F000003C00E94A298F80184918F010F5F1F4F98
:103F10008111F7CFE8EEF5E003C00E94A298F80106
:103F200084918F010F5F1F4F8111F7CFE2EDF5E014
:103F300003C00E94A298F80184918F010F5F1F4F68
:103F40008111F7CFEDEBF5E003C00E94A298F801D4
:103F500084918F010F5F1F4F8111F7CFE0EAF5E0E9
:103F600003C00E94A298F80184918F010F5F1F4F38
:103F70008111F7CFE8E8F5E084918F010F5F1F4FC3
:103F8000882311F40C94BC130E94A298F801F4CF7A
:103F900060E080919A0690919B060E94C79C0C94C9
:103FA000BC1385E40E947097882381F00E942D97AE
:103FB000882361F0E1E5F8E184918F010F5F1F4FE5
:103FC000882321F00E94A298F801F6CF81E40E9494
:103FD0007097882381F00E942D97882361F0EAE290
:103FE000F7E084918F010F5F1F4F882321F00E941B
:103FF000A298F801F6CF00919A0610919B06D8017D
:104000008D918D01882309F4F6CC0E94A298F7CFF8
:104010000E94AE5E0C94BC1381E0809308028093F2
:10402000261D0C94BC1388EC90E00E942A6D81112F
:104030000C94BC1384E40E947097882309F443C055
:104040000E943D976B017C0111E020E030E0A90166
:104050000E944DDE811101C010E01093901C20E001
:1040600030E0A901C701B6010E944DDE882359F155
:1040700000919C0610E00E943D97000F111F000F59
:10408000111FF801ED5CFD4F608371838283938380
:1040900020E030E0A90160913302709134028091F8
:1040A0003502909136020E944DDE81110CC080E0F5
:1040B00090E0A0EEBFE38093330290933402A0938C
:1040C0003502B09336020E94A0A50C94BC13E9ED12
:1040D000EE2EE2E0FE2E0CE215E1F70181917F0168
:1040E0000E947097882351F00E943D970E9493E6AA
:1040F000D8016D937D938D939C9313970C5F1F4F05
:10410000B5E10C331B0749F70E947A520C94BC139B
:104110000C5F1F4FB4E10E3D1B0711F40C94BC1350
:10412000F70181917F010E947097882389F30E9493
:104130003D97D8016D937D938D939C931397E8CF12
:1041400083E50E9470978823D9F00E943D97AB01C8
:10415000BC014093C6145093C7146093C814709365
:10416000C9144093C2145093C3146093C414709341
:10417000C51488E897E00E9414518AE00E94A29832
:1041800080E50E947097882399F00E943D97AB01CB
:10419000BC014093C6145093C7146093C814709325
:1041A000C9148BE697E00E9414518AE00E94A298FD
:1041B00082E50E947097882399F00E943D97AB0199
:1041C000BC014093CA145093CB146093CC147093E9
:1041D000CD148CE497E00E9414518AE00E94A298CA
:1041E00084E50E947097882311F40C94BC130E94FC
:1041F0003D97AB01BC014093C2145093C31460932C
:10420000C4147093C5148EE297E00E9414518AE0A2
:104210000E94A2980C94BC1383E50E947097882397
:1042200051F00E943D976093E6147093E7148093D9
:10423000E8149093E91484E50E947097882351F064
:104240000E943D976093E2147093E3148093E4140A
:104250009093E51482E40E947097882351F00E94A5
:10426000F9966093DE147093DF148093E0149093BA
:10427000E11488E50E947097882351F00E943D97D1
:104280006093B2147093B3148093B4149093B514E4
:1042900089E50E947097882351F00E943D976093B2
:1042A000B6147093B7148093B8149093B9148AE538
:1042B0000E947097882351F00E943D976093BA1432
:1042C0007093BB148093BC149093BD1485E40E943A
:1042D0007097882311F40C94BC130E943D9760934F
:1042E000BE147093BF148093C0149093C1140C94A7
:1042F000BC13F70181917F010E947097882339F0E8
:104300000E943D97AB01BC01C8010E94ED6C0F5F9C
:104310001F4F0330110569F70E94E4700E94FA797B
:104320000C94BC1384918F010F5F1F4F882321F0E1
:104330000E94A298F801F6CF83E50E947097882327
:1043400021F00E942D978093B902EAEDF7E0849165
:104350008F010F5F1F4F882321F00E94A298F80160
:10436000F6CF8091B902882319F0E0EDF7E002C0A2
:10437000E5EDF7E084918F010F5F1F4F811103C0BE
:10438000E8ECF7E004C00E94A298F801F3CF849112
:104390008F010F5F1F4F882321F00E94A298F80120
:1043A000F6CF4091841C5091851C6091861C7091C1
:1043B000871C86EC97E00E9414514091881C509114
:1043C000891C60918A1C70918B1C83EC97E00E9481
:1043D000145140918C1C50918D1C60918E1C7091D9
:1043E0008F1C80EC97E00E941451E8EBF7E0849179
:1043F0008F010F5F1F4F882321F00E94A298F801C0
:10440000F6CF4091270250912802609129027091C5
:104410002A0286EB97E00E94145140912B025091A2
:104420002C0260912D0270912E0283EB97E00E9486
:10443000145140912F0250913002609131027091DD
:10444000320280EB97E00E9414518AE00E94A29809
:104450000C94BC1383E50E949F97882311F40C945D
:10446000BC130E94099770939B0260939A020C946C
:10447000BC138DED90E00E942A6D81110C94BC1349
:1044800083E50E949F97882311F40C94BC1300913C
:104490009C0610E00E940997000F111FF801E75FCA
:1044A000FD4F718360830C94BC1380E50E9470976C
:1044B000882311F40C94BC130E940997F62EC62E83
:1044C000D72E83E50E949F97882321F00E940997A9
:1044D0008B0102C00FEF1FEFC8010196039710F088
:1044E0000C94BC13D7FE02C00C94BC13EAEEF7E0A8
:1044F00082E198E02491F21611F40C94BC133196E9
:104500008E179F07B9F7DFC483E50E949F97882322
:1045100019F00E94099702C064E071E079A368A3D2
:1045200080E50E949F97882339F00E940997693897
:10453000F3E17F0730F402C068EE73E07A836983A9
:1045400004C088E893E19A838983BE01605E7F4F4F
:10455000CE0101960E94C5280C94BC1385E40E94EC
:104560009F97811110C080E50E947097882391F079
:104570000E943D976093CB027093CC028093CD0252
:104580009093CE0207C00E941997882361F3EBE154
:10459000F8E172C089E40E947097882381F00E943C
:1045A0003D972CEA35EC47E25EE30E94B3DE609370
:1045B000C7027093C8028093C9029093CA0284E430
:1045C0000E947097882381F00E943D972CEA35EC79
:1045D00047E25EE30E941AE66093CF027093D00236
:1045E0008093D1029093D202E1E5F8E184918F01AA
:1045F0000F5F1F4F882321F00E94A298F801F6CF89
:104600004091CB025091CC026091CD027091CE02CC
:104610008AE198E00E9414512CEA35EC47E25EE30F
:104620006091C7027091C8028091C9029091CA023C
:104630000E941AE6AB01BC0186E198E00E94145189
:104640002CEA35EC47E25EE36091CF027091D00234
:104650008091D1029091D2020E94B3DEAB01BC01E5
:1046600082E198E00E9414518AE00E94A2980C9482
:10467000BC130E94A298F80184918F010F5F1F4F15
:104680008111F7CF07E813E0D8018D918D018823C0
:1046900009F4B1C90E94A298F7CF80E50E947097F3
:1046A000882351F00E943D976093C3027093C40227
:1046B0008093C5029093C60289E40E947097882374
:1046C00081F00E943D972CEA35EC47E25EE30E94C0
:1046D000B3DE6093BF027093C0028093C1029093D7
:1046E000C20284E40E947097882381F00E943D9763
:1046F0002CEA35EC47E25EE30E941AE66093BB02C7
:104700007093BC028093BD029093BE02E1E5F8E194
:1047100084918F010F5F1F4F882321F00E94A29880
:10472000F801F6CF4091C3025091C4026091C502D6
:104730007091C60286E298E00E9414512CEA35EC92
:1047400047E25EE36091BF027091C0028091C102B6
:104750009091C2020E941AE6AB01BC0182E298E08D
:104760000E9414512CEA35EC47E25EE36091BB02F3
:104770007091BC028091BD029091BE020E94B3DE96
:10478000AB01BC018EE198E00E9414518AE00E94C6
:10479000A2980C94BC1383E50E947097182F88236D
:1047A00071F00E943D970E948CE670932102609305
:1047B000200221E0672B09F020E020933C1580E5E2
:1047C0000E947097882361F020912002309121028D
:1047D000232B11F00E942D9780933C150C94BC1351
:1047E00011110C94BC13E1E5F8E184918F010F5F86
:1047F0001F4F882321F00E94A298F801F6CF8091E4
:104800003C15882319F065E975E002C063E873E0A0
:104810008FE398E00E944A5160912002709121023A
:104820008EE298E00E943151EAE2F8E084918F0133
:104830000F5F1F4F882311F40C94BC130E94A298A1
:10484000F801F4CF0E9489750C94BC130E94F1B753
:104850000C94BC1386E50E947097882391F0809198
:10486000B11480FF0EC0EFE7F8E084918F010F5F75
:104870001F4F882321F00E94A298F801F6CF0E94D2
:1048800080D783E50E947097182F882319F00E9423
:104890002D97182F83E50E947097882319F0812F98
:1048A0000E940C6C8091B1148270F82E111103C01B
:1048B000E1E5F8E11BC08111FBCFEBE1F8E1849168
:1048C0008F010F5F1F4F811103C0E0E6F8E004C0C5
:1048D0000E94A298F801F3CF84918F010F5F1F4FC0
:1048E000882331F30E94A298F801F6CF84918F01BA
:1048F0000F5F1F4F882321F00E94A298F801F6CF86
:10490000FF2019F069E773E002C06EE773E082E50B
:1049100098E00E944A518AE00E94A2980C94BC132D
:104920000E943C740C94BC13ACA9BDA98D91BDAB85
:10493000ACAB882309F486C0F501408051806280C9
:104940007380D1012D913D914D915C91F601608173
:104950007181828193810E9497E520E030E040E000
:104960005FE30E94B3DE9B01AC01C301B2010E9470
:104970001AE7181654F4F70185919591A591B49111
:104980008EAB9FABA8AFB9AF04C01EAA1FAA18AECA
:1049900019AED4012D913D914D915C91C301B201AD
:1049A0000E9496E59B01AC016EA97FA988AD99ADE7
:1049B0000E9496E52B013C0120E030E040EA51ECFA
:1049C0000E941AE787FD0AC020E030E040EA51E487
:1049D000C301B2010E944DDE18161CF4EBE1F8E1B0
:1049E00009C0B301A201C8010E94ED6C2BC00E9456
:1049F000A298F80184918F010F5F1F4F8111F7CFAB
:104A0000E4EBF8E084918F010F5F1F4F882321F0C2
:104A10000E94A298F801F6CF61E086EA98E00E9431
:104A20009A9C88E290E09A83898388EC90E099A32D
:104A300088A3BE016F5F7F4FCE0180960E94C5287C
:104A40000C94BC130F5F1F4FB4E08B0E911CE4E07D
:104A5000AE0EB11CF4E0CF0ED11C24E0220E311CAE
:104A600034E0E30EF11C0330110509F05DCF0E9424
:104A7000E4700E94FA7960E085E998E00E949A9CCF
:104A800083E992E099A388A304E610E01A830983DE
:104A9000BE01605E7F4FCE0101960E94C5288AEB61
:104AA00092E099A388A31A830983BE01605E7F4FB9
:104AB000CE0101960E94C5280C94BC130E94B188B7
:104AC0008CEF98E09A83898306E410E019A308A389
:104AD000BE016F5F7F4FCE0180960E94C52884E59E
:104AE0009BE09A83898319A308A3BE016F5F7F4F60
:104AF000CE0180960E94C5280C94BC130E949F830F
:104B00008CEF98E09A83898306E410E019A308A348
:104B1000BE016F5F7F4FCE0180960E94C52884E55D
:104B20009BE09A83898319A308A3BE016F5F7F4F1F
:104B3000CE0180960E94C5280C94BC130E947B82F3
:104B400084E59BE09A83898306E410E019A308A317
:104B5000BE016F5F7F4FCE0180960E94C5288CEF0B
:104B600098E09A83898319A308A3BE016F5F7F4FE2
:104B7000CE0180960E94C5280C94BC1383E50E9448
:104B80007097882319F00E942D9701C081E091E071
:104B900089270E942B5F0C94BC1384918F010F5FB7
:104BA0001F4F882321F00E94A298F801F6CF83E0DE
:104BB00090E09093AF118093AE111092AD1190934D
:104BC000AC118093AB1189EB9CE00E94A8A01092DD
:104BD000A7111092A8111092A9111092AA1180E0A9
:104BE0000E94112980916A14882381F040E050E0EE
:104BF00069EF78E089E799E00E94EF9B40E050E0A0
:104C000061E070E08EE199E00E94119B80916A144E
:104C1000882381F040E050E065EE78E08CE699E092
:104C20000E94EF9B40E050E062E070E08EE199E08E
:104C30000E94119B80916A14882381F040E050E02B
:104C400062ED78E08FE599E00E94EF9B40E050E054
:104C500063E070E08EE199E00E94119B80916914FD
:104C6000882329F01092AC111092AB1106C080E09D
:104C70000E94C2A110926A14B5CF8091AB1190919D
:104C8000AC118330910521F481E00E94C2A1F5CFDF
:104C900021E030E03093AF112093AE11892B11F059
:104CA0000C94BC1380E00E94112980916A1488231F
:104CB00081F040E050E067E079E089E799E00E9408
:104CC000EF9B40E050E061E070E08EE199E00E94EF
:104CD000119B80916A14882381F040E050E066E0E7
:104CE00079E08CE699E00E94EF9B40E050E062E0C2
:104CF00070E08EE199E00E94119B10926A140E946C
:104D00000CBA6093A7117093A8118093A911909386
:104D1000AA110C94BC1383E50E947097882311F4A8
:104D20000C94BC130E942D978093C6110C94BC1355
:104D30000E94A5720C94BC130E94A298F801849161
:104D40008F010F5F1F4F8111F7CFEFE1F9E08491E1
:104D50008F010F5F1F4F882311F40C94BC130E9426
:104D6000A298F801F4CF81E08093BA0210924C1D12
:104D700083E50E947097811104C00E94B0A60C9434
:104D8000BC130E942D9781110C94BC13F6CFF090A8
:104D90009F06FF2029F1E1E5F8E184918F010F5F83
:104DA0001F4F882321F00E94A298F801F6CF84E5D6
:104DB0000E94A2986F2D70E080E090E04AE00E948F
:104DC000F89880E20E94A29807E813E0D8018D913C
:104DD0008D01882311F40C94FB1C0E94A298F6CF3D
:104DE00010920C15E1E5F8E184918F010F5F1F4FE0
:104DF000882321F00E94A298F801F6CF60910C154B
:104E000070E08EE299E00E9431518AE00E94A298FF
:104E10000C94BC1360919A0670919B06672B39F431
:104E2000BF016150710970939B0660939A0660E020
:104E300070E00C944B141092AD110C94BC1361E013
:104E4000802F0E94CDB86E2D802F0E949EB8F12C2D
:104E5000B701802F0E9409B90930110511F00C9497
:104E6000BC13F0929C11E0929B110C94BC130E9415
:104E7000F1B788E50E947097882319F05F9A109225
:104E8000711C89E50E947097882319F08A9A109204
:104E9000721C8AE50E947097882351F09FB7F8949E
:104EA000809108018160809308019FBF1092731C5C
:104EB00085E40E947097882311F40C94BC130E941F
:104EC000C0A10C94BC130E94F1B760E08F2D0E942A
:104ED000CDB80F3FBFEF1B0759F48F2D0E9475B857
:104EE00031E020E0892B09F030E0032F122F05C0BC
:104EF0000130110571F401E010E08F2D0E9475B8AA
:104F00008017910711F40C94BC1380E00E94C2A199
:104F1000F4CF00E010E0F1CFE9960FB6F894DEBFD1
:104F20000FBECDBFDF91CF911F910F91FF90EF90FA
:104F3000DF90CF90BF90AF909F908F907F906F90B9
:104F40005F904F903F902F9008958F929F92AF92D5
:104F5000BF92EF92FF920F931F93CF93DF938B013A
:104F60007C01C0E0D0E0C017D107A1F10E940CBACB
:104F70006093E70F7093E80F8093E90F9093EA0F27
:104F80008FED9FE00E94F27A97FF1FC00E940CBA3B
:104F90008090E70F9090E80FA090E90FB090EA0F93
:104FA000DC01CB0188199909AA09BB098090E30F9C
:104FB0009090E40FA090E50FB090E60F881599054A
:104FC000AA05BB05E8F28E0105C0F70181937F01B8
:104FD0002196C9CFC801DF91CF911F910F91FF900A
:104FE000EF90BF90AF909F908F900895CF92DF92F7
:104FF000EF92FF92C0908714D0908814E0908914AB
:10500000F0908A142091971430919814409199143B
:1050100050919A14C701B6010E94B3DE0E941FE7A7
:105020006093C2067093C3068093C4069093C5062E
:10503000C701B6010E948CE62FB7F89460937714ED
:10504000709378148093791490937A142FBF1092F0
:10505000B2061092B3061092B4061092B506FF90F5
:10506000EF90DF90CF9008958091280D9091290DB9
:10507000019791F482E090E09093290D8093280DA0
:105080000E940CBA6093320D7093330D8093340DEF
:105090009093350D81E0089580E00895CF93DF93DC
:1050A000C091280DD091290DC130D10509F44CC013
:1050B000C230D10569F488E29DE00E94BAB66093DF
:1050C0002A0D70932B0D80932C0D90932D0D18C0ED
:1050D00010922E0D10922F0D1092300D1092310D56
:1050E0001092320D1092330D1092340D1092350D36
:1050F00010922A0D10922B0D10922C0D10922D0D46
:1051000081E090E09093290D8093280D0E940CBAC5
:1051100060932E0D70932F0D8093300D9093310D71
:105120002297A1F08091360D9091370D01969093C2
:10513000370D8093360D10924C0D10924D0D10923C
:105140004E0D10924F0D02C080E001C081E0DF9152
:10515000CF910895CF93DF93C8E2DDE081E088A787
:1051600080E1E6E3FDE0DF011D928A95E9F70E9408
:10517000485666E18E8D9F8D0E94E5E460E086EFE3
:105180009FE0DF91CF910C94E5E40F931F93CF93B1
:10519000DF938C01EB019091160D2091170D921366
:1051A00007C08AE09DE00E9439930E941BB3F3CFB1
:1051B000F80160817181488159818091150D34E039
:1051C000839FF0011124E25FF24F73876287558756
:1051D00044879F5F9093160D8F5F281719F0809377
:1051E000150D02C01092150DDF91CF911F910F91F7
:1051F0000895FC01DB018C9120813181382798E0F2
:10520000A901440F551F37FD06C09A019150C1F7FF
:105210003183208308959A01B1E22B27B0E13B2727
:10522000F5CFCF93C82F89EB9CE00E94A8A06C2FEC
:1052300085E499E00E94CF9A6C2F8BE299E00E945E
:10524000CF9A61E088E399E00E94CF9A81E0809351
:105250006A1410926914CF9108950F931F93CF93FE
:10526000DF9320919B1430919C142817390709F47F
:105270003BC2EC01109268148A30910508F02CC2F0
:10528000FC018827EE58FF4F8F4F0C9486E580E095
:105290000E94112980916A14882381F040E050E037
:1052A0006CEC7DE089E799E00E94EF9B40E050E0E4
:1052B00061E070E08EE199E00E94119B80916A1498
:1052C000882381F040E050E069EB7DE08CE699E0D6
:1052D0000E94EF9B40E050E062E070E08EE199E0D8
:1052E0000E94119B80916A14882381F040E050E075
:1052F00068EA7DE08FE599E00E94EF9B40E050E096
:1053000063E070E08EE199E00E94119B10926A14B4
:10531000E7C180E00E94112980916A14882381F0FE
:1053200040E050E066E97DE089E799E00E94EF9B6C
:1053300040E050E061E070E08EE199E00E94119B56
:1053400080916A14882381F040E050E067E87DE0B6
:105350008CE699E00E94EF9B40E050E062E070E054
:105360008EE199E00E94119B80916A14882371F26A
:1053700040E050E063E77DE0BDCF80E00E9411296E
:1053800080916A14882381F040E050E061E67DE07E
:1053900089E799E00E94EF9B40E050E061E070E017
:1053A0008EE199E00E94119B80916A14882381F01C
:1053B00040E050E063E57DE08CE699E00E94EF9BE1
:1053C00040E050E062E070E08EE199E00E94119BC5
:1053D00080916A14882381F040E050E06FE37DE023
:1053E0008FE599E00E94EF9B40E050E063E070E0C1
:1053F0008EE199E00E94119B80916A14882309F440
:1054000085CF40E050E06CE27DE082E599E00E94CB
:10541000EF9B40E050E064E070E074CF80E00E94D9
:10542000112980916A14882381F040E050E06AE1FC
:105430007DE089E799E00E94EF9B40E050E061E069
:1054400070E08EE199E00E94119B80916A1488239C
:1054500081F040E050E068E07DE08CE699E00E9459
:10546000EF9B40E050E062E070E08EE199E00E9446
:10547000119B80916A14882309F448CF40E050E0E2
:1054800063EF7CE037CF80E00E94112980916A149D
:10549000882381F040E050E064EE7CE089E799E009
:1054A0000E94EF9B40E050E061E070E08EE199E007
:1054B0000E94119B80916A14882309F427CF40E051
:1054C00050E063ED7CE020C080E00E9411298091D3
:1054D0006A14882381F040E050E063EC7CE089E7C7
:1054E00099E00E94EF9B40E050E061E070E08EE1C7
:1054F00099E00E94119B80916A14882309F406CFD9
:1055000040E050E06BEB7CE08CE699E00E94EF9B82
:1055100040E050E062E070E0F5CE80E00E941129AA
:1055200080916A14882381F040E050E069EA7CE0D1
:1055300089E799E00E94EF9B40E050E061E070E075
:105540008EE199E00E94119B80916A14882381F07A
:1055500040E050E068E97CE08CE699E00E94EF9B37
:1055600040E050E062E070E08EE199E00E94119B23
:1055700080916A14882309F4C9CE40E050E065E8C0
:105580007CE0B8CE81E08093681480E00E9411290D
:1055900080916A14882381F040E050E063E77CE06A
:1055A00089E799E00E94EF9B40E050E061E070E005
:1055B0008EE199E00E94119B80916A14882381F00A
:1055C00040E050E060E67CE08CE699E00E94EF9BD2
:1055D00040E050E062E070E08EE199E00E94119BB3
:1055E00080916A14882309F491CE40E050E062E58E
:1055F0007CE080CE109267141092661481E00E94C5
:10560000112960E070E084E099E00E94729B8C01B7
:1056100064E670E080E090E00E94D2B980916A1464
:10562000882381F040E050E064E47CE089E799E081
:105630000E94EF9B40E050E061E070E08EE199E075
:105640000E94119B80916A14882381F040E050E011
:1056500063E37CE08CE699E00E94EF9B40E050E041
:1056600061E070E081E199E00E94119B80916914F2
:10567000882351F00130110539F482E090E09093D5
:1056800067148093661428C080916A14882381F07F
:1056900040E050E062E27CE08FE599E00E94EF9B01
:1056A00040E050E062E070E081E199E00E94119BEF
:1056B00080916914882351F00230110539F481E09A
:1056C00090E090936714809366140AC080E00E9473
:1056D000C2A110926A1495CF80EE9CE00E94A8A00F
:1056E000D0939C14C0939B14DF91CF911F910F9185
:1056F0000895CF92DF92EF92FF926B017C01E091CF
:10570000EF0FF091F00F82E08083C11481EED80694
:10571000E104F104B1F060E079E08DE390E0A701ED
:1057200096010E9403E5DA01C9010197A109B109B7
:10573000B695A795979587959C01211580E1380727
:10574000B8F0E091EF0FF091F00F108260E874E88C
:105750008EE190E0A70196010E9403E5DA01C901FC
:105760000197A109B109B695A795979587959C01D1
:10577000E091EB0FF091EC0F3083E091ED0FF091A1
:10578000EE0F20831092F70FE091F30FF091F40FDA
:1057900086E08083E091F10FF091F20F80818061CB
:1057A0008083E091F10FF091F20F80818860808317
:1057B000E091F10FF091F20F808180688083E09199
:1057C000F10FF091F20F80818F7D8083FF90EF9039
:1057D000DF90CF9008958FED9FE00E94C27CEFEDA7
:1057E000FFE0A289B3898C918F7E8C93A289B389C3
:1057F0008C91877F8C93A289B3898C918F778C93BE
:10580000A289B3898C918F7D8C93828D818F08952D
:10581000EF92FF920F931F93CF93DF93CDB7DEB735
:105820006F970FB6F894DEBF0FBECDBF7B010FE9B7
:105830001DE021EA3DE0F8013183208322E030E0E1
:105840003093DA0F2093D90F9093DC0F8093DB0F06
:1058500085EA9DE00E94028EF801808191812BE112
:10586000FC013496DE01159601900D922A95E1F720
:10587000FC01828193819C838B8387EE92E09A83E3
:105880008983A701BE016F5F7F4F8DE793E00E9480
:10589000475ACE0101960E94BFAA6F960FB6F894A0
:1058A000DEBF0FBECDBFDF91CF911F910F91FF9053
:1058B000EF9008956F927F928F929F92BF92CF92B6
:1058C000DF92EF92FF920F931F93CF93DF93CDB7A9
:1058D000DEB7AC970FB6F894DEBF0FBECDBF2091F8
:1058E000540D222309F4FFC1B62E7C018091220FB2
:1058F000882309F4A5C0442309F4CAC180913A0F52
:10590000882329F1EBE1F8E184918F010F5F1F4FAC
:10591000882321F00E94A298F801F6CFE0E9FEE08A
:1059200084918F010F5F1F4F882321F00E94A2985E
:10593000F801F6CF61E070E080E090E00E946599A8
:105940008AE00E94A29888E89EE00E94FFAC8FE265
:1059500080933F0FC12CDD24D39400E41FE09FE12E
:10596000992E2C2D30E08091F60E9091F70E28178D
:105970003907C0F4929EC001939E900D1124B80186
:105980008C53924F0E94C98CC8018C010196F8017A
:105990002081222329F0FDE8DF1611F0D394F5CF02
:1059A000C394DFCFD7FC06C0B8018FE19FE00E940F
:1059B000C98C02C0F8011082E1E5F8E184918F0101
:1059C0000F5F1F4F882321F00E94A298F801F6CFA5
:1059D000B7018FE69EE00E944A5160913A0FFDE8C0
:1059E0006F9FB0011124615C704F84E69EE00E94BD
:1059F0004A514091D00F5091D10F6091D20F7091C8
:105A0000D30F8EE59EE00E94F7508AE00E94A29894
:105A100080913A0F24E0829FF0011124E55CF04F61
:105A20004091D00F5091D10F6091D20F7091D30F50
:105A300040835183628373838F5F80933A0F0DC0DD
:105A400010923A0F82E0D82E25C1B70181E59EE081
:105A50000E944A518AE00E94A2981092530D8091B0
:105A6000220F882321F08FE19FE00E94A48C1D82E9
:105A700018861C821B8287EE92E09A83898380E8D5
:105A80009DE09093A00D80939F0DF70180818F3250
:105A900009F067C087010F5F1F4FCE0101964C01CF
:105AA0000115110509F463C06FE270E0C8010E949E
:105AB000CAE86C01009709F45BC00817190708F0E1
:105AC00057C03C01601A710AA301B801CE0180964B
:105AD0000E94F3E8E0E2F0E0EC0FFD1FE60DF71D99
