:100000000C94DA120C940B130C940B130C940B132A
:100010000C940B130C940B130C9494AC0C940B13C6
:100020000C940B130C940B130C940B130C940B13D8
:100030000C940B130C941E830C940B130C940B1345
:100040000C940B130C946A680C940B130C940B1304
:100050000C940B130C940B130C940D870C94E8B9AF
:100060000C940B130C94EF330C941D340C940B1361
:100070000C940B130C940B130C940B130C940B1388
:100080000C940B130C940B130C940B130C940B1378
:100090000C940B130C940B130C940B130C940B1368
:1000A0000C940B130C940B130C940B130C940B1358
:1000B0000C940B130C940B130C940B130C940B1348
:1000C0000C940B130C940B130C940B130C947A34A8
:1000D0000C9450340C940B130C940B130C940B13C2
:1000E0000C940B1352369436C83619374E370538F0
:1000F0006F3777389837CD37E5B7E8B7D7B7DBB77D
:10010000E1B71FB8ECB7F0B7F6B7FAB7FEB704B867
:1001100008B80CB81FB812B816B81AB802B907B99F
:100120000CB916B920B999B92AB932B93AB944B952
:100130004EB958B967B971B999B97BB985B98FB951
:100140000C9432B90C94D2270C947E820C9404B88F
:100150000C94E37B0C9467B90C948D640C9412B8E6
:100160000C9419370C944B640C946F370C942AB987
:100170000C940CB90C944D820C94D3270C94FEB7BC
:100180000C946BD80C940CB80C941FBB0C94DF83AC
:100190000C94D6270C94D7B70C944B7A0C94F6B7E2
:1001A0000C9406640C9499B90C94C8360C94ECB772
:1001B0000C9416610C9420B90C948B5F0C94E5B7E9
:1001C0000C9470820C944EB90C9494360C94466244
:1001D0000C94BF820C9405380C94685F0C94995F62
:1001E0000C94C6600C9452600C94CD370C947BB97F
:1001F0000C94AE5E0C9402B90C9471B90C94206509
:100200000C9407B90C9423820C94E1B70C941360FE
:100210000C94F0B70C941FB80C943AB90C9444B9F0
:100220000C9452360C94E7600C94EC5E0C944F6383
:100230000C9416B80C948FB90C9477380C941AB8A7
:100240000C9458B90C9408B80C94DBB70C9485B98D
:100250000C9418620C944A5F0C94F8640C94266217
:100260000C94FAB70C94E8B70C9434620C944A607E
:100270000C9416B90C944E370C945C820C949837FD
:100280000C947BB20C942C840C9458620C943E60B9
:100290004E414E494E495459494E46CDCCCC3D0A6B
:1002A000D7233C17B7D13877CC2B329595E6241F4E
:1002B000B14F0A000020410000C84200401C462007
:1002C000BCBE4CCA1B0E5AAEC59D7400407A10F3DA
:1002D0005A00A0724E18090010A5D4E80000E87674
:1002E00048170000E40B54020000CA9A3B000000CB
:1002F000E1F505000080969800000040420F0000E4
:1003000000A08601000000102700000000E80300A4
:100310000000006400000000000A0000000000016E
:1003200000000000002C76D888DC674F0823DFC16E
:10033000DFAE59E1B1B796E5E3E453C63AE6519929
:100340007696E8E6C28426EB898C9B62ED407C6F52
:10035000FCEFBC9C9F40F2BAA56FA5F490055A2A09
:10036000F75C936B6CF9676DC11BFCE0E40D47FE15
:10037000F520E6B500D0ED902E030094357705000A
:1003800080841E080000204E0A000000C80C333391
:1003900033330F986E12831141EF8D2114893BE6A0
:1003A0005516CFFEE6DB18D1844B381BF77C1D9029
:1003B0001DA4BBE424203284725E228100C9F12492
:1003C000ECA1E53D27434F4D4D554E49434154491E
:1003D0004F4E0044525952554E004552524F5253BF
:1003E00000494E464F004543484F00557370696AB7
:1003F0002E2E2E004D3530300059206F7574206F31
:10040000662072616E67652028312D32292E0A0020
:1004100058206F7574206F662072616E67652028A2
:10042000312D32292E0A004D6573682070726F627B
:10043000696E6720646F6E652E0A00537461727472
:10044000206D6573682070726F62696E67207769CE
:100450007468202247323920533122206669727332
:10046000742E0A004732380A47323920533200537B
:10047000746174653A20004D65736820626564207C
:100480006C6576656C696E6720686173206E6F209D
:10049000646174612E0A0053206F7574206F6620AA
:1004A00072616E67652028302D35292E0A004D6552
:1004B000736820706F696E742063616E6E6F742054
:1004C0006265207265736F6C7665640A004F637AAB
:1004D000656B6977616E69652E2E2E004D30004286
:1004E00072616B20727563687500456E6420666981
:1004F0006C65206C6973740A00426567696E2066DA
:10050000696C65206C6973740A004D313235005393
:1005100044207072696E74696E6720627974652018
:10052000004E6F74205344207072696E74696E6758
:100530000A005072696E742074696D653A2000502B
:10054000726F7465637465642050696E0A0050723E
:10055000696E746F2048332B20676F746F77612E3C
:1005600000E603E103DA03D303C5036F66660044C4
:10057000454255473A0055626974792E20004D3145
:1005800031332053006F6B004361703A454D455243
:1005900047454E43595F5041525345523A300A0045
:1005A0004361703A434153455F4C494748545F4269
:1005B00052494748544E4553533A300A00436170FC
:1005C0003A544F47474C455F4C49474854533A309B
:1005D0000A004361703A534F4654574152455F50A9
:1005E0004F5745523A300A004361703A4C455645E0
:1005F0004C494E475F444154413A310A00436170CF
:100600003A5A5F50524F42453A300A004361703ABD
:100610004155544F4C4556454C3A300A00436170A1
:100620003A5052494E545F4A4F423A310A004361B0
:10063000703A50524F47524553533A300A00436183
:10064000703A4155544F5245504F52545F54454DA6
:10065000503A310A004361703A454550524F4D3A85
:10066000310A004649524D574152455F4E414D4572
:100670003A4D61726C696E20312E332E3161202823
:100680004769746875622920534F555243455F434B
:100690004F44455F55524C3A68747470733A2F2F2B
:1006A0006769746875622E636F6D2F4D61726C6936
:1006B0006E4669726D776172652F4D61726C696EFD
:1006C0002050524F544F434F4C5F56455253494F61
:1006D0004E3A312E30204D414348494E455F5459E2
:1006E00050453A5072696E746F2048332B2045583C
:1006F0005452554445525F434F554E543A3120555C
:100700005549443A63656465326132662D3431611E
:10071000322D343734382D396231322D633535631B
:1007200036326633363766660A002F2F200053654F
:100730007474696E672054726176656C20416363DE
:10074000656C65726174696F6E3A200053657474EC
:10075000696E6720526574726163742041636365DA
:100760006C65726174696F6E3A20005365747469C8
:100770006E67205072696E7420416363656C6572A8
:100780006174696F6E3A200053657474696E6720F6
:100790005072696E7420616E642054726176656C6B
:1007A00020416363656C65726174696F6E3A200005
:1007B000205A00205900580020204D61783A20002E
:1007C000205A00205900580020204D696E3A200020
:1007D000576C2E200057796C2E00536F667420657D
:1007E0006E6473746F70733A20000001363726FF11
:1007F000023C3D380EFF2E303EFF13FF0C0809FF70
:10080000FFFF1A1C18FFFF08440AFF43FFFFFFFF0A
:10081000FFFF20643A0020693A0020703A0020640B
:100820003A0020693A0020703A0043290A006162C8
:100830006C656420286D696E2074656D70200043BE
:100840006F6C64206578747275646573206172657D
:100850002000426564204C6576656C696E672000F7
:100860004661696C656420746F20656E61626C65B9
:1008700020426564204C6576656C696E670A004DA0
:1008800065736820426564204C6576656C20646100
:1008900074613A0A00506F7A2E207A65726F776120
:1008A000207573742E004572723A20546F6F206663
:1008B00061722100546F6F206661722066726F6DE5
:1008C000207265666572656E636520706F696E740F
:1008D0000A0061627920777A6E6F77696320777991
:1008E0006472756B0066696C616D656E7475206904
:1008F000206B6C696B6E696A005573756E206E6152
:10090000646D6961720000577A6E617769616E6922
:10091000652077796472756B75004D383132004E01
:100920006F2063617365206C696768740A004163B6
:10093000746976652045787472756465723A200032
:10094000556E6B6E6F776E20636F6D6D616E643A7E
:100950002022002039363030206F6B2C20747279C1
:1009600020313135200A0039363030206661696C1B
:10097000202D3E2074727920313135200A00206309
:100980006F6E6E6563746564210A00203700203441
:100990002E330020332E350020332E320020322E0D
:1009A00034004E657874696F6E004E657874696FB7
:1009B0006E206E6F7420636F6E6E65637465642164
:1009C000004E69650054616B00437A7920777A6E36
:1009D0006F7769632077796472756B3F0057796B25
:1009E0007279746F207A616E696B206E61706965CF
:1009F00063696100706F207A616E696B75207A613E
:100A000073696C616E696100577A6E617769616EB6
:100A100069652077796472756B75004D31313720C7
:100A20004472756B6F77616E69652E2E004739329F
:100A30002045004D3832002046333030300020450C
:100A400031380020590047312058002046333030DB
:100A500030004731205A004D3831320020463330C3
:100A600030300020453135002059004731205800F2
:100A70004D3233202573002E67636F004D313930BE
:100A800020532564004D31303920532564006261C4
:100A9000627973686966743A006166746572686F3A
:100AA0006D653A006265666F72653A0042617A6F01
:100AB00077616E6965206F736900706F207A616E6F
:100AC000696B75207A6173696C616E69610055723A
:100AD000756368616D69616E696500473238002031
:100AE00020506C616E6E6572427566666572427901
:100AF0007465733A20002046726565204D656D6F00
:100B000072793A2000436F6D70696C65643A204FCA
:100B1000637420313920323032300A00207C204189
:100B20007574686F723A20285072696E746F3364FE
:100B30002E706C2C204A616B75622053696B6F724A
:100B400061290A00323032302D31302D3139002008
:100B50004C61737420557064617465643A2000318F
:100B60002E332E31610A004D61726C696E00205384
:100B70006F6674776172652052657365740A002030
:100B80005761746368646F672052657365740A0007
:100B90002042726F776E206F757420526573657492
:100BA0000A002045787465726E616C205265736529
:100BB000740A00506F77657255700A007374617221
:100BC000740A006572726F722077726974696E6759
:100BD00020746F2066696C650A00205A3A0020591B
:100BE0003A0020583A00656E6473746F7073206821
:100BF00069743A2000446F6E6520736176696E6790
:100C00002066696C652E0A004D3239002569730033
:100C100025696D20256973002569682025696D2087
:100C200025697300256964202569682025696D2080
:100C30002569730025697920256964202569682064
:100C400025696D202569730055626974792E20002D
:100C50005A6174727A796D616E792E2000507269D2
:100C60006E7465722073746F70706564206475654E
:100C700020746F206572726F72732E20466978201F
:100C8000746865206572726F7220616E642075737E
:100C900065204D39393920746F2072657374617223
:100CA000742E202854656D706572617475726520AC
:100CB00069732072657365742E205365742069749E
:100CC0002061667465722072657374617274696EF6
:100CD00067290A004E6F204C696E65204E756D6263
:100CE0006572207769746820636865636B73756DDE
:100CF0002C204C617374204C696E653A20004E6F55
:100D000020436865636B73756D2077697468206C28
:100D1000696E65206E756D6265722C204C6173740E
:100D2000204C696E653A2000636865636B73756D6E
:100D3000206D69736D617463682C204C617374203D
:100D40004C696E653A20004C696E65204E756D6287
:100D50006572206973206E6F74204C617374204C2F
:100D6000696E65204E756D6265722B312C204C6169
:100D70007374204C696E653A20004D313130004D5E
:100D80003331004D383420582059205A2045005323
:100D9000442072656164206572726F720A00446F4C
:100DA0006E65207072696E74696E672066696C6525
:100DB0000A0020496E76616C6964206578747275EA
:100DC00064657220000000000000000000000000C8
:100DD0000000004D430000524300004E4343616E4B
:100DE0006E6F7420656E74657220737562646972CB
:100DF0003A2000456B7374727564756A2077696573
:100E000063656A00577A6E6F77206472756B6F77CF
:100E1000616E6965005779626965727A206F7063E7
:100E20006A650050726F737A6520637A656B6163DF
:100E300000526F7A67727A6577616E6965206479AE
:100E4000737A790057796D69616E612066696C61AA
:100E50006D656E74750061627920726F7A67727A5F
:100E60006163206479737A6500576369736E696A98
:100E70002070727A796369736B0057796D69616E5E
:100E8000612066696C616D656E7475007779647256
:100E9000756B75005472776120777A6E617769613E
:100EA0006E6965006E6F7765676F206D617465723E
:100EB00069616C75005472776120656B737472752B
:100EC0007A6A610066696C616D656E747520646F25
:100ED00020676C6F7769637900547277612077704F
:100EE000726F7761647A616E69650057796D6961C7
:100EF0006E612066696C616D656E74750061627902
:100F0000206B6F6E74796E756F7761632E2E2E0075
:100F100069206E616369736E696A2070727A7963A1
:100F200069736B00576C6F7A2066696C616D656ED2
:100F3000740057796D69616E612066696C616D65D9
:100F40006E74750066696C616D656E7475207A20CB
:100F5000676C6F7769637900547277612077797372
:100F60007577616E69650057796D69616E6120669C
:100F7000696C616D656E7475007A6D69616E79205A
:100F800066696C616D656E7475005472776120726C
:100F90006F7A706F637A796E616E69650057796DEB
:100FA00069616E612066696C616D656E747500576C
:100FB000726974696E6720746F2066696C653A2087
:100FC000006F70656E206661696C65642C204669EF
:100FD0006C653A20006F70656E206661696C6564AF
:100FE0002C2046696C653A200046696C6520736563
:100FF0006C65637465640A002053697A653A200061
:1010000046696C65206F70656E65643A20006F708C
:10101000656E206661696C65642C2046696C653A72
:1010200020002066696C653A20004E6F7720002210
:1010300020706F73002220706172656E743A220016
:10104000535542524F5554494E452043414C4C2034
:101050007461726765743A220055626974792E2052
:1010600000747279696E6720746F2063616C6C2004
:101070007375622D67636F64652066696C657320A4
:101080007769746820746F6F206D616E79206C656C
:1010900076656C732E204D4158206C6576656C200A
:1010A00069733A00206E6F7420656E7465726564B2
:1010B0002E0A000A4D6561737572656420706F6950
:1010C0006E74733A0A005A206F66667365743A202C
:1010D000004E756D20582C593A20322C320A0046A9
:1010E000696C652064656C657465643A0044656C80
:1010F0006574696F6E206661696C65642C20466951
:101100006C653A20006F70656E206661696C65647D
:101110002C2046696C653A20006D0046696C616D53
:10112000656E7420757365643A200053746174733E
:101130003A20002C204C6F6E67657374206A6F62D2
:101140003A2000546F74616C2074696D653A200018
:1011500053746174733A20002C204661696C656495
:101160003A20002C2046696E69736865643A200055
:101170005072696E74733A200053746174733A202C
:1011800000202F002042403A0020403A00526F7A5F
:1011900067727A616E6F0020573A005072696E7400
:1011A0006F2048332B20676F746F77612E00526F6A
:1011B0007A67727A616E6F2073746F6C0020573A91
:1011C00000526F7A67727A6577616E696520737411
:1011D0006F6C752E2E2E00205A3A0020423A0020C5
:1011E000436F756E7420413A0020453A00205A3A08
:1011F0000020593A00583A004B6420002364656689
:10120000696E65202044454641554C545F004B694A
:10121000200023646566696E65202044454641557B
:101220004C545F004B70200023646566696E652036
:101230002044454641554C545F0050494420756B4D
:101240006F6E637A6F6E6F00504944204175746F02
:1012500074756E652066696E6973686564212050D7
:10126000757420746865206C617374204B702C2039
:101270004B6920616E64204B6420636F6E737461F0
:101280006E74732066726F6D2062656C6F77206973
:101290006E746F20436F6E66696775726174696FF3
:1012A0006E2E680A00504944204175746F74756E43
:1012B00065206661696C6564212074696D656F7570
:1012C000740A0050494420626C61643A206F76656C
:1012D0007273686F740050494420626C6164206BC3
:1012E000616C69627261636A6900504944204175AA
:1012F000746F74756E65206661696C656421205435
:10130000656D706572617475726520746F6F2068A9
:101310006967680A00204B643A2000204B693A2034
:1013200000204B703A20000A20436C61737369639C
:1013300020504944200A002054753A2000204B7563
:101340003A2000206D61783A2000206D696E3A20C5
:101350000020643A200020626961733A20005049FD
:101360004420726F7A706F637A65746F004D657395
:101370006820706F696E742063616E6E6F74206296
:1013800065207265736F6C7665640A004D34323186
:1013900020696E636F727265637420706172616D33
:1013A000657465722075736167650A0020666972ED
:1013B00073740A005A0059005800486F6D65200088
:1013C00020636F6C6420657874727573696F6E202A
:1013D00070726576656E7465640A00577A6E6F7711
:1013E00069656E6965004D32340057796472756BBA
:1013F00020777374727A796D616E79004D31323570
:10140000004732392053320070726F626573656E27
:10141000643A0A004E49450054414B0054414B0088
:101420004D2042204C00323032302D31302D3139B8
:1014300000312E332E316100256C642E25696D003C
:101440007A61706973616E65007A616C61646F774F
:10145000616E650054656D702E206D696E3A2031A5
:101460003730006B6F6E74796E756F7761630072E1
:101470006F7A67727A656A2061627900476C6F776C
:10148000696361206A657374207A696D6E612C00EE
:101490004D36303020423000473930004739310076
:1014A0004D383400473238004472756B2070727AC0
:1014B000657277616E790024F4D43050C38E20C2F7
:1014C000A24017828B7011127A910D816CD90AA8F3
:1014D00061E108C7586607615143061E4B5D05C1AF
:1014E00045A7041A411104093D980371393103409D
:1014F00036DB0265339102D4305402802E1D026324
:101500002CEE01752AC501B028A001102781018F9A
:101510002564012B244B01E0223401AC211F018DF5
:10152000200D01801FFC00841EED00971DDF00B818
:101530001CD200E61BC600201BBC00641AB200B21D
:1015400019A8000A19A0006A189900D11791004043
:10155000178B00B516840031167E00B31579003A5A
:10156000157300C7146F0058146A00EE13660088E4
:1015700013630025135E00C7125B006C1257001541
:10158000125400C111510070114F0021114B00D6AF
:101590001049008D1047004610440002104200C060
:1015A0000F4000800F3E00420F3C00060F3B00CB77
:1015B0000E3800930E37005C0E3500270E3400F312
:1015C0000D3200C10D3100900D3000600D2E003243
:1015D0000D2D00050D2C00D90C2B00AE0C2900851B
:1015E0000C29005C0C2700350C27000E0C2600E8A7
:1015F0000B2400C40B2400A00B23007D0B23005AF6
:101600000B2100390B2100180B2000F80A1F00D90C
:101610000A1E00BB0A1E009D0A1D00800A1D0063F1
:101620000A1C00470A1B002C0A1B00110A1A00F7AB
:10163000091A00DD091900C4091900AB0919009243
:101640000917007B091800630917004C09160036BA
:10165000091600200916000A091500F5081500E012
:10166000081400CC081400B8081400A40814009052
:101670000813007D0812006B08130058081200467A
:10168000081200340811002308110012081100018B
:10169000081100F0071000E0071000D0071000C08C
:1016A000071000B0070F00A107100091070E00837C
:1016B000070F0074070F0065070E0057070E00495B
:1016C000070E003B070D002E070E0020070D00132C
:1016D000070D0006070D00F9060C00ED060D00E0F1
:1016E000060C00D4060C00C8060C00BC060C00B0AA
:1016F000060C00A4060B0099060C008D060B008258
:10170000060B0077060B006C060B0061060A0057FB
:10171000060B004C060A0042060A0038060A002E94
:10172000060A0024060A001A060A00100609000725
:10173000060A00FD050900F4050900EB050900E2B1
:10174000050900D9050900D0050900C7050900BE33
:10175000050900B5050800AD050800A50509009CB0
:10176000050800940508008C050800840508007C25
:10177000050800740508006C050700650508005D94
:10178000050700560508004E0507004705070040FD
:1017900005080038050700310507002A0507002362
:1017A0000507001C050600160507000F05070008C1
:1017B00005060002050700FB040600F5040700EE1D
:1017C000040600E8040600E2040700DB040600D576
:1017D000040600CF040600C9040600C3040600BDC9
:1017E000040600B7040600B1040500AC040600A618
:1017F000040600A00405009B040600950405009063
:101800000406008A04050085040500800406007AA9
:1018100004050075040500700405006B04050066EE
:10182000040500610405005C04050057040500522E
:101830000405004D04050048040500430405003E6E
:101840000404003A04050035040500300404002CAB
:1018500004050027040400230405001E0404001AE4
:1018600004040016040500110404000D040400091A
:101870000405000404040000040400FC030400F850
:10188000030400F4030400F0030400EC030400E884
:10189000030400E4030400E0030400DC030400D8B4
:1018A000030400D4030400D0030400CC030400C8E4
:1018B000030300C503030024F404D9201BC40C5CFB
:1018C0000E9804C4095F0265077101F405F900FB75
:1018D00004B30048048700C103690058035500039E
:1018E000034500BE023A008402310053022A002957
:1018F00002250004022000E4011C00C8011900AF09
:101900000117009801140084011300710110006197
:1019100001100051010E0043010D0036010B002B98
:10192000010B0020010B00150109000C0109000347
:10193000010800FB000800F3000800EB000700E4CA
:10194000000600DE000600D8000600D2000600CC2B
:10195000000500C7000500C2000500BD000400B975
:10196000000400B5000400B1000400AD000400A9AB
:10197000000400A5000300A20003009F0004009BD8
:1019800000030098000300950002009300030090FC
:101990000003008D0002008B000300880002008617
:1019A00000020084000300810002007F0002007D2D
:1019B0000002007B0002007900020077000100763F
:1019C0000002007400020072000100710002006F4A
:1019D0000002006D0001006C0002006A0001006955
:1019E000000200670001006600010065000100645C
:1019F0000002006200010061000100600001005F60
:101A00000002005D0001005C0001005B0001005A63
:101A10000001005900010058000100570001005664
:101A20000001005500010054000100530000005364
:101A30000001005200010051000100500001004F60
:101A40000001004E0000004E0001004D0001004C5E
:101A50000001004B0000004B0001004A000100495A
:101A60000001004800000048000100470001004656
:101A70000000004600010045000000450001004450
:101A8000000100430000004300010042000000424A
:101A90000001004100000041000100400001003F42
:101AA0000000003F0001003E0000003E0001003D3C
:101AB0000000003D0001003C0000003C0000003C34
:101AC0000001003B0000003B0001003A0000003A2A
:101AD0000001003900000039000100380000003822
:101AE0000000003800010037000000370001003618
:101AF000000000360000003600010035000000350F
:101B00000000003500010034000000340000003403
:101B100000010033000000330000003300010032F8
:101B200000000032000000320001003100000031EE
:101B300000000031000100300000003000000030E3
:101B40000001002F0000002F0000002F0000002FD8
:101B50000001002E0000002E0000002E0001002DCC
:101B60000000002D0000002D0000002D0001002CC1
:101B70000000002C0000002C0000002C0001002BB5
:101B80000000002B0000002B0000002B0001002AA9
:101B90000000002A0000002A0000002A000100299D
:101BA0000000002900000029000000290000002991
:101BB0000001002800000028000000280000002884
:101BC0000000002800010027000000270000002777
:101BD000000000270000002700010026000000266A
:101BE000000000260000002600000026000100255D
:101BF0000000002500000025000000250000002551
:101C00000000002500010024000000240000002442
:101C10000000002400000024000100230000002335
:101C20000000002300000023000000230000002328
:101C3000000000230001002200000022000000221A
:101C4000000000220000002200000022000100210C
:101C50000000002100000021000000210000002100
:101C600000000021000000210001002000000020F1
:101C700000000020000000200000002000000020E4
:101C800000000020000000200001001F0000001FD5
:101C90000000001F0000001F0000001F0000001FC8
:101CA0000000001F0001001E0000001E0000001EBA
:101CB0000000001E0000004D383420582059205AE2
:101CC00020450043616E6E6F74206F70656E2073E7
:101CD0007562646972200053442063617264206FEE
:101CE0006B0A006F70656E526F6F74206661696C6D
:101CF00065640A00766F6C756D652E696E69742077
:101D00006661696C65640A004572726F723A0053CD
:101D10004420696E6974206661696C0A006175749B
:101D20006F25692E67004D3234004D323320257304
:101D300000656E7175657565696E67202200656363
:101D4000686F3A0020440020490020204D33303491
:101D500020500020440020490020204D3330312005
:101D600050005049442073657474696E67733A0A71
:101D700000205A00205900202047323920533320B8
:101D8000580020204D3432302053004D65736820B8
:101D9000426564204C6576656C696E673A0A00207E
:101DA0005A0020590020204D323036205800486F0C
:101DB0006D65206F66667365743A0A0020450020E1
:101DC0005A002059002058002042002054002020B2
:101DD0004D323035205300416476616E6365643A5C
:101DE00020533C6D696E5F66656564726174653E23
:101DF00020543C6D696E5F74726176656C5F6665D8
:101E00006564726174653E20423C6D696E5F736506
:101E1000676D656E745F74696D655F6D733E2058A4
:101E20003C6D61785F78795F6A65726B3E205A3CE1
:101E30006D61785F7A5F6A65726B3E20453C6D61CB
:101E4000785F655F6A65726B3E0A0020540020521D
:101E50000020204D323034205000416363656C65B2
:101E6000726174696F6E2028756E6974732F733296
:101E7000293A20503C7072696E745F616363656CCF
:101E80003E20523C726574726163745F6163636586
:101E90006C3E20543C74726176656C5F616363656F
:101EA0006C3E0A00204500205A0020590020204D99
:101EB0003230312058004D6178696D756D20416375
:101EC00063656C65726174696F6E2028756E6974E4
:101ED000732F7332293A0A00204500205A002059F6
:101EE0000020204D3230332058004D6178696D75E7
:101EF0006D206665656472617465732028756E690E
:101F000074732F73293A0A00204500205A00205983
:101F10000020204D393220580053746570732070B2
:101F2000657220756E69743A0A0020204D32303097
:101F30002044300A0020204D32303020440020441C
:101F4000697361626C65640A0046696C616D656EF7
:101F5000742073657474696E67733A002020473289
:101F600031202020203B20556E69747320696E203B
:101F70006D6D0A0066696C616D656E743A20007A59
:101F80005F6D61783A2000795F6D696E3A20007864
:101F90005F6D61783A20005265706F7274696E6788
:101FA00020656E6473746F70207374617475730A46
:101FB0000070012C0190012701B0012201C0011D18
:101FC00001F00118011002130130020E0160020934
:101FD0000190020401C002FF000003FA004003F573
:101FE000008003F000D003EB002004E6007004E161
:101FF00000E004DC004005D700C005D2004006CD5B
:1020000000D006C8008007C3003008BE00F008B941
:1020100000C009B400B00AAF00B00BAA00D00CA5F4
:1020200000000EA000500F9B00C0109600501291AF
:102030000000148C00C0158700B0178200B0197D15
:1020400000D01B7800001E730040206E00902269B3
:1020500000F024640040275F0090295A00E02B55CF
:1020600000102E500020304B0010324600E033416B
:102070000090353C001037370070383200A0392D01
:1020800000B03A2800A03B2300603C1E00103D1920
:1020900000903D1400103E0F00703E0A00C03E0547
:1020A00000003F0000403FFBFF803FF6FFC03FF1D4
:1020B000FF457272206D696E2074656D70207374B7
:1020C0006F6C7500457272206D696E2074656D705D
:1020D000004D494E54454D502074726967676572D2
:1020E000656400457272206D61782074656D7020A2
:1020F00073746F6C7500457272206D617820746521
:102100006D70004D415854454D5020747269676799
:10211000657265640002290A002062797465733B68
:1021200020637263200053657474696E6773205373
:10213000746F726564202800202863616C63756C7D
:102140006174656429210A0020213D200045455025
:10215000524F4D20435243206D69736D6174636823
:10216000202D202873746F726564292000290A00CD
:102170002062797465733B2063726320002073745E
:102180006F7265642073657474696E67732072651D
:1021900074726965766564202800204D61726C69EF
:1021A0006E3D563339290A0028454550524F4D3D62
:1021B00000454550524F4D2076657273696F6E2011
:1021C0006D69736D61746368200048617264636F48
:1021D0006465642044656661756C7420536574742D
:1021E000696E6773204C6F616465640A0088130030
:1021F00000881300006400000028230000000096FF
:102200004300009643000048420000A0420000A0A6
:10221000420000A04200004844000020437C3C3EB5
:102220005E2B3D3F2F5B5D3B2C2A225C004B617295
:102230007461207573756E69657461004B617274A9
:102240006120776C6F7A6F6E610073645F73746185
:102250007475733A66616C73650A0073645F7374B6
:10226000617475733A747275650A007A6D69616E8E
:1022700061207364206465743A0A00257564202522
:102280003032753A2530327500202F2000526573A8
:10229000656E643A20006F6B0020636F6C6420658C
:1022A0007874727573696F6E2070726576656E747E
:1022B00065640A00627573793A20706175736564AC
:1022C00020666F7220696E7075740A00627573798A
:1022D0003A2070617573656420666F72207573654E
:1022E000720A00627573793A2070726F6365737356
:1022F000696E670A004D3630300055626974792E78
:1023000020004B494C4C20636175736564206279F1
:10231000204B494C4C20627574746F6E2F70696E3F
:102320000A0055626974792E20004B494C4C206399
:10233000617573656420627920746F6F206D7563B9
:102340006820696E6163746976652074696D6520C3
:102350002D2063757272656E7420636F6D6D616E92
:10236000643A20005072696E7465722068616C7402
:1023700065642E206B696C6C28292063616C6C6528
:1023800064210A00506F7765724C6F73732E2E0AAA
:102390000000004D430000000000004E430000A07C
:1023A000420000A0420000F04100000000576172AE
:1023B0006E696E673A20486F6D696E672042756D71
:1023C000702044697669736F72203C20310A0002E4
:1023D00002080000A0400000A0400000A040000053
:1023E0004D430000524300004E4301FF014D363083
:1023F0003020486F74656E6420746F6F20636F6C5B
:102400006420746F206368616E67652066696C6123
:102410006D656E740A004572726F7220777269740E
:10242000696E6720746F20454550524F4D210A0058
:102430006265640A002C2073797374656D2073746F
:102440006F7070656421204865617465725F4944EE
:102450003A20005A616E696B2074656D702E0054CD
:102460006865726D616C2052756E6177617900529A
:102470006F7A67727A2E206E69657564616E650089
:1024800048656174696E67206661696C6564000007
:10249000002100240027002A002D00300033000115
:1024A000010000040107010A0100002200250028A4
:1024B000002B002E0031003400020100000501084D
:1024C000010B01000020002300260029002C002F12
:1024D00000320000010000030106010901050505A5
:1024E00005070508080808020202020A0A0808048B
:1024F00004040401010101010101010303030303B9
:10250000030303040707070C0C0C0C0C0C0C0C0247
:1025100002020206060606060606060B0B0B0B0B4E
:102520000B0B0B0102102020080810204010204047
:102530008002010201080402010102040810204087
:1025400080804020100804020180040201804020A5
:1025500010080402010804020101020408102040CE
:1025600080010204081020408000000A0B02090CC0
:102570000D0E080703040100000000000000000029
:10258000000000000000000000000000000000004B
:102590000000000000121110000000000000000008
:1025A000000000000000000000000000000000002B
:1025B0001FBB6BD811241FBECFEFD1E2DEBFCDBF52
:1025C00000E00CBF16E0A0E0B2E0ECEFF1ED01E0BE
:1025D0000BBF02C007900D92AC37B107D9F72EE1BF
:1025E000ACE7B6E001C01D92AB3EB207E1F712E1E5
:1025F000C9EDD2E100E006C021970109802FFE015C
:102600000E9456E5C83DD10780E00807A9F70E945F
:10261000A8CB0C94ECE80C9400002F923F924F92C0
:102620005F926F927F928F929F92AF92BF92CF9262
:10263000DF92EF92FF920F931F93CF93DF93CDB76B
:10264000DEB7E9970FB6F894DEBF0FBECDBF00919D
:10265000641420E4029F800111240C511E4E8091CD
:102660006B1580FF1AC0EEE3FDE184917F013FEF1F
:10267000E31AF30A811102C0780104C00E941F2FDF
:10268000F701F3CFD7018D917D01882319F00E94C6
:102690001F2FF8CF8AE00E941F2F81E090E09093D7
:1026A000AF118093AE1110929B0610929A068FE3A1
:1026B0008093A1061092A00610929F0684E0E6E99E
:1026C000F6E0DF011D928A95E9F7F80180810F5F3E
:1026D0001F4F8032D1F38E34C9F4818190ED980F71
:1026E0009A3020F08D3211F08B3281F4DF01129696
:1026F0009D012F5F3F4F8C9180538A3010F4D90198
:10270000F7CFFD01119680818032D9F3F093F21D4D
:10271000E093F11D7F01BFEFEB1AFB0A10816AE223
:1027200070E0C7010E949AE8009731F0FC013197F0
:1027300080818032E1F311821D3431F1143521F1B1
:10274000173411F1EEE3FDE184918F010F5F1F4F0C
:10275000882321F00E941F2FF801F6CF6091F11D10
:102760007091F21D80E499E00E94826F82E20E94E3
:102770001F2F8AE00E941F2F1092AF111092AE11EE
:102780000E9461A60C948C27C701FC012081019650
:102790002032D9F320532A30A8F61093A10680E006
:1027A00090E06AE03196DF0111972C91022E000C27
:1027B000330B20533109689FA001699F500D1124EC
:1027C000C901840F951F208120532A3058F390931C
:1027D000A00680939F06DF0131962C912032D9F319
:1027E0001D34D1F48E31910591F03CF4873191057F
:1027F00071F08C31910581F40AC08537910564F040
:102800008737910524F0803AE3E09E0729F4B093DE
:102810009B06A0939A0683C010929B0610929A067C
:102820000091F11D41E050E0FD0131962C912223F1
:1028300009F475C02132A1F41D3491F48032910560
:1028400079F4F0939B06E0939A0663E270E0CF017F
:102850000E949AE8009709F424C4DC011C925FC02E
:102860003FEBD32ED20E69E1C62ECD14C0F1BF01CD
:10287000FB0130816F5F7F4F3032D1F360ED630F2A
:102880006A3040F063ED630F623020F03B3211F0AC
:102890000C940A27BF01AD2CB12C7501A3E0F5946F
:1028A000E794AA95E1F797012A56394F79012D2D22
:1028B0002770DA0102C0AA0FBB1F2A95E2F79D011B
:1028C000D7013C91232B2C936115710511F0601BEE
:1028D00001C060E0D501A458B94F6C930AC02091A3
:1028E0009A0630919B06232B21F4B0939B06A0936C
:1028F0009A06208121542A3110F4DF0195CFDF019F
:10290000BD016F5F7F4F2C9120532A3010F4DB0103
:10291000F7CFFD01119620812032D9F3EECF8091BF
:10292000A1068D3409F4BDC3843511F40C94C72677
:10293000873409F007CF80919F069091A0068D31D2
:10294000910509F46CC074F48430910539F11CF4DC
:102950000297D0F011CF4C9709F00ECF80E00E9483
:10296000BE400ACF8A35910509F4A2C224F48A97A1
:1029700009F400C301CF8B35910509F49CC28C3555
:10298000910509F49CC2F8CE8091BA02882309F41B
:10299000F3CE0E9480410E94B5A5EECE80E50E9454
:1029A0001C2E882329F00E94762D6B017C0103C028
:1029B000C12CD12C760183E50E941C2E882361F066
:1029C0000E94BA2D20E030E04AE754E40E9483DE02
:1029D0000E9463E66B017C010E94C1B70E94382E01
:1029E0008091F31D9091F41DA091F51DB091F61DFD
:1029F000C80ED91EEA1EFB1E60E08BEE93E00E941B
:102A00006A9C0E94DCB9DC01CB018C199D09AE09DE
:102A1000BF09B7FFB1CE80E00E9492A1F2CF83E55B
:102A20000E941C2E882321F00E94962D182F01C091
:102A300010E0163068F0E7E9F4E084918F010F5F51
:102A40001F4F882309F498CE0E941F2FF801F5CF5D
:102A5000123009F445C0B0F41123F9F0113009F037
:102A600024C20E94F87B109201021092000284E6B8
:102A700094E09093EB1C8093EA1C0E94C22C10936C
:102A80008C1513C2143009F401C208F4A5C1153025
:102A900009F00BC20E94C24208C28091321580FD2B
:102AA00003C0E7E7F4E011C081FF03C069E773E00A
:102AB00002C06EE773E08FE694E00E94826F8AE0C6
:102AC0000E941F2F0E94A7D7F0C184918F010F5F32
:102AD0001F4F882309F4E9C10E941F2FF801F5CF89
:102AE000209100023091010237FF0CC00BE314E08B
:102AF000F8018491882309F43FCE0F5F1F4F0E9495
:102B00001F2FF6CF2115310529F48091B90280934A
:102B10009E0631C08FEF820F982F917897FF03C0E8
:102B200091509E6F9F5FE92F87FD8F5F859580FF96
:102B300002C0E1E0E91BEE0FFF0BE80FF11D87FD7E
:102B4000FA95EE0FFF1FEE0FFF1FEE5DFA4E80911C
:102B5000F1149091F214A091F314B091F4148083C5
:102B60009183A283B38380919E068093B90224301F
:102B700031050CF0CAC0822F817887FF03C08150D5
:102B80008E6F8F5FA82EE22F27FF02C0E1E0E20FD9
:102B9000BE2EB594B0FE03C0A1E0AA2EA81AC09024
:102BA0000F02D0901002E0901102F090120205EA9C
:102BB00013E2F80185919591A591B49180930F024C
:102BC00090931002A0931102B093120220E030E023
:102BD000A9016091C6157091C7158091C815909193
:102BE000C9150E9467E520E030E040EA50E40E9409
:102BF00067E56093F1147093F2148093F31490934B
:102C0000F4140E9450D785E595E5A5E0B3E48093E0
:102C10000F0290931002A0931102B0931202FA2DAA
:102C200024E0F202D0011124AE5FB24F2091BE1514
:102C30003091BF154091C0155091C1156D917D9196
:102C40008D919C910E9467E56093E9147093EA145A
:102C50008093EB149093EC143B2D84E03802F00148
:102C60001124E650F34F2091C2153091C3154091C5
:102C7000C4155091C51560817181828193810E9434
:102C800067E56093ED147093EE148093EF149093C6
:102C9000F0140E9450D7F80185919591A591B491B7
:102CA00080930F0290931002A0931102B09312022E
:102CB00020E030E0A9016091C6157091C7158091A0
:102CC000C8159091C9150E9467E56093F11470933F
:102CD000F2148093F3149093F4140E9450D7C0928E
:102CE0000F02D0921002E0921102F09212020E94A2
:102CF000C1B71092B9028091000290910102019631
:102D00009093010280930002D0C020E030E0A9013E
:102D10006091C6157091C7158091C8159091C9151D
:102D20000E9467E520E030E040EA50E40E9467E559
:102D30006093F1147093F2148093F3149093F4144D
:102D40000E9450D70E94C1B78FEF9FEF909301026E
:102D500080930002E7E2F4E084918F010F5F1F4F40
:102D6000882321F00E941F2FF801F6CF83E992E01B
:102D70009A83898304E610E019A308A3BE016F5F5C
:102D80007F4FCE0180960E94D0358AEB92E09A83E5
:102D9000898319A308A3BE016F5F7F4FCE01809680
:102DA0000E94D0358091321581608093321580EE7B
:102DB0009CE00E9478A081E00E94BE4081E00E94D9
:102DC000962B84EF93E09093EB1C8093EA1C0E9477
:102DD000C22C10928C1569C088E50E941C2E882395
:102DE00091F00E94862D1FEF160F123090F000E137
:102DF00014E0F8018491882309F4BECC0F5F1F4FC3
:102E00000E941F2FF6CF88E50E941F2F0E945BD8DB
:102E1000B3CC89E50E941C2E882399F00E94862D50
:102E20000FEF060F023098F0E9EFF3E084918F0185
:102E30000F5F1F4F882309F49FCC0E941F2FF801BA
:102E4000F5CF89E50E941F2F0E945BD895CC8AE5BB
:102E50000E941C2E8823A1F00E94BA2DE12FEE0FB4
:102E6000FF0BE00FF11D07FDFA95EE0FFF1FEE0FB0
:102E7000FF1FEE5DFA4E608371838283938315C0DA
:102E80008AE50E941F2F0E945BD876CC8AE50E94BB
:102E90001C2E8823A9F30E94BA2D60931E157093EF
:102EA0001F1580932015909321150E945B4B64CCD5
:102EB00010929D0661CC81E080939D065DCC85E4F7
:102EC0000E941C2EB82E811102C00E94C1B709EDCC
:102ED000802E02E0902E89EEC82E84E1D82E94E454
:102EE000E92E9EE1F92E00E010E0A12CD4018D9195
:102EF0004D010E941C2E882339F1F601408051803B
:102F0000628073800E94BA2DD6016D937D938D935C
:102F10009C9313970330C1F0A30192010E9466E5D0
:102F20009B01AC01F70160817181828193810E94D4
:102F300067E5D7016D937D938D939C931397C8019B
:102F40000E94122CAA24A3940F5F1F4FB4E0CB0E53
:102F5000D11CE4E0EE0EF11C0430110539F6AA2074
:102F600019F00E941B2D03C0B1100E9401350E9470
:102F70005B4B02CC8091BA02882309F4FDCB89E433
:102F80000E941C2EE82E882321F00E94862D062FF9
:102F900001C000E08AE40E941C2EF82E882321F054
:102FA0000E94862D162F01C010E0EE2011F0023095
:102FB00020F4FF2079F0123068F0EEEAF4E084911A
:102FC0008F010F5F1F4F882309F4D6CB0E941F2F5C
:102FD000F801F5CF0E94622DEE20E1F024E002021C
:102FE000F0011124EE5FF24F2091BE153091BF1514
:102FF0004091C0155091C11560817181828193818A
:103000000E9467E56093F51C7093F61C8093F71C93
:103010009093F81CFF20E1F034E01302F00111243A
:10302000E650F34F2091C2153091C3154091C4155D
:103030005091C51560817181828193810E9467E5FD
:103040006093F91C7093FA1C8093FB1C9093FC1CFA
:1030500080E50E94ED2D81110E94AA2D86E40E9438
:103060001C2E8823D9F00E94BA2D6B017C0120E030
:1030700030E0A9010E94EAE6181684F420E030E06E
:1030800040E752E4C701B6010E94EAE560930F02EF
:103090007093100280931102909312020E94B5A5C2
:1030A0006BCB80919F069091A0068537910509F41E
:1030B0006FC70CF0B0C08D34910509F4ECC30CF06F
:1030C00050C08931910509F4BEC214F584319105CF
:1030D00009F4A9C17CF48131910509F42AC234F4C0
:1030E000029708F049CBECEDF4E0A0C1429709F457
:1030F000DFC542CB8631910509F479C20CF474C264
:103100008731910509F478C2489709F47EC234CB1F
:103110008F31910509F450C384F48B31910509F482
:10312000BBC20CF49DC28C31910509F4F1C24E97DB
:1031300009F022CB0E94D1421FCB8A32910509F4BB
:1031400067C324F4809709F4EDC216CB8B34910544
:1031500009F49DC38C34910509F00ECB0E943F35D4
:103160000BCB8A36910509F4EAC484F584359105C0
:1031700009F49EC5C4F48135910509F483C53CF476
:103180008E34910509F0F8CA0E94CC3EF5CA82350A
:10319000910509F489C58335910509F0EDCA81E0EF
:1031A0008093A011E9CA8C35910509F4D3C52CF49C
:1031B0008535910509F4B3C5DFCA8836910509F450
:1031C0006EC38936910509F46CC4D6CA8F36910551
:1031D00009F4A8C37CF48C36910509F411C40CF4ED
:1031E000CDC48D36910509F4A2C48E36910509F43B
:1031F00086C3C2CA8137910509F40AC40CF404C419
:103200008237910509F42FC68337910509F0B4CAB6
:10321000E3E6F6E031C68D32A1E09A0711F40C9492
:10322000AE220CF06DC0893C910509F450C75CF5E5
:103230008D37910509F4B4C49CF48737910509F4DE
:10324000E7C60CF4AEC68837910509F4E5C68937A0
:10325000910509F091CA1092080210924B1D8CCA78
:103260008B39910509F43AC42CF48C38910509F492
:10327000FCC382CA8E3B910509F45DC4883C91056C
:1032800009F4D1C679CA833D910509F4C9C00CF58A
:103290008C3C910509F454C75CF48B3C910509F012
:1032A0006BCA79EDE72E72E0F72E0FE415E138C70F
:1032B0008D3C910511F40C940C218E3C910509F084
:1032C0005BCA69EDE62E62E0F62E00E010E00C9499
:1032D00079218D3D910511F40C94392234F48C3D03
:1032E000910511F40C942A2247CA823E910511F4EB
:1032F0000C9455228C32914011F40C9484223CCAD7
:10330000843FF1E09F0711F40C945E250CF052C04D
:10331000803931E0930711F40C942624BCF48F32E9
:10332000B1E09B0711F40C94222414F40C94CB23E9
:103330008033F1E09F0711F40C944D2383369140C4
:1033400009F01ACAE8E0FDE10C949F26843A31E0C6
:10335000930711F40C942A243CF48A39914009F023
:103360000BCA0E94964608CA853AE1E09E0711F40E
:103370000C9490248C3A914009F0FEC9EEE8F5E1F6
:10338000FDABECAB8EEB882E85E1982E99EEA92E45
:1033900094E1B92E25E0C22E2DE1D22E37E2232E64
:1033A00032E0332E41E9E42E43E2F42E00E010E057
:1033B0000C949424883522E0920711F40C949826FA
:1033C000ACF4863FA1E09A0711F40C949E2514F406
:1033D0000C947E25873FE1E09E0711F40C94BE25F6
:1033E0008C31924011F40C948B26C6C98C3223E0A8
:1033F000920791F034F48B32934009F0BDC90E94DA
:1034000097AA803AB3E09B0709F4C9C1873E93406D
:1034100011F40C94B326B0C9EAE1F9E00C94CD257F
:10342000EEE3FDE17FC7EEE3FDE197C084918F01FC
:103430000F5F1F4F882321F00E941F2FF801F6CF46
:10344000A0909A06B0909B0680E50E941C2E8823CF
:1034500059F00E94762D6B017C0111E0672B682BDF
:10346000692B31F410E004C010E0C12CD12C76019E
:1034700083E50E941C2E8823F1F00E94BA2D20E0E3
:1034800030E04AE754E40E9483DE0E9463E66B0169
:103490007C01111112C0672B682B692B71F4A114E8
:1034A000B10459F0D5018C91882339F061E0C50150
:1034B0000E94979C07C0112391F360E08DEC94E08B
:1034C0000E946A9C83E090E09093AF118093AE11CC
:1034D00081E08093AD110E94C1B70E94382EC114C3
:1034E000D104E104F10411F18091F31D9091F41DD8
:1034F000A091F51DB091F61DC80ED91EEA1EFB1E47
:103500000E94DCB9DC01CB018C199D09AE09BF0911
:10351000B7FD02C00C941B278091AD11882311F4D4
:103520000C941B2780E00E9492A1EACF1092AD116B
:1035300023C960E08FED94E00E946A9C5F988A98AE
:103540009FB7F894809108018E7F809308019FBFF8
:10355000129812C90E941F2FF80184918F010F5FEA
:103560001F4F8111F7CFE9EFF4E084918F010F5FD6
:103570001F4F882321F00E941F2FF801F6CF1092D1
:10358000DA0F1092D90F84E89DE00E946C958BE1D0
:10359000E4E8FDE0DE01159601900D928A95E1F7D1
:1035A0008091820D9091830D9C838B8387EE92E0B6
:1035B0009A83898340E050E0BE016F5F7F4F8DE7C3
:1035C00093E00E947F78CE0101960E948FAAEAEED6
:1035D000F4E084918F010F5F1F4F882309F4CCC85A
:1035E0000E941F2FF801F5CF0E94A376C5C8109244
:1035F000530D1092540DC0C840E061E080919A06CE
:1036000090919B060E946539B7C819821A821B8265
:103610001C8218A219A21AA21BA280919A118823B7
:1036200041F040E0BE016F5F7F4FCE0180960E9467
:103630006BA88091540D882319F081E08093530D7D
:103640000E94593599C81092530D0E943F358AE067
:1036500095E09093EB1C8093EA1C0E94C22C8CC8CE
:103660008091540D882309F487C883E50E941C2E9D
:10367000882309F481C80E94862DAB01BC014093C8
:10368000D00F5093D10F6093D20F7093D30F8FE16F
:103690009FE00E9462B070C88091540D811103C0F8
:1036A000E1E2F5E029C0EFE0F5E084918F010F5FE2
:1036B0001F4F882321F00E941F2FF801F6CF609141
:1036C000D00F7091D10F8091D20F9091D30F4AE01B
:1036D0000E94752F8FE20E941F2F6091CC0F709176
:1036E000CD0F8091CE0F9091CF0F4AE00E94752FA1
:1036F0008AE00E941F2F40C884918F010F5F1F4FE7
:10370000882311F40C94BC130E941F2FF801F4CFEE
:1037100040E060E080919A0690919B060E94653996
:103720000C94BC138091530D81110E94C1B7E0909D
:103730009A06F0909B0680E50E94ED2D182F8823B5
:1037400019F00E94AA2D182F8091540D882311F48E
:103750000C94BC13412F61E0C7010E94653983E5D9
:103760000E941C2E882381F00E94862DAB01BC0193
:103770004093D00F5093D10F6093D20F7093D30F1B
:103780008FE19FE00E9462B08091540D882319F070
:1037900081E08093530D11110C94BC1351CF809193
:1037A0009A0690919B0621E02093520D40E060E044
:1037B0000E9465390C94BC1388E29DE00E948AB691
:1037C00068A379A38AA39BA3BE016F5F7F4FCE013D
:1037D00080960E94432E60E0CE0101960E94979C45
:1037E000EEE3FDE184918F010F5F1F4F882321F0ED
:1037F0000E941F2FF801F6CFBE016F5F7F4F82E35B
:1038000095E00E94826F8AE00E941F2F0C94BC13E7
:1038100083E50E941C2E882311F40C94BC130E9493
:10382000962DE82E80E50E941C2E882339F00E94F8
:10383000862D8B0177FF04C00C94BC130DE010E0C3
:10384000802FEAEEF7E09491891303C0E8E0FDE1F0
:103850000AC03196B8E0E231FB07A9F70C941F27A4
:103860000E941F2FF80184918F010F5F1F4F81115C
:10387000F7CFEFE3F5E084918F010F5F1F4F8823AF
:1038800011F40C94BC130E941F2FF801F4CF0E9476
:1038900059350C94BC130E9491740C94BC1388E6A7
:1038A00090E00E94E22F81110C94BC1380916B1563
:1038B00083FF02C00C94BC1383E50E941C2E882356
:1038C000D1F00E94BA2D0E945CE6CB010E94FE88D6
:1038D0000E94BA2D20E030E04AEA52E40E941DDE48
:1038E00018163CF00E94917460E08EE495E00E940E
:1038F0006A9C0E94BA2D0E9482700C94BC138EE4C4
:103900000E941C2E882311F40C94BC130E94862D57
:103910006093E81D7093E91D8093EA1D9093EB1D61
:103920000C94BC1383E50E941C2E882319F00E947E
:10393000962D01C080E080936B15EEE3FDE184914C
:103940008F010F5F1F4F811103C0EFE6F5E004C048
:103950000E941F2FF801F3CF84918F010F5F1F4F3B
:10396000882321F00E941F2FF801F6CF80916B155C
:10397000811103C0EBE6F5E034C011E6C12E15E07D
:10398000D12EE12CF12C20E080916B1590E00E2CD3
:1039900002C0959587950A94E2F780FF17C0BB2473
:1039A000B394B20E222319F08CE20E941F2FF6016D
:1039B00085919491FC0184918F010F5F1F4F8823A3
:1039C00021F00E941F2FF801F6CF2B2DEFEFEE1AFA
:1039D000FE0AF2E0CF0ED11C35E0E316F104A1F6A9
:1039E0000AC084918F010F5F1F4F882321F00E942E
:1039F0001F2FF801F6CF8AE00E941F2F0C94BC13F2
:103A0000109213020C94BC1386E795E00E94CFAC91
:103A100083E50E941C2E811103C0EEE3FDE10DC081
:103A20000E94962D8093B4028D3310F40C94BC1335
:103A30008CE38093B4020C94BC1384918F010F5FCC
:103A40001F4F882321F00E941F2FF801F6CF4091CD
:103A5000B40250E060E070E08EE795E00E942F6FC6
:103A60008AE00E941F2F0C94BC1380916B1583FF7A
:103A700002C00C94BC1383E50E941C2E882311F411
:103A80000C94BC130E94BA2D0E945CE66739710544
:103A900014F066E970E07093A2116093A1110C9488
:103AA000BC1389E690E00E94E22F811111C0E5E885
:103AB000F5E084918F010F5F1F4F882321F00E9452
:103AC0001F2FF801F6CF0E94AF3C8AE00E941F2F03
:103AD0001092AF111092AE110C948C2783E50E94C6
:103AE0001C2E882311F40C94BC130E94962D8093F5
:103AF000F01D8D3318F08CE38093F01D0E94DCB92B
:103B00006B017C012091F01D30E0A8EEB3E00E9433
:103B100000E5C60ED71EE81EF91EC092EC1DD0921D
:103B2000ED1DE092EE1DF092EF1D0C94BC130E946F
:103B3000343D0C94BC130E941A4C0C94BC1383E5C6
:103B40000E941C2E882339F00E94862D8B016F3F26
:103B5000710519F010F00FEF10E080E50E941C2EA7
:103B6000811106C010939C1100939B110C94BC13FF
:103B70000E94962D81110C94BC13F4CF80E50E9415
:103B80001C2E811106C010929C1110929B110C9456
:103B9000BC130E94862D672B11F00C94BC13F3CF3D
:103BA0008CE40E94ED2D882319F00E94BA2D04C0E8
:103BB00060E070E080EA90EC68AB79AB8AAB9BABDD
:103BC0008AE50E941C2E882319F00E94BA2D03C09A
:103BD00060E070E0CB0120E030E040E751E40E947B
:103BE00067E56CA77DA78EA79FA788E50E941C2E7E
:103BF000882319F00E94BA2D03C060E070E0CB0169
:103C000020E030E042E553E40E9467E568A779A729
:103C10008AA79BA789E50E941C2E882319F00E9481
:103C2000BA2D03C060E070E0CB0120E030E04CED45
:103C300052E40E9467E56CA37DA38EA39FA3198223
:103C40001A821B821C8218A219A21AA21BA280919E
:103C50009A1181110C94BC13A12CC12CCE01019698
:103C60007C018E01005E1F4F9E012C5D3F4FAE0117
:103C7000485D5F4FBE01645D7F4F8F960E94B2A684
:103C80000C94BC130E9405890E94C1B70E945FA5D5
:103C900010929C1110929B1168EE73E080E090E00E
:103CA0000E944F860C94BC131092A0110C94BC136C
:103CB00083E50E941C2E8823A1F00E94BA2D20E0EB
:103CC00030E04AE754E40E9483DE0E9463E660939A
:103CD000B5027093B6028093B7029093B8020C9429
:103CE000BC1388E50E94ED2D81110C94372789E5DE
:103CF0000E94ED2D81110C9437278AE50E94ED2D4D
:103D000081110C94372785E40E94ED2D81110C94CC
:103D100037270E94C1B70E945FA50C94BC1383E5AE
:103D20000E94ED2D882311F40C94BC130E94BA2D2F
:103D300020E030E04AE754E40E9483DE0E9463E61C
:103D40006093F71D7093F81D8093F91D9093FA1DF1
:103D50000C94BC13A9EDCA2EA2E0DA2EB9EFEB2E1B
:103D6000B4E1FB2E10E0D6018D916D010E94ED2D86
:103D7000882309F46DC0133009F063C00E94BA2D86
:103D80004B015C0120E030E040EA51E40E941DDE7E
:103D900087FF4EC0A501940160910515709106152D
:103DA00080910715909108150E94EAE52B013C01CE
:103DB0009B01AC0160913F157091401580914115B8
:103DC000909142150E9483DE60933F1570934015D9
:103DD0008093411590934215A301920160915B1568
:103DE00070915C1580915D1590915E150E9483DE47
:103DF00060935B1570935C1580935D1590935E15D1
:103E00006091A9157091AA158091AB159091AC1590
:103E10000E9422DEA30192010E9483DE0E9463E6DB
:103E20006093A9157093AA158093AB159093AC1568
:103E30008092051590920615A0920715B09208156C
:103E400007C00E94BA2DF701608371838283938338
:103E50001F5FF4E0EF0EF11C143009F084CF0E94D4
:103E6000DA710C94BC130E94C1B70E945B4B0C9496
:103E7000BC130E941F2FF80184918F010F5F1F4F09
:103E80008111F7CFE5E5F6E003C00E941F2FF8018E
:103E900084918F010F5F1F4F8111F7CFEEE3F6E0A2
:103EA00003C00E941F2FF80184918F010F5F1F4FE5
:103EB0008111F7CFEEE2F6E003C00E941F2FF80158
:103EC00084918F010F5F1F4F8111F7CFEDE1F6E075
:103ED00003C00E941F2FF80184918F010F5F1F4FB5
:103EE0008111F7CFECE0F6E003C00E941F2FF8012C
:103EF00084918F010F5F1F4F8111F7CFEDEFF5E038
:103F000003C00E941F2FF80184918F010F5F1F4F84
:103F10008111F7CFE8EEF5E003C00E941F2FF801F2
:103F200084918F010F5F1F4F8111F7CFE2EDF5E014
:103F300003C00E941F2FF80184918F010F5F1F4F54
:103F40008111F7CFEDEBF5E003C00E941F2FF801C0
:103F500084918F010F5F1F4F8111F7CFE0EAF5E0E9
:103F600003C00E941F2FF80184918F010F5F1F4F24
:103F70008111F7CFE8E8F5E084918F010F5F1F4FC3
:103F8000882311F40C94BC130E941F2FF801F4CF66
:103F900060E080919A0690919B060E94979C0C94F9
:103FA000BC1385E40E94ED2D882381F00E94AA2D88
:103FB000882361F0EEE3FDE184918F010F5F1F4FD5
:103FC000882321F00E941F2FF801F6CF81E40E9480
:103FD000ED2D882381F00E94AA2D882361F0EAE26A
:103FE000F7E084918F010F5F1F4F882321F00E941B
:103FF0001F2FF801F6CF00919A0610919B06D80169
:104000008D918D01882309F4F6CC0E941F2FF7CFE4
:104010000E94E67C0C94BC1381E08093080280939C
:104020004B1D0C94BC1388EC90E00E94E22F811190
:104030000C94BC1384E40E94ED2D882309F443C042
:104040000E94BA2D6B017C0111E020E030E0A90153
:104050000E941DDE811101C010E01093111D20E0AF
:1040600030E0A901C701B6010E941DDE882359F185
:1040700000919C0610E00E94BA2D000F111F000F46
:10408000111FF801ED5CFD4F608371838283938380
:1040900020E030E0A90160913302709134028091F8
:1040A0003502909136020E941DDE81110CC080E025
:1040B00090E0A0EEBFE38093330290933402A0938C
:1040C0003502B09336020E9470A50C94BC13E9ED42
:1040D000EE2EE2E0FE2E0DEA15E1F70181917F015F
:1040E0000E94ED2D882351F00E94BA2D0E9463E6B4
:1040F000D8016D937D938D939C9313970C5F1F4F05
:10410000B5E10D3B1B0749F70E94B2700C94BC133C
:104110000C5F1F4FB5E10F351B0711F40C94BC1356
:10412000F70181917F010E94ED2D882389F30E9480
:10413000BA2DD8016D937D938D939C931397E8CFFF
:1041400083E50E94ED2D8823D9F00E94BA2DAB01A2
:10415000BC014093471550934815609349157093DF
:104160004A15409343155093441560934515709339
:10417000461588E897E00E944C6F8AE00E941F2F46
:1041800080E50E94ED2D882399F00E94BA2DAB01A5
:10419000BC0140934715509348156093491570939F
:1041A0004A158BE697E00E944C6F8AE00E941F2F11
:1041B00082E50E94ED2D882399F00E94BA2DAB0173
:1041C000BC0140934B1550934C1560934D15709363
:1041D0004E158CE497E00E944C6F8AE00E941F2FDE
:1041E00084E50E94ED2D882311F40C94BC130E94E9
:1041F000BA2DAB01BC014093431550934415609315
:104200004515709346158EE297E00E944C6F8AE048
:104210000E941F2F0C94BC1383E50E94ED2D882370
:1042200051F00E94BA2D60936715709368158093C2
:10423000691590936A1584E50E94ED2D882351F04D
:104240000E94BA2D60936315709364158093651571
:104250009093661582E40E94ED2D882351F00E9410
:10426000762D60935F157093601580936115909320
:10427000621588E50E94ED2D882351F00E94BA2D29
:1042800060933315709334158093351590933615DC
:1042900089E50E94ED2D882351F00E94BA2D60938C
:1042A0003715709338158093391590933A158AE530
:1042B0000E94ED2D882351F00E94BA2D60933B158A
:1042C00070933C1580933D1590933E1585E40E94B4
:1042D000ED2D882311F40C94BC130E94BA2D609329
:1042E0003F157093401580934115909342150C949F
:1042F000BC13F70181917F010E94ED2D882339F0D5
:104300000E94BA2DAB01BC01C8010E94682C0F5F4E
:104310001F4F0330110569F70E941B2D0E945B4B54
:104320000C94BC1384918F010F5F1F4F882321F0E1
:104330000E941F2FF801F6CF83E50E94ED2D882300
:1043400021F00E94AA2D8093B902EAEDF7E0849152
:104350008F010F5F1F4F882321F00E941F2FF8014C
:10436000F6CF8091B902882319F0E0EDF7E002C0A2
:10437000E5EDF7E084918F010F5F1F4F811103C0BE
:10438000E8ECF7E004C00E941F2FF801F3CF8491FE
:104390008F010F5F1F4F882321F00E941F2FF8010C
:1043A000F6CF4091051D5091061D6091071D70913B
:1043B000081D86EC97E00E944C6F4091091D5091BA
:1043C0000A1D60910B1D70910C1D83EC97E00E94FB
:1043D0004C6F40910D1D50910E1D60910F1D7091FD
:1043E000101D80EC97E00E944C6FE8EBF7E08491A1
:1043F0008F010F5F1F4F882321F00E941F2FF801AC
:10440000F6CF4091270250912802609129027091C5
:104410002A0286EB97E00E944C6F40912B0250914C
:104420002C0260912D0270912E0283EB97E00E9486
:104430004C6F40912F025091300260913102709187
:10444000320280EB97E00E944C6F8AE00E941F2F9F
:104450000C94BC1383E50E941C2E882311F40C9449
:10446000BC130E94862D70939B0260939A020C9459
:10447000BC138DED90E00E94E22F81110C94BC13CF
:1044800083E50E941C2E882311F40C94BC13009128
:104490009C0610E00E94862D000F111FF801E75FB7
:1044A000FD4F718360830C94BC1380E50E94ED2D59
:1044B000882311F40C94BC130E94862DF62EC62E70
:1044C000D72E83E50E941C2E882321F00E94862D82
:1044D0008B0102C00FEF1FEFC8010196039710F088
:1044E0000C94BC13D7FE02C00C94BC13EAEEF7E0A8
:1044F00082E198E02491F21611F40C94BC133196E9
:104500008E179F07B9F7DFC483E50E941C2E88230E
:1045100019F00E94862D02C064E071E079A368A3BF
:1045200080E50E941C2E882339F00E94862D693870
:10453000F3E17F0730F402C068EE73E07A836983A9
:1045400004C088E893E19A838983BE01605E7F4F4F
:10455000CE0101960E94D0350C94BC1385E40E94D4
:104560001C2E811110C080E50E94ED2D882391F052
:104570000E94BA2D6093CB027093CC028093CD023F
:104580009093CE0207C00E94962D882361F3E8E045
:10459000FDE172C089E40E94ED2D882381F00E9424
:1045A000BA2D2CEA35EC47E25EE30E9483DE60938D
:1045B000C7027093C8028093C9029093CA0284E430
:1045C0000E94ED2D882381F00E94BA2D2CEA35EC53
:1045D00047E25EE30E94EAE56093CF027093D00267
:1045E0008093D1029093D202EEE3FDE184918F019A
:1045F0000F5F1F4F882321F00E941F2FF801F6CF75
:104600004091CB025091CC026091CD027091CE02CC
:104610008AE198E00E944C6F2CEA35EC47E25EE3B9
:104620006091C7027091C8028091C9029091CA023C
:104630000E94EAE5AB01BC0186E198E00E944C6F64
:104640002CEA35EC47E25EE36091CF027091D00234
:104650008091D1029091D2020E9483DEAB01BC0115
:1046600082E198E00E944C6F8AE00E941F2F0C9418
:10467000BC130E941F2FF80184918F010F5F1F4F01
:104680008111F7CF07E813E0D8018D918D018823C0
:1046900009F4B1C90E941F2FF7CF80E50E94ED2DCC
:1046A000882351F00E94BA2D6093C3027093C40214
:1046B0008093C5029093C60289E40E94ED2D882361
:1046C00081F00E94BA2D2CEA35EC47E25EE30E94AD
:1046D00083DE6093BF027093C0028093C102909307
:1046E000C20284E40E94ED2D882381F00E94BA2D3D
:1046F0002CEA35EC47E25EE30E94EAE56093BB02F8
:104700007093BC028093BD029093BE02EEE3FDE184
:1047100084918F010F5F1F4F882321F00E941F2F6C
:10472000F801F6CF4091C3025091C4026091C502D6
:104730007091C60286E298E00E944C6F2CEA35EC3C
:1047400047E25EE36091BF027091C0028091C102B6
:104750009091C2020E94EAE5AB01BC0182E298E0BE
:104760000E944C6F2CEA35EC47E25EE36091BB029D
:104770007091BC028091BD029091BE020E9483DEC6
:10478000AB01BC018EE198E00E944C6F8AE00E9470
:104790001F2F0C94BC1383E50E94ED2D182F882346
:1047A00071F00E94BA2D0E945CE670932102609322
:1047B000200221E0672B09F020E02093BD1580E561
:1047C0000E94ED2D882361F020912002309121027A
:1047D000232B11F00E94AA2D8093BD150C94BC13BD
:1047E00011110C94BC13EEE3FDE184918F010F5F76
:1047F0001F4F882321F00E941F2FF801F6CF8091D0
:10480000BD15882319F060EE75E002C063E873E01F
:104810008FE398E00E94826F6091200270912102E4
:104820008EE298E00E94696FEAE2F8E084918F01DD
:104830000F5F1F4F882311F40C94BC130E941F2F8D
:10484000F801F4CF0E94EA460C94BC130E94C1B751
:104850000C94BC1386E50E94ED2D882391F0809185
:10486000321580FF0EC0EFE7F8E084918F010F5FF3
:104870001F4F882321F00E941F2FF801F6CF0E94BE
:10488000A7D783E50E94ED2D182F882319F00E94E9
:10489000AA2D182F83E50E94ED2D882319F0812F72
:1048A0000E94962B809132158270F82E111103C050
:1048B000EEE3FDE11BC08111FBCFE8E0FDE1849157
:1048C0008F010F5F1F4F811103C0E0E6F8E004C0C5
:1048D0000E941F2FF801F3CF84918F010F5F1F4FAC
:1048E000882331F30E941F2FF801F6CF84918F01A6
:1048F0000F5F1F4F882321F00E941F2FF801F6CF72
:10490000FF2019F069E773E002C06EE773E082E50B
:1049100098E00E94826F8AE00E941F2F0C94BC13C3
:104920000E949D450C94BC13ACA9BDA98D91BDAB53
:10493000ACAB882309F486C0F501408051806280C9
:104940007380D1012D913D914D915C91F601608173
:104950007181828193810E9467E520E030E040E030
:104960005FE30E9483DE9B01AC01C301B2010E94A0
:10497000EAE6181654F4F70185919591A591B49142
:104980008EAB9FABA8AFB9AF04C01EAA1FAA18AECA
:1049900019AED4012D913D914D915C91C301B201AD
:1049A0000E9466E59B01AC016EA97FA988AD99AD17
:1049B0000E9466E52B013C0120E030E040EA51EC2A
:1049C0000E94EAE687FD0AC020E030E040EA51E4B8
:1049D000C301B2010E941DDE18161CF4E8E0FDE1DF
:1049E00009C0B301A201C8010E94682C2BC00E941B
:1049F0001F2FF80184918F010F5F1F4F8111F7CF97
:104A0000E4EBF8E084918F010F5F1F4F882321F0C2
:104A10000E941F2FF801F6CF61E086EA98E00E941D
:104A20006A9C88E290E09A83898388EC90E099A35D
:104A300088A3BE016F5F7F4FCE0180960E94D03564
:104A40000C94BC130F5F1F4FB4E08B0E911CE4E07D
:104A5000AE0EB11CF4E0CF0ED11C24E0220E311CAE
:104A600034E0E30EF11C0330110509F05DCF0E9424
:104A70001B2D0E945B4B60E085E998E00E946A9CD8
:104A800083E992E099A388A304E610E01A830983DE
:104A9000BE01605E7F4FCE0101960E94D0358AEB49
:104AA00092E099A388A31A830983BE01605E7F4FB9
:104AB000CE0101960E94D0350C94BC130E941B902D
:104AC0008CEF98E09A83898306E410E019A308A389
:104AD000BE016F5F7F4FCE0180960E94D03584E586
:104AE0009BE09A83898319A308A3BE016F5F7F4F60
:104AF000CE0180960E94D0350C94BC130E94098B85
:104B00008CEF98E09A83898306E410E019A308A348
:104B1000BE016F5F7F4FCE0180960E94D03584E545
:104B20009BE09A83898319A308A3BE016F5F7F4F1F
:104B3000CE0180960E94D0350C94BC130E94E5896A
:104B400084E59BE09A83898306E410E019A308A317
:104B5000BE016F5F7F4FCE0180960E94D0358CEFF3
:104B600098E09A83898319A308A3BE016F5F7F4FE2
:104B7000CE0180960E94D0350C94BC1383E50E9430
:104B8000ED2D882319F00E94AA2D01C081E091E04B
:104B900089270E94637D0C94BC1384918F010F5F61
:104BA0001F4F882321F00E941F2FF801F6CF83E0CA
:104BB00090E09093AF118093AE111092AD1190934D
:104BC000AC118093AB1189EB9CE00E9478A010920D
:104BD000A7111092A8111092A9111092AA1180E0A9
:104BE0000E941C368091D814882381F040E050E068
:104BF00069EF78E089E799E00E94BF9B40E050E0D0
:104C000061E070E08EE199E00E94E19A8091D81411
:104C1000882381F040E050E065EE78E08CE699E092
:104C20000E94BF9B40E050E062E070E08EE199E0BE
:104C30000E94E19A8091D814882381F040E050E0EE
:104C400062ED78E08FE599E00E94BF9B40E050E084
:104C500063E070E08EE199E00E94E19A8091D714C0
:104C6000882329F01092AC111092AB1106C080E09D
:104C70000E9492A11092D814B5CF8091AB1190915F
:104C8000AC118330910521F481E00E9492A1F5CF0F
:104C900021E030E03093AF112093AE11892B11F059
:104CA0000C94BC1380E00E941C368091D814882399
:104CB00081F040E050E067E079E089E799E00E9408
:104CC000BF9B40E050E061E070E08EE199E00E941F
:104CD000E19A8091D814882381F040E050E066E0AA
:104CE00079E08CE699E00E94BF9B40E050E062E0F2
:104CF00070E08EE199E00E94E19A1092D8140E942F
:104D0000DCB96093A7117093A8118093A9119093B7
:104D1000AA110C94BC1383E50E94ED2D882311F495
:104D20000C94BC130E94AA2D8093C6110C94BC1342
:104D30000E9406440C94BC130E941F2FF80184911A
:104D40008F010F5F1F4F8111F7CFEFE1F9E08491E1
:104D50008F010F5F1F4F882311F40C94BC130E9426
:104D60001F2FF801F4CF81E08093BA0210924C1DFE
:104D700083E50E94ED2D811104C00E9480A60C9451
:104D8000BC130E94AA2D81110C94BC13F6CFF09095
:104D90009F06FF2029F1EEE3FDE184918F010F5F73
:104DA0001F4F882321F00E941F2FF801F6CF84E5C2
:104DB0000E941F2F6F2D70E080E090E04AE00E947B
:104DC000752F80E20E941F2F07E813E0D8018D9114
:104DD0008D01882311F40C94FB1C0E941F2FF6CF29
:104DE00010928D15EEE3FDE184918F010F5F1F4F4F
:104DF000882321F00E941F2FF801F6CF60918D15B6
:104E000070E08EE299E00E94696F8AE00E941F2F95
:104E10000C94BC1360919A0670919B06672B39F431
:104E2000BF016150710970939B0660939A0660E020
:104E300070E00C944B141092AD110C94BC1361E013
:104E4000802F0E949DB86E2D802F0E946EB8F12C8D
:104E5000B701802F0E94D9B80930110511F00C94C8
:104E6000BC13F0929C11E0929B110C94BC130E9415
:104E7000C1B788E50E94ED2D882319F05F9A109242
:104E8000F21C89E50E94ED2D882319F08A9A109270
:104E9000F31C8AE50E94ED2D882351F09FB7F8940A
:104EA000809108018160809308019FBF1092F41CDB
:104EB00085E40E94ED2D882311F40C94BC130E940C
:104EC00090A10C94BC130E94C1B760E08F2D0E948A
:104ED0009DB80F3FBFEF1B0759F48F2D0E9445B8B7
:104EE00031E020E0892B09F030E0032F122F05C0BC
:104EF0000130110571F401E010E08F2D0E9445B8DA
:104F00008017910711F40C94BC1380E00E9492A1C9
:104F1000F4CF00E010E0F1CFE9960FB6F894DEBFD1
:104F20000FBECDBFDF91CF911F910F91FF90EF90FA
:104F3000DF90CF90BF90AF909F908F907F906F90B9
:104F40005F904F903F902F90089590913B1EE92FD6
:104F5000F0E0E454FE4E80839F5F9A3018F4909303
:104F60003B1E02C010923B1E809165148F5F8093A0
:104F7000651408958FB7F8949091E71D2091E61D70
:104F8000921759F0E92FF0E0EA59F24E208130E013
:104F90009F5F9F779093E71D02C02FEF3FEF8FBF7A
:104FA000C9010895089580E090E008952F923F92FE
:104FB0004F925F926F927F928F929F92AF92BF9229
:104FC000CF92DF92EF92FF920F931F93CF93DF93D5
:104FD00000D000D0CDB7DEB79A8389830E94DCB9B8
:104FE000E981FA81C680D780E084F184C114D104BC
:104FF000E104F10409F0ACC22485222309F469C359
:1050000032852150248721E0230F228745852413F0
:1050100001C01286E981FA8124E0329FE00DF11D82
:105020001124C684D784E088F188E981FA81C2829C
:10503000D382E482F582DC01CB018C0D9D1DA11D84
:10504000B11D86839783A087B18784819581892B41
:1050500009F43FC3FFB7FD83F894E981FA81228008
:1050600033802101612C712C0481158180913D02D6
:10507000853221F08F3F09F068C205C0E5E1F1E219
:1050800024912E83DAC085E280933D02E5E1F1E2CE
:1050900084918E838F3F09F458C2823009F469C02D
:1050A00030F5882309F44CC0813009F0C6C0109255
:1050B000800010928100809181008860809381003F
:1050C00080918100816080938100E2E0F5E2E491CB
:1050D000F0E0EE0FFF1FE755FB4D85919491E8E45A
:1050E000F5E2E491E0937514E1E0EE8330C19E8136
:1050F000943009F482C008F460C0953009F09DC076
:1051000010922001109221018091210188608093EA
:10511000210180912101816080932101E2E0F5E28B
:10512000E491F0E0EE0FFF1FE755FB4D8591949160
:10513000E8E4F5E2E491E093721495E09E8307C100
:1051400014BC15BC84B5826084BD85B5816085BD05
:10515000E2E0F5E2E491F0E0EE0FFF1FE755FB4DD2
:1051600085919491E8E4F5E2E491E09376141E824F
:10517000ABC21092B0001092B1008091B00082607A
:105180008093B0008091B10081608093B100E2E033
:10519000F5E2E491F0E0EE0FFF1FE755FB4D85913E
:1051A00094919093301D80932F1DE8E4F5E2E491F3
:1051B000E093311DF2E0FE8387C2109290001092BE
:1051C000910080919100886080939100809191007E
:1051D000816080939100E2E0F5E2E491F0E0EE0F6F
:1051E000FF1FE755FB4D85919491E8E4F5E2E491CA
:1051F000E093741423E02E83AAC01092A0001092B2
:10520000A1008091A10088608093A1008091A100FD
:1052100081608093A100E2E0F5E2E491F0E0EE0F1E
:10522000FF1FE755FB4D85919491E8E4F5E2E49189
:10523000E093731484E08E838AC0EE81E7FD85C11C
:1052400061E085E20E949DB88E818D7F09F083C068
:105250004801A12CB12C60E072E18AE790E0A50141
:1052600094010E9437E529833A834B835C8369016B
:105270007A01F1E0CF1AD108E108F1082FEFC21648
:10528000D104E104F10409F008F44EC060E472E4D2
:105290008FE090E0A50194010E9437E569017A0151
:1052A00081E0C81AD108E108F1089E81923009F521
:1052B000EFEFCE16D104E104F10409F008F4CBC1FC
:1052C00060E970ED83E090E0A50194010E9437E56C
:1052D00069017A01F1E0CF1AD108E108F1082FEF56
:1052E000C216D104E104F10411F008F041C183E0D9
:1052F00027C08FEFC816D104E104F104B9F0B0F073
:1053000068E478EE81E090E0A50194010E9437E521
:1053100069017A0191E0C91AD108E108F108EE812A
:10532000EE2309F49AC163C181E001C082E09E814D
:10533000911106C095B5987F892B85BD7AC085E00F
:105340009091B100987F892B8093B10072C061E089
:1053500085E20E949DB84801A12CB12C60E072E169
:105360008AE790E0A50194010E9437E569017A017E
:10537000E1E0CE1AD108E108F108C114D104F1E04E
:10538000EF06F10488F068E478EE81E090E0A50192
:1053900094010E9437E569017A0181E0C81AD108B9
:1053A000E108F10883E001C081E09E81913071F451
:1053B00090918100987F892B809381004528462811
:1053C0004728D9F52FEF3FEFA90168C0EE81E33000
:1053D00071F490919100987F892B809391004528DA
:1053E0004628472851F52FEF3FEFA90179C0FE81EC
:1053F000F43071F49091A100987F892B8093A100E3
:10540000452846284728C9F42FEF3FEFA9017AC065
:105410002E81253071F490912101987F892B809302
:10542000210145284628472841F42FEF3FEFA901E5
:105430007BC045284628472869F0D801AA0FBB1F22
:1054400091010E9400E528EE33E040E050E00E9428
:10545000D3E403C02FEF3FEFA9018E81823081F1A9
:105460002CF4882361F08130C9F06FC09E819430A4
:1054700009F448C0ACF1953009F456C066C0C7BC09
:1054800020938714309388144093891450938A147E
:1054900080916E00826080936E0057C0D092890028
:1054A000C092880020938314309384144093851411
:1054B0005093861480916F00826080936F0045C086
:1054C000C092B3002093321D3093331D4093341D9E
:1054D0005093351D8091700082608093700035C0BC
:1054E000D0929900C092980020937F14309380143A
:1054F0004093811450938214809171008260809354
:10550000710023C0D092A900C092A80020937B1400
:1055100030937C1440937D1450937E1480917200DC
:1055200082608093720011C0D0922901C09228013C
:1055300020937714309378144093791450937A140D
:1055400080917300826080937300ED81EFBFC1C0D2
:10555000DC01CB018C199D09AE09BF09B7FDB9C0AB
:105560004098E981FA811682178210861186B1C0AF
:1055700068E478EE81E090E0A50194010E9437E5AF
:1055800069017A01F1E0CF1AD108E108F1082FEFA3
:10559000C216D104E104F10441F138F164E274EF80
:1055A00080E090E0A50194010E9437E569017A014D
:1055B000F1E0CF1AD108E108F1082FEFC216D104AB
:1055C000E104F10409F008F4BACE62E17AE780E080
:1055D00090E0A50194010E9437E569017A0181E01C
:1055E000C81AD108E108F10819C084E0A9CE2FEF4C
:1055F000C216D104E104F10409F008F463C062E1C9
:105600007AE780E090E0A50194010E9437E5690106
:105610007A01F1E0CF1AD108E108F1082FEFC216A4
:10562000D104E104F104A9F0A0F089819A81AB8151
:10563000BC812AE0B595A795979587952A95D1F7CE
:105640006C017D01F1E0CF1AD108E108F10887E093
:1056500077CE86E075CE82E073CEEFEFCE16D10422
:10566000E104F10469F160F162E17AE780E090E041
:10567000A50194010E9437E569017A0181E0C81A09
:10568000D108E108F1089FEFC916D104E104F10443
:10569000A9F0A0F089819A81AB81BC813AE0B595EF
:1056A000A795979587953A95D1F76C017D01E1E033
:1056B000CE1AD108E108F10885E03CCE84E03ACE6C
:1056C00083E038CE84E033CE61E085E20E949DB86D
:1056D000BFCD26960FB6F894DEBF0FBECDBFDF91CB
:1056E000CF911F910F91FF90EF90DF90CF90BF90DF
:1056F000AF909F908F907F906F905F904F903F9072
:105700002F9008958FED9FE00E947E8221E0892BEB
:1057100009F420E0822F08958CE790E10E947E82B8
:1057200021E0892B09F420E0822F08959091321511
:1057300091FB222720F98217C9F081110EC041EF99
:1057400054E16DEE74E189EE94E10E94185E80915F
:1057500032158D7F80933215089590FFF8CF9260B7
:105760009093321589EE94E10C949D6F08958F9279
:105770009F92AF92BF92CF92EF92FF920F931F939F
:10578000CF93DF93CDB7DEB72C970FB6F894DEBF7B
:105790000FBECDBF4B015C01C0908D15E5EFFCE164
:1057A00080859185A285B385448155816681778105
:1057B000008111812281338109831A832B833C83E9
:1057C0004D835E836F83788789879A87AB87BC8791
:1057D000AE01475F5F4FBE016B5F7F4FCE01019609
:1057E0000E94185E8501740121E03DE1AE01475F32
:1057F0005F4FBE016B5F7F4FCE0101960E94804FCD
:105800002C960FB6F894DEBF0FBECDBFDF91CF91BF
:105810001F910F91FF90EF90CF90BF90AF909F900E
:105820008F900895CF92DF92EF92FF920F931F9384
:10583000CF93DF93EC01CC0FDD1FCC0FDD1FFE01FA
:10584000E055FE4E20E030E0A90160817181828147
:1058500093810E9467E5FE01EC5BF14E208131816E
:10586000428153810E9467E56B017C01FE01E25495
:10587000FA4E6083718382839383FE01EB53F24F70
:1058800025913591459154918E010B5F124E0E94E6
:1058900067E5F8016083718382839383FE01EF5291
:1058A000F24F2591359145915491C95DDD4FC70166
:1058B000B6010E9467E5688379838A839B83DF91C1
:1058C000CF911F910F91FF90EF90DF90CF900895AF
:1058D0008F929F92AF92BF92EF92FF920F931F937E
:1058E000CF93DF938C014A015B01EC01CC0FDD1FEC
:1058F000CC0FDD1FCE0187519B4E7C01C055DE4E83
:10590000288139814A815B81C501B4010E9466E525
:10591000F70120813181428153810E9467E5F701BF
:10592000608371838283938388829982AA82BB82F7
:10593000C801DF91CF911F910F91FF90EF90BF9021
:10594000AF909F908F900C94122CCF93FC012081EC
:105950002B33A9F0209165142A3088F4C62FBC019E
:1059600080913B1EF0E48F9FC00111248C519E4E0C
:105970000E94AEE88C2F0E94A52781E001C080E044
:10598000CF910895DF92EF92FF920F931F93CF93E1
:10599000DF93CDB7DEB76E970FB6F894DEBF0FBEBC
:1059A000CDBF6091EA1C7091EB1C6115710549F146
:1059B0004DE150E0CE0101967C010E9497DD1E8EE4
:1059C000F7018F010E191F09D190DD2019F09AE01F
:1059D000D912F7CFF701E00FF11F1082C7010E9423
:1059E0006E75882371F0DD20A9F00F5F1F4F809145
:1059F000EA1C9091EB1C080F191F1093EB1C0093ED
:105A0000EA1C81E02091EA1C3091EB1C232B29F445
:105A100080E003C000E010E0F0CF6E960FB6F8947F
:105A2000DEBF0FBECDBFDF91CF911F910F91FF90D1
:105A3000EF90DF9008950F931F93CF93DF93CDB72F
:105A4000DEB72C970FB6F894DEBF0FBECDBFE9EEE0
:105A5000F4E180859185A285B38544815581668175
:105A60007781008111812281338109831A832B83FD
:105A70003C834D835E836F83788789879A87AB8762
:105A8000BC87AE01475F5F4FBE016B5F7F4FCE01AA
:105A900001960E94185E25EF34E1AE01475F5F4F2B
:105AA000BE016B5F7F4FCE0101960E940D712C9657
:105AB0000FB6F894DEBF0FBECDBFDF91CF911F911F
:105AC0000F91089580E1E9EEF4E1A5EFBCE10190CA
:105AD0000D928A95E1F7089580E1E5EFFCE1A9EEEA
